{
	"data": {
		"bytecode": {
			"linkReferences": {},
			"object": "608060405260008054600160ff1990911617610100600160a81b03191674a43509661141f254f54d9a326e8ec851a0b953070017905534801561004157600080fd5b5060c6806100506000396000f3fe6080604052348015600f57600080fd5b506004361060325760003560e01c80636ec232d31460375780639f8b5da1146059575b600080fd5b603d6073565b604080516001600160a01b039092168252519081900360200190f35b605f6087565b604080519115158252519081900360200190f35b60005461010090046001600160a01b031681565b60005460ff168156fea26469706673582212209c42992778c09162a15f8d8e8d0c2ccb1ac4984280227a51e3ca64c04989136c64736f6c634300060c0033",
			"opcodes": "PUSH1 0x80 PUSH1 0x40 MSTORE PUSH1 0x0 DUP1 SLOAD PUSH1 0x1 PUSH1 0xFF NOT SWAP1 SWAP2 AND OR PUSH2 0x100 PUSH1 0x1 PUSH1 0xA8 SHL SUB NOT AND PUSH21 0xA43509661141F254F54D9A326E8EC851A0B9530700 OR SWAP1 SSTORE CALLVALUE DUP1 ISZERO PUSH2 0x41 JUMPI PUSH1 0x0 DUP1 REVERT JUMPDEST POP PUSH1 0xC6 DUP1 PUSH2 0x50 PUSH1 0x0 CODECOPY PUSH1 0x0 RETURN INVALID PUSH1 0x80 PUSH1 0x40 MSTORE CALLVALUE DUP1 ISZERO PUSH1 0xF JUMPI PUSH1 0x0 DUP1 REVERT JUMPDEST POP PUSH1 0x4 CALLDATASIZE LT PUSH1 0x32 JUMPI PUSH1 0x0 CALLDATALOAD PUSH1 0xE0 SHR DUP1 PUSH4 0x6EC232D3 EQ PUSH1 0x37 JUMPI DUP1 PUSH4 0x9F8B5DA1 EQ PUSH1 0x59 JUMPI JUMPDEST PUSH1 0x0 DUP1 REVERT JUMPDEST PUSH1 0x3D PUSH1 0x73 JUMP JUMPDEST PUSH1 0x40 DUP1 MLOAD PUSH1 0x1 PUSH1 0x1 PUSH1 0xA0 SHL SUB SWAP1 SWAP3 AND DUP3 MSTORE MLOAD SWAP1 DUP2 SWAP1 SUB PUSH1 0x20 ADD SWAP1 RETURN JUMPDEST PUSH1 0x5F PUSH1 0x87 JUMP JUMPDEST PUSH1 0x40 DUP1 MLOAD SWAP2 ISZERO ISZERO DUP3 MSTORE MLOAD SWAP1 DUP2 SWAP1 SUB PUSH1 0x20 ADD SWAP1 RETURN JUMPDEST PUSH1 0x0 SLOAD PUSH2 0x100 SWAP1 DIV PUSH1 0x1 PUSH1 0x1 PUSH1 0xA0 SHL SUB AND DUP2 JUMP JUMPDEST PUSH1 0x0 SLOAD PUSH1 0xFF AND DUP2 JUMP INVALID LOG2 PUSH5 0x6970667358 0x22 SLT KECCAK256 SWAP13 TIMESTAMP SWAP10 0x27 PUSH25 0xC09162A15F8D8E8D0C2CCB1AC4984280227A51E3CA64C04989 SGT PUSH13 0x64736F6C634300060C00330000 "
		},
		"gasEstimates": {
			"creation": {
				"codeDepositCost": "39600",
				"executionCost": "20950",
				"totalCost": "60550"
			},
			"external": {
				"gasprice()": "1026",
				"shouldGasThrottle()": "1010"
			}
		},
		"methodIdentifiers": {
			"gasprice()": "6ec232d3",
			"shouldGasThrottle()": "9f8b5da1"
		}
	},
	"abi": [
		{
			"inputs": [],
			"name": "gasprice",
			"outputs": [
				{
					"internalType": "address",
					"name": "",
					"type": "address"
				}
			],
			"stateMutability": "view",
			"type": "function"
		},
		{
			"inputs": [],
			"name": "shouldGasThrottle",
			"outputs": [
				{
					"internalType": "bool",
					"name": "",
					"type": "bool"
				}
			],
			"stateMutability": "view",
			"type": "function"
		}
	]
}