{
	"data": {
		"bytecode": {
			"linkReferences": {},
			"object": "6080604052600a600655606f6007556103796008553480156200002157600080fd5b5060405162003db438038062003db483398181016040526101408110156200004857600080fd5b815160208301516040808501516060860151608087015160a088015160c089015160e08a0180519651989a9799959894979396929591949391820192846401000000008211156200009857600080fd5b908301906020820185811115620000ae57600080fd5b8251866020820283011164010000000082111715620000cc57600080fd5b82525081516020918201928201910280838360005b83811015620000fb578181015183820152602001620000e1565b50505050905001604052602001805160405193929190846401000000008211156200012557600080fd5b9083019060208201858111156200013b57600080fd5b82518660208202830111640100000000821117156200015957600080fd5b82525081516020918201928201910280838360005b83811015620001885781810151838201526020016200016e565b5050505090500160405260200180516040519392919084640100000000821115620001b257600080fd5b908301906020820185811115620001c857600080fd5b8251866020820283011164010000000082111715620001e657600080fd5b82525081516020918201928201910280838360005b8381101562000215578181015183820152602001620001fb565b505050509050016040525050508585888a87600062000239620006df60201b60201c565b600080546001600160a01b0319166001600160a01b0383169081178255604051929350917f8be0079c531659141344cd1fd0a4f28419497f9722a3daafe3b4186f6b6457e0908290a3506000805460ff60a01b19168155600180546001600160a01b03199081166001600160a01b0398891617909155600280548216968816969096179095556003805486169487169490941790935560048054851692861692909217909155600580548416918516919091179055600b805483168e8516179055600e8054909216928c1692909217905583518491906200031657fe5b6020026020010151600a60006101000a8154816001600160a01b0302191690836001600160a01b03160217905550826001845103815181106200035557fe5b602090810291909101810151600980546001600160a01b0319166001600160a01b0390921691909117905583516200039491600f919086019062000c31565b50600b60009054906101000a90046001600160a01b03166001600160a01b0316630dfe16816040518163ffffffff1660e01b815260040160206040518083038186803b158015620003e457600080fd5b505afa158015620003f9573d6000803e3d6000fd5b505050506040513d60208110156200041057600080fd5b5051600c80546001600160a01b0319166001600160a01b03928316179055600954835191169083906000906200044257fe5b60200260200101516001600160a01b031614620004a6576040805162461bcd60e51b815260206004820152601d60248201527f6e6174697665546f4c7030526f7574655b305d20213d206e6174697665000000604482015290519081900360640190fd5b600c5482516001600160a01b039091169083906000198101908110620004c857fe5b60200260200101516001600160a01b031614620005175760405162461bcd60e51b815260040180806020018281038252602281526020018062003cea6022913960400191505060405180910390fd5b81516200052c90601090602085019062000c31565b50600b60009054906101000a90046001600160a01b03166001600160a01b031663d21220a76040518163ffffffff1660e01b815260040160206040518083038186803b1580156200057c57600080fd5b505afa15801562000591573d6000803e3d6000fd5b505050506040513d6020811015620005a857600080fd5b5051600d80546001600160a01b0319166001600160a01b0392831617905560095482519116908290600090620005da57fe5b60200260200101516001600160a01b0316146200063e576040805162461bcd60e51b815260206004820152601d60248201527f6e6174697665546f4c7031526f7574655b305d20213d206e6174697665000000604482015290519081900360640190fd5b600d5481516001600160a01b0390911690829060001981019081106200066057fe5b60200260200101516001600160a01b031614620006af5760405162461bcd60e51b815260040180806020018281038252602281526020018062003d326022913960400191505060405180910390fd5b8051620006c490601190602084019062000c31565b50620006cf620006e3565b5050505050505050505062000cbc565b3390565b600e54600b5462000710916001600160a01b0391821691166000196200081e602090811b62001ad217901c565b600354600a546200073d916001600160a01b0391821691166000196200081e602090811b62001ad217901c565b6003546009546200076a916001600160a01b0391821691166000196200081e602090811b62001ad217901c565b600354600c5462000796916001600160a01b03918216911660006200081e602090811b62001ad217901c565b600354600c54620007c3916001600160a01b0391821691166000196200081e602090811b62001ad217901c565b600354600d54620007ef916001600160a01b03918216911660006200081e602090811b62001ad217901c565b600354600d546200081c916001600160a01b0391821691166000196200081e602090811b62001ad217901c565b565b801580620008a8575060408051636eb1769f60e11b81523060048201526001600160a01b03848116602483015291519185169163dd62ed3e91604480820192602092909190829003018186803b1580156200087857600080fd5b505afa1580156200088d573d6000803e3d6000fd5b505050506040513d6020811015620008a457600080fd5b5051155b620008e55760405162461bcd60e51b815260040180806020018281038252603681526020018062003d7e6036913960400191505060405180910390fd5b604080516001600160a01b038416602482015260448082018490528251808303909101815260649091019091526020810180516001600160e01b0390811663095ea7b360e01b179091526200093d9185916200094216565b505050565b60606200099e826040518060400160405280602081526020017f5361666545524332303a206c6f772d6c6576656c2063616c6c206661696c6564815250856001600160a01b0316620009fe60201b62001be5179092919060201c565b8051909150156200093d57808060200190516020811015620009bf57600080fd5b50516200093d5760405162461bcd60e51b815260040180806020018281038252602a81526020018062003d54602a913960400191505060405180910390fd5b606062000a0f848460008562000a19565b90505b9392505050565b60608247101562000a5c5760405162461bcd60e51b815260040180806020018281038252602681526020018062003d0c6026913960400191505060405180910390fd5b62000a678562000b81565b62000ab9576040805162461bcd60e51b815260206004820152601d60248201527f416464726573733a2063616c6c20746f206e6f6e2d636f6e7472616374000000604482015290519081900360640190fd5b60006060866001600160a01b031685876040518082805190602001908083835b6020831062000afa5780518252601f19909201916020918201910162000ad9565b6001836020036101000a03801982511681845116808217855250505050505090500191505060006040518083038185875af1925050503d806000811462000b5e576040519150601f19603f3d011682016040523d82523d6000602084013e62000b63565b606091505b50909250905062000b7682828662000b87565b979650505050505050565b3b151590565b6060831562000b9857508162000a12565b82511562000ba95782518084602001fd5b8160405162461bcd60e51b81526004018080602001828103825283818151815260200191508051906020019080838360005b8381101562000bf557818101518382015260200162000bdb565b50505050905090810190601f16801562000c235780820380516001836020036101000a031916815260200191505b509250505060405180910390fd5b82805482825590600052602060002090810192821562000c89579160200282015b8281111562000c8957825182546001600160a01b0319166001600160a01b0390911617825560209092019160019091019062000c52565b5062000c9792915062000c9b565b5090565b5b8082111562000c975780546001600160a01b031916815560010162000c9c565b61301e8062000ccc6000396000f3fe608060405234801561001057600080fd5b50600436106103785760003560e01c8063877562b6116101d3578063d0e30db011610104578063ea82eb9e116100a2578063f2fde38b1161007c578063f2fde38b146106fa578063fb61778714610720578063fbfa77cf14610728578063fc61568b1461073057610378565b8063ea82eb9e146106e2578063f1a392da146106ea578063f20eaeb8146106f257610378565b8063dc4987cc116100de578063dc4987cc14610698578063dfbdc437146106b5578063e0e4130b146106bd578063e270dbf3146106c557610378565b8063d0e30db014610662578063d801d9461461066a578063d92f3d731461067257610378565b8063ab6d750611610171578063bc063e1a1161014b578063bc063e1a1461060f578063be12a97814610617578063c1a3d44c14610634578063c7b9d5301461063c57610378565b8063ab6d7506146105c4578063ac1e5025146105ea578063aced16611461060757610378565b80638ce026e3116101ad5780638ce026e3146105a45780638da5cb5b146105ac57806390321e1a146105b457806397fd323d146105bc57610378565b8063877562b61461058c5780638912cb8b146105945780638bc7e8c41461059c57610378565b80634641257d116102ad57806366666aa91161024b578063722713f711610225578063722713f71461054e578063748747e6146105565780637d38ca651461057c5780638456cb591461058457610378565b806366666aa9146105185780636817031b14610520578063715018a61461054657610378565b8063573fef0a11610287578063573fef0a146104e45780635c975abb146104ec5780635ee167c0146105085780636013d5bf1461051057610378565b80634641257d146104cc5780634700d305146104d457806354518b1a146104dc57610378565b8063257ae0de1161031a5780632e1a7d4d116102f45780632e1a7d4d1461049757806337bdd204146104b45780633d79d334146104bc5780633f4ba83a146104c457610378565b8063257ae0de1461046a57806326465826146104725780632ad5a53f1461048f57610378565b806311b0b42d1161035657806311b0b42d146103de57806313e120b1146104025780631f1fcd511461045a5780631fe4a6861461046257610378565b80630e5c011e1461037d5780630e8fbb5a146103a557806311588086146103c4575b600080fd5b6103a36004803603602081101561039357600080fd5b50356001600160a01b0316610738565b005b6103a3600480360360208110156103bb57600080fd5b50351515610744565b6103cc6107e7565b60408051918252519081900360200190f35b6103e6610863565b604080516001600160a01b039092168252519081900360200190f35b61040a610872565b60408051602080825283518183015283519192839290830191858101910280838360005b8381101561044657818101518382015260200161042e565b505050509050019250505060405180910390f35b6103e66108d4565b6103e66108e3565b6103e66108f2565b6103a36004803603602081101561048857600080fd5b5035610901565b6103cc6109bb565b6103a3600480360360208110156104ad57600080fd5b50356109c0565b61040a610b7f565b6103cc610bdf565b6103a3610c2a565b6103a3610cb1565b6103a3610cba565b6103cc610d98565b6103a3610d9e565b6104f4610df1565b604080519115158252519081900360200190f35b6103e6610e01565b6103e6610e10565b6103e6610e28565b6103a36004803603602081101561053657600080fd5b50356001600160a01b0316610e37565b6103a3610ebb565b6103cc610f67565b6103a36004803603602081101561056c57600080fd5b50356001600160a01b0316610f87565b6103cc611016565b6103a361101b565b6103e6611098565b6104f46110a7565b6103cc6110b0565b6103cc6110b6565b6103e66111ba565b6103cc6111c9565b6103cc6111cf565b6103a3600480360360208110156105da57600080fd5b50356001600160a01b03166113b4565b6103a36004803603602081101561060057600080fd5b5035611438565b6103e66114e9565b6103cc6114f8565b6103e66004803603602081101561062d57600080fd5b50356114fe565b6103cc611525565b6103a36004803603602081101561065257600080fd5b50356001600160a01b0316611570565b6103a36115df565b6103a36116e1565b6103a36004803603602081101561068857600080fd5b50356001600160a01b031661174e565b6103e6600480360360208110156106ae57600080fd5b50356117d2565b6103cc6117df565b6103e66117e4565b6103e6600480360360208110156106db57600080fd5b50356117f3565b61040a611800565b6103cc611860565b6103e6611866565b6103a36004803603602081101561071057600080fd5b50356001600160a01b0316611875565b6103a3611977565b6103e6611abd565b6103cc611acc565b61074181611bfe565b50565b61074c6111ba565b6001600160a01b0316336001600160a01b0316148061077557506001546001600160a01b031633145b6107b1576040805162461bcd60e51b815260206004820152600860248201526710b6b0b730b3b2b960c11b604482015290519081900360640190fd5b6012805460ff1916821515179081905560ff161515600114156107dd576107d86000611438565b610741565b610741600a611438565b600e54604080516370a0823160e01b815230600482015290516000926001600160a01b0316916370a08231916024808301926020929190829003018186803b15801561083257600080fd5b505afa158015610846573d6000803e3d6000fd5b505050506040513d602081101561085c57600080fd5b5051905090565b6009546001600160a01b031681565b6060600f8054806020026020016040519081016040528092919081815260200182805480156108ca57602002820191906000526020600020905b81546001600160a01b031681526001909101906020018083116108ac575b5050505050905090565b600b546001600160a01b031681565b6002546001600160a01b031681565b6003546001600160a01b031681565b6109096111ba565b6001600160a01b0316336001600160a01b0316148061093257506001546001600160a01b031633145b61096e576040805162461bcd60e51b815260206004820152600860248201526710b6b0b730b3b2b960c11b604482015290519081900360640190fd5b606f8111156109ad576040805162461bcd60e51b815260206004808301919091526024820152630216361760e41b604482015290519081900360640190fd5b60078190556103e803600855565b606f81565b6004546001600160a01b03163314610a08576040805162461bcd60e51b8152602060048201526006602482015265085d985d5b1d60d21b604482015290519081900360640190fd5b6000610a12611525565b905081811015610a9057600e546001600160a01b0316632e1a7d4d610a378484611f21565b6040518263ffffffff1660e01b815260040180828152602001915050600060405180830381600087803b158015610a6d57600080fd5b505af1158015610a81573d6000803e3d6000fd5b50505050610a8d611525565b90505b81811115610a9b5750805b610aa36111ba565b6001600160a01b0316326001600160a01b03161480610ac55750610ac5610df1565b15610aec57600454600b54610ae7916001600160a01b03918216911683611f83565b610b41565b6000610b0f612710610b0960065485611fd590919063ffffffff16565b9061202e565b600454909150610b3f906001600160a01b0316610b2c8484611f21565b600b546001600160a01b03169190611f83565b505b7f5b6b431d4476a211bb7d41c20d1aab9ae2321deee0d20be3d9fc9b1093fa6e3d610b6a610f67565b60408051918252519081900360200190a15050565b606060118054806020026020016040519081016040528092919081815260200182805480156108ca576020028201919060005260206000209081546001600160a01b031681526001909101906020018083116108ac575050505050905090565b600e546040805163307d9b1360e11b815230600482015290516000926001600160a01b0316916360fb3626916024808301926020929190829003018186803b15801561083257600080fd5b610c326111ba565b6001600160a01b0316336001600160a01b03161480610c5b57506001546001600160a01b031633145b610c97576040805162461bcd60e51b815260206004820152600860248201526710b6b0b730b3b2b960c11b604482015290519081900360640190fd5b610c9f612095565b610ca7612138565b610caf6115df565b565b610caf32611bfe565b610cc26111ba565b6001600160a01b0316336001600160a01b03161480610ceb57506001546001600160a01b031633145b610d27576040805162461bcd60e51b815260206004820152600860248201526710b6b0b730b3b2b960c11b604482015290519081900360640190fd5b610d2f61101b565b600e546001600160a01b0316632e1a7d4d610d486107e7565b6040518263ffffffff1660e01b815260040180828152602001915050600060405180830381600087803b158015610d7e57600080fd5b505af1158015610d92573d6000803e3d6000fd5b50505050565b61271081565b60125460ff1615610caf576004546001600160a01b03163314610cb1576040805162461bcd60e51b8152602060048201526006602482015265085d985d5b1d60d21b604482015290519081900360640190fd5b600054600160a01b900460ff1690565b600c546001600160a01b031681565b73f28164a485b0b2c90639e47b0f377b4a438a16b181565b600e546001600160a01b031681565b610e3f61220f565b6001600160a01b0316610e506111ba565b6001600160a01b031614610e99576040805162461bcd60e51b81526020600482018190526024820152600080516020612f69833981519152604482015290519081900360640190fd5b600480546001600160a01b0319166001600160a01b0392909216919091179055565b610ec361220f565b6001600160a01b0316610ed46111ba565b6001600160a01b031614610f1d576040805162461bcd60e51b81526020600482018190526024820152600080516020612f69833981519152604482015290519081900360640190fd5b600080546040516001600160a01b03909116907f8be0079c531659141344cd1fd0a4f28419497f9722a3daafe3b4186f6b6457e0908390a3600080546001600160a01b0319169055565b6000610f82610f746107e7565b610f7c611525565b90612213565b905090565b610f8f6111ba565b6001600160a01b0316336001600160a01b03161480610fb857506001546001600160a01b031633145b610ff4576040805162461bcd60e51b815260206004820152600860248201526710b6b0b730b3b2b960c11b604482015290519081900360640190fd5b600180546001600160a01b0319166001600160a01b0392909216919091179055565b600081565b6110236111ba565b6001600160a01b0316336001600160a01b0316148061104c57506001546001600160a01b031633145b611088576040805162461bcd60e51b815260206004820152600860248201526710b6b0b730b3b2b960c11b604482015290519081900360640190fd5b61109061226d565b610caf6122f6565b600d546001600160a01b031681565b60125460ff1681565b60065481565b600e5460408051631820d73960e01b8152306004820152905160009283926001600160a01b0390911691631820d73991602480820192602092909190829003018186803b15801561110657600080fd5b505afa15801561111a573d6000803e3d6000fd5b505050506040513d602081101561113057600080fd5b5051604080516315a33b5f60e31b815260048101839052905191925073f28164a485b0b2c90639e47b0f377b4a438a16b19163ad19daf891602480820192602092909190829003018186803b15801561118857600080fd5b505afa15801561119c573d6000803e3d6000fd5b505050506040513d60208110156111b257600080fd5b505191505090565b6000546001600160a01b031690565b60075481565b6000806111da6110b6565b905060006111e6610bdf565b905060008215611374576003546040805163d06ca61f60e01b81526004810186815260248201928352600f8054604484018190526001600160a01b039095169463d06ca61f94899492939290916064909101908490801561127057602002820191906000526020600020905b81546001600160a01b03168152600190910190602001808311611252575b5050935050505060006040518083038186803b15801561128f57600080fd5b505afa92505050801561134f57506040513d6000823e601f3d908101601f1916820160405260208110156112c257600080fd5b8101908080516040519392919084600160201b8211156112e157600080fd5b9083019060208201858111156112f657600080fd5b82518660208202830111600160201b8211171561131257600080fd5b82525081516020918201928201910280838360005b8381101561133f578181015183820152602001611327565b5050505090500160405250505060015b61135857611374565b8060018251038151811061136857fe5b60200260200101519150505b61137e8183612213565b90506113ac6103e8610b096007546113a66103e8610b09601e88611fd590919063ffffffff16565b90611fd5565b935050505090565b6113bc61220f565b6001600160a01b03166113cd6111ba565b6001600160a01b031614611416576040805162461bcd60e51b81526020600482018190526024820152600080516020612f69833981519152604482015290519081900360640190fd5b600580546001600160a01b0319166001600160a01b0392909216919091179055565b6114406111ba565b6001600160a01b0316336001600160a01b0316148061146957506001546001600160a01b031633145b6114a5576040805162461bcd60e51b815260206004820152600860248201526710b6b0b730b3b2b960c11b604482015290519081900360640190fd5b60328111156114e4576040805162461bcd60e51b815260206004808301919091526024820152630216361760e41b604482015290519081900360640190fd5b600655565b6001546001600160a01b031681565b6103e881565b600f818154811061150b57fe5b6000918252602090912001546001600160a01b0316905081565b600b54604080516370a0823160e01b815230600482015290516000926001600160a01b0316916370a08231916024808301926020929190829003018186803b15801561083257600080fd5b6002546001600160a01b031633146115bd576040805162461bcd60e51b815260206004820152600b60248201526a085cdd1c985d1959da5cdd60aa1b604482015290519081900360640190fd5b600280546001600160a01b0319166001600160a01b0392909216919091179055565b6115e7610df1565b1561162c576040805162461bcd60e51b815260206004820152601060248201526f14185d5cd8589b194e881c185d5cd95960821b604482015290519081900360640190fd5b6000611636611525565b905080156116a457600e546040805163534a7e1d60e11b81526004810184905290516001600160a01b039092169163a694fc3a9160248082019260009290919082900301818387803b15801561168b57600080fd5b505af115801561169f573d6000803e3d6000fd5b505050505b7f4d6ce1e535dbade1c23defba91e23b8f791ce5edc0cc320257a2b364e4e384266116cd610f67565b60408051918252519081900360200190a150565b6116e96111ba565b6001600160a01b0316336001600160a01b0316148061171257506001546001600160a01b031633145b610cb1576040805162461bcd60e51b815260206004820152600860248201526710b6b0b730b3b2b960c11b604482015290519081900360640190fd5b61175661220f565b6001600160a01b03166117676111ba565b6001600160a01b0316146117b0576040805162461bcd60e51b81526020600482018190526024820152600080516020612f69833981519152604482015290519081900360640190fd5b600380546001600160a01b0319166001600160a01b0392909216919091179055565b6011818154811061150b57fe5b603281565b6005546001600160a01b031681565b6010818154811061150b57fe5b606060108054806020026020016040519081016040528092919081815260200182805480156108ca576020028201919060005260206000209081546001600160a01b031681526001909101906020018083116108ac575050505050905090565b60135481565b600a546001600160a01b031681565b61187d61220f565b6001600160a01b031661188e6111ba565b6001600160a01b0316146118d7576040805162461bcd60e51b81526020600482018190526024820152600080516020612f69833981519152604482015290519081900360640190fd5b6001600160a01b03811661191c5760405162461bcd60e51b8152600401808060200182810382526026815260200180612efc6026913960400191505060405180910390fd5b600080546040516001600160a01b03808516939216917f8be0079c531659141344cd1fd0a4f28419497f9722a3daafe3b4186f6b6457e091a3600080546001600160a01b0319166001600160a01b0392909216919091179055565b6004546001600160a01b031633146119bf576040805162461bcd60e51b8152602060048201526006602482015265085d985d5b1d60d21b604482015290519081900360640190fd5b600e546001600160a01b0316632e1a7d4d6119d86107e7565b6040518263ffffffff1660e01b815260040180828152602001915050600060405180830381600087803b158015611a0e57600080fd5b505af1158015611a22573d6000803e3d6000fd5b505050506000611a30611525565b600b54600480546040805163a9059cbb60e01b81526001600160a01b039283169381019390935260248301859052519394509091169163a9059cbb916044808201926020929091908290030181600087803b158015611a8e57600080fd5b505af1158015611aa2573d6000803e3d6000fd5b505050506040513d6020811015611ab857600080fd5b505050565b6004546001600160a01b031681565b60085481565b801580611b58575060408051636eb1769f60e11b81523060048201526001600160a01b03848116602483015291519185169163dd62ed3e91604480820192602092909190829003018186803b158015611b2a57600080fd5b505afa158015611b3e573d6000803e3d6000fd5b505050506040513d6020811015611b5457600080fd5b5051155b611b935760405162461bcd60e51b8152600401808060200182810382526036815260200180612fb36036913960400191505060405180910390fd5b604080516001600160a01b038416602482015260448082018490528251808303909101815260649091019091526020810180516001600160e01b031663095ea7b360e01b179052611ab890849061238c565b6060611bf4848460008561243d565b90505b9392505050565b611c06610df1565b15611c4b576040805162461bcd60e51b815260206004820152601060248201526f14185d5cd8589b194e881c185d5cd95960821b604482015290519081900360640190fd5b600e60009054906101000a90046001600160a01b03166001600160a01b0316633d18b9126040518163ffffffff1660e01b8152600401600060405180830381600087803b158015611c9b57600080fd5b505af1158015611caf573d6000803e3d6000fd5b5050604080516370a0823160e01b815230600482015290516000935073f28164a485b0b2c90639e47b0f377b4a438a16b192506370a0823191602480820192602092909190829003018186803b158015611d0857600080fd5b505afa158015611d1c573d6000803e3d6000fd5b505050506040513d6020811015611d3257600080fd5b5051604080516367dfd4c960e01b815260048101839052905191925073f28164a485b0b2c90639e47b0f377b4a438a16b1916367dfd4c99160248082019260009290919082900301818387803b158015611d8b57600080fd5b505af1158015611d9f573d6000803e3d6000fd5b5050600a54604080516370a0823160e01b81523060048201529051600094506001600160a01b0390921692506370a08231916024808301926020929190829003018186803b158015611df057600080fd5b505afa158015611e04573d6000803e3d6000fd5b505050506040513d6020811015611e1a57600080fd5b5051600954604080516370a0823160e01b815230600482015290519293506000926001600160a01b03909216916370a0823191602480820192602092909190829003018186803b158015611e6d57600080fd5b505afa158015611e81573d6000803e3d6000fd5b505050506040513d6020811015611e9757600080fd5b5051905081151580611ea95750600081115b15610d9257611eb784612599565b611ebf6128de565b6000611ec9611525565b9050611ed36115df565b42601355337f9bc239f1724cacfb88cb1d66a2dc437467699b68a8c90d7b63110cf4b6f9241082611f02610f67565b6040805192835260208301919091528051918290030190a25050505050565b600082821115611f78576040805162461bcd60e51b815260206004820152601e60248201527f536166654d6174683a207375627472616374696f6e206f766572666c6f770000604482015290519081900360640190fd5b508082035b92915050565b604080516001600160a01b038416602482015260448082018490528251808303909101815260649091019091526020810180516001600160e01b031663a9059cbb60e01b179052611ab890849061238c565b600082611fe457506000611f7d565b82820282848281611ff157fe5b0414611bf75760405162461bcd60e51b8152600401808060200182810382526021815260200180612f486021913960400191505060405180910390fd5b6000808211612084576040805162461bcd60e51b815260206004820152601a60248201527f536166654d6174683a206469766973696f6e206279207a65726f000000000000604482015290519081900360640190fd5b81838161208d57fe5b049392505050565b61209d610df1565b6120e5576040805162461bcd60e51b815260206004820152601460248201527314185d5cd8589b194e881b9bdd081c185d5cd95960621b604482015290519081900360640190fd5b6000805460ff60a01b191690557f5db9ee0a495bf2e6ff9c91a7834c1ba4fdd244a5e8aa4e537bd38aeae4b073aa61211b61220f565b604080516001600160a01b039092168252519081900360200190a1565b600e54600b54612157916001600160a01b039182169116600019611ad2565b600354600a54612176916001600160a01b039182169116600019611ad2565b600354600954612195916001600160a01b039182169116600019611ad2565b600354600c546121b3916001600160a01b0391821691166000611ad2565b600354600c546121d2916001600160a01b039182169116600019611ad2565b600354600d546121f0916001600160a01b0391821691166000611ad2565b600354600d54610caf916001600160a01b039182169116600019611ad2565b3390565b600082820183811015611bf7576040805162461bcd60e51b815260206004820152601b60248201527f536166654d6174683a206164646974696f6e206f766572666c6f770000000000604482015290519081900360640190fd5b612275610df1565b156122ba576040805162461bcd60e51b815260206004820152601060248201526f14185d5cd8589b194e881c185d5cd95960821b604482015290519081900360640190fd5b6000805460ff60a01b1916600160a01b1790557f62e78cea01bee320cd4e420270b5ea74000d11b0c9f74754ebdbfc544b05a25861211b61220f565b600e54600b54612314916001600160a01b0391821691166000611ad2565b600354600a54612332916001600160a01b0391821691166000611ad2565b600354600954612350916001600160a01b0391821691166000611ad2565b600354600c5461236e916001600160a01b0391821691166000611ad2565b600354600d54610caf916001600160a01b0391821691166000611ad2565b60606123e1826040518060400160405280602081526020017f5361666545524332303a206c6f772d6c6576656c2063616c6c206661696c6564815250856001600160a01b0316611be59092919063ffffffff16565b805190915015611ab85780806020019051602081101561240057600080fd5b5051611ab85760405162461bcd60e51b815260040180806020018281038252602a815260200180612f89602a913960400191505060405180910390fd5b60608247101561247e5760405162461bcd60e51b8152600401808060200182810382526026815260200180612f226026913960400191505060405180910390fd5b61248785612e51565b6124d8576040805162461bcd60e51b815260206004820152601d60248201527f416464726573733a2063616c6c20746f206e6f6e2d636f6e7472616374000000604482015290519081900360640190fd5b60006060866001600160a01b031685876040518082805190602001908083835b602083106125175780518252601f1990920191602091820191016124f8565b6001836020036101000a03801982511681845116808217855250505050505090500191505060006040518083038185875af1925050503d8060008114612579576040519150601f19603f3d011682016040523d82523d6000602084013e61257e565b606091505b509150915061258e828286612e57565b979650505050505050565b600a54604080516370a0823160e01b815230600482015290516000926001600160a01b0316916370a08231916024808301926020929190829003018186803b1580156125e457600080fd5b505afa1580156125f8573d6000803e3d6000fd5b505050506040513d602081101561260e57600080fd5b50519050801561279f576003546040516338ed173960e01b8152600481018381526000602483018190523060648401819052426084850181905260a060448601908152600f805460a488018190526001600160a01b03909816976338ed1739978a97929594939160c490910190869080156126b257602002820191906000526020600020905b81546001600160a01b03168152600190910190602001808311612694575b50509650505050505050600060405180830381600087803b1580156126d657600080fd5b505af11580156126ea573d6000803e3d6000fd5b505050506040513d6000823e601f3d908101601f19168201604052602081101561271357600080fd5b8101908080516040519392919084600160201b82111561273257600080fd5b90830190602082018581111561274757600080fd5b82518660208202830111600160201b8211171561276357600080fd5b82525081516020918201928201910280838360005b83811015612790578181015183820152602001612778565b50505050905001604052505050505b600954604080516370a0823160e01b8152306004820152905160009261282e926103e892610b0992601e926001600160a01b03909116916370a0823191602480820192602092909190829003018186803b1580156127fc57600080fd5b505afa158015612810573d6000803e3d6000fd5b505050506040513d602081101561282657600080fd5b505190611fd5565b9050600061284d6103e8610b0960075485611fd590919063ffffffff16565b600954909150612867906001600160a01b03168583611f83565b60006128846103e8610b0960085486611fd590919063ffffffff16565b6005546009549192506128a4916001600160a01b03908116911683611f83565b60006128b66103e8610b098684611fd5565b6002546009549192506128d6916001600160a01b03908116911683611f83565b505050505050565b600954604080516370a0823160e01b81523060048201529051600092612965926002926001600160a01b03909216916370a0823191602480820192602092909190829003018186803b15801561293357600080fd5b505afa158015612947573d6000803e3d6000fd5b505050506040513d602081101561295d57600080fd5b50519061202e565b600954600c549192506001600160a01b03918216911614612b07576003546040516338ed173960e01b8152600481018381526000602483018190523060648401819052426084850181905260a0604486019081526010805460a488018190526001600160a01b03909816976338ed1739978a97929594939160c49091019086908015612a1a57602002820191906000526020600020905b81546001600160a01b031681526001909101906020018083116129fc575b50509650505050505050600060405180830381600087803b158015612a3e57600080fd5b505af1158015612a52573d6000803e3d6000fd5b505050506040513d6000823e601f3d908101601f191682016040526020811015612a7b57600080fd5b8101908080516040519392919084600160201b821115612a9a57600080fd5b908301906020820185811115612aaf57600080fd5b82518660208202830111600160201b82111715612acb57600080fd5b82525081516020918201928201910280838360005b83811015612af8578181015183820152602001612ae0565b50505050905001604052505050505b600954600d546001600160a01b03908116911614612ca6576003546040516338ed173960e01b8152600481018381526000602483018190523060648401819052426084850181905260a0604486019081526011805460a488018190526001600160a01b03909816976338ed1739978a97929594939160c49091019086908015612bb957602002820191906000526020600020905b81546001600160a01b03168152600190910190602001808311612b9b575b50509650505050505050600060405180830381600087803b158015612bdd57600080fd5b505af1158015612bf1573d6000803e3d6000fd5b505050506040513d6000823e601f3d908101601f191682016040526020811015612c1a57600080fd5b8101908080516040519392919084600160201b821115612c3957600080fd5b908301906020820185811115612c4e57600080fd5b82518660208202830111600160201b82111715612c6a57600080fd5b82525081516020918201928201910280838360005b83811015612c97578181015183820152602001612c7f565b50505050905001604052505050505b600c54604080516370a0823160e01b815230600482015290516000926001600160a01b0316916370a08231916024808301926020929190829003018186803b158015612cf157600080fd5b505afa158015612d05573d6000803e3d6000fd5b505050506040513d6020811015612d1b57600080fd5b5051600d54604080516370a0823160e01b815230600482015290519293506000926001600160a01b03909216916370a0823191602480820192602092909190829003018186803b158015612d6e57600080fd5b505afa158015612d82573d6000803e3d6000fd5b505050506040513d6020811015612d9857600080fd5b5051600354600c54600d546040805162e8e33760e81b81526001600160a01b0393841660048201529183166024830152604482018790526064820185905260016084830181905260a48301523060c48301524260e48301525193945091169163e8e3370091610104808201926060929091908290030181600087803b158015612e2057600080fd5b505af1158015612e34573d6000803e3d6000fd5b505050506040513d6060811015612e4a57600080fd5b5050505050565b3b151590565b60608315612e66575081611bf7565b825115612e765782518084602001fd5b8160405162461bcd60e51b81526004018080602001828103825283818151815260200191508051906020019080838360005b83811015612ec0578181015183820152602001612ea8565b50505050905090810190601f168015612eed5780820380516001836020036101000a031916815260200191505b509250505060405180910390fdfe4f776e61626c653a206e6577206f776e657220697320746865207a65726f2061646472657373416464726573733a20696e73756666696369656e742062616c616e636520666f722063616c6c536166654d6174683a206d756c7469706c69636174696f6e206f766572666c6f774f776e61626c653a2063616c6c6572206973206e6f7420746865206f776e65725361666545524332303a204552433230206f7065726174696f6e20646964206e6f7420737563636565645361666545524332303a20617070726f76652066726f6d206e6f6e2d7a65726f20746f206e6f6e2d7a65726f20616c6c6f77616e6365a2646970667358221220e4885f5e6de40aac112f8c239f2b6ad809fc5a4fb2b9cfdb0547836060d5d59d64736f6c634300060c00336e6174697665546f4c7030526f7574655b6c6173745d20213d206c70546f6b656e30416464726573733a20696e73756666696369656e742062616c616e636520666f722063616c6c6e6174697665546f4c5031526f7574655b6c6173745d20213d206c70546f6b656e315361666545524332303a204552433230206f7065726174696f6e20646964206e6f7420737563636565645361666545524332303a20617070726f76652066726f6d206e6f6e2d7a65726f20746f206e6f6e2d7a65726f20616c6c6f77616e6365",
			"opcodes": "PUSH1 0x80 PUSH1 0x40 MSTORE PUSH1 0xA PUSH1 0x6 SSTORE PUSH1 0x6F PUSH1 0x7 SSTORE PUSH2 0x379 PUSH1 0x8 SSTORE CALLVALUE DUP1 ISZERO PUSH3 0x21 JUMPI PUSH1 0x0 DUP1 REVERT JUMPDEST POP PUSH1 0x40 MLOAD PUSH3 0x3DB4 CODESIZE SUB DUP1 PUSH3 0x3DB4 DUP4 CODECOPY DUP2 DUP2 ADD PUSH1 0x40 MSTORE PUSH2 0x140 DUP2 LT ISZERO PUSH3 0x48 JUMPI PUSH1 0x0 DUP1 REVERT JUMPDEST DUP2 MLOAD PUSH1 0x20 DUP4 ADD MLOAD PUSH1 0x40 DUP1 DUP6 ADD MLOAD PUSH1 0x60 DUP7 ADD MLOAD PUSH1 0x80 DUP8 ADD MLOAD PUSH1 0xA0 DUP9 ADD MLOAD PUSH1 0xC0 DUP10 ADD MLOAD PUSH1 0xE0 DUP11 ADD DUP1 MLOAD SWAP7 MLOAD SWAP9 SWAP11 SWAP8 SWAP10 SWAP6 SWAP9 SWAP5 SWAP8 SWAP4 SWAP7 SWAP3 SWAP6 SWAP2 SWAP5 SWAP4 SWAP2 DUP3 ADD SWAP3 DUP5 PUSH5 0x100000000 DUP3 GT ISZERO PUSH3 0x98 JUMPI PUSH1 0x0 DUP1 REVERT JUMPDEST SWAP1 DUP4 ADD SWAP1 PUSH1 0x20 DUP3 ADD DUP6 DUP2 GT ISZERO PUSH3 0xAE JUMPI PUSH1 0x0 DUP1 REVERT JUMPDEST DUP3 MLOAD DUP7 PUSH1 0x20 DUP3 MUL DUP4 ADD GT PUSH5 0x100000000 DUP3 GT OR ISZERO PUSH3 0xCC JUMPI PUSH1 0x0 DUP1 REVERT JUMPDEST DUP3 MSTORE POP DUP2 MLOAD PUSH1 0x20 SWAP2 DUP3 ADD SWAP3 DUP3 ADD SWAP2 MUL DUP1 DUP4 DUP4 PUSH1 0x0 JUMPDEST DUP4 DUP2 LT ISZERO PUSH3 0xFB JUMPI DUP2 DUP2 ADD MLOAD DUP4 DUP3 ADD MSTORE PUSH1 0x20 ADD PUSH3 0xE1 JUMP JUMPDEST POP POP POP POP SWAP1 POP ADD PUSH1 0x40 MSTORE PUSH1 0x20 ADD DUP1 MLOAD PUSH1 0x40 MLOAD SWAP4 SWAP3 SWAP2 SWAP1 DUP5 PUSH5 0x100000000 DUP3 GT ISZERO PUSH3 0x125 JUMPI PUSH1 0x0 DUP1 REVERT JUMPDEST SWAP1 DUP4 ADD SWAP1 PUSH1 0x20 DUP3 ADD DUP6 DUP2 GT ISZERO PUSH3 0x13B JUMPI PUSH1 0x0 DUP1 REVERT JUMPDEST DUP3 MLOAD DUP7 PUSH1 0x20 DUP3 MUL DUP4 ADD GT PUSH5 0x100000000 DUP3 GT OR ISZERO PUSH3 0x159 JUMPI PUSH1 0x0 DUP1 REVERT JUMPDEST DUP3 MSTORE POP DUP2 MLOAD PUSH1 0x20 SWAP2 DUP3 ADD SWAP3 DUP3 ADD SWAP2 MUL DUP1 DUP4 DUP4 PUSH1 0x0 JUMPDEST DUP4 DUP2 LT ISZERO PUSH3 0x188 JUMPI DUP2 DUP2 ADD MLOAD DUP4 DUP3 ADD MSTORE PUSH1 0x20 ADD PUSH3 0x16E JUMP JUMPDEST POP POP POP POP SWAP1 POP ADD PUSH1 0x40 MSTORE PUSH1 0x20 ADD DUP1 MLOAD PUSH1 0x40 MLOAD SWAP4 SWAP3 SWAP2 SWAP1 DUP5 PUSH5 0x100000000 DUP3 GT ISZERO PUSH3 0x1B2 JUMPI PUSH1 0x0 DUP1 REVERT JUMPDEST SWAP1 DUP4 ADD SWAP1 PUSH1 0x20 DUP3 ADD DUP6 DUP2 GT ISZERO PUSH3 0x1C8 JUMPI PUSH1 0x0 DUP1 REVERT JUMPDEST DUP3 MLOAD DUP7 PUSH1 0x20 DUP3 MUL DUP4 ADD GT PUSH5 0x100000000 DUP3 GT OR ISZERO PUSH3 0x1E6 JUMPI PUSH1 0x0 DUP1 REVERT JUMPDEST DUP3 MSTORE POP DUP2 MLOAD PUSH1 0x20 SWAP2 DUP3 ADD SWAP3 DUP3 ADD SWAP2 MUL DUP1 DUP4 DUP4 PUSH1 0x0 JUMPDEST DUP4 DUP2 LT ISZERO PUSH3 0x215 JUMPI DUP2 DUP2 ADD MLOAD DUP4 DUP3 ADD MSTORE PUSH1 0x20 ADD PUSH3 0x1FB JUMP JUMPDEST POP POP POP POP SWAP1 POP ADD PUSH1 0x40 MSTORE POP POP POP DUP6 DUP6 DUP9 DUP11 DUP8 PUSH1 0x0 PUSH3 0x239 PUSH3 0x6DF PUSH1 0x20 SHL PUSH1 0x20 SHR JUMP JUMPDEST PUSH1 0x0 DUP1 SLOAD PUSH1 0x1 PUSH1 0x1 PUSH1 0xA0 SHL SUB NOT AND PUSH1 0x1 PUSH1 0x1 PUSH1 0xA0 SHL SUB DUP4 AND SWAP1 DUP2 OR DUP3 SSTORE PUSH1 0x40 MLOAD SWAP3 SWAP4 POP SWAP2 PUSH32 0x8BE0079C531659141344CD1FD0A4F28419497F9722A3DAAFE3B4186F6B6457E0 SWAP1 DUP3 SWAP1 LOG3 POP PUSH1 0x0 DUP1 SLOAD PUSH1 0xFF PUSH1 0xA0 SHL NOT AND DUP2 SSTORE PUSH1 0x1 DUP1 SLOAD PUSH1 0x1 PUSH1 0x1 PUSH1 0xA0 SHL SUB NOT SWAP1 DUP2 AND PUSH1 0x1 PUSH1 0x1 PUSH1 0xA0 SHL SUB SWAP9 DUP10 AND OR SWAP1 SWAP2 SSTORE PUSH1 0x2 DUP1 SLOAD DUP3 AND SWAP7 DUP9 AND SWAP7 SWAP1 SWAP7 OR SWAP1 SWAP6 SSTORE PUSH1 0x3 DUP1 SLOAD DUP7 AND SWAP5 DUP8 AND SWAP5 SWAP1 SWAP5 OR SWAP1 SWAP4 SSTORE PUSH1 0x4 DUP1 SLOAD DUP6 AND SWAP3 DUP7 AND SWAP3 SWAP1 SWAP3 OR SWAP1 SWAP2 SSTORE PUSH1 0x5 DUP1 SLOAD DUP5 AND SWAP2 DUP6 AND SWAP2 SWAP1 SWAP2 OR SWAP1 SSTORE PUSH1 0xB DUP1 SLOAD DUP4 AND DUP15 DUP6 AND OR SWAP1 SSTORE PUSH1 0xE DUP1 SLOAD SWAP1 SWAP3 AND SWAP3 DUP13 AND SWAP3 SWAP1 SWAP3 OR SWAP1 SSTORE DUP4 MLOAD DUP5 SWAP2 SWAP1 PUSH3 0x316 JUMPI INVALID JUMPDEST PUSH1 0x20 MUL PUSH1 0x20 ADD ADD MLOAD PUSH1 0xA PUSH1 0x0 PUSH2 0x100 EXP DUP2 SLOAD DUP2 PUSH1 0x1 PUSH1 0x1 PUSH1 0xA0 SHL SUB MUL NOT AND SWAP1 DUP4 PUSH1 0x1 PUSH1 0x1 PUSH1 0xA0 SHL SUB AND MUL OR SWAP1 SSTORE POP DUP3 PUSH1 0x1 DUP5 MLOAD SUB DUP2 MLOAD DUP2 LT PUSH3 0x355 JUMPI INVALID JUMPDEST PUSH1 0x20 SWAP1 DUP2 MUL SWAP2 SWAP1 SWAP2 ADD DUP2 ADD MLOAD PUSH1 0x9 DUP1 SLOAD PUSH1 0x1 PUSH1 0x1 PUSH1 0xA0 SHL SUB NOT AND PUSH1 0x1 PUSH1 0x1 PUSH1 0xA0 SHL SUB SWAP1 SWAP3 AND SWAP2 SWAP1 SWAP2 OR SWAP1 SSTORE DUP4 MLOAD PUSH3 0x394 SWAP2 PUSH1 0xF SWAP2 SWAP1 DUP7 ADD SWAP1 PUSH3 0xC31 JUMP JUMPDEST POP PUSH1 0xB PUSH1 0x0 SWAP1 SLOAD SWAP1 PUSH2 0x100 EXP SWAP1 DIV PUSH1 0x1 PUSH1 0x1 PUSH1 0xA0 SHL SUB AND PUSH1 0x1 PUSH1 0x1 PUSH1 0xA0 SHL SUB AND PUSH4 0xDFE1681 PUSH1 0x40 MLOAD DUP2 PUSH4 0xFFFFFFFF AND PUSH1 0xE0 SHL DUP2 MSTORE PUSH1 0x4 ADD PUSH1 0x20 PUSH1 0x40 MLOAD DUP1 DUP4 SUB DUP2 DUP7 DUP1 EXTCODESIZE ISZERO DUP1 ISZERO PUSH3 0x3E4 JUMPI PUSH1 0x0 DUP1 REVERT JUMPDEST POP GAS STATICCALL ISZERO DUP1 ISZERO PUSH3 0x3F9 JUMPI RETURNDATASIZE PUSH1 0x0 DUP1 RETURNDATACOPY RETURNDATASIZE PUSH1 0x0 REVERT JUMPDEST POP POP POP POP PUSH1 0x40 MLOAD RETURNDATASIZE PUSH1 0x20 DUP2 LT ISZERO PUSH3 0x410 JUMPI PUSH1 0x0 DUP1 REVERT JUMPDEST POP MLOAD PUSH1 0xC DUP1 SLOAD PUSH1 0x1 PUSH1 0x1 PUSH1 0xA0 SHL SUB NOT AND PUSH1 0x1 PUSH1 0x1 PUSH1 0xA0 SHL SUB SWAP3 DUP4 AND OR SWAP1 SSTORE PUSH1 0x9 SLOAD DUP4 MLOAD SWAP2 AND SWAP1 DUP4 SWAP1 PUSH1 0x0 SWAP1 PUSH3 0x442 JUMPI INVALID JUMPDEST PUSH1 0x20 MUL PUSH1 0x20 ADD ADD MLOAD PUSH1 0x1 PUSH1 0x1 PUSH1 0xA0 SHL SUB AND EQ PUSH3 0x4A6 JUMPI PUSH1 0x40 DUP1 MLOAD PUSH3 0x461BCD PUSH1 0xE5 SHL DUP2 MSTORE PUSH1 0x20 PUSH1 0x4 DUP3 ADD MSTORE PUSH1 0x1D PUSH1 0x24 DUP3 ADD MSTORE PUSH32 0x6E6174697665546F4C7030526F7574655B305D20213D206E6174697665000000 PUSH1 0x44 DUP3 ADD MSTORE SWAP1 MLOAD SWAP1 DUP2 SWAP1 SUB PUSH1 0x64 ADD SWAP1 REVERT JUMPDEST PUSH1 0xC SLOAD DUP3 MLOAD PUSH1 0x1 PUSH1 0x1 PUSH1 0xA0 SHL SUB SWAP1 SWAP2 AND SWAP1 DUP4 SWAP1 PUSH1 0x0 NOT DUP2 ADD SWAP1 DUP2 LT PUSH3 0x4C8 JUMPI INVALID JUMPDEST PUSH1 0x20 MUL PUSH1 0x20 ADD ADD MLOAD PUSH1 0x1 PUSH1 0x1 PUSH1 0xA0 SHL SUB AND EQ PUSH3 0x517 JUMPI PUSH1 0x40 MLOAD PUSH3 0x461BCD PUSH1 0xE5 SHL DUP2 MSTORE PUSH1 0x4 ADD DUP1 DUP1 PUSH1 0x20 ADD DUP3 DUP2 SUB DUP3 MSTORE PUSH1 0x22 DUP2 MSTORE PUSH1 0x20 ADD DUP1 PUSH3 0x3CEA PUSH1 0x22 SWAP2 CODECOPY PUSH1 0x40 ADD SWAP2 POP POP PUSH1 0x40 MLOAD DUP1 SWAP2 SUB SWAP1 REVERT JUMPDEST DUP2 MLOAD PUSH3 0x52C SWAP1 PUSH1 0x10 SWAP1 PUSH1 0x20 DUP6 ADD SWAP1 PUSH3 0xC31 JUMP JUMPDEST POP PUSH1 0xB PUSH1 0x0 SWAP1 SLOAD SWAP1 PUSH2 0x100 EXP SWAP1 DIV PUSH1 0x1 PUSH1 0x1 PUSH1 0xA0 SHL SUB AND PUSH1 0x1 PUSH1 0x1 PUSH1 0xA0 SHL SUB AND PUSH4 0xD21220A7 PUSH1 0x40 MLOAD DUP2 PUSH4 0xFFFFFFFF AND PUSH1 0xE0 SHL DUP2 MSTORE PUSH1 0x4 ADD PUSH1 0x20 PUSH1 0x40 MLOAD DUP1 DUP4 SUB DUP2 DUP7 DUP1 EXTCODESIZE ISZERO DUP1 ISZERO PUSH3 0x57C JUMPI PUSH1 0x0 DUP1 REVERT JUMPDEST POP GAS STATICCALL ISZERO DUP1 ISZERO PUSH3 0x591 JUMPI RETURNDATASIZE PUSH1 0x0 DUP1 RETURNDATACOPY RETURNDATASIZE PUSH1 0x0 REVERT JUMPDEST POP POP POP POP PUSH1 0x40 MLOAD RETURNDATASIZE PUSH1 0x20 DUP2 LT ISZERO PUSH3 0x5A8 JUMPI PUSH1 0x0 DUP1 REVERT JUMPDEST POP MLOAD PUSH1 0xD DUP1 SLOAD PUSH1 0x1 PUSH1 0x1 PUSH1 0xA0 SHL SUB NOT AND PUSH1 0x1 PUSH1 0x1 PUSH1 0xA0 SHL SUB SWAP3 DUP4 AND OR SWAP1 SSTORE PUSH1 0x9 SLOAD DUP3 MLOAD SWAP2 AND SWAP1 DUP3 SWAP1 PUSH1 0x0 SWAP1 PUSH3 0x5DA JUMPI INVALID JUMPDEST PUSH1 0x20 MUL PUSH1 0x20 ADD ADD MLOAD PUSH1 0x1 PUSH1 0x1 PUSH1 0xA0 SHL SUB AND EQ PUSH3 0x63E JUMPI PUSH1 0x40 DUP1 MLOAD PUSH3 0x461BCD PUSH1 0xE5 SHL DUP2 MSTORE PUSH1 0x20 PUSH1 0x4 DUP3 ADD MSTORE PUSH1 0x1D PUSH1 0x24 DUP3 ADD MSTORE PUSH32 0x6E6174697665546F4C7031526F7574655B305D20213D206E6174697665000000 PUSH1 0x44 DUP3 ADD MSTORE SWAP1 MLOAD SWAP1 DUP2 SWAP1 SUB PUSH1 0x64 ADD SWAP1 REVERT JUMPDEST PUSH1 0xD SLOAD DUP2 MLOAD PUSH1 0x1 PUSH1 0x1 PUSH1 0xA0 SHL SUB SWAP1 SWAP2 AND SWAP1 DUP3 SWAP1 PUSH1 0x0 NOT DUP2 ADD SWAP1 DUP2 LT PUSH3 0x660 JUMPI INVALID JUMPDEST PUSH1 0x20 MUL PUSH1 0x20 ADD ADD MLOAD PUSH1 0x1 PUSH1 0x1 PUSH1 0xA0 SHL SUB AND EQ PUSH3 0x6AF JUMPI PUSH1 0x40 MLOAD PUSH3 0x461BCD PUSH1 0xE5 SHL DUP2 MSTORE PUSH1 0x4 ADD DUP1 DUP1 PUSH1 0x20 ADD DUP3 DUP2 SUB DUP3 MSTORE PUSH1 0x22 DUP2 MSTORE PUSH1 0x20 ADD DUP1 PUSH3 0x3D32 PUSH1 0x22 SWAP2 CODECOPY PUSH1 0x40 ADD SWAP2 POP POP PUSH1 0x40 MLOAD DUP1 SWAP2 SUB SWAP1 REVERT JUMPDEST DUP1 MLOAD PUSH3 0x6C4 SWAP1 PUSH1 0x11 SWAP1 PUSH1 0x20 DUP5 ADD SWAP1 PUSH3 0xC31 JUMP JUMPDEST POP PUSH3 0x6CF PUSH3 0x6E3 JUMP JUMPDEST POP POP POP POP POP POP POP POP POP POP PUSH3 0xCBC JUMP JUMPDEST CALLER SWAP1 JUMP JUMPDEST PUSH1 0xE SLOAD PUSH1 0xB SLOAD PUSH3 0x710 SWAP2 PUSH1 0x1 PUSH1 0x1 PUSH1 0xA0 SHL SUB SWAP2 DUP3 AND SWAP2 AND PUSH1 0x0 NOT PUSH3 0x81E PUSH1 0x20 SWAP1 DUP2 SHL PUSH3 0x1AD2 OR SWAP1 SHR JUMP JUMPDEST PUSH1 0x3 SLOAD PUSH1 0xA SLOAD PUSH3 0x73D SWAP2 PUSH1 0x1 PUSH1 0x1 PUSH1 0xA0 SHL SUB SWAP2 DUP3 AND SWAP2 AND PUSH1 0x0 NOT PUSH3 0x81E PUSH1 0x20 SWAP1 DUP2 SHL PUSH3 0x1AD2 OR SWAP1 SHR JUMP JUMPDEST PUSH1 0x3 SLOAD PUSH1 0x9 SLOAD PUSH3 0x76A SWAP2 PUSH1 0x1 PUSH1 0x1 PUSH1 0xA0 SHL SUB SWAP2 DUP3 AND SWAP2 AND PUSH1 0x0 NOT PUSH3 0x81E PUSH1 0x20 SWAP1 DUP2 SHL PUSH3 0x1AD2 OR SWAP1 SHR JUMP JUMPDEST PUSH1 0x3 SLOAD PUSH1 0xC SLOAD PUSH3 0x796 SWAP2 PUSH1 0x1 PUSH1 0x1 PUSH1 0xA0 SHL SUB SWAP2 DUP3 AND SWAP2 AND PUSH1 0x0 PUSH3 0x81E PUSH1 0x20 SWAP1 DUP2 SHL PUSH3 0x1AD2 OR SWAP1 SHR JUMP JUMPDEST PUSH1 0x3 SLOAD PUSH1 0xC SLOAD PUSH3 0x7C3 SWAP2 PUSH1 0x1 PUSH1 0x1 PUSH1 0xA0 SHL SUB SWAP2 DUP3 AND SWAP2 AND PUSH1 0x0 NOT PUSH3 0x81E PUSH1 0x20 SWAP1 DUP2 SHL PUSH3 0x1AD2 OR SWAP1 SHR JUMP JUMPDEST PUSH1 0x3 SLOAD PUSH1 0xD SLOAD PUSH3 0x7EF SWAP2 PUSH1 0x1 PUSH1 0x1 PUSH1 0xA0 SHL SUB SWAP2 DUP3 AND SWAP2 AND PUSH1 0x0 PUSH3 0x81E PUSH1 0x20 SWAP1 DUP2 SHL PUSH3 0x1AD2 OR SWAP1 SHR JUMP JUMPDEST PUSH1 0x3 SLOAD PUSH1 0xD SLOAD PUSH3 0x81C SWAP2 PUSH1 0x1 PUSH1 0x1 PUSH1 0xA0 SHL SUB SWAP2 DUP3 AND SWAP2 AND PUSH1 0x0 NOT PUSH3 0x81E PUSH1 0x20 SWAP1 DUP2 SHL PUSH3 0x1AD2 OR SWAP1 SHR JUMP JUMPDEST JUMP JUMPDEST DUP1 ISZERO DUP1 PUSH3 0x8A8 JUMPI POP PUSH1 0x40 DUP1 MLOAD PUSH4 0x6EB1769F PUSH1 0xE1 SHL DUP2 MSTORE ADDRESS PUSH1 0x4 DUP3 ADD MSTORE PUSH1 0x1 PUSH1 0x1 PUSH1 0xA0 SHL SUB DUP5 DUP2 AND PUSH1 0x24 DUP4 ADD MSTORE SWAP2 MLOAD SWAP2 DUP6 AND SWAP2 PUSH4 0xDD62ED3E SWAP2 PUSH1 0x44 DUP1 DUP3 ADD SWAP3 PUSH1 0x20 SWAP3 SWAP1 SWAP2 SWAP1 DUP3 SWAP1 SUB ADD DUP2 DUP7 DUP1 EXTCODESIZE ISZERO DUP1 ISZERO PUSH3 0x878 JUMPI PUSH1 0x0 DUP1 REVERT JUMPDEST POP GAS STATICCALL ISZERO DUP1 ISZERO PUSH3 0x88D JUMPI RETURNDATASIZE PUSH1 0x0 DUP1 RETURNDATACOPY RETURNDATASIZE PUSH1 0x0 REVERT JUMPDEST POP POP POP POP PUSH1 0x40 MLOAD RETURNDATASIZE PUSH1 0x20 DUP2 LT ISZERO PUSH3 0x8A4 JUMPI PUSH1 0x0 DUP1 REVERT JUMPDEST POP MLOAD ISZERO JUMPDEST PUSH3 0x8E5 JUMPI PUSH1 0x40 MLOAD PUSH3 0x461BCD PUSH1 0xE5 SHL DUP2 MSTORE PUSH1 0x4 ADD DUP1 DUP1 PUSH1 0x20 ADD DUP3 DUP2 SUB DUP3 MSTORE PUSH1 0x36 DUP2 MSTORE PUSH1 0x20 ADD DUP1 PUSH3 0x3D7E PUSH1 0x36 SWAP2 CODECOPY PUSH1 0x40 ADD SWAP2 POP POP PUSH1 0x40 MLOAD DUP1 SWAP2 SUB SWAP1 REVERT JUMPDEST PUSH1 0x40 DUP1 MLOAD PUSH1 0x1 PUSH1 0x1 PUSH1 0xA0 SHL SUB DUP5 AND PUSH1 0x24 DUP3 ADD MSTORE PUSH1 0x44 DUP1 DUP3 ADD DUP5 SWAP1 MSTORE DUP3 MLOAD DUP1 DUP4 SUB SWAP1 SWAP2 ADD DUP2 MSTORE PUSH1 0x64 SWAP1 SWAP2 ADD SWAP1 SWAP2 MSTORE PUSH1 0x20 DUP2 ADD DUP1 MLOAD PUSH1 0x1 PUSH1 0x1 PUSH1 0xE0 SHL SUB SWAP1 DUP2 AND PUSH4 0x95EA7B3 PUSH1 0xE0 SHL OR SWAP1 SWAP2 MSTORE PUSH3 0x93D SWAP2 DUP6 SWAP2 PUSH3 0x942 AND JUMP JUMPDEST POP POP POP JUMP JUMPDEST PUSH1 0x60 PUSH3 0x99E DUP3 PUSH1 0x40 MLOAD DUP1 PUSH1 0x40 ADD PUSH1 0x40 MSTORE DUP1 PUSH1 0x20 DUP2 MSTORE PUSH1 0x20 ADD PUSH32 0x5361666545524332303A206C6F772D6C6576656C2063616C6C206661696C6564 DUP2 MSTORE POP DUP6 PUSH1 0x1 PUSH1 0x1 PUSH1 0xA0 SHL SUB AND PUSH3 0x9FE PUSH1 0x20 SHL PUSH3 0x1BE5 OR SWAP1 SWAP3 SWAP2 SWAP1 PUSH1 0x20 SHR JUMP JUMPDEST DUP1 MLOAD SWAP1 SWAP2 POP ISZERO PUSH3 0x93D JUMPI DUP1 DUP1 PUSH1 0x20 ADD SWAP1 MLOAD PUSH1 0x20 DUP2 LT ISZERO PUSH3 0x9BF JUMPI PUSH1 0x0 DUP1 REVERT JUMPDEST POP MLOAD PUSH3 0x93D JUMPI PUSH1 0x40 MLOAD PUSH3 0x461BCD PUSH1 0xE5 SHL DUP2 MSTORE PUSH1 0x4 ADD DUP1 DUP1 PUSH1 0x20 ADD DUP3 DUP2 SUB DUP3 MSTORE PUSH1 0x2A DUP2 MSTORE PUSH1 0x20 ADD DUP1 PUSH3 0x3D54 PUSH1 0x2A SWAP2 CODECOPY PUSH1 0x40 ADD SWAP2 POP POP PUSH1 0x40 MLOAD DUP1 SWAP2 SUB SWAP1 REVERT JUMPDEST PUSH1 0x60 PUSH3 0xA0F DUP5 DUP5 PUSH1 0x0 DUP6 PUSH3 0xA19 JUMP JUMPDEST SWAP1 POP JUMPDEST SWAP4 SWAP3 POP POP POP JUMP JUMPDEST PUSH1 0x60 DUP3 SELFBALANCE LT ISZERO PUSH3 0xA5C JUMPI PUSH1 0x40 MLOAD PUSH3 0x461BCD PUSH1 0xE5 SHL DUP2 MSTORE PUSH1 0x4 ADD DUP1 DUP1 PUSH1 0x20 ADD DUP3 DUP2 SUB DUP3 MSTORE PUSH1 0x26 DUP2 MSTORE PUSH1 0x20 ADD DUP1 PUSH3 0x3D0C PUSH1 0x26 SWAP2 CODECOPY PUSH1 0x40 ADD SWAP2 POP POP PUSH1 0x40 MLOAD DUP1 SWAP2 SUB SWAP1 REVERT JUMPDEST PUSH3 0xA67 DUP6 PUSH3 0xB81 JUMP JUMPDEST PUSH3 0xAB9 JUMPI PUSH1 0x40 DUP1 MLOAD PUSH3 0x461BCD PUSH1 0xE5 SHL DUP2 MSTORE PUSH1 0x20 PUSH1 0x4 DUP3 ADD MSTORE PUSH1 0x1D PUSH1 0x24 DUP3 ADD MSTORE PUSH32 0x416464726573733A2063616C6C20746F206E6F6E2D636F6E7472616374000000 PUSH1 0x44 DUP3 ADD MSTORE SWAP1 MLOAD SWAP1 DUP2 SWAP1 SUB PUSH1 0x64 ADD SWAP1 REVERT JUMPDEST PUSH1 0x0 PUSH1 0x60 DUP7 PUSH1 0x1 PUSH1 0x1 PUSH1 0xA0 SHL SUB AND DUP6 DUP8 PUSH1 0x40 MLOAD DUP1 DUP3 DUP1 MLOAD SWAP1 PUSH1 0x20 ADD SWAP1 DUP1 DUP4 DUP4 JUMPDEST PUSH1 0x20 DUP4 LT PUSH3 0xAFA JUMPI DUP1 MLOAD DUP3 MSTORE PUSH1 0x1F NOT SWAP1 SWAP3 ADD SWAP2 PUSH1 0x20 SWAP2 DUP3 ADD SWAP2 ADD PUSH3 0xAD9 JUMP JUMPDEST PUSH1 0x1 DUP4 PUSH1 0x20 SUB PUSH2 0x100 EXP SUB DUP1 NOT DUP3 MLOAD AND DUP2 DUP5 MLOAD AND DUP1 DUP3 OR DUP6 MSTORE POP POP POP POP POP POP SWAP1 POP ADD SWAP2 POP POP PUSH1 0x0 PUSH1 0x40 MLOAD DUP1 DUP4 SUB DUP2 DUP6 DUP8 GAS CALL SWAP3 POP POP POP RETURNDATASIZE DUP1 PUSH1 0x0 DUP2 EQ PUSH3 0xB5E JUMPI PUSH1 0x40 MLOAD SWAP2 POP PUSH1 0x1F NOT PUSH1 0x3F RETURNDATASIZE ADD AND DUP3 ADD PUSH1 0x40 MSTORE RETURNDATASIZE DUP3 MSTORE RETURNDATASIZE PUSH1 0x0 PUSH1 0x20 DUP5 ADD RETURNDATACOPY PUSH3 0xB63 JUMP JUMPDEST PUSH1 0x60 SWAP2 POP JUMPDEST POP SWAP1 SWAP3 POP SWAP1 POP PUSH3 0xB76 DUP3 DUP3 DUP7 PUSH3 0xB87 JUMP JUMPDEST SWAP8 SWAP7 POP POP POP POP POP POP POP JUMP JUMPDEST EXTCODESIZE ISZERO ISZERO SWAP1 JUMP JUMPDEST PUSH1 0x60 DUP4 ISZERO PUSH3 0xB98 JUMPI POP DUP2 PUSH3 0xA12 JUMP JUMPDEST DUP3 MLOAD ISZERO PUSH3 0xBA9 JUMPI DUP3 MLOAD DUP1 DUP5 PUSH1 0x20 ADD REVERT JUMPDEST DUP2 PUSH1 0x40 MLOAD PUSH3 0x461BCD PUSH1 0xE5 SHL DUP2 MSTORE PUSH1 0x4 ADD DUP1 DUP1 PUSH1 0x20 ADD DUP3 DUP2 SUB DUP3 MSTORE DUP4 DUP2 DUP2 MLOAD DUP2 MSTORE PUSH1 0x20 ADD SWAP2 POP DUP1 MLOAD SWAP1 PUSH1 0x20 ADD SWAP1 DUP1 DUP4 DUP4 PUSH1 0x0 JUMPDEST DUP4 DUP2 LT ISZERO PUSH3 0xBF5 JUMPI DUP2 DUP2 ADD MLOAD DUP4 DUP3 ADD MSTORE PUSH1 0x20 ADD PUSH3 0xBDB JUMP JUMPDEST POP POP POP POP SWAP1 POP SWAP1 DUP2 ADD SWAP1 PUSH1 0x1F AND DUP1 ISZERO PUSH3 0xC23 JUMPI DUP1 DUP3 SUB DUP1 MLOAD PUSH1 0x1 DUP4 PUSH1 0x20 SUB PUSH2 0x100 EXP SUB NOT AND DUP2 MSTORE PUSH1 0x20 ADD SWAP2 POP JUMPDEST POP SWAP3 POP POP POP PUSH1 0x40 MLOAD DUP1 SWAP2 SUB SWAP1 REVERT JUMPDEST DUP3 DUP1 SLOAD DUP3 DUP3 SSTORE SWAP1 PUSH1 0x0 MSTORE PUSH1 0x20 PUSH1 0x0 KECCAK256 SWAP1 DUP2 ADD SWAP3 DUP3 ISZERO PUSH3 0xC89 JUMPI SWAP2 PUSH1 0x20 MUL DUP3 ADD JUMPDEST DUP3 DUP2 GT ISZERO PUSH3 0xC89 JUMPI DUP3 MLOAD DUP3 SLOAD PUSH1 0x1 PUSH1 0x1 PUSH1 0xA0 SHL SUB NOT AND PUSH1 0x1 PUSH1 0x1 PUSH1 0xA0 SHL SUB SWAP1 SWAP2 AND OR DUP3 SSTORE PUSH1 0x20 SWAP1 SWAP3 ADD SWAP2 PUSH1 0x1 SWAP1 SWAP2 ADD SWAP1 PUSH3 0xC52 JUMP JUMPDEST POP PUSH3 0xC97 SWAP3 SWAP2 POP PUSH3 0xC9B JUMP JUMPDEST POP SWAP1 JUMP JUMPDEST JUMPDEST DUP1 DUP3 GT ISZERO PUSH3 0xC97 JUMPI DUP1 SLOAD PUSH1 0x1 PUSH1 0x1 PUSH1 0xA0 SHL SUB NOT AND DUP2 SSTORE PUSH1 0x1 ADD PUSH3 0xC9C JUMP JUMPDEST PUSH2 0x301E DUP1 PUSH3 0xCCC PUSH1 0x0 CODECOPY PUSH1 0x0 RETURN INVALID PUSH1 0x80 PUSH1 0x40 MSTORE CALLVALUE DUP1 ISZERO PUSH2 0x10 JUMPI PUSH1 0x0 DUP1 REVERT JUMPDEST POP PUSH1 0x4 CALLDATASIZE LT PUSH2 0x378 JUMPI PUSH1 0x0 CALLDATALOAD PUSH1 0xE0 SHR DUP1 PUSH4 0x877562B6 GT PUSH2 0x1D3 JUMPI DUP1 PUSH4 0xD0E30DB0 GT PUSH2 0x104 JUMPI DUP1 PUSH4 0xEA82EB9E GT PUSH2 0xA2 JUMPI DUP1 PUSH4 0xF2FDE38B GT PUSH2 0x7C JUMPI DUP1 PUSH4 0xF2FDE38B EQ PUSH2 0x6FA JUMPI DUP1 PUSH4 0xFB617787 EQ PUSH2 0x720 JUMPI DUP1 PUSH4 0xFBFA77CF EQ PUSH2 0x728 JUMPI DUP1 PUSH4 0xFC61568B EQ PUSH2 0x730 JUMPI PUSH2 0x378 JUMP JUMPDEST DUP1 PUSH4 0xEA82EB9E EQ PUSH2 0x6E2 JUMPI DUP1 PUSH4 0xF1A392DA EQ PUSH2 0x6EA JUMPI DUP1 PUSH4 0xF20EAEB8 EQ PUSH2 0x6F2 JUMPI PUSH2 0x378 JUMP JUMPDEST DUP1 PUSH4 0xDC4987CC GT PUSH2 0xDE JUMPI DUP1 PUSH4 0xDC4987CC EQ PUSH2 0x698 JUMPI DUP1 PUSH4 0xDFBDC437 EQ PUSH2 0x6B5 JUMPI DUP1 PUSH4 0xE0E4130B EQ PUSH2 0x6BD JUMPI DUP1 PUSH4 0xE270DBF3 EQ PUSH2 0x6C5 JUMPI PUSH2 0x378 JUMP JUMPDEST DUP1 PUSH4 0xD0E30DB0 EQ PUSH2 0x662 JUMPI DUP1 PUSH4 0xD801D946 EQ PUSH2 0x66A JUMPI DUP1 PUSH4 0xD92F3D73 EQ PUSH2 0x672 JUMPI PUSH2 0x378 JUMP JUMPDEST DUP1 PUSH4 0xAB6D7506 GT PUSH2 0x171 JUMPI DUP1 PUSH4 0xBC063E1A GT PUSH2 0x14B JUMPI DUP1 PUSH4 0xBC063E1A EQ PUSH2 0x60F JUMPI DUP1 PUSH4 0xBE12A978 EQ PUSH2 0x617 JUMPI DUP1 PUSH4 0xC1A3D44C EQ PUSH2 0x634 JUMPI DUP1 PUSH4 0xC7B9D530 EQ PUSH2 0x63C JUMPI PUSH2 0x378 JUMP JUMPDEST DUP1 PUSH4 0xAB6D7506 EQ PUSH2 0x5C4 JUMPI DUP1 PUSH4 0xAC1E5025 EQ PUSH2 0x5EA JUMPI DUP1 PUSH4 0xACED1661 EQ PUSH2 0x607 JUMPI PUSH2 0x378 JUMP JUMPDEST DUP1 PUSH4 0x8CE026E3 GT PUSH2 0x1AD JUMPI DUP1 PUSH4 0x8CE026E3 EQ PUSH2 0x5A4 JUMPI DUP1 PUSH4 0x8DA5CB5B EQ PUSH2 0x5AC JUMPI DUP1 PUSH4 0x90321E1A EQ PUSH2 0x5B4 JUMPI DUP1 PUSH4 0x97FD323D EQ PUSH2 0x5BC JUMPI PUSH2 0x378 JUMP JUMPDEST DUP1 PUSH4 0x877562B6 EQ PUSH2 0x58C JUMPI DUP1 PUSH4 0x8912CB8B EQ PUSH2 0x594 JUMPI DUP1 PUSH4 0x8BC7E8C4 EQ PUSH2 0x59C JUMPI PUSH2 0x378 JUMP JUMPDEST DUP1 PUSH4 0x4641257D GT PUSH2 0x2AD JUMPI DUP1 PUSH4 0x66666AA9 GT PUSH2 0x24B JUMPI DUP1 PUSH4 0x722713F7 GT PUSH2 0x225 JUMPI DUP1 PUSH4 0x722713F7 EQ PUSH2 0x54E JUMPI DUP1 PUSH4 0x748747E6 EQ PUSH2 0x556 JUMPI DUP1 PUSH4 0x7D38CA65 EQ PUSH2 0x57C JUMPI DUP1 PUSH4 0x8456CB59 EQ PUSH2 0x584 JUMPI PUSH2 0x378 JUMP JUMPDEST DUP1 PUSH4 0x66666AA9 EQ PUSH2 0x518 JUMPI DUP1 PUSH4 0x6817031B EQ PUSH2 0x520 JUMPI DUP1 PUSH4 0x715018A6 EQ PUSH2 0x546 JUMPI PUSH2 0x378 JUMP JUMPDEST DUP1 PUSH4 0x573FEF0A GT PUSH2 0x287 JUMPI DUP1 PUSH4 0x573FEF0A EQ PUSH2 0x4E4 JUMPI DUP1 PUSH4 0x5C975ABB EQ PUSH2 0x4EC JUMPI DUP1 PUSH4 0x5EE167C0 EQ PUSH2 0x508 JUMPI DUP1 PUSH4 0x6013D5BF EQ PUSH2 0x510 JUMPI PUSH2 0x378 JUMP JUMPDEST DUP1 PUSH4 0x4641257D EQ PUSH2 0x4CC JUMPI DUP1 PUSH4 0x4700D305 EQ PUSH2 0x4D4 JUMPI DUP1 PUSH4 0x54518B1A EQ PUSH2 0x4DC JUMPI PUSH2 0x378 JUMP JUMPDEST DUP1 PUSH4 0x257AE0DE GT PUSH2 0x31A JUMPI DUP1 PUSH4 0x2E1A7D4D GT PUSH2 0x2F4 JUMPI DUP1 PUSH4 0x2E1A7D4D EQ PUSH2 0x497 JUMPI DUP1 PUSH4 0x37BDD204 EQ PUSH2 0x4B4 JUMPI DUP1 PUSH4 0x3D79D334 EQ PUSH2 0x4BC JUMPI DUP1 PUSH4 0x3F4BA83A EQ PUSH2 0x4C4 JUMPI PUSH2 0x378 JUMP JUMPDEST DUP1 PUSH4 0x257AE0DE EQ PUSH2 0x46A JUMPI DUP1 PUSH4 0x26465826 EQ PUSH2 0x472 JUMPI DUP1 PUSH4 0x2AD5A53F EQ PUSH2 0x48F JUMPI PUSH2 0x378 JUMP JUMPDEST DUP1 PUSH4 0x11B0B42D GT PUSH2 0x356 JUMPI DUP1 PUSH4 0x11B0B42D EQ PUSH2 0x3DE JUMPI DUP1 PUSH4 0x13E120B1 EQ PUSH2 0x402 JUMPI DUP1 PUSH4 0x1F1FCD51 EQ PUSH2 0x45A JUMPI DUP1 PUSH4 0x1FE4A686 EQ PUSH2 0x462 JUMPI PUSH2 0x378 JUMP JUMPDEST DUP1 PUSH4 0xE5C011E EQ PUSH2 0x37D JUMPI DUP1 PUSH4 0xE8FBB5A EQ PUSH2 0x3A5 JUMPI DUP1 PUSH4 0x11588086 EQ PUSH2 0x3C4 JUMPI JUMPDEST PUSH1 0x0 DUP1 REVERT JUMPDEST PUSH2 0x3A3 PUSH1 0x4 DUP1 CALLDATASIZE SUB PUSH1 0x20 DUP2 LT ISZERO PUSH2 0x393 JUMPI PUSH1 0x0 DUP1 REVERT JUMPDEST POP CALLDATALOAD PUSH1 0x1 PUSH1 0x1 PUSH1 0xA0 SHL SUB AND PUSH2 0x738 JUMP JUMPDEST STOP JUMPDEST PUSH2 0x3A3 PUSH1 0x4 DUP1 CALLDATASIZE SUB PUSH1 0x20 DUP2 LT ISZERO PUSH2 0x3BB JUMPI PUSH1 0x0 DUP1 REVERT JUMPDEST POP CALLDATALOAD ISZERO ISZERO PUSH2 0x744 JUMP JUMPDEST PUSH2 0x3CC PUSH2 0x7E7 JUMP JUMPDEST PUSH1 0x40 DUP1 MLOAD SWAP2 DUP3 MSTORE MLOAD SWAP1 DUP2 SWAP1 SUB PUSH1 0x20 ADD SWAP1 RETURN JUMPDEST PUSH2 0x3E6 PUSH2 0x863 JUMP JUMPDEST PUSH1 0x40 DUP1 MLOAD PUSH1 0x1 PUSH1 0x1 PUSH1 0xA0 SHL SUB SWAP1 SWAP3 AND DUP3 MSTORE MLOAD SWAP1 DUP2 SWAP1 SUB PUSH1 0x20 ADD SWAP1 RETURN JUMPDEST PUSH2 0x40A PUSH2 0x872 JUMP JUMPDEST PUSH1 0x40 DUP1 MLOAD PUSH1 0x20 DUP1 DUP3 MSTORE DUP4 MLOAD DUP2 DUP4 ADD MSTORE DUP4 MLOAD SWAP2 SWAP3 DUP4 SWAP3 SWAP1 DUP4 ADD SWAP2 DUP6 DUP2 ADD SWAP2 MUL DUP1 DUP4 DUP4 PUSH1 0x0 JUMPDEST DUP4 DUP2 LT ISZERO PUSH2 0x446 JUMPI DUP2 DUP2 ADD MLOAD DUP4 DUP3 ADD MSTORE PUSH1 0x20 ADD PUSH2 0x42E JUMP JUMPDEST POP POP POP POP SWAP1 POP ADD SWAP3 POP POP POP PUSH1 0x40 MLOAD DUP1 SWAP2 SUB SWAP1 RETURN JUMPDEST PUSH2 0x3E6 PUSH2 0x8D4 JUMP JUMPDEST PUSH2 0x3E6 PUSH2 0x8E3 JUMP JUMPDEST PUSH2 0x3E6 PUSH2 0x8F2 JUMP JUMPDEST PUSH2 0x3A3 PUSH1 0x4 DUP1 CALLDATASIZE SUB PUSH1 0x20 DUP2 LT ISZERO PUSH2 0x488 JUMPI PUSH1 0x0 DUP1 REVERT JUMPDEST POP CALLDATALOAD PUSH2 0x901 JUMP JUMPDEST PUSH2 0x3CC PUSH2 0x9BB JUMP JUMPDEST PUSH2 0x3A3 PUSH1 0x4 DUP1 CALLDATASIZE SUB PUSH1 0x20 DUP2 LT ISZERO PUSH2 0x4AD JUMPI PUSH1 0x0 DUP1 REVERT JUMPDEST POP CALLDATALOAD PUSH2 0x9C0 JUMP JUMPDEST PUSH2 0x40A PUSH2 0xB7F JUMP JUMPDEST PUSH2 0x3CC PUSH2 0xBDF JUMP JUMPDEST PUSH2 0x3A3 PUSH2 0xC2A JUMP JUMPDEST PUSH2 0x3A3 PUSH2 0xCB1 JUMP JUMPDEST PUSH2 0x3A3 PUSH2 0xCBA JUMP JUMPDEST PUSH2 0x3CC PUSH2 0xD98 JUMP JUMPDEST PUSH2 0x3A3 PUSH2 0xD9E JUMP JUMPDEST PUSH2 0x4F4 PUSH2 0xDF1 JUMP JUMPDEST PUSH1 0x40 DUP1 MLOAD SWAP2 ISZERO ISZERO DUP3 MSTORE MLOAD SWAP1 DUP2 SWAP1 SUB PUSH1 0x20 ADD SWAP1 RETURN JUMPDEST PUSH2 0x3E6 PUSH2 0xE01 JUMP JUMPDEST PUSH2 0x3E6 PUSH2 0xE10 JUMP JUMPDEST PUSH2 0x3E6 PUSH2 0xE28 JUMP JUMPDEST PUSH2 0x3A3 PUSH1 0x4 DUP1 CALLDATASIZE SUB PUSH1 0x20 DUP2 LT ISZERO PUSH2 0x536 JUMPI PUSH1 0x0 DUP1 REVERT JUMPDEST POP CALLDATALOAD PUSH1 0x1 PUSH1 0x1 PUSH1 0xA0 SHL SUB AND PUSH2 0xE37 JUMP JUMPDEST PUSH2 0x3A3 PUSH2 0xEBB JUMP JUMPDEST PUSH2 0x3CC PUSH2 0xF67 JUMP JUMPDEST PUSH2 0x3A3 PUSH1 0x4 DUP1 CALLDATASIZE SUB PUSH1 0x20 DUP2 LT ISZERO PUSH2 0x56C JUMPI PUSH1 0x0 DUP1 REVERT JUMPDEST POP CALLDATALOAD PUSH1 0x1 PUSH1 0x1 PUSH1 0xA0 SHL SUB AND PUSH2 0xF87 JUMP JUMPDEST PUSH2 0x3CC PUSH2 0x1016 JUMP JUMPDEST PUSH2 0x3A3 PUSH2 0x101B JUMP JUMPDEST PUSH2 0x3E6 PUSH2 0x1098 JUMP JUMPDEST PUSH2 0x4F4 PUSH2 0x10A7 JUMP JUMPDEST PUSH2 0x3CC PUSH2 0x10B0 JUMP JUMPDEST PUSH2 0x3CC PUSH2 0x10B6 JUMP JUMPDEST PUSH2 0x3E6 PUSH2 0x11BA JUMP JUMPDEST PUSH2 0x3CC PUSH2 0x11C9 JUMP JUMPDEST PUSH2 0x3CC PUSH2 0x11CF JUMP JUMPDEST PUSH2 0x3A3 PUSH1 0x4 DUP1 CALLDATASIZE SUB PUSH1 0x20 DUP2 LT ISZERO PUSH2 0x5DA JUMPI PUSH1 0x0 DUP1 REVERT JUMPDEST POP CALLDATALOAD PUSH1 0x1 PUSH1 0x1 PUSH1 0xA0 SHL SUB AND PUSH2 0x13B4 JUMP JUMPDEST PUSH2 0x3A3 PUSH1 0x4 DUP1 CALLDATASIZE SUB PUSH1 0x20 DUP2 LT ISZERO PUSH2 0x600 JUMPI PUSH1 0x0 DUP1 REVERT JUMPDEST POP CALLDATALOAD PUSH2 0x1438 JUMP JUMPDEST PUSH2 0x3E6 PUSH2 0x14E9 JUMP JUMPDEST PUSH2 0x3CC PUSH2 0x14F8 JUMP JUMPDEST PUSH2 0x3E6 PUSH1 0x4 DUP1 CALLDATASIZE SUB PUSH1 0x20 DUP2 LT ISZERO PUSH2 0x62D JUMPI PUSH1 0x0 DUP1 REVERT JUMPDEST POP CALLDATALOAD PUSH2 0x14FE JUMP JUMPDEST PUSH2 0x3CC PUSH2 0x1525 JUMP JUMPDEST PUSH2 0x3A3 PUSH1 0x4 DUP1 CALLDATASIZE SUB PUSH1 0x20 DUP2 LT ISZERO PUSH2 0x652 JUMPI PUSH1 0x0 DUP1 REVERT JUMPDEST POP CALLDATALOAD PUSH1 0x1 PUSH1 0x1 PUSH1 0xA0 SHL SUB AND PUSH2 0x1570 JUMP JUMPDEST PUSH2 0x3A3 PUSH2 0x15DF JUMP JUMPDEST PUSH2 0x3A3 PUSH2 0x16E1 JUMP JUMPDEST PUSH2 0x3A3 PUSH1 0x4 DUP1 CALLDATASIZE SUB PUSH1 0x20 DUP2 LT ISZERO PUSH2 0x688 JUMPI PUSH1 0x0 DUP1 REVERT JUMPDEST POP CALLDATALOAD PUSH1 0x1 PUSH1 0x1 PUSH1 0xA0 SHL SUB AND PUSH2 0x174E JUMP JUMPDEST PUSH2 0x3E6 PUSH1 0x4 DUP1 CALLDATASIZE SUB PUSH1 0x20 DUP2 LT ISZERO PUSH2 0x6AE JUMPI PUSH1 0x0 DUP1 REVERT JUMPDEST POP CALLDATALOAD PUSH2 0x17D2 JUMP JUMPDEST PUSH2 0x3CC PUSH2 0x17DF JUMP JUMPDEST PUSH2 0x3E6 PUSH2 0x17E4 JUMP JUMPDEST PUSH2 0x3E6 PUSH1 0x4 DUP1 CALLDATASIZE SUB PUSH1 0x20 DUP2 LT ISZERO PUSH2 0x6DB JUMPI PUSH1 0x0 DUP1 REVERT JUMPDEST POP CALLDATALOAD PUSH2 0x17F3 JUMP JUMPDEST PUSH2 0x40A PUSH2 0x1800 JUMP JUMPDEST PUSH2 0x3CC PUSH2 0x1860 JUMP JUMPDEST PUSH2 0x3E6 PUSH2 0x1866 JUMP JUMPDEST PUSH2 0x3A3 PUSH1 0x4 DUP1 CALLDATASIZE SUB PUSH1 0x20 DUP2 LT ISZERO PUSH2 0x710 JUMPI PUSH1 0x0 DUP1 REVERT JUMPDEST POP CALLDATALOAD PUSH1 0x1 PUSH1 0x1 PUSH1 0xA0 SHL SUB AND PUSH2 0x1875 JUMP JUMPDEST PUSH2 0x3A3 PUSH2 0x1977 JUMP JUMPDEST PUSH2 0x3E6 PUSH2 0x1ABD JUMP JUMPDEST PUSH2 0x3CC PUSH2 0x1ACC JUMP JUMPDEST PUSH2 0x741 DUP2 PUSH2 0x1BFE JUMP JUMPDEST POP JUMP JUMPDEST PUSH2 0x74C PUSH2 0x11BA JUMP JUMPDEST PUSH1 0x1 PUSH1 0x1 PUSH1 0xA0 SHL SUB AND CALLER PUSH1 0x1 PUSH1 0x1 PUSH1 0xA0 SHL SUB AND EQ DUP1 PUSH2 0x775 JUMPI POP PUSH1 0x1 SLOAD PUSH1 0x1 PUSH1 0x1 PUSH1 0xA0 SHL SUB AND CALLER EQ JUMPDEST PUSH2 0x7B1 JUMPI PUSH1 0x40 DUP1 MLOAD PUSH3 0x461BCD PUSH1 0xE5 SHL DUP2 MSTORE PUSH1 0x20 PUSH1 0x4 DUP3 ADD MSTORE PUSH1 0x8 PUSH1 0x24 DUP3 ADD MSTORE PUSH8 0x10B6B0B730B3B2B9 PUSH1 0xC1 SHL PUSH1 0x44 DUP3 ADD MSTORE SWAP1 MLOAD SWAP1 DUP2 SWAP1 SUB PUSH1 0x64 ADD SWAP1 REVERT JUMPDEST PUSH1 0x12 DUP1 SLOAD PUSH1 0xFF NOT AND DUP3 ISZERO ISZERO OR SWAP1 DUP2 SWAP1 SSTORE PUSH1 0xFF AND ISZERO ISZERO PUSH1 0x1 EQ ISZERO PUSH2 0x7DD JUMPI PUSH2 0x7D8 PUSH1 0x0 PUSH2 0x1438 JUMP JUMPDEST PUSH2 0x741 JUMP JUMPDEST PUSH2 0x741 PUSH1 0xA PUSH2 0x1438 JUMP JUMPDEST PUSH1 0xE SLOAD PUSH1 0x40 DUP1 MLOAD PUSH4 0x70A08231 PUSH1 0xE0 SHL DUP2 MSTORE ADDRESS PUSH1 0x4 DUP3 ADD MSTORE SWAP1 MLOAD PUSH1 0x0 SWAP3 PUSH1 0x1 PUSH1 0x1 PUSH1 0xA0 SHL SUB AND SWAP2 PUSH4 0x70A08231 SWAP2 PUSH1 0x24 DUP1 DUP4 ADD SWAP3 PUSH1 0x20 SWAP3 SWAP2 SWAP1 DUP3 SWAP1 SUB ADD DUP2 DUP7 DUP1 EXTCODESIZE ISZERO DUP1 ISZERO PUSH2 0x832 JUMPI PUSH1 0x0 DUP1 REVERT JUMPDEST POP GAS STATICCALL ISZERO DUP1 ISZERO PUSH2 0x846 JUMPI RETURNDATASIZE PUSH1 0x0 DUP1 RETURNDATACOPY RETURNDATASIZE PUSH1 0x0 REVERT JUMPDEST POP POP POP POP PUSH1 0x40 MLOAD RETURNDATASIZE PUSH1 0x20 DUP2 LT ISZERO PUSH2 0x85C JUMPI PUSH1 0x0 DUP1 REVERT JUMPDEST POP MLOAD SWAP1 POP SWAP1 JUMP JUMPDEST PUSH1 0x9 SLOAD PUSH1 0x1 PUSH1 0x1 PUSH1 0xA0 SHL SUB AND DUP2 JUMP JUMPDEST PUSH1 0x60 PUSH1 0xF DUP1 SLOAD DUP1 PUSH1 0x20 MUL PUSH1 0x20 ADD PUSH1 0x40 MLOAD SWAP1 DUP2 ADD PUSH1 0x40 MSTORE DUP1 SWAP3 SWAP2 SWAP1 DUP2 DUP2 MSTORE PUSH1 0x20 ADD DUP3 DUP1 SLOAD DUP1 ISZERO PUSH2 0x8CA JUMPI PUSH1 0x20 MUL DUP3 ADD SWAP2 SWAP1 PUSH1 0x0 MSTORE PUSH1 0x20 PUSH1 0x0 KECCAK256 SWAP1 JUMPDEST DUP2 SLOAD PUSH1 0x1 PUSH1 0x1 PUSH1 0xA0 SHL SUB AND DUP2 MSTORE PUSH1 0x1 SWAP1 SWAP2 ADD SWAP1 PUSH1 0x20 ADD DUP1 DUP4 GT PUSH2 0x8AC JUMPI JUMPDEST POP POP POP POP POP SWAP1 POP SWAP1 JUMP JUMPDEST PUSH1 0xB SLOAD PUSH1 0x1 PUSH1 0x1 PUSH1 0xA0 SHL SUB AND DUP2 JUMP JUMPDEST PUSH1 0x2 SLOAD PUSH1 0x1 PUSH1 0x1 PUSH1 0xA0 SHL SUB AND DUP2 JUMP JUMPDEST PUSH1 0x3 SLOAD PUSH1 0x1 PUSH1 0x1 PUSH1 0xA0 SHL SUB AND DUP2 JUMP JUMPDEST PUSH2 0x909 PUSH2 0x11BA JUMP JUMPDEST PUSH1 0x1 PUSH1 0x1 PUSH1 0xA0 SHL SUB AND CALLER PUSH1 0x1 PUSH1 0x1 PUSH1 0xA0 SHL SUB AND EQ DUP1 PUSH2 0x932 JUMPI POP PUSH1 0x1 SLOAD PUSH1 0x1 PUSH1 0x1 PUSH1 0xA0 SHL SUB AND CALLER EQ JUMPDEST PUSH2 0x96E JUMPI PUSH1 0x40 DUP1 MLOAD PUSH3 0x461BCD PUSH1 0xE5 SHL DUP2 MSTORE PUSH1 0x20 PUSH1 0x4 DUP3 ADD MSTORE PUSH1 0x8 PUSH1 0x24 DUP3 ADD MSTORE PUSH8 0x10B6B0B730B3B2B9 PUSH1 0xC1 SHL PUSH1 0x44 DUP3 ADD MSTORE SWAP1 MLOAD SWAP1 DUP2 SWAP1 SUB PUSH1 0x64 ADD SWAP1 REVERT JUMPDEST PUSH1 0x6F DUP2 GT ISZERO PUSH2 0x9AD JUMPI PUSH1 0x40 DUP1 MLOAD PUSH3 0x461BCD PUSH1 0xE5 SHL DUP2 MSTORE PUSH1 0x20 PUSH1 0x4 DUP1 DUP4 ADD SWAP2 SWAP1 SWAP2 MSTORE PUSH1 0x24 DUP3 ADD MSTORE PUSH4 0x2163617 PUSH1 0xE4 SHL PUSH1 0x44 DUP3 ADD MSTORE SWAP1 MLOAD SWAP1 DUP2 SWAP1 SUB PUSH1 0x64 ADD SWAP1 REVERT JUMPDEST PUSH1 0x7 DUP2 SWAP1 SSTORE PUSH2 0x3E8 SUB PUSH1 0x8 SSTORE JUMP JUMPDEST PUSH1 0x6F DUP2 JUMP JUMPDEST PUSH1 0x4 SLOAD PUSH1 0x1 PUSH1 0x1 PUSH1 0xA0 SHL SUB AND CALLER EQ PUSH2 0xA08 JUMPI PUSH1 0x40 DUP1 MLOAD PUSH3 0x461BCD PUSH1 0xE5 SHL DUP2 MSTORE PUSH1 0x20 PUSH1 0x4 DUP3 ADD MSTORE PUSH1 0x6 PUSH1 0x24 DUP3 ADD MSTORE PUSH6 0x85D985D5B1D PUSH1 0xD2 SHL PUSH1 0x44 DUP3 ADD MSTORE SWAP1 MLOAD SWAP1 DUP2 SWAP1 SUB PUSH1 0x64 ADD SWAP1 REVERT JUMPDEST PUSH1 0x0 PUSH2 0xA12 PUSH2 0x1525 JUMP JUMPDEST SWAP1 POP DUP2 DUP2 LT ISZERO PUSH2 0xA90 JUMPI PUSH1 0xE SLOAD PUSH1 0x1 PUSH1 0x1 PUSH1 0xA0 SHL SUB AND PUSH4 0x2E1A7D4D PUSH2 0xA37 DUP5 DUP5 PUSH2 0x1F21 JUMP JUMPDEST PUSH1 0x40 MLOAD DUP3 PUSH4 0xFFFFFFFF AND PUSH1 0xE0 SHL DUP2 MSTORE PUSH1 0x4 ADD DUP1 DUP3 DUP2 MSTORE PUSH1 0x20 ADD SWAP2 POP POP PUSH1 0x0 PUSH1 0x40 MLOAD DUP1 DUP4 SUB DUP2 PUSH1 0x0 DUP8 DUP1 EXTCODESIZE ISZERO DUP1 ISZERO PUSH2 0xA6D JUMPI PUSH1 0x0 DUP1 REVERT JUMPDEST POP GAS CALL ISZERO DUP1 ISZERO PUSH2 0xA81 JUMPI RETURNDATASIZE PUSH1 0x0 DUP1 RETURNDATACOPY RETURNDATASIZE PUSH1 0x0 REVERT JUMPDEST POP POP POP POP PUSH2 0xA8D PUSH2 0x1525 JUMP JUMPDEST SWAP1 POP JUMPDEST DUP2 DUP2 GT ISZERO PUSH2 0xA9B JUMPI POP DUP1 JUMPDEST PUSH2 0xAA3 PUSH2 0x11BA JUMP JUMPDEST PUSH1 0x1 PUSH1 0x1 PUSH1 0xA0 SHL SUB AND ORIGIN PUSH1 0x1 PUSH1 0x1 PUSH1 0xA0 SHL SUB AND EQ DUP1 PUSH2 0xAC5 JUMPI POP PUSH2 0xAC5 PUSH2 0xDF1 JUMP JUMPDEST ISZERO PUSH2 0xAEC JUMPI PUSH1 0x4 SLOAD PUSH1 0xB SLOAD PUSH2 0xAE7 SWAP2 PUSH1 0x1 PUSH1 0x1 PUSH1 0xA0 SHL SUB SWAP2 DUP3 AND SWAP2 AND DUP4 PUSH2 0x1F83 JUMP JUMPDEST PUSH2 0xB41 JUMP JUMPDEST PUSH1 0x0 PUSH2 0xB0F PUSH2 0x2710 PUSH2 0xB09 PUSH1 0x6 SLOAD DUP6 PUSH2 0x1FD5 SWAP1 SWAP2 SWAP1 PUSH4 0xFFFFFFFF AND JUMP JUMPDEST SWAP1 PUSH2 0x202E JUMP JUMPDEST PUSH1 0x4 SLOAD SWAP1 SWAP2 POP PUSH2 0xB3F SWAP1 PUSH1 0x1 PUSH1 0x1 PUSH1 0xA0 SHL SUB AND PUSH2 0xB2C DUP5 DUP5 PUSH2 0x1F21 JUMP JUMPDEST PUSH1 0xB SLOAD PUSH1 0x1 PUSH1 0x1 PUSH1 0xA0 SHL SUB AND SWAP2 SWAP1 PUSH2 0x1F83 JUMP JUMPDEST POP JUMPDEST PUSH32 0x5B6B431D4476A211BB7D41C20D1AAB9AE2321DEEE0D20BE3D9FC9B1093FA6E3D PUSH2 0xB6A PUSH2 0xF67 JUMP JUMPDEST PUSH1 0x40 DUP1 MLOAD SWAP2 DUP3 MSTORE MLOAD SWAP1 DUP2 SWAP1 SUB PUSH1 0x20 ADD SWAP1 LOG1 POP POP JUMP JUMPDEST PUSH1 0x60 PUSH1 0x11 DUP1 SLOAD DUP1 PUSH1 0x20 MUL PUSH1 0x20 ADD PUSH1 0x40 MLOAD SWAP1 DUP2 ADD PUSH1 0x40 MSTORE DUP1 SWAP3 SWAP2 SWAP1 DUP2 DUP2 MSTORE PUSH1 0x20 ADD DUP3 DUP1 SLOAD DUP1 ISZERO PUSH2 0x8CA JUMPI PUSH1 0x20 MUL DUP3 ADD SWAP2 SWAP1 PUSH1 0x0 MSTORE PUSH1 0x20 PUSH1 0x0 KECCAK256 SWAP1 DUP2 SLOAD PUSH1 0x1 PUSH1 0x1 PUSH1 0xA0 SHL SUB AND DUP2 MSTORE PUSH1 0x1 SWAP1 SWAP2 ADD SWAP1 PUSH1 0x20 ADD DUP1 DUP4 GT PUSH2 0x8AC JUMPI POP POP POP POP POP SWAP1 POP SWAP1 JUMP JUMPDEST PUSH1 0xE SLOAD PUSH1 0x40 DUP1 MLOAD PUSH4 0x307D9B13 PUSH1 0xE1 SHL DUP2 MSTORE ADDRESS PUSH1 0x4 DUP3 ADD MSTORE SWAP1 MLOAD PUSH1 0x0 SWAP3 PUSH1 0x1 PUSH1 0x1 PUSH1 0xA0 SHL SUB AND SWAP2 PUSH4 0x60FB3626 SWAP2 PUSH1 0x24 DUP1 DUP4 ADD SWAP3 PUSH1 0x20 SWAP3 SWAP2 SWAP1 DUP3 SWAP1 SUB ADD DUP2 DUP7 DUP1 EXTCODESIZE ISZERO DUP1 ISZERO PUSH2 0x832 JUMPI PUSH1 0x0 DUP1 REVERT JUMPDEST PUSH2 0xC32 PUSH2 0x11BA JUMP JUMPDEST PUSH1 0x1 PUSH1 0x1 PUSH1 0xA0 SHL SUB AND CALLER PUSH1 0x1 PUSH1 0x1 PUSH1 0xA0 SHL SUB AND EQ DUP1 PUSH2 0xC5B JUMPI POP PUSH1 0x1 SLOAD PUSH1 0x1 PUSH1 0x1 PUSH1 0xA0 SHL SUB AND CALLER EQ JUMPDEST PUSH2 0xC97 JUMPI PUSH1 0x40 DUP1 MLOAD PUSH3 0x461BCD PUSH1 0xE5 SHL DUP2 MSTORE PUSH1 0x20 PUSH1 0x4 DUP3 ADD MSTORE PUSH1 0x8 PUSH1 0x24 DUP3 ADD MSTORE PUSH8 0x10B6B0B730B3B2B9 PUSH1 0xC1 SHL PUSH1 0x44 DUP3 ADD MSTORE SWAP1 MLOAD SWAP1 DUP2 SWAP1 SUB PUSH1 0x64 ADD SWAP1 REVERT JUMPDEST PUSH2 0xC9F PUSH2 0x2095 JUMP JUMPDEST PUSH2 0xCA7 PUSH2 0x2138 JUMP JUMPDEST PUSH2 0xCAF PUSH2 0x15DF JUMP JUMPDEST JUMP JUMPDEST PUSH2 0xCAF ORIGIN PUSH2 0x1BFE JUMP JUMPDEST PUSH2 0xCC2 PUSH2 0x11BA JUMP JUMPDEST PUSH1 0x1 PUSH1 0x1 PUSH1 0xA0 SHL SUB AND CALLER PUSH1 0x1 PUSH1 0x1 PUSH1 0xA0 SHL SUB AND EQ DUP1 PUSH2 0xCEB JUMPI POP PUSH1 0x1 SLOAD PUSH1 0x1 PUSH1 0x1 PUSH1 0xA0 SHL SUB AND CALLER EQ JUMPDEST PUSH2 0xD27 JUMPI PUSH1 0x40 DUP1 MLOAD PUSH3 0x461BCD PUSH1 0xE5 SHL DUP2 MSTORE PUSH1 0x20 PUSH1 0x4 DUP3 ADD MSTORE PUSH1 0x8 PUSH1 0x24 DUP3 ADD MSTORE PUSH8 0x10B6B0B730B3B2B9 PUSH1 0xC1 SHL PUSH1 0x44 DUP3 ADD MSTORE SWAP1 MLOAD SWAP1 DUP2 SWAP1 SUB PUSH1 0x64 ADD SWAP1 REVERT JUMPDEST PUSH2 0xD2F PUSH2 0x101B JUMP JUMPDEST PUSH1 0xE SLOAD PUSH1 0x1 PUSH1 0x1 PUSH1 0xA0 SHL SUB AND PUSH4 0x2E1A7D4D PUSH2 0xD48 PUSH2 0x7E7 JUMP JUMPDEST PUSH1 0x40 MLOAD DUP3 PUSH4 0xFFFFFFFF AND PUSH1 0xE0 SHL DUP2 MSTORE PUSH1 0x4 ADD DUP1 DUP3 DUP2 MSTORE PUSH1 0x20 ADD SWAP2 POP POP PUSH1 0x0 PUSH1 0x40 MLOAD DUP1 DUP4 SUB DUP2 PUSH1 0x0 DUP8 DUP1 EXTCODESIZE ISZERO DUP1 ISZERO PUSH2 0xD7E JUMPI PUSH1 0x0 DUP1 REVERT JUMPDEST POP GAS CALL ISZERO DUP1 ISZERO PUSH2 0xD92 JUMPI RETURNDATASIZE PUSH1 0x0 DUP1 RETURNDATACOPY RETURNDATASIZE PUSH1 0x0 REVERT JUMPDEST POP POP POP POP JUMP JUMPDEST PUSH2 0x2710 DUP2 JUMP JUMPDEST PUSH1 0x12 SLOAD PUSH1 0xFF AND ISZERO PUSH2 0xCAF JUMPI PUSH1 0x4 SLOAD PUSH1 0x1 PUSH1 0x1 PUSH1 0xA0 SHL SUB AND CALLER EQ PUSH2 0xCB1 JUMPI PUSH1 0x40 DUP1 MLOAD PUSH3 0x461BCD PUSH1 0xE5 SHL DUP2 MSTORE PUSH1 0x20 PUSH1 0x4 DUP3 ADD MSTORE PUSH1 0x6 PUSH1 0x24 DUP3 ADD MSTORE PUSH6 0x85D985D5B1D PUSH1 0xD2 SHL PUSH1 0x44 DUP3 ADD MSTORE SWAP1 MLOAD SWAP1 DUP2 SWAP1 SUB PUSH1 0x64 ADD SWAP1 REVERT JUMPDEST PUSH1 0x0 SLOAD PUSH1 0x1 PUSH1 0xA0 SHL SWAP1 DIV PUSH1 0xFF AND SWAP1 JUMP JUMPDEST PUSH1 0xC SLOAD PUSH1 0x1 PUSH1 0x1 PUSH1 0xA0 SHL SUB AND DUP2 JUMP JUMPDEST PUSH20 0xF28164A485B0B2C90639E47B0F377B4A438A16B1 DUP2 JUMP JUMPDEST PUSH1 0xE SLOAD PUSH1 0x1 PUSH1 0x1 PUSH1 0xA0 SHL SUB AND DUP2 JUMP JUMPDEST PUSH2 0xE3F PUSH2 0x220F JUMP JUMPDEST PUSH1 0x1 PUSH1 0x1 PUSH1 0xA0 SHL SUB AND PUSH2 0xE50 PUSH2 0x11BA JUMP JUMPDEST PUSH1 0x1 PUSH1 0x1 PUSH1 0xA0 SHL SUB AND EQ PUSH2 0xE99 JUMPI PUSH1 0x40 DUP1 MLOAD PUSH3 0x461BCD PUSH1 0xE5 SHL DUP2 MSTORE PUSH1 0x20 PUSH1 0x4 DUP3 ADD DUP2 SWAP1 MSTORE PUSH1 0x24 DUP3 ADD MSTORE PUSH1 0x0 DUP1 MLOAD PUSH1 0x20 PUSH2 0x2F69 DUP4 CODECOPY DUP2 MLOAD SWAP2 MSTORE PUSH1 0x44 DUP3 ADD MSTORE SWAP1 MLOAD SWAP1 DUP2 SWAP1 SUB PUSH1 0x64 ADD SWAP1 REVERT JUMPDEST PUSH1 0x4 DUP1 SLOAD PUSH1 0x1 PUSH1 0x1 PUSH1 0xA0 SHL SUB NOT AND PUSH1 0x1 PUSH1 0x1 PUSH1 0xA0 SHL SUB SWAP3 SWAP1 SWAP3 AND SWAP2 SWAP1 SWAP2 OR SWAP1 SSTORE JUMP JUMPDEST PUSH2 0xEC3 PUSH2 0x220F JUMP JUMPDEST PUSH1 0x1 PUSH1 0x1 PUSH1 0xA0 SHL SUB AND PUSH2 0xED4 PUSH2 0x11BA JUMP JUMPDEST PUSH1 0x1 PUSH1 0x1 PUSH1 0xA0 SHL SUB AND EQ PUSH2 0xF1D JUMPI PUSH1 0x40 DUP1 MLOAD PUSH3 0x461BCD PUSH1 0xE5 SHL DUP2 MSTORE PUSH1 0x20 PUSH1 0x4 DUP3 ADD DUP2 SWAP1 MSTORE PUSH1 0x24 DUP3 ADD MSTORE PUSH1 0x0 DUP1 MLOAD PUSH1 0x20 PUSH2 0x2F69 DUP4 CODECOPY DUP2 MLOAD SWAP2 MSTORE PUSH1 0x44 DUP3 ADD MSTORE SWAP1 MLOAD SWAP1 DUP2 SWAP1 SUB PUSH1 0x64 ADD SWAP1 REVERT JUMPDEST PUSH1 0x0 DUP1 SLOAD PUSH1 0x40 MLOAD PUSH1 0x1 PUSH1 0x1 PUSH1 0xA0 SHL SUB SWAP1 SWAP2 AND SWAP1 PUSH32 0x8BE0079C531659141344CD1FD0A4F28419497F9722A3DAAFE3B4186F6B6457E0 SWAP1 DUP4 SWAP1 LOG3 PUSH1 0x0 DUP1 SLOAD PUSH1 0x1 PUSH1 0x1 PUSH1 0xA0 SHL SUB NOT AND SWAP1 SSTORE JUMP JUMPDEST PUSH1 0x0 PUSH2 0xF82 PUSH2 0xF74 PUSH2 0x7E7 JUMP JUMPDEST PUSH2 0xF7C PUSH2 0x1525 JUMP JUMPDEST SWAP1 PUSH2 0x2213 JUMP JUMPDEST SWAP1 POP SWAP1 JUMP JUMPDEST PUSH2 0xF8F PUSH2 0x11BA JUMP JUMPDEST PUSH1 0x1 PUSH1 0x1 PUSH1 0xA0 SHL SUB AND CALLER PUSH1 0x1 PUSH1 0x1 PUSH1 0xA0 SHL SUB AND EQ DUP1 PUSH2 0xFB8 JUMPI POP PUSH1 0x1 SLOAD PUSH1 0x1 PUSH1 0x1 PUSH1 0xA0 SHL SUB AND CALLER EQ JUMPDEST PUSH2 0xFF4 JUMPI PUSH1 0x40 DUP1 MLOAD PUSH3 0x461BCD PUSH1 0xE5 SHL DUP2 MSTORE PUSH1 0x20 PUSH1 0x4 DUP3 ADD MSTORE PUSH1 0x8 PUSH1 0x24 DUP3 ADD MSTORE PUSH8 0x10B6B0B730B3B2B9 PUSH1 0xC1 SHL PUSH1 0x44 DUP3 ADD MSTORE SWAP1 MLOAD SWAP1 DUP2 SWAP1 SUB PUSH1 0x64 ADD SWAP1 REVERT JUMPDEST PUSH1 0x1 DUP1 SLOAD PUSH1 0x1 PUSH1 0x1 PUSH1 0xA0 SHL SUB NOT AND PUSH1 0x1 PUSH1 0x1 PUSH1 0xA0 SHL SUB SWAP3 SWAP1 SWAP3 AND SWAP2 SWAP1 SWAP2 OR SWAP1 SSTORE JUMP JUMPDEST PUSH1 0x0 DUP2 JUMP JUMPDEST PUSH2 0x1023 PUSH2 0x11BA JUMP JUMPDEST PUSH1 0x1 PUSH1 0x1 PUSH1 0xA0 SHL SUB AND CALLER PUSH1 0x1 PUSH1 0x1 PUSH1 0xA0 SHL SUB AND EQ DUP1 PUSH2 0x104C JUMPI POP PUSH1 0x1 SLOAD PUSH1 0x1 PUSH1 0x1 PUSH1 0xA0 SHL SUB AND CALLER EQ JUMPDEST PUSH2 0x1088 JUMPI PUSH1 0x40 DUP1 MLOAD PUSH3 0x461BCD PUSH1 0xE5 SHL DUP2 MSTORE PUSH1 0x20 PUSH1 0x4 DUP3 ADD MSTORE PUSH1 0x8 PUSH1 0x24 DUP3 ADD MSTORE PUSH8 0x10B6B0B730B3B2B9 PUSH1 0xC1 SHL PUSH1 0x44 DUP3 ADD MSTORE SWAP1 MLOAD SWAP1 DUP2 SWAP1 SUB PUSH1 0x64 ADD SWAP1 REVERT JUMPDEST PUSH2 0x1090 PUSH2 0x226D JUMP JUMPDEST PUSH2 0xCAF PUSH2 0x22F6 JUMP JUMPDEST PUSH1 0xD SLOAD PUSH1 0x1 PUSH1 0x1 PUSH1 0xA0 SHL SUB AND DUP2 JUMP JUMPDEST PUSH1 0x12 SLOAD PUSH1 0xFF AND DUP2 JUMP JUMPDEST PUSH1 0x6 SLOAD DUP2 JUMP JUMPDEST PUSH1 0xE SLOAD PUSH1 0x40 DUP1 MLOAD PUSH4 0x1820D739 PUSH1 0xE0 SHL DUP2 MSTORE ADDRESS PUSH1 0x4 DUP3 ADD MSTORE SWAP1 MLOAD PUSH1 0x0 SWAP3 DUP4 SWAP3 PUSH1 0x1 PUSH1 0x1 PUSH1 0xA0 SHL SUB SWAP1 SWAP2 AND SWAP2 PUSH4 0x1820D739 SWAP2 PUSH1 0x24 DUP1 DUP3 ADD SWAP3 PUSH1 0x20 SWAP3 SWAP1 SWAP2 SWAP1 DUP3 SWAP1 SUB ADD DUP2 DUP7 DUP1 EXTCODESIZE ISZERO DUP1 ISZERO PUSH2 0x1106 JUMPI PUSH1 0x0 DUP1 REVERT JUMPDEST POP GAS STATICCALL ISZERO DUP1 ISZERO PUSH2 0x111A JUMPI RETURNDATASIZE PUSH1 0x0 DUP1 RETURNDATACOPY RETURNDATASIZE PUSH1 0x0 REVERT JUMPDEST POP POP POP POP PUSH1 0x40 MLOAD RETURNDATASIZE PUSH1 0x20 DUP2 LT ISZERO PUSH2 0x1130 JUMPI PUSH1 0x0 DUP1 REVERT JUMPDEST POP MLOAD PUSH1 0x40 DUP1 MLOAD PUSH4 0x15A33B5F PUSH1 0xE3 SHL DUP2 MSTORE PUSH1 0x4 DUP2 ADD DUP4 SWAP1 MSTORE SWAP1 MLOAD SWAP2 SWAP3 POP PUSH20 0xF28164A485B0B2C90639E47B0F377B4A438A16B1 SWAP2 PUSH4 0xAD19DAF8 SWAP2 PUSH1 0x24 DUP1 DUP3 ADD SWAP3 PUSH1 0x20 SWAP3 SWAP1 SWAP2 SWAP1 DUP3 SWAP1 SUB ADD DUP2 DUP7 DUP1 EXTCODESIZE ISZERO DUP1 ISZERO PUSH2 0x1188 JUMPI PUSH1 0x0 DUP1 REVERT JUMPDEST POP GAS STATICCALL ISZERO DUP1 ISZERO PUSH2 0x119C JUMPI RETURNDATASIZE PUSH1 0x0 DUP1 RETURNDATACOPY RETURNDATASIZE PUSH1 0x0 REVERT JUMPDEST POP POP POP POP PUSH1 0x40 MLOAD RETURNDATASIZE PUSH1 0x20 DUP2 LT ISZERO PUSH2 0x11B2 JUMPI PUSH1 0x0 DUP1 REVERT JUMPDEST POP MLOAD SWAP2 POP POP SWAP1 JUMP JUMPDEST PUSH1 0x0 SLOAD PUSH1 0x1 PUSH1 0x1 PUSH1 0xA0 SHL SUB AND SWAP1 JUMP JUMPDEST PUSH1 0x7 SLOAD DUP2 JUMP JUMPDEST PUSH1 0x0 DUP1 PUSH2 0x11DA PUSH2 0x10B6 JUMP JUMPDEST SWAP1 POP PUSH1 0x0 PUSH2 0x11E6 PUSH2 0xBDF JUMP JUMPDEST SWAP1 POP PUSH1 0x0 DUP3 ISZERO PUSH2 0x1374 JUMPI PUSH1 0x3 SLOAD PUSH1 0x40 DUP1 MLOAD PUSH4 0xD06CA61F PUSH1 0xE0 SHL DUP2 MSTORE PUSH1 0x4 DUP2 ADD DUP7 DUP2 MSTORE PUSH1 0x24 DUP3 ADD SWAP3 DUP4 MSTORE PUSH1 0xF DUP1 SLOAD PUSH1 0x44 DUP5 ADD DUP2 SWAP1 MSTORE PUSH1 0x1 PUSH1 0x1 PUSH1 0xA0 SHL SUB SWAP1 SWAP6 AND SWAP5 PUSH4 0xD06CA61F SWAP5 DUP10 SWAP5 SWAP3 SWAP4 SWAP3 SWAP1 SWAP2 PUSH1 0x64 SWAP1 SWAP2 ADD SWAP1 DUP5 SWAP1 DUP1 ISZERO PUSH2 0x1270 JUMPI PUSH1 0x20 MUL DUP3 ADD SWAP2 SWAP1 PUSH1 0x0 MSTORE PUSH1 0x20 PUSH1 0x0 KECCAK256 SWAP1 JUMPDEST DUP2 SLOAD PUSH1 0x1 PUSH1 0x1 PUSH1 0xA0 SHL SUB AND DUP2 MSTORE PUSH1 0x1 SWAP1 SWAP2 ADD SWAP1 PUSH1 0x20 ADD DUP1 DUP4 GT PUSH2 0x1252 JUMPI JUMPDEST POP POP SWAP4 POP POP POP POP PUSH1 0x0 PUSH1 0x40 MLOAD DUP1 DUP4 SUB DUP2 DUP7 DUP1 EXTCODESIZE ISZERO DUP1 ISZERO PUSH2 0x128F JUMPI PUSH1 0x0 DUP1 REVERT JUMPDEST POP GAS STATICCALL SWAP3 POP POP POP DUP1 ISZERO PUSH2 0x134F JUMPI POP PUSH1 0x40 MLOAD RETURNDATASIZE PUSH1 0x0 DUP3 RETURNDATACOPY PUSH1 0x1F RETURNDATASIZE SWAP1 DUP2 ADD PUSH1 0x1F NOT AND DUP3 ADD PUSH1 0x40 MSTORE PUSH1 0x20 DUP2 LT ISZERO PUSH2 0x12C2 JUMPI PUSH1 0x0 DUP1 REVERT JUMPDEST DUP2 ADD SWAP1 DUP1 DUP1 MLOAD PUSH1 0x40 MLOAD SWAP4 SWAP3 SWAP2 SWAP1 DUP5 PUSH1 0x1 PUSH1 0x20 SHL DUP3 GT ISZERO PUSH2 0x12E1 JUMPI PUSH1 0x0 DUP1 REVERT JUMPDEST SWAP1 DUP4 ADD SWAP1 PUSH1 0x20 DUP3 ADD DUP6 DUP2 GT ISZERO PUSH2 0x12F6 JUMPI PUSH1 0x0 DUP1 REVERT JUMPDEST DUP3 MLOAD DUP7 PUSH1 0x20 DUP3 MUL DUP4 ADD GT PUSH1 0x1 PUSH1 0x20 SHL DUP3 GT OR ISZERO PUSH2 0x1312 JUMPI PUSH1 0x0 DUP1 REVERT JUMPDEST DUP3 MSTORE POP DUP2 MLOAD PUSH1 0x20 SWAP2 DUP3 ADD SWAP3 DUP3 ADD SWAP2 MUL DUP1 DUP4 DUP4 PUSH1 0x0 JUMPDEST DUP4 DUP2 LT ISZERO PUSH2 0x133F JUMPI DUP2 DUP2 ADD MLOAD DUP4 DUP3 ADD MSTORE PUSH1 0x20 ADD PUSH2 0x1327 JUMP JUMPDEST POP POP POP POP SWAP1 POP ADD PUSH1 0x40 MSTORE POP POP POP PUSH1 0x1 JUMPDEST PUSH2 0x1358 JUMPI PUSH2 0x1374 JUMP JUMPDEST DUP1 PUSH1 0x1 DUP3 MLOAD SUB DUP2 MLOAD DUP2 LT PUSH2 0x1368 JUMPI INVALID JUMPDEST PUSH1 0x20 MUL PUSH1 0x20 ADD ADD MLOAD SWAP2 POP POP JUMPDEST PUSH2 0x137E DUP2 DUP4 PUSH2 0x2213 JUMP JUMPDEST SWAP1 POP PUSH2 0x13AC PUSH2 0x3E8 PUSH2 0xB09 PUSH1 0x7 SLOAD PUSH2 0x13A6 PUSH2 0x3E8 PUSH2 0xB09 PUSH1 0x1E DUP9 PUSH2 0x1FD5 SWAP1 SWAP2 SWAP1 PUSH4 0xFFFFFFFF AND JUMP JUMPDEST SWAP1 PUSH2 0x1FD5 JUMP JUMPDEST SWAP4 POP POP POP POP SWAP1 JUMP JUMPDEST PUSH2 0x13BC PUSH2 0x220F JUMP JUMPDEST PUSH1 0x1 PUSH1 0x1 PUSH1 0xA0 SHL SUB AND PUSH2 0x13CD PUSH2 0x11BA JUMP JUMPDEST PUSH1 0x1 PUSH1 0x1 PUSH1 0xA0 SHL SUB AND EQ PUSH2 0x1416 JUMPI PUSH1 0x40 DUP1 MLOAD PUSH3 0x461BCD PUSH1 0xE5 SHL DUP2 MSTORE PUSH1 0x20 PUSH1 0x4 DUP3 ADD DUP2 SWAP1 MSTORE PUSH1 0x24 DUP3 ADD MSTORE PUSH1 0x0 DUP1 MLOAD PUSH1 0x20 PUSH2 0x2F69 DUP4 CODECOPY DUP2 MLOAD SWAP2 MSTORE PUSH1 0x44 DUP3 ADD MSTORE SWAP1 MLOAD SWAP1 DUP2 SWAP1 SUB PUSH1 0x64 ADD SWAP1 REVERT JUMPDEST PUSH1 0x5 DUP1 SLOAD PUSH1 0x1 PUSH1 0x1 PUSH1 0xA0 SHL SUB NOT AND PUSH1 0x1 PUSH1 0x1 PUSH1 0xA0 SHL SUB SWAP3 SWAP1 SWAP3 AND SWAP2 SWAP1 SWAP2 OR SWAP1 SSTORE JUMP JUMPDEST PUSH2 0x1440 PUSH2 0x11BA JUMP JUMPDEST PUSH1 0x1 PUSH1 0x1 PUSH1 0xA0 SHL SUB AND CALLER PUSH1 0x1 PUSH1 0x1 PUSH1 0xA0 SHL SUB AND EQ DUP1 PUSH2 0x1469 JUMPI POP PUSH1 0x1 SLOAD PUSH1 0x1 PUSH1 0x1 PUSH1 0xA0 SHL SUB AND CALLER EQ JUMPDEST PUSH2 0x14A5 JUMPI PUSH1 0x40 DUP1 MLOAD PUSH3 0x461BCD PUSH1 0xE5 SHL DUP2 MSTORE PUSH1 0x20 PUSH1 0x4 DUP3 ADD MSTORE PUSH1 0x8 PUSH1 0x24 DUP3 ADD MSTORE PUSH8 0x10B6B0B730B3B2B9 PUSH1 0xC1 SHL PUSH1 0x44 DUP3 ADD MSTORE SWAP1 MLOAD SWAP1 DUP2 SWAP1 SUB PUSH1 0x64 ADD SWAP1 REVERT JUMPDEST PUSH1 0x32 DUP2 GT ISZERO PUSH2 0x14E4 JUMPI PUSH1 0x40 DUP1 MLOAD PUSH3 0x461BCD PUSH1 0xE5 SHL DUP2 MSTORE PUSH1 0x20 PUSH1 0x4 DUP1 DUP4 ADD SWAP2 SWAP1 SWAP2 MSTORE PUSH1 0x24 DUP3 ADD MSTORE PUSH4 0x2163617 PUSH1 0xE4 SHL PUSH1 0x44 DUP3 ADD MSTORE SWAP1 MLOAD SWAP1 DUP2 SWAP1 SUB PUSH1 0x64 ADD SWAP1 REVERT JUMPDEST PUSH1 0x6 SSTORE JUMP JUMPDEST PUSH1 0x1 SLOAD PUSH1 0x1 PUSH1 0x1 PUSH1 0xA0 SHL SUB AND DUP2 JUMP JUMPDEST PUSH2 0x3E8 DUP2 JUMP JUMPDEST PUSH1 0xF DUP2 DUP2 SLOAD DUP2 LT PUSH2 0x150B JUMPI INVALID JUMPDEST PUSH1 0x0 SWAP2 DUP3 MSTORE PUSH1 0x20 SWAP1 SWAP2 KECCAK256 ADD SLOAD PUSH1 0x1 PUSH1 0x1 PUSH1 0xA0 SHL SUB AND SWAP1 POP DUP2 JUMP JUMPDEST PUSH1 0xB SLOAD PUSH1 0x40 DUP1 MLOAD PUSH4 0x70A08231 PUSH1 0xE0 SHL DUP2 MSTORE ADDRESS PUSH1 0x4 DUP3 ADD MSTORE SWAP1 MLOAD PUSH1 0x0 SWAP3 PUSH1 0x1 PUSH1 0x1 PUSH1 0xA0 SHL SUB AND SWAP2 PUSH4 0x70A08231 SWAP2 PUSH1 0x24 DUP1 DUP4 ADD SWAP3 PUSH1 0x20 SWAP3 SWAP2 SWAP1 DUP3 SWAP1 SUB ADD DUP2 DUP7 DUP1 EXTCODESIZE ISZERO DUP1 ISZERO PUSH2 0x832 JUMPI PUSH1 0x0 DUP1 REVERT JUMPDEST PUSH1 0x2 SLOAD PUSH1 0x1 PUSH1 0x1 PUSH1 0xA0 SHL SUB AND CALLER EQ PUSH2 0x15BD JUMPI PUSH1 0x40 DUP1 MLOAD PUSH3 0x461BCD PUSH1 0xE5 SHL DUP2 MSTORE PUSH1 0x20 PUSH1 0x4 DUP3 ADD MSTORE PUSH1 0xB PUSH1 0x24 DUP3 ADD MSTORE PUSH11 0x85CDD1C985D1959DA5CDD PUSH1 0xAA SHL PUSH1 0x44 DUP3 ADD MSTORE SWAP1 MLOAD SWAP1 DUP2 SWAP1 SUB PUSH1 0x64 ADD SWAP1 REVERT JUMPDEST PUSH1 0x2 DUP1 SLOAD PUSH1 0x1 PUSH1 0x1 PUSH1 0xA0 SHL SUB NOT AND PUSH1 0x1 PUSH1 0x1 PUSH1 0xA0 SHL SUB SWAP3 SWAP1 SWAP3 AND SWAP2 SWAP1 SWAP2 OR SWAP1 SSTORE JUMP JUMPDEST PUSH2 0x15E7 PUSH2 0xDF1 JUMP JUMPDEST ISZERO PUSH2 0x162C JUMPI PUSH1 0x40 DUP1 MLOAD PUSH3 0x461BCD PUSH1 0xE5 SHL DUP2 MSTORE PUSH1 0x20 PUSH1 0x4 DUP3 ADD MSTORE PUSH1 0x10 PUSH1 0x24 DUP3 ADD MSTORE PUSH16 0x14185D5CD8589B194E881C185D5CD959 PUSH1 0x82 SHL PUSH1 0x44 DUP3 ADD MSTORE SWAP1 MLOAD SWAP1 DUP2 SWAP1 SUB PUSH1 0x64 ADD SWAP1 REVERT JUMPDEST PUSH1 0x0 PUSH2 0x1636 PUSH2 0x1525 JUMP JUMPDEST SWAP1 POP DUP1 ISZERO PUSH2 0x16A4 JUMPI PUSH1 0xE SLOAD PUSH1 0x40 DUP1 MLOAD PUSH4 0x534A7E1D PUSH1 0xE1 SHL DUP2 MSTORE PUSH1 0x4 DUP2 ADD DUP5 SWAP1 MSTORE SWAP1 MLOAD PUSH1 0x1 PUSH1 0x1 PUSH1 0xA0 SHL SUB SWAP1 SWAP3 AND SWAP2 PUSH4 0xA694FC3A SWAP2 PUSH1 0x24 DUP1 DUP3 ADD SWAP3 PUSH1 0x0 SWAP3 SWAP1 SWAP2 SWAP1 DUP3 SWAP1 SUB ADD DUP2 DUP4 DUP8 DUP1 EXTCODESIZE ISZERO DUP1 ISZERO PUSH2 0x168B JUMPI PUSH1 0x0 DUP1 REVERT JUMPDEST POP GAS CALL ISZERO DUP1 ISZERO PUSH2 0x169F JUMPI RETURNDATASIZE PUSH1 0x0 DUP1 RETURNDATACOPY RETURNDATASIZE PUSH1 0x0 REVERT JUMPDEST POP POP POP POP JUMPDEST PUSH32 0x4D6CE1E535DBADE1C23DEFBA91E23B8F791CE5EDC0CC320257A2B364E4E38426 PUSH2 0x16CD PUSH2 0xF67 JUMP JUMPDEST PUSH1 0x40 DUP1 MLOAD SWAP2 DUP3 MSTORE MLOAD SWAP1 DUP2 SWAP1 SUB PUSH1 0x20 ADD SWAP1 LOG1 POP JUMP JUMPDEST PUSH2 0x16E9 PUSH2 0x11BA JUMP JUMPDEST PUSH1 0x1 PUSH1 0x1 PUSH1 0xA0 SHL SUB AND CALLER PUSH1 0x1 PUSH1 0x1 PUSH1 0xA0 SHL SUB AND EQ DUP1 PUSH2 0x1712 JUMPI POP PUSH1 0x1 SLOAD PUSH1 0x1 PUSH1 0x1 PUSH1 0xA0 SHL SUB AND CALLER EQ JUMPDEST PUSH2 0xCB1 JUMPI PUSH1 0x40 DUP1 MLOAD PUSH3 0x461BCD PUSH1 0xE5 SHL DUP2 MSTORE PUSH1 0x20 PUSH1 0x4 DUP3 ADD MSTORE PUSH1 0x8 PUSH1 0x24 DUP3 ADD MSTORE PUSH8 0x10B6B0B730B3B2B9 PUSH1 0xC1 SHL PUSH1 0x44 DUP3 ADD MSTORE SWAP1 MLOAD SWAP1 DUP2 SWAP1 SUB PUSH1 0x64 ADD SWAP1 REVERT JUMPDEST PUSH2 0x1756 PUSH2 0x220F JUMP JUMPDEST PUSH1 0x1 PUSH1 0x1 PUSH1 0xA0 SHL SUB AND PUSH2 0x1767 PUSH2 0x11BA JUMP JUMPDEST PUSH1 0x1 PUSH1 0x1 PUSH1 0xA0 SHL SUB AND EQ PUSH2 0x17B0 JUMPI PUSH1 0x40 DUP1 MLOAD PUSH3 0x461BCD PUSH1 0xE5 SHL DUP2 MSTORE PUSH1 0x20 PUSH1 0x4 DUP3 ADD DUP2 SWAP1 MSTORE PUSH1 0x24 DUP3 ADD MSTORE PUSH1 0x0 DUP1 MLOAD PUSH1 0x20 PUSH2 0x2F69 DUP4 CODECOPY DUP2 MLOAD SWAP2 MSTORE PUSH1 0x44 DUP3 ADD MSTORE SWAP1 MLOAD SWAP1 DUP2 SWAP1 SUB PUSH1 0x64 ADD SWAP1 REVERT JUMPDEST PUSH1 0x3 DUP1 SLOAD PUSH1 0x1 PUSH1 0x1 PUSH1 0xA0 SHL SUB NOT AND PUSH1 0x1 PUSH1 0x1 PUSH1 0xA0 SHL SUB SWAP3 SWAP1 SWAP3 AND SWAP2 SWAP1 SWAP2 OR SWAP1 SSTORE JUMP JUMPDEST PUSH1 0x11 DUP2 DUP2 SLOAD DUP2 LT PUSH2 0x150B JUMPI INVALID JUMPDEST PUSH1 0x32 DUP2 JUMP JUMPDEST PUSH1 0x5 SLOAD PUSH1 0x1 PUSH1 0x1 PUSH1 0xA0 SHL SUB AND DUP2 JUMP JUMPDEST PUSH1 0x10 DUP2 DUP2 SLOAD DUP2 LT PUSH2 0x150B JUMPI INVALID JUMPDEST PUSH1 0x60 PUSH1 0x10 DUP1 SLOAD DUP1 PUSH1 0x20 MUL PUSH1 0x20 ADD PUSH1 0x40 MLOAD SWAP1 DUP2 ADD PUSH1 0x40 MSTORE DUP1 SWAP3 SWAP2 SWAP1 DUP2 DUP2 MSTORE PUSH1 0x20 ADD DUP3 DUP1 SLOAD DUP1 ISZERO PUSH2 0x8CA JUMPI PUSH1 0x20 MUL DUP3 ADD SWAP2 SWAP1 PUSH1 0x0 MSTORE PUSH1 0x20 PUSH1 0x0 KECCAK256 SWAP1 DUP2 SLOAD PUSH1 0x1 PUSH1 0x1 PUSH1 0xA0 SHL SUB AND DUP2 MSTORE PUSH1 0x1 SWAP1 SWAP2 ADD SWAP1 PUSH1 0x20 ADD DUP1 DUP4 GT PUSH2 0x8AC JUMPI POP POP POP POP POP SWAP1 POP SWAP1 JUMP JUMPDEST PUSH1 0x13 SLOAD DUP2 JUMP JUMPDEST PUSH1 0xA SLOAD PUSH1 0x1 PUSH1 0x1 PUSH1 0xA0 SHL SUB AND DUP2 JUMP JUMPDEST PUSH2 0x187D PUSH2 0x220F JUMP JUMPDEST PUSH1 0x1 PUSH1 0x1 PUSH1 0xA0 SHL SUB AND PUSH2 0x188E PUSH2 0x11BA JUMP JUMPDEST PUSH1 0x1 PUSH1 0x1 PUSH1 0xA0 SHL SUB AND EQ PUSH2 0x18D7 JUMPI PUSH1 0x40 DUP1 MLOAD PUSH3 0x461BCD PUSH1 0xE5 SHL DUP2 MSTORE PUSH1 0x20 PUSH1 0x4 DUP3 ADD DUP2 SWAP1 MSTORE PUSH1 0x24 DUP3 ADD MSTORE PUSH1 0x0 DUP1 MLOAD PUSH1 0x20 PUSH2 0x2F69 DUP4 CODECOPY DUP2 MLOAD SWAP2 MSTORE PUSH1 0x44 DUP3 ADD MSTORE SWAP1 MLOAD SWAP1 DUP2 SWAP1 SUB PUSH1 0x64 ADD SWAP1 REVERT JUMPDEST PUSH1 0x1 PUSH1 0x1 PUSH1 0xA0 SHL SUB DUP2 AND PUSH2 0x191C JUMPI PUSH1 0x40 MLOAD PUSH3 0x461BCD PUSH1 0xE5 SHL DUP2 MSTORE PUSH1 0x4 ADD DUP1 DUP1 PUSH1 0x20 ADD DUP3 DUP2 SUB DUP3 MSTORE PUSH1 0x26 DUP2 MSTORE PUSH1 0x20 ADD DUP1 PUSH2 0x2EFC PUSH1 0x26 SWAP2 CODECOPY PUSH1 0x40 ADD SWAP2 POP POP PUSH1 0x40 MLOAD DUP1 SWAP2 SUB SWAP1 REVERT JUMPDEST PUSH1 0x0 DUP1 SLOAD PUSH1 0x40 MLOAD PUSH1 0x1 PUSH1 0x1 PUSH1 0xA0 SHL SUB DUP1 DUP6 AND SWAP4 SWAP3 AND SWAP2 PUSH32 0x8BE0079C531659141344CD1FD0A4F28419497F9722A3DAAFE3B4186F6B6457E0 SWAP2 LOG3 PUSH1 0x0 DUP1 SLOAD PUSH1 0x1 PUSH1 0x1 PUSH1 0xA0 SHL SUB NOT AND PUSH1 0x1 PUSH1 0x1 PUSH1 0xA0 SHL SUB SWAP3 SWAP1 SWAP3 AND SWAP2 SWAP1 SWAP2 OR SWAP1 SSTORE JUMP JUMPDEST PUSH1 0x4 SLOAD PUSH1 0x1 PUSH1 0x1 PUSH1 0xA0 SHL SUB AND CALLER EQ PUSH2 0x19BF JUMPI PUSH1 0x40 DUP1 MLOAD PUSH3 0x461BCD PUSH1 0xE5 SHL DUP2 MSTORE PUSH1 0x20 PUSH1 0x4 DUP3 ADD MSTORE PUSH1 0x6 PUSH1 0x24 DUP3 ADD MSTORE PUSH6 0x85D985D5B1D PUSH1 0xD2 SHL PUSH1 0x44 DUP3 ADD MSTORE SWAP1 MLOAD SWAP1 DUP2 SWAP1 SUB PUSH1 0x64 ADD SWAP1 REVERT JUMPDEST PUSH1 0xE SLOAD PUSH1 0x1 PUSH1 0x1 PUSH1 0xA0 SHL SUB AND PUSH4 0x2E1A7D4D PUSH2 0x19D8 PUSH2 0x7E7 JUMP JUMPDEST PUSH1 0x40 MLOAD DUP3 PUSH4 0xFFFFFFFF AND PUSH1 0xE0 SHL DUP2 MSTORE PUSH1 0x4 ADD DUP1 DUP3 DUP2 MSTORE PUSH1 0x20 ADD SWAP2 POP POP PUSH1 0x0 PUSH1 0x40 MLOAD DUP1 DUP4 SUB DUP2 PUSH1 0x0 DUP8 DUP1 EXTCODESIZE ISZERO DUP1 ISZERO PUSH2 0x1A0E JUMPI PUSH1 0x0 DUP1 REVERT JUMPDEST POP GAS CALL ISZERO DUP1 ISZERO PUSH2 0x1A22 JUMPI RETURNDATASIZE PUSH1 0x0 DUP1 RETURNDATACOPY RETURNDATASIZE PUSH1 0x0 REVERT JUMPDEST POP POP POP POP PUSH1 0x0 PUSH2 0x1A30 PUSH2 0x1525 JUMP JUMPDEST PUSH1 0xB SLOAD PUSH1 0x4 DUP1 SLOAD PUSH1 0x40 DUP1 MLOAD PUSH4 0xA9059CBB PUSH1 0xE0 SHL DUP2 MSTORE PUSH1 0x1 PUSH1 0x1 PUSH1 0xA0 SHL SUB SWAP3 DUP4 AND SWAP4 DUP2 ADD SWAP4 SWAP1 SWAP4 MSTORE PUSH1 0x24 DUP4 ADD DUP6 SWAP1 MSTORE MLOAD SWAP4 SWAP5 POP SWAP1 SWAP2 AND SWAP2 PUSH4 0xA9059CBB SWAP2 PUSH1 0x44 DUP1 DUP3 ADD SWAP3 PUSH1 0x20 SWAP3 SWAP1 SWAP2 SWAP1 DUP3 SWAP1 SUB ADD DUP2 PUSH1 0x0 DUP8 DUP1 EXTCODESIZE ISZERO DUP1 ISZERO PUSH2 0x1A8E JUMPI PUSH1 0x0 DUP1 REVERT JUMPDEST POP GAS CALL ISZERO DUP1 ISZERO PUSH2 0x1AA2 JUMPI RETURNDATASIZE PUSH1 0x0 DUP1 RETURNDATACOPY RETURNDATASIZE PUSH1 0x0 REVERT JUMPDEST POP POP POP POP PUSH1 0x40 MLOAD RETURNDATASIZE PUSH1 0x20 DUP2 LT ISZERO PUSH2 0x1AB8 JUMPI PUSH1 0x0 DUP1 REVERT JUMPDEST POP POP POP JUMP JUMPDEST PUSH1 0x4 SLOAD PUSH1 0x1 PUSH1 0x1 PUSH1 0xA0 SHL SUB AND DUP2 JUMP JUMPDEST PUSH1 0x8 SLOAD DUP2 JUMP JUMPDEST DUP1 ISZERO DUP1 PUSH2 0x1B58 JUMPI POP PUSH1 0x40 DUP1 MLOAD PUSH4 0x6EB1769F PUSH1 0xE1 SHL DUP2 MSTORE ADDRESS PUSH1 0x4 DUP3 ADD MSTORE PUSH1 0x1 PUSH1 0x1 PUSH1 0xA0 SHL SUB DUP5 DUP2 AND PUSH1 0x24 DUP4 ADD MSTORE SWAP2 MLOAD SWAP2 DUP6 AND SWAP2 PUSH4 0xDD62ED3E SWAP2 PUSH1 0x44 DUP1 DUP3 ADD SWAP3 PUSH1 0x20 SWAP3 SWAP1 SWAP2 SWAP1 DUP3 SWAP1 SUB ADD DUP2 DUP7 DUP1 EXTCODESIZE ISZERO DUP1 ISZERO PUSH2 0x1B2A JUMPI PUSH1 0x0 DUP1 REVERT JUMPDEST POP GAS STATICCALL ISZERO DUP1 ISZERO PUSH2 0x1B3E JUMPI RETURNDATASIZE PUSH1 0x0 DUP1 RETURNDATACOPY RETURNDATASIZE PUSH1 0x0 REVERT JUMPDEST POP POP POP POP PUSH1 0x40 MLOAD RETURNDATASIZE PUSH1 0x20 DUP2 LT ISZERO PUSH2 0x1B54 JUMPI PUSH1 0x0 DUP1 REVERT JUMPDEST POP MLOAD ISZERO JUMPDEST PUSH2 0x1B93 JUMPI PUSH1 0x40 MLOAD PUSH3 0x461BCD PUSH1 0xE5 SHL DUP2 MSTORE PUSH1 0x4 ADD DUP1 DUP1 PUSH1 0x20 ADD DUP3 DUP2 SUB DUP3 MSTORE PUSH1 0x36 DUP2 MSTORE PUSH1 0x20 ADD DUP1 PUSH2 0x2FB3 PUSH1 0x36 SWAP2 CODECOPY PUSH1 0x40 ADD SWAP2 POP POP PUSH1 0x40 MLOAD DUP1 SWAP2 SUB SWAP1 REVERT JUMPDEST PUSH1 0x40 DUP1 MLOAD PUSH1 0x1 PUSH1 0x1 PUSH1 0xA0 SHL SUB DUP5 AND PUSH1 0x24 DUP3 ADD MSTORE PUSH1 0x44 DUP1 DUP3 ADD DUP5 SWAP1 MSTORE DUP3 MLOAD DUP1 DUP4 SUB SWAP1 SWAP2 ADD DUP2 MSTORE PUSH1 0x64 SWAP1 SWAP2 ADD SWAP1 SWAP2 MSTORE PUSH1 0x20 DUP2 ADD DUP1 MLOAD PUSH1 0x1 PUSH1 0x1 PUSH1 0xE0 SHL SUB AND PUSH4 0x95EA7B3 PUSH1 0xE0 SHL OR SWAP1 MSTORE PUSH2 0x1AB8 SWAP1 DUP5 SWAP1 PUSH2 0x238C JUMP JUMPDEST PUSH1 0x60 PUSH2 0x1BF4 DUP5 DUP5 PUSH1 0x0 DUP6 PUSH2 0x243D JUMP JUMPDEST SWAP1 POP JUMPDEST SWAP4 SWAP3 POP POP POP JUMP JUMPDEST PUSH2 0x1C06 PUSH2 0xDF1 JUMP JUMPDEST ISZERO PUSH2 0x1C4B JUMPI PUSH1 0x40 DUP1 MLOAD PUSH3 0x461BCD PUSH1 0xE5 SHL DUP2 MSTORE PUSH1 0x20 PUSH1 0x4 DUP3 ADD MSTORE PUSH1 0x10 PUSH1 0x24 DUP3 ADD MSTORE PUSH16 0x14185D5CD8589B194E881C185D5CD959 PUSH1 0x82 SHL PUSH1 0x44 DUP3 ADD MSTORE SWAP1 MLOAD SWAP1 DUP2 SWAP1 SUB PUSH1 0x64 ADD SWAP1 REVERT JUMPDEST PUSH1 0xE PUSH1 0x0 SWAP1 SLOAD SWAP1 PUSH2 0x100 EXP SWAP1 DIV PUSH1 0x1 PUSH1 0x1 PUSH1 0xA0 SHL SUB AND PUSH1 0x1 PUSH1 0x1 PUSH1 0xA0 SHL SUB AND PUSH4 0x3D18B912 PUSH1 0x40 MLOAD DUP2 PUSH4 0xFFFFFFFF AND PUSH1 0xE0 SHL DUP2 MSTORE PUSH1 0x4 ADD PUSH1 0x0 PUSH1 0x40 MLOAD DUP1 DUP4 SUB DUP2 PUSH1 0x0 DUP8 DUP1 EXTCODESIZE ISZERO DUP1 ISZERO PUSH2 0x1C9B JUMPI PUSH1 0x0 DUP1 REVERT JUMPDEST POP GAS CALL ISZERO DUP1 ISZERO PUSH2 0x1CAF JUMPI RETURNDATASIZE PUSH1 0x0 DUP1 RETURNDATACOPY RETURNDATASIZE PUSH1 0x0 REVERT JUMPDEST POP POP PUSH1 0x40 DUP1 MLOAD PUSH4 0x70A08231 PUSH1 0xE0 SHL DUP2 MSTORE ADDRESS PUSH1 0x4 DUP3 ADD MSTORE SWAP1 MLOAD PUSH1 0x0 SWAP4 POP PUSH20 0xF28164A485B0B2C90639E47B0F377B4A438A16B1 SWAP3 POP PUSH4 0x70A08231 SWAP2 PUSH1 0x24 DUP1 DUP3 ADD SWAP3 PUSH1 0x20 SWAP3 SWAP1 SWAP2 SWAP1 DUP3 SWAP1 SUB ADD DUP2 DUP7 DUP1 EXTCODESIZE ISZERO DUP1 ISZERO PUSH2 0x1D08 JUMPI PUSH1 0x0 DUP1 REVERT JUMPDEST POP GAS STATICCALL ISZERO DUP1 ISZERO PUSH2 0x1D1C JUMPI RETURNDATASIZE PUSH1 0x0 DUP1 RETURNDATACOPY RETURNDATASIZE PUSH1 0x0 REVERT JUMPDEST POP POP POP POP PUSH1 0x40 MLOAD RETURNDATASIZE PUSH1 0x20 DUP2 LT ISZERO PUSH2 0x1D32 JUMPI PUSH1 0x0 DUP1 REVERT JUMPDEST POP MLOAD PUSH1 0x40 DUP1 MLOAD PUSH4 0x67DFD4C9 PUSH1 0xE0 SHL DUP2 MSTORE PUSH1 0x4 DUP2 ADD DUP4 SWAP1 MSTORE SWAP1 MLOAD SWAP2 SWAP3 POP PUSH20 0xF28164A485B0B2C90639E47B0F377B4A438A16B1 SWAP2 PUSH4 0x67DFD4C9 SWAP2 PUSH1 0x24 DUP1 DUP3 ADD SWAP3 PUSH1 0x0 SWAP3 SWAP1 SWAP2 SWAP1 DUP3 SWAP1 SUB ADD DUP2 DUP4 DUP8 DUP1 EXTCODESIZE ISZERO DUP1 ISZERO PUSH2 0x1D8B JUMPI PUSH1 0x0 DUP1 REVERT JUMPDEST POP GAS CALL ISZERO DUP1 ISZERO PUSH2 0x1D9F JUMPI RETURNDATASIZE PUSH1 0x0 DUP1 RETURNDATACOPY RETURNDATASIZE PUSH1 0x0 REVERT JUMPDEST POP POP PUSH1 0xA SLOAD PUSH1 0x40 DUP1 MLOAD PUSH4 0x70A08231 PUSH1 0xE0 SHL DUP2 MSTORE ADDRESS PUSH1 0x4 DUP3 ADD MSTORE SWAP1 MLOAD PUSH1 0x0 SWAP5 POP PUSH1 0x1 PUSH1 0x1 PUSH1 0xA0 SHL SUB SWAP1 SWAP3 AND SWAP3 POP PUSH4 0x70A08231 SWAP2 PUSH1 0x24 DUP1 DUP4 ADD SWAP3 PUSH1 0x20 SWAP3 SWAP2 SWAP1 DUP3 SWAP1 SUB ADD DUP2 DUP7 DUP1 EXTCODESIZE ISZERO DUP1 ISZERO PUSH2 0x1DF0 JUMPI PUSH1 0x0 DUP1 REVERT JUMPDEST POP GAS STATICCALL ISZERO DUP1 ISZERO PUSH2 0x1E04 JUMPI RETURNDATASIZE PUSH1 0x0 DUP1 RETURNDATACOPY RETURNDATASIZE PUSH1 0x0 REVERT JUMPDEST POP POP POP POP PUSH1 0x40 MLOAD RETURNDATASIZE PUSH1 0x20 DUP2 LT ISZERO PUSH2 0x1E1A JUMPI PUSH1 0x0 DUP1 REVERT JUMPDEST POP MLOAD PUSH1 0x9 SLOAD PUSH1 0x40 DUP1 MLOAD PUSH4 0x70A08231 PUSH1 0xE0 SHL DUP2 MSTORE ADDRESS PUSH1 0x4 DUP3 ADD MSTORE SWAP1 MLOAD SWAP3 SWAP4 POP PUSH1 0x0 SWAP3 PUSH1 0x1 PUSH1 0x1 PUSH1 0xA0 SHL SUB SWAP1 SWAP3 AND SWAP2 PUSH4 0x70A08231 SWAP2 PUSH1 0x24 DUP1 DUP3 ADD SWAP3 PUSH1 0x20 SWAP3 SWAP1 SWAP2 SWAP1 DUP3 SWAP1 SUB ADD DUP2 DUP7 DUP1 EXTCODESIZE ISZERO DUP1 ISZERO PUSH2 0x1E6D JUMPI PUSH1 0x0 DUP1 REVERT JUMPDEST POP GAS STATICCALL ISZERO DUP1 ISZERO PUSH2 0x1E81 JUMPI RETURNDATASIZE PUSH1 0x0 DUP1 RETURNDATACOPY RETURNDATASIZE PUSH1 0x0 REVERT JUMPDEST POP POP POP POP PUSH1 0x40 MLOAD RETURNDATASIZE PUSH1 0x20 DUP2 LT ISZERO PUSH2 0x1E97 JUMPI PUSH1 0x0 DUP1 REVERT JUMPDEST POP MLOAD SWAP1 POP DUP2 ISZERO ISZERO DUP1 PUSH2 0x1EA9 JUMPI POP PUSH1 0x0 DUP2 GT JUMPDEST ISZERO PUSH2 0xD92 JUMPI PUSH2 0x1EB7 DUP5 PUSH2 0x2599 JUMP JUMPDEST PUSH2 0x1EBF PUSH2 0x28DE JUMP JUMPDEST PUSH1 0x0 PUSH2 0x1EC9 PUSH2 0x1525 JUMP JUMPDEST SWAP1 POP PUSH2 0x1ED3 PUSH2 0x15DF JUMP JUMPDEST TIMESTAMP PUSH1 0x13 SSTORE CALLER PUSH32 0x9BC239F1724CACFB88CB1D66A2DC437467699B68A8C90D7B63110CF4B6F92410 DUP3 PUSH2 0x1F02 PUSH2 0xF67 JUMP JUMPDEST PUSH1 0x40 DUP1 MLOAD SWAP3 DUP4 MSTORE PUSH1 0x20 DUP4 ADD SWAP2 SWAP1 SWAP2 MSTORE DUP1 MLOAD SWAP2 DUP3 SWAP1 SUB ADD SWAP1 LOG2 POP POP POP POP POP JUMP JUMPDEST PUSH1 0x0 DUP3 DUP3 GT ISZERO PUSH2 0x1F78 JUMPI PUSH1 0x40 DUP1 MLOAD PUSH3 0x461BCD PUSH1 0xE5 SHL DUP2 MSTORE PUSH1 0x20 PUSH1 0x4 DUP3 ADD MSTORE PUSH1 0x1E PUSH1 0x24 DUP3 ADD MSTORE PUSH32 0x536166654D6174683A207375627472616374696F6E206F766572666C6F770000 PUSH1 0x44 DUP3 ADD MSTORE SWAP1 MLOAD SWAP1 DUP2 SWAP1 SUB PUSH1 0x64 ADD SWAP1 REVERT JUMPDEST POP DUP1 DUP3 SUB JUMPDEST SWAP3 SWAP2 POP POP JUMP JUMPDEST PUSH1 0x40 DUP1 MLOAD PUSH1 0x1 PUSH1 0x1 PUSH1 0xA0 SHL SUB DUP5 AND PUSH1 0x24 DUP3 ADD MSTORE PUSH1 0x44 DUP1 DUP3 ADD DUP5 SWAP1 MSTORE DUP3 MLOAD DUP1 DUP4 SUB SWAP1 SWAP2 ADD DUP2 MSTORE PUSH1 0x64 SWAP1 SWAP2 ADD SWAP1 SWAP2 MSTORE PUSH1 0x20 DUP2 ADD DUP1 MLOAD PUSH1 0x1 PUSH1 0x1 PUSH1 0xE0 SHL SUB AND PUSH4 0xA9059CBB PUSH1 0xE0 SHL OR SWAP1 MSTORE PUSH2 0x1AB8 SWAP1 DUP5 SWAP1 PUSH2 0x238C JUMP JUMPDEST PUSH1 0x0 DUP3 PUSH2 0x1FE4 JUMPI POP PUSH1 0x0 PUSH2 0x1F7D JUMP JUMPDEST DUP3 DUP3 MUL DUP3 DUP5 DUP3 DUP2 PUSH2 0x1FF1 JUMPI INVALID JUMPDEST DIV EQ PUSH2 0x1BF7 JUMPI PUSH1 0x40 MLOAD PUSH3 0x461BCD PUSH1 0xE5 SHL DUP2 MSTORE PUSH1 0x4 ADD DUP1 DUP1 PUSH1 0x20 ADD DUP3 DUP2 SUB DUP3 MSTORE PUSH1 0x21 DUP2 MSTORE PUSH1 0x20 ADD DUP1 PUSH2 0x2F48 PUSH1 0x21 SWAP2 CODECOPY PUSH1 0x40 ADD SWAP2 POP POP PUSH1 0x40 MLOAD DUP1 SWAP2 SUB SWAP1 REVERT JUMPDEST PUSH1 0x0 DUP1 DUP3 GT PUSH2 0x2084 JUMPI PUSH1 0x40 DUP1 MLOAD PUSH3 0x461BCD PUSH1 0xE5 SHL DUP2 MSTORE PUSH1 0x20 PUSH1 0x4 DUP3 ADD MSTORE PUSH1 0x1A PUSH1 0x24 DUP3 ADD MSTORE PUSH32 0x536166654D6174683A206469766973696F6E206279207A65726F000000000000 PUSH1 0x44 DUP3 ADD MSTORE SWAP1 MLOAD SWAP1 DUP2 SWAP1 SUB PUSH1 0x64 ADD SWAP1 REVERT JUMPDEST DUP2 DUP4 DUP2 PUSH2 0x208D JUMPI INVALID JUMPDEST DIV SWAP4 SWAP3 POP POP POP JUMP JUMPDEST PUSH2 0x209D PUSH2 0xDF1 JUMP JUMPDEST PUSH2 0x20E5 JUMPI PUSH1 0x40 DUP1 MLOAD PUSH3 0x461BCD PUSH1 0xE5 SHL DUP2 MSTORE PUSH1 0x20 PUSH1 0x4 DUP3 ADD MSTORE PUSH1 0x14 PUSH1 0x24 DUP3 ADD MSTORE PUSH20 0x14185D5CD8589B194E881B9BDD081C185D5CD959 PUSH1 0x62 SHL PUSH1 0x44 DUP3 ADD MSTORE SWAP1 MLOAD SWAP1 DUP2 SWAP1 SUB PUSH1 0x64 ADD SWAP1 REVERT JUMPDEST PUSH1 0x0 DUP1 SLOAD PUSH1 0xFF PUSH1 0xA0 SHL NOT AND SWAP1 SSTORE PUSH32 0x5DB9EE0A495BF2E6FF9C91A7834C1BA4FDD244A5E8AA4E537BD38AEAE4B073AA PUSH2 0x211B PUSH2 0x220F JUMP JUMPDEST PUSH1 0x40 DUP1 MLOAD PUSH1 0x1 PUSH1 0x1 PUSH1 0xA0 SHL SUB SWAP1 SWAP3 AND DUP3 MSTORE MLOAD SWAP1 DUP2 SWAP1 SUB PUSH1 0x20 ADD SWAP1 LOG1 JUMP JUMPDEST PUSH1 0xE SLOAD PUSH1 0xB SLOAD PUSH2 0x2157 SWAP2 PUSH1 0x1 PUSH1 0x1 PUSH1 0xA0 SHL SUB SWAP2 DUP3 AND SWAP2 AND PUSH1 0x0 NOT PUSH2 0x1AD2 JUMP JUMPDEST PUSH1 0x3 SLOAD PUSH1 0xA SLOAD PUSH2 0x2176 SWAP2 PUSH1 0x1 PUSH1 0x1 PUSH1 0xA0 SHL SUB SWAP2 DUP3 AND SWAP2 AND PUSH1 0x0 NOT PUSH2 0x1AD2 JUMP JUMPDEST PUSH1 0x3 SLOAD PUSH1 0x9 SLOAD PUSH2 0x2195 SWAP2 PUSH1 0x1 PUSH1 0x1 PUSH1 0xA0 SHL SUB SWAP2 DUP3 AND SWAP2 AND PUSH1 0x0 NOT PUSH2 0x1AD2 JUMP JUMPDEST PUSH1 0x3 SLOAD PUSH1 0xC SLOAD PUSH2 0x21B3 SWAP2 PUSH1 0x1 PUSH1 0x1 PUSH1 0xA0 SHL SUB SWAP2 DUP3 AND SWAP2 AND PUSH1 0x0 PUSH2 0x1AD2 JUMP JUMPDEST PUSH1 0x3 SLOAD PUSH1 0xC SLOAD PUSH2 0x21D2 SWAP2 PUSH1 0x1 PUSH1 0x1 PUSH1 0xA0 SHL SUB SWAP2 DUP3 AND SWAP2 AND PUSH1 0x0 NOT PUSH2 0x1AD2 JUMP JUMPDEST PUSH1 0x3 SLOAD PUSH1 0xD SLOAD PUSH2 0x21F0 SWAP2 PUSH1 0x1 PUSH1 0x1 PUSH1 0xA0 SHL SUB SWAP2 DUP3 AND SWAP2 AND PUSH1 0x0 PUSH2 0x1AD2 JUMP JUMPDEST PUSH1 0x3 SLOAD PUSH1 0xD SLOAD PUSH2 0xCAF SWAP2 PUSH1 0x1 PUSH1 0x1 PUSH1 0xA0 SHL SUB SWAP2 DUP3 AND SWAP2 AND PUSH1 0x0 NOT PUSH2 0x1AD2 JUMP JUMPDEST CALLER SWAP1 JUMP JUMPDEST PUSH1 0x0 DUP3 DUP3 ADD DUP4 DUP2 LT ISZERO PUSH2 0x1BF7 JUMPI PUSH1 0x40 DUP1 MLOAD PUSH3 0x461BCD PUSH1 0xE5 SHL DUP2 MSTORE PUSH1 0x20 PUSH1 0x4 DUP3 ADD MSTORE PUSH1 0x1B PUSH1 0x24 DUP3 ADD MSTORE PUSH32 0x536166654D6174683A206164646974696F6E206F766572666C6F770000000000 PUSH1 0x44 DUP3 ADD MSTORE SWAP1 MLOAD SWAP1 DUP2 SWAP1 SUB PUSH1 0x64 ADD SWAP1 REVERT JUMPDEST PUSH2 0x2275 PUSH2 0xDF1 JUMP JUMPDEST ISZERO PUSH2 0x22BA JUMPI PUSH1 0x40 DUP1 MLOAD PUSH3 0x461BCD PUSH1 0xE5 SHL DUP2 MSTORE PUSH1 0x20 PUSH1 0x4 DUP3 ADD MSTORE PUSH1 0x10 PUSH1 0x24 DUP3 ADD MSTORE PUSH16 0x14185D5CD8589B194E881C185D5CD959 PUSH1 0x82 SHL PUSH1 0x44 DUP3 ADD MSTORE SWAP1 MLOAD SWAP1 DUP2 SWAP1 SUB PUSH1 0x64 ADD SWAP1 REVERT JUMPDEST PUSH1 0x0 DUP1 SLOAD PUSH1 0xFF PUSH1 0xA0 SHL NOT AND PUSH1 0x1 PUSH1 0xA0 SHL OR SWAP1 SSTORE PUSH32 0x62E78CEA01BEE320CD4E420270B5EA74000D11B0C9F74754EBDBFC544B05A258 PUSH2 0x211B PUSH2 0x220F JUMP JUMPDEST PUSH1 0xE SLOAD PUSH1 0xB SLOAD PUSH2 0x2314 SWAP2 PUSH1 0x1 PUSH1 0x1 PUSH1 0xA0 SHL SUB SWAP2 DUP3 AND SWAP2 AND PUSH1 0x0 PUSH2 0x1AD2 JUMP JUMPDEST PUSH1 0x3 SLOAD PUSH1 0xA SLOAD PUSH2 0x2332 SWAP2 PUSH1 0x1 PUSH1 0x1 PUSH1 0xA0 SHL SUB SWAP2 DUP3 AND SWAP2 AND PUSH1 0x0 PUSH2 0x1AD2 JUMP JUMPDEST PUSH1 0x3 SLOAD PUSH1 0x9 SLOAD PUSH2 0x2350 SWAP2 PUSH1 0x1 PUSH1 0x1 PUSH1 0xA0 SHL SUB SWAP2 DUP3 AND SWAP2 AND PUSH1 0x0 PUSH2 0x1AD2 JUMP JUMPDEST PUSH1 0x3 SLOAD PUSH1 0xC SLOAD PUSH2 0x236E SWAP2 PUSH1 0x1 PUSH1 0x1 PUSH1 0xA0 SHL SUB SWAP2 DUP3 AND SWAP2 AND PUSH1 0x0 PUSH2 0x1AD2 JUMP JUMPDEST PUSH1 0x3 SLOAD PUSH1 0xD SLOAD PUSH2 0xCAF SWAP2 PUSH1 0x1 PUSH1 0x1 PUSH1 0xA0 SHL SUB SWAP2 DUP3 AND SWAP2 AND PUSH1 0x0 PUSH2 0x1AD2 JUMP JUMPDEST PUSH1 0x60 PUSH2 0x23E1 DUP3 PUSH1 0x40 MLOAD DUP1 PUSH1 0x40 ADD PUSH1 0x40 MSTORE DUP1 PUSH1 0x20 DUP2 MSTORE PUSH1 0x20 ADD PUSH32 0x5361666545524332303A206C6F772D6C6576656C2063616C6C206661696C6564 DUP2 MSTORE POP DUP6 PUSH1 0x1 PUSH1 0x1 PUSH1 0xA0 SHL SUB AND PUSH2 0x1BE5 SWAP1 SWAP3 SWAP2 SWAP1 PUSH4 0xFFFFFFFF AND JUMP JUMPDEST DUP1 MLOAD SWAP1 SWAP2 POP ISZERO PUSH2 0x1AB8 JUMPI DUP1 DUP1 PUSH1 0x20 ADD SWAP1 MLOAD PUSH1 0x20 DUP2 LT ISZERO PUSH2 0x2400 JUMPI PUSH1 0x0 DUP1 REVERT JUMPDEST POP MLOAD PUSH2 0x1AB8 JUMPI PUSH1 0x40 MLOAD PUSH3 0x461BCD PUSH1 0xE5 SHL DUP2 MSTORE PUSH1 0x4 ADD DUP1 DUP1 PUSH1 0x20 ADD DUP3 DUP2 SUB DUP3 MSTORE PUSH1 0x2A DUP2 MSTORE PUSH1 0x20 ADD DUP1 PUSH2 0x2F89 PUSH1 0x2A SWAP2 CODECOPY PUSH1 0x40 ADD SWAP2 POP POP PUSH1 0x40 MLOAD DUP1 SWAP2 SUB SWAP1 REVERT JUMPDEST PUSH1 0x60 DUP3 SELFBALANCE LT ISZERO PUSH2 0x247E JUMPI PUSH1 0x40 MLOAD PUSH3 0x461BCD PUSH1 0xE5 SHL DUP2 MSTORE PUSH1 0x4 ADD DUP1 DUP1 PUSH1 0x20 ADD DUP3 DUP2 SUB DUP3 MSTORE PUSH1 0x26 DUP2 MSTORE PUSH1 0x20 ADD DUP1 PUSH2 0x2F22 PUSH1 0x26 SWAP2 CODECOPY PUSH1 0x40 ADD SWAP2 POP POP PUSH1 0x40 MLOAD DUP1 SWAP2 SUB SWAP1 REVERT JUMPDEST PUSH2 0x2487 DUP6 PUSH2 0x2E51 JUMP JUMPDEST PUSH2 0x24D8 JUMPI PUSH1 0x40 DUP1 MLOAD PUSH3 0x461BCD PUSH1 0xE5 SHL DUP2 MSTORE PUSH1 0x20 PUSH1 0x4 DUP3 ADD MSTORE PUSH1 0x1D PUSH1 0x24 DUP3 ADD MSTORE PUSH32 0x416464726573733A2063616C6C20746F206E6F6E2D636F6E7472616374000000 PUSH1 0x44 DUP3 ADD MSTORE SWAP1 MLOAD SWAP1 DUP2 SWAP1 SUB PUSH1 0x64 ADD SWAP1 REVERT JUMPDEST PUSH1 0x0 PUSH1 0x60 DUP7 PUSH1 0x1 PUSH1 0x1 PUSH1 0xA0 SHL SUB AND DUP6 DUP8 PUSH1 0x40 MLOAD DUP1 DUP3 DUP1 MLOAD SWAP1 PUSH1 0x20 ADD SWAP1 DUP1 DUP4 DUP4 JUMPDEST PUSH1 0x20 DUP4 LT PUSH2 0x2517 JUMPI DUP1 MLOAD DUP3 MSTORE PUSH1 0x1F NOT SWAP1 SWAP3 ADD SWAP2 PUSH1 0x20 SWAP2 DUP3 ADD SWAP2 ADD PUSH2 0x24F8 JUMP JUMPDEST PUSH1 0x1 DUP4 PUSH1 0x20 SUB PUSH2 0x100 EXP SUB DUP1 NOT DUP3 MLOAD AND DUP2 DUP5 MLOAD AND DUP1 DUP3 OR DUP6 MSTORE POP POP POP POP POP POP SWAP1 POP ADD SWAP2 POP POP PUSH1 0x0 PUSH1 0x40 MLOAD DUP1 DUP4 SUB DUP2 DUP6 DUP8 GAS CALL SWAP3 POP POP POP RETURNDATASIZE DUP1 PUSH1 0x0 DUP2 EQ PUSH2 0x2579 JUMPI PUSH1 0x40 MLOAD SWAP2 POP PUSH1 0x1F NOT PUSH1 0x3F RETURNDATASIZE ADD AND DUP3 ADD PUSH1 0x40 MSTORE RETURNDATASIZE DUP3 MSTORE RETURNDATASIZE PUSH1 0x0 PUSH1 0x20 DUP5 ADD RETURNDATACOPY PUSH2 0x257E JUMP JUMPDEST PUSH1 0x60 SWAP2 POP JUMPDEST POP SWAP2 POP SWAP2 POP PUSH2 0x258E DUP3 DUP3 DUP7 PUSH2 0x2E57 JUMP JUMPDEST SWAP8 SWAP7 POP POP POP POP POP POP POP JUMP JUMPDEST PUSH1 0xA SLOAD PUSH1 0x40 DUP1 MLOAD PUSH4 0x70A08231 PUSH1 0xE0 SHL DUP2 MSTORE ADDRESS PUSH1 0x4 DUP3 ADD MSTORE SWAP1 MLOAD PUSH1 0x0 SWAP3 PUSH1 0x1 PUSH1 0x1 PUSH1 0xA0 SHL SUB AND SWAP2 PUSH4 0x70A08231 SWAP2 PUSH1 0x24 DUP1 DUP4 ADD SWAP3 PUSH1 0x20 SWAP3 SWAP2 SWAP1 DUP3 SWAP1 SUB ADD DUP2 DUP7 DUP1 EXTCODESIZE ISZERO DUP1 ISZERO PUSH2 0x25E4 JUMPI PUSH1 0x0 DUP1 REVERT JUMPDEST POP GAS STATICCALL ISZERO DUP1 ISZERO PUSH2 0x25F8 JUMPI RETURNDATASIZE PUSH1 0x0 DUP1 RETURNDATACOPY RETURNDATASIZE PUSH1 0x0 REVERT JUMPDEST POP POP POP POP PUSH1 0x40 MLOAD RETURNDATASIZE PUSH1 0x20 DUP2 LT ISZERO PUSH2 0x260E JUMPI PUSH1 0x0 DUP1 REVERT JUMPDEST POP MLOAD SWAP1 POP DUP1 ISZERO PUSH2 0x279F JUMPI PUSH1 0x3 SLOAD PUSH1 0x40 MLOAD PUSH4 0x38ED1739 PUSH1 0xE0 SHL DUP2 MSTORE PUSH1 0x4 DUP2 ADD DUP4 DUP2 MSTORE PUSH1 0x0 PUSH1 0x24 DUP4 ADD DUP2 SWAP1 MSTORE ADDRESS PUSH1 0x64 DUP5 ADD DUP2 SWAP1 MSTORE TIMESTAMP PUSH1 0x84 DUP6 ADD DUP2 SWAP1 MSTORE PUSH1 0xA0 PUSH1 0x44 DUP7 ADD SWAP1 DUP2 MSTORE PUSH1 0xF DUP1 SLOAD PUSH1 0xA4 DUP9 ADD DUP2 SWAP1 MSTORE PUSH1 0x1 PUSH1 0x1 PUSH1 0xA0 SHL SUB SWAP1 SWAP9 AND SWAP8 PUSH4 0x38ED1739 SWAP8 DUP11 SWAP8 SWAP3 SWAP6 SWAP5 SWAP4 SWAP2 PUSH1 0xC4 SWAP1 SWAP2 ADD SWAP1 DUP7 SWAP1 DUP1 ISZERO PUSH2 0x26B2 JUMPI PUSH1 0x20 MUL DUP3 ADD SWAP2 SWAP1 PUSH1 0x0 MSTORE PUSH1 0x20 PUSH1 0x0 KECCAK256 SWAP1 JUMPDEST DUP2 SLOAD PUSH1 0x1 PUSH1 0x1 PUSH1 0xA0 SHL SUB AND DUP2 MSTORE PUSH1 0x1 SWAP1 SWAP2 ADD SWAP1 PUSH1 0x20 ADD DUP1 DUP4 GT PUSH2 0x2694 JUMPI JUMPDEST POP POP SWAP7 POP POP POP POP POP POP POP PUSH1 0x0 PUSH1 0x40 MLOAD DUP1 DUP4 SUB DUP2 PUSH1 0x0 DUP8 DUP1 EXTCODESIZE ISZERO DUP1 ISZERO PUSH2 0x26D6 JUMPI PUSH1 0x0 DUP1 REVERT JUMPDEST POP GAS CALL ISZERO DUP1 ISZERO PUSH2 0x26EA JUMPI RETURNDATASIZE PUSH1 0x0 DUP1 RETURNDATACOPY RETURNDATASIZE PUSH1 0x0 REVERT JUMPDEST POP POP POP POP PUSH1 0x40 MLOAD RETURNDATASIZE PUSH1 0x0 DUP3 RETURNDATACOPY PUSH1 0x1F RETURNDATASIZE SWAP1 DUP2 ADD PUSH1 0x1F NOT AND DUP3 ADD PUSH1 0x40 MSTORE PUSH1 0x20 DUP2 LT ISZERO PUSH2 0x2713 JUMPI PUSH1 0x0 DUP1 REVERT JUMPDEST DUP2 ADD SWAP1 DUP1 DUP1 MLOAD PUSH1 0x40 MLOAD SWAP4 SWAP3 SWAP2 SWAP1 DUP5 PUSH1 0x1 PUSH1 0x20 SHL DUP3 GT ISZERO PUSH2 0x2732 JUMPI PUSH1 0x0 DUP1 REVERT JUMPDEST SWAP1 DUP4 ADD SWAP1 PUSH1 0x20 DUP3 ADD DUP6 DUP2 GT ISZERO PUSH2 0x2747 JUMPI PUSH1 0x0 DUP1 REVERT JUMPDEST DUP3 MLOAD DUP7 PUSH1 0x20 DUP3 MUL DUP4 ADD GT PUSH1 0x1 PUSH1 0x20 SHL DUP3 GT OR ISZERO PUSH2 0x2763 JUMPI PUSH1 0x0 DUP1 REVERT JUMPDEST DUP3 MSTORE POP DUP2 MLOAD PUSH1 0x20 SWAP2 DUP3 ADD SWAP3 DUP3 ADD SWAP2 MUL DUP1 DUP4 DUP4 PUSH1 0x0 JUMPDEST DUP4 DUP2 LT ISZERO PUSH2 0x2790 JUMPI DUP2 DUP2 ADD MLOAD DUP4 DUP3 ADD MSTORE PUSH1 0x20 ADD PUSH2 0x2778 JUMP JUMPDEST POP POP POP POP SWAP1 POP ADD PUSH1 0x40 MSTORE POP POP POP POP JUMPDEST PUSH1 0x9 SLOAD PUSH1 0x40 DUP1 MLOAD PUSH4 0x70A08231 PUSH1 0xE0 SHL DUP2 MSTORE ADDRESS PUSH1 0x4 DUP3 ADD MSTORE SWAP1 MLOAD PUSH1 0x0 SWAP3 PUSH2 0x282E SWAP3 PUSH2 0x3E8 SWAP3 PUSH2 0xB09 SWAP3 PUSH1 0x1E SWAP3 PUSH1 0x1 PUSH1 0x1 PUSH1 0xA0 SHL SUB SWAP1 SWAP2 AND SWAP2 PUSH4 0x70A08231 SWAP2 PUSH1 0x24 DUP1 DUP3 ADD SWAP3 PUSH1 0x20 SWAP3 SWAP1 SWAP2 SWAP1 DUP3 SWAP1 SUB ADD DUP2 DUP7 DUP1 EXTCODESIZE ISZERO DUP1 ISZERO PUSH2 0x27FC JUMPI PUSH1 0x0 DUP1 REVERT JUMPDEST POP GAS STATICCALL ISZERO DUP1 ISZERO PUSH2 0x2810 JUMPI RETURNDATASIZE PUSH1 0x0 DUP1 RETURNDATACOPY RETURNDATASIZE PUSH1 0x0 REVERT JUMPDEST POP POP POP POP PUSH1 0x40 MLOAD RETURNDATASIZE PUSH1 0x20 DUP2 LT ISZERO PUSH2 0x2826 JUMPI PUSH1 0x0 DUP1 REVERT JUMPDEST POP MLOAD SWAP1 PUSH2 0x1FD5 JUMP JUMPDEST SWAP1 POP PUSH1 0x0 PUSH2 0x284D PUSH2 0x3E8 PUSH2 0xB09 PUSH1 0x7 SLOAD DUP6 PUSH2 0x1FD5 SWAP1 SWAP2 SWAP1 PUSH4 0xFFFFFFFF AND JUMP JUMPDEST PUSH1 0x9 SLOAD SWAP1 SWAP2 POP PUSH2 0x2867 SWAP1 PUSH1 0x1 PUSH1 0x1 PUSH1 0xA0 SHL SUB AND DUP6 DUP4 PUSH2 0x1F83 JUMP JUMPDEST PUSH1 0x0 PUSH2 0x2884 PUSH2 0x3E8 PUSH2 0xB09 PUSH1 0x8 SLOAD DUP7 PUSH2 0x1FD5 SWAP1 SWAP2 SWAP1 PUSH4 0xFFFFFFFF AND JUMP JUMPDEST PUSH1 0x5 SLOAD PUSH1 0x9 SLOAD SWAP2 SWAP3 POP PUSH2 0x28A4 SWAP2 PUSH1 0x1 PUSH1 0x1 PUSH1 0xA0 SHL SUB SWAP1 DUP2 AND SWAP2 AND DUP4 PUSH2 0x1F83 JUMP JUMPDEST PUSH1 0x0 PUSH2 0x28B6 PUSH2 0x3E8 PUSH2 0xB09 DUP7 DUP5 PUSH2 0x1FD5 JUMP JUMPDEST PUSH1 0x2 SLOAD PUSH1 0x9 SLOAD SWAP2 SWAP3 POP PUSH2 0x28D6 SWAP2 PUSH1 0x1 PUSH1 0x1 PUSH1 0xA0 SHL SUB SWAP1 DUP2 AND SWAP2 AND DUP4 PUSH2 0x1F83 JUMP JUMPDEST POP POP POP POP POP POP JUMP JUMPDEST PUSH1 0x9 SLOAD PUSH1 0x40 DUP1 MLOAD PUSH4 0x70A08231 PUSH1 0xE0 SHL DUP2 MSTORE ADDRESS PUSH1 0x4 DUP3 ADD MSTORE SWAP1 MLOAD PUSH1 0x0 SWAP3 PUSH2 0x2965 SWAP3 PUSH1 0x2 SWAP3 PUSH1 0x1 PUSH1 0x1 PUSH1 0xA0 SHL SUB SWAP1 SWAP3 AND SWAP2 PUSH4 0x70A08231 SWAP2 PUSH1 0x24 DUP1 DUP3 ADD SWAP3 PUSH1 0x20 SWAP3 SWAP1 SWAP2 SWAP1 DUP3 SWAP1 SUB ADD DUP2 DUP7 DUP1 EXTCODESIZE ISZERO DUP1 ISZERO PUSH2 0x2933 JUMPI PUSH1 0x0 DUP1 REVERT JUMPDEST POP GAS STATICCALL ISZERO DUP1 ISZERO PUSH2 0x2947 JUMPI RETURNDATASIZE PUSH1 0x0 DUP1 RETURNDATACOPY RETURNDATASIZE PUSH1 0x0 REVERT JUMPDEST POP POP POP POP PUSH1 0x40 MLOAD RETURNDATASIZE PUSH1 0x20 DUP2 LT ISZERO PUSH2 0x295D JUMPI PUSH1 0x0 DUP1 REVERT JUMPDEST POP MLOAD SWAP1 PUSH2 0x202E JUMP JUMPDEST PUSH1 0x9 SLOAD PUSH1 0xC SLOAD SWAP2 SWAP3 POP PUSH1 0x1 PUSH1 0x1 PUSH1 0xA0 SHL SUB SWAP2 DUP3 AND SWAP2 AND EQ PUSH2 0x2B07 JUMPI PUSH1 0x3 SLOAD PUSH1 0x40 MLOAD PUSH4 0x38ED1739 PUSH1 0xE0 SHL DUP2 MSTORE PUSH1 0x4 DUP2 ADD DUP4 DUP2 MSTORE PUSH1 0x0 PUSH1 0x24 DUP4 ADD DUP2 SWAP1 MSTORE ADDRESS PUSH1 0x64 DUP5 ADD DUP2 SWAP1 MSTORE TIMESTAMP PUSH1 0x84 DUP6 ADD DUP2 SWAP1 MSTORE PUSH1 0xA0 PUSH1 0x44 DUP7 ADD SWAP1 DUP2 MSTORE PUSH1 0x10 DUP1 SLOAD PUSH1 0xA4 DUP9 ADD DUP2 SWAP1 MSTORE PUSH1 0x1 PUSH1 0x1 PUSH1 0xA0 SHL SUB SWAP1 SWAP9 AND SWAP8 PUSH4 0x38ED1739 SWAP8 DUP11 SWAP8 SWAP3 SWAP6 SWAP5 SWAP4 SWAP2 PUSH1 0xC4 SWAP1 SWAP2 ADD SWAP1 DUP7 SWAP1 DUP1 ISZERO PUSH2 0x2A1A JUMPI PUSH1 0x20 MUL DUP3 ADD SWAP2 SWAP1 PUSH1 0x0 MSTORE PUSH1 0x20 PUSH1 0x0 KECCAK256 SWAP1 JUMPDEST DUP2 SLOAD PUSH1 0x1 PUSH1 0x1 PUSH1 0xA0 SHL SUB AND DUP2 MSTORE PUSH1 0x1 SWAP1 SWAP2 ADD SWAP1 PUSH1 0x20 ADD DUP1 DUP4 GT PUSH2 0x29FC JUMPI JUMPDEST POP POP SWAP7 POP POP POP POP POP POP POP PUSH1 0x0 PUSH1 0x40 MLOAD DUP1 DUP4 SUB DUP2 PUSH1 0x0 DUP8 DUP1 EXTCODESIZE ISZERO DUP1 ISZERO PUSH2 0x2A3E JUMPI PUSH1 0x0 DUP1 REVERT JUMPDEST POP GAS CALL ISZERO DUP1 ISZERO PUSH2 0x2A52 JUMPI RETURNDATASIZE PUSH1 0x0 DUP1 RETURNDATACOPY RETURNDATASIZE PUSH1 0x0 REVERT JUMPDEST POP POP POP POP PUSH1 0x40 MLOAD RETURNDATASIZE PUSH1 0x0 DUP3 RETURNDATACOPY PUSH1 0x1F RETURNDATASIZE SWAP1 DUP2 ADD PUSH1 0x1F NOT AND DUP3 ADD PUSH1 0x40 MSTORE PUSH1 0x20 DUP2 LT ISZERO PUSH2 0x2A7B JUMPI PUSH1 0x0 DUP1 REVERT JUMPDEST DUP2 ADD SWAP1 DUP1 DUP1 MLOAD PUSH1 0x40 MLOAD SWAP4 SWAP3 SWAP2 SWAP1 DUP5 PUSH1 0x1 PUSH1 0x20 SHL DUP3 GT ISZERO PUSH2 0x2A9A JUMPI PUSH1 0x0 DUP1 REVERT JUMPDEST SWAP1 DUP4 ADD SWAP1 PUSH1 0x20 DUP3 ADD DUP6 DUP2 GT ISZERO PUSH2 0x2AAF JUMPI PUSH1 0x0 DUP1 REVERT JUMPDEST DUP3 MLOAD DUP7 PUSH1 0x20 DUP3 MUL DUP4 ADD GT PUSH1 0x1 PUSH1 0x20 SHL DUP3 GT OR ISZERO PUSH2 0x2ACB JUMPI PUSH1 0x0 DUP1 REVERT JUMPDEST DUP3 MSTORE POP DUP2 MLOAD PUSH1 0x20 SWAP2 DUP3 ADD SWAP3 DUP3 ADD SWAP2 MUL DUP1 DUP4 DUP4 PUSH1 0x0 JUMPDEST DUP4 DUP2 LT ISZERO PUSH2 0x2AF8 JUMPI DUP2 DUP2 ADD MLOAD DUP4 DUP3 ADD MSTORE PUSH1 0x20 ADD PUSH2 0x2AE0 JUMP JUMPDEST POP POP POP POP SWAP1 POP ADD PUSH1 0x40 MSTORE POP POP POP POP JUMPDEST PUSH1 0x9 SLOAD PUSH1 0xD SLOAD PUSH1 0x1 PUSH1 0x1 PUSH1 0xA0 SHL SUB SWAP1 DUP2 AND SWAP2 AND EQ PUSH2 0x2CA6 JUMPI PUSH1 0x3 SLOAD PUSH1 0x40 MLOAD PUSH4 0x38ED1739 PUSH1 0xE0 SHL DUP2 MSTORE PUSH1 0x4 DUP2 ADD DUP4 DUP2 MSTORE PUSH1 0x0 PUSH1 0x24 DUP4 ADD DUP2 SWAP1 MSTORE ADDRESS PUSH1 0x64 DUP5 ADD DUP2 SWAP1 MSTORE TIMESTAMP PUSH1 0x84 DUP6 ADD DUP2 SWAP1 MSTORE PUSH1 0xA0 PUSH1 0x44 DUP7 ADD SWAP1 DUP2 MSTORE PUSH1 0x11 DUP1 SLOAD PUSH1 0xA4 DUP9 ADD DUP2 SWAP1 MSTORE PUSH1 0x1 PUSH1 0x1 PUSH1 0xA0 SHL SUB SWAP1 SWAP9 AND SWAP8 PUSH4 0x38ED1739 SWAP8 DUP11 SWAP8 SWAP3 SWAP6 SWAP5 SWAP4 SWAP2 PUSH1 0xC4 SWAP1 SWAP2 ADD SWAP1 DUP7 SWAP1 DUP1 ISZERO PUSH2 0x2BB9 JUMPI PUSH1 0x20 MUL DUP3 ADD SWAP2 SWAP1 PUSH1 0x0 MSTORE PUSH1 0x20 PUSH1 0x0 KECCAK256 SWAP1 JUMPDEST DUP2 SLOAD PUSH1 0x1 PUSH1 0x1 PUSH1 0xA0 SHL SUB AND DUP2 MSTORE PUSH1 0x1 SWAP1 SWAP2 ADD SWAP1 PUSH1 0x20 ADD DUP1 DUP4 GT PUSH2 0x2B9B JUMPI JUMPDEST POP POP SWAP7 POP POP POP POP POP POP POP PUSH1 0x0 PUSH1 0x40 MLOAD DUP1 DUP4 SUB DUP2 PUSH1 0x0 DUP8 DUP1 EXTCODESIZE ISZERO DUP1 ISZERO PUSH2 0x2BDD JUMPI PUSH1 0x0 DUP1 REVERT JUMPDEST POP GAS CALL ISZERO DUP1 ISZERO PUSH2 0x2BF1 JUMPI RETURNDATASIZE PUSH1 0x0 DUP1 RETURNDATACOPY RETURNDATASIZE PUSH1 0x0 REVERT JUMPDEST POP POP POP POP PUSH1 0x40 MLOAD RETURNDATASIZE PUSH1 0x0 DUP3 RETURNDATACOPY PUSH1 0x1F RETURNDATASIZE SWAP1 DUP2 ADD PUSH1 0x1F NOT AND DUP3 ADD PUSH1 0x40 MSTORE PUSH1 0x20 DUP2 LT ISZERO PUSH2 0x2C1A JUMPI PUSH1 0x0 DUP1 REVERT JUMPDEST DUP2 ADD SWAP1 DUP1 DUP1 MLOAD PUSH1 0x40 MLOAD SWAP4 SWAP3 SWAP2 SWAP1 DUP5 PUSH1 0x1 PUSH1 0x20 SHL DUP3 GT ISZERO PUSH2 0x2C39 JUMPI PUSH1 0x0 DUP1 REVERT JUMPDEST SWAP1 DUP4 ADD SWAP1 PUSH1 0x20 DUP3 ADD DUP6 DUP2 GT ISZERO PUSH2 0x2C4E JUMPI PUSH1 0x0 DUP1 REVERT JUMPDEST DUP3 MLOAD DUP7 PUSH1 0x20 DUP3 MUL DUP4 ADD GT PUSH1 0x1 PUSH1 0x20 SHL DUP3 GT OR ISZERO PUSH2 0x2C6A JUMPI PUSH1 0x0 DUP1 REVERT JUMPDEST DUP3 MSTORE POP DUP2 MLOAD PUSH1 0x20 SWAP2 DUP3 ADD SWAP3 DUP3 ADD SWAP2 MUL DUP1 DUP4 DUP4 PUSH1 0x0 JUMPDEST DUP4 DUP2 LT ISZERO PUSH2 0x2C97 JUMPI DUP2 DUP2 ADD MLOAD DUP4 DUP3 ADD MSTORE PUSH1 0x20 ADD PUSH2 0x2C7F JUMP JUMPDEST POP POP POP POP SWAP1 POP ADD PUSH1 0x40 MSTORE POP POP POP POP JUMPDEST PUSH1 0xC SLOAD PUSH1 0x40 DUP1 MLOAD PUSH4 0x70A08231 PUSH1 0xE0 SHL DUP2 MSTORE ADDRESS PUSH1 0x4 DUP3 ADD MSTORE SWAP1 MLOAD PUSH1 0x0 SWAP3 PUSH1 0x1 PUSH1 0x1 PUSH1 0xA0 SHL SUB AND SWAP2 PUSH4 0x70A08231 SWAP2 PUSH1 0x24 DUP1 DUP4 ADD SWAP3 PUSH1 0x20 SWAP3 SWAP2 SWAP1 DUP3 SWAP1 SUB ADD DUP2 DUP7 DUP1 EXTCODESIZE ISZERO DUP1 ISZERO PUSH2 0x2CF1 JUMPI PUSH1 0x0 DUP1 REVERT JUMPDEST POP GAS STATICCALL ISZERO DUP1 ISZERO PUSH2 0x2D05 JUMPI RETURNDATASIZE PUSH1 0x0 DUP1 RETURNDATACOPY RETURNDATASIZE PUSH1 0x0 REVERT JUMPDEST POP POP POP POP PUSH1 0x40 MLOAD RETURNDATASIZE PUSH1 0x20 DUP2 LT ISZERO PUSH2 0x2D1B JUMPI PUSH1 0x0 DUP1 REVERT JUMPDEST POP MLOAD PUSH1 0xD SLOAD PUSH1 0x40 DUP1 MLOAD PUSH4 0x70A08231 PUSH1 0xE0 SHL DUP2 MSTORE ADDRESS PUSH1 0x4 DUP3 ADD MSTORE SWAP1 MLOAD SWAP3 SWAP4 POP PUSH1 0x0 SWAP3 PUSH1 0x1 PUSH1 0x1 PUSH1 0xA0 SHL SUB SWAP1 SWAP3 AND SWAP2 PUSH4 0x70A08231 SWAP2 PUSH1 0x24 DUP1 DUP3 ADD SWAP3 PUSH1 0x20 SWAP3 SWAP1 SWAP2 SWAP1 DUP3 SWAP1 SUB ADD DUP2 DUP7 DUP1 EXTCODESIZE ISZERO DUP1 ISZERO PUSH2 0x2D6E JUMPI PUSH1 0x0 DUP1 REVERT JUMPDEST POP GAS STATICCALL ISZERO DUP1 ISZERO PUSH2 0x2D82 JUMPI RETURNDATASIZE PUSH1 0x0 DUP1 RETURNDATACOPY RETURNDATASIZE PUSH1 0x0 REVERT JUMPDEST POP POP POP POP PUSH1 0x40 MLOAD RETURNDATASIZE PUSH1 0x20 DUP2 LT ISZERO PUSH2 0x2D98 JUMPI PUSH1 0x0 DUP1 REVERT JUMPDEST POP MLOAD PUSH1 0x3 SLOAD PUSH1 0xC SLOAD PUSH1 0xD SLOAD PUSH1 0x40 DUP1 MLOAD PUSH3 0xE8E337 PUSH1 0xE8 SHL DUP2 MSTORE PUSH1 0x1 PUSH1 0x1 PUSH1 0xA0 SHL SUB SWAP4 DUP5 AND PUSH1 0x4 DUP3 ADD MSTORE SWAP2 DUP4 AND PUSH1 0x24 DUP4 ADD MSTORE PUSH1 0x44 DUP3 ADD DUP8 SWAP1 MSTORE PUSH1 0x64 DUP3 ADD DUP6 SWAP1 MSTORE PUSH1 0x1 PUSH1 0x84 DUP4 ADD DUP2 SWAP1 MSTORE PUSH1 0xA4 DUP4 ADD MSTORE ADDRESS PUSH1 0xC4 DUP4 ADD MSTORE TIMESTAMP PUSH1 0xE4 DUP4 ADD MSTORE MLOAD SWAP4 SWAP5 POP SWAP2 AND SWAP2 PUSH4 0xE8E33700 SWAP2 PUSH2 0x104 DUP1 DUP3 ADD SWAP3 PUSH1 0x60 SWAP3 SWAP1 SWAP2 SWAP1 DUP3 SWAP1 SUB ADD DUP2 PUSH1 0x0 DUP8 DUP1 EXTCODESIZE ISZERO DUP1 ISZERO PUSH2 0x2E20 JUMPI PUSH1 0x0 DUP1 REVERT JUMPDEST POP GAS CALL ISZERO DUP1 ISZERO PUSH2 0x2E34 JUMPI RETURNDATASIZE PUSH1 0x0 DUP1 RETURNDATACOPY RETURNDATASIZE PUSH1 0x0 REVERT JUMPDEST POP POP POP POP PUSH1 0x40 MLOAD RETURNDATASIZE PUSH1 0x60 DUP2 LT ISZERO PUSH2 0x2E4A JUMPI PUSH1 0x0 DUP1 REVERT JUMPDEST POP POP POP POP POP JUMP JUMPDEST EXTCODESIZE ISZERO ISZERO SWAP1 JUMP JUMPDEST PUSH1 0x60 DUP4 ISZERO PUSH2 0x2E66 JUMPI POP DUP2 PUSH2 0x1BF7 JUMP JUMPDEST DUP3 MLOAD ISZERO PUSH2 0x2E76 JUMPI DUP3 MLOAD DUP1 DUP5 PUSH1 0x20 ADD REVERT JUMPDEST DUP2 PUSH1 0x40 MLOAD PUSH3 0x461BCD PUSH1 0xE5 SHL DUP2 MSTORE PUSH1 0x4 ADD DUP1 DUP1 PUSH1 0x20 ADD DUP3 DUP2 SUB DUP3 MSTORE DUP4 DUP2 DUP2 MLOAD DUP2 MSTORE PUSH1 0x20 ADD SWAP2 POP DUP1 MLOAD SWAP1 PUSH1 0x20 ADD SWAP1 DUP1 DUP4 DUP4 PUSH1 0x0 JUMPDEST DUP4 DUP2 LT ISZERO PUSH2 0x2EC0 JUMPI DUP2 DUP2 ADD MLOAD DUP4 DUP3 ADD MSTORE PUSH1 0x20 ADD PUSH2 0x2EA8 JUMP JUMPDEST POP POP POP POP SWAP1 POP SWAP1 DUP2 ADD SWAP1 PUSH1 0x1F AND DUP1 ISZERO PUSH2 0x2EED JUMPI DUP1 DUP3 SUB DUP1 MLOAD PUSH1 0x1 DUP4 PUSH1 0x20 SUB PUSH2 0x100 EXP SUB NOT AND DUP2 MSTORE PUSH1 0x20 ADD SWAP2 POP JUMPDEST POP SWAP3 POP POP POP PUSH1 0x40 MLOAD DUP1 SWAP2 SUB SWAP1 REVERT INVALID 0x4F PUSH24 0x6E61626C653A206E6577206F776E65722069732074686520 PUSH27 0x65726F2061646472657373416464726573733A20696E7375666669 PUSH4 0x69656E74 KECCAK256 PUSH3 0x616C61 PUSH15 0x636520666F722063616C6C53616665 0x4D PUSH2 0x7468 GASPRICE KECCAK256 PUSH14 0x756C7469706C69636174696F6E20 PUSH16 0x766572666C6F774F776E61626C653A20 PUSH4 0x616C6C65 PUSH19 0x206973206E6F7420746865206F776E65725361 PUSH7 0x6545524332303A KECCAK256 GASLIMIT MSTORE NUMBER ORIGIN ADDRESS KECCAK256 PUSH16 0x7065726174696F6E20646964206E6F74 KECCAK256 PUSH20 0x7563636565645361666545524332303A20617070 PUSH19 0x6F76652066726F6D206E6F6E2D7A65726F2074 PUSH16 0x206E6F6E2D7A65726F20616C6C6F7761 PUSH15 0x6365A2646970667358221220E4885F 0x5E PUSH14 0xE40AAC112F8C239F2B6AD809FC5A 0x4F 0xB2 0xB9 0xCF 0xDB SDIV SELFBALANCE DUP4 PUSH1 0x60 0xD5 0xD5 SWAP14 PUSH5 0x736F6C6343 STOP MOD 0xC STOP CALLER PUSH15 0x6174697665546F4C7030526F757465 JUMPDEST PUSH13 0x6173745D20213D206C70546F6B PUSH6 0x6E3041646472 PUSH6 0x73733A20696E PUSH20 0x756666696369656E742062616C616E636520666F PUSH19 0x2063616C6C6E6174697665546F4C5031526F75 PUSH21 0x655B6C6173745D20213D206C70546F6B656E315361 PUSH7 0x6545524332303A KECCAK256 GASLIMIT MSTORE NUMBER ORIGIN ADDRESS KECCAK256 PUSH16 0x7065726174696F6E20646964206E6F74 KECCAK256 PUSH20 0x7563636565645361666545524332303A20617070 PUSH19 0x6F76652066726F6D206E6F6E2D7A65726F2074 PUSH16 0x206E6F6E2D7A65726F20616C6C6F7761 PUSH15 0x636500000000000000000000000000 "
		},
		"gasEstimates": {
			"creation": {
				"codeDepositCost": "2463600",
				"executionCost": "infinite",
				"totalCost": "infinite"
			},
			"external": {
				"MAX_CALL_FEE()": "311",
				"MAX_FEE()": "265",
				"STRATEGIST_FEE()": "309",
				"WITHDRAWAL_FEE_CAP()": "287",
				"WITHDRAWAL_MAX()": "311",
				"balanceOf()": "infinite",
				"balanceOfPool()": "infinite",
				"balanceOfWant()": "infinite",
				"beforeDeposit()": "infinite",
				"callFee()": "1110",
				"callReward()": "infinite",
				"deposit()": "infinite",
				"dragonsLair()": "353",
				"evolleFee()": "1130",
				"evolleFeeRecipient()": "1148",
				"harvest()": "infinite",
				"harvest(address)": "infinite",
				"harvestOnDeposit()": "1101",
				"keeper()": "1149",
				"lastHarvest()": "1087",
				"lpToken0()": "1149",
				"lpToken1()": "1106",
				"managerHarvest()": "infinite",
				"native()": "1106",
				"nativeToLp0()": "infinite",
				"nativeToLp0Route(uint256)": "2103",
				"nativeToLp1()": "infinite",
				"nativeToLp1Route(uint256)": "2037",
				"output()": "1148",
				"outputToNative()": "infinite",
				"outputToNativeRoute(uint256)": "2059",
				"owner()": "1127",
				"panic()": "infinite",
				"pause()": "infinite",
				"paused()": "1117",
				"renounceOwnership()": "infinite",
				"retireStrat()": "infinite",
				"rewardPool()": "1105",
				"rewardsAAvailable()": "infinite",
				"rewardsBAvailable()": "infinite",
				"setCallFee(uint256)": "42069",
				"setHarvestOnDeposit(bool)": "infinite",
				"setKeeper(address)": "22910",
				"setStrategist(address)": "22046",
				"setUnirouter(address)": "infinite",
				"setVault(address)": "infinite",
				"setWithdrawalFee(uint256)": "22053",
				"setevolleFeeRecipient(address)": "infinite",
				"strategist()": "1172",
				"transferOwnership(address)": "infinite",
				"unirouter()": "1106",
				"unpause()": "infinite",
				"vault()": "1147",
				"want()": "1150",
				"withdraw(uint256)": "infinite",
				"withdrawalFee()": "1111"
			},
			"internal": {
				"_giveAllowances()": "infinite",
				"_harvest(address)": "infinite",
				"_removeAllowances()": "infinite",
				"addLiquidity()": "infinite",
				"chargeFees(address)": "infinite"
			}
		},
		"methodIdentifiers": {
			"MAX_CALL_FEE()": "2ad5a53f",
			"MAX_FEE()": "bc063e1a",
			"STRATEGIST_FEE()": "7d38ca65",
			"WITHDRAWAL_FEE_CAP()": "dfbdc437",
			"WITHDRAWAL_MAX()": "54518b1a",
			"balanceOf()": "722713f7",
			"balanceOfPool()": "11588086",
			"balanceOfWant()": "c1a3d44c",
			"beforeDeposit()": "573fef0a",
			"callFee()": "90321e1a",
			"callReward()": "97fd323d",
			"deposit()": "d0e30db0",
			"dragonsLair()": "6013d5bf",
			"evolleFee()": "fc61568b",
			"evolleFeeRecipient()": "e0e4130b",
			"harvest()": "4641257d",
			"harvest(address)": "0e5c011e",
			"harvestOnDeposit()": "8912cb8b",
			"keeper()": "aced1661",
			"lastHarvest()": "f1a392da",
			"lpToken0()": "5ee167c0",
			"lpToken1()": "877562b6",
			"managerHarvest()": "d801d946",
			"native()": "11b0b42d",
			"nativeToLp0()": "ea82eb9e",
			"nativeToLp0Route(uint256)": "e270dbf3",
			"nativeToLp1()": "37bdd204",
			"nativeToLp1Route(uint256)": "dc4987cc",
			"output()": "f20eaeb8",
			"outputToNative()": "13e120b1",
			"outputToNativeRoute(uint256)": "be12a978",
			"owner()": "8da5cb5b",
			"panic()": "4700d305",
			"pause()": "8456cb59",
			"paused()": "5c975abb",
			"renounceOwnership()": "715018a6",
			"retireStrat()": "fb617787",
			"rewardPool()": "66666aa9",
			"rewardsAAvailable()": "8ce026e3",
			"rewardsBAvailable()": "3d79d334",
			"setCallFee(uint256)": "26465826",
			"setHarvestOnDeposit(bool)": "0e8fbb5a",
			"setKeeper(address)": "748747e6",
			"setStrategist(address)": "c7b9d530",
			"setUnirouter(address)": "d92f3d73",
			"setVault(address)": "6817031b",
			"setWithdrawalFee(uint256)": "ac1e5025",
			"setevolleFeeRecipient(address)": "ab6d7506",
			"strategist()": "1fe4a686",
			"transferOwnership(address)": "f2fde38b",
			"unirouter()": "257ae0de",
			"unpause()": "3f4ba83a",
			"vault()": "fbfa77cf",
			"want()": "1f1fcd51",
			"withdraw(uint256)": "2e1a7d4d",
			"withdrawalFee()": "8bc7e8c4"
		}
	},
	"abi": [
		{
			"inputs": [
				{
					"internalType": "address",
					"name": "_want",
					"type": "address"
				},
				{
					"internalType": "address",
					"name": "_rewardPool",
					"type": "address"
				},
				{
					"internalType": "address",
					"name": "_vault",
					"type": "address"
				},
				{
					"internalType": "address",
					"name": "_unirouter",
					"type": "address"
				},
				{
					"internalType": "address",
					"name": "_keeper",
					"type": "address"
				},
				{
					"internalType": "address",
					"name": "_strategist",
					"type": "address"
				},
				{
					"internalType": "address",
					"name": "_evolleFeeRecipient",
					"type": "address"
				},
				{
					"internalType": "address[]",
					"name": "_outputToNativeRoute",
					"type": "address[]"
				},
				{
					"internalType": "address[]",
					"name": "_nativeToLp0Route",
					"type": "address[]"
				},
				{
					"internalType": "address[]",
					"name": "_nativeToLp1Route",
					"type": "address[]"
				}
			],
			"stateMutability": "nonpayable",
			"type": "constructor"
		},
		{
			"anonymous": false,
			"inputs": [
				{
					"indexed": false,
					"internalType": "uint256",
					"name": "tvl",
					"type": "uint256"
				}
			],
			"name": "Deposit",
			"type": "event"
		},
		{
			"anonymous": false,
			"inputs": [
				{
					"indexed": true,
					"internalType": "address",
					"name": "previousOwner",
					"type": "address"
				},
				{
					"indexed": true,
					"internalType": "address",
					"name": "newOwner",
					"type": "address"
				}
			],
			"name": "OwnershipTransferred",
			"type": "event"
		},
		{
			"anonymous": false,
			"inputs": [
				{
					"indexed": false,
					"internalType": "address",
					"name": "account",
					"type": "address"
				}
			],
			"name": "Paused",
			"type": "event"
		},
		{
			"anonymous": false,
			"inputs": [
				{
					"indexed": true,
					"internalType": "address",
					"name": "harvester",
					"type": "address"
				},
				{
					"indexed": false,
					"internalType": "uint256",
					"name": "wantHarvested",
					"type": "uint256"
				},
				{
					"indexed": false,
					"internalType": "uint256",
					"name": "tvl",
					"type": "uint256"
				}
			],
			"name": "StratHarvest",
			"type": "event"
		},
		{
			"anonymous": false,
			"inputs": [
				{
					"indexed": false,
					"internalType": "address",
					"name": "account",
					"type": "address"
				}
			],
			"name": "Unpaused",
			"type": "event"
		},
		{
			"anonymous": false,
			"inputs": [
				{
					"indexed": false,
					"internalType": "uint256",
					"name": "tvl",
					"type": "uint256"
				}
			],
			"name": "Withdraw",
			"type": "event"
		},
		{
			"inputs": [],
			"name": "MAX_CALL_FEE",
			"outputs": [
				{
					"internalType": "uint256",
					"name": "",
					"type": "uint256"
				}
			],
			"stateMutability": "view",
			"type": "function"
		},
		{
			"inputs": [],
			"name": "MAX_FEE",
			"outputs": [
				{
					"internalType": "uint256",
					"name": "",
					"type": "uint256"
				}
			],
			"stateMutability": "view",
			"type": "function"
		},
		{
			"inputs": [],
			"name": "STRATEGIST_FEE",
			"outputs": [
				{
					"internalType": "uint256",
					"name": "",
					"type": "uint256"
				}
			],
			"stateMutability": "view",
			"type": "function"
		},
		{
			"inputs": [],
			"name": "WITHDRAWAL_FEE_CAP",
			"outputs": [
				{
					"internalType": "uint256",
					"name": "",
					"type": "uint256"
				}
			],
			"stateMutability": "view",
			"type": "function"
		},
		{
			"inputs": [],
			"name": "WITHDRAWAL_MAX",
			"outputs": [
				{
					"internalType": "uint256",
					"name": "",
					"type": "uint256"
				}
			],
			"stateMutability": "view",
			"type": "function"
		},
		{
			"inputs": [],
			"name": "balanceOf",
			"outputs": [
				{
					"internalType": "uint256",
					"name": "",
					"type": "uint256"
				}
			],
			"stateMutability": "view",
			"type": "function"
		},
		{
			"inputs": [],
			"name": "balanceOfPool",
			"outputs": [
				{
					"internalType": "uint256",
					"name": "",
					"type": "uint256"
				}
			],
			"stateMutability": "view",
			"type": "function"
		},
		{
			"inputs": [],
			"name": "balanceOfWant",
			"outputs": [
				{
					"internalType": "uint256",
					"name": "",
					"type": "uint256"
				}
			],
			"stateMutability": "view",
			"type": "function"
		},
		{
			"inputs": [],
			"name": "beforeDeposit",
			"outputs": [],
			"stateMutability": "nonpayable",
			"type": "function"
		},
		{
			"inputs": [],
			"name": "callFee",
			"outputs": [
				{
					"internalType": "uint256",
					"name": "",
					"type": "uint256"
				}
			],
			"stateMutability": "view",
			"type": "function"
		},
		{
			"inputs": [],
			"name": "callReward",
			"outputs": [
				{
					"internalType": "uint256",
					"name": "",
					"type": "uint256"
				}
			],
			"stateMutability": "view",
			"type": "function"
		},
		{
			"inputs": [],
			"name": "deposit",
			"outputs": [],
			"stateMutability": "nonpayable",
			"type": "function"
		},
		{
			"inputs": [],
			"name": "dragonsLair",
			"outputs": [
				{
					"internalType": "address",
					"name": "",
					"type": "address"
				}
			],
			"stateMutability": "view",
			"type": "function"
		},
		{
			"inputs": [],
			"name": "evolleFee",
			"outputs": [
				{
					"internalType": "uint256",
					"name": "",
					"type": "uint256"
				}
			],
			"stateMutability": "view",
			"type": "function"
		},
		{
			"inputs": [],
			"name": "evolleFeeRecipient",
			"outputs": [
				{
					"internalType": "address",
					"name": "",
					"type": "address"
				}
			],
			"stateMutability": "view",
			"type": "function"
		},
		{
			"inputs": [
				{
					"internalType": "address",
					"name": "callFeeRecipient",
					"type": "address"
				}
			],
			"name": "harvest",
			"outputs": [],
			"stateMutability": "nonpayable",
			"type": "function"
		},
		{
			"inputs": [],
			"name": "harvest",
			"outputs": [],
			"stateMutability": "nonpayable",
			"type": "function"
		},
		{
			"inputs": [],
			"name": "harvestOnDeposit",
			"outputs": [
				{
					"internalType": "bool",
					"name": "",
					"type": "bool"
				}
			],
			"stateMutability": "view",
			"type": "function"
		},
		{
			"inputs": [],
			"name": "keeper",
			"outputs": [
				{
					"internalType": "address",
					"name": "",
					"type": "address"
				}
			],
			"stateMutability": "view",
			"type": "function"
		},
		{
			"inputs": [],
			"name": "lastHarvest",
			"outputs": [
				{
					"internalType": "uint256",
					"name": "",
					"type": "uint256"
				}
			],
			"stateMutability": "view",
			"type": "function"
		},
		{
			"inputs": [],
			"name": "lpToken0",
			"outputs": [
				{
					"internalType": "address",
					"name": "",
					"type": "address"
				}
			],
			"stateMutability": "view",
			"type": "function"
		},
		{
			"inputs": [],
			"name": "lpToken1",
			"outputs": [
				{
					"internalType": "address",
					"name": "",
					"type": "address"
				}
			],
			"stateMutability": "view",
			"type": "function"
		},
		{
			"inputs": [],
			"name": "managerHarvest",
			"outputs": [],
			"stateMutability": "nonpayable",
			"type": "function"
		},
		{
			"inputs": [],
			"name": "native",
			"outputs": [
				{
					"internalType": "address",
					"name": "",
					"type": "address"
				}
			],
			"stateMutability": "view",
			"type": "function"
		},
		{
			"inputs": [],
			"name": "nativeToLp0",
			"outputs": [
				{
					"internalType": "address[]",
					"name": "",
					"type": "address[]"
				}
			],
			"stateMutability": "view",
			"type": "function"
		},
		{
			"inputs": [
				{
					"internalType": "uint256",
					"name": "",
					"type": "uint256"
				}
			],
			"name": "nativeToLp0Route",
			"outputs": [
				{
					"internalType": "address",
					"name": "",
					"type": "address"
				}
			],
			"stateMutability": "view",
			"type": "function"
		},
		{
			"inputs": [],
			"name": "nativeToLp1",
			"outputs": [
				{
					"internalType": "address[]",
					"name": "",
					"type": "address[]"
				}
			],
			"stateMutability": "view",
			"type": "function"
		},
		{
			"inputs": [
				{
					"internalType": "uint256",
					"name": "",
					"type": "uint256"
				}
			],
			"name": "nativeToLp1Route",
			"outputs": [
				{
					"internalType": "address",
					"name": "",
					"type": "address"
				}
			],
			"stateMutability": "view",
			"type": "function"
		},
		{
			"inputs": [],
			"name": "output",
			"outputs": [
				{
					"internalType": "address",
					"name": "",
					"type": "address"
				}
			],
			"stateMutability": "view",
			"type": "function"
		},
		{
			"inputs": [],
			"name": "outputToNative",
			"outputs": [
				{
					"internalType": "address[]",
					"name": "",
					"type": "address[]"
				}
			],
			"stateMutability": "view",
			"type": "function"
		},
		{
			"inputs": [
				{
					"internalType": "uint256",
					"name": "",
					"type": "uint256"
				}
			],
			"name": "outputToNativeRoute",
			"outputs": [
				{
					"internalType": "address",
					"name": "",
					"type": "address"
				}
			],
			"stateMutability": "view",
			"type": "function"
		},
		{
			"inputs": [],
			"name": "owner",
			"outputs": [
				{
					"internalType": "address",
					"name": "",
					"type": "address"
				}
			],
			"stateMutability": "view",
			"type": "function"
		},
		{
			"inputs": [],
			"name": "panic",
			"outputs": [],
			"stateMutability": "nonpayable",
			"type": "function"
		},
		{
			"inputs": [],
			"name": "pause",
			"outputs": [],
			"stateMutability": "nonpayable",
			"type": "function"
		},
		{
			"inputs": [],
			"name": "paused",
			"outputs": [
				{
					"internalType": "bool",
					"name": "",
					"type": "bool"
				}
			],
			"stateMutability": "view",
			"type": "function"
		},
		{
			"inputs": [],
			"name": "renounceOwnership",
			"outputs": [],
			"stateMutability": "nonpayable",
			"type": "function"
		},
		{
			"inputs": [],
			"name": "retireStrat",
			"outputs": [],
			"stateMutability": "nonpayable",
			"type": "function"
		},
		{
			"inputs": [],
			"name": "rewardPool",
			"outputs": [
				{
					"internalType": "address",
					"name": "",
					"type": "address"
				}
			],
			"stateMutability": "view",
			"type": "function"
		},
		{
			"inputs": [],
			"name": "rewardsAAvailable",
			"outputs": [
				{
					"internalType": "uint256",
					"name": "",
					"type": "uint256"
				}
			],
			"stateMutability": "view",
			"type": "function"
		},
		{
			"inputs": [],
			"name": "rewardsBAvailable",
			"outputs": [
				{
					"internalType": "uint256",
					"name": "",
					"type": "uint256"
				}
			],
			"stateMutability": "view",
			"type": "function"
		},
		{
			"inputs": [
				{
					"internalType": "uint256",
					"name": "_fee",
					"type": "uint256"
				}
			],
			"name": "setCallFee",
			"outputs": [],
			"stateMutability": "nonpayable",
			"type": "function"
		},
		{
			"inputs": [
				{
					"internalType": "bool",
					"name": "_harvestOnDeposit",
					"type": "bool"
				}
			],
			"name": "setHarvestOnDeposit",
			"outputs": [],
			"stateMutability": "nonpayable",
			"type": "function"
		},
		{
			"inputs": [
				{
					"internalType": "address",
					"name": "_keeper",
					"type": "address"
				}
			],
			"name": "setKeeper",
			"outputs": [],
			"stateMutability": "nonpayable",
			"type": "function"
		},
		{
			"inputs": [
				{
					"internalType": "address",
					"name": "_strategist",
					"type": "address"
				}
			],
			"name": "setStrategist",
			"outputs": [],
			"stateMutability": "nonpayable",
			"type": "function"
		},
		{
			"inputs": [
				{
					"internalType": "address",
					"name": "_unirouter",
					"type": "address"
				}
			],
			"name": "setUnirouter",
			"outputs": [],
			"stateMutability": "nonpayable",
			"type": "function"
		},
		{
			"inputs": [
				{
					"internalType": "address",
					"name": "_vault",
					"type": "address"
				}
			],
			"name": "setVault",
			"outputs": [],
			"stateMutability": "nonpayable",
			"type": "function"
		},
		{
			"inputs": [
				{
					"internalType": "uint256",
					"name": "_fee",
					"type": "uint256"
				}
			],
			"name": "setWithdrawalFee",
			"outputs": [],
			"stateMutability": "nonpayable",
			"type": "function"
		},
		{
			"inputs": [
				{
					"internalType": "address",
					"name": "_evolleFeeRecipient",
					"type": "address"
				}
			],
			"name": "setevolleFeeRecipient",
			"outputs": [],
			"stateMutability": "nonpayable",
			"type": "function"
		},
		{
			"inputs": [],
			"name": "strategist",
			"outputs": [
				{
					"internalType": "address",
					"name": "",
					"type": "address"
				}
			],
			"stateMutability": "view",
			"type": "function"
		},
		{
			"inputs": [
				{
					"internalType": "address",
					"name": "newOwner",
					"type": "address"
				}
			],
			"name": "transferOwnership",
			"outputs": [],
			"stateMutability": "nonpayable",
			"type": "function"
		},
		{
			"inputs": [],
			"name": "unirouter",
			"outputs": [
				{
					"internalType": "address",
					"name": "",
					"type": "address"
				}
			],
			"stateMutability": "view",
			"type": "function"
		},
		{
			"inputs": [],
			"name": "unpause",
			"outputs": [],
			"stateMutability": "nonpayable",
			"type": "function"
		},
		{
			"inputs": [],
			"name": "vault",
			"outputs": [
				{
					"internalType": "address",
					"name": "",
					"type": "address"
				}
			],
			"stateMutability": "view",
			"type": "function"
		},
		{
			"inputs": [],
			"name": "want",
			"outputs": [
				{
					"internalType": "address",
					"name": "",
					"type": "address"
				}
			],
			"stateMutability": "view",
			"type": "function"
		},
		{
			"inputs": [
				{
					"internalType": "uint256",
					"name": "_amount",
					"type": "uint256"
				}
			],
			"name": "withdraw",
			"outputs": [],
			"stateMutability": "nonpayable",
			"type": "function"
		},
		{
			"inputs": [],
			"name": "withdrawalFee",
			"outputs": [
				{
					"internalType": "uint256",
					"name": "",
					"type": "uint256"
				}
			],
			"stateMutability": "view",
			"type": "function"
		}
	]
}