{
	"strategies/StrategyMiniChefLP.sol": {
		"StrategyMiniChef": {
			"abi": [
				{
					"inputs": [
						{
							"internalType": "address",
							"name": "_want",
							"type": "address"
						},
						{
							"internalType": "uint256",
							"name": "_poolId",
							"type": "uint256"
						},
						{
							"internalType": "address",
							"name": "_chef",
							"type": "address"
						},
						{
							"internalType": "address",
							"name": "_vault",
							"type": "address"
						},
						{
							"internalType": "address",
							"name": "_unirouter",
							"type": "address"
						},
						{
							"internalType": "address",
							"name": "_keeper",
							"type": "address"
						},
						{
							"internalType": "address",
							"name": "_strategist",
							"type": "address"
						},
						{
							"internalType": "address",
							"name": "_evolleFeeRecipient",
							"type": "address"
						},
						{
							"internalType": "address[]",
							"name": "_outputToNativeRoute",
							"type": "address[]"
						},
						{
							"internalType": "address[]",
							"name": "_outputToLp0Route",
							"type": "address[]"
						},
						{
							"internalType": "address[]",
							"name": "_outputToLp1Route",
							"type": "address[]"
						}
					],
					"stateMutability": "nonpayable",
					"type": "constructor"
				},
				{
					"anonymous": false,
					"inputs": [
						{
							"indexed": true,
							"internalType": "address",
							"name": "previousOwner",
							"type": "address"
						},
						{
							"indexed": true,
							"internalType": "address",
							"name": "newOwner",
							"type": "address"
						}
					],
					"name": "OwnershipTransferred",
					"type": "event"
				},
				{
					"anonymous": false,
					"inputs": [
						{
							"indexed": false,
							"internalType": "address",
							"name": "account",
							"type": "address"
						}
					],
					"name": "Paused",
					"type": "event"
				},
				{
					"anonymous": false,
					"inputs": [
						{
							"indexed": true,
							"internalType": "address",
							"name": "harvester",
							"type": "address"
						}
					],
					"name": "StratHarvest",
					"type": "event"
				},
				{
					"anonymous": false,
					"inputs": [
						{
							"indexed": false,
							"internalType": "address",
							"name": "account",
							"type": "address"
						}
					],
					"name": "Unpaused",
					"type": "event"
				},
				{
					"inputs": [],
					"name": "MAX_CALL_FEE",
					"outputs": [
						{
							"internalType": "uint256",
							"name": "",
							"type": "uint256"
						}
					],
					"stateMutability": "view",
					"type": "function"
				},
				{
					"inputs": [],
					"name": "MAX_FEE",
					"outputs": [
						{
							"internalType": "uint256",
							"name": "",
							"type": "uint256"
						}
					],
					"stateMutability": "view",
					"type": "function"
				},
				{
					"inputs": [],
					"name": "STRATEGIST_FEE",
					"outputs": [
						{
							"internalType": "uint256",
							"name": "",
							"type": "uint256"
						}
					],
					"stateMutability": "view",
					"type": "function"
				},
				{
					"inputs": [],
					"name": "WITHDRAWAL_FEE_CAP",
					"outputs": [
						{
							"internalType": "uint256",
							"name": "",
							"type": "uint256"
						}
					],
					"stateMutability": "view",
					"type": "function"
				},
				{
					"inputs": [],
					"name": "WITHDRAWAL_MAX",
					"outputs": [
						{
							"internalType": "uint256",
							"name": "",
							"type": "uint256"
						}
					],
					"stateMutability": "view",
					"type": "function"
				},
				{
					"inputs": [],
					"name": "balanceOf",
					"outputs": [
						{
							"internalType": "uint256",
							"name": "",
							"type": "uint256"
						}
					],
					"stateMutability": "view",
					"type": "function"
				},
				{
					"inputs": [],
					"name": "balanceOfPool",
					"outputs": [
						{
							"internalType": "uint256",
							"name": "",
							"type": "uint256"
						}
					],
					"stateMutability": "view",
					"type": "function"
				},
				{
					"inputs": [],
					"name": "balanceOfWant",
					"outputs": [
						{
							"internalType": "uint256",
							"name": "",
							"type": "uint256"
						}
					],
					"stateMutability": "view",
					"type": "function"
				},
				{
					"inputs": [],
					"name": "beforeDeposit",
					"outputs": [],
					"stateMutability": "nonpayable",
					"type": "function"
				},
				{
					"inputs": [],
					"name": "callFee",
					"outputs": [
						{
							"internalType": "uint256",
							"name": "",
							"type": "uint256"
						}
					],
					"stateMutability": "view",
					"type": "function"
				},
				{
					"inputs": [],
					"name": "chef",
					"outputs": [
						{
							"internalType": "address",
							"name": "",
							"type": "address"
						}
					],
					"stateMutability": "view",
					"type": "function"
				},
				{
					"inputs": [],
					"name": "deposit",
					"outputs": [],
					"stateMutability": "nonpayable",
					"type": "function"
				},
				{
					"inputs": [],
					"name": "evolleFee",
					"outputs": [
						{
							"internalType": "uint256",
							"name": "",
							"type": "uint256"
						}
					],
					"stateMutability": "view",
					"type": "function"
				},
				{
					"inputs": [],
					"name": "evolleFeeRecipient",
					"outputs": [
						{
							"internalType": "address",
							"name": "",
							"type": "address"
						}
					],
					"stateMutability": "view",
					"type": "function"
				},
				{
					"inputs": [],
					"name": "harvest",
					"outputs": [],
					"stateMutability": "nonpayable",
					"type": "function"
				},
				{
					"inputs": [],
					"name": "keeper",
					"outputs": [
						{
							"internalType": "address",
							"name": "",
							"type": "address"
						}
					],
					"stateMutability": "view",
					"type": "function"
				},
				{
					"inputs": [],
					"name": "lpToken0",
					"outputs": [
						{
							"internalType": "address",
							"name": "",
							"type": "address"
						}
					],
					"stateMutability": "view",
					"type": "function"
				},
				{
					"inputs": [],
					"name": "lpToken1",
					"outputs": [
						{
							"internalType": "address",
							"name": "",
							"type": "address"
						}
					],
					"stateMutability": "view",
					"type": "function"
				},
				{
					"inputs": [],
					"name": "native",
					"outputs": [
						{
							"internalType": "address",
							"name": "",
							"type": "address"
						}
					],
					"stateMutability": "view",
					"type": "function"
				},
				{
					"inputs": [
						{
							"internalType": "uint256",
							"name": "",
							"type": "uint256"
						}
					],
					"name": "nativeToOutputRoute",
					"outputs": [
						{
							"internalType": "address",
							"name": "",
							"type": "address"
						}
					],
					"stateMutability": "view",
					"type": "function"
				},
				{
					"inputs": [],
					"name": "output",
					"outputs": [
						{
							"internalType": "address",
							"name": "",
							"type": "address"
						}
					],
					"stateMutability": "view",
					"type": "function"
				},
				{
					"inputs": [
						{
							"internalType": "uint256",
							"name": "",
							"type": "uint256"
						}
					],
					"name": "outputToLp0Route",
					"outputs": [
						{
							"internalType": "address",
							"name": "",
							"type": "address"
						}
					],
					"stateMutability": "view",
					"type": "function"
				},
				{
					"inputs": [
						{
							"internalType": "uint256",
							"name": "",
							"type": "uint256"
						}
					],
					"name": "outputToLp1Route",
					"outputs": [
						{
							"internalType": "address",
							"name": "",
							"type": "address"
						}
					],
					"stateMutability": "view",
					"type": "function"
				},
				{
					"inputs": [
						{
							"internalType": "uint256",
							"name": "",
							"type": "uint256"
						}
					],
					"name": "outputToNativeRoute",
					"outputs": [
						{
							"internalType": "address",
							"name": "",
							"type": "address"
						}
					],
					"stateMutability": "view",
					"type": "function"
				},
				{
					"inputs": [],
					"name": "owner",
					"outputs": [
						{
							"internalType": "address",
							"name": "",
							"type": "address"
						}
					],
					"stateMutability": "view",
					"type": "function"
				},
				{
					"inputs": [],
					"name": "panic",
					"outputs": [],
					"stateMutability": "nonpayable",
					"type": "function"
				},
				{
					"inputs": [],
					"name": "pause",
					"outputs": [],
					"stateMutability": "nonpayable",
					"type": "function"
				},
				{
					"inputs": [],
					"name": "paused",
					"outputs": [
						{
							"internalType": "bool",
							"name": "",
							"type": "bool"
						}
					],
					"stateMutability": "view",
					"type": "function"
				},
				{
					"inputs": [],
					"name": "poolId",
					"outputs": [
						{
							"internalType": "uint256",
							"name": "",
							"type": "uint256"
						}
					],
					"stateMutability": "view",
					"type": "function"
				},
				{
					"inputs": [],
					"name": "renounceOwnership",
					"outputs": [],
					"stateMutability": "nonpayable",
					"type": "function"
				},
				{
					"inputs": [],
					"name": "retireStrat",
					"outputs": [],
					"stateMutability": "nonpayable",
					"type": "function"
				},
				{
					"inputs": [
						{
							"internalType": "uint256",
							"name": "_fee",
							"type": "uint256"
						}
					],
					"name": "setCallFee",
					"outputs": [],
					"stateMutability": "nonpayable",
					"type": "function"
				},
				{
					"inputs": [
						{
							"internalType": "address",
							"name": "_evolleFeeRecipient",
							"type": "address"
						}
					],
					"name": "setEvolleFeeRecipient",
					"outputs": [],
					"stateMutability": "nonpayable",
					"type": "function"
				},
				{
					"inputs": [
						{
							"internalType": "address",
							"name": "_keeper",
							"type": "address"
						}
					],
					"name": "setKeeper",
					"outputs": [],
					"stateMutability": "nonpayable",
					"type": "function"
				},
				{
					"inputs": [
						{
							"internalType": "address",
							"name": "_strategist",
							"type": "address"
						}
					],
					"name": "setStrategist",
					"outputs": [],
					"stateMutability": "nonpayable",
					"type": "function"
				},
				{
					"inputs": [
						{
							"internalType": "address",
							"name": "_unirouter",
							"type": "address"
						}
					],
					"name": "setUnirouter",
					"outputs": [],
					"stateMutability": "nonpayable",
					"type": "function"
				},
				{
					"inputs": [
						{
							"internalType": "address",
							"name": "_vault",
							"type": "address"
						}
					],
					"name": "setVault",
					"outputs": [],
					"stateMutability": "nonpayable",
					"type": "function"
				},
				{
					"inputs": [
						{
							"internalType": "uint256",
							"name": "_fee",
							"type": "uint256"
						}
					],
					"name": "setWithdrawalFee",
					"outputs": [],
					"stateMutability": "nonpayable",
					"type": "function"
				},
				{
					"inputs": [],
					"name": "strategist",
					"outputs": [
						{
							"internalType": "address",
							"name": "",
							"type": "address"
						}
					],
					"stateMutability": "view",
					"type": "function"
				},
				{
					"inputs": [
						{
							"internalType": "address",
							"name": "newOwner",
							"type": "address"
						}
					],
					"name": "transferOwnership",
					"outputs": [],
					"stateMutability": "nonpayable",
					"type": "function"
				},
				{
					"inputs": [],
					"name": "unirouter",
					"outputs": [
						{
							"internalType": "address",
							"name": "",
							"type": "address"
						}
					],
					"stateMutability": "view",
					"type": "function"
				},
				{
					"inputs": [],
					"name": "unpause",
					"outputs": [],
					"stateMutability": "nonpayable",
					"type": "function"
				},
				{
					"inputs": [],
					"name": "vault",
					"outputs": [
						{
							"internalType": "address",
							"name": "",
							"type": "address"
						}
					],
					"stateMutability": "view",
					"type": "function"
				},
				{
					"inputs": [],
					"name": "want",
					"outputs": [
						{
							"internalType": "address",
							"name": "",
							"type": "address"
						}
					],
					"stateMutability": "view",
					"type": "function"
				},
				{
					"inputs": [
						{
							"internalType": "uint256",
							"name": "_amount",
							"type": "uint256"
						}
					],
					"name": "withdraw",
					"outputs": [],
					"stateMutability": "nonpayable",
					"type": "function"
				},
				{
					"inputs": [],
					"name": "withdrawalFee",
					"outputs": [
						{
							"internalType": "uint256",
							"name": "",
							"type": "uint256"
						}
					],
					"stateMutability": "view",
					"type": "function"
				}
			],
			"devdoc": {
				"events": {
					"StratHarvest(address)": {
						"details": "Event that is fired each time someone harvests the strat."
					}
				},
				"kind": "dev",
				"methods": {
					"beforeDeposit()": {
						"details": "Function to synchronize balances before new user deposit. Can be overridden in the strategy."
					},
					"owner()": {
						"details": "Returns the address of the current owner."
					},
					"paused()": {
						"details": "Returns true if the contract is paused, and false otherwise."
					},
					"renounceOwnership()": {
						"details": "Leaves the contract without owner. It will not be possible to call `onlyOwner` functions anymore. Can only be called by the current owner. NOTE: Renouncing ownership will leave the contract without an owner, thereby removing any functionality that is only available to the owner."
					},
					"setKeeper(address)": {
						"details": "Updates address of the strat keeper.",
						"params": {
							"_keeper": "new keeper address."
						}
					},
					"setStrategist(address)": {
						"details": "Updates address where strategist fee earnings will go.",
						"params": {
							"_strategist": "new strategist address."
						}
					},
					"setUnirouter(address)": {
						"details": "Updates router that will be used for swaps.",
						"params": {
							"_unirouter": "new unirouter address."
						}
					},
					"setVault(address)": {
						"details": "Updates parent vault.",
						"params": {
							"_vault": "new vault address."
						}
					},
					"transferOwnership(address)": {
						"details": "Transfers ownership of the contract to a new account (`newOwner`). Can only be called by the current owner."
					}
				},
				"version": 1
			},
			"evm": {
				"assembly": "    /* \"strategies/StrategyMiniChefLP.sol\":43044:50634  contract StrategyMiniChef is StratManager, FeeManager {... */\n  mstore(0x40, 0x80)\n    /* \"strategies/StrategyMiniChefLP.sol\":42554:42556  10 */\n  0x0a\n    /* \"strategies/StrategyMiniChefLP.sol\":42526:42556  uint public withdrawalFee = 10 */\n  0x06\n  sstore\n    /* \"strategies/StrategyMiniChefLP.sol\":42585:42588  111 */\n  0x6f\n    /* \"strategies/StrategyMiniChefLP.sol\":42563:42588  uint public callFee = 111 */\n  0x07\n  sstore\n    /* \"strategies/StrategyMiniChefLP.sol\":42618:42652  MAX_FEE - STRATEGIST_FEE - callFee */\n  0x0379\n    /* \"strategies/StrategyMiniChefLP.sol\":42594:42652  uint public evolleFee = MAX_FEE - STRATEGIST_FEE - callFee */\n  0x08\n  sstore\n    /* \"strategies/StrategyMiniChefLP.sol\":43723:45245  constructor(... */\n  callvalue\n  dup1\n  iszero\n  tag_1\n  jumpi\n  0x00\n  dup1\n  revert\ntag_1:\n  pop\n  mload(0x40)\n  sub(codesize, bytecodeSize)\n  dup1\n  bytecodeSize\n  dup4\n  codecopy\n  dup2\n  dup2\n  add\n  0x40\n  mstore\n  0x0160\n  dup2\n  lt\n  iszero\n  tag_2\n  jumpi\n  0x00\n  dup1\n  revert\ntag_2:\n  dup2\n  mload\n  0x20\n  dup4\n  add\n  mload\n  0x40\n  dup1\n  dup6\n  add\n  mload\n  0x60\n  dup7\n  add\n  mload\n  0x80\n  dup8\n  add\n  mload\n  0xa0\n  dup9\n  add\n  mload\n  0xc0\n  dup10\n  add\n  mload\n  0xe0\n  dup11\n  add\n  mload\n  0x0100\n  dup12\n  add\n  dup1\n  mload\n  swap8\n  mload\n  swap10\n  swap12\n  swap9\n  swap11\n  swap7\n  swap10\n  swap6\n  swap9\n  swap5\n  swap8\n  swap4\n  swap7\n  swap3\n  swap6\n  swap2\n  swap5\n  swap2\n  swap4\n  swap3\n  dup3\n  add\n  swap3\n  dup5\n  0x0100000000\n  dup3\n  gt\n  iszero\n  tag_3\n  jumpi\n  0x00\n  dup1\n  revert\ntag_3:\n  swap1\n  dup4\n  add\n  swap1\n  0x20\n  dup3\n  add\n  dup6\n  dup2\n  gt\n  iszero\n  tag_4\n  jumpi\n  0x00\n  dup1\n  revert\ntag_4:\n  dup3\n  mload\n  dup7\n  0x20\n  dup3\n  mul\n  dup4\n  add\n  gt\n  0x0100000000\n  dup3\n  gt\n  or\n  iszero\n  tag_5\n  jumpi\n  0x00\n  dup1\n  revert\ntag_5:\n  dup3\n  mstore\n  pop\n  dup2\n  mload\n  0x20\n  swap2\n  dup3\n  add\n  swap3\n  dup3\n  add\n  swap2\n  mul\n  dup1\n  dup4\n  dup4\n  0x00\ntag_6:\n  dup4\n  dup2\n  lt\n  iszero\n  tag_8\n  jumpi\n  dup2\n  dup2\n  add\n  mload\n  dup4\n  dup3\n  add\n  mstore\n  0x20\n  add\n  jump(tag_6)\ntag_8:\n  pop\n  pop\n  pop\n  pop\n  swap1\n  pop\n  add\n  0x40\n  mstore\n  0x20\n  add\n  dup1\n  mload\n  mload(0x40)\n  swap4\n  swap3\n  swap2\n  swap1\n  dup5\n  0x0100000000\n  dup3\n  gt\n  iszero\n  tag_9\n  jumpi\n  0x00\n  dup1\n  revert\ntag_9:\n  swap1\n  dup4\n  add\n  swap1\n  0x20\n  dup3\n  add\n  dup6\n  dup2\n  gt\n  iszero\n  tag_10\n  jumpi\n  0x00\n  dup1\n  revert\ntag_10:\n  dup3\n  mload\n  dup7\n  0x20\n  dup3\n  mul\n  dup4\n  add\n  gt\n  0x0100000000\n  dup3\n  gt\n  or\n  iszero\n  tag_11\n  jumpi\n  0x00\n  dup1\n  revert\ntag_11:\n  dup3\n  mstore\n  pop\n  dup2\n  mload\n  0x20\n  swap2\n  dup3\n  add\n  swap3\n  dup3\n  add\n  swap2\n  mul\n  dup1\n  dup4\n  dup4\n  0x00\ntag_12:\n  dup4\n  dup2\n  lt\n  iszero\n  tag_14\n  jumpi\n  dup2\n  dup2\n  add\n  mload\n  dup4\n  dup3\n  add\n  mstore\n  0x20\n  add\n  jump(tag_12)\ntag_14:\n  pop\n  pop\n  pop\n  pop\n  swap1\n  pop\n  add\n  0x40\n  mstore\n  0x20\n  add\n  dup1\n  mload\n  mload(0x40)\n  swap4\n  swap3\n  swap2\n  swap1\n  dup5\n  0x0100000000\n  dup3\n  gt\n  iszero\n  tag_15\n  jumpi\n  0x00\n  dup1\n  revert\ntag_15:\n  swap1\n  dup4\n  add\n  swap1\n  0x20\n  dup3\n  add\n  dup6\n  dup2\n  gt\n  iszero\n  tag_16\n  jumpi\n  0x00\n  dup1\n  revert\ntag_16:\n  dup3\n  mload\n  dup7\n  0x20\n  dup3\n  mul\n  dup4\n  add\n  gt\n  0x0100000000\n  dup3\n  gt\n  or\n  iszero\n  tag_17\n  jumpi\n  0x00\n  dup1\n  revert\ntag_17:\n  dup3\n  mstore\n  pop\n  dup2\n  mload\n  0x20\n  swap2\n  dup3\n  add\n  swap3\n  dup3\n  add\n  swap2\n  mul\n  dup1\n  dup4\n  dup4\n  0x00\ntag_18:\n  dup4\n  dup2\n  lt\n  iszero\n  tag_20\n  jumpi\n  dup2\n  dup2\n  add\n  mload\n  dup4\n  dup3\n  add\n  mstore\n  0x20\n  add\n  jump(tag_18)\ntag_20:\n  pop\n  pop\n  pop\n  pop\n  swap1\n  pop\n  add\n  0x40\n  mstore\n  pop\n  pop\n  pop\n    /* \"strategies/StrategyMiniChefLP.sol\":44103:44110  _keeper */\n  dup6\n    /* \"strategies/StrategyMiniChefLP.sol\":44112:44123  _strategist */\n  dup6\n    /* \"strategies/StrategyMiniChefLP.sol\":44125:44135  _unirouter */\n  dup9\n    /* \"strategies/StrategyMiniChefLP.sol\":44137:44143  _vault */\n  dup11\n    /* \"strategies/StrategyMiniChefLP.sol\":44145:44164  _evolleFeeRecipient */\n  dup8\n    /* \"strategies/StrategyMiniChefLP.sol\":36530:36547  address msgSender */\n  0x00\n    /* \"strategies/StrategyMiniChefLP.sol\":36550:36562  _msgSender() */\n  tag_26\n    /* \"strategies/StrategyMiniChefLP.sol\":36550:36560  _msgSender */\n  shl(0x20, tag_27)\n    /* \"strategies/StrategyMiniChefLP.sol\":36550:36562  _msgSender() */\n  0x20\n  shr\n  jump\t// in\ntag_26:\n    /* \"strategies/StrategyMiniChefLP.sol\":36572:36578  _owner */\n  0x00\n    /* \"strategies/StrategyMiniChefLP.sol\":36572:36590  _owner = msgSender */\n  dup1\n  sload\n  not(sub(shl(0xa0, 0x01), 0x01))\n  and\n  sub(shl(0xa0, 0x01), 0x01)\n  dup4\n  and\n  swap1\n  dup2\n  or\n  dup3\n  sstore\n    /* \"strategies/StrategyMiniChefLP.sol\":36605:36648  OwnershipTransferred(address(0), msgSender) */\n  mload(0x40)\n    /* \"strategies/StrategyMiniChefLP.sol\":36572:36590  _owner = msgSender */\n  swap3\n  swap4\n  pop\n  swap2\n    /* \"strategies/StrategyMiniChefLP.sol\":36605:36648  OwnershipTransferred(address(0), msgSender) */\n  0x8be0079c531659141344cd1fd0a4f28419497f9722a3daafe3b4186f6b6457e0\n  swap1\n    /* \"strategies/StrategyMiniChefLP.sol\":36572:36578  _owner */\n  dup3\n  swap1\n    /* \"strategies/StrategyMiniChefLP.sol\":36605:36648  OwnershipTransferred(address(0), msgSender) */\n  log3\n  pop\n    /* \"strategies/StrategyMiniChefLP.sol\":38849:38854  false */\n  0x00\n    /* \"strategies/StrategyMiniChefLP.sol\":38839:38854  _paused = false */\n  dup1\n  sload\n  not(shl(0xa0, 0xff))\n  and\n  swap1\n  sstore\n  0x01\n    /* \"strategies/StrategyMiniChefLP.sol\":40507:40523  keeper = _keeper */\n  dup1\n  sload\n  not(sub(shl(0xa0, 0x01), 0x01))\n  swap1\n  dup2\n  and\n  sub(shl(0xa0, 0x01), 0x01)\n  swap8\n  dup9\n  and\n  or\n  swap1\n  swap2\n  sstore\n    /* \"strategies/StrategyMiniChefLP.sol\":40533:40543  strategist */\n  0x02\n    /* \"strategies/StrategyMiniChefLP.sol\":40533:40557  strategist = _strategist */\n  dup1\n  sload\n  dup3\n  and\n  swap6\n  dup8\n  and\n  swap6\n  swap1\n  swap6\n  or\n  dup6\n  sstore\n    /* \"strategies/StrategyMiniChefLP.sol\":40567:40576  unirouter */\n  0x03\n    /* \"strategies/StrategyMiniChefLP.sol\":40567:40589  unirouter = _unirouter */\n  dup1\n  sload\n  dup3\n  and\n  swap5\n  dup8\n  and\n  swap5\n  swap1\n  swap5\n  or\n  swap1\n  swap4\n  sstore\n    /* \"strategies/StrategyMiniChefLP.sol\":40599:40604  vault */\n  0x04\n    /* \"strategies/StrategyMiniChefLP.sol\":40599:40613  vault = _vault */\n  dup1\n  sload\n  dup5\n  and\n  swap3\n  dup7\n  and\n  swap3\n  swap1\n  swap3\n  or\n  swap1\n  swap2\n  sstore\n    /* \"strategies/StrategyMiniChefLP.sol\":40623:40641  evolleFeeRecipient */\n  0x05\n    /* \"strategies/StrategyMiniChefLP.sol\":40623:40663  evolleFeeRecipient = _evolleFeeRecipient */\n  dup1\n  sload\n  dup4\n  and\n  swap2\n  dup6\n  and\n  swap2\n  swap1\n  swap2\n  or\n  swap1\n  sstore\n    /* \"strategies/StrategyMiniChefLP.sol\":44183:44187  want */\n  0x0b\n    /* \"strategies/StrategyMiniChefLP.sol\":44183:44195  want = _want */\n  dup1\n  sload\n  dup3\n  and\n  dup16\n  dup6\n  and\n  or\n  swap1\n  sstore\n    /* \"strategies/StrategyMiniChefLP.sol\":44205:44211  poolId */\n  0x0f\n    /* \"strategies/StrategyMiniChefLP.sol\":44205:44221  poolId = _poolId */\n  dup14\n  swap1\n  sstore\n    /* \"strategies/StrategyMiniChefLP.sol\":44231:44235  chef */\n  0x0e\n    /* \"strategies/StrategyMiniChefLP.sol\":44231:44243  chef = _chef */\n  dup1\n  sload\n  swap1\n  swap2\n  and\n  swap3\n  dup13\n  and\n  swap3\n  swap1\n  swap3\n  or\n  swap1\n  swap2\n  sstore\n    /* \"strategies/StrategyMiniChefLP.sol\":44262:44289  _outputToNativeRoute.length */\n  dup4\n  mload\n    /* \"strategies/StrategyMiniChefLP.sol\":44262:44294  _outputToNativeRoute.length >= 2 */\n  lt\n  iszero\n    /* \"strategies/StrategyMiniChefLP.sol\":44254:44295  require(_outputToNativeRoute.length >= 2) */\n  tag_31\n  jumpi\n  0x00\n  dup1\n  revert\ntag_31:\n    /* \"strategies/StrategyMiniChefLP.sol\":44314:44334  _outputToNativeRoute */\n  dup3\n    /* \"strategies/StrategyMiniChefLP.sol\":44335:44336  0 */\n  0x00\n    /* \"strategies/StrategyMiniChefLP.sol\":44314:44337  _outputToNativeRoute[0] */\n  dup2\n  mload\n  dup2\n  lt\n  tag_32\n  jumpi\n  invalid\ntag_32:\n  0x20\n  mul\n  0x20\n  add\n  add\n  mload\n    /* \"strategies/StrategyMiniChefLP.sol\":44305:44311  output */\n  0x0a\n  0x00\n    /* \"strategies/StrategyMiniChefLP.sol\":44305:44337  output = _outputToNativeRoute[0] */\n  0x0100\n  exp\n  dup2\n  sload\n  dup2\n  sub(shl(0xa0, 0x01), 0x01)\n  mul\n  not\n  and\n  swap1\n  dup4\n  sub(shl(0xa0, 0x01), 0x01)\n  and\n  mul\n  or\n  swap1\n  sstore\n  pop\n    /* \"strategies/StrategyMiniChefLP.sol\":44356:44376  _outputToNativeRoute */\n  dup3\n    /* \"strategies/StrategyMiniChefLP.sol\":44407:44408  1 */\n  0x01\n    /* \"strategies/StrategyMiniChefLP.sol\":44377:44397  _outputToNativeRoute */\n  dup5\n    /* \"strategies/StrategyMiniChefLP.sol\":44377:44404  _outputToNativeRoute.length */\n  mload\n    /* \"strategies/StrategyMiniChefLP.sol\":44377:44408  _outputToNativeRoute.length - 1 */\n  sub\n    /* \"strategies/StrategyMiniChefLP.sol\":44356:44409  _outputToNativeRoute[_outputToNativeRoute.length - 1] */\n  dup2\n  mload\n  dup2\n  lt\n  tag_33\n  jumpi\n  invalid\ntag_33:\n  0x20\n  swap1\n  dup2\n  mul\n  swap2\n  swap1\n  swap2\n  add\n  dup2\n  add\n  mload\n    /* \"strategies/StrategyMiniChefLP.sol\":44347:44353  native */\n  0x09\n    /* \"strategies/StrategyMiniChefLP.sol\":44347:44409  native = _outputToNativeRoute[_outputToNativeRoute.length - 1] */\n  dup1\n  sload\n  not(sub(shl(0xa0, 0x01), 0x01))\n  and\n  sub(shl(0xa0, 0x01), 0x01)\n  swap1\n  swap3\n  and\n  swap2\n  swap1\n  swap2\n  or\n  swap1\n  sstore\n    /* \"strategies/StrategyMiniChefLP.sol\":44419:44461  outputToNativeRoute = _outputToNativeRoute */\n  dup4\n  mload\n  tag_34\n  swap2\n    /* \"strategies/StrategyMiniChefLP.sol\":44419:44438  outputToNativeRoute */\n  0x10\n  swap2\n    /* \"strategies/StrategyMiniChefLP.sol\":44419:44461  outputToNativeRoute = _outputToNativeRoute */\n  swap1\n  dup7\n  add\n  swap1\n  tag_35\n  jump\t// in\ntag_34:\n  pop\n    /* \"strategies/StrategyMiniChefLP.sol\":44526:44530  want */\n  0x0b\n  0x00\n  swap1\n  sload\n  swap1\n  0x0100\n  exp\n  swap1\n  div\n  sub(shl(0xa0, 0x01), 0x01)\n  and\n  sub(shl(0xa0, 0x01), 0x01)\n    /* \"strategies/StrategyMiniChefLP.sol\":44511:44538  IUniswapV2Pair(want).token0 */\n  and\n  0x0dfe1681\n    /* \"strategies/StrategyMiniChefLP.sol\":44511:44540  IUniswapV2Pair(want).token0() */\n  mload(0x40)\n  dup2\n  0xffffffff\n  and\n  0xe0\n  shl\n  dup2\n  mstore\n  0x04\n  add\n  0x20\n  mload(0x40)\n  dup1\n  dup4\n  sub\n  dup2\n  dup7\n  dup1\n  extcodesize\n  iszero\n  dup1\n  iszero\n  tag_36\n  jumpi\n  0x00\n  dup1\n  revert\ntag_36:\n  pop\n  gas\n  staticcall\n  iszero\n  dup1\n  iszero\n  tag_38\n  jumpi\n  returndatasize\n  0x00\n  dup1\n  returndatacopy\n  revert(0x00, returndatasize)\ntag_38:\n  pop\n  pop\n  pop\n  pop\n  mload(0x40)\n  returndatasize\n  0x20\n  dup2\n  lt\n  iszero\n  tag_39\n  jumpi\n  0x00\n  dup1\n  revert\ntag_39:\n  pop\n  mload\n    /* \"strategies/StrategyMiniChefLP.sol\":44500:44508  lpToken0 */\n  0x0c\n    /* \"strategies/StrategyMiniChefLP.sol\":44500:44540  lpToken0 = IUniswapV2Pair(want).token0() */\n  dup1\n  sload\n  not(sub(shl(0xa0, 0x01), 0x01))\n  and\n  sub(shl(0xa0, 0x01), 0x01)\n  swap3\n  dup4\n  and\n  or\n  swap1\n  sstore\n    /* \"strategies/StrategyMiniChefLP.sol\":44582:44588  output */\n  sload(0x0a)\n    /* \"strategies/StrategyMiniChefLP.sol\":44558:44578  _outputToLp0Route[0] */\n  dup4\n  mload\n    /* \"strategies/StrategyMiniChefLP.sol\":44582:44588  output */\n  swap2\n  and\n  swap1\n    /* \"strategies/StrategyMiniChefLP.sol\":44558:44578  _outputToLp0Route[0] */\n  dup4\n  swap1\n  0x00\n  swap1\n  tag_40\n  jumpi\n  invalid\ntag_40:\n  0x20\n  mul\n  0x20\n  add\n  add\n  mload\n  sub(shl(0xa0, 0x01), 0x01)\n    /* \"strategies/StrategyMiniChefLP.sol\":44558:44588  _outputToLp0Route[0] == output */\n  and\n  eq\n    /* \"strategies/StrategyMiniChefLP.sol\":44550:44589  require(_outputToLp0Route[0] == output) */\n  tag_41\n  jumpi\n  0x00\n  dup1\n  revert\ntag_41:\n    /* \"strategies/StrategyMiniChefLP.sol\":44658:44666  lpToken0 */\n  sload(0x0c)\n    /* \"strategies/StrategyMiniChefLP.sol\":44625:44649  _outputToLp0Route.length */\n  dup3\n  mload\n  sub(shl(0xa0, 0x01), 0x01)\n    /* \"strategies/StrategyMiniChefLP.sol\":44658:44666  lpToken0 */\n  swap1\n  swap2\n  and\n  swap1\n    /* \"strategies/StrategyMiniChefLP.sol\":44607:44624  _outputToLp0Route */\n  dup4\n  swap1\n  not(0x00)\n    /* \"strategies/StrategyMiniChefLP.sol\":44625:44653  _outputToLp0Route.length - 1 */\n  dup2\n  add\n  swap1\n    /* \"strategies/StrategyMiniChefLP.sol\":44607:44654  _outputToLp0Route[_outputToLp0Route.length - 1] */\n  dup2\n  lt\n  tag_42\n  jumpi\n  invalid\ntag_42:\n  0x20\n  mul\n  0x20\n  add\n  add\n  mload\n  sub(shl(0xa0, 0x01), 0x01)\n    /* \"strategies/StrategyMiniChefLP.sol\":44607:44666  _outputToLp0Route[_outputToLp0Route.length - 1] == lpToken0 */\n  and\n  eq\n    /* \"strategies/StrategyMiniChefLP.sol\":44599:44667  require(_outputToLp0Route[_outputToLp0Route.length - 1] == lpToken0) */\n  tag_43\n  jumpi\n  0x00\n  dup1\n  revert\ntag_43:\n    /* \"strategies/StrategyMiniChefLP.sol\":44677:44713  outputToLp0Route = _outputToLp0Route */\n  dup2\n  mload\n  tag_44\n  swap1\n    /* \"strategies/StrategyMiniChefLP.sol\":44677:44693  outputToLp0Route */\n  0x12\n  swap1\n    /* \"strategies/StrategyMiniChefLP.sol\":44677:44713  outputToLp0Route = _outputToLp0Route */\n  0x20\n  dup6\n  add\n  swap1\n  tag_35\n  jump\t// in\ntag_44:\n  pop\n    /* \"strategies/StrategyMiniChefLP.sol\":44750:44754  want */\n  0x0b\n  0x00\n  swap1\n  sload\n  swap1\n  0x0100\n  exp\n  swap1\n  div\n  sub(shl(0xa0, 0x01), 0x01)\n  and\n  sub(shl(0xa0, 0x01), 0x01)\n    /* \"strategies/StrategyMiniChefLP.sol\":44735:44762  IUniswapV2Pair(want).token1 */\n  and\n  0xd21220a7\n    /* \"strategies/StrategyMiniChefLP.sol\":44735:44764  IUniswapV2Pair(want).token1() */\n  mload(0x40)\n  dup2\n  0xffffffff\n  and\n  0xe0\n  shl\n  dup2\n  mstore\n  0x04\n  add\n  0x20\n  mload(0x40)\n  dup1\n  dup4\n  sub\n  dup2\n  dup7\n  dup1\n  extcodesize\n  iszero\n  dup1\n  iszero\n  tag_45\n  jumpi\n  0x00\n  dup1\n  revert\ntag_45:\n  pop\n  gas\n  staticcall\n  iszero\n  dup1\n  iszero\n  tag_47\n  jumpi\n  returndatasize\n  0x00\n  dup1\n  returndatacopy\n  revert(0x00, returndatasize)\ntag_47:\n  pop\n  pop\n  pop\n  pop\n  mload(0x40)\n  returndatasize\n  0x20\n  dup2\n  lt\n  iszero\n  tag_48\n  jumpi\n  0x00\n  dup1\n  revert\ntag_48:\n  pop\n  mload\n    /* \"strategies/StrategyMiniChefLP.sol\":44724:44732  lpToken1 */\n  0x0d\n    /* \"strategies/StrategyMiniChefLP.sol\":44724:44764  lpToken1 = IUniswapV2Pair(want).token1() */\n  dup1\n  sload\n  not(sub(shl(0xa0, 0x01), 0x01))\n  and\n  sub(shl(0xa0, 0x01), 0x01)\n  swap3\n  dup4\n  and\n  or\n  swap1\n  sstore\n    /* \"strategies/StrategyMiniChefLP.sol\":44806:44812  output */\n  sload(0x0a)\n    /* \"strategies/StrategyMiniChefLP.sol\":44782:44802  _outputToLp1Route[0] */\n  dup3\n  mload\n    /* \"strategies/StrategyMiniChefLP.sol\":44806:44812  output */\n  swap2\n  and\n  swap1\n    /* \"strategies/StrategyMiniChefLP.sol\":44782:44802  _outputToLp1Route[0] */\n  dup3\n  swap1\n  0x00\n  swap1\n  tag_49\n  jumpi\n  invalid\ntag_49:\n  0x20\n  mul\n  0x20\n  add\n  add\n  mload\n  sub(shl(0xa0, 0x01), 0x01)\n    /* \"strategies/StrategyMiniChefLP.sol\":44782:44812  _outputToLp1Route[0] == output */\n  and\n  eq\n    /* \"strategies/StrategyMiniChefLP.sol\":44774:44813  require(_outputToLp1Route[0] == output) */\n  tag_50\n  jumpi\n  0x00\n  dup1\n  revert\ntag_50:\n    /* \"strategies/StrategyMiniChefLP.sol\":44882:44890  lpToken1 */\n  sload(0x0d)\n    /* \"strategies/StrategyMiniChefLP.sol\":44849:44873  _outputToLp1Route.length */\n  dup2\n  mload\n  sub(shl(0xa0, 0x01), 0x01)\n    /* \"strategies/StrategyMiniChefLP.sol\":44882:44890  lpToken1 */\n  swap1\n  swap2\n  and\n  swap1\n    /* \"strategies/StrategyMiniChefLP.sol\":44831:44848  _outputToLp1Route */\n  dup3\n  swap1\n  not(0x00)\n    /* \"strategies/StrategyMiniChefLP.sol\":44849:44877  _outputToLp1Route.length - 1 */\n  dup2\n  add\n  swap1\n    /* \"strategies/StrategyMiniChefLP.sol\":44831:44878  _outputToLp1Route[_outputToLp1Route.length - 1] */\n  dup2\n  lt\n  tag_51\n  jumpi\n  invalid\ntag_51:\n  0x20\n  mul\n  0x20\n  add\n  add\n  mload\n  sub(shl(0xa0, 0x01), 0x01)\n    /* \"strategies/StrategyMiniChefLP.sol\":44831:44890  _outputToLp1Route[_outputToLp1Route.length - 1] == lpToken1 */\n  and\n  eq\n    /* \"strategies/StrategyMiniChefLP.sol\":44823:44891  require(_outputToLp1Route[_outputToLp1Route.length - 1] == lpToken1) */\n  tag_52\n  jumpi\n  0x00\n  dup1\n  revert\ntag_52:\n    /* \"strategies/StrategyMiniChefLP.sol\":44901:44937  outputToLp1Route = _outputToLp1Route */\n  dup1\n  mload\n  tag_53\n  swap1\n    /* \"strategies/StrategyMiniChefLP.sol\":44901:44917  outputToLp1Route */\n  0x13\n  swap1\n    /* \"strategies/StrategyMiniChefLP.sol\":44901:44937  outputToLp1Route = _outputToLp1Route */\n  0x20\n  dup5\n  add\n  swap1\n  tag_35\n  jump\t// in\ntag_53:\n  pop\n    /* \"strategies/StrategyMiniChefLP.sol\":44984:45004  _outputToNativeRoute */\n  dup3\n    /* \"strategies/StrategyMiniChefLP.sol\":44984:45011  _outputToNativeRoute.length */\n  mload\n  sub(shl(0x40, 0x01), 0x01)\n    /* \"strategies/StrategyMiniChefLP.sol\":44970:45012  new address[](_outputToNativeRoute.length) */\n  dup2\n  gt\n  dup1\n  iszero\n  tag_54\n  jumpi\n  0x00\n  dup1\n  revert\ntag_54:\n  pop\n  mload(0x40)\n  swap1\n  dup1\n  dup3\n  mstore\n  dup1\n  0x20\n  mul\n  0x20\n  add\n  dup3\n  add\n  0x40\n  mstore\n  dup1\n  iszero\n  tag_55\n  jumpi\n  dup2\n  0x20\n  add\n  0x20\n  dup3\n  mul\n  dup1\n  calldatasize\n  dup4\n  calldatacopy\n  add\n  swap1\n  pop\ntag_55:\n  pop\n    /* \"strategies/StrategyMiniChefLP.sol\":44948:45012  nativeToOutputRoute = new address[](_outputToNativeRoute.length) */\n  dup1\n  mload\n  tag_56\n  swap2\n    /* \"strategies/StrategyMiniChefLP.sol\":44948:44967  nativeToOutputRoute */\n  0x11\n  swap2\n    /* \"strategies/StrategyMiniChefLP.sol\":44948:45012  nativeToOutputRoute = new address[](_outputToNativeRoute.length) */\n  0x20\n  swap1\n  swap2\n  add\n  swap1\n  tag_35\n  jump\t// in\ntag_56:\n  pop\n    /* \"strategies/StrategyMiniChefLP.sol\":45027:45033  uint i */\n  0x00\n    /* \"strategies/StrategyMiniChefLP.sol\":45022:45211  for (uint i = 0; i < _outputToNativeRoute.length; i++) {... */\ntag_57:\n    /* \"strategies/StrategyMiniChefLP.sol\":45043:45063  _outputToNativeRoute */\n  dup4\n    /* \"strategies/StrategyMiniChefLP.sol\":45043:45070  _outputToNativeRoute.length */\n  mload\n    /* \"strategies/StrategyMiniChefLP.sol\":45039:45040  i */\n  dup2\n    /* \"strategies/StrategyMiniChefLP.sol\":45039:45070  i < _outputToNativeRoute.length */\n  lt\n    /* \"strategies/StrategyMiniChefLP.sol\":45022:45211  for (uint i = 0; i < _outputToNativeRoute.length; i++) {... */\n  iszero\n  tag_58\n  jumpi\n    /* \"strategies/StrategyMiniChefLP.sol\":45091:45099  uint idx */\n  0x00\n    /* \"strategies/StrategyMiniChefLP.sol\":45136:45137  i */\n  dup2\n    /* \"strategies/StrategyMiniChefLP.sol\":45132:45133  1 */\n  0x01\n    /* \"strategies/StrategyMiniChefLP.sol\":45102:45122  _outputToNativeRoute */\n  dup7\n    /* \"strategies/StrategyMiniChefLP.sol\":45102:45129  _outputToNativeRoute.length */\n  mload\n    /* \"strategies/StrategyMiniChefLP.sol\":45102:45133  _outputToNativeRoute.length - 1 */\n  sub\n    /* \"strategies/StrategyMiniChefLP.sol\":45102:45137  _outputToNativeRoute.length - 1 - i */\n  sub\n    /* \"strategies/StrategyMiniChefLP.sol\":45091:45137  uint idx = _outputToNativeRoute.length - 1 - i */\n  swap1\n  pop\n    /* \"strategies/StrategyMiniChefLP.sol\":45176:45195  outputToNativeRoute */\n  0x10\n    /* \"strategies/StrategyMiniChefLP.sol\":45196:45199  idx */\n  dup2\n    /* \"strategies/StrategyMiniChefLP.sol\":45176:45200  outputToNativeRoute[idx] */\n  dup2\n  sload\n  dup2\n  lt\n  tag_60\n  jumpi\n  invalid\ntag_60:\n  0x00\n  swap2\n  dup3\n  mstore\n  0x20\n  swap1\n  swap2\n  keccak256\n  add\n  sload\n    /* \"strategies/StrategyMiniChefLP.sol\":45151:45170  nativeToOutputRoute */\n  0x11\n    /* \"strategies/StrategyMiniChefLP.sol\":45151:45173  nativeToOutputRoute[i] */\n  dup1\n  sload\n  sub(shl(0xa0, 0x01), 0x01)\n    /* \"strategies/StrategyMiniChefLP.sol\":45176:45200  outputToNativeRoute[idx] */\n  swap1\n  swap3\n  and\n  swap2\n    /* \"strategies/StrategyMiniChefLP.sol\":45171:45172  i */\n  dup5\n  swap1\n    /* \"strategies/StrategyMiniChefLP.sol\":45151:45173  nativeToOutputRoute[i] */\n  dup2\n  lt\n  tag_62\n  jumpi\n  invalid\ntag_62:\n  0x00\n  swap2\n  dup3\n  mstore\n  0x20\n  swap1\n  swap2\n  keccak256\n  add\n    /* \"strategies/StrategyMiniChefLP.sol\":45151:45200  nativeToOutputRoute[i] = outputToNativeRoute[idx] */\n  dup1\n  sload\n  not(sub(shl(0xa0, 0x01), 0x01))\n  and\n  sub(shl(0xa0, 0x01), 0x01)\n  swap3\n  swap1\n  swap3\n  and\n  swap2\n  swap1\n  swap2\n  or\n  swap1\n  sstore\n  pop\n  0x01\n    /* \"strategies/StrategyMiniChefLP.sol\":45072:45075  i++ */\n  add\n    /* \"strategies/StrategyMiniChefLP.sol\":45022:45211  for (uint i = 0; i < _outputToNativeRoute.length; i++) {... */\n  jump(tag_57)\ntag_58:\n  pop\n    /* \"strategies/StrategyMiniChefLP.sol\":45221:45238  _giveAllowances() */\n  tag_64\n    /* \"strategies/StrategyMiniChefLP.sol\":45221:45236  _giveAllowances */\n  tag_65\n    /* \"strategies/StrategyMiniChefLP.sol\":45221:45238  _giveAllowances() */\n  jump\t// in\ntag_64:\n    /* \"strategies/StrategyMiniChefLP.sol\":43723:45245  constructor(... */\n  pop\n  pop\n  pop\n  pop\n  pop\n  pop\n  pop\n  pop\n  pop\n  pop\n  pop\n    /* \"strategies/StrategyMiniChefLP.sol\":43044:50634  contract StrategyMiniChef is StratManager, FeeManager {... */\n  jump(tag_66)\n    /* \"strategies/StrategyMiniChefLP.sol\":598:702  function _msgSender() internal view virtual returns (address payable) {... */\ntag_27:\n    /* \"strategies/StrategyMiniChefLP.sol\":685:695  msg.sender */\n  caller\n    /* \"strategies/StrategyMiniChefLP.sol\":598:702  function _msgSender() internal view virtual returns (address payable) {... */\n  swap1\n  jump\t// out\n    /* \"strategies/StrategyMiniChefLP.sol\":49823:50334  function _giveAllowances() internal {... */\ntag_65:\n    /* \"strategies/StrategyMiniChefLP.sol\":49894:49898  chef */\n  sload(0x0e)\n    /* \"strategies/StrategyMiniChefLP.sol\":49876:49880  want */\n  sload(0x0b)\n    /* \"strategies/StrategyMiniChefLP.sol\":49869:49918  IERC20(want).safeApprove(chef, type(uint256).max) */\n  tag_69\n  swap2\n  sub(shl(0xa0, 0x01), 0x01)\n    /* \"strategies/StrategyMiniChefLP.sol\":49876:49880  want */\n  swap2\n  dup3\n  and\n  swap2\n    /* \"strategies/StrategyMiniChefLP.sol\":49894:49898  chef */\n  and\n  not(0x00)\n    /* \"strategies/StrategyMiniChefLP.sol\":49869:49893  IERC20(want).safeApprove */\n  tag_70\n  0x20\n  swap1\n  dup2\n  shl\n  tag_0_161\n  or\n    /* \"strategies/StrategyMiniChefLP.sol\":49869:49918  IERC20(want).safeApprove(chef, type(uint256).max) */\n  swap1\n  shr\n  jump\t// in\ntag_69:\n    /* \"strategies/StrategyMiniChefLP.sol\":49955:49964  unirouter */\n  sload(0x03)\n    /* \"strategies/StrategyMiniChefLP.sol\":49935:49941  output */\n  sload(0x0a)\n    /* \"strategies/StrategyMiniChefLP.sol\":49928:49984  IERC20(output).safeApprove(unirouter, type(uint256).max) */\n  tag_71\n  swap2\n  sub(shl(0xa0, 0x01), 0x01)\n    /* \"strategies/StrategyMiniChefLP.sol\":49935:49941  output */\n  swap2\n  dup3\n  and\n  swap2\n    /* \"strategies/StrategyMiniChefLP.sol\":49955:49964  unirouter */\n  and\n  not(0x00)\n    /* \"strategies/StrategyMiniChefLP.sol\":49928:49954  IERC20(output).safeApprove */\n  tag_70\n  0x20\n  swap1\n  dup2\n  shl\n  tag_0_161\n  or\n    /* \"strategies/StrategyMiniChefLP.sol\":49928:49984  IERC20(output).safeApprove(unirouter, type(uint256).max) */\n  swap1\n  shr\n  jump\t// in\ntag_71:\n    /* \"strategies/StrategyMiniChefLP.sol\":50056:50065  unirouter */\n  sload(0x03)\n    /* \"strategies/StrategyMiniChefLP.sol\":50036:50042  native */\n  sload(0x09)\n    /* \"strategies/StrategyMiniChefLP.sol\":50029:50085  IERC20(native).safeApprove(unirouter, type(uint256).max) */\n  tag_72\n  swap2\n  sub(shl(0xa0, 0x01), 0x01)\n    /* \"strategies/StrategyMiniChefLP.sol\":50036:50042  native */\n  swap2\n  dup3\n  and\n  swap2\n    /* \"strategies/StrategyMiniChefLP.sol\":50056:50065  unirouter */\n  and\n  not(0x00)\n    /* \"strategies/StrategyMiniChefLP.sol\":50029:50055  IERC20(native).safeApprove */\n  tag_70\n  0x20\n  swap1\n  dup2\n  shl\n  tag_0_161\n  or\n    /* \"strategies/StrategyMiniChefLP.sol\":50029:50085  IERC20(native).safeApprove(unirouter, type(uint256).max) */\n  swap1\n  shr\n  jump\t// in\ntag_72:\n    /* \"strategies/StrategyMiniChefLP.sol\":50125:50134  unirouter */\n  sload(0x03)\n    /* \"strategies/StrategyMiniChefLP.sol\":50103:50111  lpToken0 */\n  sload(0x0c)\n    /* \"strategies/StrategyMiniChefLP.sol\":50096:50138  IERC20(lpToken0).safeApprove(unirouter, 0) */\n  tag_73\n  swap2\n  sub(shl(0xa0, 0x01), 0x01)\n    /* \"strategies/StrategyMiniChefLP.sol\":50103:50111  lpToken0 */\n  swap2\n  dup3\n  and\n  swap2\n    /* \"strategies/StrategyMiniChefLP.sol\":50125:50134  unirouter */\n  and\n  0x00\n    /* \"strategies/StrategyMiniChefLP.sol\":50096:50124  IERC20(lpToken0).safeApprove */\n  tag_70\n  0x20\n  swap1\n  dup2\n  shl\n  tag_0_161\n  or\n    /* \"strategies/StrategyMiniChefLP.sol\":50096:50138  IERC20(lpToken0).safeApprove(unirouter, 0) */\n  swap1\n  shr\n  jump\t// in\ntag_73:\n    /* \"strategies/StrategyMiniChefLP.sol\":50177:50186  unirouter */\n  sload(0x03)\n    /* \"strategies/StrategyMiniChefLP.sol\":50155:50163  lpToken0 */\n  sload(0x0c)\n    /* \"strategies/StrategyMiniChefLP.sol\":50148:50206  IERC20(lpToken0).safeApprove(unirouter, type(uint256).max) */\n  tag_74\n  swap2\n  sub(shl(0xa0, 0x01), 0x01)\n    /* \"strategies/StrategyMiniChefLP.sol\":50155:50163  lpToken0 */\n  swap2\n  dup3\n  and\n  swap2\n    /* \"strategies/StrategyMiniChefLP.sol\":50177:50186  unirouter */\n  and\n  not(0x00)\n    /* \"strategies/StrategyMiniChefLP.sol\":50148:50176  IERC20(lpToken0).safeApprove */\n  tag_70\n  0x20\n  swap1\n  dup2\n  shl\n  tag_0_161\n  or\n    /* \"strategies/StrategyMiniChefLP.sol\":50148:50206  IERC20(lpToken0).safeApprove(unirouter, type(uint256).max) */\n  swap1\n  shr\n  jump\t// in\ntag_74:\n    /* \"strategies/StrategyMiniChefLP.sol\":50246:50255  unirouter */\n  sload(0x03)\n    /* \"strategies/StrategyMiniChefLP.sol\":50224:50232  lpToken1 */\n  sload(0x0d)\n    /* \"strategies/StrategyMiniChefLP.sol\":50217:50259  IERC20(lpToken1).safeApprove(unirouter, 0) */\n  tag_75\n  swap2\n  sub(shl(0xa0, 0x01), 0x01)\n    /* \"strategies/StrategyMiniChefLP.sol\":50224:50232  lpToken1 */\n  swap2\n  dup3\n  and\n  swap2\n    /* \"strategies/StrategyMiniChefLP.sol\":50246:50255  unirouter */\n  and\n  0x00\n    /* \"strategies/StrategyMiniChefLP.sol\":50217:50245  IERC20(lpToken1).safeApprove */\n  tag_70\n  0x20\n  swap1\n  dup2\n  shl\n  tag_0_161\n  or\n    /* \"strategies/StrategyMiniChefLP.sol\":50217:50259  IERC20(lpToken1).safeApprove(unirouter, 0) */\n  swap1\n  shr\n  jump\t// in\ntag_75:\n    /* \"strategies/StrategyMiniChefLP.sol\":50298:50307  unirouter */\n  sload(0x03)\n    /* \"strategies/StrategyMiniChefLP.sol\":50276:50284  lpToken1 */\n  sload(0x0d)\n    /* \"strategies/StrategyMiniChefLP.sol\":50269:50327  IERC20(lpToken1).safeApprove(unirouter, type(uint256).max) */\n  tag_76\n  swap2\n  sub(shl(0xa0, 0x01), 0x01)\n    /* \"strategies/StrategyMiniChefLP.sol\":50276:50284  lpToken1 */\n  swap2\n  dup3\n  and\n  swap2\n    /* \"strategies/StrategyMiniChefLP.sol\":50298:50307  unirouter */\n  and\n  not(0x00)\n    /* \"strategies/StrategyMiniChefLP.sol\":50269:50297  IERC20(lpToken1).safeApprove */\n  tag_70\n  0x20\n  swap1\n  dup2\n  shl\n  tag_0_161\n  or\n    /* \"strategies/StrategyMiniChefLP.sol\":50269:50327  IERC20(lpToken1).safeApprove(unirouter, type(uint256).max) */\n  swap1\n  shr\n  jump\t// in\ntag_76:\n    /* \"strategies/StrategyMiniChefLP.sol\":49823:50334  function _giveAllowances() internal {... */\n  jump\t// out\n    /* \"strategies/StrategyMiniChefLP.sol\":30809:31422  function safeApprove(IERC20 token, address spender, uint256 value) internal {... */\ntag_70:\n    /* \"strategies/StrategyMiniChefLP.sol\":31174:31184  value == 0 */\n  dup1\n  iszero\n  dup1\n    /* \"strategies/StrategyMiniChefLP.sol\":31173:31235  (value == 0) || (token.allowance(address(this), spender) == 0) */\n  tag_78\n  jumpi\n  pop\n    /* \"strategies/StrategyMiniChefLP.sol\":31190:31229  token.allowance(address(this), spender) */\n  0x40\n  dup1\n  mload\n  shl(0xe1, 0x6eb1769f)\n  dup2\n  mstore\n    /* \"strategies/StrategyMiniChefLP.sol\":31214:31218  this */\n  address\n    /* \"strategies/StrategyMiniChefLP.sol\":31190:31229  token.allowance(address(this), spender) */\n  0x04\n  dup3\n  add\n  mstore\n  sub(shl(0xa0, 0x01), 0x01)\n  dup5\n  dup2\n  and\n  0x24\n  dup4\n  add\n  mstore\n  swap2\n  mload\n    /* \"strategies/StrategyMiniChefLP.sol\":31190:31205  token.allowance */\n  swap2\n  dup6\n  and\n  swap2\n  0xdd62ed3e\n  swap2\n    /* \"strategies/StrategyMiniChefLP.sol\":31190:31229  token.allowance(address(this), spender) */\n  0x44\n  dup1\n  dup3\n  add\n  swap3\n  0x20\n  swap3\n  swap1\n  swap2\n  swap1\n  dup3\n  swap1\n  sub\n  add\n  dup2\n    /* \"strategies/StrategyMiniChefLP.sol\":31190:31205  token.allowance */\n  dup7\n    /* \"strategies/StrategyMiniChefLP.sol\":31190:31229  token.allowance(address(this), spender) */\n  dup1\n  extcodesize\n  iszero\n  dup1\n  iszero\n  tag_79\n  jumpi\n  0x00\n  dup1\n  revert\ntag_79:\n  pop\n  gas\n  staticcall\n  iszero\n  dup1\n  iszero\n  tag_81\n  jumpi\n  returndatasize\n  0x00\n  dup1\n  returndatacopy\n  revert(0x00, returndatasize)\ntag_81:\n  pop\n  pop\n  pop\n  pop\n  mload(0x40)\n  returndatasize\n  0x20\n  dup2\n  lt\n  iszero\n  tag_82\n  jumpi\n  0x00\n  dup1\n  revert\ntag_82:\n  pop\n  mload\n    /* \"strategies/StrategyMiniChefLP.sol\":31190:31234  token.allowance(address(this), spender) == 0 */\n  iszero\n    /* \"strategies/StrategyMiniChefLP.sol\":31173:31235  (value == 0) || (token.allowance(address(this), spender) == 0) */\ntag_78:\n    /* \"strategies/StrategyMiniChefLP.sol\":31165:31315  require((value == 0) || (token.allowance(address(this), spender) == 0),... */\n  tag_83\n  jumpi\n  mload(0x40)\n  shl(0xe5, 0x461bcd)\n  dup2\n  mstore\n  0x04\n  add\n  dup1\n  dup1\n  0x20\n  add\n  dup3\n  dup2\n  sub\n  dup3\n  mstore\n  0x36\n  dup2\n  mstore\n  0x20\n  add\n  dup1\n  data_ef945ddb1bfdc0da870feb4560d868b047642b4ac7f2fb7f8b7c51cb4a411e25\n  0x36\n  swap2\n  codecopy\n  0x40\n  add\n  swap2\n  pop\n  pop\n  mload(0x40)\n  dup1\n  swap2\n  sub\n  swap1\n  revert\ntag_83:\n    /* \"strategies/StrategyMiniChefLP.sol\":31352:31414  abi.encodeWithSelector(token.approve.selector, spender, value) */\n  0x40\n  dup1\n  mload\n  sub(shl(0xa0, 0x01), 0x01)\n  dup5\n  and\n  0x24\n  dup3\n  add\n  mstore\n  0x44\n  dup1\n  dup3\n  add\n  dup5\n  swap1\n  mstore\n  dup3\n  mload\n  dup1\n  dup4\n  sub\n  swap1\n  swap2\n  add\n  dup2\n  mstore\n  0x64\n  swap1\n  swap2\n  add\n  swap1\n  swap2\n  mstore\n  0x20\n  dup2\n  add\n  dup1\n  mload\n  sub(shl(0xe0, 0x01), 0x01)\n  swap1\n  dup2\n  and\n  shl(0xe0, 0x095ea7b3)\n  or\n  swap1\n  swap2\n  mstore\n    /* \"strategies/StrategyMiniChefLP.sol\":31325:31415  _callOptionalReturn(token, abi.encodeWithSelector(token.approve.selector, spender, value)) */\n  tag_84\n  swap2\n    /* \"strategies/StrategyMiniChefLP.sol\":31345:31350  token */\n  dup6\n  swap2\n    /* \"strategies/StrategyMiniChefLP.sol\":31325:31344  _callOptionalReturn */\n  tag_85\n    /* \"strategies/StrategyMiniChefLP.sol\":31325:31415  _callOptionalReturn(token, abi.encodeWithSelector(token.approve.selector, spender, value)) */\n  and\n  jump\t// in\ntag_84:\n    /* \"strategies/StrategyMiniChefLP.sol\":30809:31422  function safeApprove(IERC20 token, address spender, uint256 value) internal {... */\n  pop\n  pop\n  pop\n  jump\t// out\n    /* \"strategies/StrategyMiniChefLP.sol\":32428:33179  function _callOptionalReturn(IERC20 token, bytes memory data) private {... */\ntag_85:\n    /* \"strategies/StrategyMiniChefLP.sol\":32847:32870  bytes memory returndata */\n  0x60\n    /* \"strategies/StrategyMiniChefLP.sol\":32873:32942  address(token).functionCall(data, \"SafeERC20: low-level call failed\") */\n  tag_87\n    /* \"strategies/StrategyMiniChefLP.sol\":32901:32905  data */\n  dup3\n    /* \"strategies/StrategyMiniChefLP.sol\":32873:32942  address(token).functionCall(data, \"SafeERC20: low-level call failed\") */\n  mload(0x40)\n  dup1\n  0x40\n  add\n  0x40\n  mstore\n  dup1\n  0x20\n  dup2\n  mstore\n  0x20\n  add\n  0x5361666545524332303a206c6f772d6c6576656c2063616c6c206661696c6564\n  dup2\n  mstore\n  pop\n    /* \"strategies/StrategyMiniChefLP.sol\":32881:32886  token */\n  dup6\n  sub(shl(0xa0, 0x01), 0x01)\n    /* \"strategies/StrategyMiniChefLP.sol\":32873:32900  address(token).functionCall */\n  and\n  or(tag_0_162, shl(0x20, tag_88))\n  swap1\n    /* \"strategies/StrategyMiniChefLP.sol\":32873:32942  address(token).functionCall(data, \"SafeERC20: low-level call failed\") */\n  swap3\n  swap2\n  swap1\n  0x20\n  shr\n  jump\t// in\ntag_87:\n    /* \"strategies/StrategyMiniChefLP.sol\":32956:32973  returndata.length */\n  dup1\n  mload\n    /* \"strategies/StrategyMiniChefLP.sol\":32847:32942  bytes memory returndata = address(token).functionCall(data, \"SafeERC20: low-level call failed\") */\n  swap1\n  swap2\n  pop\n    /* \"strategies/StrategyMiniChefLP.sol\":32956:32977  returndata.length > 0 */\n  iszero\n    /* \"strategies/StrategyMiniChefLP.sol\":32952:33173  if (returndata.length > 0) { // Return data is optional... */\n  tag_84\n  jumpi\n    /* \"strategies/StrategyMiniChefLP.sol\":33096:33106  returndata */\n  dup1\n    /* \"strategies/StrategyMiniChefLP.sol\":33085:33115  abi.decode(returndata, (bool)) */\n  dup1\n  0x20\n  add\n  swap1\n  mload\n  0x20\n  dup2\n  lt\n  iszero\n  tag_90\n  jumpi\n  0x00\n  dup1\n  revert\ntag_90:\n  pop\n  mload\n    /* \"strategies/StrategyMiniChefLP.sol\":33077:33162  require(abi.decode(returndata, (bool)), \"SafeERC20: ERC20 operation did not succeed\") */\n  tag_84\n  jumpi\n  mload(0x40)\n  shl(0xe5, 0x461bcd)\n  dup2\n  mstore\n  0x04\n  add\n  dup1\n  dup1\n  0x20\n  add\n  dup3\n  dup2\n  sub\n  dup3\n  mstore\n  0x2a\n  dup2\n  mstore\n  0x20\n  add\n  dup1\n  data_e11ad79d1e4a7f2e5f376964cb99e8e8f7904e3fc16a109f7a7ecb9aa7956dcd\n  0x2a\n  swap2\n  codecopy\n  0x40\n  add\n  swap2\n  pop\n  pop\n  mload(0x40)\n  dup1\n  swap2\n  sub\n  swap1\n  revert\n    /* \"strategies/StrategyMiniChefLP.sol\":25277:25470  function functionCall(address target, bytes memory data, string memory errorMessage) internal returns (bytes memory) {... */\ntag_88:\n    /* \"strategies/StrategyMiniChefLP.sol\":25380:25392  bytes memory */\n  0x60\n    /* \"strategies/StrategyMiniChefLP.sol\":25411:25463  functionCallWithValue(target, data, 0, errorMessage) */\n  tag_93\n    /* \"strategies/StrategyMiniChefLP.sol\":25433:25439  target */\n  dup5\n    /* \"strategies/StrategyMiniChefLP.sol\":25441:25445  data */\n  dup5\n    /* \"strategies/StrategyMiniChefLP.sol\":25447:25448  0 */\n  0x00\n    /* \"strategies/StrategyMiniChefLP.sol\":25450:25462  errorMessage */\n  dup6\n    /* \"strategies/StrategyMiniChefLP.sol\":25411:25432  functionCallWithValue */\n  tag_94\n    /* \"strategies/StrategyMiniChefLP.sol\":25411:25463  functionCallWithValue(target, data, 0, errorMessage) */\n  jump\t// in\ntag_93:\n    /* \"strategies/StrategyMiniChefLP.sol\":25404:25463  return functionCallWithValue(target, data, 0, errorMessage) */\n  swap1\n  pop\n    /* \"strategies/StrategyMiniChefLP.sol\":25277:25470  function functionCall(address target, bytes memory data, string memory errorMessage) internal returns (bytes memory) {... */\ntag_92:\n  swap4\n  swap3\n  pop\n  pop\n  pop\n  jump\t// out\n    /* \"strategies/StrategyMiniChefLP.sol\":26304:26827  function functionCallWithValue(address target, bytes memory data, uint256 value, string memory errorMessage) internal returns (bytes memory) {... */\ntag_94:\n    /* \"strategies/StrategyMiniChefLP.sol\":26431:26443  bytes memory */\n  0x60\n    /* \"strategies/StrategyMiniChefLP.sol\":26488:26493  value */\n  dup3\n    /* \"strategies/StrategyMiniChefLP.sol\":26463:26484  address(this).balance */\n  selfbalance\n    /* \"strategies/StrategyMiniChefLP.sol\":26463:26493  address(this).balance >= value */\n  lt\n  iszero\n    /* \"strategies/StrategyMiniChefLP.sol\":26455:26536  require(address(this).balance >= value, \"Address: insufficient balance for call\") */\n  tag_96\n  jumpi\n  mload(0x40)\n  shl(0xe5, 0x461bcd)\n  dup2\n  mstore\n  0x04\n  add\n  dup1\n  dup1\n  0x20\n  add\n  dup3\n  dup2\n  sub\n  dup3\n  mstore\n  0x26\n  dup2\n  mstore\n  0x20\n  add\n  dup1\n  data_565f1a77334fc4792800921178c71e4521acffab18ff9e7885b49377ee80ab4c\n  0x26\n  swap2\n  codecopy\n  0x40\n  add\n  swap2\n  pop\n  pop\n  mload(0x40)\n  dup1\n  swap2\n  sub\n  swap1\n  revert\ntag_96:\n    /* \"strategies/StrategyMiniChefLP.sol\":26554:26572  isContract(target) */\n  tag_97\n    /* \"strategies/StrategyMiniChefLP.sol\":26565:26571  target */\n  dup6\n    /* \"strategies/StrategyMiniChefLP.sol\":26554:26564  isContract */\n  tag_98\n    /* \"strategies/StrategyMiniChefLP.sol\":26554:26572  isContract(target) */\n  jump\t// in\ntag_97:\n    /* \"strategies/StrategyMiniChefLP.sol\":26546:26606  require(isContract(target), \"Address: call to non-contract\") */\n  tag_99\n  jumpi\n  0x40\n  dup1\n  mload\n  shl(0xe5, 0x461bcd)\n  dup2\n  mstore\n  0x20\n  0x04\n  dup3\n  add\n  mstore\n  0x1d\n  0x24\n  dup3\n  add\n  mstore\n  0x416464726573733a2063616c6c20746f206e6f6e2d636f6e7472616374000000\n  0x44\n  dup3\n  add\n  mstore\n  swap1\n  mload\n  swap1\n  dup2\n  swap1\n  sub\n  0x64\n  add\n  swap1\n  revert\ntag_99:\n    /* \"strategies/StrategyMiniChefLP.sol\":26677:26689  bool success */\n  0x00\n    /* \"strategies/StrategyMiniChefLP.sol\":26691:26714  bytes memory returndata */\n  0x60\n    /* \"strategies/StrategyMiniChefLP.sol\":26718:26724  target */\n  dup7\n  sub(shl(0xa0, 0x01), 0x01)\n    /* \"strategies/StrategyMiniChefLP.sol\":26718:26729  target.call */\n  and\n    /* \"strategies/StrategyMiniChefLP.sol\":26738:26743  value */\n  dup6\n    /* \"strategies/StrategyMiniChefLP.sol\":26746:26750  data */\n  dup8\n    /* \"strategies/StrategyMiniChefLP.sol\":26718:26751  target.call{ value: value }(data) */\n  mload(0x40)\n  dup1\n  dup3\n  dup1\n  mload\n  swap1\n  0x20\n  add\n  swap1\n  dup1\n  dup4\n  dup4\ntag_100:\n  0x20\n  dup4\n  lt\n  tag_102\n  jumpi\n  dup1\n  mload\n  dup3\n  mstore\n  not(0x1f)\n  swap1\n  swap3\n  add\n  swap2\n  0x20\n  swap2\n  dup3\n  add\n  swap2\n  add\n  jump(tag_100)\ntag_102:\n  0x01\n  dup4\n  0x20\n  sub\n  0x0100\n  exp\n  sub\n  dup1\n  not\n  dup3\n  mload\n  and\n  dup2\n  dup5\n  mload\n  and\n  dup1\n  dup3\n  or\n  dup6\n  mstore\n  pop\n  pop\n  pop\n  pop\n  pop\n  pop\n  swap1\n  pop\n  add\n  swap2\n  pop\n  pop\n  0x00\n  mload(0x40)\n  dup1\n  dup4\n  sub\n  dup2\n  dup6\n  dup8\n  gas\n  call\n  swap3\n  pop\n  pop\n  pop\n  returndatasize\n  dup1\n  0x00\n  dup2\n  eq\n  tag_105\n  jumpi\n  mload(0x40)\n  swap2\n  pop\n  and(add(returndatasize, 0x3f), not(0x1f))\n  dup3\n  add\n  0x40\n  mstore\n  returndatasize\n  dup3\n  mstore\n  returndatasize\n  0x00\n  0x20\n  dup5\n  add\n  returndatacopy\n  jump(tag_104)\ntag_105:\n  0x60\n  swap2\n  pop\ntag_104:\n  pop\n    /* \"strategies/StrategyMiniChefLP.sol\":26676:26751  (bool success, bytes memory returndata) = target.call{ value: value }(data) */\n  swap1\n  swap3\n  pop\n  swap1\n  pop\n    /* \"strategies/StrategyMiniChefLP.sol\":26768:26820  _verifyCallResult(success, returndata, errorMessage) */\n  tag_106\n    /* \"strategies/StrategyMiniChefLP.sol\":26676:26751  (bool success, bytes memory returndata) = target.call{ value: value }(data) */\n  dup3\n  dup3\n    /* \"strategies/StrategyMiniChefLP.sol\":26807:26819  errorMessage */\n  dup7\n    /* \"strategies/StrategyMiniChefLP.sol\":26768:26785  _verifyCallResult */\n  tag_107\n    /* \"strategies/StrategyMiniChefLP.sol\":26768:26820  _verifyCallResult(success, returndata, errorMessage) */\n  jump\t// in\ntag_106:\n    /* \"strategies/StrategyMiniChefLP.sol\":26761:26820  return _verifyCallResult(success, returndata, errorMessage) */\n  swap8\n    /* \"strategies/StrategyMiniChefLP.sol\":26304:26827  function functionCallWithValue(address target, bytes memory data, uint256 value, string memory errorMessage) internal returns (bytes memory) {... */\n  swap7\n  pop\n  pop\n  pop\n  pop\n  pop\n  pop\n  pop\n  jump\t// out\n    /* \"strategies/StrategyMiniChefLP.sol\":22422:22835  function isContract(address account) internal view returns (bool) {... */\ntag_98:\n    /* \"strategies/StrategyMiniChefLP.sol\":22782:22802  extcodesize(account) */\n  extcodesize\n    /* \"strategies/StrategyMiniChefLP.sol\":22820:22828  size > 0 */\n  iszero\n  iszero\n  swap1\n    /* \"strategies/StrategyMiniChefLP.sol\":22422:22835  function isContract(address account) internal view returns (bool) {... */\n  jump\t// out\n    /* \"strategies/StrategyMiniChefLP.sol\":28787:29512  function _verifyCallResult(bool success, bytes memory returndata, string memory errorMessage) private pure returns(bytes memory) {... */\ntag_107:\n    /* \"strategies/StrategyMiniChefLP.sol\":28902:28914  bytes memory */\n  0x60\n    /* \"strategies/StrategyMiniChefLP.sol\":28930:28937  success */\n  dup4\n    /* \"strategies/StrategyMiniChefLP.sol\":28926:29506  if (success) {... */\n  iszero\n  tag_110\n  jumpi\n  pop\n    /* \"strategies/StrategyMiniChefLP.sol\":28960:28970  returndata */\n  dup2\n    /* \"strategies/StrategyMiniChefLP.sol\":28953:28970  return returndata */\n  jump(tag_92)\n    /* \"strategies/StrategyMiniChefLP.sol\":28926:29506  if (success) {... */\ntag_110:\n    /* \"strategies/StrategyMiniChefLP.sol\":29071:29088  returndata.length */\n  dup3\n  mload\n    /* \"strategies/StrategyMiniChefLP.sol\":29071:29092  returndata.length > 0 */\n  iszero\n    /* \"strategies/StrategyMiniChefLP.sol\":29067:29496  if (returndata.length > 0) {... */\n  tag_112\n  jumpi\n    /* \"strategies/StrategyMiniChefLP.sol\":29329:29339  returndata */\n  dup3\n    /* \"strategies/StrategyMiniChefLP.sol\":29323:29340  mload(returndata) */\n  mload\n    /* \"strategies/StrategyMiniChefLP.sol\":29389:29404  returndata_size */\n  dup1\n    /* \"strategies/StrategyMiniChefLP.sol\":29376:29386  returndata */\n  dup5\n    /* \"strategies/StrategyMiniChefLP.sol\":29372:29374  32 */\n  0x20\n    /* \"strategies/StrategyMiniChefLP.sol\":29368:29387  add(32, returndata) */\n  add\n    /* \"strategies/StrategyMiniChefLP.sol\":29361:29405  revert(add(32, returndata), returndata_size) */\n  revert\n    /* \"strategies/StrategyMiniChefLP.sol\":29278:29423  {... */\ntag_112:\n    /* \"strategies/StrategyMiniChefLP.sol\":29468:29480  errorMessage */\n  dup2\n    /* \"strategies/StrategyMiniChefLP.sol\":29461:29481  revert(errorMessage) */\n  mload(0x40)\n  shl(0xe5, 0x461bcd)\n  dup2\n  mstore\n  0x04\n  add\n  dup1\n  dup1\n  0x20\n  add\n  dup3\n  dup2\n  sub\n  dup3\n  mstore\n  dup4\n  dup2\n  dup2\n  mload\n  dup2\n  mstore\n  0x20\n  add\n  swap2\n  pop\n  dup1\n  mload\n  swap1\n  0x20\n  add\n  swap1\n  dup1\n  dup4\n  dup4\n  0x00\ntag_114:\n  dup4\n  dup2\n  lt\n  iszero\n  tag_116\n  jumpi\n  dup2\n  dup2\n  add\n  mload\n  dup4\n  dup3\n  add\n  mstore\n  0x20\n  add\n  jump(tag_114)\ntag_116:\n  pop\n  pop\n  pop\n  pop\n  swap1\n  pop\n  swap1\n  dup2\n  add\n  swap1\n  0x1f\n  and\n  dup1\n  iszero\n  tag_117\n  jumpi\n  dup1\n  dup3\n  sub\n  dup1\n  mload\n  0x01\n  dup4\n  0x20\n  sub\n  0x0100\n  exp\n  sub\n  not\n  and\n  dup2\n  mstore\n  0x20\n  add\n  swap2\n  pop\ntag_117:\n  pop\n  swap3\n  pop\n  pop\n  pop\n  mload(0x40)\n  dup1\n  swap2\n  sub\n  swap1\n  revert\n    /* \"strategies/StrategyMiniChefLP.sol\":43044:50634  contract StrategyMiniChef is StratManager, FeeManager {... */\ntag_35:\n  dup3\n  dup1\n  sload\n  dup3\n  dup3\n  sstore\n  swap1\n  0x00\n  mstore\n  keccak256(0x00, 0x20)\n  swap1\n  dup2\n  add\n  swap3\n  dup3\n  iszero\n  tag_120\n  jumpi\n  swap2\n  0x20\n  mul\n  dup3\n  add\ntag_119:\n  dup3\n  dup2\n  gt\n  iszero\n  tag_120\n  jumpi\n  dup3\n  mload\n  dup3\n  sload\n  not(sub(shl(0xa0, 0x01), 0x01))\n  and\n  sub(shl(0xa0, 0x01), 0x01)\n  swap1\n  swap2\n  and\n  or\n  dup3\n  sstore\n  0x20\n  swap1\n  swap3\n  add\n  swap2\n  0x01\n  swap1\n  swap2\n  add\n  swap1\n  jump(tag_119)\ntag_120:\n  pop\n  tag_121\n  swap3\n  swap2\n  pop\n  tag_122\n  jump\t// in\ntag_121:\n  pop\n  swap1\n  jump\t// out\ntag_122:\ntag_123:\n  dup1\n  dup3\n  gt\n  iszero\n  tag_121\n  jumpi\n  dup1\n  sload\n  not(sub(shl(0xa0, 0x01), 0x01))\n  and\n  dup2\n  sstore\n  0x01\n  add\n  jump(tag_123)\ntag_66:\n  dataSize(sub_0)\n  dup1\n  dataOffset(sub_0)\n  0x00\n  codecopy\n  0x00\n  return\nstop\ndata_565f1a77334fc4792800921178c71e4521acffab18ff9e7885b49377ee80ab4c 416464726573733a20696e73756666696369656e742062616c616e636520666f722063616c6c\ndata_e11ad79d1e4a7f2e5f376964cb99e8e8f7904e3fc16a109f7a7ecb9aa7956dcd 5361666545524332303a204552433230206f7065726174696f6e20646964206e6f742073756363656564\ndata_ef945ddb1bfdc0da870feb4560d868b047642b4ac7f2fb7f8b7c51cb4a411e25 5361666545524332303a20617070726f76652066726f6d206e6f6e2d7a65726f20746f206e6f6e2d7a65726f20616c6c6f77616e6365\n\nsub_0: assembly {\n        /* \"strategies/StrategyMiniChefLP.sol\":43044:50634  contract StrategyMiniChef is StratManager, FeeManager {... */\n      mstore(0x40, 0x80)\n      callvalue\n      dup1\n      iszero\n      tag_1\n      jumpi\n      0x00\n      dup1\n      revert\n    tag_1:\n      pop\n      jumpi(tag_2, lt(calldatasize, 0x04))\n      shr(0xe0, calldataload(0x00))\n      dup1\n      0x748747e6\n      gt\n      tag_49\n      jumpi\n      dup1\n      0xc1a3d44c\n      gt\n      tag_50\n      jumpi\n      dup1\n      0xf20eaeb8\n      gt\n      tag_51\n      jumpi\n      dup1\n      0xf20eaeb8\n      eq\n      tag_43\n      jumpi\n      dup1\n      0xf2fde38b\n      eq\n      tag_44\n      jumpi\n      dup1\n      0xfb617787\n      eq\n      tag_45\n      jumpi\n      dup1\n      0xfbfa77cf\n      eq\n      tag_46\n      jumpi\n      dup1\n      0xfc61568b\n      eq\n      tag_47\n      jumpi\n      dup1\n      0xfd63a887\n      eq\n      tag_48\n      jumpi\n      jump(tag_2)\n    tag_51:\n      dup1\n      0xc1a3d44c\n      eq\n      tag_37\n      jumpi\n      dup1\n      0xc7b9d530\n      eq\n      tag_38\n      jumpi\n      dup1\n      0xd0e30db0\n      eq\n      tag_39\n      jumpi\n      dup1\n      0xd92f3d73\n      eq\n      tag_40\n      jumpi\n      dup1\n      0xdfbdc437\n      eq\n      tag_41\n      jumpi\n      dup1\n      0xe0e4130b\n      eq\n      tag_42\n      jumpi\n      jump(tag_2)\n    tag_50:\n      dup1\n      0x8da5cb5b\n      gt\n      tag_52\n      jumpi\n      dup1\n      0x8da5cb5b\n      eq\n      tag_31\n      jumpi\n      dup1\n      0x90321e1a\n      eq\n      tag_32\n      jumpi\n      dup1\n      0xac1e5025\n      eq\n      tag_33\n      jumpi\n      dup1\n      0xaced1661\n      eq\n      tag_34\n      jumpi\n      dup1\n      0xbc063e1a\n      eq\n      tag_35\n      jumpi\n      dup1\n      0xbe12a978\n      eq\n      tag_36\n      jumpi\n      jump(tag_2)\n    tag_52:\n      dup1\n      0x748747e6\n      eq\n      tag_26\n      jumpi\n      dup1\n      0x7d38ca65\n      eq\n      tag_27\n      jumpi\n      dup1\n      0x8456cb59\n      eq\n      tag_28\n      jumpi\n      dup1\n      0x877562b6\n      eq\n      tag_29\n      jumpi\n      dup1\n      0x8bc7e8c4\n      eq\n      tag_30\n      jumpi\n      jump(tag_2)\n    tag_49:\n      dup1\n      0x3e0dc34e\n      gt\n      tag_53\n      jumpi\n      dup1\n      0x5c975abb\n      gt\n      tag_54\n      jumpi\n      dup1\n      0x5c975abb\n      eq\n      tag_20\n      jumpi\n      dup1\n      0x5e45da42\n      eq\n      tag_21\n      jumpi\n      dup1\n      0x5ee167c0\n      eq\n      tag_22\n      jumpi\n      dup1\n      0x6817031b\n      eq\n      tag_23\n      jumpi\n      dup1\n      0x715018a6\n      eq\n      tag_24\n      jumpi\n      dup1\n      0x722713f7\n      eq\n      tag_25\n      jumpi\n      jump(tag_2)\n    tag_54:\n      dup1\n      0x3e0dc34e\n      eq\n      tag_14\n      jumpi\n      dup1\n      0x3f4ba83a\n      eq\n      tag_15\n      jumpi\n      dup1\n      0x4641257d\n      eq\n      tag_16\n      jumpi\n      dup1\n      0x4700d305\n      eq\n      tag_17\n      jumpi\n      dup1\n      0x54518b1a\n      eq\n      tag_18\n      jumpi\n      dup1\n      0x573fef0a\n      eq\n      tag_19\n      jumpi\n      jump(tag_2)\n    tag_53:\n      dup1\n      0x1fe4a686\n      gt\n      tag_55\n      jumpi\n      dup1\n      0x1fe4a686\n      eq\n      tag_8\n      jumpi\n      dup1\n      0x257ae0de\n      eq\n      tag_9\n      jumpi\n      dup1\n      0x26465826\n      eq\n      tag_10\n      jumpi\n      dup1\n      0x2ad5a53f\n      eq\n      tag_11\n      jumpi\n      dup1\n      0x2e1a7d4d\n      eq\n      tag_12\n      jumpi\n      dup1\n      0x36c6cf21\n      eq\n      tag_13\n      jumpi\n      jump(tag_2)\n    tag_55:\n      dup1\n      0x05200c9c\n      eq\n      tag_3\n      jumpi\n      dup1\n      0x11588086\n      eq\n      tag_4\n      jumpi\n      dup1\n      0x11b0b42d\n      eq\n      tag_5\n      jumpi\n      dup1\n      0x1f1fcd51\n      eq\n      tag_6\n      jumpi\n      dup1\n      0x1fc8bc5d\n      eq\n      tag_7\n      jumpi\n    tag_2:\n      0x00\n      dup1\n      revert\n        /* \"strategies/StrategyMiniChefLP.sol\":43464:43500  address[] public nativeToOutputRoute */\n    tag_3:\n      tag_56\n      0x04\n      dup1\n      calldatasize\n      sub\n      0x20\n      dup2\n      lt\n      iszero\n      tag_57\n      jumpi\n      0x00\n      dup1\n      revert\n    tag_57:\n      pop\n      calldataload\n      tag_58\n      jump\t// in\n    tag_56:\n      0x40\n      dup1\n      mload\n      sub(shl(0xa0, 0x01), 0x01)\n      swap1\n      swap3\n      and\n      dup3\n      mstore\n      mload\n      swap1\n      dup2\n      swap1\n      sub\n      0x20\n      add\n      swap1\n      return\n        /* \"strategies/StrategyMiniChefLP.sol\":48859:49026  function balanceOfPool() public view returns (uint256) {... */\n    tag_4:\n      tag_59\n      tag_60\n      jump\t// in\n    tag_59:\n      0x40\n      dup1\n      mload\n      swap2\n      dup3\n      mstore\n      mload\n      swap1\n      dup2\n      swap1\n      sub\n      0x20\n      add\n      swap1\n      return\n        /* \"strategies/StrategyMiniChefLP.sol\":43188:43209  address public native */\n    tag_5:\n      tag_56\n      tag_62\n      jump\t// in\n        /* \"strategies/StrategyMiniChefLP.sol\":43242:43261  address public want */\n    tag_6:\n      tag_56\n      tag_64\n      jump\t// in\n        /* \"strategies/StrategyMiniChefLP.sol\":43355:43374  address public chef */\n    tag_7:\n      tag_56\n      tag_66\n      jump\t// in\n        /* \"strategies/StrategyMiniChefLP.sol\":40197:40222  address public strategist */\n    tag_8:\n      tag_56\n      tag_68\n      jump\t// in\n        /* \"strategies/StrategyMiniChefLP.sol\":40228:40252  address public unirouter */\n    tag_9:\n      tag_56\n      tag_70\n      jump\t// in\n        /* \"strategies/StrategyMiniChefLP.sol\":42659:42857  function setCallFee(uint256 _fee) external onlyManager {... */\n    tag_10:\n      tag_71\n      0x04\n      dup1\n      calldatasize\n      sub\n      0x20\n      dup2\n      lt\n      iszero\n      tag_72\n      jumpi\n      0x00\n      dup1\n      revert\n    tag_72:\n      pop\n      calldataload\n      tag_73\n      jump\t// in\n    tag_71:\n      stop\n        /* \"strategies/StrategyMiniChefLP.sol\":42380:42419  uint constant public MAX_CALL_FEE = 111 */\n    tag_11:\n      tag_59\n      tag_75\n      jump\t// in\n        /* \"strategies/StrategyMiniChefLP.sol\":45508:46239  function withdraw(uint256 _amount) external {... */\n    tag_12:\n      tag_71\n      0x04\n      dup1\n      calldatasize\n      sub\n      0x20\n      dup2\n      lt\n      iszero\n      tag_77\n      jumpi\n      0x00\n      dup1\n      revert\n    tag_77:\n      pop\n      calldataload\n      tag_78\n      jump\t// in\n        /* \"strategies/StrategyMiniChefLP.sol\":43506:43539  address[] public outputToLp0Route */\n    tag_13:\n      tag_56\n      0x04\n      dup1\n      calldatasize\n      sub\n      0x20\n      dup2\n      lt\n      iszero\n      tag_80\n      jumpi\n      0x00\n      dup1\n      revert\n    tag_80:\n      pop\n      calldataload\n      tag_81\n      jump\t// in\n        /* \"strategies/StrategyMiniChefLP.sol\":43380:43401  uint256 public poolId */\n    tag_14:\n      tag_59\n      tag_83\n      jump\t// in\n        /* \"strategies/StrategyMiniChefLP.sol\":49702:49817  function unpause() external onlyManager {... */\n    tag_15:\n      tag_71\n      tag_85\n      jump\t// in\n        /* \"strategies/StrategyMiniChefLP.sol\":46299:46519  function harvest() external whenNotPaused onlyEOA {... */\n    tag_16:\n      tag_71\n      tag_87\n      jump\t// in\n        /* \"strategies/StrategyMiniChefLP.sol\":49471:49599  function panic() public onlyManager {... */\n    tag_17:\n      tag_71\n      tag_89\n      jump\t// in\n        /* \"strategies/StrategyMiniChefLP.sol\":42476:42519  uint constant public WITHDRAWAL_MAX = 10000 */\n    tag_18:\n      tag_59\n      tag_91\n      jump\t// in\n        /* \"strategies/StrategyMiniChefLP.sol\":42170:42214  function beforeDeposit() external virtual {} */\n    tag_19:\n      tag_71\n      tag_217\n      jump\t// in\n        /* \"strategies/StrategyMiniChefLP.sol\":38956:39040  function paused() public view virtual returns (bool) {... */\n    tag_20:\n      tag_94\n      tag_95\n      jump\t// in\n    tag_94:\n      0x40\n      dup1\n      mload\n      swap2\n      iszero\n      iszero\n      dup3\n      mstore\n      mload\n      swap1\n      dup2\n      swap1\n      sub\n      0x20\n      add\n      swap1\n      return\n        /* \"strategies/StrategyMiniChefLP.sol\":41900:42036  function setEvolleFeeRecipient(address _evolleFeeRecipient) external onlyOwner {... */\n    tag_21:\n      tag_71\n      0x04\n      dup1\n      calldatasize\n      sub\n      0x20\n      dup2\n      lt\n      iszero\n      tag_97\n      jumpi\n      0x00\n      dup1\n      revert\n    tag_97:\n      pop\n      calldataload\n      sub(shl(0xa0, 0x01), 0x01)\n      and\n      tag_98\n      jump\t// in\n        /* \"strategies/StrategyMiniChefLP.sol\":43267:43290  address public lpToken0 */\n    tag_22:\n      tag_56\n      tag_100\n      jump\t// in\n        /* \"strategies/StrategyMiniChefLP.sol\":41806:41890  function setVault(address _vault) external onlyOwner {... */\n    tag_23:\n      tag_71\n      0x04\n      dup1\n      calldatasize\n      sub\n      0x20\n      dup2\n      lt\n      iszero\n      tag_102\n      jumpi\n      0x00\n      dup1\n      revert\n    tag_102:\n      pop\n      calldataload\n      sub(shl(0xa0, 0x01), 0x01)\n      and\n      tag_103\n      jump\t// in\n        /* \"strategies/StrategyMiniChefLP.sol\":37363:37508  function renounceOwnership() public virtual onlyOwner {... */\n    tag_24:\n      tag_71\n      tag_105\n      jump\t// in\n        /* \"strategies/StrategyMiniChefLP.sol\":48487:48598  function balanceOf() public view returns (uint256) {... */\n    tag_25:\n      tag_59\n      tag_107\n      jump\t// in\n        /* \"strategies/StrategyMiniChefLP.sol\":41103:41193  function setKeeper(address _keeper) external onlyManager {... */\n    tag_26:\n      tag_71\n      0x04\n      dup1\n      calldatasize\n      sub\n      0x20\n      dup2\n      lt\n      iszero\n      tag_109\n      jumpi\n      0x00\n      dup1\n      revert\n    tag_109:\n      pop\n      calldataload\n      sub(shl(0xa0, 0x01), 0x01)\n      and\n      tag_110\n      jump\t// in\n        /* \"strategies/StrategyMiniChefLP.sol\":42294:42333  uint constant public STRATEGIST_FEE = 0 */\n    tag_27:\n      tag_59\n      tag_112\n      jump\t// in\n        /* \"strategies/StrategyMiniChefLP.sol\":49605:49696  function pause() public onlyManager {... */\n    tag_28:\n      tag_71\n      tag_114\n      jump\t// in\n        /* \"strategies/StrategyMiniChefLP.sol\":43296:43319  address public lpToken1 */\n    tag_29:\n      tag_56\n      tag_116\n      jump\t// in\n        /* \"strategies/StrategyMiniChefLP.sol\":42526:42556  uint public withdrawalFee = 10 */\n    tag_30:\n      tag_59\n      tag_118\n      jump\t// in\n        /* \"strategies/StrategyMiniChefLP.sol\":36731:36816  function owner() public view virtual returns (address) {... */\n    tag_31:\n      tag_56\n      tag_120\n      jump\t// in\n        /* \"strategies/StrategyMiniChefLP.sol\":42563:42588  uint public callFee = 111 */\n    tag_32:\n      tag_59\n      tag_122\n      jump\t// in\n        /* \"strategies/StrategyMiniChefLP.sol\":42863:43015  function setWithdrawalFee(uint256 _fee) external onlyManager {... */\n    tag_33:\n      tag_71\n      0x04\n      dup1\n      calldatasize\n      sub\n      0x20\n      dup2\n      lt\n      iszero\n      tag_124\n      jumpi\n      0x00\n      dup1\n      revert\n    tag_124:\n      pop\n      calldataload\n      tag_125\n      jump\t// in\n        /* \"strategies/StrategyMiniChefLP.sol\":40170:40191  address public keeper */\n    tag_34:\n      tag_56\n      tag_127\n      jump\t// in\n        /* \"strategies/StrategyMiniChefLP.sol\":42339:42374  uint constant public MAX_FEE = 1000 */\n    tag_35:\n      tag_59\n      tag_129\n      jump\t// in\n        /* \"strategies/StrategyMiniChefLP.sol\":43422:43458  address[] public outputToNativeRoute */\n    tag_36:\n      tag_56\n      0x04\n      dup1\n      calldatasize\n      sub\n      0x20\n      dup2\n      lt\n      iszero\n      tag_131\n      jumpi\n      0x00\n      dup1\n      revert\n    tag_131:\n      pop\n      calldataload\n      tag_132\n      jump\t// in\n        /* \"strategies/StrategyMiniChefLP.sol\":48662:48778  function balanceOfWant() public view returns (uint256) {... */\n    tag_37:\n      tag_59\n      tag_134\n      jump\t// in\n        /* \"strategies/StrategyMiniChefLP.sol\":41332:41484  function setStrategist(address _strategist) external {... */\n    tag_38:\n      tag_71\n      0x04\n      dup1\n      calldatasize\n      sub\n      0x20\n      dup2\n      lt\n      iszero\n      tag_136\n      jumpi\n      0x00\n      dup1\n      revert\n    tag_136:\n      pop\n      calldataload\n      sub(shl(0xa0, 0x01), 0x01)\n      and\n      tag_137\n      jump\t// in\n        /* \"strategies/StrategyMiniChefLP.sol\":45281:45502  function deposit() public whenNotPaused {... */\n    tag_39:\n      tag_71\n      tag_139\n      jump\t// in\n        /* \"strategies/StrategyMiniChefLP.sol\":41610:41710  function setUnirouter(address _unirouter) external onlyOwner {... */\n    tag_40:\n      tag_71\n      0x04\n      dup1\n      calldatasize\n      sub\n      0x20\n      dup2\n      lt\n      iszero\n      tag_141\n      jumpi\n      0x00\n      dup1\n      revert\n    tag_141:\n      pop\n      calldataload\n      sub(shl(0xa0, 0x01), 0x01)\n      and\n      tag_142\n      jump\t// in\n        /* \"strategies/StrategyMiniChefLP.sol\":42426:42470  uint constant public WITHDRAWAL_FEE_CAP = 50 */\n    tag_41:\n      tag_59\n      tag_144\n      jump\t// in\n        /* \"strategies/StrategyMiniChefLP.sol\":40284:40317  address public evolleFeeRecipient */\n    tag_42:\n      tag_56\n      tag_146\n      jump\t// in\n        /* \"strategies/StrategyMiniChefLP.sol\":43215:43236  address public output */\n    tag_43:\n      tag_56\n      tag_148\n      jump\t// in\n        /* \"strategies/StrategyMiniChefLP.sol\":37657:37897  function transferOwnership(address newOwner) public virtual onlyOwner {... */\n    tag_44:\n      tag_71\n      0x04\n      dup1\n      calldatasize\n      sub\n      0x20\n      dup2\n      lt\n      iszero\n      tag_150\n      jumpi\n      0x00\n      dup1\n      revert\n    tag_150:\n      pop\n      calldataload\n      sub(shl(0xa0, 0x01), 0x01)\n      and\n      tag_151\n      jump\t// in\n        /* \"strategies/StrategyMiniChefLP.sol\":49123:49392  function retireStrat() external {... */\n    tag_45:\n      tag_71\n      tag_153\n      jump\t// in\n        /* \"strategies/StrategyMiniChefLP.sol\":40258:40278  address public vault */\n    tag_46:\n      tag_56\n      tag_155\n      jump\t// in\n        /* \"strategies/StrategyMiniChefLP.sol\":42594:42652  uint public evolleFee = MAX_FEE - STRATEGIST_FEE - callFee */\n    tag_47:\n      tag_59\n      tag_157\n      jump\t// in\n        /* \"strategies/StrategyMiniChefLP.sol\":43545:43578  address[] public outputToLp1Route */\n    tag_48:\n      tag_56\n      0x04\n      dup1\n      calldatasize\n      sub\n      0x20\n      dup2\n      lt\n      iszero\n      tag_159\n      jumpi\n      0x00\n      dup1\n      revert\n    tag_159:\n      pop\n      calldataload\n      tag_160\n      jump\t// in\n        /* \"strategies/StrategyMiniChefLP.sol\":43464:43500  address[] public nativeToOutputRoute */\n    tag_58:\n      0x11\n      dup2\n      dup2\n      sload\n      dup2\n      lt\n      tag_163\n      jumpi\n      invalid\n    tag_163:\n      0x00\n      swap2\n      dup3\n      mstore\n      0x20\n      swap1\n      swap2\n      keccak256\n      add\n      sload\n      sub(shl(0xa0, 0x01), 0x01)\n      and\n      swap1\n      pop\n      dup2\n      jump\t// out\n        /* \"strategies/StrategyMiniChefLP.sol\":48859:49026  function balanceOfPool() public view returns (uint256) {... */\n    tag_60:\n        /* \"strategies/StrategyMiniChefLP.sol\":48958:48962  chef */\n      sload(0x0e)\n        /* \"strategies/StrategyMiniChefLP.sol\":48973:48979  poolId */\n      sload(0x0f)\n        /* \"strategies/StrategyMiniChefLP.sol\":48946:48995  IMiniChefV2(chef).userInfo(poolId, address(this)) */\n      0x40\n      dup1\n      mload\n      shl(0xe0, 0x93f1a40b)\n      dup2\n      mstore\n      0x04\n      dup2\n      add\n      swap3\n      swap1\n      swap3\n      mstore\n        /* \"strategies/StrategyMiniChefLP.sol\":48989:48993  this */\n      address\n        /* \"strategies/StrategyMiniChefLP.sol\":48946:48995  IMiniChefV2(chef).userInfo(poolId, address(this)) */\n      0x24\n      dup4\n      add\n      mstore\n      dup1\n      mload\n        /* \"strategies/StrategyMiniChefLP.sol\":48905:48912  uint256 */\n      0x00\n      swap4\n      dup5\n      swap4\n      sub(shl(0xa0, 0x01), 0x01)\n        /* \"strategies/StrategyMiniChefLP.sol\":48958:48962  chef */\n      swap1\n      swap2\n      and\n      swap3\n        /* \"strategies/StrategyMiniChefLP.sol\":48946:48972  IMiniChefV2(chef).userInfo */\n      0x93f1a40b\n      swap3\n        /* \"strategies/StrategyMiniChefLP.sol\":48946:48995  IMiniChefV2(chef).userInfo(poolId, address(this)) */\n      0x44\n      dup1\n      dup5\n      add\n      swap4\n      dup3\n      swap1\n      sub\n      add\n      dup2\n        /* \"strategies/StrategyMiniChefLP.sol\":48958:48962  chef */\n      dup7\n        /* \"strategies/StrategyMiniChefLP.sol\":48946:48995  IMiniChefV2(chef).userInfo(poolId, address(this)) */\n      dup1\n      extcodesize\n      iszero\n      dup1\n      iszero\n      tag_166\n      jumpi\n      0x00\n      dup1\n      revert\n    tag_166:\n      pop\n      gas\n      staticcall\n      iszero\n      dup1\n      iszero\n      tag_168\n      jumpi\n      returndatasize\n      0x00\n      dup1\n      returndatacopy\n      revert(0x00, returndatasize)\n    tag_168:\n      pop\n      pop\n      pop\n      pop\n      mload(0x40)\n      returndatasize\n      0x40\n      dup2\n      lt\n      iszero\n      tag_169\n      jumpi\n      0x00\n      dup1\n      revert\n    tag_169:\n      pop\n      mload\n      swap2\n      pop\n      pop\n        /* \"strategies/StrategyMiniChefLP.sol\":48859:49026  function balanceOfPool() public view returns (uint256) {... */\n      swap1\n      jump\t// out\n        /* \"strategies/StrategyMiniChefLP.sol\":43188:43209  address public native */\n    tag_62:\n      and(sub(shl(0xa0, 0x01), 0x01), sload(0x09))\n      dup2\n      jump\t// out\n        /* \"strategies/StrategyMiniChefLP.sol\":43242:43261  address public want */\n    tag_64:\n      and(sub(shl(0xa0, 0x01), 0x01), sload(0x0b))\n      dup2\n      jump\t// out\n        /* \"strategies/StrategyMiniChefLP.sol\":43355:43374  address public chef */\n    tag_66:\n      and(sub(shl(0xa0, 0x01), 0x01), sload(0x0e))\n      dup2\n      jump\t// out\n        /* \"strategies/StrategyMiniChefLP.sol\":40197:40222  address public strategist */\n    tag_68:\n      and(sub(shl(0xa0, 0x01), 0x01), sload(0x02))\n      dup2\n      jump\t// out\n        /* \"strategies/StrategyMiniChefLP.sol\":40228:40252  address public unirouter */\n    tag_70:\n      and(sub(shl(0xa0, 0x01), 0x01), sload(0x03))\n      dup2\n      jump\t// out\n        /* \"strategies/StrategyMiniChefLP.sol\":42659:42857  function setCallFee(uint256 _fee) external onlyManager {... */\n    tag_73:\n        /* \"strategies/StrategyMiniChefLP.sol\":40784:40791  owner() */\n      tag_171\n        /* \"strategies/StrategyMiniChefLP.sol\":40784:40789  owner */\n      tag_120\n        /* \"strategies/StrategyMiniChefLP.sol\":40784:40791  owner() */\n      jump\t// in\n    tag_171:\n      sub(shl(0xa0, 0x01), 0x01)\n        /* \"strategies/StrategyMiniChefLP.sol\":40770:40791  msg.sender == owner() */\n      and\n        /* \"strategies/StrategyMiniChefLP.sol\":40770:40780  msg.sender */\n      caller\n      sub(shl(0xa0, 0x01), 0x01)\n        /* \"strategies/StrategyMiniChefLP.sol\":40770:40791  msg.sender == owner() */\n      and\n      eq\n        /* \"strategies/StrategyMiniChefLP.sol\":40770:40815  msg.sender == owner() || msg.sender == keeper */\n      dup1\n      tag_172\n      jumpi\n      pop\n        /* \"strategies/StrategyMiniChefLP.sol\":40809:40815  keeper */\n      and(sub(shl(0xa0, 0x01), 0x01), sload(0x01))\n        /* \"strategies/StrategyMiniChefLP.sol\":40795:40805  msg.sender */\n      caller\n        /* \"strategies/StrategyMiniChefLP.sol\":40795:40815  msg.sender == keeper */\n      eq\n        /* \"strategies/StrategyMiniChefLP.sol\":40770:40815  msg.sender == owner() || msg.sender == keeper */\n    tag_172:\n        /* \"strategies/StrategyMiniChefLP.sol\":40762:40828  require(msg.sender == owner() || msg.sender == keeper, \"!manager\") */\n      tag_173\n      jumpi\n      0x40\n      dup1\n      mload\n      shl(0xe5, 0x461bcd)\n      dup2\n      mstore\n      0x20\n      0x04\n      dup3\n      add\n      mstore\n      0x08\n      0x24\n      dup3\n      add\n      mstore\n      shl(0xc1, 0x10b6b0b730b3b2b9)\n      0x44\n      dup3\n      add\n      mstore\n      swap1\n      mload\n      swap1\n      dup2\n      swap1\n      sub\n      0x64\n      add\n      swap1\n      revert\n    tag_173:\n        /* \"strategies/StrategyMiniChefLP.sol\":42416:42419  111 */\n      0x6f\n        /* \"strategies/StrategyMiniChefLP.sol\":42732:42736  _fee */\n      dup2\n        /* \"strategies/StrategyMiniChefLP.sol\":42732:42752  _fee <= MAX_CALL_FEE */\n      gt\n      iszero\n        /* \"strategies/StrategyMiniChefLP.sol\":42724:42761  require(_fee <= MAX_CALL_FEE, \"!cap\") */\n      tag_175\n      jumpi\n      0x40\n      dup1\n      mload\n      shl(0xe5, 0x461bcd)\n      dup2\n      mstore\n      0x20\n      0x04\n      dup1\n      dup4\n      add\n      swap2\n      swap1\n      swap2\n      mstore\n      0x24\n      dup3\n      add\n      mstore\n      shl(0xe4, 0x02163617)\n      0x44\n      dup3\n      add\n      mstore\n      swap1\n      mload\n      swap1\n      dup2\n      swap1\n      sub\n      0x64\n      add\n      swap1\n      revert\n    tag_175:\n        /* \"strategies/StrategyMiniChefLP.sol\":42780:42787  callFee */\n      0x07\n        /* \"strategies/StrategyMiniChefLP.sol\":42780:42794  callFee = _fee */\n      dup2\n      swap1\n      sstore\n        /* \"strategies/StrategyMiniChefLP.sol\":42370:42374  1000 */\n      0x03e8\n        /* \"strategies/StrategyMiniChefLP.sol\":42816:42850  MAX_FEE - STRATEGIST_FEE - callFee */\n      sub\n        /* \"strategies/StrategyMiniChefLP.sol\":42804:42813  evolleFee */\n      0x08\n        /* \"strategies/StrategyMiniChefLP.sol\":42804:42850  evolleFee = MAX_FEE - STRATEGIST_FEE - callFee */\n      sstore\n        /* \"strategies/StrategyMiniChefLP.sol\":42659:42857  function setCallFee(uint256 _fee) external onlyManager {... */\n      jump\t// out\n        /* \"strategies/StrategyMiniChefLP.sol\":42380:42419  uint constant public MAX_CALL_FEE = 111 */\n    tag_75:\n        /* \"strategies/StrategyMiniChefLP.sol\":42416:42419  111 */\n      0x6f\n        /* \"strategies/StrategyMiniChefLP.sol\":42380:42419  uint constant public MAX_CALL_FEE = 111 */\n      dup2\n      jump\t// out\n        /* \"strategies/StrategyMiniChefLP.sol\":45508:46239  function withdraw(uint256 _amount) external {... */\n    tag_78:\n        /* \"strategies/StrategyMiniChefLP.sol\":45584:45589  vault */\n      and(sub(shl(0xa0, 0x01), 0x01), sload(0x04))\n        /* \"strategies/StrategyMiniChefLP.sol\":45570:45580  msg.sender */\n      caller\n        /* \"strategies/StrategyMiniChefLP.sol\":45570:45589  msg.sender == vault */\n      eq\n        /* \"strategies/StrategyMiniChefLP.sol\":45562:45600  require(msg.sender == vault, \"!vault\") */\n      tag_177\n      jumpi\n      0x40\n      dup1\n      mload\n      shl(0xe5, 0x461bcd)\n      dup2\n      mstore\n      0x20\n      0x04\n      dup3\n      add\n      mstore\n      0x06\n      0x24\n      dup3\n      add\n      mstore\n      shl(0xd2, 0x085d985d5b1d)\n      0x44\n      dup3\n      add\n      mstore\n      swap1\n      mload\n      swap1\n      dup2\n      swap1\n      sub\n      0x64\n      add\n      swap1\n      revert\n    tag_177:\n        /* \"strategies/StrategyMiniChefLP.sol\":45636:45640  want */\n      sload(0x0b)\n        /* \"strategies/StrategyMiniChefLP.sol\":45629:45666  IERC20(want).balanceOf(address(this)) */\n      0x40\n      dup1\n      mload\n      shl(0xe0, 0x70a08231)\n      dup2\n      mstore\n        /* \"strategies/StrategyMiniChefLP.sol\":45660:45664  this */\n      address\n        /* \"strategies/StrategyMiniChefLP.sol\":45629:45666  IERC20(want).balanceOf(address(this)) */\n      0x04\n      dup3\n      add\n      mstore\n      swap1\n      mload\n        /* \"strategies/StrategyMiniChefLP.sol\":45611:45626  uint256 wantBal */\n      0x00\n      swap3\n      sub(shl(0xa0, 0x01), 0x01)\n        /* \"strategies/StrategyMiniChefLP.sol\":45636:45640  want */\n      and\n      swap2\n        /* \"strategies/StrategyMiniChefLP.sol\":45629:45651  IERC20(want).balanceOf */\n      0x70a08231\n      swap2\n        /* \"strategies/StrategyMiniChefLP.sol\":45629:45666  IERC20(want).balanceOf(address(this)) */\n      0x24\n      dup1\n      dup4\n      add\n      swap3\n      0x20\n      swap3\n      swap2\n      swap1\n      dup3\n      swap1\n      sub\n      add\n      dup2\n        /* \"strategies/StrategyMiniChefLP.sol\":45636:45640  want */\n      dup7\n        /* \"strategies/StrategyMiniChefLP.sol\":45629:45666  IERC20(want).balanceOf(address(this)) */\n      dup1\n      extcodesize\n      iszero\n      dup1\n      iszero\n      tag_178\n      jumpi\n      0x00\n      dup1\n      revert\n    tag_178:\n      pop\n      gas\n      staticcall\n      iszero\n      dup1\n      iszero\n      tag_180\n      jumpi\n      returndatasize\n      0x00\n      dup1\n      returndatacopy\n      revert(0x00, returndatasize)\n    tag_180:\n      pop\n      pop\n      pop\n      pop\n      mload(0x40)\n      returndatasize\n      0x20\n      dup2\n      lt\n      iszero\n      tag_181\n      jumpi\n      0x00\n      dup1\n      revert\n    tag_181:\n      pop\n      mload\n      swap1\n      pop\n        /* \"strategies/StrategyMiniChefLP.sol\":45681:45698  wantBal < _amount */\n      dup2\n      dup2\n      lt\n        /* \"strategies/StrategyMiniChefLP.sol\":45677:45857  if (wantBal < _amount) {... */\n      iszero\n      tag_182\n      jumpi\n        /* \"strategies/StrategyMiniChefLP.sol\":45726:45730  chef */\n      sload(0x0e)\n        /* \"strategies/StrategyMiniChefLP.sol\":45741:45747  poolId */\n      sload(0x0f)\n      sub(shl(0xa0, 0x01), 0x01)\n        /* \"strategies/StrategyMiniChefLP.sol\":45726:45730  chef */\n      swap1\n      swap2\n      and\n      swap1\n        /* \"strategies/StrategyMiniChefLP.sol\":45714:45740  IMiniChefV2(chef).withdraw */\n      0x0ad58d2f\n      swap1\n        /* \"strategies/StrategyMiniChefLP.sol\":45749:45769  _amount.sub(wantBal) */\n      tag_183\n        /* \"strategies/StrategyMiniChefLP.sol\":45749:45756  _amount */\n      dup6\n        /* \"strategies/StrategyMiniChefLP.sol\":45761:45768  wantBal */\n      dup6\n        /* \"strategies/StrategyMiniChefLP.sol\":45749:45760  _amount.sub */\n      tag_184\n        /* \"strategies/StrategyMiniChefLP.sol\":45749:45769  _amount.sub(wantBal) */\n      jump\t// in\n    tag_183:\n        /* \"strategies/StrategyMiniChefLP.sol\":45779:45783  this */\n      address\n        /* \"strategies/StrategyMiniChefLP.sol\":45714:45785  IMiniChefV2(chef).withdraw(poolId, _amount.sub(wantBal), address(this)) */\n      mload(0x40)\n      dup5\n      0xffffffff\n      and\n      0xe0\n      shl\n      dup2\n      mstore\n      0x04\n      add\n      dup1\n      dup5\n      dup2\n      mstore\n      0x20\n      add\n      dup4\n      dup2\n      mstore\n      0x20\n      add\n      dup3\n      sub(shl(0xa0, 0x01), 0x01)\n      and\n      dup2\n      mstore\n      0x20\n      add\n      swap4\n      pop\n      pop\n      pop\n      pop\n      0x00\n      mload(0x40)\n      dup1\n      dup4\n      sub\n      dup2\n      0x00\n      dup8\n      dup1\n      extcodesize\n      iszero\n      dup1\n      iszero\n      tag_185\n      jumpi\n      0x00\n      dup1\n      revert\n    tag_185:\n      pop\n      gas\n      call\n      iszero\n      dup1\n      iszero\n      tag_187\n      jumpi\n      returndatasize\n      0x00\n      dup1\n      returndatacopy\n      revert(0x00, returndatasize)\n    tag_187:\n      pop\n      pop\n        /* \"strategies/StrategyMiniChefLP.sol\":45816:45820  want */\n      sload(0x0b)\n        /* \"strategies/StrategyMiniChefLP.sol\":45809:45846  IERC20(want).balanceOf(address(this)) */\n      0x40\n      dup1\n      mload\n      shl(0xe0, 0x70a08231)\n      dup2\n      mstore\n        /* \"strategies/StrategyMiniChefLP.sol\":45840:45844  this */\n      address\n        /* \"strategies/StrategyMiniChefLP.sol\":45809:45846  IERC20(want).balanceOf(address(this)) */\n      0x04\n      dup3\n      add\n      mstore\n      swap1\n      mload\n      sub(shl(0xa0, 0x01), 0x01)\n        /* \"strategies/StrategyMiniChefLP.sol\":45816:45820  want */\n      swap1\n      swap3\n      and\n      swap4\n      pop\n        /* \"strategies/StrategyMiniChefLP.sol\":45809:45831  IERC20(want).balanceOf */\n      0x70a08231\n      swap3\n      pop\n        /* \"strategies/StrategyMiniChefLP.sol\":45809:45846  IERC20(want).balanceOf(address(this)) */\n      0x24\n      dup1\n      dup3\n      add\n      swap3\n      0x20\n      swap3\n      swap1\n      swap2\n      swap1\n      dup3\n      swap1\n      sub\n      add\n      dup2\n        /* \"strategies/StrategyMiniChefLP.sol\":45816:45820  want */\n      dup7\n        /* \"strategies/StrategyMiniChefLP.sol\":45809:45846  IERC20(want).balanceOf(address(this)) */\n      dup1\n      extcodesize\n      iszero\n      dup1\n      iszero\n      tag_188\n      jumpi\n      0x00\n      dup1\n      revert\n    tag_188:\n      pop\n      gas\n      staticcall\n      iszero\n      dup1\n      iszero\n      tag_190\n      jumpi\n      returndatasize\n      0x00\n      dup1\n      returndatacopy\n      revert(0x00, returndatasize)\n    tag_190:\n      pop\n      pop\n      pop\n      pop\n      mload(0x40)\n      returndatasize\n      0x20\n      dup2\n      lt\n      iszero\n      tag_191\n      jumpi\n      0x00\n      dup1\n      revert\n    tag_191:\n      pop\n      mload\n      swap1\n      pop\n        /* \"strategies/StrategyMiniChefLP.sol\":45677:45857  if (wantBal < _amount) {... */\n    tag_182:\n        /* \"strategies/StrategyMiniChefLP.sol\":45881:45888  _amount */\n      dup2\n        /* \"strategies/StrategyMiniChefLP.sol\":45871:45878  wantBal */\n      dup2\n        /* \"strategies/StrategyMiniChefLP.sol\":45871:45888  wantBal > _amount */\n      gt\n        /* \"strategies/StrategyMiniChefLP.sol\":45867:45932  if (wantBal > _amount) {... */\n      iszero\n      tag_192\n      jumpi\n      pop\n        /* \"strategies/StrategyMiniChefLP.sol\":45914:45921  _amount */\n      dup1\n        /* \"strategies/StrategyMiniChefLP.sol\":45867:45932  if (wantBal > _amount) {... */\n    tag_192:\n        /* \"strategies/StrategyMiniChefLP.sol\":45959:45966  owner() */\n      tag_193\n        /* \"strategies/StrategyMiniChefLP.sol\":45959:45964  owner */\n      tag_120\n        /* \"strategies/StrategyMiniChefLP.sol\":45959:45966  owner() */\n      jump\t// in\n    tag_193:\n      sub(shl(0xa0, 0x01), 0x01)\n        /* \"strategies/StrategyMiniChefLP.sol\":45946:45966  tx.origin == owner() */\n      and\n        /* \"strategies/StrategyMiniChefLP.sol\":45946:45955  tx.origin */\n      origin\n      sub(shl(0xa0, 0x01), 0x01)\n        /* \"strategies/StrategyMiniChefLP.sol\":45946:45966  tx.origin == owner() */\n      and\n      eq\n        /* \"strategies/StrategyMiniChefLP.sol\":45946:45978  tx.origin == owner() || paused() */\n      dup1\n      tag_195\n      jumpi\n      pop\n        /* \"strategies/StrategyMiniChefLP.sol\":45970:45978  paused() */\n      tag_195\n        /* \"strategies/StrategyMiniChefLP.sol\":45970:45976  paused */\n      tag_95\n        /* \"strategies/StrategyMiniChefLP.sol\":45970:45978  paused() */\n      jump\t// in\n    tag_195:\n        /* \"strategies/StrategyMiniChefLP.sol\":45942:46233  if (tx.origin == owner() || paused()) {... */\n      iszero\n      tag_196\n      jumpi\n        /* \"strategies/StrategyMiniChefLP.sol\":46020:46025  vault */\n      sload(0x04)\n        /* \"strategies/StrategyMiniChefLP.sol\":46001:46005  want */\n      sload(0x0b)\n        /* \"strategies/StrategyMiniChefLP.sol\":45994:46035  IERC20(want).safeTransfer(vault, wantBal) */\n      tag_197\n      swap2\n      sub(shl(0xa0, 0x01), 0x01)\n        /* \"strategies/StrategyMiniChefLP.sol\":46001:46005  want */\n      swap2\n      dup3\n      and\n      swap2\n        /* \"strategies/StrategyMiniChefLP.sol\":46020:46025  vault */\n      and\n        /* \"strategies/StrategyMiniChefLP.sol\":46027:46034  wantBal */\n      dup4\n        /* \"strategies/StrategyMiniChefLP.sol\":45994:46019  IERC20(want).safeTransfer */\n      tag_198\n        /* \"strategies/StrategyMiniChefLP.sol\":45994:46035  IERC20(want).safeTransfer(vault, wantBal) */\n      jump\t// in\n    tag_197:\n        /* \"strategies/StrategyMiniChefLP.sol\":45942:46233  if (tx.origin == owner() || paused()) {... */\n      jump(tag_199)\n    tag_196:\n        /* \"strategies/StrategyMiniChefLP.sol\":46066:46093  uint256 withdrawalFeeAmount */\n      0x00\n        /* \"strategies/StrategyMiniChefLP.sol\":46096:46142  wantBal.mul(withdrawalFee).div(WITHDRAWAL_MAX) */\n      tag_200\n        /* \"strategies/StrategyMiniChefLP.sol\":42514:42519  10000 */\n      0x2710\n        /* \"strategies/StrategyMiniChefLP.sol\":46096:46122  wantBal.mul(withdrawalFee) */\n      tag_201\n        /* \"strategies/StrategyMiniChefLP.sol\":46108:46121  withdrawalFee */\n      sload(0x06)\n        /* \"strategies/StrategyMiniChefLP.sol\":46096:46103  wantBal */\n      dup6\n        /* \"strategies/StrategyMiniChefLP.sol\":46096:46107  wantBal.mul */\n      tag_202\n      swap1\n        /* \"strategies/StrategyMiniChefLP.sol\":46096:46122  wantBal.mul(withdrawalFee) */\n      swap2\n      swap1\n      0xffffffff\n      and\n      jump\t// in\n    tag_201:\n        /* \"strategies/StrategyMiniChefLP.sol\":46096:46126  wantBal.mul(withdrawalFee).div */\n      swap1\n      tag_203\n        /* \"strategies/StrategyMiniChefLP.sol\":46096:46142  wantBal.mul(withdrawalFee).div(WITHDRAWAL_MAX) */\n      jump\t// in\n    tag_200:\n        /* \"strategies/StrategyMiniChefLP.sol\":46182:46187  vault */\n      sload(0x04)\n        /* \"strategies/StrategyMiniChefLP.sol\":46066:46142  uint256 withdrawalFeeAmount = wantBal.mul(withdrawalFee).div(WITHDRAWAL_MAX) */\n      swap1\n      swap2\n      pop\n        /* \"strategies/StrategyMiniChefLP.sol\":46156:46222  IERC20(want).safeTransfer(vault, wantBal.sub(withdrawalFeeAmount)) */\n      tag_204\n      swap1\n      sub(shl(0xa0, 0x01), 0x01)\n        /* \"strategies/StrategyMiniChefLP.sol\":46182:46187  vault */\n      and\n        /* \"strategies/StrategyMiniChefLP.sol\":46189:46221  wantBal.sub(withdrawalFeeAmount) */\n      tag_205\n        /* \"strategies/StrategyMiniChefLP.sol\":46189:46196  wantBal */\n      dup5\n        /* \"strategies/StrategyMiniChefLP.sol\":46066:46142  uint256 withdrawalFeeAmount = wantBal.mul(withdrawalFee).div(WITHDRAWAL_MAX) */\n      dup5\n        /* \"strategies/StrategyMiniChefLP.sol\":46189:46200  wantBal.sub */\n      tag_184\n        /* \"strategies/StrategyMiniChefLP.sol\":46189:46221  wantBal.sub(withdrawalFeeAmount) */\n      jump\t// in\n    tag_205:\n        /* \"strategies/StrategyMiniChefLP.sol\":46163:46167  want */\n      and(sub(shl(0xa0, 0x01), 0x01), sload(0x0b))\n      swap2\n        /* \"strategies/StrategyMiniChefLP.sol\":46156:46222  IERC20(want).safeTransfer(vault, wantBal.sub(withdrawalFeeAmount)) */\n      swap1\n        /* \"strategies/StrategyMiniChefLP.sol\":46156:46181  IERC20(want).safeTransfer */\n      tag_198\n        /* \"strategies/StrategyMiniChefLP.sol\":46156:46222  IERC20(want).safeTransfer(vault, wantBal.sub(withdrawalFeeAmount)) */\n      jump\t// in\n    tag_204:\n        /* \"strategies/StrategyMiniChefLP.sol\":45942:46233  if (tx.origin == owner() || paused()) {... */\n      pop\n    tag_199:\n        /* \"strategies/StrategyMiniChefLP.sol\":45508:46239  function withdraw(uint256 _amount) external {... */\n      pop\n      pop\n      jump\t// out\n        /* \"strategies/StrategyMiniChefLP.sol\":43506:43539  address[] public outputToLp0Route */\n    tag_81:\n      0x12\n      dup2\n      dup2\n      sload\n      dup2\n      lt\n      tag_163\n      jumpi\n      invalid\n        /* \"strategies/StrategyMiniChefLP.sol\":43380:43401  uint256 public poolId */\n    tag_83:\n      sload(0x0f)\n      dup2\n      jump\t// out\n        /* \"strategies/StrategyMiniChefLP.sol\":49702:49817  function unpause() external onlyManager {... */\n    tag_85:\n        /* \"strategies/StrategyMiniChefLP.sol\":40784:40791  owner() */\n      tag_209\n        /* \"strategies/StrategyMiniChefLP.sol\":40784:40789  owner */\n      tag_120\n        /* \"strategies/StrategyMiniChefLP.sol\":40784:40791  owner() */\n      jump\t// in\n    tag_209:\n      sub(shl(0xa0, 0x01), 0x01)\n        /* \"strategies/StrategyMiniChefLP.sol\":40770:40791  msg.sender == owner() */\n      and\n        /* \"strategies/StrategyMiniChefLP.sol\":40770:40780  msg.sender */\n      caller\n      sub(shl(0xa0, 0x01), 0x01)\n        /* \"strategies/StrategyMiniChefLP.sol\":40770:40791  msg.sender == owner() */\n      and\n      eq\n        /* \"strategies/StrategyMiniChefLP.sol\":40770:40815  msg.sender == owner() || msg.sender == keeper */\n      dup1\n      tag_210\n      jumpi\n      pop\n        /* \"strategies/StrategyMiniChefLP.sol\":40809:40815  keeper */\n      and(sub(shl(0xa0, 0x01), 0x01), sload(0x01))\n        /* \"strategies/StrategyMiniChefLP.sol\":40795:40805  msg.sender */\n      caller\n        /* \"strategies/StrategyMiniChefLP.sol\":40795:40815  msg.sender == keeper */\n      eq\n        /* \"strategies/StrategyMiniChefLP.sol\":40770:40815  msg.sender == owner() || msg.sender == keeper */\n    tag_210:\n        /* \"strategies/StrategyMiniChefLP.sol\":40762:40828  require(msg.sender == owner() || msg.sender == keeper, \"!manager\") */\n      tag_211\n      jumpi\n      0x40\n      dup1\n      mload\n      shl(0xe5, 0x461bcd)\n      dup2\n      mstore\n      0x20\n      0x04\n      dup3\n      add\n      mstore\n      0x08\n      0x24\n      dup3\n      add\n      mstore\n      shl(0xc1, 0x10b6b0b730b3b2b9)\n      0x44\n      dup3\n      add\n      mstore\n      swap1\n      mload\n      swap1\n      dup2\n      swap1\n      sub\n      0x64\n      add\n      swap1\n      revert\n    tag_211:\n        /* \"strategies/StrategyMiniChefLP.sol\":49752:49762  _unpause() */\n      tag_213\n        /* \"strategies/StrategyMiniChefLP.sol\":49752:49760  _unpause */\n      tag_214\n        /* \"strategies/StrategyMiniChefLP.sol\":49752:49762  _unpause() */\n      jump\t// in\n    tag_213:\n        /* \"strategies/StrategyMiniChefLP.sol\":49773:49790  _giveAllowances() */\n      tag_215\n        /* \"strategies/StrategyMiniChefLP.sol\":49773:49788  _giveAllowances */\n      tag_216\n        /* \"strategies/StrategyMiniChefLP.sol\":49773:49790  _giveAllowances() */\n      jump\t// in\n    tag_215:\n        /* \"strategies/StrategyMiniChefLP.sol\":49801:49810  deposit() */\n      tag_217\n        /* \"strategies/StrategyMiniChefLP.sol\":49801:49808  deposit */\n      tag_139\n        /* \"strategies/StrategyMiniChefLP.sol\":49801:49810  deposit() */\n      jump\t// in\n    tag_217:\n        /* \"strategies/StrategyMiniChefLP.sol\":49702:49817  function unpause() external onlyManager {... */\n      jump\t// out\n        /* \"strategies/StrategyMiniChefLP.sol\":46299:46519  function harvest() external whenNotPaused onlyEOA {... */\n    tag_87:\n        /* \"strategies/StrategyMiniChefLP.sol\":39270:39278  paused() */\n      tag_219\n        /* \"strategies/StrategyMiniChefLP.sol\":39270:39276  paused */\n      tag_95\n        /* \"strategies/StrategyMiniChefLP.sol\":39270:39278  paused() */\n      jump\t// in\n    tag_219:\n        /* \"strategies/StrategyMiniChefLP.sol\":39269:39278  !paused() */\n      iszero\n        /* \"strategies/StrategyMiniChefLP.sol\":39261:39299  require(!paused(), \"Pausable: paused\") */\n      tag_220\n      jumpi\n      0x40\n      dup1\n      mload\n      shl(0xe5, 0x461bcd)\n      dup2\n      mstore\n      0x20\n      0x04\n      dup3\n      add\n      mstore\n      0x10\n      0x24\n      dup3\n      add\n      mstore\n      shl(0x82, 0x14185d5cd8589b194e881c185d5cd959)\n      0x44\n      dup3\n      add\n      mstore\n      swap1\n      mload\n      swap1\n      dup2\n      swap1\n      sub\n      0x64\n      add\n      swap1\n      revert\n    tag_220:\n        /* \"strategies/StrategyMiniChefLP.sol\":40940:40950  msg.sender */\n      caller\n        /* \"strategies/StrategyMiniChefLP.sol\":40954:40963  tx.origin */\n      origin\n        /* \"strategies/StrategyMiniChefLP.sol\":40940:40963  msg.sender == tx.origin */\n      eq\n        /* \"strategies/StrategyMiniChefLP.sol\":40932:40972  require(msg.sender == tx.origin, \"!EOA\") */\n      tag_222\n      jumpi\n      0x40\n      dup1\n      mload\n      shl(0xe5, 0x461bcd)\n      dup2\n      mstore\n      0x20\n      0x04\n      dup1\n      dup4\n      add\n      swap2\n      swap1\n      swap2\n      mstore\n      0x24\n      dup3\n      add\n      mstore\n      shl(0xe0, 0x21454f41)\n      0x44\n      dup3\n      add\n      mstore\n      swap1\n      mload\n      swap1\n      dup2\n      swap1\n      sub\n      0x64\n      add\n      swap1\n      revert\n    tag_222:\n        /* \"strategies/StrategyMiniChefLP.sol\":46371:46375  chef */\n      sload(0x0e)\n        /* \"strategies/StrategyMiniChefLP.sol\":46385:46391  poolId */\n      sload(0x0f)\n        /* \"strategies/StrategyMiniChefLP.sol\":46359:46407  IMiniChefV2(chef).harvest(poolId, address(this)) */\n      0x40\n      dup1\n      mload\n      shl(0xe1, 0x0c7e663b)\n      dup2\n      mstore\n      0x04\n      dup2\n      add\n      swap3\n      swap1\n      swap3\n      mstore\n        /* \"strategies/StrategyMiniChefLP.sol\":46401:46405  this */\n      address\n        /* \"strategies/StrategyMiniChefLP.sol\":46359:46407  IMiniChefV2(chef).harvest(poolId, address(this)) */\n      0x24\n      dup4\n      add\n      mstore\n      mload\n      sub(shl(0xa0, 0x01), 0x01)\n        /* \"strategies/StrategyMiniChefLP.sol\":46371:46375  chef */\n      swap1\n      swap3\n      and\n      swap2\n        /* \"strategies/StrategyMiniChefLP.sol\":46359:46384  IMiniChefV2(chef).harvest */\n      0x18fccc76\n      swap2\n        /* \"strategies/StrategyMiniChefLP.sol\":46359:46407  IMiniChefV2(chef).harvest(poolId, address(this)) */\n      0x44\n      dup1\n      dup3\n      add\n      swap3\n        /* \"strategies/StrategyMiniChefLP.sol\":46371:46375  chef */\n      0x00\n      swap3\n        /* \"strategies/StrategyMiniChefLP.sol\":46359:46407  IMiniChefV2(chef).harvest(poolId, address(this)) */\n      swap1\n      swap2\n      swap1\n      dup3\n      swap1\n      sub\n      add\n      dup2\n        /* \"strategies/StrategyMiniChefLP.sol\":46371:46375  chef */\n      dup4\n      dup8\n        /* \"strategies/StrategyMiniChefLP.sol\":46359:46407  IMiniChefV2(chef).harvest(poolId, address(this)) */\n      dup1\n      extcodesize\n      iszero\n      dup1\n      iszero\n      tag_224\n      jumpi\n      0x00\n      dup1\n      revert\n    tag_224:\n      pop\n      gas\n      call\n      iszero\n      dup1\n      iszero\n      tag_226\n      jumpi\n      returndatasize\n      0x00\n      dup1\n      returndatacopy\n      revert(0x00, returndatasize)\n    tag_226:\n      pop\n      pop\n      pop\n      pop\n        /* \"strategies/StrategyMiniChefLP.sol\":46417:46429  chargeFees() */\n      tag_227\n        /* \"strategies/StrategyMiniChefLP.sol\":46417:46427  chargeFees */\n      tag_228\n        /* \"strategies/StrategyMiniChefLP.sol\":46417:46429  chargeFees() */\n      jump\t// in\n    tag_227:\n        /* \"strategies/StrategyMiniChefLP.sol\":46439:46453  addLiquidity() */\n      tag_229\n        /* \"strategies/StrategyMiniChefLP.sol\":46439:46451  addLiquidity */\n      tag_230\n        /* \"strategies/StrategyMiniChefLP.sol\":46439:46453  addLiquidity() */\n      jump\t// in\n    tag_229:\n        /* \"strategies/StrategyMiniChefLP.sol\":46463:46472  deposit() */\n      tag_231\n        /* \"strategies/StrategyMiniChefLP.sol\":46463:46470  deposit */\n      tag_139\n        /* \"strategies/StrategyMiniChefLP.sol\":46463:46472  deposit() */\n      jump\t// in\n    tag_231:\n        /* \"strategies/StrategyMiniChefLP.sol\":46488:46512  StratHarvest(msg.sender) */\n      mload(0x40)\n        /* \"strategies/StrategyMiniChefLP.sol\":46501:46511  msg.sender */\n      caller\n      swap1\n        /* \"strategies/StrategyMiniChefLP.sol\":46488:46512  StratHarvest(msg.sender) */\n      0x577a37fdb49a88d66684922c6f913df5239b4f214b2b97c53ef8e3bbb2034cb5\n      swap1\n      0x00\n      swap1\n      log2\n        /* \"strategies/StrategyMiniChefLP.sol\":46299:46519  function harvest() external whenNotPaused onlyEOA {... */\n      jump\t// out\n        /* \"strategies/StrategyMiniChefLP.sol\":49471:49599  function panic() public onlyManager {... */\n    tag_89:\n        /* \"strategies/StrategyMiniChefLP.sol\":40784:40791  owner() */\n      tag_233\n        /* \"strategies/StrategyMiniChefLP.sol\":40784:40789  owner */\n      tag_120\n        /* \"strategies/StrategyMiniChefLP.sol\":40784:40791  owner() */\n      jump\t// in\n    tag_233:\n      sub(shl(0xa0, 0x01), 0x01)\n        /* \"strategies/StrategyMiniChefLP.sol\":40770:40791  msg.sender == owner() */\n      and\n        /* \"strategies/StrategyMiniChefLP.sol\":40770:40780  msg.sender */\n      caller\n      sub(shl(0xa0, 0x01), 0x01)\n        /* \"strategies/StrategyMiniChefLP.sol\":40770:40791  msg.sender == owner() */\n      and\n      eq\n        /* \"strategies/StrategyMiniChefLP.sol\":40770:40815  msg.sender == owner() || msg.sender == keeper */\n      dup1\n      tag_234\n      jumpi\n      pop\n        /* \"strategies/StrategyMiniChefLP.sol\":40809:40815  keeper */\n      and(sub(shl(0xa0, 0x01), 0x01), sload(0x01))\n        /* \"strategies/StrategyMiniChefLP.sol\":40795:40805  msg.sender */\n      caller\n        /* \"strategies/StrategyMiniChefLP.sol\":40795:40815  msg.sender == keeper */\n      eq\n        /* \"strategies/StrategyMiniChefLP.sol\":40770:40815  msg.sender == owner() || msg.sender == keeper */\n    tag_234:\n        /* \"strategies/StrategyMiniChefLP.sol\":40762:40828  require(msg.sender == owner() || msg.sender == keeper, \"!manager\") */\n      tag_235\n      jumpi\n      0x40\n      dup1\n      mload\n      shl(0xe5, 0x461bcd)\n      dup2\n      mstore\n      0x20\n      0x04\n      dup3\n      add\n      mstore\n      0x08\n      0x24\n      dup3\n      add\n      mstore\n      shl(0xc1, 0x10b6b0b730b3b2b9)\n      0x44\n      dup3\n      add\n      mstore\n      swap1\n      mload\n      swap1\n      dup2\n      swap1\n      sub\n      0x64\n      add\n      swap1\n      revert\n    tag_235:\n        /* \"strategies/StrategyMiniChefLP.sol\":49517:49524  pause() */\n      tag_237\n        /* \"strategies/StrategyMiniChefLP.sol\":49517:49522  pause */\n      tag_114\n        /* \"strategies/StrategyMiniChefLP.sol\":49517:49524  pause() */\n      jump\t// in\n    tag_237:\n        /* \"strategies/StrategyMiniChefLP.sol\":49546:49550  chef */\n      sload(0x0e)\n        /* \"strategies/StrategyMiniChefLP.sol\":49570:49576  poolId */\n      sload(0x0f)\n        /* \"strategies/StrategyMiniChefLP.sol\":49534:49592  IMiniChefV2(chef).emergencyWithdraw(poolId, address(this)) */\n      0x40\n      dup1\n      mload\n      shl(0xe4, 0x02f940c7)\n      dup2\n      mstore\n      0x04\n      dup2\n      add\n      swap3\n      swap1\n      swap3\n      mstore\n        /* \"strategies/StrategyMiniChefLP.sol\":49586:49590  this */\n      address\n        /* \"strategies/StrategyMiniChefLP.sol\":49534:49592  IMiniChefV2(chef).emergencyWithdraw(poolId, address(this)) */\n      0x24\n      dup4\n      add\n      mstore\n      mload\n      sub(shl(0xa0, 0x01), 0x01)\n        /* \"strategies/StrategyMiniChefLP.sol\":49546:49550  chef */\n      swap1\n      swap3\n      and\n      swap2\n        /* \"strategies/StrategyMiniChefLP.sol\":49534:49569  IMiniChefV2(chef).emergencyWithdraw */\n      0x2f940c70\n      swap2\n        /* \"strategies/StrategyMiniChefLP.sol\":49534:49592  IMiniChefV2(chef).emergencyWithdraw(poolId, address(this)) */\n      0x44\n      dup1\n      dup3\n      add\n      swap3\n        /* \"strategies/StrategyMiniChefLP.sol\":49546:49550  chef */\n      0x00\n      swap3\n        /* \"strategies/StrategyMiniChefLP.sol\":49534:49592  IMiniChefV2(chef).emergencyWithdraw(poolId, address(this)) */\n      swap1\n      swap2\n      swap1\n      dup3\n      swap1\n      sub\n      add\n      dup2\n        /* \"strategies/StrategyMiniChefLP.sol\":49546:49550  chef */\n      dup4\n      dup8\n        /* \"strategies/StrategyMiniChefLP.sol\":49534:49592  IMiniChefV2(chef).emergencyWithdraw(poolId, address(this)) */\n      dup1\n      extcodesize\n      iszero\n      dup1\n      iszero\n      tag_238\n      jumpi\n      0x00\n      dup1\n      revert\n    tag_238:\n      pop\n      gas\n      call\n      iszero\n      dup1\n      iszero\n      tag_240\n      jumpi\n      returndatasize\n      0x00\n      dup1\n      returndatacopy\n      revert(0x00, returndatasize)\n    tag_240:\n      pop\n      pop\n      pop\n      pop\n        /* \"strategies/StrategyMiniChefLP.sol\":49471:49599  function panic() public onlyManager {... */\n      jump\t// out\n        /* \"strategies/StrategyMiniChefLP.sol\":42476:42519  uint constant public WITHDRAWAL_MAX = 10000 */\n    tag_91:\n        /* \"strategies/StrategyMiniChefLP.sol\":42514:42519  10000 */\n      0x2710\n        /* \"strategies/StrategyMiniChefLP.sol\":42476:42519  uint constant public WITHDRAWAL_MAX = 10000 */\n      dup2\n      jump\t// out\n        /* \"strategies/StrategyMiniChefLP.sol\":38956:39040  function paused() public view virtual returns (bool) {... */\n    tag_95:\n        /* \"strategies/StrategyMiniChefLP.sol\":39003:39007  bool */\n      0x00\n        /* \"strategies/StrategyMiniChefLP.sol\":39026:39033  _paused */\n      sload\n      shl(0xa0, 0x01)\n      swap1\n      div\n      0xff\n      and\n      swap1\n        /* \"strategies/StrategyMiniChefLP.sol\":38956:39040  function paused() public view virtual returns (bool) {... */\n      jump\t// out\n        /* \"strategies/StrategyMiniChefLP.sol\":41900:42036  function setEvolleFeeRecipient(address _evolleFeeRecipient) external onlyOwner {... */\n    tag_98:\n        /* \"strategies/StrategyMiniChefLP.sol\":36954:36966  _msgSender() */\n      tag_244\n        /* \"strategies/StrategyMiniChefLP.sol\":36954:36964  _msgSender */\n      tag_245\n        /* \"strategies/StrategyMiniChefLP.sol\":36954:36966  _msgSender() */\n      jump\t// in\n    tag_244:\n      sub(shl(0xa0, 0x01), 0x01)\n        /* \"strategies/StrategyMiniChefLP.sol\":36943:36966  owner() == _msgSender() */\n      and\n        /* \"strategies/StrategyMiniChefLP.sol\":36943:36950  owner() */\n      tag_246\n        /* \"strategies/StrategyMiniChefLP.sol\":36943:36948  owner */\n      tag_120\n        /* \"strategies/StrategyMiniChefLP.sol\":36943:36950  owner() */\n      jump\t// in\n    tag_246:\n      sub(shl(0xa0, 0x01), 0x01)\n        /* \"strategies/StrategyMiniChefLP.sol\":36943:36966  owner() == _msgSender() */\n      and\n      eq\n        /* \"strategies/StrategyMiniChefLP.sol\":36935:37003  require(owner() == _msgSender(), \"Ownable: caller is not the owner\") */\n      tag_247\n      jumpi\n      0x40\n      dup1\n      mload\n      shl(0xe5, 0x461bcd)\n      dup2\n      mstore\n      0x20\n      0x04\n      dup3\n      add\n      dup2\n      swap1\n      mstore\n      0x24\n      dup3\n      add\n      mstore\n      0x00\n      dup1\n      mload\n      0x20\n      data_9924ebdf1add33d25d4ef888e16131f0a5687b0580a36c21b5c301a6c462effe\n      dup4\n      codecopy\n      dup2\n      mload\n      swap2\n      mstore\n      0x44\n      dup3\n      add\n      mstore\n      swap1\n      mload\n      swap1\n      dup2\n      swap1\n      sub\n      0x64\n      add\n      swap1\n      revert\n    tag_247:\n        /* \"strategies/StrategyMiniChefLP.sol\":41989:42007  evolleFeeRecipient */\n      0x05\n        /* \"strategies/StrategyMiniChefLP.sol\":41989:42029  evolleFeeRecipient = _evolleFeeRecipient */\n      dup1\n      sload\n      not(sub(shl(0xa0, 0x01), 0x01))\n      and\n      sub(shl(0xa0, 0x01), 0x01)\n      swap3\n      swap1\n      swap3\n      and\n      swap2\n      swap1\n      swap2\n      or\n      swap1\n      sstore\n        /* \"strategies/StrategyMiniChefLP.sol\":41900:42036  function setEvolleFeeRecipient(address _evolleFeeRecipient) external onlyOwner {... */\n      jump\t// out\n        /* \"strategies/StrategyMiniChefLP.sol\":43267:43290  address public lpToken0 */\n    tag_100:\n      and(sub(shl(0xa0, 0x01), 0x01), sload(0x0c))\n      dup2\n      jump\t// out\n        /* \"strategies/StrategyMiniChefLP.sol\":41806:41890  function setVault(address _vault) external onlyOwner {... */\n    tag_103:\n        /* \"strategies/StrategyMiniChefLP.sol\":36954:36966  _msgSender() */\n      tag_250\n        /* \"strategies/StrategyMiniChefLP.sol\":36954:36964  _msgSender */\n      tag_245\n        /* \"strategies/StrategyMiniChefLP.sol\":36954:36966  _msgSender() */\n      jump\t// in\n    tag_250:\n      sub(shl(0xa0, 0x01), 0x01)\n        /* \"strategies/StrategyMiniChefLP.sol\":36943:36966  owner() == _msgSender() */\n      and\n        /* \"strategies/StrategyMiniChefLP.sol\":36943:36950  owner() */\n      tag_251\n        /* \"strategies/StrategyMiniChefLP.sol\":36943:36948  owner */\n      tag_120\n        /* \"strategies/StrategyMiniChefLP.sol\":36943:36950  owner() */\n      jump\t// in\n    tag_251:\n      sub(shl(0xa0, 0x01), 0x01)\n        /* \"strategies/StrategyMiniChefLP.sol\":36943:36966  owner() == _msgSender() */\n      and\n      eq\n        /* \"strategies/StrategyMiniChefLP.sol\":36935:37003  require(owner() == _msgSender(), \"Ownable: caller is not the owner\") */\n      tag_252\n      jumpi\n      0x40\n      dup1\n      mload\n      shl(0xe5, 0x461bcd)\n      dup2\n      mstore\n      0x20\n      0x04\n      dup3\n      add\n      dup2\n      swap1\n      mstore\n      0x24\n      dup3\n      add\n      mstore\n      0x00\n      dup1\n      mload\n      0x20\n      data_9924ebdf1add33d25d4ef888e16131f0a5687b0580a36c21b5c301a6c462effe\n      dup4\n      codecopy\n      dup2\n      mload\n      swap2\n      mstore\n      0x44\n      dup3\n      add\n      mstore\n      swap1\n      mload\n      swap1\n      dup2\n      swap1\n      sub\n      0x64\n      add\n      swap1\n      revert\n    tag_252:\n        /* \"strategies/StrategyMiniChefLP.sol\":41869:41874  vault */\n      0x04\n        /* \"strategies/StrategyMiniChefLP.sol\":41869:41883  vault = _vault */\n      dup1\n      sload\n      not(sub(shl(0xa0, 0x01), 0x01))\n      and\n      sub(shl(0xa0, 0x01), 0x01)\n      swap3\n      swap1\n      swap3\n      and\n      swap2\n      swap1\n      swap2\n      or\n      swap1\n      sstore\n        /* \"strategies/StrategyMiniChefLP.sol\":41806:41890  function setVault(address _vault) external onlyOwner {... */\n      jump\t// out\n        /* \"strategies/StrategyMiniChefLP.sol\":37363:37508  function renounceOwnership() public virtual onlyOwner {... */\n    tag_105:\n        /* \"strategies/StrategyMiniChefLP.sol\":36954:36966  _msgSender() */\n      tag_255\n        /* \"strategies/StrategyMiniChefLP.sol\":36954:36964  _msgSender */\n      tag_245\n        /* \"strategies/StrategyMiniChefLP.sol\":36954:36966  _msgSender() */\n      jump\t// in\n    tag_255:\n      sub(shl(0xa0, 0x01), 0x01)\n        /* \"strategies/StrategyMiniChefLP.sol\":36943:36966  owner() == _msgSender() */\n      and\n        /* \"strategies/StrategyMiniChefLP.sol\":36943:36950  owner() */\n      tag_256\n        /* \"strategies/StrategyMiniChefLP.sol\":36943:36948  owner */\n      tag_120\n        /* \"strategies/StrategyMiniChefLP.sol\":36943:36950  owner() */\n      jump\t// in\n    tag_256:\n      sub(shl(0xa0, 0x01), 0x01)\n        /* \"strategies/StrategyMiniChefLP.sol\":36943:36966  owner() == _msgSender() */\n      and\n      eq\n        /* \"strategies/StrategyMiniChefLP.sol\":36935:37003  require(owner() == _msgSender(), \"Ownable: caller is not the owner\") */\n      tag_257\n      jumpi\n      0x40\n      dup1\n      mload\n      shl(0xe5, 0x461bcd)\n      dup2\n      mstore\n      0x20\n      0x04\n      dup3\n      add\n      dup2\n      swap1\n      mstore\n      0x24\n      dup3\n      add\n      mstore\n      0x00\n      dup1\n      mload\n      0x20\n      data_9924ebdf1add33d25d4ef888e16131f0a5687b0580a36c21b5c301a6c462effe\n      dup4\n      codecopy\n      dup2\n      mload\n      swap2\n      mstore\n      0x44\n      dup3\n      add\n      mstore\n      swap1\n      mload\n      swap1\n      dup2\n      swap1\n      sub\n      0x64\n      add\n      swap1\n      revert\n    tag_257:\n        /* \"strategies/StrategyMiniChefLP.sol\":37469:37470  0 */\n      0x00\n        /* \"strategies/StrategyMiniChefLP.sol\":37453:37459  _owner */\n      dup1\n      sload\n        /* \"strategies/StrategyMiniChefLP.sol\":37432:37472  OwnershipTransferred(_owner, address(0)) */\n      mload(0x40)\n      sub(shl(0xa0, 0x01), 0x01)\n        /* \"strategies/StrategyMiniChefLP.sol\":37453:37459  _owner */\n      swap1\n      swap2\n      and\n      swap1\n        /* \"strategies/StrategyMiniChefLP.sol\":37432:37472  OwnershipTransferred(_owner, address(0)) */\n      0x8be0079c531659141344cd1fd0a4f28419497f9722a3daafe3b4186f6b6457e0\n      swap1\n        /* \"strategies/StrategyMiniChefLP.sol\":37469:37470  0 */\n      dup4\n      swap1\n        /* \"strategies/StrategyMiniChefLP.sol\":37432:37472  OwnershipTransferred(_owner, address(0)) */\n      log3\n        /* \"strategies/StrategyMiniChefLP.sol\":37499:37500  0 */\n      0x00\n        /* \"strategies/StrategyMiniChefLP.sol\":37482:37501  _owner = address(0) */\n      dup1\n      sload\n      not(sub(shl(0xa0, 0x01), 0x01))\n      and\n      swap1\n      sstore\n        /* \"strategies/StrategyMiniChefLP.sol\":37363:37508  function renounceOwnership() public virtual onlyOwner {... */\n      jump\t// out\n        /* \"strategies/StrategyMiniChefLP.sol\":48487:48598  function balanceOf() public view returns (uint256) {... */\n    tag_107:\n        /* \"strategies/StrategyMiniChefLP.sol\":48529:48536  uint256 */\n      0x00\n        /* \"strategies/StrategyMiniChefLP.sol\":48555:48591  balanceOfWant().add(balanceOfPool()) */\n      tag_260\n        /* \"strategies/StrategyMiniChefLP.sol\":48575:48590  balanceOfPool() */\n      tag_261\n        /* \"strategies/StrategyMiniChefLP.sol\":48575:48588  balanceOfPool */\n      tag_60\n        /* \"strategies/StrategyMiniChefLP.sol\":48575:48590  balanceOfPool() */\n      jump\t// in\n    tag_261:\n        /* \"strategies/StrategyMiniChefLP.sol\":48555:48570  balanceOfWant() */\n      tag_262\n        /* \"strategies/StrategyMiniChefLP.sol\":48555:48568  balanceOfWant */\n      tag_134\n        /* \"strategies/StrategyMiniChefLP.sol\":48555:48570  balanceOfWant() */\n      jump\t// in\n    tag_262:\n        /* \"strategies/StrategyMiniChefLP.sol\":48555:48574  balanceOfWant().add */\n      swap1\n      tag_263\n        /* \"strategies/StrategyMiniChefLP.sol\":48555:48591  balanceOfWant().add(balanceOfPool()) */\n      jump\t// in\n    tag_260:\n        /* \"strategies/StrategyMiniChefLP.sol\":48548:48591  return balanceOfWant().add(balanceOfPool()) */\n      swap1\n      pop\n        /* \"strategies/StrategyMiniChefLP.sol\":48487:48598  function balanceOf() public view returns (uint256) {... */\n      swap1\n      jump\t// out\n        /* \"strategies/StrategyMiniChefLP.sol\":41103:41193  function setKeeper(address _keeper) external onlyManager {... */\n    tag_110:\n        /* \"strategies/StrategyMiniChefLP.sol\":40784:40791  owner() */\n      tag_265\n        /* \"strategies/StrategyMiniChefLP.sol\":40784:40789  owner */\n      tag_120\n        /* \"strategies/StrategyMiniChefLP.sol\":40784:40791  owner() */\n      jump\t// in\n    tag_265:\n      sub(shl(0xa0, 0x01), 0x01)\n        /* \"strategies/StrategyMiniChefLP.sol\":40770:40791  msg.sender == owner() */\n      and\n        /* \"strategies/StrategyMiniChefLP.sol\":40770:40780  msg.sender */\n      caller\n      sub(shl(0xa0, 0x01), 0x01)\n        /* \"strategies/StrategyMiniChefLP.sol\":40770:40791  msg.sender == owner() */\n      and\n      eq\n        /* \"strategies/StrategyMiniChefLP.sol\":40770:40815  msg.sender == owner() || msg.sender == keeper */\n      dup1\n      tag_266\n      jumpi\n      pop\n        /* \"strategies/StrategyMiniChefLP.sol\":40809:40815  keeper */\n      and(sub(shl(0xa0, 0x01), 0x01), sload(0x01))\n        /* \"strategies/StrategyMiniChefLP.sol\":40795:40805  msg.sender */\n      caller\n        /* \"strategies/StrategyMiniChefLP.sol\":40795:40815  msg.sender == keeper */\n      eq\n        /* \"strategies/StrategyMiniChefLP.sol\":40770:40815  msg.sender == owner() || msg.sender == keeper */\n    tag_266:\n        /* \"strategies/StrategyMiniChefLP.sol\":40762:40828  require(msg.sender == owner() || msg.sender == keeper, \"!manager\") */\n      tag_267\n      jumpi\n      0x40\n      dup1\n      mload\n      shl(0xe5, 0x461bcd)\n      dup2\n      mstore\n      0x20\n      0x04\n      dup3\n      add\n      mstore\n      0x08\n      0x24\n      dup3\n      add\n      mstore\n      shl(0xc1, 0x10b6b0b730b3b2b9)\n      0x44\n      dup3\n      add\n      mstore\n      swap1\n      mload\n      swap1\n      dup2\n      swap1\n      sub\n      0x64\n      add\n      swap1\n      revert\n    tag_267:\n        /* \"strategies/StrategyMiniChefLP.sol\":41170:41176  keeper */\n      0x01\n        /* \"strategies/StrategyMiniChefLP.sol\":41170:41186  keeper = _keeper */\n      dup1\n      sload\n      not(sub(shl(0xa0, 0x01), 0x01))\n      and\n      sub(shl(0xa0, 0x01), 0x01)\n      swap3\n      swap1\n      swap3\n      and\n      swap2\n      swap1\n      swap2\n      or\n      swap1\n      sstore\n        /* \"strategies/StrategyMiniChefLP.sol\":41103:41193  function setKeeper(address _keeper) external onlyManager {... */\n      jump\t// out\n        /* \"strategies/StrategyMiniChefLP.sol\":42294:42333  uint constant public STRATEGIST_FEE = 0 */\n    tag_112:\n        /* \"strategies/StrategyMiniChefLP.sol\":42332:42333  0 */\n      0x00\n        /* \"strategies/StrategyMiniChefLP.sol\":42294:42333  uint constant public STRATEGIST_FEE = 0 */\n      dup2\n      jump\t// out\n        /* \"strategies/StrategyMiniChefLP.sol\":49605:49696  function pause() public onlyManager {... */\n    tag_114:\n        /* \"strategies/StrategyMiniChefLP.sol\":40784:40791  owner() */\n      tag_270\n        /* \"strategies/StrategyMiniChefLP.sol\":40784:40789  owner */\n      tag_120\n        /* \"strategies/StrategyMiniChefLP.sol\":40784:40791  owner() */\n      jump\t// in\n    tag_270:\n      sub(shl(0xa0, 0x01), 0x01)\n        /* \"strategies/StrategyMiniChefLP.sol\":40770:40791  msg.sender == owner() */\n      and\n        /* \"strategies/StrategyMiniChefLP.sol\":40770:40780  msg.sender */\n      caller\n      sub(shl(0xa0, 0x01), 0x01)\n        /* \"strategies/StrategyMiniChefLP.sol\":40770:40791  msg.sender == owner() */\n      and\n      eq\n        /* \"strategies/StrategyMiniChefLP.sol\":40770:40815  msg.sender == owner() || msg.sender == keeper */\n      dup1\n      tag_271\n      jumpi\n      pop\n        /* \"strategies/StrategyMiniChefLP.sol\":40809:40815  keeper */\n      and(sub(shl(0xa0, 0x01), 0x01), sload(0x01))\n        /* \"strategies/StrategyMiniChefLP.sol\":40795:40805  msg.sender */\n      caller\n        /* \"strategies/StrategyMiniChefLP.sol\":40795:40815  msg.sender == keeper */\n      eq\n        /* \"strategies/StrategyMiniChefLP.sol\":40770:40815  msg.sender == owner() || msg.sender == keeper */\n    tag_271:\n        /* \"strategies/StrategyMiniChefLP.sol\":40762:40828  require(msg.sender == owner() || msg.sender == keeper, \"!manager\") */\n      tag_272\n      jumpi\n      0x40\n      dup1\n      mload\n      shl(0xe5, 0x461bcd)\n      dup2\n      mstore\n      0x20\n      0x04\n      dup3\n      add\n      mstore\n      0x08\n      0x24\n      dup3\n      add\n      mstore\n      shl(0xc1, 0x10b6b0b730b3b2b9)\n      0x44\n      dup3\n      add\n      mstore\n      swap1\n      mload\n      swap1\n      dup2\n      swap1\n      sub\n      0x64\n      add\n      swap1\n      revert\n    tag_272:\n        /* \"strategies/StrategyMiniChefLP.sol\":49651:49659  _pause() */\n      tag_274\n        /* \"strategies/StrategyMiniChefLP.sol\":49651:49657  _pause */\n      tag_275\n        /* \"strategies/StrategyMiniChefLP.sol\":49651:49659  _pause() */\n      jump\t// in\n    tag_274:\n        /* \"strategies/StrategyMiniChefLP.sol\":49670:49689  _removeAllowances() */\n      tag_217\n        /* \"strategies/StrategyMiniChefLP.sol\":49670:49687  _removeAllowances */\n      tag_277\n        /* \"strategies/StrategyMiniChefLP.sol\":49670:49689  _removeAllowances() */\n      jump\t// in\n        /* \"strategies/StrategyMiniChefLP.sol\":43296:43319  address public lpToken1 */\n    tag_116:\n      and(sub(shl(0xa0, 0x01), 0x01), sload(0x0d))\n      dup2\n      jump\t// out\n        /* \"strategies/StrategyMiniChefLP.sol\":42526:42556  uint public withdrawalFee = 10 */\n    tag_118:\n      sload(0x06)\n      dup2\n      jump\t// out\n        /* \"strategies/StrategyMiniChefLP.sol\":36731:36816  function owner() public view virtual returns (address) {... */\n    tag_120:\n        /* \"strategies/StrategyMiniChefLP.sol\":36777:36784  address */\n      0x00\n        /* \"strategies/StrategyMiniChefLP.sol\":36803:36809  _owner */\n      sload\n      sub(shl(0xa0, 0x01), 0x01)\n      and\n        /* \"strategies/StrategyMiniChefLP.sol\":36731:36816  function owner() public view virtual returns (address) {... */\n      swap1\n      jump\t// out\n        /* \"strategies/StrategyMiniChefLP.sol\":42563:42588  uint public callFee = 111 */\n    tag_122:\n      sload(0x07)\n      dup2\n      jump\t// out\n        /* \"strategies/StrategyMiniChefLP.sol\":42863:43015  function setWithdrawalFee(uint256 _fee) external onlyManager {... */\n    tag_125:\n        /* \"strategies/StrategyMiniChefLP.sol\":40784:40791  owner() */\n      tag_280\n        /* \"strategies/StrategyMiniChefLP.sol\":40784:40789  owner */\n      tag_120\n        /* \"strategies/StrategyMiniChefLP.sol\":40784:40791  owner() */\n      jump\t// in\n    tag_280:\n      sub(shl(0xa0, 0x01), 0x01)\n        /* \"strategies/StrategyMiniChefLP.sol\":40770:40791  msg.sender == owner() */\n      and\n        /* \"strategies/StrategyMiniChefLP.sol\":40770:40780  msg.sender */\n      caller\n      sub(shl(0xa0, 0x01), 0x01)\n        /* \"strategies/StrategyMiniChefLP.sol\":40770:40791  msg.sender == owner() */\n      and\n      eq\n        /* \"strategies/StrategyMiniChefLP.sol\":40770:40815  msg.sender == owner() || msg.sender == keeper */\n      dup1\n      tag_281\n      jumpi\n      pop\n        /* \"strategies/StrategyMiniChefLP.sol\":40809:40815  keeper */\n      and(sub(shl(0xa0, 0x01), 0x01), sload(0x01))\n        /* \"strategies/StrategyMiniChefLP.sol\":40795:40805  msg.sender */\n      caller\n        /* \"strategies/StrategyMiniChefLP.sol\":40795:40815  msg.sender == keeper */\n      eq\n        /* \"strategies/StrategyMiniChefLP.sol\":40770:40815  msg.sender == owner() || msg.sender == keeper */\n    tag_281:\n        /* \"strategies/StrategyMiniChefLP.sol\":40762:40828  require(msg.sender == owner() || msg.sender == keeper, \"!manager\") */\n      tag_282\n      jumpi\n      0x40\n      dup1\n      mload\n      shl(0xe5, 0x461bcd)\n      dup2\n      mstore\n      0x20\n      0x04\n      dup3\n      add\n      mstore\n      0x08\n      0x24\n      dup3\n      add\n      mstore\n      shl(0xc1, 0x10b6b0b730b3b2b9)\n      0x44\n      dup3\n      add\n      mstore\n      swap1\n      mload\n      swap1\n      dup2\n      swap1\n      sub\n      0x64\n      add\n      swap1\n      revert\n    tag_282:\n        /* \"strategies/StrategyMiniChefLP.sol\":42468:42470  50 */\n      0x32\n        /* \"strategies/StrategyMiniChefLP.sol\":42942:42946  _fee */\n      dup2\n        /* \"strategies/StrategyMiniChefLP.sol\":42942:42968  _fee <= WITHDRAWAL_FEE_CAP */\n      gt\n      iszero\n        /* \"strategies/StrategyMiniChefLP.sol\":42934:42977  require(_fee <= WITHDRAWAL_FEE_CAP, \"!cap\") */\n      tag_284\n      jumpi\n      0x40\n      dup1\n      mload\n      shl(0xe5, 0x461bcd)\n      dup2\n      mstore\n      0x20\n      0x04\n      dup1\n      dup4\n      add\n      swap2\n      swap1\n      swap2\n      mstore\n      0x24\n      dup3\n      add\n      mstore\n      shl(0xe4, 0x02163617)\n      0x44\n      dup3\n      add\n      mstore\n      swap1\n      mload\n      swap1\n      dup2\n      swap1\n      sub\n      0x64\n      add\n      swap1\n      revert\n    tag_284:\n        /* \"strategies/StrategyMiniChefLP.sol\":42988:43001  withdrawalFee */\n      0x06\n        /* \"strategies/StrategyMiniChefLP.sol\":42988:43008  withdrawalFee = _fee */\n      sstore\n        /* \"strategies/StrategyMiniChefLP.sol\":42863:43015  function setWithdrawalFee(uint256 _fee) external onlyManager {... */\n      jump\t// out\n        /* \"strategies/StrategyMiniChefLP.sol\":40170:40191  address public keeper */\n    tag_127:\n      and(sub(shl(0xa0, 0x01), 0x01), sload(0x01))\n      dup2\n      jump\t// out\n        /* \"strategies/StrategyMiniChefLP.sol\":42339:42374  uint constant public MAX_FEE = 1000 */\n    tag_129:\n        /* \"strategies/StrategyMiniChefLP.sol\":42370:42374  1000 */\n      0x03e8\n        /* \"strategies/StrategyMiniChefLP.sol\":42339:42374  uint constant public MAX_FEE = 1000 */\n      dup2\n      jump\t// out\n        /* \"strategies/StrategyMiniChefLP.sol\":43422:43458  address[] public outputToNativeRoute */\n    tag_132:\n      0x10\n      dup2\n      dup2\n      sload\n      dup2\n      lt\n      tag_163\n      jumpi\n      invalid\n        /* \"strategies/StrategyMiniChefLP.sol\":48662:48778  function balanceOfWant() public view returns (uint256) {... */\n    tag_134:\n        /* \"strategies/StrategyMiniChefLP.sol\":48741:48745  want */\n      sload(0x0b)\n        /* \"strategies/StrategyMiniChefLP.sol\":48734:48771  IERC20(want).balanceOf(address(this)) */\n      0x40\n      dup1\n      mload\n      shl(0xe0, 0x70a08231)\n      dup2\n      mstore\n        /* \"strategies/StrategyMiniChefLP.sol\":48765:48769  this */\n      address\n        /* \"strategies/StrategyMiniChefLP.sol\":48734:48771  IERC20(want).balanceOf(address(this)) */\n      0x04\n      dup3\n      add\n      mstore\n      swap1\n      mload\n        /* \"strategies/StrategyMiniChefLP.sol\":48708:48715  uint256 */\n      0x00\n      swap3\n      sub(shl(0xa0, 0x01), 0x01)\n        /* \"strategies/StrategyMiniChefLP.sol\":48741:48745  want */\n      and\n      swap2\n        /* \"strategies/StrategyMiniChefLP.sol\":48734:48756  IERC20(want).balanceOf */\n      0x70a08231\n      swap2\n        /* \"strategies/StrategyMiniChefLP.sol\":48734:48771  IERC20(want).balanceOf(address(this)) */\n      0x24\n      dup1\n      dup4\n      add\n      swap3\n      0x20\n      swap3\n      swap2\n      swap1\n      dup3\n      swap1\n      sub\n      add\n      dup2\n        /* \"strategies/StrategyMiniChefLP.sol\":48741:48745  want */\n      dup7\n        /* \"strategies/StrategyMiniChefLP.sol\":48734:48771  IERC20(want).balanceOf(address(this)) */\n      dup1\n      extcodesize\n      iszero\n      dup1\n      iszero\n      tag_288\n      jumpi\n      0x00\n      dup1\n      revert\n    tag_288:\n      pop\n      gas\n      staticcall\n      iszero\n      dup1\n      iszero\n      tag_290\n      jumpi\n      returndatasize\n      0x00\n      dup1\n      returndatacopy\n      revert(0x00, returndatasize)\n    tag_290:\n      pop\n      pop\n      pop\n      pop\n      mload(0x40)\n      returndatasize\n      0x20\n      dup2\n      lt\n      iszero\n      tag_291\n      jumpi\n      0x00\n      dup1\n      revert\n    tag_291:\n      pop\n      mload\n      swap1\n      pop\n        /* \"strategies/StrategyMiniChefLP.sol\":48662:48778  function balanceOfWant() public view returns (uint256) {... */\n      swap1\n      jump\t// out\n        /* \"strategies/StrategyMiniChefLP.sol\":41332:41484  function setStrategist(address _strategist) external {... */\n    tag_137:\n        /* \"strategies/StrategyMiniChefLP.sol\":41417:41427  strategist */\n      and(sub(shl(0xa0, 0x01), 0x01), sload(0x02))\n        /* \"strategies/StrategyMiniChefLP.sol\":41403:41413  msg.sender */\n      caller\n        /* \"strategies/StrategyMiniChefLP.sol\":41403:41427  msg.sender == strategist */\n      eq\n        /* \"strategies/StrategyMiniChefLP.sol\":41395:41443  require(msg.sender == strategist, \"!strategist\") */\n      tag_293\n      jumpi\n      0x40\n      dup1\n      mload\n      shl(0xe5, 0x461bcd)\n      dup2\n      mstore\n      0x20\n      0x04\n      dup3\n      add\n      mstore\n      0x0b\n      0x24\n      dup3\n      add\n      mstore\n      shl(0xaa, 0x085cdd1c985d1959da5cdd)\n      0x44\n      dup3\n      add\n      mstore\n      swap1\n      mload\n      swap1\n      dup2\n      swap1\n      sub\n      0x64\n      add\n      swap1\n      revert\n    tag_293:\n        /* \"strategies/StrategyMiniChefLP.sol\":41453:41463  strategist */\n      0x02\n        /* \"strategies/StrategyMiniChefLP.sol\":41453:41477  strategist = _strategist */\n      dup1\n      sload\n      not(sub(shl(0xa0, 0x01), 0x01))\n      and\n      sub(shl(0xa0, 0x01), 0x01)\n      swap3\n      swap1\n      swap3\n      and\n      swap2\n      swap1\n      swap2\n      or\n      swap1\n      sstore\n        /* \"strategies/StrategyMiniChefLP.sol\":41332:41484  function setStrategist(address _strategist) external {... */\n      jump\t// out\n        /* \"strategies/StrategyMiniChefLP.sol\":45281:45502  function deposit() public whenNotPaused {... */\n    tag_139:\n        /* \"strategies/StrategyMiniChefLP.sol\":39270:39278  paused() */\n      tag_295\n        /* \"strategies/StrategyMiniChefLP.sol\":39270:39276  paused */\n      tag_95\n        /* \"strategies/StrategyMiniChefLP.sol\":39270:39278  paused() */\n      jump\t// in\n    tag_295:\n        /* \"strategies/StrategyMiniChefLP.sol\":39269:39278  !paused() */\n      iszero\n        /* \"strategies/StrategyMiniChefLP.sol\":39261:39299  require(!paused(), \"Pausable: paused\") */\n      tag_296\n      jumpi\n      0x40\n      dup1\n      mload\n      shl(0xe5, 0x461bcd)\n      dup2\n      mstore\n      0x20\n      0x04\n      dup3\n      add\n      mstore\n      0x10\n      0x24\n      dup3\n      add\n      mstore\n      shl(0x82, 0x14185d5cd8589b194e881c185d5cd959)\n      0x44\n      dup3\n      add\n      mstore\n      swap1\n      mload\n      swap1\n      dup2\n      swap1\n      sub\n      0x64\n      add\n      swap1\n      revert\n    tag_296:\n        /* \"strategies/StrategyMiniChefLP.sol\":45356:45360  want */\n      sload(0x0b)\n        /* \"strategies/StrategyMiniChefLP.sol\":45349:45386  IERC20(want).balanceOf(address(this)) */\n      0x40\n      dup1\n      mload\n      shl(0xe0, 0x70a08231)\n      dup2\n      mstore\n        /* \"strategies/StrategyMiniChefLP.sol\":45380:45384  this */\n      address\n        /* \"strategies/StrategyMiniChefLP.sol\":45349:45386  IERC20(want).balanceOf(address(this)) */\n      0x04\n      dup3\n      add\n      mstore\n      swap1\n      mload\n        /* \"strategies/StrategyMiniChefLP.sol\":45331:45346  uint256 wantBal */\n      0x00\n      swap3\n      sub(shl(0xa0, 0x01), 0x01)\n        /* \"strategies/StrategyMiniChefLP.sol\":45356:45360  want */\n      and\n      swap2\n        /* \"strategies/StrategyMiniChefLP.sol\":45349:45371  IERC20(want).balanceOf */\n      0x70a08231\n      swap2\n        /* \"strategies/StrategyMiniChefLP.sol\":45349:45386  IERC20(want).balanceOf(address(this)) */\n      0x24\n      dup1\n      dup4\n      add\n      swap3\n      0x20\n      swap3\n      swap2\n      swap1\n      dup3\n      swap1\n      sub\n      add\n      dup2\n        /* \"strategies/StrategyMiniChefLP.sol\":45356:45360  want */\n      dup7\n        /* \"strategies/StrategyMiniChefLP.sol\":45349:45386  IERC20(want).balanceOf(address(this)) */\n      dup1\n      extcodesize\n      iszero\n      dup1\n      iszero\n      tag_298\n      jumpi\n      0x00\n      dup1\n      revert\n    tag_298:\n      pop\n      gas\n      staticcall\n      iszero\n      dup1\n      iszero\n      tag_300\n      jumpi\n      returndatasize\n      0x00\n      dup1\n      returndatacopy\n      revert(0x00, returndatasize)\n    tag_300:\n      pop\n      pop\n      pop\n      pop\n      mload(0x40)\n      returndatasize\n      0x20\n      dup2\n      lt\n      iszero\n      tag_301\n      jumpi\n      0x00\n      dup1\n      revert\n    tag_301:\n      pop\n      mload\n      swap1\n      pop\n        /* \"strategies/StrategyMiniChefLP.sol\":45401:45412  wantBal > 0 */\n      dup1\n      iszero\n        /* \"strategies/StrategyMiniChefLP.sol\":45397:45496  if (wantBal > 0) {... */\n      tag_302\n      jumpi\n        /* \"strategies/StrategyMiniChefLP.sol\":45440:45444  chef */\n      sload(0x0e)\n        /* \"strategies/StrategyMiniChefLP.sol\":45454:45460  poolId */\n      sload(0x0f)\n        /* \"strategies/StrategyMiniChefLP.sol\":45428:45485  IMiniChefV2(chef).deposit(poolId, wantBal, address(this)) */\n      0x40\n      dup1\n      mload\n      shl(0xe0, 0x8dbdbe6d)\n      dup2\n      mstore\n      0x04\n      dup2\n      add\n      swap3\n      swap1\n      swap3\n      mstore\n      0x24\n      dup3\n      add\n      dup5\n      swap1\n      mstore\n        /* \"strategies/StrategyMiniChefLP.sol\":45479:45483  this */\n      address\n        /* \"strategies/StrategyMiniChefLP.sol\":45428:45485  IMiniChefV2(chef).deposit(poolId, wantBal, address(this)) */\n      0x44\n      dup4\n      add\n      mstore\n      mload\n      sub(shl(0xa0, 0x01), 0x01)\n        /* \"strategies/StrategyMiniChefLP.sol\":45440:45444  chef */\n      swap1\n      swap3\n      and\n      swap2\n        /* \"strategies/StrategyMiniChefLP.sol\":45428:45453  IMiniChefV2(chef).deposit */\n      0x8dbdbe6d\n      swap2\n        /* \"strategies/StrategyMiniChefLP.sol\":45428:45485  IMiniChefV2(chef).deposit(poolId, wantBal, address(this)) */\n      0x64\n      dup1\n      dup3\n      add\n      swap3\n        /* \"strategies/StrategyMiniChefLP.sol\":45440:45444  chef */\n      0x00\n      swap3\n        /* \"strategies/StrategyMiniChefLP.sol\":45428:45485  IMiniChefV2(chef).deposit(poolId, wantBal, address(this)) */\n      swap1\n      swap2\n      swap1\n      dup3\n      swap1\n      sub\n      add\n      dup2\n        /* \"strategies/StrategyMiniChefLP.sol\":45440:45444  chef */\n      dup4\n      dup8\n        /* \"strategies/StrategyMiniChefLP.sol\":45428:45485  IMiniChefV2(chef).deposit(poolId, wantBal, address(this)) */\n      dup1\n      extcodesize\n      iszero\n      dup1\n      iszero\n      tag_303\n      jumpi\n      0x00\n      dup1\n      revert\n    tag_303:\n      pop\n      gas\n      call\n      iszero\n      dup1\n      iszero\n      tag_305\n      jumpi\n      returndatasize\n      0x00\n      dup1\n      returndatacopy\n      revert(0x00, returndatasize)\n    tag_305:\n      pop\n      pop\n      pop\n      pop\n        /* \"strategies/StrategyMiniChefLP.sol\":45397:45496  if (wantBal > 0) {... */\n    tag_302:\n        /* \"strategies/StrategyMiniChefLP.sol\":39309:39310  _ */\n      pop\n        /* \"strategies/StrategyMiniChefLP.sol\":45281:45502  function deposit() public whenNotPaused {... */\n      jump\t// out\n        /* \"strategies/StrategyMiniChefLP.sol\":41610:41710  function setUnirouter(address _unirouter) external onlyOwner {... */\n    tag_142:\n        /* \"strategies/StrategyMiniChefLP.sol\":36954:36966  _msgSender() */\n      tag_307\n        /* \"strategies/StrategyMiniChefLP.sol\":36954:36964  _msgSender */\n      tag_245\n        /* \"strategies/StrategyMiniChefLP.sol\":36954:36966  _msgSender() */\n      jump\t// in\n    tag_307:\n      sub(shl(0xa0, 0x01), 0x01)\n        /* \"strategies/StrategyMiniChefLP.sol\":36943:36966  owner() == _msgSender() */\n      and\n        /* \"strategies/StrategyMiniChefLP.sol\":36943:36950  owner() */\n      tag_308\n        /* \"strategies/StrategyMiniChefLP.sol\":36943:36948  owner */\n      tag_120\n        /* \"strategies/StrategyMiniChefLP.sol\":36943:36950  owner() */\n      jump\t// in\n    tag_308:\n      sub(shl(0xa0, 0x01), 0x01)\n        /* \"strategies/StrategyMiniChefLP.sol\":36943:36966  owner() == _msgSender() */\n      and\n      eq\n        /* \"strategies/StrategyMiniChefLP.sol\":36935:37003  require(owner() == _msgSender(), \"Ownable: caller is not the owner\") */\n      tag_309\n      jumpi\n      0x40\n      dup1\n      mload\n      shl(0xe5, 0x461bcd)\n      dup2\n      mstore\n      0x20\n      0x04\n      dup3\n      add\n      dup2\n      swap1\n      mstore\n      0x24\n      dup3\n      add\n      mstore\n      0x00\n      dup1\n      mload\n      0x20\n      data_9924ebdf1add33d25d4ef888e16131f0a5687b0580a36c21b5c301a6c462effe\n      dup4\n      codecopy\n      dup2\n      mload\n      swap2\n      mstore\n      0x44\n      dup3\n      add\n      mstore\n      swap1\n      mload\n      swap1\n      dup2\n      swap1\n      sub\n      0x64\n      add\n      swap1\n      revert\n    tag_309:\n        /* \"strategies/StrategyMiniChefLP.sol\":41681:41690  unirouter */\n      0x03\n        /* \"strategies/StrategyMiniChefLP.sol\":41681:41703  unirouter = _unirouter */\n      dup1\n      sload\n      not(sub(shl(0xa0, 0x01), 0x01))\n      and\n      sub(shl(0xa0, 0x01), 0x01)\n      swap3\n      swap1\n      swap3\n      and\n      swap2\n      swap1\n      swap2\n      or\n      swap1\n      sstore\n        /* \"strategies/StrategyMiniChefLP.sol\":41610:41710  function setUnirouter(address _unirouter) external onlyOwner {... */\n      jump\t// out\n        /* \"strategies/StrategyMiniChefLP.sol\":42426:42470  uint constant public WITHDRAWAL_FEE_CAP = 50 */\n    tag_144:\n        /* \"strategies/StrategyMiniChefLP.sol\":42468:42470  50 */\n      0x32\n        /* \"strategies/StrategyMiniChefLP.sol\":42426:42470  uint constant public WITHDRAWAL_FEE_CAP = 50 */\n      dup2\n      jump\t// out\n        /* \"strategies/StrategyMiniChefLP.sol\":40284:40317  address public evolleFeeRecipient */\n    tag_146:\n      and(sub(shl(0xa0, 0x01), 0x01), sload(0x05))\n      dup2\n      jump\t// out\n        /* \"strategies/StrategyMiniChefLP.sol\":43215:43236  address public output */\n    tag_148:\n      and(sub(shl(0xa0, 0x01), 0x01), sload(0x0a))\n      dup2\n      jump\t// out\n        /* \"strategies/StrategyMiniChefLP.sol\":37657:37897  function transferOwnership(address newOwner) public virtual onlyOwner {... */\n    tag_151:\n        /* \"strategies/StrategyMiniChefLP.sol\":36954:36966  _msgSender() */\n      tag_312\n        /* \"strategies/StrategyMiniChefLP.sol\":36954:36964  _msgSender */\n      tag_245\n        /* \"strategies/StrategyMiniChefLP.sol\":36954:36966  _msgSender() */\n      jump\t// in\n    tag_312:\n      sub(shl(0xa0, 0x01), 0x01)\n        /* \"strategies/StrategyMiniChefLP.sol\":36943:36966  owner() == _msgSender() */\n      and\n        /* \"strategies/StrategyMiniChefLP.sol\":36943:36950  owner() */\n      tag_313\n        /* \"strategies/StrategyMiniChefLP.sol\":36943:36948  owner */\n      tag_120\n        /* \"strategies/StrategyMiniChefLP.sol\":36943:36950  owner() */\n      jump\t// in\n    tag_313:\n      sub(shl(0xa0, 0x01), 0x01)\n        /* \"strategies/StrategyMiniChefLP.sol\":36943:36966  owner() == _msgSender() */\n      and\n      eq\n        /* \"strategies/StrategyMiniChefLP.sol\":36935:37003  require(owner() == _msgSender(), \"Ownable: caller is not the owner\") */\n      tag_314\n      jumpi\n      0x40\n      dup1\n      mload\n      shl(0xe5, 0x461bcd)\n      dup2\n      mstore\n      0x20\n      0x04\n      dup3\n      add\n      dup2\n      swap1\n      mstore\n      0x24\n      dup3\n      add\n      mstore\n      0x00\n      dup1\n      mload\n      0x20\n      data_9924ebdf1add33d25d4ef888e16131f0a5687b0580a36c21b5c301a6c462effe\n      dup4\n      codecopy\n      dup2\n      mload\n      swap2\n      mstore\n      0x44\n      dup3\n      add\n      mstore\n      swap1\n      mload\n      swap1\n      dup2\n      swap1\n      sub\n      0x64\n      add\n      swap1\n      revert\n    tag_314:\n      sub(shl(0xa0, 0x01), 0x01)\n        /* \"strategies/StrategyMiniChefLP.sol\":37745:37767  newOwner != address(0) */\n      dup2\n      and\n        /* \"strategies/StrategyMiniChefLP.sol\":37737:37810  require(newOwner != address(0), \"Ownable: new owner is the zero address\") */\n      tag_316\n      jumpi\n      mload(0x40)\n      shl(0xe5, 0x461bcd)\n      dup2\n      mstore\n      0x04\n      add\n      dup1\n      dup1\n      0x20\n      add\n      dup3\n      dup2\n      sub\n      dup3\n      mstore\n      0x26\n      dup2\n      mstore\n      0x20\n      add\n      dup1\n      data_245f15ff17f551913a7a18385165551503906a406f905ac1c2437281a7cd0cfe\n      0x26\n      swap2\n      codecopy\n      0x40\n      add\n      swap2\n      pop\n      pop\n      mload(0x40)\n      dup1\n      swap2\n      sub\n      swap1\n      revert\n    tag_316:\n        /* \"strategies/StrategyMiniChefLP.sol\":37846:37852  _owner */\n      0x00\n      dup1\n      sload\n        /* \"strategies/StrategyMiniChefLP.sol\":37825:37863  OwnershipTransferred(_owner, newOwner) */\n      mload(0x40)\n      sub(shl(0xa0, 0x01), 0x01)\n      dup1\n      dup6\n      and\n      swap4\n        /* \"strategies/StrategyMiniChefLP.sol\":37846:37852  _owner */\n      swap3\n      and\n      swap2\n        /* \"strategies/StrategyMiniChefLP.sol\":37825:37863  OwnershipTransferred(_owner, newOwner) */\n      0x8be0079c531659141344cd1fd0a4f28419497f9722a3daafe3b4186f6b6457e0\n      swap2\n      log3\n        /* \"strategies/StrategyMiniChefLP.sol\":37873:37879  _owner */\n      0x00\n        /* \"strategies/StrategyMiniChefLP.sol\":37873:37890  _owner = newOwner */\n      dup1\n      sload\n      not(sub(shl(0xa0, 0x01), 0x01))\n      and\n      sub(shl(0xa0, 0x01), 0x01)\n      swap3\n      swap1\n      swap3\n      and\n      swap2\n      swap1\n      swap2\n      or\n      swap1\n      sstore\n        /* \"strategies/StrategyMiniChefLP.sol\":37657:37897  function transferOwnership(address newOwner) public virtual onlyOwner {... */\n      jump\t// out\n        /* \"strategies/StrategyMiniChefLP.sol\":49123:49392  function retireStrat() external {... */\n    tag_153:\n        /* \"strategies/StrategyMiniChefLP.sol\":49187:49192  vault */\n      and(sub(shl(0xa0, 0x01), 0x01), sload(0x04))\n        /* \"strategies/StrategyMiniChefLP.sol\":49173:49183  msg.sender */\n      caller\n        /* \"strategies/StrategyMiniChefLP.sol\":49173:49192  msg.sender == vault */\n      eq\n        /* \"strategies/StrategyMiniChefLP.sol\":49165:49203  require(msg.sender == vault, \"!vault\") */\n      tag_318\n      jumpi\n      0x40\n      dup1\n      mload\n      shl(0xe5, 0x461bcd)\n      dup2\n      mstore\n      0x20\n      0x04\n      dup3\n      add\n      mstore\n      0x06\n      0x24\n      dup3\n      add\n      mstore\n      shl(0xd2, 0x085d985d5b1d)\n      0x44\n      dup3\n      add\n      mstore\n      swap1\n      mload\n      swap1\n      dup2\n      swap1\n      sub\n      0x64\n      add\n      swap1\n      revert\n    tag_318:\n        /* \"strategies/StrategyMiniChefLP.sol\":49226:49230  chef */\n      sload(0x0e)\n        /* \"strategies/StrategyMiniChefLP.sol\":49250:49256  poolId */\n      sload(0x0f)\n        /* \"strategies/StrategyMiniChefLP.sol\":49214:49272  IMiniChefV2(chef).emergencyWithdraw(poolId, address(this)) */\n      0x40\n      dup1\n      mload\n      shl(0xe4, 0x02f940c7)\n      dup2\n      mstore\n      0x04\n      dup2\n      add\n      swap3\n      swap1\n      swap3\n      mstore\n        /* \"strategies/StrategyMiniChefLP.sol\":49266:49270  this */\n      address\n        /* \"strategies/StrategyMiniChefLP.sol\":49214:49272  IMiniChefV2(chef).emergencyWithdraw(poolId, address(this)) */\n      0x24\n      dup4\n      add\n      mstore\n      mload\n      sub(shl(0xa0, 0x01), 0x01)\n        /* \"strategies/StrategyMiniChefLP.sol\":49226:49230  chef */\n      swap1\n      swap3\n      and\n      swap2\n        /* \"strategies/StrategyMiniChefLP.sol\":49214:49249  IMiniChefV2(chef).emergencyWithdraw */\n      0x2f940c70\n      swap2\n        /* \"strategies/StrategyMiniChefLP.sol\":49214:49272  IMiniChefV2(chef).emergencyWithdraw(poolId, address(this)) */\n      0x44\n      dup1\n      dup3\n      add\n      swap3\n        /* \"strategies/StrategyMiniChefLP.sol\":49226:49230  chef */\n      0x00\n      swap3\n        /* \"strategies/StrategyMiniChefLP.sol\":49214:49272  IMiniChefV2(chef).emergencyWithdraw(poolId, address(this)) */\n      swap1\n      swap2\n      swap1\n      dup3\n      swap1\n      sub\n      add\n      dup2\n        /* \"strategies/StrategyMiniChefLP.sol\":49226:49230  chef */\n      dup4\n      dup8\n        /* \"strategies/StrategyMiniChefLP.sol\":49214:49272  IMiniChefV2(chef).emergencyWithdraw(poolId, address(this)) */\n      dup1\n      extcodesize\n      iszero\n      dup1\n      iszero\n      tag_319\n      jumpi\n      0x00\n      dup1\n      revert\n    tag_319:\n      pop\n      gas\n      call\n      iszero\n      dup1\n      iszero\n      tag_321\n      jumpi\n      returndatasize\n      0x00\n      dup1\n      returndatacopy\n      revert(0x00, returndatasize)\n    tag_321:\n      pop\n      pop\n        /* \"strategies/StrategyMiniChefLP.sol\":49308:49312  want */\n      sload(0x0b)\n        /* \"strategies/StrategyMiniChefLP.sol\":49301:49338  IERC20(want).balanceOf(address(this)) */\n      0x40\n      dup1\n      mload\n      shl(0xe0, 0x70a08231)\n      dup2\n      mstore\n        /* \"strategies/StrategyMiniChefLP.sol\":49332:49336  this */\n      address\n        /* \"strategies/StrategyMiniChefLP.sol\":49301:49338  IERC20(want).balanceOf(address(this)) */\n      0x04\n      dup3\n      add\n      mstore\n      swap1\n      mload\n        /* \"strategies/StrategyMiniChefLP.sol\":49283:49298  uint256 wantBal */\n      0x00\n      swap5\n      pop\n      sub(shl(0xa0, 0x01), 0x01)\n        /* \"strategies/StrategyMiniChefLP.sol\":49308:49312  want */\n      swap1\n      swap3\n      and\n      swap3\n      pop\n        /* \"strategies/StrategyMiniChefLP.sol\":49301:49323  IERC20(want).balanceOf */\n      0x70a08231\n      swap2\n        /* \"strategies/StrategyMiniChefLP.sol\":49301:49338  IERC20(want).balanceOf(address(this)) */\n      0x24\n      dup1\n      dup4\n      add\n      swap3\n      0x20\n      swap3\n      swap2\n      swap1\n      dup3\n      swap1\n      sub\n      add\n      dup2\n        /* \"strategies/StrategyMiniChefLP.sol\":49308:49312  want */\n      dup7\n        /* \"strategies/StrategyMiniChefLP.sol\":49301:49338  IERC20(want).balanceOf(address(this)) */\n      dup1\n      extcodesize\n      iszero\n      dup1\n      iszero\n      tag_322\n      jumpi\n      0x00\n      dup1\n      revert\n    tag_322:\n      pop\n      gas\n      staticcall\n      iszero\n      dup1\n      iszero\n      tag_324\n      jumpi\n      returndatasize\n      0x00\n      dup1\n      returndatacopy\n      revert(0x00, returndatasize)\n    tag_324:\n      pop\n      pop\n      pop\n      pop\n      mload(0x40)\n      returndatasize\n      0x20\n      dup2\n      lt\n      iszero\n      tag_325\n      jumpi\n      0x00\n      dup1\n      revert\n    tag_325:\n      pop\n      mload\n        /* \"strategies/StrategyMiniChefLP.sol\":49355:49359  want */\n      sload(0x0b)\n        /* \"strategies/StrategyMiniChefLP.sol\":49370:49375  vault */\n      0x04\n      dup1\n      sload\n        /* \"strategies/StrategyMiniChefLP.sol\":49348:49385  IERC20(want).transfer(vault, wantBal) */\n      0x40\n      dup1\n      mload\n      shl(0xe0, 0xa9059cbb)\n      dup2\n      mstore\n      sub(shl(0xa0, 0x01), 0x01)\n        /* \"strategies/StrategyMiniChefLP.sol\":49370:49375  vault */\n      swap3\n      dup4\n      and\n        /* \"strategies/StrategyMiniChefLP.sol\":49348:49385  IERC20(want).transfer(vault, wantBal) */\n      swap4\n      dup2\n      add\n      swap4\n      swap1\n      swap4\n      mstore\n      0x24\n      dup4\n      add\n      dup6\n      swap1\n      mstore\n      mload\n        /* \"strategies/StrategyMiniChefLP.sol\":49301:49338  IERC20(want).balanceOf(address(this)) */\n      swap4\n      swap5\n      pop\n        /* \"strategies/StrategyMiniChefLP.sol\":49355:49359  want */\n      swap1\n      swap2\n      and\n      swap2\n        /* \"strategies/StrategyMiniChefLP.sol\":49348:49369  IERC20(want).transfer */\n      0xa9059cbb\n      swap2\n        /* \"strategies/StrategyMiniChefLP.sol\":49348:49385  IERC20(want).transfer(vault, wantBal) */\n      0x44\n      dup1\n      dup3\n      add\n      swap3\n        /* \"strategies/StrategyMiniChefLP.sol\":49301:49338  IERC20(want).balanceOf(address(this)) */\n      0x20\n      swap3\n        /* \"strategies/StrategyMiniChefLP.sol\":49348:49385  IERC20(want).transfer(vault, wantBal) */\n      swap1\n      swap2\n      swap1\n      dup3\n      swap1\n      sub\n      add\n      dup2\n        /* \"strategies/StrategyMiniChefLP.sol\":49355:49359  want */\n      0x00\n      dup8\n        /* \"strategies/StrategyMiniChefLP.sol\":49348:49385  IERC20(want).transfer(vault, wantBal) */\n      dup1\n      extcodesize\n      iszero\n      dup1\n      iszero\n      tag_326\n      jumpi\n      0x00\n      dup1\n      revert\n    tag_326:\n      pop\n      gas\n      call\n      iszero\n      dup1\n      iszero\n      tag_328\n      jumpi\n      returndatasize\n      0x00\n      dup1\n      returndatacopy\n      revert(0x00, returndatasize)\n    tag_328:\n      pop\n      pop\n      pop\n      pop\n      mload(0x40)\n      returndatasize\n      0x20\n      dup2\n      lt\n      iszero\n      tag_204\n      jumpi\n      0x00\n      dup1\n      revert\n        /* \"strategies/StrategyMiniChefLP.sol\":40258:40278  address public vault */\n    tag_155:\n      and(sub(shl(0xa0, 0x01), 0x01), sload(0x04))\n      dup2\n      jump\t// out\n        /* \"strategies/StrategyMiniChefLP.sol\":42594:42652  uint public evolleFee = MAX_FEE - STRATEGIST_FEE - callFee */\n    tag_157:\n      sload(0x08)\n      dup2\n      jump\t// out\n        /* \"strategies/StrategyMiniChefLP.sol\":43545:43578  address[] public outputToLp1Route */\n    tag_160:\n      0x13\n      dup2\n      dup2\n      sload\n      dup2\n      lt\n      tag_163\n      jumpi\n      invalid\n        /* \"strategies/StrategyMiniChefLP.sol\":30809:31422  function safeApprove(IERC20 token, address spender, uint256 value) internal {... */\n    tag_161:\n        /* \"strategies/StrategyMiniChefLP.sol\":31174:31184  value == 0 */\n      dup1\n      iszero\n      dup1\n        /* \"strategies/StrategyMiniChefLP.sol\":31173:31235  (value == 0) || (token.allowance(address(this), spender) == 0) */\n      tag_333\n      jumpi\n      pop\n        /* \"strategies/StrategyMiniChefLP.sol\":31190:31229  token.allowance(address(this), spender) */\n      0x40\n      dup1\n      mload\n      shl(0xe1, 0x6eb1769f)\n      dup2\n      mstore\n        /* \"strategies/StrategyMiniChefLP.sol\":31214:31218  this */\n      address\n        /* \"strategies/StrategyMiniChefLP.sol\":31190:31229  token.allowance(address(this), spender) */\n      0x04\n      dup3\n      add\n      mstore\n      sub(shl(0xa0, 0x01), 0x01)\n      dup5\n      dup2\n      and\n      0x24\n      dup4\n      add\n      mstore\n      swap2\n      mload\n        /* \"strategies/StrategyMiniChefLP.sol\":31190:31205  token.allowance */\n      swap2\n      dup6\n      and\n      swap2\n      0xdd62ed3e\n      swap2\n        /* \"strategies/StrategyMiniChefLP.sol\":31190:31229  token.allowance(address(this), spender) */\n      0x44\n      dup1\n      dup3\n      add\n      swap3\n      0x20\n      swap3\n      swap1\n      swap2\n      swap1\n      dup3\n      swap1\n      sub\n      add\n      dup2\n        /* \"strategies/StrategyMiniChefLP.sol\":31190:31205  token.allowance */\n      dup7\n        /* \"strategies/StrategyMiniChefLP.sol\":31190:31229  token.allowance(address(this), spender) */\n      dup1\n      extcodesize\n      iszero\n      dup1\n      iszero\n      tag_334\n      jumpi\n      0x00\n      dup1\n      revert\n    tag_334:\n      pop\n      gas\n      staticcall\n      iszero\n      dup1\n      iszero\n      tag_336\n      jumpi\n      returndatasize\n      0x00\n      dup1\n      returndatacopy\n      revert(0x00, returndatasize)\n    tag_336:\n      pop\n      pop\n      pop\n      pop\n      mload(0x40)\n      returndatasize\n      0x20\n      dup2\n      lt\n      iszero\n      tag_337\n      jumpi\n      0x00\n      dup1\n      revert\n    tag_337:\n      pop\n      mload\n        /* \"strategies/StrategyMiniChefLP.sol\":31190:31234  token.allowance(address(this), spender) == 0 */\n      iszero\n        /* \"strategies/StrategyMiniChefLP.sol\":31173:31235  (value == 0) || (token.allowance(address(this), spender) == 0) */\n    tag_333:\n        /* \"strategies/StrategyMiniChefLP.sol\":31165:31315  require((value == 0) || (token.allowance(address(this), spender) == 0),... */\n      tag_338\n      jumpi\n      mload(0x40)\n      shl(0xe5, 0x461bcd)\n      dup2\n      mstore\n      0x04\n      add\n      dup1\n      dup1\n      0x20\n      add\n      dup3\n      dup2\n      sub\n      dup3\n      mstore\n      0x36\n      dup2\n      mstore\n      0x20\n      add\n      dup1\n      data_ef945ddb1bfdc0da870feb4560d868b047642b4ac7f2fb7f8b7c51cb4a411e25\n      0x36\n      swap2\n      codecopy\n      0x40\n      add\n      swap2\n      pop\n      pop\n      mload(0x40)\n      dup1\n      swap2\n      sub\n      swap1\n      revert\n    tag_338:\n        /* \"strategies/StrategyMiniChefLP.sol\":31352:31414  abi.encodeWithSelector(token.approve.selector, spender, value) */\n      0x40\n      dup1\n      mload\n      sub(shl(0xa0, 0x01), 0x01)\n      dup5\n      and\n      0x24\n      dup3\n      add\n      mstore\n      0x44\n      dup1\n      dup3\n      add\n      dup5\n      swap1\n      mstore\n      dup3\n      mload\n      dup1\n      dup4\n      sub\n      swap1\n      swap2\n      add\n      dup2\n      mstore\n      0x64\n      swap1\n      swap2\n      add\n      swap1\n      swap2\n      mstore\n      0x20\n      dup2\n      add\n      dup1\n      mload\n      sub(shl(0xe0, 0x01), 0x01)\n      and\n      shl(0xe0, 0x095ea7b3)\n      or\n      swap1\n      mstore\n        /* \"strategies/StrategyMiniChefLP.sol\":31325:31415  _callOptionalReturn(token, abi.encodeWithSelector(token.approve.selector, spender, value)) */\n      tag_204\n      swap1\n        /* \"strategies/StrategyMiniChefLP.sol\":31345:31350  token */\n      dup5\n      swap1\n        /* \"strategies/StrategyMiniChefLP.sol\":31325:31344  _callOptionalReturn */\n      tag_340\n        /* \"strategies/StrategyMiniChefLP.sol\":31325:31415  _callOptionalReturn(token, abi.encodeWithSelector(token.approve.selector, spender, value)) */\n      jump\t// in\n        /* \"strategies/StrategyMiniChefLP.sol\":25277:25470  function functionCall(address target, bytes memory data, string memory errorMessage) internal returns (bytes memory) {... */\n    tag_162:\n        /* \"strategies/StrategyMiniChefLP.sol\":25380:25392  bytes memory */\n      0x60\n        /* \"strategies/StrategyMiniChefLP.sol\":25411:25463  functionCallWithValue(target, data, 0, errorMessage) */\n      tag_342\n        /* \"strategies/StrategyMiniChefLP.sol\":25433:25439  target */\n      dup5\n        /* \"strategies/StrategyMiniChefLP.sol\":25441:25445  data */\n      dup5\n        /* \"strategies/StrategyMiniChefLP.sol\":25447:25448  0 */\n      0x00\n        /* \"strategies/StrategyMiniChefLP.sol\":25450:25462  errorMessage */\n      dup6\n        /* \"strategies/StrategyMiniChefLP.sol\":25411:25432  functionCallWithValue */\n      tag_343\n        /* \"strategies/StrategyMiniChefLP.sol\":25411:25463  functionCallWithValue(target, data, 0, errorMessage) */\n      jump\t// in\n    tag_342:\n        /* \"strategies/StrategyMiniChefLP.sol\":25404:25463  return functionCallWithValue(target, data, 0, errorMessage) */\n      swap1\n      pop\n        /* \"strategies/StrategyMiniChefLP.sol\":25277:25470  function functionCall(address target, bytes memory data, string memory errorMessage) internal returns (bytes memory) {... */\n    tag_341:\n      swap4\n      swap3\n      pop\n      pop\n      pop\n      jump\t// out\n        /* \"strategies/StrategyMiniChefLP.sol\":6841:6996  function sub(uint256 a, uint256 b) internal pure returns (uint256) {... */\n    tag_184:\n        /* \"strategies/StrategyMiniChefLP.sol\":6899:6906  uint256 */\n      0x00\n        /* \"strategies/StrategyMiniChefLP.sol\":6931:6932  a */\n      dup3\n        /* \"strategies/StrategyMiniChefLP.sol\":6926:6927  b */\n      dup3\n        /* \"strategies/StrategyMiniChefLP.sol\":6926:6932  b <= a */\n      gt\n      iszero\n        /* \"strategies/StrategyMiniChefLP.sol\":6918:6967  require(b <= a, \"SafeMath: subtraction overflow\") */\n      tag_345\n      jumpi\n      0x40\n      dup1\n      mload\n      shl(0xe5, 0x461bcd)\n      dup2\n      mstore\n      0x20\n      0x04\n      dup3\n      add\n      mstore\n      0x1e\n      0x24\n      dup3\n      add\n      mstore\n      0x536166654d6174683a207375627472616374696f6e206f766572666c6f770000\n      0x44\n      dup3\n      add\n      mstore\n      swap1\n      mload\n      swap1\n      dup2\n      swap1\n      sub\n      0x64\n      add\n      swap1\n      revert\n    tag_345:\n      pop\n        /* \"strategies/StrategyMiniChefLP.sol\":6984:6989  a - b */\n      dup1\n      dup3\n      sub\n        /* \"strategies/StrategyMiniChefLP.sol\":6841:6996  function sub(uint256 a, uint256 b) internal pure returns (uint256) {... */\n    tag_344:\n      swap3\n      swap2\n      pop\n      pop\n      jump\t// out\n        /* \"strategies/StrategyMiniChefLP.sol\":30165:30340  function safeTransfer(IERC20 token, address to, uint256 value) internal {... */\n    tag_198:\n        /* \"strategies/StrategyMiniChefLP.sol\":30274:30332  abi.encodeWithSelector(token.transfer.selector, to, value) */\n      0x40\n      dup1\n      mload\n      sub(shl(0xa0, 0x01), 0x01)\n      dup5\n      and\n      0x24\n      dup3\n      add\n      mstore\n      0x44\n      dup1\n      dup3\n      add\n      dup5\n      swap1\n      mstore\n      dup3\n      mload\n      dup1\n      dup4\n      sub\n      swap1\n      swap2\n      add\n      dup2\n      mstore\n      0x64\n      swap1\n      swap2\n      add\n      swap1\n      swap2\n      mstore\n      0x20\n      dup2\n      add\n      dup1\n      mload\n      sub(shl(0xe0, 0x01), 0x01)\n      and\n      shl(0xe0, 0xa9059cbb)\n      or\n      swap1\n      mstore\n        /* \"strategies/StrategyMiniChefLP.sol\":30247:30333  _callOptionalReturn(token, abi.encodeWithSelector(token.transfer.selector, to, value)) */\n      tag_204\n      swap1\n        /* \"strategies/StrategyMiniChefLP.sol\":30267:30272  token */\n      dup5\n      swap1\n        /* \"strategies/StrategyMiniChefLP.sol\":30247:30266  _callOptionalReturn */\n      tag_340\n        /* \"strategies/StrategyMiniChefLP.sol\":30247:30333  _callOptionalReturn(token, abi.encodeWithSelector(token.transfer.selector, to, value)) */\n      jump\t// in\n        /* \"strategies/StrategyMiniChefLP.sol\":7243:7458  function mul(uint256 a, uint256 b) internal pure returns (uint256) {... */\n    tag_202:\n        /* \"strategies/StrategyMiniChefLP.sol\":7301:7308  uint256 */\n      0x00\n        /* \"strategies/StrategyMiniChefLP.sol\":7324:7330  a == 0 */\n      dup3\n        /* \"strategies/StrategyMiniChefLP.sol\":7320:7340  if (a == 0) return 0 */\n      tag_349\n      jumpi\n      pop\n        /* \"strategies/StrategyMiniChefLP.sol\":7339:7340  0 */\n      0x00\n        /* \"strategies/StrategyMiniChefLP.sol\":7332:7340  return 0 */\n      jump(tag_344)\n        /* \"strategies/StrategyMiniChefLP.sol\":7320:7340  if (a == 0) return 0 */\n    tag_349:\n        /* \"strategies/StrategyMiniChefLP.sol\":7362:7367  a * b */\n      dup3\n      dup3\n      mul\n        /* \"strategies/StrategyMiniChefLP.sol\":7366:7367  b */\n      dup3\n        /* \"strategies/StrategyMiniChefLP.sol\":7362:7363  a */\n      dup5\n        /* \"strategies/StrategyMiniChefLP.sol\":7362:7367  a * b */\n      dup3\n        /* \"strategies/StrategyMiniChefLP.sol\":7362:7363  a */\n      dup2\n        /* \"strategies/StrategyMiniChefLP.sol\":7385:7390  c / a */\n      tag_350\n      jumpi\n      invalid\n    tag_350:\n      div\n        /* \"strategies/StrategyMiniChefLP.sol\":7385:7395  c / a == b */\n      eq\n        /* \"strategies/StrategyMiniChefLP.sol\":7377:7433  require(c / a == b, \"SafeMath: multiplication overflow\") */\n      tag_341\n      jumpi\n      mload(0x40)\n      shl(0xe5, 0x461bcd)\n      dup2\n      mstore\n      0x04\n      add\n      dup1\n      dup1\n      0x20\n      add\n      dup3\n      dup2\n      sub\n      dup3\n      mstore\n      0x21\n      dup2\n      mstore\n      0x20\n      add\n      dup1\n      data_9113bb53c2876a3805b2c9242029423fc540a728243ce887ab24c82cf119fba3\n      0x21\n      swap2\n      codecopy\n      0x40\n      add\n      swap2\n      pop\n      pop\n      mload(0x40)\n      dup1\n      swap2\n      sub\n      swap1\n      revert\n        /* \"strategies/StrategyMiniChefLP.sol\":7922:8072  function div(uint256 a, uint256 b) internal pure returns (uint256) {... */\n    tag_203:\n        /* \"strategies/StrategyMiniChefLP.sol\":7980:7987  uint256 */\n      0x00\n        /* \"strategies/StrategyMiniChefLP.sol\":8011:8012  0 */\n      dup1\n        /* \"strategies/StrategyMiniChefLP.sol\":8007:8008  b */\n      dup3\n        /* \"strategies/StrategyMiniChefLP.sol\":8007:8012  b > 0 */\n      gt\n        /* \"strategies/StrategyMiniChefLP.sol\":7999:8043  require(b > 0, \"SafeMath: division by zero\") */\n      tag_353\n      jumpi\n      0x40\n      dup1\n      mload\n      shl(0xe5, 0x461bcd)\n      dup2\n      mstore\n      0x20\n      0x04\n      dup3\n      add\n      mstore\n      0x1a\n      0x24\n      dup3\n      add\n      mstore\n      0x536166654d6174683a206469766973696f6e206279207a65726f000000000000\n      0x44\n      dup3\n      add\n      mstore\n      swap1\n      mload\n      swap1\n      dup2\n      swap1\n      sub\n      0x64\n      add\n      swap1\n      revert\n    tag_353:\n        /* \"strategies/StrategyMiniChefLP.sol\":8064:8065  b */\n      dup2\n        /* \"strategies/StrategyMiniChefLP.sol\":8060:8061  a */\n      dup4\n        /* \"strategies/StrategyMiniChefLP.sol\":8060:8065  a / b */\n      dup2\n      tag_354\n      jumpi\n      invalid\n    tag_354:\n      div\n      swap4\n        /* \"strategies/StrategyMiniChefLP.sol\":7922:8072  function div(uint256 a, uint256 b) internal pure returns (uint256) {... */\n      swap3\n      pop\n      pop\n      pop\n      jump\t// out\n        /* \"strategies/StrategyMiniChefLP.sol\":39968:40085  function _unpause() internal virtual whenPaused {... */\n    tag_214:\n        /* \"strategies/StrategyMiniChefLP.sol\":39535:39543  paused() */\n      tag_356\n        /* \"strategies/StrategyMiniChefLP.sol\":39535:39541  paused */\n      tag_95\n        /* \"strategies/StrategyMiniChefLP.sol\":39535:39543  paused() */\n      jump\t// in\n    tag_356:\n        /* \"strategies/StrategyMiniChefLP.sol\":39527:39568  require(paused(), \"Pausable: not paused\") */\n      tag_357\n      jumpi\n      0x40\n      dup1\n      mload\n      shl(0xe5, 0x461bcd)\n      dup2\n      mstore\n      0x20\n      0x04\n      dup3\n      add\n      mstore\n      0x14\n      0x24\n      dup3\n      add\n      mstore\n      shl(0x62, 0x14185d5cd8589b194e881b9bdd081c185d5cd959)\n      0x44\n      dup3\n      add\n      mstore\n      swap1\n      mload\n      swap1\n      dup2\n      swap1\n      sub\n      0x64\n      add\n      swap1\n      revert\n    tag_357:\n        /* \"strategies/StrategyMiniChefLP.sol\":40036:40041  false */\n      0x00\n        /* \"strategies/StrategyMiniChefLP.sol\":40026:40041  _paused = false */\n      dup1\n      sload\n      not(shl(0xa0, 0xff))\n      and\n      swap1\n      sstore\n        /* \"strategies/StrategyMiniChefLP.sol\":40056:40078  Unpaused(_msgSender()) */\n      0x5db9ee0a495bf2e6ff9c91a7834c1ba4fdd244a5e8aa4e537bd38aeae4b073aa\n        /* \"strategies/StrategyMiniChefLP.sol\":40065:40077  _msgSender() */\n      tag_359\n        /* \"strategies/StrategyMiniChefLP.sol\":40065:40075  _msgSender */\n      tag_245\n        /* \"strategies/StrategyMiniChefLP.sol\":40065:40077  _msgSender() */\n      jump\t// in\n    tag_359:\n        /* \"strategies/StrategyMiniChefLP.sol\":40056:40078  Unpaused(_msgSender()) */\n      0x40\n      dup1\n      mload\n      sub(shl(0xa0, 0x01), 0x01)\n      swap1\n      swap3\n      and\n      dup3\n      mstore\n      mload\n      swap1\n      dup2\n      swap1\n      sub\n      0x20\n      add\n      swap1\n      log1\n        /* \"strategies/StrategyMiniChefLP.sol\":39968:40085  function _unpause() internal virtual whenPaused {... */\n      jump\t// out\n        /* \"strategies/StrategyMiniChefLP.sol\":49823:50334  function _giveAllowances() internal {... */\n    tag_216:\n        /* \"strategies/StrategyMiniChefLP.sol\":49894:49898  chef */\n      sload(0x0e)\n        /* \"strategies/StrategyMiniChefLP.sol\":49876:49880  want */\n      sload(0x0b)\n        /* \"strategies/StrategyMiniChefLP.sol\":49869:49918  IERC20(want).safeApprove(chef, type(uint256).max) */\n      tag_361\n      swap2\n      sub(shl(0xa0, 0x01), 0x01)\n        /* \"strategies/StrategyMiniChefLP.sol\":49876:49880  want */\n      swap2\n      dup3\n      and\n      swap2\n        /* \"strategies/StrategyMiniChefLP.sol\":49894:49898  chef */\n      and\n      not(0x00)\n        /* \"strategies/StrategyMiniChefLP.sol\":49869:49893  IERC20(want).safeApprove */\n      tag_161\n        /* \"strategies/StrategyMiniChefLP.sol\":49869:49918  IERC20(want).safeApprove(chef, type(uint256).max) */\n      jump\t// in\n    tag_361:\n        /* \"strategies/StrategyMiniChefLP.sol\":49955:49964  unirouter */\n      sload(0x03)\n        /* \"strategies/StrategyMiniChefLP.sol\":49935:49941  output */\n      sload(0x0a)\n        /* \"strategies/StrategyMiniChefLP.sol\":49928:49984  IERC20(output).safeApprove(unirouter, type(uint256).max) */\n      tag_362\n      swap2\n      sub(shl(0xa0, 0x01), 0x01)\n        /* \"strategies/StrategyMiniChefLP.sol\":49935:49941  output */\n      swap2\n      dup3\n      and\n      swap2\n        /* \"strategies/StrategyMiniChefLP.sol\":49955:49964  unirouter */\n      and\n      not(0x00)\n        /* \"strategies/StrategyMiniChefLP.sol\":49928:49954  IERC20(output).safeApprove */\n      tag_161\n        /* \"strategies/StrategyMiniChefLP.sol\":49928:49984  IERC20(output).safeApprove(unirouter, type(uint256).max) */\n      jump\t// in\n    tag_362:\n        /* \"strategies/StrategyMiniChefLP.sol\":50056:50065  unirouter */\n      sload(0x03)\n        /* \"strategies/StrategyMiniChefLP.sol\":50036:50042  native */\n      sload(0x09)\n        /* \"strategies/StrategyMiniChefLP.sol\":50029:50085  IERC20(native).safeApprove(unirouter, type(uint256).max) */\n      tag_363\n      swap2\n      sub(shl(0xa0, 0x01), 0x01)\n        /* \"strategies/StrategyMiniChefLP.sol\":50036:50042  native */\n      swap2\n      dup3\n      and\n      swap2\n        /* \"strategies/StrategyMiniChefLP.sol\":50056:50065  unirouter */\n      and\n      not(0x00)\n        /* \"strategies/StrategyMiniChefLP.sol\":50029:50055  IERC20(native).safeApprove */\n      tag_161\n        /* \"strategies/StrategyMiniChefLP.sol\":50029:50085  IERC20(native).safeApprove(unirouter, type(uint256).max) */\n      jump\t// in\n    tag_363:\n        /* \"strategies/StrategyMiniChefLP.sol\":50125:50134  unirouter */\n      sload(0x03)\n        /* \"strategies/StrategyMiniChefLP.sol\":50103:50111  lpToken0 */\n      sload(0x0c)\n        /* \"strategies/StrategyMiniChefLP.sol\":50096:50138  IERC20(lpToken0).safeApprove(unirouter, 0) */\n      tag_364\n      swap2\n      sub(shl(0xa0, 0x01), 0x01)\n        /* \"strategies/StrategyMiniChefLP.sol\":50103:50111  lpToken0 */\n      swap2\n      dup3\n      and\n      swap2\n        /* \"strategies/StrategyMiniChefLP.sol\":50125:50134  unirouter */\n      and\n      0x00\n        /* \"strategies/StrategyMiniChefLP.sol\":50096:50124  IERC20(lpToken0).safeApprove */\n      tag_161\n        /* \"strategies/StrategyMiniChefLP.sol\":50096:50138  IERC20(lpToken0).safeApprove(unirouter, 0) */\n      jump\t// in\n    tag_364:\n        /* \"strategies/StrategyMiniChefLP.sol\":50177:50186  unirouter */\n      sload(0x03)\n        /* \"strategies/StrategyMiniChefLP.sol\":50155:50163  lpToken0 */\n      sload(0x0c)\n        /* \"strategies/StrategyMiniChefLP.sol\":50148:50206  IERC20(lpToken0).safeApprove(unirouter, type(uint256).max) */\n      tag_365\n      swap2\n      sub(shl(0xa0, 0x01), 0x01)\n        /* \"strategies/StrategyMiniChefLP.sol\":50155:50163  lpToken0 */\n      swap2\n      dup3\n      and\n      swap2\n        /* \"strategies/StrategyMiniChefLP.sol\":50177:50186  unirouter */\n      and\n      not(0x00)\n        /* \"strategies/StrategyMiniChefLP.sol\":50148:50176  IERC20(lpToken0).safeApprove */\n      tag_161\n        /* \"strategies/StrategyMiniChefLP.sol\":50148:50206  IERC20(lpToken0).safeApprove(unirouter, type(uint256).max) */\n      jump\t// in\n    tag_365:\n        /* \"strategies/StrategyMiniChefLP.sol\":50246:50255  unirouter */\n      sload(0x03)\n        /* \"strategies/StrategyMiniChefLP.sol\":50224:50232  lpToken1 */\n      sload(0x0d)\n        /* \"strategies/StrategyMiniChefLP.sol\":50217:50259  IERC20(lpToken1).safeApprove(unirouter, 0) */\n      tag_366\n      swap2\n      sub(shl(0xa0, 0x01), 0x01)\n        /* \"strategies/StrategyMiniChefLP.sol\":50224:50232  lpToken1 */\n      swap2\n      dup3\n      and\n      swap2\n        /* \"strategies/StrategyMiniChefLP.sol\":50246:50255  unirouter */\n      and\n      0x00\n        /* \"strategies/StrategyMiniChefLP.sol\":50217:50245  IERC20(lpToken1).safeApprove */\n      tag_161\n        /* \"strategies/StrategyMiniChefLP.sol\":50217:50259  IERC20(lpToken1).safeApprove(unirouter, 0) */\n      jump\t// in\n    tag_366:\n        /* \"strategies/StrategyMiniChefLP.sol\":50298:50307  unirouter */\n      sload(0x03)\n        /* \"strategies/StrategyMiniChefLP.sol\":50276:50284  lpToken1 */\n      sload(0x0d)\n        /* \"strategies/StrategyMiniChefLP.sol\":50269:50327  IERC20(lpToken1).safeApprove(unirouter, type(uint256).max) */\n      tag_217\n      swap2\n      sub(shl(0xa0, 0x01), 0x01)\n        /* \"strategies/StrategyMiniChefLP.sol\":50276:50284  lpToken1 */\n      swap2\n      dup3\n      and\n      swap2\n        /* \"strategies/StrategyMiniChefLP.sol\":50298:50307  unirouter */\n      and\n      not(0x00)\n        /* \"strategies/StrategyMiniChefLP.sol\":50269:50297  IERC20(lpToken1).safeApprove */\n      tag_161\n        /* \"strategies/StrategyMiniChefLP.sol\":50269:50327  IERC20(lpToken1).safeApprove(unirouter, type(uint256).max) */\n      jump\t// in\n        /* \"strategies/StrategyMiniChefLP.sol\":46549:47623  function chargeFees() internal {... */\n    tag_228:\n        /* \"strategies/StrategyMiniChefLP.sol\":46704:46710  native */\n      sload(0x09)\n        /* \"strategies/StrategyMiniChefLP.sol\":46697:46736  IERC20(native).balanceOf(address(this)) */\n      0x40\n      dup1\n      mload\n      shl(0xe0, 0x70a08231)\n      dup2\n      mstore\n        /* \"strategies/StrategyMiniChefLP.sol\":46730:46734  this */\n      address\n        /* \"strategies/StrategyMiniChefLP.sol\":46697:46736  IERC20(native).balanceOf(address(this)) */\n      0x04\n      dup3\n      add\n      mstore\n      swap1\n      mload\n        /* \"strategies/StrategyMiniChefLP.sol\":46678:46694  uint256 toOutput */\n      0x00\n      swap3\n      sub(shl(0xa0, 0x01), 0x01)\n        /* \"strategies/StrategyMiniChefLP.sol\":46704:46710  native */\n      and\n      swap2\n        /* \"strategies/StrategyMiniChefLP.sol\":46697:46721  IERC20(native).balanceOf */\n      0x70a08231\n      swap2\n        /* \"strategies/StrategyMiniChefLP.sol\":46697:46736  IERC20(native).balanceOf(address(this)) */\n      0x24\n      dup1\n      dup4\n      add\n      swap3\n      0x20\n      swap3\n      swap2\n      swap1\n      dup3\n      swap1\n      sub\n      add\n      dup2\n        /* \"strategies/StrategyMiniChefLP.sol\":46704:46710  native */\n      dup7\n        /* \"strategies/StrategyMiniChefLP.sol\":46697:46736  IERC20(native).balanceOf(address(this)) */\n      dup1\n      extcodesize\n      iszero\n      dup1\n      iszero\n      tag_369\n      jumpi\n      0x00\n      dup1\n      revert\n    tag_369:\n      pop\n      gas\n      staticcall\n      iszero\n      dup1\n      iszero\n      tag_371\n      jumpi\n      returndatasize\n      0x00\n      dup1\n      returndatacopy\n      revert(0x00, returndatasize)\n    tag_371:\n      pop\n      pop\n      pop\n      pop\n      mload(0x40)\n      returndatasize\n      0x20\n      dup2\n      lt\n      iszero\n      tag_372\n      jumpi\n      0x00\n      dup1\n      revert\n    tag_372:\n      pop\n      mload\n      swap1\n      pop\n        /* \"strategies/StrategyMiniChefLP.sol\":46750:46762  toOutput > 0 */\n      dup1\n      iszero\n        /* \"strategies/StrategyMiniChefLP.sol\":46746:46908  if (toOutput > 0) {... */\n      tag_373\n      jumpi\n        /* \"strategies/StrategyMiniChefLP.sol\":46796:46805  unirouter */\n      sload(0x03)\n        /* \"strategies/StrategyMiniChefLP.sol\":46778:46897  IUniswapRouterETH(unirouter).swapExactTokensForTokens(toOutput, 0, nativeToOutputRoute, address(this), block.timestamp) */\n      mload(0x40)\n      shl(0xe0, 0x38ed1739)\n      dup2\n      mstore\n      0x04\n      dup2\n      add\n      dup4\n      dup2\n      mstore\n        /* \"strategies/StrategyMiniChefLP.sol\":46796:46805  unirouter */\n      0x00\n        /* \"strategies/StrategyMiniChefLP.sol\":46778:46897  IUniswapRouterETH(unirouter).swapExactTokensForTokens(toOutput, 0, nativeToOutputRoute, address(this), block.timestamp) */\n      0x24\n      dup4\n      add\n      dup2\n      swap1\n      mstore\n        /* \"strategies/StrategyMiniChefLP.sol\":46874:46878  this */\n      address\n        /* \"strategies/StrategyMiniChefLP.sol\":46778:46897  IUniswapRouterETH(unirouter).swapExactTokensForTokens(toOutput, 0, nativeToOutputRoute, address(this), block.timestamp) */\n      0x64\n      dup5\n      add\n      dup2\n      swap1\n      mstore\n        /* \"strategies/StrategyMiniChefLP.sol\":46881:46896  block.timestamp */\n      timestamp\n        /* \"strategies/StrategyMiniChefLP.sol\":46778:46897  IUniswapRouterETH(unirouter).swapExactTokensForTokens(toOutput, 0, nativeToOutputRoute, address(this), block.timestamp) */\n      0x84\n      dup6\n      add\n      dup2\n      swap1\n      mstore\n      0xa0\n      0x44\n      dup7\n      add\n      swap1\n      dup2\n      mstore\n        /* \"strategies/StrategyMiniChefLP.sol\":46845:46864  nativeToOutputRoute */\n      0x11\n        /* \"strategies/StrategyMiniChefLP.sol\":46778:46897  IUniswapRouterETH(unirouter).swapExactTokensForTokens(toOutput, 0, nativeToOutputRoute, address(this), block.timestamp) */\n      dup1\n      sload\n      0xa4\n      dup9\n      add\n      dup2\n      swap1\n      mstore\n      sub(shl(0xa0, 0x01), 0x01)\n        /* \"strategies/StrategyMiniChefLP.sol\":46796:46805  unirouter */\n      swap1\n      swap9\n      and\n      swap8\n        /* \"strategies/StrategyMiniChefLP.sol\":46778:46831  IUniswapRouterETH(unirouter).swapExactTokensForTokens */\n      0x38ed1739\n      swap8\n        /* \"strategies/StrategyMiniChefLP.sol\":46832:46840  toOutput */\n      dup11\n      swap8\n        /* \"strategies/StrategyMiniChefLP.sol\":46845:46864  nativeToOutputRoute */\n      swap3\n      swap6\n        /* \"strategies/StrategyMiniChefLP.sol\":46874:46878  this */\n      swap5\n        /* \"strategies/StrategyMiniChefLP.sol\":46881:46896  block.timestamp */\n      swap4\n        /* \"strategies/StrategyMiniChefLP.sol\":46778:46897  IUniswapRouterETH(unirouter).swapExactTokensForTokens(toOutput, 0, nativeToOutputRoute, address(this), block.timestamp) */\n      swap2\n      0xc4\n      swap1\n      swap2\n      add\n      swap1\n        /* \"strategies/StrategyMiniChefLP.sol\":46845:46864  nativeToOutputRoute */\n      dup7\n      swap1\n        /* \"strategies/StrategyMiniChefLP.sol\":46778:46897  IUniswapRouterETH(unirouter).swapExactTokensForTokens(toOutput, 0, nativeToOutputRoute, address(this), block.timestamp) */\n      dup1\n      iszero\n      tag_374\n      jumpi\n      0x20\n      mul\n      dup3\n      add\n      swap2\n      swap1\n      0x00\n      mstore\n      keccak256(0x00, 0x20)\n      swap1\n    tag_375:\n      dup2\n      sload\n      sub(shl(0xa0, 0x01), 0x01)\n      and\n      dup2\n      mstore\n      0x01\n      swap1\n      swap2\n      add\n      swap1\n      0x20\n      add\n      dup1\n      dup4\n      gt\n      tag_375\n      jumpi\n    tag_374:\n      pop\n      pop\n      swap7\n      pop\n      pop\n      pop\n      pop\n      pop\n      pop\n      pop\n      0x00\n      mload(0x40)\n      dup1\n      dup4\n      sub\n      dup2\n      0x00\n      dup8\n      dup1\n      extcodesize\n      iszero\n      dup1\n      iszero\n      tag_376\n      jumpi\n      0x00\n      dup1\n      revert\n    tag_376:\n      pop\n      gas\n      call\n      iszero\n      dup1\n      iszero\n      tag_378\n      jumpi\n      returndatasize\n      0x00\n      dup1\n      returndatacopy\n      revert(0x00, returndatasize)\n    tag_378:\n      pop\n      pop\n      pop\n      pop\n      mload(0x40)\n      returndatasize\n      0x00\n      dup3\n      returndatacopy\n      0x1f\n      returndatasize\n      swap1\n      dup2\n      add\n      not(0x1f)\n      and\n      dup3\n      add\n      0x40\n      mstore\n      0x20\n      dup2\n      lt\n      iszero\n      tag_379\n      jumpi\n      0x00\n      dup1\n      revert\n    tag_379:\n      dup2\n      add\n      swap1\n      dup1\n      dup1\n      mload\n      mload(0x40)\n      swap4\n      swap3\n      swap2\n      swap1\n      dup5\n      shl(0x20, 0x01)\n      dup3\n      gt\n      iszero\n      tag_380\n      jumpi\n      0x00\n      dup1\n      revert\n    tag_380:\n      swap1\n      dup4\n      add\n      swap1\n      0x20\n      dup3\n      add\n      dup6\n      dup2\n      gt\n      iszero\n      tag_381\n      jumpi\n      0x00\n      dup1\n      revert\n    tag_381:\n      dup3\n      mload\n      dup7\n      0x20\n      dup3\n      mul\n      dup4\n      add\n      gt\n      shl(0x20, 0x01)\n      dup3\n      gt\n      or\n      iszero\n      tag_382\n      jumpi\n      0x00\n      dup1\n      revert\n    tag_382:\n      dup3\n      mstore\n      pop\n      dup2\n      mload\n      0x20\n      swap2\n      dup3\n      add\n      swap3\n      dup3\n      add\n      swap2\n      mul\n      dup1\n      dup4\n      dup4\n      0x00\n    tag_383:\n      dup4\n      dup2\n      lt\n      iszero\n      tag_385\n      jumpi\n      dup2\n      dup2\n      add\n      mload\n      dup4\n      dup3\n      add\n      mstore\n      0x20\n      add\n      jump(tag_383)\n    tag_385:\n      pop\n      pop\n      pop\n      pop\n      swap1\n      pop\n      add\n      0x40\n      mstore\n      pop\n      pop\n      pop\n      pop\n        /* \"strategies/StrategyMiniChefLP.sol\":46746:46908  if (toOutput > 0) {... */\n    tag_373:\n        /* \"strategies/StrategyMiniChefLP.sol\":46944:46950  output */\n      sload(0x0a)\n        /* \"strategies/StrategyMiniChefLP.sol\":46937:46976  IERC20(output).balanceOf(address(this)) */\n      0x40\n      dup1\n      mload\n      shl(0xe0, 0x70a08231)\n      dup2\n      mstore\n        /* \"strategies/StrategyMiniChefLP.sol\":46970:46974  this */\n      address\n        /* \"strategies/StrategyMiniChefLP.sol\":46937:46976  IERC20(output).balanceOf(address(this)) */\n      0x04\n      dup3\n      add\n      mstore\n      swap1\n      mload\n        /* \"strategies/StrategyMiniChefLP.sol\":46918:46934  uint256 toNative */\n      0x00\n      swap3\n        /* \"strategies/StrategyMiniChefLP.sol\":46937:46994  IERC20(output).balanceOf(address(this)).mul(30).div(1000) */\n      tag_386\n      swap3\n        /* \"strategies/StrategyMiniChefLP.sol\":46989:46993  1000 */\n      0x03e8\n      swap3\n        /* \"strategies/StrategyMiniChefLP.sol\":46937:46984  IERC20(output).balanceOf(address(this)).mul(30) */\n      tag_201\n      swap3\n        /* \"strategies/StrategyMiniChefLP.sol\":46981:46983  30 */\n      0x1e\n      swap3\n      sub(shl(0xa0, 0x01), 0x01)\n        /* \"strategies/StrategyMiniChefLP.sol\":46944:46950  output */\n      swap1\n      swap2\n      and\n      swap2\n        /* \"strategies/StrategyMiniChefLP.sol\":46937:46961  IERC20(output).balanceOf */\n      0x70a08231\n      swap2\n        /* \"strategies/StrategyMiniChefLP.sol\":46937:46976  IERC20(output).balanceOf(address(this)) */\n      0x24\n      dup1\n      dup3\n      add\n      swap3\n      0x20\n      swap3\n      swap1\n      swap2\n      swap1\n      dup3\n      swap1\n      sub\n      add\n      dup2\n        /* \"strategies/StrategyMiniChefLP.sol\":46944:46950  output */\n      dup7\n        /* \"strategies/StrategyMiniChefLP.sol\":46937:46976  IERC20(output).balanceOf(address(this)) */\n      dup1\n      extcodesize\n      iszero\n      dup1\n      iszero\n      tag_388\n      jumpi\n      0x00\n      dup1\n      revert\n    tag_388:\n      pop\n      gas\n      staticcall\n      iszero\n      dup1\n      iszero\n      tag_390\n      jumpi\n      returndatasize\n      0x00\n      dup1\n      returndatacopy\n      revert(0x00, returndatasize)\n    tag_390:\n      pop\n      pop\n      pop\n      pop\n      mload(0x40)\n      returndatasize\n      0x20\n      dup2\n      lt\n      iszero\n      tag_391\n      jumpi\n      0x00\n      dup1\n      revert\n    tag_391:\n      pop\n      mload\n      swap1\n        /* \"strategies/StrategyMiniChefLP.sol\":46937:46980  IERC20(output).balanceOf(address(this)).mul */\n      tag_202\n        /* \"strategies/StrategyMiniChefLP.sol\":46937:46984  IERC20(output).balanceOf(address(this)).mul(30) */\n      jump\t// in\n        /* \"strategies/StrategyMiniChefLP.sol\":46937:46994  IERC20(output).balanceOf(address(this)).mul(30).div(1000) */\n    tag_386:\n        /* \"strategies/StrategyMiniChefLP.sol\":46918:46994  uint256 toNative = IERC20(output).balanceOf(address(this)).mul(30).div(1000) */\n      swap1\n      pop\n        /* \"strategies/StrategyMiniChefLP.sol\":47022:47031  unirouter */\n      0x03\n      0x00\n      swap1\n      sload\n      swap1\n      0x0100\n      exp\n      swap1\n      div\n      sub(shl(0xa0, 0x01), 0x01)\n      and\n      sub(shl(0xa0, 0x01), 0x01)\n        /* \"strategies/StrategyMiniChefLP.sol\":47004:47057  IUniswapRouterETH(unirouter).swapExactTokensForTokens */\n      and\n      0x38ed1739\n        /* \"strategies/StrategyMiniChefLP.sol\":47058:47066  toNative */\n      dup3\n        /* \"strategies/StrategyMiniChefLP.sol\":47068:47069  0 */\n      0x00\n        /* \"strategies/StrategyMiniChefLP.sol\":47071:47090  outputToNativeRoute */\n      0x10\n        /* \"strategies/StrategyMiniChefLP.sol\":47100:47104  this */\n      address\n        /* \"strategies/StrategyMiniChefLP.sol\":47107:47122  block.timestamp */\n      timestamp\n        /* \"strategies/StrategyMiniChefLP.sol\":47004:47123  IUniswapRouterETH(unirouter).swapExactTokensForTokens(toNative, 0, outputToNativeRoute, address(this), block.timestamp) */\n      mload(0x40)\n      dup7\n      0xffffffff\n      and\n      0xe0\n      shl\n      dup2\n      mstore\n      0x04\n      add\n      dup1\n      dup7\n      dup2\n      mstore\n      0x20\n      add\n      dup6\n      dup2\n      mstore\n      0x20\n      add\n      dup1\n      0x20\n      add\n      dup5\n      sub(shl(0xa0, 0x01), 0x01)\n      and\n      dup2\n      mstore\n      0x20\n      add\n      dup4\n      dup2\n      mstore\n      0x20\n      add\n      dup3\n      dup2\n      sub\n      dup3\n      mstore\n      dup6\n      dup2\n      dup2\n      sload\n      dup2\n      mstore\n      0x20\n      add\n      swap2\n      pop\n      dup1\n      sload\n      dup1\n      iszero\n      tag_392\n      jumpi\n      0x20\n      mul\n      dup3\n      add\n      swap2\n      swap1\n      0x00\n      mstore\n      keccak256(0x00, 0x20)\n      swap1\n    tag_393:\n      dup2\n      sload\n      sub(shl(0xa0, 0x01), 0x01)\n      and\n      dup2\n      mstore\n      0x01\n      swap1\n      swap2\n      add\n      swap1\n      0x20\n      add\n      dup1\n      dup4\n      gt\n      tag_393\n      jumpi\n    tag_392:\n      pop\n      pop\n      swap7\n      pop\n      pop\n      pop\n      pop\n      pop\n      pop\n      pop\n      0x00\n      mload(0x40)\n      dup1\n      dup4\n      sub\n      dup2\n      0x00\n      dup8\n      dup1\n      extcodesize\n      iszero\n      dup1\n      iszero\n      tag_394\n      jumpi\n      0x00\n      dup1\n      revert\n    tag_394:\n      pop\n      gas\n      call\n      iszero\n      dup1\n      iszero\n      tag_396\n      jumpi\n      returndatasize\n      0x00\n      dup1\n      returndatacopy\n      revert(0x00, returndatasize)\n    tag_396:\n      pop\n      pop\n      pop\n      pop\n      mload(0x40)\n      returndatasize\n      0x00\n      dup3\n      returndatacopy\n      0x1f\n      returndatasize\n      swap1\n      dup2\n      add\n      not(0x1f)\n      and\n      dup3\n      add\n      0x40\n      mstore\n      0x20\n      dup2\n      lt\n      iszero\n      tag_397\n      jumpi\n      0x00\n      dup1\n      revert\n    tag_397:\n      dup2\n      add\n      swap1\n      dup1\n      dup1\n      mload\n      mload(0x40)\n      swap4\n      swap3\n      swap2\n      swap1\n      dup5\n      shl(0x20, 0x01)\n      dup3\n      gt\n      iszero\n      tag_398\n      jumpi\n      0x00\n      dup1\n      revert\n    tag_398:\n      swap1\n      dup4\n      add\n      swap1\n      0x20\n      dup3\n      add\n      dup6\n      dup2\n      gt\n      iszero\n      tag_399\n      jumpi\n      0x00\n      dup1\n      revert\n    tag_399:\n      dup3\n      mload\n      dup7\n      0x20\n      dup3\n      mul\n      dup4\n      add\n      gt\n      shl(0x20, 0x01)\n      dup3\n      gt\n      or\n      iszero\n      tag_400\n      jumpi\n      0x00\n      dup1\n      revert\n    tag_400:\n      dup3\n      mstore\n      pop\n      dup2\n      mload\n      0x20\n      swap2\n      dup3\n      add\n      swap3\n      dup3\n      add\n      swap2\n      mul\n      dup1\n      dup4\n      dup4\n      0x00\n    tag_401:\n      dup4\n      dup2\n      lt\n      iszero\n      tag_403\n      jumpi\n      dup2\n      dup2\n      add\n      mload\n      dup4\n      dup3\n      add\n      mstore\n      0x20\n      add\n      jump(tag_401)\n    tag_403:\n      pop\n      pop\n      pop\n      pop\n      swap2\n      swap1\n      swap2\n      add\n      0x40\n      dup2\n      dup2\n      mstore\n        /* \"strategies/StrategyMiniChefLP.sol\":47161:47167  native */\n      sload(0x09)\n      shl(0xe0, 0x70a08231)\n        /* \"strategies/StrategyMiniChefLP.sol\":47154:47193  IERC20(native).balanceOf(address(this)) */\n      dup4\n      mstore\n        /* \"strategies/StrategyMiniChefLP.sol\":47187:47191  this */\n      address\n        /* \"strategies/StrategyMiniChefLP.sol\":47154:47193  IERC20(native).balanceOf(address(this)) */\n      0x04\n      dup5\n      add\n      mstore\n      swap1\n      mload\n        /* \"strategies/StrategyMiniChefLP.sol\":47134:47151  uint256 nativeBal */\n      0x00\n      swap8\n      pop\n      sub(shl(0xa0, 0x01), 0x01)\n        /* \"strategies/StrategyMiniChefLP.sol\":47161:47167  native */\n      swap1\n      swap2\n      and\n      swap6\n      pop\n        /* \"strategies/StrategyMiniChefLP.sol\":47154:47178  IERC20(native).balanceOf */\n      0x70a08231\n      swap5\n      pop\n        /* \"strategies/StrategyMiniChefLP.sol\":47154:47193  IERC20(native).balanceOf(address(this)) */\n      0x24\n      dup1\n      dup4\n      add\n      swap5\n      pop\n      0x20\n      swap4\n      pop\n      swap1\n      swap2\n      dup3\n      swap1\n      sub\n      add\n      dup2\n        /* \"strategies/StrategyMiniChefLP.sol\":47161:47167  native */\n      dup7\n        /* \"strategies/StrategyMiniChefLP.sol\":47154:47193  IERC20(native).balanceOf(address(this)) */\n      dup1\n      extcodesize\n      iszero\n      dup1\n      iszero\n      tag_404\n      jumpi\n      0x00\n      dup1\n      revert\n    tag_404:\n      pop\n      gas\n      staticcall\n      iszero\n      dup1\n      iszero\n      tag_406\n      jumpi\n      returndatasize\n      0x00\n      dup1\n      returndatacopy\n      revert(0x00, returndatasize)\n    tag_406:\n      pop\n      pop\n      pop\n      pop\n      mload(0x40)\n      returndatasize\n      0x20\n      dup2\n      lt\n      iszero\n      tag_407\n      jumpi\n      0x00\n      dup1\n      revert\n    tag_407:\n      pop\n      mload\n        /* \"strategies/StrategyMiniChefLP.sol\":47242:47249  callFee */\n      sload(0x07)\n        /* \"strategies/StrategyMiniChefLP.sol\":47154:47193  IERC20(native).balanceOf(address(this)) */\n      swap1\n      swap2\n      pop\n        /* \"strategies/StrategyMiniChefLP.sol\":47204:47225  uint256 callFeeAmount */\n      0x00\n      swap1\n        /* \"strategies/StrategyMiniChefLP.sol\":47228:47263  nativeBal.mul(callFee).div(MAX_FEE) */\n      tag_408\n      swap1\n        /* \"strategies/StrategyMiniChefLP.sol\":42370:42374  1000 */\n      0x03e8\n      swap1\n        /* \"strategies/StrategyMiniChefLP.sol\":47228:47250  nativeBal.mul(callFee) */\n      tag_201\n      swap1\n        /* \"strategies/StrategyMiniChefLP.sol\":47154:47193  IERC20(native).balanceOf(address(this)) */\n      dup6\n      swap1\n        /* \"strategies/StrategyMiniChefLP.sol\":47228:47241  nativeBal.mul */\n      tag_202\n        /* \"strategies/StrategyMiniChefLP.sol\":47228:47250  nativeBal.mul(callFee) */\n      jump\t// in\n        /* \"strategies/StrategyMiniChefLP.sol\":47228:47263  nativeBal.mul(callFee).div(MAX_FEE) */\n    tag_408:\n        /* \"strategies/StrategyMiniChefLP.sol\":47280:47286  native */\n      sload(0x09)\n        /* \"strategies/StrategyMiniChefLP.sol\":47204:47263  uint256 callFeeAmount = nativeBal.mul(callFee).div(MAX_FEE) */\n      swap1\n      swap2\n      pop\n        /* \"strategies/StrategyMiniChefLP.sol\":47273:47327  IERC20(native).safeTransfer(msg.sender, callFeeAmount) */\n      tag_410\n      swap1\n      sub(shl(0xa0, 0x01), 0x01)\n        /* \"strategies/StrategyMiniChefLP.sol\":47280:47286  native */\n      and\n        /* \"strategies/StrategyMiniChefLP.sol\":47301:47311  msg.sender */\n      caller\n        /* \"strategies/StrategyMiniChefLP.sol\":47204:47263  uint256 callFeeAmount = nativeBal.mul(callFee).div(MAX_FEE) */\n      dup4\n        /* \"strategies/StrategyMiniChefLP.sol\":47273:47300  IERC20(native).safeTransfer */\n      tag_198\n        /* \"strategies/StrategyMiniChefLP.sol\":47273:47327  IERC20(native).safeTransfer(msg.sender, callFeeAmount) */\n      jump\t// in\n    tag_410:\n        /* \"strategies/StrategyMiniChefLP.sol\":47338:47361  uint256 evolleFeeAmount */\n      0x00\n        /* \"strategies/StrategyMiniChefLP.sol\":47364:47401  nativeBal.mul(evolleFee).div(MAX_FEE) */\n      tag_411\n        /* \"strategies/StrategyMiniChefLP.sol\":42370:42374  1000 */\n      0x03e8\n        /* \"strategies/StrategyMiniChefLP.sol\":47364:47388  nativeBal.mul(evolleFee) */\n      tag_201\n        /* \"strategies/StrategyMiniChefLP.sol\":47378:47387  evolleFee */\n      sload(0x08)\n        /* \"strategies/StrategyMiniChefLP.sol\":47364:47373  nativeBal */\n      dup7\n        /* \"strategies/StrategyMiniChefLP.sol\":47364:47377  nativeBal.mul */\n      tag_202\n      swap1\n        /* \"strategies/StrategyMiniChefLP.sol\":47364:47388  nativeBal.mul(evolleFee) */\n      swap2\n      swap1\n      0xffffffff\n      and\n      jump\t// in\n        /* \"strategies/StrategyMiniChefLP.sol\":47364:47401  nativeBal.mul(evolleFee).div(MAX_FEE) */\n    tag_411:\n        /* \"strategies/StrategyMiniChefLP.sol\":47439:47457  evolleFeeRecipient */\n      sload(0x05)\n        /* \"strategies/StrategyMiniChefLP.sol\":47418:47424  native */\n      sload(0x09)\n        /* \"strategies/StrategyMiniChefLP.sol\":47338:47401  uint256 evolleFeeAmount = nativeBal.mul(evolleFee).div(MAX_FEE) */\n      swap2\n      swap3\n      pop\n        /* \"strategies/StrategyMiniChefLP.sol\":47411:47475  IERC20(native).safeTransfer(evolleFeeRecipient, evolleFeeAmount) */\n      tag_413\n      swap2\n      sub(shl(0xa0, 0x01), 0x01)\n        /* \"strategies/StrategyMiniChefLP.sol\":47418:47424  native */\n      swap1\n      dup2\n      and\n      swap2\n        /* \"strategies/StrategyMiniChefLP.sol\":47439:47457  evolleFeeRecipient */\n      and\n        /* \"strategies/StrategyMiniChefLP.sol\":47338:47401  uint256 evolleFeeAmount = nativeBal.mul(evolleFee).div(MAX_FEE) */\n      dup4\n        /* \"strategies/StrategyMiniChefLP.sol\":47411:47438  IERC20(native).safeTransfer */\n      tag_198\n        /* \"strategies/StrategyMiniChefLP.sol\":47411:47475  IERC20(native).safeTransfer(evolleFeeRecipient, evolleFeeAmount) */\n      jump\t// in\n    tag_413:\n        /* \"strategies/StrategyMiniChefLP.sol\":47486:47507  uint256 strategistFee */\n      0x00\n        /* \"strategies/StrategyMiniChefLP.sol\":47510:47552  nativeBal.mul(STRATEGIST_FEE).div(MAX_FEE) */\n      tag_414\n        /* \"strategies/StrategyMiniChefLP.sol\":42370:42374  1000 */\n      0x03e8\n        /* \"strategies/StrategyMiniChefLP.sol\":47510:47539  nativeBal.mul(STRATEGIST_FEE) */\n      tag_201\n        /* \"strategies/StrategyMiniChefLP.sol\":47510:47519  nativeBal */\n      dup7\n        /* \"strategies/StrategyMiniChefLP.sol\":47486:47507  uint256 strategistFee */\n      dup5\n        /* \"strategies/StrategyMiniChefLP.sol\":47510:47523  nativeBal.mul */\n      tag_202\n        /* \"strategies/StrategyMiniChefLP.sol\":47510:47539  nativeBal.mul(STRATEGIST_FEE) */\n      jump\t// in\n        /* \"strategies/StrategyMiniChefLP.sol\":47510:47552  nativeBal.mul(STRATEGIST_FEE).div(MAX_FEE) */\n    tag_414:\n        /* \"strategies/StrategyMiniChefLP.sol\":47590:47600  strategist */\n      sload(0x02)\n        /* \"strategies/StrategyMiniChefLP.sol\":47569:47575  native */\n      sload(0x09)\n        /* \"strategies/StrategyMiniChefLP.sol\":47486:47552  uint256 strategistFee = nativeBal.mul(STRATEGIST_FEE).div(MAX_FEE) */\n      swap2\n      swap3\n      pop\n        /* \"strategies/StrategyMiniChefLP.sol\":47562:47616  IERC20(native).safeTransfer(strategist, strategistFee) */\n      tag_416\n      swap2\n      sub(shl(0xa0, 0x01), 0x01)\n        /* \"strategies/StrategyMiniChefLP.sol\":47569:47575  native */\n      swap1\n      dup2\n      and\n      swap2\n        /* \"strategies/StrategyMiniChefLP.sol\":47590:47600  strategist */\n      and\n        /* \"strategies/StrategyMiniChefLP.sol\":47486:47552  uint256 strategistFee = nativeBal.mul(STRATEGIST_FEE).div(MAX_FEE) */\n      dup4\n        /* \"strategies/StrategyMiniChefLP.sol\":47562:47589  IERC20(native).safeTransfer */\n      tag_198\n        /* \"strategies/StrategyMiniChefLP.sol\":47562:47616  IERC20(native).safeTransfer(strategist, strategistFee) */\n      jump\t// in\n    tag_416:\n        /* \"strategies/StrategyMiniChefLP.sol\":46549:47623  function chargeFees() internal {... */\n      pop\n      pop\n      pop\n      pop\n      pop\n      pop\n      jump\t// out\n        /* \"strategies/StrategyMiniChefLP.sol\":47683:48416  function addLiquidity() internal {... */\n    tag_230:\n        /* \"strategies/StrategyMiniChefLP.sol\":47754:47760  output */\n      sload(0x0a)\n        /* \"strategies/StrategyMiniChefLP.sol\":47747:47786  IERC20(output).balanceOf(address(this)) */\n      0x40\n      dup1\n      mload\n      shl(0xe0, 0x70a08231)\n      dup2\n      mstore\n        /* \"strategies/StrategyMiniChefLP.sol\":47780:47784  this */\n      address\n        /* \"strategies/StrategyMiniChefLP.sol\":47747:47786  IERC20(output).balanceOf(address(this)) */\n      0x04\n      dup3\n      add\n      mstore\n      swap1\n      mload\n        /* \"strategies/StrategyMiniChefLP.sol\":47726:47744  uint256 outputHalf */\n      0x00\n      swap3\n        /* \"strategies/StrategyMiniChefLP.sol\":47747:47793  IERC20(output).balanceOf(address(this)).div(2) */\n      tag_418\n      swap3\n        /* \"strategies/StrategyMiniChefLP.sol\":47791:47792  2 */\n      0x02\n      swap3\n      sub(shl(0xa0, 0x01), 0x01)\n        /* \"strategies/StrategyMiniChefLP.sol\":47754:47760  output */\n      swap1\n      swap3\n      and\n      swap2\n        /* \"strategies/StrategyMiniChefLP.sol\":47747:47771  IERC20(output).balanceOf */\n      0x70a08231\n      swap2\n        /* \"strategies/StrategyMiniChefLP.sol\":47747:47786  IERC20(output).balanceOf(address(this)) */\n      0x24\n      dup1\n      dup3\n      add\n      swap3\n      0x20\n      swap3\n      swap1\n      swap2\n      swap1\n      dup3\n      swap1\n      sub\n      add\n      dup2\n        /* \"strategies/StrategyMiniChefLP.sol\":47754:47760  output */\n      dup7\n        /* \"strategies/StrategyMiniChefLP.sol\":47747:47786  IERC20(output).balanceOf(address(this)) */\n      dup1\n      extcodesize\n      iszero\n      dup1\n      iszero\n      tag_419\n      jumpi\n      0x00\n      dup1\n      revert\n    tag_419:\n      pop\n      gas\n      staticcall\n      iszero\n      dup1\n      iszero\n      tag_421\n      jumpi\n      returndatasize\n      0x00\n      dup1\n      returndatacopy\n      revert(0x00, returndatasize)\n    tag_421:\n      pop\n      pop\n      pop\n      pop\n      mload(0x40)\n      returndatasize\n      0x20\n      dup2\n      lt\n      iszero\n      tag_422\n      jumpi\n      0x00\n      dup1\n      revert\n    tag_422:\n      pop\n      mload\n      swap1\n        /* \"strategies/StrategyMiniChefLP.sol\":47747:47790  IERC20(output).balanceOf(address(this)).div */\n      tag_203\n        /* \"strategies/StrategyMiniChefLP.sol\":47747:47793  IERC20(output).balanceOf(address(this)).div(2) */\n      jump\t// in\n    tag_418:\n        /* \"strategies/StrategyMiniChefLP.sol\":47820:47826  output */\n      sload(0x0a)\n        /* \"strategies/StrategyMiniChefLP.sol\":47808:47816  lpToken0 */\n      sload(0x0c)\n        /* \"strategies/StrategyMiniChefLP.sol\":47726:47793  uint256 outputHalf = IERC20(output).balanceOf(address(this)).div(2) */\n      swap2\n      swap3\n      pop\n      sub(shl(0xa0, 0x01), 0x01)\n        /* \"strategies/StrategyMiniChefLP.sol\":47808:47816  lpToken0 */\n      swap2\n      dup3\n      and\n        /* \"strategies/StrategyMiniChefLP.sol\":47820:47826  output */\n      swap2\n      and\n        /* \"strategies/StrategyMiniChefLP.sol\":47808:47826  lpToken0 != output */\n      eq\n        /* \"strategies/StrategyMiniChefLP.sol\":47804:47971  if (lpToken0 != output) {... */\n      tag_423\n      jumpi\n        /* \"strategies/StrategyMiniChefLP.sol\":47860:47869  unirouter */\n      sload(0x03)\n        /* \"strategies/StrategyMiniChefLP.sol\":47842:47960  IUniswapRouterETH(unirouter).swapExactTokensForTokens(outputHalf, 0, outputToLp0Route, address(this), block.timestamp) */\n      mload(0x40)\n      shl(0xe0, 0x38ed1739)\n      dup2\n      mstore\n      0x04\n      dup2\n      add\n      dup4\n      dup2\n      mstore\n        /* \"strategies/StrategyMiniChefLP.sol\":47860:47869  unirouter */\n      0x00\n        /* \"strategies/StrategyMiniChefLP.sol\":47842:47960  IUniswapRouterETH(unirouter).swapExactTokensForTokens(outputHalf, 0, outputToLp0Route, address(this), block.timestamp) */\n      0x24\n      dup4\n      add\n      dup2\n      swap1\n      mstore\n        /* \"strategies/StrategyMiniChefLP.sol\":47937:47941  this */\n      address\n        /* \"strategies/StrategyMiniChefLP.sol\":47842:47960  IUniswapRouterETH(unirouter).swapExactTokensForTokens(outputHalf, 0, outputToLp0Route, address(this), block.timestamp) */\n      0x64\n      dup5\n      add\n      dup2\n      swap1\n      mstore\n        /* \"strategies/StrategyMiniChefLP.sol\":47944:47959  block.timestamp */\n      timestamp\n        /* \"strategies/StrategyMiniChefLP.sol\":47842:47960  IUniswapRouterETH(unirouter).swapExactTokensForTokens(outputHalf, 0, outputToLp0Route, address(this), block.timestamp) */\n      0x84\n      dup6\n      add\n      dup2\n      swap1\n      mstore\n      0xa0\n      0x44\n      dup7\n      add\n      swap1\n      dup2\n      mstore\n        /* \"strategies/StrategyMiniChefLP.sol\":47911:47927  outputToLp0Route */\n      0x12\n        /* \"strategies/StrategyMiniChefLP.sol\":47842:47960  IUniswapRouterETH(unirouter).swapExactTokensForTokens(outputHalf, 0, outputToLp0Route, address(this), block.timestamp) */\n      dup1\n      sload\n      0xa4\n      dup9\n      add\n      dup2\n      swap1\n      mstore\n      sub(shl(0xa0, 0x01), 0x01)\n        /* \"strategies/StrategyMiniChefLP.sol\":47860:47869  unirouter */\n      swap1\n      swap9\n      and\n      swap8\n        /* \"strategies/StrategyMiniChefLP.sol\":47842:47895  IUniswapRouterETH(unirouter).swapExactTokensForTokens */\n      0x38ed1739\n      swap8\n        /* \"strategies/StrategyMiniChefLP.sol\":47896:47906  outputHalf */\n      dup11\n      swap8\n        /* \"strategies/StrategyMiniChefLP.sol\":47911:47927  outputToLp0Route */\n      swap3\n      swap6\n        /* \"strategies/StrategyMiniChefLP.sol\":47937:47941  this */\n      swap5\n        /* \"strategies/StrategyMiniChefLP.sol\":47944:47959  block.timestamp */\n      swap4\n        /* \"strategies/StrategyMiniChefLP.sol\":47842:47960  IUniswapRouterETH(unirouter).swapExactTokensForTokens(outputHalf, 0, outputToLp0Route, address(this), block.timestamp) */\n      swap2\n      0xc4\n      swap1\n      swap2\n      add\n      swap1\n        /* \"strategies/StrategyMiniChefLP.sol\":47911:47927  outputToLp0Route */\n      dup7\n      swap1\n        /* \"strategies/StrategyMiniChefLP.sol\":47842:47960  IUniswapRouterETH(unirouter).swapExactTokensForTokens(outputHalf, 0, outputToLp0Route, address(this), block.timestamp) */\n      dup1\n      iszero\n      tag_424\n      jumpi\n      0x20\n      mul\n      dup3\n      add\n      swap2\n      swap1\n      0x00\n      mstore\n      keccak256(0x00, 0x20)\n      swap1\n    tag_425:\n      dup2\n      sload\n      sub(shl(0xa0, 0x01), 0x01)\n      and\n      dup2\n      mstore\n      0x01\n      swap1\n      swap2\n      add\n      swap1\n      0x20\n      add\n      dup1\n      dup4\n      gt\n      tag_425\n      jumpi\n    tag_424:\n      pop\n      pop\n      swap7\n      pop\n      pop\n      pop\n      pop\n      pop\n      pop\n      pop\n      0x00\n      mload(0x40)\n      dup1\n      dup4\n      sub\n      dup2\n      0x00\n      dup8\n      dup1\n      extcodesize\n      iszero\n      dup1\n      iszero\n      tag_426\n      jumpi\n      0x00\n      dup1\n      revert\n    tag_426:\n      pop\n      gas\n      call\n      iszero\n      dup1\n      iszero\n      tag_428\n      jumpi\n      returndatasize\n      0x00\n      dup1\n      returndatacopy\n      revert(0x00, returndatasize)\n    tag_428:\n      pop\n      pop\n      pop\n      pop\n      mload(0x40)\n      returndatasize\n      0x00\n      dup3\n      returndatacopy\n      0x1f\n      returndatasize\n      swap1\n      dup2\n      add\n      not(0x1f)\n      and\n      dup3\n      add\n      0x40\n      mstore\n      0x20\n      dup2\n      lt\n      iszero\n      tag_429\n      jumpi\n      0x00\n      dup1\n      revert\n    tag_429:\n      dup2\n      add\n      swap1\n      dup1\n      dup1\n      mload\n      mload(0x40)\n      swap4\n      swap3\n      swap2\n      swap1\n      dup5\n      shl(0x20, 0x01)\n      dup3\n      gt\n      iszero\n      tag_430\n      jumpi\n      0x00\n      dup1\n      revert\n    tag_430:\n      swap1\n      dup4\n      add\n      swap1\n      0x20\n      dup3\n      add\n      dup6\n      dup2\n      gt\n      iszero\n      tag_431\n      jumpi\n      0x00\n      dup1\n      revert\n    tag_431:\n      dup3\n      mload\n      dup7\n      0x20\n      dup3\n      mul\n      dup4\n      add\n      gt\n      shl(0x20, 0x01)\n      dup3\n      gt\n      or\n      iszero\n      tag_432\n      jumpi\n      0x00\n      dup1\n      revert\n    tag_432:\n      dup3\n      mstore\n      pop\n      dup2\n      mload\n      0x20\n      swap2\n      dup3\n      add\n      swap3\n      dup3\n      add\n      swap2\n      mul\n      dup1\n      dup4\n      dup4\n      0x00\n    tag_433:\n      dup4\n      dup2\n      lt\n      iszero\n      tag_435\n      jumpi\n      dup2\n      dup2\n      add\n      mload\n      dup4\n      dup3\n      add\n      mstore\n      0x20\n      add\n      jump(tag_433)\n    tag_435:\n      pop\n      pop\n      pop\n      pop\n      swap1\n      pop\n      add\n      0x40\n      mstore\n      pop\n      pop\n      pop\n      pop\n        /* \"strategies/StrategyMiniChefLP.sol\":47804:47971  if (lpToken0 != output) {... */\n    tag_423:\n        /* \"strategies/StrategyMiniChefLP.sol\":47997:48003  output */\n      sload(0x0a)\n        /* \"strategies/StrategyMiniChefLP.sol\":47985:47993  lpToken1 */\n      sload(0x0d)\n      sub(shl(0xa0, 0x01), 0x01)\n      swap1\n      dup2\n      and\n        /* \"strategies/StrategyMiniChefLP.sol\":47997:48003  output */\n      swap2\n      and\n        /* \"strategies/StrategyMiniChefLP.sol\":47985:48003  lpToken1 != output */\n      eq\n        /* \"strategies/StrategyMiniChefLP.sol\":47981:48148  if (lpToken1 != output) {... */\n      tag_436\n      jumpi\n        /* \"strategies/StrategyMiniChefLP.sol\":48037:48046  unirouter */\n      sload(0x03)\n        /* \"strategies/StrategyMiniChefLP.sol\":48019:48137  IUniswapRouterETH(unirouter).swapExactTokensForTokens(outputHalf, 0, outputToLp1Route, address(this), block.timestamp) */\n      mload(0x40)\n      shl(0xe0, 0x38ed1739)\n      dup2\n      mstore\n      0x04\n      dup2\n      add\n      dup4\n      dup2\n      mstore\n        /* \"strategies/StrategyMiniChefLP.sol\":48037:48046  unirouter */\n      0x00\n        /* \"strategies/StrategyMiniChefLP.sol\":48019:48137  IUniswapRouterETH(unirouter).swapExactTokensForTokens(outputHalf, 0, outputToLp1Route, address(this), block.timestamp) */\n      0x24\n      dup4\n      add\n      dup2\n      swap1\n      mstore\n        /* \"strategies/StrategyMiniChefLP.sol\":48114:48118  this */\n      address\n        /* \"strategies/StrategyMiniChefLP.sol\":48019:48137  IUniswapRouterETH(unirouter).swapExactTokensForTokens(outputHalf, 0, outputToLp1Route, address(this), block.timestamp) */\n      0x64\n      dup5\n      add\n      dup2\n      swap1\n      mstore\n        /* \"strategies/StrategyMiniChefLP.sol\":48121:48136  block.timestamp */\n      timestamp\n        /* \"strategies/StrategyMiniChefLP.sol\":48019:48137  IUniswapRouterETH(unirouter).swapExactTokensForTokens(outputHalf, 0, outputToLp1Route, address(this), block.timestamp) */\n      0x84\n      dup6\n      add\n      dup2\n      swap1\n      mstore\n      0xa0\n      0x44\n      dup7\n      add\n      swap1\n      dup2\n      mstore\n        /* \"strategies/StrategyMiniChefLP.sol\":48088:48104  outputToLp1Route */\n      0x13\n        /* \"strategies/StrategyMiniChefLP.sol\":48019:48137  IUniswapRouterETH(unirouter).swapExactTokensForTokens(outputHalf, 0, outputToLp1Route, address(this), block.timestamp) */\n      dup1\n      sload\n      0xa4\n      dup9\n      add\n      dup2\n      swap1\n      mstore\n      sub(shl(0xa0, 0x01), 0x01)\n        /* \"strategies/StrategyMiniChefLP.sol\":48037:48046  unirouter */\n      swap1\n      swap9\n      and\n      swap8\n        /* \"strategies/StrategyMiniChefLP.sol\":48019:48072  IUniswapRouterETH(unirouter).swapExactTokensForTokens */\n      0x38ed1739\n      swap8\n        /* \"strategies/StrategyMiniChefLP.sol\":48073:48083  outputHalf */\n      dup11\n      swap8\n        /* \"strategies/StrategyMiniChefLP.sol\":48088:48104  outputToLp1Route */\n      swap3\n      swap6\n        /* \"strategies/StrategyMiniChefLP.sol\":48114:48118  this */\n      swap5\n        /* \"strategies/StrategyMiniChefLP.sol\":48121:48136  block.timestamp */\n      swap4\n        /* \"strategies/StrategyMiniChefLP.sol\":48019:48137  IUniswapRouterETH(unirouter).swapExactTokensForTokens(outputHalf, 0, outputToLp1Route, address(this), block.timestamp) */\n      swap2\n      0xc4\n      swap1\n      swap2\n      add\n      swap1\n        /* \"strategies/StrategyMiniChefLP.sol\":48088:48104  outputToLp1Route */\n      dup7\n      swap1\n        /* \"strategies/StrategyMiniChefLP.sol\":48019:48137  IUniswapRouterETH(unirouter).swapExactTokensForTokens(outputHalf, 0, outputToLp1Route, address(this), block.timestamp) */\n      dup1\n      iszero\n      tag_437\n      jumpi\n      0x20\n      mul\n      dup3\n      add\n      swap2\n      swap1\n      0x00\n      mstore\n      keccak256(0x00, 0x20)\n      swap1\n    tag_438:\n      dup2\n      sload\n      sub(shl(0xa0, 0x01), 0x01)\n      and\n      dup2\n      mstore\n      0x01\n      swap1\n      swap2\n      add\n      swap1\n      0x20\n      add\n      dup1\n      dup4\n      gt\n      tag_438\n      jumpi\n    tag_437:\n      pop\n      pop\n      swap7\n      pop\n      pop\n      pop\n      pop\n      pop\n      pop\n      pop\n      0x00\n      mload(0x40)\n      dup1\n      dup4\n      sub\n      dup2\n      0x00\n      dup8\n      dup1\n      extcodesize\n      iszero\n      dup1\n      iszero\n      tag_439\n      jumpi\n      0x00\n      dup1\n      revert\n    tag_439:\n      pop\n      gas\n      call\n      iszero\n      dup1\n      iszero\n      tag_441\n      jumpi\n      returndatasize\n      0x00\n      dup1\n      returndatacopy\n      revert(0x00, returndatasize)\n    tag_441:\n      pop\n      pop\n      pop\n      pop\n      mload(0x40)\n      returndatasize\n      0x00\n      dup3\n      returndatacopy\n      0x1f\n      returndatasize\n      swap1\n      dup2\n      add\n      not(0x1f)\n      and\n      dup3\n      add\n      0x40\n      mstore\n      0x20\n      dup2\n      lt\n      iszero\n      tag_442\n      jumpi\n      0x00\n      dup1\n      revert\n    tag_442:\n      dup2\n      add\n      swap1\n      dup1\n      dup1\n      mload\n      mload(0x40)\n      swap4\n      swap3\n      swap2\n      swap1\n      dup5\n      shl(0x20, 0x01)\n      dup3\n      gt\n      iszero\n      tag_443\n      jumpi\n      0x00\n      dup1\n      revert\n    tag_443:\n      swap1\n      dup4\n      add\n      swap1\n      0x20\n      dup3\n      add\n      dup6\n      dup2\n      gt\n      iszero\n      tag_444\n      jumpi\n      0x00\n      dup1\n      revert\n    tag_444:\n      dup3\n      mload\n      dup7\n      0x20\n      dup3\n      mul\n      dup4\n      add\n      gt\n      shl(0x20, 0x01)\n      dup3\n      gt\n      or\n      iszero\n      tag_445\n      jumpi\n      0x00\n      dup1\n      revert\n    tag_445:\n      dup3\n      mstore\n      pop\n      dup2\n      mload\n      0x20\n      swap2\n      dup3\n      add\n      swap3\n      dup3\n      add\n      swap2\n      mul\n      dup1\n      dup4\n      dup4\n      0x00\n    tag_446:\n      dup4\n      dup2\n      lt\n      iszero\n      tag_448\n      jumpi\n      dup2\n      dup2\n      add\n      mload\n      dup4\n      dup3\n      add\n      mstore\n      0x20\n      add\n      jump(tag_446)\n    tag_448:\n      pop\n      pop\n      pop\n      pop\n      swap1\n      pop\n      add\n      0x40\n      mstore\n      pop\n      pop\n      pop\n      pop\n        /* \"strategies/StrategyMiniChefLP.sol\":47981:48148  if (lpToken1 != output) {... */\n    tag_436:\n        /* \"strategies/StrategyMiniChefLP.sol\":48182:48190  lpToken0 */\n      sload(0x0c)\n        /* \"strategies/StrategyMiniChefLP.sol\":48175:48216  IERC20(lpToken0).balanceOf(address(this)) */\n      0x40\n      dup1\n      mload\n      shl(0xe0, 0x70a08231)\n      dup2\n      mstore\n        /* \"strategies/StrategyMiniChefLP.sol\":48210:48214  this */\n      address\n        /* \"strategies/StrategyMiniChefLP.sol\":48175:48216  IERC20(lpToken0).balanceOf(address(this)) */\n      0x04\n      dup3\n      add\n      mstore\n      swap1\n      mload\n        /* \"strategies/StrategyMiniChefLP.sol\":48158:48172  uint256 lp0Bal */\n      0x00\n      swap3\n      sub(shl(0xa0, 0x01), 0x01)\n        /* \"strategies/StrategyMiniChefLP.sol\":48182:48190  lpToken0 */\n      and\n      swap2\n        /* \"strategies/StrategyMiniChefLP.sol\":48175:48201  IERC20(lpToken0).balanceOf */\n      0x70a08231\n      swap2\n        /* \"strategies/StrategyMiniChefLP.sol\":48175:48216  IERC20(lpToken0).balanceOf(address(this)) */\n      0x24\n      dup1\n      dup4\n      add\n      swap3\n      0x20\n      swap3\n      swap2\n      swap1\n      dup3\n      swap1\n      sub\n      add\n      dup2\n        /* \"strategies/StrategyMiniChefLP.sol\":48182:48190  lpToken0 */\n      dup7\n        /* \"strategies/StrategyMiniChefLP.sol\":48175:48216  IERC20(lpToken0).balanceOf(address(this)) */\n      dup1\n      extcodesize\n      iszero\n      dup1\n      iszero\n      tag_449\n      jumpi\n      0x00\n      dup1\n      revert\n    tag_449:\n      pop\n      gas\n      staticcall\n      iszero\n      dup1\n      iszero\n      tag_451\n      jumpi\n      returndatasize\n      0x00\n      dup1\n      returndatacopy\n      revert(0x00, returndatasize)\n    tag_451:\n      pop\n      pop\n      pop\n      pop\n      mload(0x40)\n      returndatasize\n      0x20\n      dup2\n      lt\n      iszero\n      tag_452\n      jumpi\n      0x00\n      dup1\n      revert\n    tag_452:\n      pop\n      mload\n        /* \"strategies/StrategyMiniChefLP.sol\":48250:48258  lpToken1 */\n      sload(0x0d)\n        /* \"strategies/StrategyMiniChefLP.sol\":48243:48284  IERC20(lpToken1).balanceOf(address(this)) */\n      0x40\n      dup1\n      mload\n      shl(0xe0, 0x70a08231)\n      dup2\n      mstore\n        /* \"strategies/StrategyMiniChefLP.sol\":48278:48282  this */\n      address\n        /* \"strategies/StrategyMiniChefLP.sol\":48243:48284  IERC20(lpToken1).balanceOf(address(this)) */\n      0x04\n      dup3\n      add\n      mstore\n      swap1\n      mload\n        /* \"strategies/StrategyMiniChefLP.sol\":48175:48216  IERC20(lpToken0).balanceOf(address(this)) */\n      swap3\n      swap4\n      pop\n        /* \"strategies/StrategyMiniChefLP.sol\":48226:48240  uint256 lp1Bal */\n      0x00\n      swap3\n      sub(shl(0xa0, 0x01), 0x01)\n        /* \"strategies/StrategyMiniChefLP.sol\":48250:48258  lpToken1 */\n      swap1\n      swap3\n      and\n      swap2\n        /* \"strategies/StrategyMiniChefLP.sol\":48243:48269  IERC20(lpToken1).balanceOf */\n      0x70a08231\n      swap2\n        /* \"strategies/StrategyMiniChefLP.sol\":48243:48284  IERC20(lpToken1).balanceOf(address(this)) */\n      0x24\n      dup1\n      dup3\n      add\n      swap3\n        /* \"strategies/StrategyMiniChefLP.sol\":48175:48216  IERC20(lpToken0).balanceOf(address(this)) */\n      0x20\n      swap3\n        /* \"strategies/StrategyMiniChefLP.sol\":48243:48284  IERC20(lpToken1).balanceOf(address(this)) */\n      swap1\n      swap2\n      swap1\n      dup3\n      swap1\n      sub\n      add\n      dup2\n        /* \"strategies/StrategyMiniChefLP.sol\":48250:48258  lpToken1 */\n      dup7\n        /* \"strategies/StrategyMiniChefLP.sol\":48243:48284  IERC20(lpToken1).balanceOf(address(this)) */\n      dup1\n      extcodesize\n      iszero\n      dup1\n      iszero\n      tag_453\n      jumpi\n      0x00\n      dup1\n      revert\n    tag_453:\n      pop\n      gas\n      staticcall\n      iszero\n      dup1\n      iszero\n      tag_455\n      jumpi\n      returndatasize\n      0x00\n      dup1\n      returndatacopy\n      revert(0x00, returndatasize)\n    tag_455:\n      pop\n      pop\n      pop\n      pop\n      mload(0x40)\n      returndatasize\n      0x20\n      dup2\n      lt\n      iszero\n      tag_456\n      jumpi\n      0x00\n      dup1\n      revert\n    tag_456:\n      pop\n      mload\n        /* \"strategies/StrategyMiniChefLP.sol\":48312:48321  unirouter */\n      sload(0x03)\n        /* \"strategies/StrategyMiniChefLP.sol\":48336:48344  lpToken0 */\n      sload(0x0c)\n        /* \"strategies/StrategyMiniChefLP.sol\":48346:48354  lpToken1 */\n      sload(0x0d)\n        /* \"strategies/StrategyMiniChefLP.sol\":48294:48409  IUniswapRouterETH(unirouter).addLiquidity(lpToken0, lpToken1, lp0Bal, lp1Bal, 1, 1, address(this), block.timestamp) */\n      0x40\n      dup1\n      mload\n      shl(0xe8, 0xe8e337)\n      dup2\n      mstore\n      sub(shl(0xa0, 0x01), 0x01)\n        /* \"strategies/StrategyMiniChefLP.sol\":48336:48344  lpToken0 */\n      swap4\n      dup5\n      and\n        /* \"strategies/StrategyMiniChefLP.sol\":48294:48409  IUniswapRouterETH(unirouter).addLiquidity(lpToken0, lpToken1, lp0Bal, lp1Bal, 1, 1, address(this), block.timestamp) */\n      0x04\n      dup3\n      add\n      mstore\n        /* \"strategies/StrategyMiniChefLP.sol\":48346:48354  lpToken1 */\n      swap2\n      dup4\n      and\n        /* \"strategies/StrategyMiniChefLP.sol\":48294:48409  IUniswapRouterETH(unirouter).addLiquidity(lpToken0, lpToken1, lp0Bal, lp1Bal, 1, 1, address(this), block.timestamp) */\n      0x24\n      dup4\n      add\n      mstore\n      0x44\n      dup3\n      add\n      dup8\n      swap1\n      mstore\n      0x64\n      dup3\n      add\n      dup6\n      swap1\n      mstore\n        /* \"strategies/StrategyMiniChefLP.sol\":48312:48321  unirouter */\n      0x01\n        /* \"strategies/StrategyMiniChefLP.sol\":48294:48409  IUniswapRouterETH(unirouter).addLiquidity(lpToken0, lpToken1, lp0Bal, lp1Bal, 1, 1, address(this), block.timestamp) */\n      0x84\n      dup4\n      add\n      dup2\n      swap1\n      mstore\n      0xa4\n      dup4\n      add\n      mstore\n        /* \"strategies/StrategyMiniChefLP.sol\":48386:48390  this */\n      address\n        /* \"strategies/StrategyMiniChefLP.sol\":48294:48409  IUniswapRouterETH(unirouter).addLiquidity(lpToken0, lpToken1, lp0Bal, lp1Bal, 1, 1, address(this), block.timestamp) */\n      0xc4\n      dup4\n      add\n      mstore\n        /* \"strategies/StrategyMiniChefLP.sol\":48393:48408  block.timestamp */\n      timestamp\n        /* \"strategies/StrategyMiniChefLP.sol\":48294:48409  IUniswapRouterETH(unirouter).addLiquidity(lpToken0, lpToken1, lp0Bal, lp1Bal, 1, 1, address(this), block.timestamp) */\n      0xe4\n      dup4\n      add\n      mstore\n      mload\n        /* \"strategies/StrategyMiniChefLP.sol\":48243:48284  IERC20(lpToken1).balanceOf(address(this)) */\n      swap4\n      swap5\n      pop\n        /* \"strategies/StrategyMiniChefLP.sol\":48312:48321  unirouter */\n      swap2\n      and\n      swap2\n        /* \"strategies/StrategyMiniChefLP.sol\":48294:48335  IUniswapRouterETH(unirouter).addLiquidity */\n      0xe8e33700\n      swap2\n        /* \"strategies/StrategyMiniChefLP.sol\":48294:48409  IUniswapRouterETH(unirouter).addLiquidity(lpToken0, lpToken1, lp0Bal, lp1Bal, 1, 1, address(this), block.timestamp) */\n      0x0104\n      dup1\n      dup3\n      add\n      swap3\n      0x60\n      swap3\n      swap1\n      swap2\n      swap1\n      dup3\n      swap1\n      sub\n      add\n      dup2\n        /* \"strategies/StrategyMiniChefLP.sol\":48312:48321  unirouter */\n      0x00\n      dup8\n        /* \"strategies/StrategyMiniChefLP.sol\":48294:48409  IUniswapRouterETH(unirouter).addLiquidity(lpToken0, lpToken1, lp0Bal, lp1Bal, 1, 1, address(this), block.timestamp) */\n      dup1\n      extcodesize\n      iszero\n      dup1\n      iszero\n      tag_457\n      jumpi\n      0x00\n      dup1\n      revert\n    tag_457:\n      pop\n      gas\n      call\n      iszero\n      dup1\n      iszero\n      tag_459\n      jumpi\n      returndatasize\n      0x00\n      dup1\n      returndatacopy\n      revert(0x00, returndatasize)\n    tag_459:\n      pop\n      pop\n      pop\n      pop\n      mload(0x40)\n      returndatasize\n      0x60\n      dup2\n      lt\n      iszero\n      tag_305\n      jumpi\n      0x00\n      dup1\n      revert\n        /* \"strategies/StrategyMiniChefLP.sol\":598:702  function _msgSender() internal view virtual returns (address payable) {... */\n    tag_245:\n        /* \"strategies/StrategyMiniChefLP.sol\":685:695  msg.sender */\n      caller\n        /* \"strategies/StrategyMiniChefLP.sol\":598:702  function _msgSender() internal view virtual returns (address payable) {... */\n      swap1\n      jump\t// out\n        /* \"strategies/StrategyMiniChefLP.sol\":6395:6570  function add(uint256 a, uint256 b) internal pure returns (uint256) {... */\n    tag_263:\n        /* \"strategies/StrategyMiniChefLP.sol\":6453:6460  uint256 */\n      0x00\n        /* \"strategies/StrategyMiniChefLP.sol\":6484:6489  a + b */\n      dup3\n      dup3\n      add\n        /* \"strategies/StrategyMiniChefLP.sol\":6507:6513  c >= a */\n      dup4\n      dup2\n      lt\n      iszero\n        /* \"strategies/StrategyMiniChefLP.sol\":6499:6545  require(c >= a, \"SafeMath: addition overflow\") */\n      tag_341\n      jumpi\n      0x40\n      dup1\n      mload\n      shl(0xe5, 0x461bcd)\n      dup2\n      mstore\n      0x20\n      0x04\n      dup3\n      add\n      mstore\n      0x1b\n      0x24\n      dup3\n      add\n      mstore\n      0x536166654d6174683a206164646974696f6e206f766572666c6f770000000000\n      0x44\n      dup3\n      add\n      mstore\n      swap1\n      mload\n      swap1\n      dup2\n      swap1\n      sub\n      0x64\n      add\n      swap1\n      revert\n        /* \"strategies/StrategyMiniChefLP.sol\":39721:39836  function _pause() internal virtual whenNotPaused {... */\n    tag_275:\n        /* \"strategies/StrategyMiniChefLP.sol\":39270:39278  paused() */\n      tag_465\n        /* \"strategies/StrategyMiniChefLP.sol\":39270:39276  paused */\n      tag_95\n        /* \"strategies/StrategyMiniChefLP.sol\":39270:39278  paused() */\n      jump\t// in\n    tag_465:\n        /* \"strategies/StrategyMiniChefLP.sol\":39269:39278  !paused() */\n      iszero\n        /* \"strategies/StrategyMiniChefLP.sol\":39261:39299  require(!paused(), \"Pausable: paused\") */\n      tag_466\n      jumpi\n      0x40\n      dup1\n      mload\n      shl(0xe5, 0x461bcd)\n      dup2\n      mstore\n      0x20\n      0x04\n      dup3\n      add\n      mstore\n      0x10\n      0x24\n      dup3\n      add\n      mstore\n      shl(0x82, 0x14185d5cd8589b194e881c185d5cd959)\n      0x44\n      dup3\n      add\n      mstore\n      swap1\n      mload\n      swap1\n      dup2\n      swap1\n      sub\n      0x64\n      add\n      swap1\n      revert\n    tag_466:\n        /* \"strategies/StrategyMiniChefLP.sol\":39780:39787  _paused */\n      0x00\n        /* \"strategies/StrategyMiniChefLP.sol\":39780:39794  _paused = true */\n      dup1\n      sload\n      not(shl(0xa0, 0xff))\n      and\n      shl(0xa0, 0x01)\n      or\n      swap1\n      sstore\n        /* \"strategies/StrategyMiniChefLP.sol\":39809:39829  Paused(_msgSender()) */\n      0x62e78cea01bee320cd4e420270b5ea74000d11b0c9f74754ebdbfc544b05a258\n        /* \"strategies/StrategyMiniChefLP.sol\":39816:39828  _msgSender() */\n      tag_359\n        /* \"strategies/StrategyMiniChefLP.sol\":39816:39826  _msgSender */\n      tag_245\n        /* \"strategies/StrategyMiniChefLP.sol\":39816:39828  _msgSender() */\n      jump\t// in\n        /* \"strategies/StrategyMiniChefLP.sol\":50340:50632  function _removeAllowances() internal {... */\n    tag_277:\n        /* \"strategies/StrategyMiniChefLP.sol\":50413:50417  chef */\n      sload(0x0e)\n        /* \"strategies/StrategyMiniChefLP.sol\":50395:50399  want */\n      sload(0x0b)\n        /* \"strategies/StrategyMiniChefLP.sol\":50388:50421  IERC20(want).safeApprove(chef, 0) */\n      tag_470\n      swap2\n      sub(shl(0xa0, 0x01), 0x01)\n        /* \"strategies/StrategyMiniChefLP.sol\":50395:50399  want */\n      swap2\n      dup3\n      and\n      swap2\n        /* \"strategies/StrategyMiniChefLP.sol\":50413:50417  chef */\n      and\n      0x00\n        /* \"strategies/StrategyMiniChefLP.sol\":50388:50412  IERC20(want).safeApprove */\n      tag_161\n        /* \"strategies/StrategyMiniChefLP.sol\":50388:50421  IERC20(want).safeApprove(chef, 0) */\n      jump\t// in\n    tag_470:\n        /* \"strategies/StrategyMiniChefLP.sol\":50458:50467  unirouter */\n      sload(0x03)\n        /* \"strategies/StrategyMiniChefLP.sol\":50438:50444  output */\n      sload(0x0a)\n        /* \"strategies/StrategyMiniChefLP.sol\":50431:50471  IERC20(output).safeApprove(unirouter, 0) */\n      tag_471\n      swap2\n      sub(shl(0xa0, 0x01), 0x01)\n        /* \"strategies/StrategyMiniChefLP.sol\":50438:50444  output */\n      swap2\n      dup3\n      and\n      swap2\n        /* \"strategies/StrategyMiniChefLP.sol\":50458:50467  unirouter */\n      and\n      0x00\n        /* \"strategies/StrategyMiniChefLP.sol\":50431:50457  IERC20(output).safeApprove */\n      tag_161\n        /* \"strategies/StrategyMiniChefLP.sol\":50431:50471  IERC20(output).safeApprove(unirouter, 0) */\n      jump\t// in\n    tag_471:\n        /* \"strategies/StrategyMiniChefLP.sol\":50508:50517  unirouter */\n      sload(0x03)\n        /* \"strategies/StrategyMiniChefLP.sol\":50488:50494  native */\n      sload(0x09)\n        /* \"strategies/StrategyMiniChefLP.sol\":50481:50521  IERC20(native).safeApprove(unirouter, 0) */\n      tag_472\n      swap2\n      sub(shl(0xa0, 0x01), 0x01)\n        /* \"strategies/StrategyMiniChefLP.sol\":50488:50494  native */\n      swap2\n      dup3\n      and\n      swap2\n        /* \"strategies/StrategyMiniChefLP.sol\":50508:50517  unirouter */\n      and\n      0x00\n        /* \"strategies/StrategyMiniChefLP.sol\":50481:50507  IERC20(native).safeApprove */\n      tag_161\n        /* \"strategies/StrategyMiniChefLP.sol\":50481:50521  IERC20(native).safeApprove(unirouter, 0) */\n      jump\t// in\n    tag_472:\n        /* \"strategies/StrategyMiniChefLP.sol\":50560:50569  unirouter */\n      sload(0x03)\n        /* \"strategies/StrategyMiniChefLP.sol\":50538:50546  lpToken0 */\n      sload(0x0c)\n        /* \"strategies/StrategyMiniChefLP.sol\":50531:50573  IERC20(lpToken0).safeApprove(unirouter, 0) */\n      tag_473\n      swap2\n      sub(shl(0xa0, 0x01), 0x01)\n        /* \"strategies/StrategyMiniChefLP.sol\":50538:50546  lpToken0 */\n      swap2\n      dup3\n      and\n      swap2\n        /* \"strategies/StrategyMiniChefLP.sol\":50560:50569  unirouter */\n      and\n      0x00\n        /* \"strategies/StrategyMiniChefLP.sol\":50531:50559  IERC20(lpToken0).safeApprove */\n      tag_161\n        /* \"strategies/StrategyMiniChefLP.sol\":50531:50573  IERC20(lpToken0).safeApprove(unirouter, 0) */\n      jump\t// in\n    tag_473:\n        /* \"strategies/StrategyMiniChefLP.sol\":50612:50621  unirouter */\n      sload(0x03)\n        /* \"strategies/StrategyMiniChefLP.sol\":50590:50598  lpToken1 */\n      sload(0x0d)\n        /* \"strategies/StrategyMiniChefLP.sol\":50583:50625  IERC20(lpToken1).safeApprove(unirouter, 0) */\n      tag_217\n      swap2\n      sub(shl(0xa0, 0x01), 0x01)\n        /* \"strategies/StrategyMiniChefLP.sol\":50590:50598  lpToken1 */\n      swap2\n      dup3\n      and\n      swap2\n        /* \"strategies/StrategyMiniChefLP.sol\":50612:50621  unirouter */\n      and\n      0x00\n        /* \"strategies/StrategyMiniChefLP.sol\":50583:50611  IERC20(lpToken1).safeApprove */\n      tag_161\n        /* \"strategies/StrategyMiniChefLP.sol\":50583:50625  IERC20(lpToken1).safeApprove(unirouter, 0) */\n      jump\t// in\n        /* \"strategies/StrategyMiniChefLP.sol\":32428:33179  function _callOptionalReturn(IERC20 token, bytes memory data) private {... */\n    tag_340:\n        /* \"strategies/StrategyMiniChefLP.sol\":32847:32870  bytes memory returndata */\n      0x60\n        /* \"strategies/StrategyMiniChefLP.sol\":32873:32942  address(token).functionCall(data, \"SafeERC20: low-level call failed\") */\n      tag_476\n        /* \"strategies/StrategyMiniChefLP.sol\":32901:32905  data */\n      dup3\n        /* \"strategies/StrategyMiniChefLP.sol\":32873:32942  address(token).functionCall(data, \"SafeERC20: low-level call failed\") */\n      mload(0x40)\n      dup1\n      0x40\n      add\n      0x40\n      mstore\n      dup1\n      0x20\n      dup2\n      mstore\n      0x20\n      add\n      0x5361666545524332303a206c6f772d6c6576656c2063616c6c206661696c6564\n      dup2\n      mstore\n      pop\n        /* \"strategies/StrategyMiniChefLP.sol\":32881:32886  token */\n      dup6\n      sub(shl(0xa0, 0x01), 0x01)\n        /* \"strategies/StrategyMiniChefLP.sol\":32873:32900  address(token).functionCall */\n      and\n      tag_162\n      swap1\n        /* \"strategies/StrategyMiniChefLP.sol\":32873:32942  address(token).functionCall(data, \"SafeERC20: low-level call failed\") */\n      swap3\n      swap2\n      swap1\n      0xffffffff\n      and\n      jump\t// in\n    tag_476:\n        /* \"strategies/StrategyMiniChefLP.sol\":32956:32973  returndata.length */\n      dup1\n      mload\n        /* \"strategies/StrategyMiniChefLP.sol\":32847:32942  bytes memory returndata = address(token).functionCall(data, \"SafeERC20: low-level call failed\") */\n      swap1\n      swap2\n      pop\n        /* \"strategies/StrategyMiniChefLP.sol\":32956:32977  returndata.length > 0 */\n      iszero\n        /* \"strategies/StrategyMiniChefLP.sol\":32952:33173  if (returndata.length > 0) { // Return data is optional... */\n      tag_204\n      jumpi\n        /* \"strategies/StrategyMiniChefLP.sol\":33096:33106  returndata */\n      dup1\n        /* \"strategies/StrategyMiniChefLP.sol\":33085:33115  abi.decode(returndata, (bool)) */\n      dup1\n      0x20\n      add\n      swap1\n      mload\n      0x20\n      dup2\n      lt\n      iszero\n      tag_478\n      jumpi\n      0x00\n      dup1\n      revert\n    tag_478:\n      pop\n      mload\n        /* \"strategies/StrategyMiniChefLP.sol\":33077:33162  require(abi.decode(returndata, (bool)), \"SafeERC20: ERC20 operation did not succeed\") */\n      tag_204\n      jumpi\n      mload(0x40)\n      shl(0xe5, 0x461bcd)\n      dup2\n      mstore\n      0x04\n      add\n      dup1\n      dup1\n      0x20\n      add\n      dup3\n      dup2\n      sub\n      dup3\n      mstore\n      0x2a\n      dup2\n      mstore\n      0x20\n      add\n      dup1\n      data_e11ad79d1e4a7f2e5f376964cb99e8e8f7904e3fc16a109f7a7ecb9aa7956dcd\n      0x2a\n      swap2\n      codecopy\n      0x40\n      add\n      swap2\n      pop\n      pop\n      mload(0x40)\n      dup1\n      swap2\n      sub\n      swap1\n      revert\n        /* \"strategies/StrategyMiniChefLP.sol\":26304:26827  function functionCallWithValue(address target, bytes memory data, uint256 value, string memory errorMessage) internal returns (bytes memory) {... */\n    tag_343:\n        /* \"strategies/StrategyMiniChefLP.sol\":26431:26443  bytes memory */\n      0x60\n        /* \"strategies/StrategyMiniChefLP.sol\":26488:26493  value */\n      dup3\n        /* \"strategies/StrategyMiniChefLP.sol\":26463:26484  address(this).balance */\n      selfbalance\n        /* \"strategies/StrategyMiniChefLP.sol\":26463:26493  address(this).balance >= value */\n      lt\n      iszero\n        /* \"strategies/StrategyMiniChefLP.sol\":26455:26536  require(address(this).balance >= value, \"Address: insufficient balance for call\") */\n      tag_481\n      jumpi\n      mload(0x40)\n      shl(0xe5, 0x461bcd)\n      dup2\n      mstore\n      0x04\n      add\n      dup1\n      dup1\n      0x20\n      add\n      dup3\n      dup2\n      sub\n      dup3\n      mstore\n      0x26\n      dup2\n      mstore\n      0x20\n      add\n      dup1\n      data_565f1a77334fc4792800921178c71e4521acffab18ff9e7885b49377ee80ab4c\n      0x26\n      swap2\n      codecopy\n      0x40\n      add\n      swap2\n      pop\n      pop\n      mload(0x40)\n      dup1\n      swap2\n      sub\n      swap1\n      revert\n    tag_481:\n        /* \"strategies/StrategyMiniChefLP.sol\":26554:26572  isContract(target) */\n      tag_482\n        /* \"strategies/StrategyMiniChefLP.sol\":26565:26571  target */\n      dup6\n        /* \"strategies/StrategyMiniChefLP.sol\":26554:26564  isContract */\n      tag_483\n        /* \"strategies/StrategyMiniChefLP.sol\":26554:26572  isContract(target) */\n      jump\t// in\n    tag_482:\n        /* \"strategies/StrategyMiniChefLP.sol\":26546:26606  require(isContract(target), \"Address: call to non-contract\") */\n      tag_484\n      jumpi\n      0x40\n      dup1\n      mload\n      shl(0xe5, 0x461bcd)\n      dup2\n      mstore\n      0x20\n      0x04\n      dup3\n      add\n      mstore\n      0x1d\n      0x24\n      dup3\n      add\n      mstore\n      0x416464726573733a2063616c6c20746f206e6f6e2d636f6e7472616374000000\n      0x44\n      dup3\n      add\n      mstore\n      swap1\n      mload\n      swap1\n      dup2\n      swap1\n      sub\n      0x64\n      add\n      swap1\n      revert\n    tag_484:\n        /* \"strategies/StrategyMiniChefLP.sol\":26677:26689  bool success */\n      0x00\n        /* \"strategies/StrategyMiniChefLP.sol\":26691:26714  bytes memory returndata */\n      0x60\n        /* \"strategies/StrategyMiniChefLP.sol\":26718:26724  target */\n      dup7\n      sub(shl(0xa0, 0x01), 0x01)\n        /* \"strategies/StrategyMiniChefLP.sol\":26718:26729  target.call */\n      and\n        /* \"strategies/StrategyMiniChefLP.sol\":26738:26743  value */\n      dup6\n        /* \"strategies/StrategyMiniChefLP.sol\":26746:26750  data */\n      dup8\n        /* \"strategies/StrategyMiniChefLP.sol\":26718:26751  target.call{ value: value }(data) */\n      mload(0x40)\n      dup1\n      dup3\n      dup1\n      mload\n      swap1\n      0x20\n      add\n      swap1\n      dup1\n      dup4\n      dup4\n    tag_485:\n      0x20\n      dup4\n      lt\n      tag_487\n      jumpi\n      dup1\n      mload\n      dup3\n      mstore\n      not(0x1f)\n      swap1\n      swap3\n      add\n      swap2\n      0x20\n      swap2\n      dup3\n      add\n      swap2\n      add\n      jump(tag_485)\n    tag_487:\n      0x01\n      dup4\n      0x20\n      sub\n      0x0100\n      exp\n      sub\n      dup1\n      not\n      dup3\n      mload\n      and\n      dup2\n      dup5\n      mload\n      and\n      dup1\n      dup3\n      or\n      dup6\n      mstore\n      pop\n      pop\n      pop\n      pop\n      pop\n      pop\n      swap1\n      pop\n      add\n      swap2\n      pop\n      pop\n      0x00\n      mload(0x40)\n      dup1\n      dup4\n      sub\n      dup2\n      dup6\n      dup8\n      gas\n      call\n      swap3\n      pop\n      pop\n      pop\n      returndatasize\n      dup1\n      0x00\n      dup2\n      eq\n      tag_490\n      jumpi\n      mload(0x40)\n      swap2\n      pop\n      and(add(returndatasize, 0x3f), not(0x1f))\n      dup3\n      add\n      0x40\n      mstore\n      returndatasize\n      dup3\n      mstore\n      returndatasize\n      0x00\n      0x20\n      dup5\n      add\n      returndatacopy\n      jump(tag_489)\n    tag_490:\n      0x60\n      swap2\n      pop\n    tag_489:\n      pop\n        /* \"strategies/StrategyMiniChefLP.sol\":26676:26751  (bool success, bytes memory returndata) = target.call{ value: value }(data) */\n      swap2\n      pop\n      swap2\n      pop\n        /* \"strategies/StrategyMiniChefLP.sol\":26768:26820  _verifyCallResult(success, returndata, errorMessage) */\n      tag_491\n        /* \"strategies/StrategyMiniChefLP.sol\":26786:26793  success */\n      dup3\n        /* \"strategies/StrategyMiniChefLP.sol\":26795:26805  returndata */\n      dup3\n        /* \"strategies/StrategyMiniChefLP.sol\":26807:26819  errorMessage */\n      dup7\n        /* \"strategies/StrategyMiniChefLP.sol\":26768:26785  _verifyCallResult */\n      tag_492\n        /* \"strategies/StrategyMiniChefLP.sol\":26768:26820  _verifyCallResult(success, returndata, errorMessage) */\n      jump\t// in\n    tag_491:\n        /* \"strategies/StrategyMiniChefLP.sol\":26761:26820  return _verifyCallResult(success, returndata, errorMessage) */\n      swap8\n        /* \"strategies/StrategyMiniChefLP.sol\":26304:26827  function functionCallWithValue(address target, bytes memory data, uint256 value, string memory errorMessage) internal returns (bytes memory) {... */\n      swap7\n      pop\n      pop\n      pop\n      pop\n      pop\n      pop\n      pop\n      jump\t// out\n        /* \"strategies/StrategyMiniChefLP.sol\":22422:22835  function isContract(address account) internal view returns (bool) {... */\n    tag_483:\n        /* \"strategies/StrategyMiniChefLP.sol\":22782:22802  extcodesize(account) */\n      extcodesize\n        /* \"strategies/StrategyMiniChefLP.sol\":22820:22828  size > 0 */\n      iszero\n      iszero\n      swap1\n        /* \"strategies/StrategyMiniChefLP.sol\":22422:22835  function isContract(address account) internal view returns (bool) {... */\n      jump\t// out\n        /* \"strategies/StrategyMiniChefLP.sol\":28787:29512  function _verifyCallResult(bool success, bytes memory returndata, string memory errorMessage) private pure returns(bytes memory) {... */\n    tag_492:\n        /* \"strategies/StrategyMiniChefLP.sol\":28902:28914  bytes memory */\n      0x60\n        /* \"strategies/StrategyMiniChefLP.sol\":28930:28937  success */\n      dup4\n        /* \"strategies/StrategyMiniChefLP.sol\":28926:29506  if (success) {... */\n      iszero\n      tag_495\n      jumpi\n      pop\n        /* \"strategies/StrategyMiniChefLP.sol\":28960:28970  returndata */\n      dup2\n        /* \"strategies/StrategyMiniChefLP.sol\":28953:28970  return returndata */\n      jump(tag_341)\n        /* \"strategies/StrategyMiniChefLP.sol\":28926:29506  if (success) {... */\n    tag_495:\n        /* \"strategies/StrategyMiniChefLP.sol\":29071:29088  returndata.length */\n      dup3\n      mload\n        /* \"strategies/StrategyMiniChefLP.sol\":29071:29092  returndata.length > 0 */\n      iszero\n        /* \"strategies/StrategyMiniChefLP.sol\":29067:29496  if (returndata.length > 0) {... */\n      tag_497\n      jumpi\n        /* \"strategies/StrategyMiniChefLP.sol\":29329:29339  returndata */\n      dup3\n        /* \"strategies/StrategyMiniChefLP.sol\":29323:29340  mload(returndata) */\n      mload\n        /* \"strategies/StrategyMiniChefLP.sol\":29389:29404  returndata_size */\n      dup1\n        /* \"strategies/StrategyMiniChefLP.sol\":29376:29386  returndata */\n      dup5\n        /* \"strategies/StrategyMiniChefLP.sol\":29372:29374  32 */\n      0x20\n        /* \"strategies/StrategyMiniChefLP.sol\":29368:29387  add(32, returndata) */\n      add\n        /* \"strategies/StrategyMiniChefLP.sol\":29361:29405  revert(add(32, returndata), returndata_size) */\n      revert\n        /* \"strategies/StrategyMiniChefLP.sol\":29278:29423  {... */\n    tag_497:\n        /* \"strategies/StrategyMiniChefLP.sol\":29468:29480  errorMessage */\n      dup2\n        /* \"strategies/StrategyMiniChefLP.sol\":29461:29481  revert(errorMessage) */\n      mload(0x40)\n      shl(0xe5, 0x461bcd)\n      dup2\n      mstore\n      0x04\n      add\n      dup1\n      dup1\n      0x20\n      add\n      dup3\n      dup2\n      sub\n      dup3\n      mstore\n      dup4\n      dup2\n      dup2\n      mload\n      dup2\n      mstore\n      0x20\n      add\n      swap2\n      pop\n      dup1\n      mload\n      swap1\n      0x20\n      add\n      swap1\n      dup1\n      dup4\n      dup4\n      0x00\n    tag_499:\n      dup4\n      dup2\n      lt\n      iszero\n      tag_501\n      jumpi\n      dup2\n      dup2\n      add\n      mload\n      dup4\n      dup3\n      add\n      mstore\n      0x20\n      add\n      jump(tag_499)\n    tag_501:\n      pop\n      pop\n      pop\n      pop\n      swap1\n      pop\n      swap1\n      dup2\n      add\n      swap1\n      0x1f\n      and\n      dup1\n      iszero\n      tag_502\n      jumpi\n      dup1\n      dup3\n      sub\n      dup1\n      mload\n      0x01\n      dup4\n      0x20\n      sub\n      0x0100\n      exp\n      sub\n      not\n      and\n      dup2\n      mstore\n      0x20\n      add\n      swap2\n      pop\n    tag_502:\n      pop\n      swap3\n      pop\n      pop\n      pop\n      mload(0x40)\n      dup1\n      swap2\n      sub\n      swap1\n      revert\n    stop\n    data_245f15ff17f551913a7a18385165551503906a406f905ac1c2437281a7cd0cfe 4f776e61626c653a206e6577206f776e657220697320746865207a65726f2061646472657373\n    data_565f1a77334fc4792800921178c71e4521acffab18ff9e7885b49377ee80ab4c 416464726573733a20696e73756666696369656e742062616c616e636520666f722063616c6c\n    data_9113bb53c2876a3805b2c9242029423fc540a728243ce887ab24c82cf119fba3 536166654d6174683a206d756c7469706c69636174696f6e206f766572666c6f77\n    data_9924ebdf1add33d25d4ef888e16131f0a5687b0580a36c21b5c301a6c462effe 4f776e61626c653a2063616c6c6572206973206e6f7420746865206f776e6572\n    data_e11ad79d1e4a7f2e5f376964cb99e8e8f7904e3fc16a109f7a7ecb9aa7956dcd 5361666545524332303a204552433230206f7065726174696f6e20646964206e6f742073756363656564\n    data_ef945ddb1bfdc0da870feb4560d868b047642b4ac7f2fb7f8b7c51cb4a411e25 5361666545524332303a20617070726f76652066726f6d206e6f6e2d7a65726f20746f206e6f6e2d7a65726f20616c6c6f77616e6365\n\n    auxdata: 0xa264697066735822122058173455c311320e6dbe69730ff0ccad8d22cdc8a579971cd2f084d71d0f9c7a64736f6c634300060c0033\n}\n",
				"bytecode": {
					"linkReferences": {},
					"object": "6080604052600a600655606f6007556103796008553480156200002157600080fd5b50604051620037be380380620037be83398181016040526101608110156200004857600080fd5b815160208301516040808501516060860151608087015160a088015160c089015160e08a01516101008b0180519751999b989a96999598949793969295919491939282019284640100000000821115620000a157600080fd5b908301906020820185811115620000b757600080fd5b8251866020820283011164010000000082111715620000d557600080fd5b82525081516020918201928201910280838360005b8381101562000104578181015183820152602001620000ea565b50505050905001604052602001805160405193929190846401000000008211156200012e57600080fd5b9083019060208201858111156200014457600080fd5b82518660208202830111640100000000821117156200016257600080fd5b82525081516020918201928201910280838360005b838110156200019157818101518382015260200162000177565b5050505090500160405260200180516040519392919084640100000000821115620001bb57600080fd5b908301906020820185811115620001d157600080fd5b8251866020820283011164010000000082111715620001ef57600080fd5b82525081516020918201928201910280838360005b838110156200021e57818101518382015260200162000204565b505050509050016040525050508585888a87600062000242620006e460201b60201c565b600080546001600160a01b0319166001600160a01b0383169081178255604051929350917f8be0079c531659141344cd1fd0a4f28419497f9722a3daafe3b4186f6b6457e0908290a3506000805460ff60a01b19169055600180546001600160a01b03199081166001600160a01b03978816179091556002805482169587169590951785556003805482169487169490941790935560048054841692861692909217909155600580548316918516919091179055600b805482168f8516179055600f8d9055600e8054909116928c1692909217909155835110156200032657600080fd5b826000815181106200033457fe5b6020026020010151600a60006101000a8154816001600160a01b0302191690836001600160a01b03160217905550826001845103815181106200037357fe5b602090810291909101810151600980546001600160a01b0319166001600160a01b039092169190911790558351620003b2916010919086019062000c36565b50600b60009054906101000a90046001600160a01b03166001600160a01b0316630dfe16816040518163ffffffff1660e01b815260040160206040518083038186803b1580156200040257600080fd5b505afa15801562000417573d6000803e3d6000fd5b505050506040513d60208110156200042e57600080fd5b5051600c80546001600160a01b0319166001600160a01b03928316179055600a54835191169083906000906200046057fe5b60200260200101516001600160a01b0316146200047c57600080fd5b600c5482516001600160a01b0390911690839060001981019081106200049e57fe5b60200260200101516001600160a01b031614620004ba57600080fd5b8151620004cf90601290602085019062000c36565b50600b60009054906101000a90046001600160a01b03166001600160a01b031663d21220a76040518163ffffffff1660e01b815260040160206040518083038186803b1580156200051f57600080fd5b505afa15801562000534573d6000803e3d6000fd5b505050506040513d60208110156200054b57600080fd5b5051600d80546001600160a01b0319166001600160a01b03928316179055600a54825191169082906000906200057d57fe5b60200260200101516001600160a01b0316146200059957600080fd5b600d5481516001600160a01b039091169082906000198101908110620005bb57fe5b60200260200101516001600160a01b031614620005d757600080fd5b8051620005ec90601390602084019062000c36565b5082516001600160401b03811180156200060557600080fd5b5060405190808252806020026020018201604052801562000630578160200160208202803683370190505b508051620006479160119160209091019062000c36565b5060005b8351811015620006c8576000816001865103039050601081815481106200066e57fe5b600091825260209091200154601180546001600160a01b0390921691849081106200069557fe5b600091825260209091200180546001600160a01b0319166001600160a01b0392909216919091179055506001016200064b565b50620006d3620006e8565b505050505050505050505062000cc1565b3390565b600e54600b5462000715916001600160a01b03918216911660001962000823602090811b6200163717901c565b600354600a5462000742916001600160a01b03918216911660001962000823602090811b6200163717901c565b6003546009546200076f916001600160a01b03918216911660001962000823602090811b6200163717901c565b600354600c546200079b916001600160a01b039182169116600062000823602090811b6200163717901c565b600354600c54620007c8916001600160a01b03918216911660001962000823602090811b6200163717901c565b600354600d54620007f4916001600160a01b039182169116600062000823602090811b6200163717901c565b600354600d5462000821916001600160a01b03918216911660001962000823602090811b6200163717901c565b565b801580620008ad575060408051636eb1769f60e11b81523060048201526001600160a01b03848116602483015291519185169163dd62ed3e91604480820192602092909190829003018186803b1580156200087d57600080fd5b505afa15801562000892573d6000803e3d6000fd5b505050506040513d6020811015620008a957600080fd5b5051155b620008ea5760405162461bcd60e51b8152600401808060200182810382526036815260200180620037886036913960400191505060405180910390fd5b604080516001600160a01b038416602482015260448082018490528251808303909101815260649091019091526020810180516001600160e01b0390811663095ea7b360e01b17909152620009429185916200094716565b505050565b6060620009a3826040518060400160405280602081526020017f5361666545524332303a206c6f772d6c6576656c2063616c6c206661696c6564815250856001600160a01b031662000a0360201b6200174a179092919060201c565b8051909150156200094257808060200190516020811015620009c457600080fd5b5051620009425760405162461bcd60e51b815260040180806020018281038252602a8152602001806200375e602a913960400191505060405180910390fd5b606062000a14848460008562000a1e565b90505b9392505050565b60608247101562000a615760405162461bcd60e51b8152600401808060200182810382526026815260200180620037386026913960400191505060405180910390fd5b62000a6c8562000b86565b62000abe576040805162461bcd60e51b815260206004820152601d60248201527f416464726573733a2063616c6c20746f206e6f6e2d636f6e7472616374000000604482015290519081900360640190fd5b60006060866001600160a01b031685876040518082805190602001908083835b6020831062000aff5780518252601f19909201916020918201910162000ade565b6001836020036101000a03801982511681845116808217855250505050505090500191505060006040518083038185875af1925050503d806000811462000b63576040519150601f19603f3d011682016040523d82523d6000602084013e62000b68565b606091505b50909250905062000b7b82828662000b8c565b979650505050505050565b3b151590565b6060831562000b9d57508162000a17565b82511562000bae5782518084602001fd5b8160405162461bcd60e51b81526004018080602001828103825283818151815260200191508051906020019080838360005b8381101562000bfa57818101518382015260200162000be0565b50505050905090810190601f16801562000c285780820380516001836020036101000a031916815260200191505b509250505060405180910390fd5b82805482825590600052602060002090810192821562000c8e579160200282015b8281111562000c8e57825182546001600160a01b0319166001600160a01b0390911617825560209092019160019091019062000c57565b5062000c9c92915062000ca0565b5090565b5b8082111562000c9c5780546001600160a01b031916815560010162000ca1565b612a678062000cd16000396000f3fe608060405234801561001057600080fd5b506004361061028a5760003560e01c8063748747e61161015c578063c1a3d44c116100ce578063f20eaeb811610087578063f20eaeb814610527578063f2fde38b1461052f578063fb61778714610555578063fbfa77cf1461055d578063fc61568b14610565578063fd63a8871461056d5761028a565b8063c1a3d44c146104bb578063c7b9d530146104c3578063d0e30db0146104e9578063d92f3d73146104f1578063dfbdc43714610517578063e0e4130b1461051f5761028a565b80638da5cb5b116101205780638da5cb5b1461046157806390321e1a14610469578063ac1e502514610471578063aced16611461048e578063bc063e1a14610496578063be12a9781461049e5761028a565b8063748747e61461041b5780637d38ca65146104415780638456cb5914610449578063877562b6146104515780638bc7e8c4146104595761028a565b80633e0dc34e116102005780635c975abb116101b95780635c975abb1461039b5780635e45da42146103b75780635ee167c0146103dd5780636817031b146103e5578063715018a61461040b578063722713f7146104135761028a565b80633e0dc34e1461036b5780633f4ba83a146103735780634641257d1461037b5780634700d3051461038357806354518b1a1461038b578063573fef0a146103935761028a565b80631fe4a686116102525780631fe4a686146102fa578063257ae0de14610302578063264658261461030a5780632ad5a53f146103295780632e1a7d4d1461033157806336c6cf211461034e5761028a565b806305200c9c1461028f57806311588086146102c857806311b0b42d146102e25780631f1fcd51146102ea5780631fc8bc5d146102f2575b600080fd5b6102ac600480360360208110156102a557600080fd5b503561058a565b604080516001600160a01b039092168252519081900360200190f35b6102d06105b1565b60408051918252519081900360200190f35b6102ac610638565b6102ac610647565b6102ac610656565b6102ac610665565b6102ac610674565b6103276004803603602081101561032057600080fd5b5035610683565b005b6102d061073d565b6103276004803603602081101561034757600080fd5b5035610742565b6102ac6004803603602081101561036457600080fd5b50356109c2565b6102d06109cf565b6103276109d5565b610327610a5c565b610327610b99565b6102d0610c7e565b610327610a5a565b6103a3610c84565b604080519115158252519081900360200190f35b610327600480360360208110156103cd57600080fd5b50356001600160a01b0316610c94565b6102ac610d18565b610327600480360360208110156103fb57600080fd5b50356001600160a01b0316610d27565b610327610dab565b6102d0610e57565b6103276004803603602081101561043157600080fd5b50356001600160a01b0316610e77565b6102d0610f06565b610327610f0b565b6102ac610f88565b6102d0610f97565b6102ac610f9d565b6102d0610fac565b6103276004803603602081101561048757600080fd5b5035610fb2565b6102ac611063565b6102d0611072565b6102ac600480360360208110156104b457600080fd5b5035611078565b6102d0611085565b610327600480360360208110156104d957600080fd5b50356001600160a01b0316611101565b610327611170565b6103276004803603602081101561050757600080fd5b50356001600160a01b03166112b5565b6102d0611339565b6102ac61133e565b6102ac61134d565b6103276004803603602081101561054557600080fd5b50356001600160a01b031661135c565b61032761145e565b6102ac611615565b6102d0611624565b6102ac6004803603602081101561058357600080fd5b503561162a565b6011818154811061059757fe5b6000918252602090912001546001600160a01b0316905081565b600e54600f54604080516393f1a40b60e01b81526004810192909252306024830152805160009384936001600160a01b03909116926393f1a40b92604480840193829003018186803b15801561060657600080fd5b505afa15801561061a573d6000803e3d6000fd5b505050506040513d604081101561063057600080fd5b505191505090565b6009546001600160a01b031681565b600b546001600160a01b031681565b600e546001600160a01b031681565b6002546001600160a01b031681565b6003546001600160a01b031681565b61068b610f9d565b6001600160a01b0316336001600160a01b031614806106b457506001546001600160a01b031633145b6106f0576040805162461bcd60e51b815260206004820152600860248201526710b6b0b730b3b2b960c11b604482015290519081900360640190fd5b606f81111561072f576040805162461bcd60e51b815260206004808301919091526024820152630216361760e41b604482015290519081900360640190fd5b60078190556103e803600855565b606f81565b6004546001600160a01b0316331461078a576040805162461bcd60e51b8152602060048201526006602482015265085d985d5b1d60d21b604482015290519081900360640190fd5b600b54604080516370a0823160e01b815230600482015290516000926001600160a01b0316916370a08231916024808301926020929190829003018186803b1580156107d557600080fd5b505afa1580156107e9573d6000803e3d6000fd5b505050506040513d60208110156107ff57600080fd5b505190508181101561090d57600e54600f546001600160a01b0390911690630ad58d2f9061082d8585611763565b306040518463ffffffff1660e01b815260040180848152602001838152602001826001600160a01b031681526020019350505050600060405180830381600087803b15801561087b57600080fd5b505af115801561088f573d6000803e3d6000fd5b5050600b54604080516370a0823160e01b815230600482015290516001600160a01b0390921693506370a082319250602480820192602092909190829003018186803b1580156108de57600080fd5b505afa1580156108f2573d6000803e3d6000fd5b505050506040513d602081101561090857600080fd5b505190505b818111156109185750805b610920610f9d565b6001600160a01b0316326001600160a01b031614806109425750610942610c84565b1561096957600454600b54610964916001600160a01b039182169116836117c5565b6109be565b600061098c6127106109866006548561181790919063ffffffff16565b90611870565b6004549091506109bc906001600160a01b03166109a98484611763565b600b546001600160a01b031691906117c5565b505b5050565b6012818154811061059757fe5b600f5481565b6109dd610f9d565b6001600160a01b0316336001600160a01b03161480610a0657506001546001600160a01b031633145b610a42576040805162461bcd60e51b815260206004820152600860248201526710b6b0b730b3b2b960c11b604482015290519081900360640190fd5b610a4a6118d7565b610a5261197a565b610a5a611170565b565b610a64610c84565b15610aa9576040805162461bcd60e51b815260206004820152601060248201526f14185d5cd8589b194e881c185d5cd95960821b604482015290519081900360640190fd5b333214610ae6576040805162461bcd60e51b8152602060048083019190915260248201526321454f4160e01b604482015290519081900360640190fd5b600e54600f5460408051630c7e663b60e11b81526004810192909252306024830152516001600160a01b03909216916318fccc769160448082019260009290919082900301818387803b158015610b3c57600080fd5b505af1158015610b50573d6000803e3d6000fd5b50505050610b5c611a51565b610b64611fa4565b610b6c611170565b60405133907f577a37fdb49a88d66684922c6f913df5239b4f214b2b97c53ef8e3bbb2034cb590600090a2565b610ba1610f9d565b6001600160a01b0316336001600160a01b03161480610bca57506001546001600160a01b031633145b610c06576040805162461bcd60e51b815260206004820152600860248201526710b6b0b730b3b2b960c11b604482015290519081900360640190fd5b610c0e610f0b565b600e54600f54604080516302f940c760e41b81526004810192909252306024830152516001600160a01b0390921691632f940c709160448082019260009290919082900301818387803b158015610c6457600080fd5b505af1158015610c78573d6000803e3d6000fd5b50505050565b61271081565b600054600160a01b900460ff1690565b610c9c612510565b6001600160a01b0316610cad610f9d565b6001600160a01b031614610cf6576040805162461bcd60e51b815260206004820181905260248201526000805160206129b2833981519152604482015290519081900360640190fd5b600580546001600160a01b0319166001600160a01b0392909216919091179055565b600c546001600160a01b031681565b610d2f612510565b6001600160a01b0316610d40610f9d565b6001600160a01b031614610d89576040805162461bcd60e51b815260206004820181905260248201526000805160206129b2833981519152604482015290519081900360640190fd5b600480546001600160a01b0319166001600160a01b0392909216919091179055565b610db3612510565b6001600160a01b0316610dc4610f9d565b6001600160a01b031614610e0d576040805162461bcd60e51b815260206004820181905260248201526000805160206129b2833981519152604482015290519081900360640190fd5b600080546040516001600160a01b03909116907f8be0079c531659141344cd1fd0a4f28419497f9722a3daafe3b4186f6b6457e0908390a3600080546001600160a01b0319169055565b6000610e72610e646105b1565b610e6c611085565b90612514565b905090565b610e7f610f9d565b6001600160a01b0316336001600160a01b03161480610ea857506001546001600160a01b031633145b610ee4576040805162461bcd60e51b815260206004820152600860248201526710b6b0b730b3b2b960c11b604482015290519081900360640190fd5b600180546001600160a01b0319166001600160a01b0392909216919091179055565b600081565b610f13610f9d565b6001600160a01b0316336001600160a01b03161480610f3c57506001546001600160a01b031633145b610f78576040805162461bcd60e51b815260206004820152600860248201526710b6b0b730b3b2b960c11b604482015290519081900360640190fd5b610f8061256e565b610a5a6125f7565b600d546001600160a01b031681565b60065481565b6000546001600160a01b031690565b60075481565b610fba610f9d565b6001600160a01b0316336001600160a01b03161480610fe357506001546001600160a01b031633145b61101f576040805162461bcd60e51b815260206004820152600860248201526710b6b0b730b3b2b960c11b604482015290519081900360640190fd5b603281111561105e576040805162461bcd60e51b815260206004808301919091526024820152630216361760e41b604482015290519081900360640190fd5b600655565b6001546001600160a01b031681565b6103e881565b6010818154811061059757fe5b600b54604080516370a0823160e01b815230600482015290516000926001600160a01b0316916370a08231916024808301926020929190829003018186803b1580156110d057600080fd5b505afa1580156110e4573d6000803e3d6000fd5b505050506040513d60208110156110fa57600080fd5b5051905090565b6002546001600160a01b0316331461114e576040805162461bcd60e51b815260206004820152600b60248201526a085cdd1c985d1959da5cdd60aa1b604482015290519081900360640190fd5b600280546001600160a01b0319166001600160a01b0392909216919091179055565b611178610c84565b156111bd576040805162461bcd60e51b815260206004820152601060248201526f14185d5cd8589b194e881c185d5cd95960821b604482015290519081900360640190fd5b600b54604080516370a0823160e01b815230600482015290516000926001600160a01b0316916370a08231916024808301926020929190829003018186803b15801561120857600080fd5b505afa15801561121c573d6000803e3d6000fd5b505050506040513d602081101561123257600080fd5b5051905080156112b257600e54600f5460408051638dbdbe6d60e01b8152600481019290925260248201849052306044830152516001600160a01b0390921691638dbdbe6d9160648082019260009290919082900301818387803b15801561129957600080fd5b505af11580156112ad573d6000803e3d6000fd5b505050505b50565b6112bd612510565b6001600160a01b03166112ce610f9d565b6001600160a01b031614611317576040805162461bcd60e51b815260206004820181905260248201526000805160206129b2833981519152604482015290519081900360640190fd5b600380546001600160a01b0319166001600160a01b0392909216919091179055565b603281565b6005546001600160a01b031681565b600a546001600160a01b031681565b611364612510565b6001600160a01b0316611375610f9d565b6001600160a01b0316146113be576040805162461bcd60e51b815260206004820181905260248201526000805160206129b2833981519152604482015290519081900360640190fd5b6001600160a01b0381166114035760405162461bcd60e51b81526004018080602001828103825260268152602001806129456026913960400191505060405180910390fd5b600080546040516001600160a01b03808516939216917f8be0079c531659141344cd1fd0a4f28419497f9722a3daafe3b4186f6b6457e091a3600080546001600160a01b0319166001600160a01b0392909216919091179055565b6004546001600160a01b031633146114a6576040805162461bcd60e51b8152602060048201526006602482015265085d985d5b1d60d21b604482015290519081900360640190fd5b600e54600f54604080516302f940c760e41b81526004810192909252306024830152516001600160a01b0390921691632f940c709160448082019260009290919082900301818387803b1580156114fc57600080fd5b505af1158015611510573d6000803e3d6000fd5b5050600b54604080516370a0823160e01b81523060048201529051600094506001600160a01b0390921692506370a08231916024808301926020929190829003018186803b15801561156157600080fd5b505afa158015611575573d6000803e3d6000fd5b505050506040513d602081101561158b57600080fd5b5051600b54600480546040805163a9059cbb60e01b81526001600160a01b039283169381019390935260248301859052519394509091169163a9059cbb916044808201926020929091908290030181600087803b1580156115eb57600080fd5b505af11580156115ff573d6000803e3d6000fd5b505050506040513d60208110156109bc57600080fd5b6004546001600160a01b031681565b60085481565b6013818154811061059757fe5b8015806116bd575060408051636eb1769f60e11b81523060048201526001600160a01b03848116602483015291519185169163dd62ed3e91604480820192602092909190829003018186803b15801561168f57600080fd5b505afa1580156116a3573d6000803e3d6000fd5b505050506040513d60208110156116b957600080fd5b5051155b6116f85760405162461bcd60e51b81526004018080602001828103825260368152602001806129fc6036913960400191505060405180910390fd5b604080516001600160a01b038416602482015260448082018490528251808303909101815260649091019091526020810180516001600160e01b031663095ea7b360e01b1790526109bc90849061268d565b6060611759848460008561273e565b90505b9392505050565b6000828211156117ba576040805162461bcd60e51b815260206004820152601e60248201527f536166654d6174683a207375627472616374696f6e206f766572666c6f770000604482015290519081900360640190fd5b508082035b92915050565b604080516001600160a01b038416602482015260448082018490528251808303909101815260649091019091526020810180516001600160e01b031663a9059cbb60e01b1790526109bc90849061268d565b600082611826575060006117bf565b8282028284828161183357fe5b041461175c5760405162461bcd60e51b81526004018080602001828103825260218152602001806129916021913960400191505060405180910390fd5b60008082116118c6576040805162461bcd60e51b815260206004820152601a60248201527f536166654d6174683a206469766973696f6e206279207a65726f000000000000604482015290519081900360640190fd5b8183816118cf57fe5b049392505050565b6118df610c84565b611927576040805162461bcd60e51b815260206004820152601460248201527314185d5cd8589b194e881b9bdd081c185d5cd95960621b604482015290519081900360640190fd5b6000805460ff60a01b191690557f5db9ee0a495bf2e6ff9c91a7834c1ba4fdd244a5e8aa4e537bd38aeae4b073aa61195d612510565b604080516001600160a01b039092168252519081900360200190a1565b600e54600b54611999916001600160a01b039182169116600019611637565b600354600a546119b8916001600160a01b039182169116600019611637565b6003546009546119d7916001600160a01b039182169116600019611637565b600354600c546119f5916001600160a01b0391821691166000611637565b600354600c54611a14916001600160a01b039182169116600019611637565b600354600d54611a32916001600160a01b0391821691166000611637565b600354600d54610a5a916001600160a01b039182169116600019611637565b600954604080516370a0823160e01b815230600482015290516000926001600160a01b0316916370a08231916024808301926020929190829003018186803b158015611a9c57600080fd5b505afa158015611ab0573d6000803e3d6000fd5b505050506040513d6020811015611ac657600080fd5b505190508015611c57576003546040516338ed173960e01b8152600481018381526000602483018190523060648401819052426084850181905260a0604486019081526011805460a488018190526001600160a01b03909816976338ed1739978a97929594939160c49091019086908015611b6a57602002820191906000526020600020905b81546001600160a01b03168152600190910190602001808311611b4c575b50509650505050505050600060405180830381600087803b158015611b8e57600080fd5b505af1158015611ba2573d6000803e3d6000fd5b505050506040513d6000823e601f3d908101601f191682016040526020811015611bcb57600080fd5b8101908080516040519392919084600160201b821115611bea57600080fd5b908301906020820185811115611bff57600080fd5b82518660208202830111600160201b82111715611c1b57600080fd5b82525081516020918201928201910280838360005b83811015611c48578181015183820152602001611c30565b50505050905001604052505050505b600a54604080516370a0823160e01b81523060048201529051600092611ce6926103e89261098692601e926001600160a01b03909116916370a0823191602480820192602092909190829003018186803b158015611cb457600080fd5b505afa158015611cc8573d6000803e3d6000fd5b505050506040513d6020811015611cde57600080fd5b505190611817565b9050600360009054906101000a90046001600160a01b03166001600160a01b03166338ed1739826000601030426040518663ffffffff1660e01b81526004018086815260200185815260200180602001846001600160a01b031681526020018381526020018281038252858181548152602001915080548015611d9257602002820191906000526020600020905b81546001600160a01b03168152600190910190602001808311611d74575b50509650505050505050600060405180830381600087803b158015611db657600080fd5b505af1158015611dca573d6000803e3d6000fd5b505050506040513d6000823e601f3d908101601f191682016040526020811015611df357600080fd5b8101908080516040519392919084600160201b821115611e1257600080fd5b908301906020820185811115611e2757600080fd5b82518660208202830111600160201b82111715611e4357600080fd5b82525081516020918201928201910280838360005b83811015611e70578181015183820152602001611e58565b505050509190910160408181526009546370a0823160e01b83523060048401529051600097506001600160a01b0390911695506370a08231945060248083019450602093509091829003018186803b158015611ecb57600080fd5b505afa158015611edf573d6000803e3d6000fd5b505050506040513d6020811015611ef557600080fd5b5051600754909150600090611f13906103e890610986908590611817565b600954909150611f2d906001600160a01b031633836117c5565b6000611f4a6103e86109866008548661181790919063ffffffff16565b600554600954919250611f6a916001600160a01b039081169116836117c5565b6000611f7c6103e86109868684611817565b600254600954919250611f9c916001600160a01b039081169116836117c5565b505050505050565b600a54604080516370a0823160e01b8152306004820152905160009261202b926002926001600160a01b03909216916370a0823191602480820192602092909190829003018186803b158015611ff957600080fd5b505afa15801561200d573d6000803e3d6000fd5b505050506040513d602081101561202357600080fd5b505190611870565b600a54600c549192506001600160a01b039182169116146121cd576003546040516338ed173960e01b8152600481018381526000602483018190523060648401819052426084850181905260a0604486019081526012805460a488018190526001600160a01b03909816976338ed1739978a97929594939160c490910190869080156120e057602002820191906000526020600020905b81546001600160a01b031681526001909101906020018083116120c2575b50509650505050505050600060405180830381600087803b15801561210457600080fd5b505af1158015612118573d6000803e3d6000fd5b505050506040513d6000823e601f3d908101601f19168201604052602081101561214157600080fd5b8101908080516040519392919084600160201b82111561216057600080fd5b90830190602082018581111561217557600080fd5b82518660208202830111600160201b8211171561219157600080fd5b82525081516020918201928201910280838360005b838110156121be5781810151838201526020016121a6565b50505050905001604052505050505b600a54600d546001600160a01b0390811691161461236c576003546040516338ed173960e01b8152600481018381526000602483018190523060648401819052426084850181905260a0604486019081526013805460a488018190526001600160a01b03909816976338ed1739978a97929594939160c4909101908690801561227f57602002820191906000526020600020905b81546001600160a01b03168152600190910190602001808311612261575b50509650505050505050600060405180830381600087803b1580156122a357600080fd5b505af11580156122b7573d6000803e3d6000fd5b505050506040513d6000823e601f3d908101601f1916820160405260208110156122e057600080fd5b8101908080516040519392919084600160201b8211156122ff57600080fd5b90830190602082018581111561231457600080fd5b82518660208202830111600160201b8211171561233057600080fd5b82525081516020918201928201910280838360005b8381101561235d578181015183820152602001612345565b50505050905001604052505050505b600c54604080516370a0823160e01b815230600482015290516000926001600160a01b0316916370a08231916024808301926020929190829003018186803b1580156123b757600080fd5b505afa1580156123cb573d6000803e3d6000fd5b505050506040513d60208110156123e157600080fd5b5051600d54604080516370a0823160e01b815230600482015290519293506000926001600160a01b03909216916370a0823191602480820192602092909190829003018186803b15801561243457600080fd5b505afa158015612448573d6000803e3d6000fd5b505050506040513d602081101561245e57600080fd5b5051600354600c54600d546040805162e8e33760e81b81526001600160a01b0393841660048201529183166024830152604482018790526064820185905260016084830181905260a48301523060c48301524260e48301525193945091169163e8e3370091610104808201926060929091908290030181600087803b1580156124e657600080fd5b505af11580156124fa573d6000803e3d6000fd5b505050506040513d60608110156112ad57600080fd5b3390565b60008282018381101561175c576040805162461bcd60e51b815260206004820152601b60248201527f536166654d6174683a206164646974696f6e206f766572666c6f770000000000604482015290519081900360640190fd5b612576610c84565b156125bb576040805162461bcd60e51b815260206004820152601060248201526f14185d5cd8589b194e881c185d5cd95960821b604482015290519081900360640190fd5b6000805460ff60a01b1916600160a01b1790557f62e78cea01bee320cd4e420270b5ea74000d11b0c9f74754ebdbfc544b05a25861195d612510565b600e54600b54612615916001600160a01b0391821691166000611637565b600354600a54612633916001600160a01b0391821691166000611637565b600354600954612651916001600160a01b0391821691166000611637565b600354600c5461266f916001600160a01b0391821691166000611637565b600354600d54610a5a916001600160a01b0391821691166000611637565b60606126e2826040518060400160405280602081526020017f5361666545524332303a206c6f772d6c6576656c2063616c6c206661696c6564815250856001600160a01b031661174a9092919063ffffffff16565b8051909150156109bc5780806020019051602081101561270157600080fd5b50516109bc5760405162461bcd60e51b815260040180806020018281038252602a8152602001806129d2602a913960400191505060405180910390fd5b60608247101561277f5760405162461bcd60e51b815260040180806020018281038252602681526020018061296b6026913960400191505060405180910390fd5b6127888561289a565b6127d9576040805162461bcd60e51b815260206004820152601d60248201527f416464726573733a2063616c6c20746f206e6f6e2d636f6e7472616374000000604482015290519081900360640190fd5b60006060866001600160a01b031685876040518082805190602001908083835b602083106128185780518252601f1990920191602091820191016127f9565b6001836020036101000a03801982511681845116808217855250505050505090500191505060006040518083038185875af1925050503d806000811461287a576040519150601f19603f3d011682016040523d82523d6000602084013e61287f565b606091505b509150915061288f8282866128a0565b979650505050505050565b3b151590565b606083156128af57508161175c565b8251156128bf5782518084602001fd5b8160405162461bcd60e51b81526004018080602001828103825283818151815260200191508051906020019080838360005b838110156129095781810151838201526020016128f1565b50505050905090810190601f1680156129365780820380516001836020036101000a031916815260200191505b509250505060405180910390fdfe4f776e61626c653a206e6577206f776e657220697320746865207a65726f2061646472657373416464726573733a20696e73756666696369656e742062616c616e636520666f722063616c6c536166654d6174683a206d756c7469706c69636174696f6e206f766572666c6f774f776e61626c653a2063616c6c6572206973206e6f7420746865206f776e65725361666545524332303a204552433230206f7065726174696f6e20646964206e6f7420737563636565645361666545524332303a20617070726f76652066726f6d206e6f6e2d7a65726f20746f206e6f6e2d7a65726f20616c6c6f77616e6365a264697066735822122058173455c311320e6dbe69730ff0ccad8d22cdc8a579971cd2f084d71d0f9c7a64736f6c634300060c0033416464726573733a20696e73756666696369656e742062616c616e636520666f722063616c6c5361666545524332303a204552433230206f7065726174696f6e20646964206e6f7420737563636565645361666545524332303a20617070726f76652066726f6d206e6f6e2d7a65726f20746f206e6f6e2d7a65726f20616c6c6f77616e6365",
					"opcodes": "PUSH1 0x80 PUSH1 0x40 MSTORE PUSH1 0xA PUSH1 0x6 SSTORE PUSH1 0x6F PUSH1 0x7 SSTORE PUSH2 0x379 PUSH1 0x8 SSTORE CALLVALUE DUP1 ISZERO PUSH3 0x21 JUMPI PUSH1 0x0 DUP1 REVERT JUMPDEST POP PUSH1 0x40 MLOAD PUSH3 0x37BE CODESIZE SUB DUP1 PUSH3 0x37BE DUP4 CODECOPY DUP2 DUP2 ADD PUSH1 0x40 MSTORE PUSH2 0x160 DUP2 LT ISZERO PUSH3 0x48 JUMPI PUSH1 0x0 DUP1 REVERT JUMPDEST DUP2 MLOAD PUSH1 0x20 DUP4 ADD MLOAD PUSH1 0x40 DUP1 DUP6 ADD MLOAD PUSH1 0x60 DUP7 ADD MLOAD PUSH1 0x80 DUP8 ADD MLOAD PUSH1 0xA0 DUP9 ADD MLOAD PUSH1 0xC0 DUP10 ADD MLOAD PUSH1 0xE0 DUP11 ADD MLOAD PUSH2 0x100 DUP12 ADD DUP1 MLOAD SWAP8 MLOAD SWAP10 SWAP12 SWAP9 SWAP11 SWAP7 SWAP10 SWAP6 SWAP9 SWAP5 SWAP8 SWAP4 SWAP7 SWAP3 SWAP6 SWAP2 SWAP5 SWAP2 SWAP4 SWAP3 DUP3 ADD SWAP3 DUP5 PUSH5 0x100000000 DUP3 GT ISZERO PUSH3 0xA1 JUMPI PUSH1 0x0 DUP1 REVERT JUMPDEST SWAP1 DUP4 ADD SWAP1 PUSH1 0x20 DUP3 ADD DUP6 DUP2 GT ISZERO PUSH3 0xB7 JUMPI PUSH1 0x0 DUP1 REVERT JUMPDEST DUP3 MLOAD DUP7 PUSH1 0x20 DUP3 MUL DUP4 ADD GT PUSH5 0x100000000 DUP3 GT OR ISZERO PUSH3 0xD5 JUMPI PUSH1 0x0 DUP1 REVERT JUMPDEST DUP3 MSTORE POP DUP2 MLOAD PUSH1 0x20 SWAP2 DUP3 ADD SWAP3 DUP3 ADD SWAP2 MUL DUP1 DUP4 DUP4 PUSH1 0x0 JUMPDEST DUP4 DUP2 LT ISZERO PUSH3 0x104 JUMPI DUP2 DUP2 ADD MLOAD DUP4 DUP3 ADD MSTORE PUSH1 0x20 ADD PUSH3 0xEA JUMP JUMPDEST POP POP POP POP SWAP1 POP ADD PUSH1 0x40 MSTORE PUSH1 0x20 ADD DUP1 MLOAD PUSH1 0x40 MLOAD SWAP4 SWAP3 SWAP2 SWAP1 DUP5 PUSH5 0x100000000 DUP3 GT ISZERO PUSH3 0x12E JUMPI PUSH1 0x0 DUP1 REVERT JUMPDEST SWAP1 DUP4 ADD SWAP1 PUSH1 0x20 DUP3 ADD DUP6 DUP2 GT ISZERO PUSH3 0x144 JUMPI PUSH1 0x0 DUP1 REVERT JUMPDEST DUP3 MLOAD DUP7 PUSH1 0x20 DUP3 MUL DUP4 ADD GT PUSH5 0x100000000 DUP3 GT OR ISZERO PUSH3 0x162 JUMPI PUSH1 0x0 DUP1 REVERT JUMPDEST DUP3 MSTORE POP DUP2 MLOAD PUSH1 0x20 SWAP2 DUP3 ADD SWAP3 DUP3 ADD SWAP2 MUL DUP1 DUP4 DUP4 PUSH1 0x0 JUMPDEST DUP4 DUP2 LT ISZERO PUSH3 0x191 JUMPI DUP2 DUP2 ADD MLOAD DUP4 DUP3 ADD MSTORE PUSH1 0x20 ADD PUSH3 0x177 JUMP JUMPDEST POP POP POP POP SWAP1 POP ADD PUSH1 0x40 MSTORE PUSH1 0x20 ADD DUP1 MLOAD PUSH1 0x40 MLOAD SWAP4 SWAP3 SWAP2 SWAP1 DUP5 PUSH5 0x100000000 DUP3 GT ISZERO PUSH3 0x1BB JUMPI PUSH1 0x0 DUP1 REVERT JUMPDEST SWAP1 DUP4 ADD SWAP1 PUSH1 0x20 DUP3 ADD DUP6 DUP2 GT ISZERO PUSH3 0x1D1 JUMPI PUSH1 0x0 DUP1 REVERT JUMPDEST DUP3 MLOAD DUP7 PUSH1 0x20 DUP3 MUL DUP4 ADD GT PUSH5 0x100000000 DUP3 GT OR ISZERO PUSH3 0x1EF JUMPI PUSH1 0x0 DUP1 REVERT JUMPDEST DUP3 MSTORE POP DUP2 MLOAD PUSH1 0x20 SWAP2 DUP3 ADD SWAP3 DUP3 ADD SWAP2 MUL DUP1 DUP4 DUP4 PUSH1 0x0 JUMPDEST DUP4 DUP2 LT ISZERO PUSH3 0x21E JUMPI DUP2 DUP2 ADD MLOAD DUP4 DUP3 ADD MSTORE PUSH1 0x20 ADD PUSH3 0x204 JUMP JUMPDEST POP POP POP POP SWAP1 POP ADD PUSH1 0x40 MSTORE POP POP POP DUP6 DUP6 DUP9 DUP11 DUP8 PUSH1 0x0 PUSH3 0x242 PUSH3 0x6E4 PUSH1 0x20 SHL PUSH1 0x20 SHR JUMP JUMPDEST PUSH1 0x0 DUP1 SLOAD PUSH1 0x1 PUSH1 0x1 PUSH1 0xA0 SHL SUB NOT AND PUSH1 0x1 PUSH1 0x1 PUSH1 0xA0 SHL SUB DUP4 AND SWAP1 DUP2 OR DUP3 SSTORE PUSH1 0x40 MLOAD SWAP3 SWAP4 POP SWAP2 PUSH32 0x8BE0079C531659141344CD1FD0A4F28419497F9722A3DAAFE3B4186F6B6457E0 SWAP1 DUP3 SWAP1 LOG3 POP PUSH1 0x0 DUP1 SLOAD PUSH1 0xFF PUSH1 0xA0 SHL NOT AND SWAP1 SSTORE PUSH1 0x1 DUP1 SLOAD PUSH1 0x1 PUSH1 0x1 PUSH1 0xA0 SHL SUB NOT SWAP1 DUP2 AND PUSH1 0x1 PUSH1 0x1 PUSH1 0xA0 SHL SUB SWAP8 DUP9 AND OR SWAP1 SWAP2 SSTORE PUSH1 0x2 DUP1 SLOAD DUP3 AND SWAP6 DUP8 AND SWAP6 SWAP1 SWAP6 OR DUP6 SSTORE PUSH1 0x3 DUP1 SLOAD DUP3 AND SWAP5 DUP8 AND SWAP5 SWAP1 SWAP5 OR SWAP1 SWAP4 SSTORE PUSH1 0x4 DUP1 SLOAD DUP5 AND SWAP3 DUP7 AND SWAP3 SWAP1 SWAP3 OR SWAP1 SWAP2 SSTORE PUSH1 0x5 DUP1 SLOAD DUP4 AND SWAP2 DUP6 AND SWAP2 SWAP1 SWAP2 OR SWAP1 SSTORE PUSH1 0xB DUP1 SLOAD DUP3 AND DUP16 DUP6 AND OR SWAP1 SSTORE PUSH1 0xF DUP14 SWAP1 SSTORE PUSH1 0xE DUP1 SLOAD SWAP1 SWAP2 AND SWAP3 DUP13 AND SWAP3 SWAP1 SWAP3 OR SWAP1 SWAP2 SSTORE DUP4 MLOAD LT ISZERO PUSH3 0x326 JUMPI PUSH1 0x0 DUP1 REVERT JUMPDEST DUP3 PUSH1 0x0 DUP2 MLOAD DUP2 LT PUSH3 0x334 JUMPI INVALID JUMPDEST PUSH1 0x20 MUL PUSH1 0x20 ADD ADD MLOAD PUSH1 0xA PUSH1 0x0 PUSH2 0x100 EXP DUP2 SLOAD DUP2 PUSH1 0x1 PUSH1 0x1 PUSH1 0xA0 SHL SUB MUL NOT AND SWAP1 DUP4 PUSH1 0x1 PUSH1 0x1 PUSH1 0xA0 SHL SUB AND MUL OR SWAP1 SSTORE POP DUP3 PUSH1 0x1 DUP5 MLOAD SUB DUP2 MLOAD DUP2 LT PUSH3 0x373 JUMPI INVALID JUMPDEST PUSH1 0x20 SWAP1 DUP2 MUL SWAP2 SWAP1 SWAP2 ADD DUP2 ADD MLOAD PUSH1 0x9 DUP1 SLOAD PUSH1 0x1 PUSH1 0x1 PUSH1 0xA0 SHL SUB NOT AND PUSH1 0x1 PUSH1 0x1 PUSH1 0xA0 SHL SUB SWAP1 SWAP3 AND SWAP2 SWAP1 SWAP2 OR SWAP1 SSTORE DUP4 MLOAD PUSH3 0x3B2 SWAP2 PUSH1 0x10 SWAP2 SWAP1 DUP7 ADD SWAP1 PUSH3 0xC36 JUMP JUMPDEST POP PUSH1 0xB PUSH1 0x0 SWAP1 SLOAD SWAP1 PUSH2 0x100 EXP SWAP1 DIV PUSH1 0x1 PUSH1 0x1 PUSH1 0xA0 SHL SUB AND PUSH1 0x1 PUSH1 0x1 PUSH1 0xA0 SHL SUB AND PUSH4 0xDFE1681 PUSH1 0x40 MLOAD DUP2 PUSH4 0xFFFFFFFF AND PUSH1 0xE0 SHL DUP2 MSTORE PUSH1 0x4 ADD PUSH1 0x20 PUSH1 0x40 MLOAD DUP1 DUP4 SUB DUP2 DUP7 DUP1 EXTCODESIZE ISZERO DUP1 ISZERO PUSH3 0x402 JUMPI PUSH1 0x0 DUP1 REVERT JUMPDEST POP GAS STATICCALL ISZERO DUP1 ISZERO PUSH3 0x417 JUMPI RETURNDATASIZE PUSH1 0x0 DUP1 RETURNDATACOPY RETURNDATASIZE PUSH1 0x0 REVERT JUMPDEST POP POP POP POP PUSH1 0x40 MLOAD RETURNDATASIZE PUSH1 0x20 DUP2 LT ISZERO PUSH3 0x42E JUMPI PUSH1 0x0 DUP1 REVERT JUMPDEST POP MLOAD PUSH1 0xC DUP1 SLOAD PUSH1 0x1 PUSH1 0x1 PUSH1 0xA0 SHL SUB NOT AND PUSH1 0x1 PUSH1 0x1 PUSH1 0xA0 SHL SUB SWAP3 DUP4 AND OR SWAP1 SSTORE PUSH1 0xA SLOAD DUP4 MLOAD SWAP2 AND SWAP1 DUP4 SWAP1 PUSH1 0x0 SWAP1 PUSH3 0x460 JUMPI INVALID JUMPDEST PUSH1 0x20 MUL PUSH1 0x20 ADD ADD MLOAD PUSH1 0x1 PUSH1 0x1 PUSH1 0xA0 SHL SUB AND EQ PUSH3 0x47C JUMPI PUSH1 0x0 DUP1 REVERT JUMPDEST PUSH1 0xC SLOAD DUP3 MLOAD PUSH1 0x1 PUSH1 0x1 PUSH1 0xA0 SHL SUB SWAP1 SWAP2 AND SWAP1 DUP4 SWAP1 PUSH1 0x0 NOT DUP2 ADD SWAP1 DUP2 LT PUSH3 0x49E JUMPI INVALID JUMPDEST PUSH1 0x20 MUL PUSH1 0x20 ADD ADD MLOAD PUSH1 0x1 PUSH1 0x1 PUSH1 0xA0 SHL SUB AND EQ PUSH3 0x4BA JUMPI PUSH1 0x0 DUP1 REVERT JUMPDEST DUP2 MLOAD PUSH3 0x4CF SWAP1 PUSH1 0x12 SWAP1 PUSH1 0x20 DUP6 ADD SWAP1 PUSH3 0xC36 JUMP JUMPDEST POP PUSH1 0xB PUSH1 0x0 SWAP1 SLOAD SWAP1 PUSH2 0x100 EXP SWAP1 DIV PUSH1 0x1 PUSH1 0x1 PUSH1 0xA0 SHL SUB AND PUSH1 0x1 PUSH1 0x1 PUSH1 0xA0 SHL SUB AND PUSH4 0xD21220A7 PUSH1 0x40 MLOAD DUP2 PUSH4 0xFFFFFFFF AND PUSH1 0xE0 SHL DUP2 MSTORE PUSH1 0x4 ADD PUSH1 0x20 PUSH1 0x40 MLOAD DUP1 DUP4 SUB DUP2 DUP7 DUP1 EXTCODESIZE ISZERO DUP1 ISZERO PUSH3 0x51F JUMPI PUSH1 0x0 DUP1 REVERT JUMPDEST POP GAS STATICCALL ISZERO DUP1 ISZERO PUSH3 0x534 JUMPI RETURNDATASIZE PUSH1 0x0 DUP1 RETURNDATACOPY RETURNDATASIZE PUSH1 0x0 REVERT JUMPDEST POP POP POP POP PUSH1 0x40 MLOAD RETURNDATASIZE PUSH1 0x20 DUP2 LT ISZERO PUSH3 0x54B JUMPI PUSH1 0x0 DUP1 REVERT JUMPDEST POP MLOAD PUSH1 0xD DUP1 SLOAD PUSH1 0x1 PUSH1 0x1 PUSH1 0xA0 SHL SUB NOT AND PUSH1 0x1 PUSH1 0x1 PUSH1 0xA0 SHL SUB SWAP3 DUP4 AND OR SWAP1 SSTORE PUSH1 0xA SLOAD DUP3 MLOAD SWAP2 AND SWAP1 DUP3 SWAP1 PUSH1 0x0 SWAP1 PUSH3 0x57D JUMPI INVALID JUMPDEST PUSH1 0x20 MUL PUSH1 0x20 ADD ADD MLOAD PUSH1 0x1 PUSH1 0x1 PUSH1 0xA0 SHL SUB AND EQ PUSH3 0x599 JUMPI PUSH1 0x0 DUP1 REVERT JUMPDEST PUSH1 0xD SLOAD DUP2 MLOAD PUSH1 0x1 PUSH1 0x1 PUSH1 0xA0 SHL SUB SWAP1 SWAP2 AND SWAP1 DUP3 SWAP1 PUSH1 0x0 NOT DUP2 ADD SWAP1 DUP2 LT PUSH3 0x5BB JUMPI INVALID JUMPDEST PUSH1 0x20 MUL PUSH1 0x20 ADD ADD MLOAD PUSH1 0x1 PUSH1 0x1 PUSH1 0xA0 SHL SUB AND EQ PUSH3 0x5D7 JUMPI PUSH1 0x0 DUP1 REVERT JUMPDEST DUP1 MLOAD PUSH3 0x5EC SWAP1 PUSH1 0x13 SWAP1 PUSH1 0x20 DUP5 ADD SWAP1 PUSH3 0xC36 JUMP JUMPDEST POP DUP3 MLOAD PUSH1 0x1 PUSH1 0x1 PUSH1 0x40 SHL SUB DUP2 GT DUP1 ISZERO PUSH3 0x605 JUMPI PUSH1 0x0 DUP1 REVERT JUMPDEST POP PUSH1 0x40 MLOAD SWAP1 DUP1 DUP3 MSTORE DUP1 PUSH1 0x20 MUL PUSH1 0x20 ADD DUP3 ADD PUSH1 0x40 MSTORE DUP1 ISZERO PUSH3 0x630 JUMPI DUP2 PUSH1 0x20 ADD PUSH1 0x20 DUP3 MUL DUP1 CALLDATASIZE DUP4 CALLDATACOPY ADD SWAP1 POP JUMPDEST POP DUP1 MLOAD PUSH3 0x647 SWAP2 PUSH1 0x11 SWAP2 PUSH1 0x20 SWAP1 SWAP2 ADD SWAP1 PUSH3 0xC36 JUMP JUMPDEST POP PUSH1 0x0 JUMPDEST DUP4 MLOAD DUP2 LT ISZERO PUSH3 0x6C8 JUMPI PUSH1 0x0 DUP2 PUSH1 0x1 DUP7 MLOAD SUB SUB SWAP1 POP PUSH1 0x10 DUP2 DUP2 SLOAD DUP2 LT PUSH3 0x66E JUMPI INVALID JUMPDEST PUSH1 0x0 SWAP2 DUP3 MSTORE PUSH1 0x20 SWAP1 SWAP2 KECCAK256 ADD SLOAD PUSH1 0x11 DUP1 SLOAD PUSH1 0x1 PUSH1 0x1 PUSH1 0xA0 SHL SUB SWAP1 SWAP3 AND SWAP2 DUP5 SWAP1 DUP2 LT PUSH3 0x695 JUMPI INVALID JUMPDEST PUSH1 0x0 SWAP2 DUP3 MSTORE PUSH1 0x20 SWAP1 SWAP2 KECCAK256 ADD DUP1 SLOAD PUSH1 0x1 PUSH1 0x1 PUSH1 0xA0 SHL SUB NOT AND PUSH1 0x1 PUSH1 0x1 PUSH1 0xA0 SHL SUB SWAP3 SWAP1 SWAP3 AND SWAP2 SWAP1 SWAP2 OR SWAP1 SSTORE POP PUSH1 0x1 ADD PUSH3 0x64B JUMP JUMPDEST POP PUSH3 0x6D3 PUSH3 0x6E8 JUMP JUMPDEST POP POP POP POP POP POP POP POP POP POP POP PUSH3 0xCC1 JUMP JUMPDEST CALLER SWAP1 JUMP JUMPDEST PUSH1 0xE SLOAD PUSH1 0xB SLOAD PUSH3 0x715 SWAP2 PUSH1 0x1 PUSH1 0x1 PUSH1 0xA0 SHL SUB SWAP2 DUP3 AND SWAP2 AND PUSH1 0x0 NOT PUSH3 0x823 PUSH1 0x20 SWAP1 DUP2 SHL PUSH3 0x1637 OR SWAP1 SHR JUMP JUMPDEST PUSH1 0x3 SLOAD PUSH1 0xA SLOAD PUSH3 0x742 SWAP2 PUSH1 0x1 PUSH1 0x1 PUSH1 0xA0 SHL SUB SWAP2 DUP3 AND SWAP2 AND PUSH1 0x0 NOT PUSH3 0x823 PUSH1 0x20 SWAP1 DUP2 SHL PUSH3 0x1637 OR SWAP1 SHR JUMP JUMPDEST PUSH1 0x3 SLOAD PUSH1 0x9 SLOAD PUSH3 0x76F SWAP2 PUSH1 0x1 PUSH1 0x1 PUSH1 0xA0 SHL SUB SWAP2 DUP3 AND SWAP2 AND PUSH1 0x0 NOT PUSH3 0x823 PUSH1 0x20 SWAP1 DUP2 SHL PUSH3 0x1637 OR SWAP1 SHR JUMP JUMPDEST PUSH1 0x3 SLOAD PUSH1 0xC SLOAD PUSH3 0x79B SWAP2 PUSH1 0x1 PUSH1 0x1 PUSH1 0xA0 SHL SUB SWAP2 DUP3 AND SWAP2 AND PUSH1 0x0 PUSH3 0x823 PUSH1 0x20 SWAP1 DUP2 SHL PUSH3 0x1637 OR SWAP1 SHR JUMP JUMPDEST PUSH1 0x3 SLOAD PUSH1 0xC SLOAD PUSH3 0x7C8 SWAP2 PUSH1 0x1 PUSH1 0x1 PUSH1 0xA0 SHL SUB SWAP2 DUP3 AND SWAP2 AND PUSH1 0x0 NOT PUSH3 0x823 PUSH1 0x20 SWAP1 DUP2 SHL PUSH3 0x1637 OR SWAP1 SHR JUMP JUMPDEST PUSH1 0x3 SLOAD PUSH1 0xD SLOAD PUSH3 0x7F4 SWAP2 PUSH1 0x1 PUSH1 0x1 PUSH1 0xA0 SHL SUB SWAP2 DUP3 AND SWAP2 AND PUSH1 0x0 PUSH3 0x823 PUSH1 0x20 SWAP1 DUP2 SHL PUSH3 0x1637 OR SWAP1 SHR JUMP JUMPDEST PUSH1 0x3 SLOAD PUSH1 0xD SLOAD PUSH3 0x821 SWAP2 PUSH1 0x1 PUSH1 0x1 PUSH1 0xA0 SHL SUB SWAP2 DUP3 AND SWAP2 AND PUSH1 0x0 NOT PUSH3 0x823 PUSH1 0x20 SWAP1 DUP2 SHL PUSH3 0x1637 OR SWAP1 SHR JUMP JUMPDEST JUMP JUMPDEST DUP1 ISZERO DUP1 PUSH3 0x8AD JUMPI POP PUSH1 0x40 DUP1 MLOAD PUSH4 0x6EB1769F PUSH1 0xE1 SHL DUP2 MSTORE ADDRESS PUSH1 0x4 DUP3 ADD MSTORE PUSH1 0x1 PUSH1 0x1 PUSH1 0xA0 SHL SUB DUP5 DUP2 AND PUSH1 0x24 DUP4 ADD MSTORE SWAP2 MLOAD SWAP2 DUP6 AND SWAP2 PUSH4 0xDD62ED3E SWAP2 PUSH1 0x44 DUP1 DUP3 ADD SWAP3 PUSH1 0x20 SWAP3 SWAP1 SWAP2 SWAP1 DUP3 SWAP1 SUB ADD DUP2 DUP7 DUP1 EXTCODESIZE ISZERO DUP1 ISZERO PUSH3 0x87D JUMPI PUSH1 0x0 DUP1 REVERT JUMPDEST POP GAS STATICCALL ISZERO DUP1 ISZERO PUSH3 0x892 JUMPI RETURNDATASIZE PUSH1 0x0 DUP1 RETURNDATACOPY RETURNDATASIZE PUSH1 0x0 REVERT JUMPDEST POP POP POP POP PUSH1 0x40 MLOAD RETURNDATASIZE PUSH1 0x20 DUP2 LT ISZERO PUSH3 0x8A9 JUMPI PUSH1 0x0 DUP1 REVERT JUMPDEST POP MLOAD ISZERO JUMPDEST PUSH3 0x8EA JUMPI PUSH1 0x40 MLOAD PUSH3 0x461BCD PUSH1 0xE5 SHL DUP2 MSTORE PUSH1 0x4 ADD DUP1 DUP1 PUSH1 0x20 ADD DUP3 DUP2 SUB DUP3 MSTORE PUSH1 0x36 DUP2 MSTORE PUSH1 0x20 ADD DUP1 PUSH3 0x3788 PUSH1 0x36 SWAP2 CODECOPY PUSH1 0x40 ADD SWAP2 POP POP PUSH1 0x40 MLOAD DUP1 SWAP2 SUB SWAP1 REVERT JUMPDEST PUSH1 0x40 DUP1 MLOAD PUSH1 0x1 PUSH1 0x1 PUSH1 0xA0 SHL SUB DUP5 AND PUSH1 0x24 DUP3 ADD MSTORE PUSH1 0x44 DUP1 DUP3 ADD DUP5 SWAP1 MSTORE DUP3 MLOAD DUP1 DUP4 SUB SWAP1 SWAP2 ADD DUP2 MSTORE PUSH1 0x64 SWAP1 SWAP2 ADD SWAP1 SWAP2 MSTORE PUSH1 0x20 DUP2 ADD DUP1 MLOAD PUSH1 0x1 PUSH1 0x1 PUSH1 0xE0 SHL SUB SWAP1 DUP2 AND PUSH4 0x95EA7B3 PUSH1 0xE0 SHL OR SWAP1 SWAP2 MSTORE PUSH3 0x942 SWAP2 DUP6 SWAP2 PUSH3 0x947 AND JUMP JUMPDEST POP POP POP JUMP JUMPDEST PUSH1 0x60 PUSH3 0x9A3 DUP3 PUSH1 0x40 MLOAD DUP1 PUSH1 0x40 ADD PUSH1 0x40 MSTORE DUP1 PUSH1 0x20 DUP2 MSTORE PUSH1 0x20 ADD PUSH32 0x5361666545524332303A206C6F772D6C6576656C2063616C6C206661696C6564 DUP2 MSTORE POP DUP6 PUSH1 0x1 PUSH1 0x1 PUSH1 0xA0 SHL SUB AND PUSH3 0xA03 PUSH1 0x20 SHL PUSH3 0x174A OR SWAP1 SWAP3 SWAP2 SWAP1 PUSH1 0x20 SHR JUMP JUMPDEST DUP1 MLOAD SWAP1 SWAP2 POP ISZERO PUSH3 0x942 JUMPI DUP1 DUP1 PUSH1 0x20 ADD SWAP1 MLOAD PUSH1 0x20 DUP2 LT ISZERO PUSH3 0x9C4 JUMPI PUSH1 0x0 DUP1 REVERT JUMPDEST POP MLOAD PUSH3 0x942 JUMPI PUSH1 0x40 MLOAD PUSH3 0x461BCD PUSH1 0xE5 SHL DUP2 MSTORE PUSH1 0x4 ADD DUP1 DUP1 PUSH1 0x20 ADD DUP3 DUP2 SUB DUP3 MSTORE PUSH1 0x2A DUP2 MSTORE PUSH1 0x20 ADD DUP1 PUSH3 0x375E PUSH1 0x2A SWAP2 CODECOPY PUSH1 0x40 ADD SWAP2 POP POP PUSH1 0x40 MLOAD DUP1 SWAP2 SUB SWAP1 REVERT JUMPDEST PUSH1 0x60 PUSH3 0xA14 DUP5 DUP5 PUSH1 0x0 DUP6 PUSH3 0xA1E JUMP JUMPDEST SWAP1 POP JUMPDEST SWAP4 SWAP3 POP POP POP JUMP JUMPDEST PUSH1 0x60 DUP3 SELFBALANCE LT ISZERO PUSH3 0xA61 JUMPI PUSH1 0x40 MLOAD PUSH3 0x461BCD PUSH1 0xE5 SHL DUP2 MSTORE PUSH1 0x4 ADD DUP1 DUP1 PUSH1 0x20 ADD DUP3 DUP2 SUB DUP3 MSTORE PUSH1 0x26 DUP2 MSTORE PUSH1 0x20 ADD DUP1 PUSH3 0x3738 PUSH1 0x26 SWAP2 CODECOPY PUSH1 0x40 ADD SWAP2 POP POP PUSH1 0x40 MLOAD DUP1 SWAP2 SUB SWAP1 REVERT JUMPDEST PUSH3 0xA6C DUP6 PUSH3 0xB86 JUMP JUMPDEST PUSH3 0xABE JUMPI PUSH1 0x40 DUP1 MLOAD PUSH3 0x461BCD PUSH1 0xE5 SHL DUP2 MSTORE PUSH1 0x20 PUSH1 0x4 DUP3 ADD MSTORE PUSH1 0x1D PUSH1 0x24 DUP3 ADD MSTORE PUSH32 0x416464726573733A2063616C6C20746F206E6F6E2D636F6E7472616374000000 PUSH1 0x44 DUP3 ADD MSTORE SWAP1 MLOAD SWAP1 DUP2 SWAP1 SUB PUSH1 0x64 ADD SWAP1 REVERT JUMPDEST PUSH1 0x0 PUSH1 0x60 DUP7 PUSH1 0x1 PUSH1 0x1 PUSH1 0xA0 SHL SUB AND DUP6 DUP8 PUSH1 0x40 MLOAD DUP1 DUP3 DUP1 MLOAD SWAP1 PUSH1 0x20 ADD SWAP1 DUP1 DUP4 DUP4 JUMPDEST PUSH1 0x20 DUP4 LT PUSH3 0xAFF JUMPI DUP1 MLOAD DUP3 MSTORE PUSH1 0x1F NOT SWAP1 SWAP3 ADD SWAP2 PUSH1 0x20 SWAP2 DUP3 ADD SWAP2 ADD PUSH3 0xADE JUMP JUMPDEST PUSH1 0x1 DUP4 PUSH1 0x20 SUB PUSH2 0x100 EXP SUB DUP1 NOT DUP3 MLOAD AND DUP2 DUP5 MLOAD AND DUP1 DUP3 OR DUP6 MSTORE POP POP POP POP POP POP SWAP1 POP ADD SWAP2 POP POP PUSH1 0x0 PUSH1 0x40 MLOAD DUP1 DUP4 SUB DUP2 DUP6 DUP8 GAS CALL SWAP3 POP POP POP RETURNDATASIZE DUP1 PUSH1 0x0 DUP2 EQ PUSH3 0xB63 JUMPI PUSH1 0x40 MLOAD SWAP2 POP PUSH1 0x1F NOT PUSH1 0x3F RETURNDATASIZE ADD AND DUP3 ADD PUSH1 0x40 MSTORE RETURNDATASIZE DUP3 MSTORE RETURNDATASIZE PUSH1 0x0 PUSH1 0x20 DUP5 ADD RETURNDATACOPY PUSH3 0xB68 JUMP JUMPDEST PUSH1 0x60 SWAP2 POP JUMPDEST POP SWAP1 SWAP3 POP SWAP1 POP PUSH3 0xB7B DUP3 DUP3 DUP7 PUSH3 0xB8C JUMP JUMPDEST SWAP8 SWAP7 POP POP POP POP POP POP POP JUMP JUMPDEST EXTCODESIZE ISZERO ISZERO SWAP1 JUMP JUMPDEST PUSH1 0x60 DUP4 ISZERO PUSH3 0xB9D JUMPI POP DUP2 PUSH3 0xA17 JUMP JUMPDEST DUP3 MLOAD ISZERO PUSH3 0xBAE JUMPI DUP3 MLOAD DUP1 DUP5 PUSH1 0x20 ADD REVERT JUMPDEST DUP2 PUSH1 0x40 MLOAD PUSH3 0x461BCD PUSH1 0xE5 SHL DUP2 MSTORE PUSH1 0x4 ADD DUP1 DUP1 PUSH1 0x20 ADD DUP3 DUP2 SUB DUP3 MSTORE DUP4 DUP2 DUP2 MLOAD DUP2 MSTORE PUSH1 0x20 ADD SWAP2 POP DUP1 MLOAD SWAP1 PUSH1 0x20 ADD SWAP1 DUP1 DUP4 DUP4 PUSH1 0x0 JUMPDEST DUP4 DUP2 LT ISZERO PUSH3 0xBFA JUMPI DUP2 DUP2 ADD MLOAD DUP4 DUP3 ADD MSTORE PUSH1 0x20 ADD PUSH3 0xBE0 JUMP JUMPDEST POP POP POP POP SWAP1 POP SWAP1 DUP2 ADD SWAP1 PUSH1 0x1F AND DUP1 ISZERO PUSH3 0xC28 JUMPI DUP1 DUP3 SUB DUP1 MLOAD PUSH1 0x1 DUP4 PUSH1 0x20 SUB PUSH2 0x100 EXP SUB NOT AND DUP2 MSTORE PUSH1 0x20 ADD SWAP2 POP JUMPDEST POP SWAP3 POP POP POP PUSH1 0x40 MLOAD DUP1 SWAP2 SUB SWAP1 REVERT JUMPDEST DUP3 DUP1 SLOAD DUP3 DUP3 SSTORE SWAP1 PUSH1 0x0 MSTORE PUSH1 0x20 PUSH1 0x0 KECCAK256 SWAP1 DUP2 ADD SWAP3 DUP3 ISZERO PUSH3 0xC8E JUMPI SWAP2 PUSH1 0x20 MUL DUP3 ADD JUMPDEST DUP3 DUP2 GT ISZERO PUSH3 0xC8E JUMPI DUP3 MLOAD DUP3 SLOAD PUSH1 0x1 PUSH1 0x1 PUSH1 0xA0 SHL SUB NOT AND PUSH1 0x1 PUSH1 0x1 PUSH1 0xA0 SHL SUB SWAP1 SWAP2 AND OR DUP3 SSTORE PUSH1 0x20 SWAP1 SWAP3 ADD SWAP2 PUSH1 0x1 SWAP1 SWAP2 ADD SWAP1 PUSH3 0xC57 JUMP JUMPDEST POP PUSH3 0xC9C SWAP3 SWAP2 POP PUSH3 0xCA0 JUMP JUMPDEST POP SWAP1 JUMP JUMPDEST JUMPDEST DUP1 DUP3 GT ISZERO PUSH3 0xC9C JUMPI DUP1 SLOAD PUSH1 0x1 PUSH1 0x1 PUSH1 0xA0 SHL SUB NOT AND DUP2 SSTORE PUSH1 0x1 ADD PUSH3 0xCA1 JUMP JUMPDEST PUSH2 0x2A67 DUP1 PUSH3 0xCD1 PUSH1 0x0 CODECOPY PUSH1 0x0 RETURN INVALID PUSH1 0x80 PUSH1 0x40 MSTORE CALLVALUE DUP1 ISZERO PUSH2 0x10 JUMPI PUSH1 0x0 DUP1 REVERT JUMPDEST POP PUSH1 0x4 CALLDATASIZE LT PUSH2 0x28A JUMPI PUSH1 0x0 CALLDATALOAD PUSH1 0xE0 SHR DUP1 PUSH4 0x748747E6 GT PUSH2 0x15C JUMPI DUP1 PUSH4 0xC1A3D44C GT PUSH2 0xCE JUMPI DUP1 PUSH4 0xF20EAEB8 GT PUSH2 0x87 JUMPI DUP1 PUSH4 0xF20EAEB8 EQ PUSH2 0x527 JUMPI DUP1 PUSH4 0xF2FDE38B EQ PUSH2 0x52F JUMPI DUP1 PUSH4 0xFB617787 EQ PUSH2 0x555 JUMPI DUP1 PUSH4 0xFBFA77CF EQ PUSH2 0x55D JUMPI DUP1 PUSH4 0xFC61568B EQ PUSH2 0x565 JUMPI DUP1 PUSH4 0xFD63A887 EQ PUSH2 0x56D JUMPI PUSH2 0x28A JUMP JUMPDEST DUP1 PUSH4 0xC1A3D44C EQ PUSH2 0x4BB JUMPI DUP1 PUSH4 0xC7B9D530 EQ PUSH2 0x4C3 JUMPI DUP1 PUSH4 0xD0E30DB0 EQ PUSH2 0x4E9 JUMPI DUP1 PUSH4 0xD92F3D73 EQ PUSH2 0x4F1 JUMPI DUP1 PUSH4 0xDFBDC437 EQ PUSH2 0x517 JUMPI DUP1 PUSH4 0xE0E4130B EQ PUSH2 0x51F JUMPI PUSH2 0x28A JUMP JUMPDEST DUP1 PUSH4 0x8DA5CB5B GT PUSH2 0x120 JUMPI DUP1 PUSH4 0x8DA5CB5B EQ PUSH2 0x461 JUMPI DUP1 PUSH4 0x90321E1A EQ PUSH2 0x469 JUMPI DUP1 PUSH4 0xAC1E5025 EQ PUSH2 0x471 JUMPI DUP1 PUSH4 0xACED1661 EQ PUSH2 0x48E JUMPI DUP1 PUSH4 0xBC063E1A EQ PUSH2 0x496 JUMPI DUP1 PUSH4 0xBE12A978 EQ PUSH2 0x49E JUMPI PUSH2 0x28A JUMP JUMPDEST DUP1 PUSH4 0x748747E6 EQ PUSH2 0x41B JUMPI DUP1 PUSH4 0x7D38CA65 EQ PUSH2 0x441 JUMPI DUP1 PUSH4 0x8456CB59 EQ PUSH2 0x449 JUMPI DUP1 PUSH4 0x877562B6 EQ PUSH2 0x451 JUMPI DUP1 PUSH4 0x8BC7E8C4 EQ PUSH2 0x459 JUMPI PUSH2 0x28A JUMP JUMPDEST DUP1 PUSH4 0x3E0DC34E GT PUSH2 0x200 JUMPI DUP1 PUSH4 0x5C975ABB GT PUSH2 0x1B9 JUMPI DUP1 PUSH4 0x5C975ABB EQ PUSH2 0x39B JUMPI DUP1 PUSH4 0x5E45DA42 EQ PUSH2 0x3B7 JUMPI DUP1 PUSH4 0x5EE167C0 EQ PUSH2 0x3DD JUMPI DUP1 PUSH4 0x6817031B EQ PUSH2 0x3E5 JUMPI DUP1 PUSH4 0x715018A6 EQ PUSH2 0x40B JUMPI DUP1 PUSH4 0x722713F7 EQ PUSH2 0x413 JUMPI PUSH2 0x28A JUMP JUMPDEST DUP1 PUSH4 0x3E0DC34E EQ PUSH2 0x36B JUMPI DUP1 PUSH4 0x3F4BA83A EQ PUSH2 0x373 JUMPI DUP1 PUSH4 0x4641257D EQ PUSH2 0x37B JUMPI DUP1 PUSH4 0x4700D305 EQ PUSH2 0x383 JUMPI DUP1 PUSH4 0x54518B1A EQ PUSH2 0x38B JUMPI DUP1 PUSH4 0x573FEF0A EQ PUSH2 0x393 JUMPI PUSH2 0x28A JUMP JUMPDEST DUP1 PUSH4 0x1FE4A686 GT PUSH2 0x252 JUMPI DUP1 PUSH4 0x1FE4A686 EQ PUSH2 0x2FA JUMPI DUP1 PUSH4 0x257AE0DE EQ PUSH2 0x302 JUMPI DUP1 PUSH4 0x26465826 EQ PUSH2 0x30A JUMPI DUP1 PUSH4 0x2AD5A53F EQ PUSH2 0x329 JUMPI DUP1 PUSH4 0x2E1A7D4D EQ PUSH2 0x331 JUMPI DUP1 PUSH4 0x36C6CF21 EQ PUSH2 0x34E JUMPI PUSH2 0x28A JUMP JUMPDEST DUP1 PUSH4 0x5200C9C EQ PUSH2 0x28F JUMPI DUP1 PUSH4 0x11588086 EQ PUSH2 0x2C8 JUMPI DUP1 PUSH4 0x11B0B42D EQ PUSH2 0x2E2 JUMPI DUP1 PUSH4 0x1F1FCD51 EQ PUSH2 0x2EA JUMPI DUP1 PUSH4 0x1FC8BC5D EQ PUSH2 0x2F2 JUMPI JUMPDEST PUSH1 0x0 DUP1 REVERT JUMPDEST PUSH2 0x2AC PUSH1 0x4 DUP1 CALLDATASIZE SUB PUSH1 0x20 DUP2 LT ISZERO PUSH2 0x2A5 JUMPI PUSH1 0x0 DUP1 REVERT JUMPDEST POP CALLDATALOAD PUSH2 0x58A JUMP JUMPDEST PUSH1 0x40 DUP1 MLOAD PUSH1 0x1 PUSH1 0x1 PUSH1 0xA0 SHL SUB SWAP1 SWAP3 AND DUP3 MSTORE MLOAD SWAP1 DUP2 SWAP1 SUB PUSH1 0x20 ADD SWAP1 RETURN JUMPDEST PUSH2 0x2D0 PUSH2 0x5B1 JUMP JUMPDEST PUSH1 0x40 DUP1 MLOAD SWAP2 DUP3 MSTORE MLOAD SWAP1 DUP2 SWAP1 SUB PUSH1 0x20 ADD SWAP1 RETURN JUMPDEST PUSH2 0x2AC PUSH2 0x638 JUMP JUMPDEST PUSH2 0x2AC PUSH2 0x647 JUMP JUMPDEST PUSH2 0x2AC PUSH2 0x656 JUMP JUMPDEST PUSH2 0x2AC PUSH2 0x665 JUMP JUMPDEST PUSH2 0x2AC PUSH2 0x674 JUMP JUMPDEST PUSH2 0x327 PUSH1 0x4 DUP1 CALLDATASIZE SUB PUSH1 0x20 DUP2 LT ISZERO PUSH2 0x320 JUMPI PUSH1 0x0 DUP1 REVERT JUMPDEST POP CALLDATALOAD PUSH2 0x683 JUMP JUMPDEST STOP JUMPDEST PUSH2 0x2D0 PUSH2 0x73D JUMP JUMPDEST PUSH2 0x327 PUSH1 0x4 DUP1 CALLDATASIZE SUB PUSH1 0x20 DUP2 LT ISZERO PUSH2 0x347 JUMPI PUSH1 0x0 DUP1 REVERT JUMPDEST POP CALLDATALOAD PUSH2 0x742 JUMP JUMPDEST PUSH2 0x2AC PUSH1 0x4 DUP1 CALLDATASIZE SUB PUSH1 0x20 DUP2 LT ISZERO PUSH2 0x364 JUMPI PUSH1 0x0 DUP1 REVERT JUMPDEST POP CALLDATALOAD PUSH2 0x9C2 JUMP JUMPDEST PUSH2 0x2D0 PUSH2 0x9CF JUMP JUMPDEST PUSH2 0x327 PUSH2 0x9D5 JUMP JUMPDEST PUSH2 0x327 PUSH2 0xA5C JUMP JUMPDEST PUSH2 0x327 PUSH2 0xB99 JUMP JUMPDEST PUSH2 0x2D0 PUSH2 0xC7E JUMP JUMPDEST PUSH2 0x327 PUSH2 0xA5A JUMP JUMPDEST PUSH2 0x3A3 PUSH2 0xC84 JUMP JUMPDEST PUSH1 0x40 DUP1 MLOAD SWAP2 ISZERO ISZERO DUP3 MSTORE MLOAD SWAP1 DUP2 SWAP1 SUB PUSH1 0x20 ADD SWAP1 RETURN JUMPDEST PUSH2 0x327 PUSH1 0x4 DUP1 CALLDATASIZE SUB PUSH1 0x20 DUP2 LT ISZERO PUSH2 0x3CD JUMPI PUSH1 0x0 DUP1 REVERT JUMPDEST POP CALLDATALOAD PUSH1 0x1 PUSH1 0x1 PUSH1 0xA0 SHL SUB AND PUSH2 0xC94 JUMP JUMPDEST PUSH2 0x2AC PUSH2 0xD18 JUMP JUMPDEST PUSH2 0x327 PUSH1 0x4 DUP1 CALLDATASIZE SUB PUSH1 0x20 DUP2 LT ISZERO PUSH2 0x3FB JUMPI PUSH1 0x0 DUP1 REVERT JUMPDEST POP CALLDATALOAD PUSH1 0x1 PUSH1 0x1 PUSH1 0xA0 SHL SUB AND PUSH2 0xD27 JUMP JUMPDEST PUSH2 0x327 PUSH2 0xDAB JUMP JUMPDEST PUSH2 0x2D0 PUSH2 0xE57 JUMP JUMPDEST PUSH2 0x327 PUSH1 0x4 DUP1 CALLDATASIZE SUB PUSH1 0x20 DUP2 LT ISZERO PUSH2 0x431 JUMPI PUSH1 0x0 DUP1 REVERT JUMPDEST POP CALLDATALOAD PUSH1 0x1 PUSH1 0x1 PUSH1 0xA0 SHL SUB AND PUSH2 0xE77 JUMP JUMPDEST PUSH2 0x2D0 PUSH2 0xF06 JUMP JUMPDEST PUSH2 0x327 PUSH2 0xF0B JUMP JUMPDEST PUSH2 0x2AC PUSH2 0xF88 JUMP JUMPDEST PUSH2 0x2D0 PUSH2 0xF97 JUMP JUMPDEST PUSH2 0x2AC PUSH2 0xF9D JUMP JUMPDEST PUSH2 0x2D0 PUSH2 0xFAC JUMP JUMPDEST PUSH2 0x327 PUSH1 0x4 DUP1 CALLDATASIZE SUB PUSH1 0x20 DUP2 LT ISZERO PUSH2 0x487 JUMPI PUSH1 0x0 DUP1 REVERT JUMPDEST POP CALLDATALOAD PUSH2 0xFB2 JUMP JUMPDEST PUSH2 0x2AC PUSH2 0x1063 JUMP JUMPDEST PUSH2 0x2D0 PUSH2 0x1072 JUMP JUMPDEST PUSH2 0x2AC PUSH1 0x4 DUP1 CALLDATASIZE SUB PUSH1 0x20 DUP2 LT ISZERO PUSH2 0x4B4 JUMPI PUSH1 0x0 DUP1 REVERT JUMPDEST POP CALLDATALOAD PUSH2 0x1078 JUMP JUMPDEST PUSH2 0x2D0 PUSH2 0x1085 JUMP JUMPDEST PUSH2 0x327 PUSH1 0x4 DUP1 CALLDATASIZE SUB PUSH1 0x20 DUP2 LT ISZERO PUSH2 0x4D9 JUMPI PUSH1 0x0 DUP1 REVERT JUMPDEST POP CALLDATALOAD PUSH1 0x1 PUSH1 0x1 PUSH1 0xA0 SHL SUB AND PUSH2 0x1101 JUMP JUMPDEST PUSH2 0x327 PUSH2 0x1170 JUMP JUMPDEST PUSH2 0x327 PUSH1 0x4 DUP1 CALLDATASIZE SUB PUSH1 0x20 DUP2 LT ISZERO PUSH2 0x507 JUMPI PUSH1 0x0 DUP1 REVERT JUMPDEST POP CALLDATALOAD PUSH1 0x1 PUSH1 0x1 PUSH1 0xA0 SHL SUB AND PUSH2 0x12B5 JUMP JUMPDEST PUSH2 0x2D0 PUSH2 0x1339 JUMP JUMPDEST PUSH2 0x2AC PUSH2 0x133E JUMP JUMPDEST PUSH2 0x2AC PUSH2 0x134D JUMP JUMPDEST PUSH2 0x327 PUSH1 0x4 DUP1 CALLDATASIZE SUB PUSH1 0x20 DUP2 LT ISZERO PUSH2 0x545 JUMPI PUSH1 0x0 DUP1 REVERT JUMPDEST POP CALLDATALOAD PUSH1 0x1 PUSH1 0x1 PUSH1 0xA0 SHL SUB AND PUSH2 0x135C JUMP JUMPDEST PUSH2 0x327 PUSH2 0x145E JUMP JUMPDEST PUSH2 0x2AC PUSH2 0x1615 JUMP JUMPDEST PUSH2 0x2D0 PUSH2 0x1624 JUMP JUMPDEST PUSH2 0x2AC PUSH1 0x4 DUP1 CALLDATASIZE SUB PUSH1 0x20 DUP2 LT ISZERO PUSH2 0x583 JUMPI PUSH1 0x0 DUP1 REVERT JUMPDEST POP CALLDATALOAD PUSH2 0x162A JUMP JUMPDEST PUSH1 0x11 DUP2 DUP2 SLOAD DUP2 LT PUSH2 0x597 JUMPI INVALID JUMPDEST PUSH1 0x0 SWAP2 DUP3 MSTORE PUSH1 0x20 SWAP1 SWAP2 KECCAK256 ADD SLOAD PUSH1 0x1 PUSH1 0x1 PUSH1 0xA0 SHL SUB AND SWAP1 POP DUP2 JUMP JUMPDEST PUSH1 0xE SLOAD PUSH1 0xF SLOAD PUSH1 0x40 DUP1 MLOAD PUSH4 0x93F1A40B PUSH1 0xE0 SHL DUP2 MSTORE PUSH1 0x4 DUP2 ADD SWAP3 SWAP1 SWAP3 MSTORE ADDRESS PUSH1 0x24 DUP4 ADD MSTORE DUP1 MLOAD PUSH1 0x0 SWAP4 DUP5 SWAP4 PUSH1 0x1 PUSH1 0x1 PUSH1 0xA0 SHL SUB SWAP1 SWAP2 AND SWAP3 PUSH4 0x93F1A40B SWAP3 PUSH1 0x44 DUP1 DUP5 ADD SWAP4 DUP3 SWAP1 SUB ADD DUP2 DUP7 DUP1 EXTCODESIZE ISZERO DUP1 ISZERO PUSH2 0x606 JUMPI PUSH1 0x0 DUP1 REVERT JUMPDEST POP GAS STATICCALL ISZERO DUP1 ISZERO PUSH2 0x61A JUMPI RETURNDATASIZE PUSH1 0x0 DUP1 RETURNDATACOPY RETURNDATASIZE PUSH1 0x0 REVERT JUMPDEST POP POP POP POP PUSH1 0x40 MLOAD RETURNDATASIZE PUSH1 0x40 DUP2 LT ISZERO PUSH2 0x630 JUMPI PUSH1 0x0 DUP1 REVERT JUMPDEST POP MLOAD SWAP2 POP POP SWAP1 JUMP JUMPDEST PUSH1 0x9 SLOAD PUSH1 0x1 PUSH1 0x1 PUSH1 0xA0 SHL SUB AND DUP2 JUMP JUMPDEST PUSH1 0xB SLOAD PUSH1 0x1 PUSH1 0x1 PUSH1 0xA0 SHL SUB AND DUP2 JUMP JUMPDEST PUSH1 0xE SLOAD PUSH1 0x1 PUSH1 0x1 PUSH1 0xA0 SHL SUB AND DUP2 JUMP JUMPDEST PUSH1 0x2 SLOAD PUSH1 0x1 PUSH1 0x1 PUSH1 0xA0 SHL SUB AND DUP2 JUMP JUMPDEST PUSH1 0x3 SLOAD PUSH1 0x1 PUSH1 0x1 PUSH1 0xA0 SHL SUB AND DUP2 JUMP JUMPDEST PUSH2 0x68B PUSH2 0xF9D JUMP JUMPDEST PUSH1 0x1 PUSH1 0x1 PUSH1 0xA0 SHL SUB AND CALLER PUSH1 0x1 PUSH1 0x1 PUSH1 0xA0 SHL SUB AND EQ DUP1 PUSH2 0x6B4 JUMPI POP PUSH1 0x1 SLOAD PUSH1 0x1 PUSH1 0x1 PUSH1 0xA0 SHL SUB AND CALLER EQ JUMPDEST PUSH2 0x6F0 JUMPI PUSH1 0x40 DUP1 MLOAD PUSH3 0x461BCD PUSH1 0xE5 SHL DUP2 MSTORE PUSH1 0x20 PUSH1 0x4 DUP3 ADD MSTORE PUSH1 0x8 PUSH1 0x24 DUP3 ADD MSTORE PUSH8 0x10B6B0B730B3B2B9 PUSH1 0xC1 SHL PUSH1 0x44 DUP3 ADD MSTORE SWAP1 MLOAD SWAP1 DUP2 SWAP1 SUB PUSH1 0x64 ADD SWAP1 REVERT JUMPDEST PUSH1 0x6F DUP2 GT ISZERO PUSH2 0x72F JUMPI PUSH1 0x40 DUP1 MLOAD PUSH3 0x461BCD PUSH1 0xE5 SHL DUP2 MSTORE PUSH1 0x20 PUSH1 0x4 DUP1 DUP4 ADD SWAP2 SWAP1 SWAP2 MSTORE PUSH1 0x24 DUP3 ADD MSTORE PUSH4 0x2163617 PUSH1 0xE4 SHL PUSH1 0x44 DUP3 ADD MSTORE SWAP1 MLOAD SWAP1 DUP2 SWAP1 SUB PUSH1 0x64 ADD SWAP1 REVERT JUMPDEST PUSH1 0x7 DUP2 SWAP1 SSTORE PUSH2 0x3E8 SUB PUSH1 0x8 SSTORE JUMP JUMPDEST PUSH1 0x6F DUP2 JUMP JUMPDEST PUSH1 0x4 SLOAD PUSH1 0x1 PUSH1 0x1 PUSH1 0xA0 SHL SUB AND CALLER EQ PUSH2 0x78A JUMPI PUSH1 0x40 DUP1 MLOAD PUSH3 0x461BCD PUSH1 0xE5 SHL DUP2 MSTORE PUSH1 0x20 PUSH1 0x4 DUP3 ADD MSTORE PUSH1 0x6 PUSH1 0x24 DUP3 ADD MSTORE PUSH6 0x85D985D5B1D PUSH1 0xD2 SHL PUSH1 0x44 DUP3 ADD MSTORE SWAP1 MLOAD SWAP1 DUP2 SWAP1 SUB PUSH1 0x64 ADD SWAP1 REVERT JUMPDEST PUSH1 0xB SLOAD PUSH1 0x40 DUP1 MLOAD PUSH4 0x70A08231 PUSH1 0xE0 SHL DUP2 MSTORE ADDRESS PUSH1 0x4 DUP3 ADD MSTORE SWAP1 MLOAD PUSH1 0x0 SWAP3 PUSH1 0x1 PUSH1 0x1 PUSH1 0xA0 SHL SUB AND SWAP2 PUSH4 0x70A08231 SWAP2 PUSH1 0x24 DUP1 DUP4 ADD SWAP3 PUSH1 0x20 SWAP3 SWAP2 SWAP1 DUP3 SWAP1 SUB ADD DUP2 DUP7 DUP1 EXTCODESIZE ISZERO DUP1 ISZERO PUSH2 0x7D5 JUMPI PUSH1 0x0 DUP1 REVERT JUMPDEST POP GAS STATICCALL ISZERO DUP1 ISZERO PUSH2 0x7E9 JUMPI RETURNDATASIZE PUSH1 0x0 DUP1 RETURNDATACOPY RETURNDATASIZE PUSH1 0x0 REVERT JUMPDEST POP POP POP POP PUSH1 0x40 MLOAD RETURNDATASIZE PUSH1 0x20 DUP2 LT ISZERO PUSH2 0x7FF JUMPI PUSH1 0x0 DUP1 REVERT JUMPDEST POP MLOAD SWAP1 POP DUP2 DUP2 LT ISZERO PUSH2 0x90D JUMPI PUSH1 0xE SLOAD PUSH1 0xF SLOAD PUSH1 0x1 PUSH1 0x1 PUSH1 0xA0 SHL SUB SWAP1 SWAP2 AND SWAP1 PUSH4 0xAD58D2F SWAP1 PUSH2 0x82D DUP6 DUP6 PUSH2 0x1763 JUMP JUMPDEST ADDRESS PUSH1 0x40 MLOAD DUP5 PUSH4 0xFFFFFFFF AND PUSH1 0xE0 SHL DUP2 MSTORE PUSH1 0x4 ADD DUP1 DUP5 DUP2 MSTORE PUSH1 0x20 ADD DUP4 DUP2 MSTORE PUSH1 0x20 ADD DUP3 PUSH1 0x1 PUSH1 0x1 PUSH1 0xA0 SHL SUB AND DUP2 MSTORE PUSH1 0x20 ADD SWAP4 POP POP POP POP PUSH1 0x0 PUSH1 0x40 MLOAD DUP1 DUP4 SUB DUP2 PUSH1 0x0 DUP8 DUP1 EXTCODESIZE ISZERO DUP1 ISZERO PUSH2 0x87B JUMPI PUSH1 0x0 DUP1 REVERT JUMPDEST POP GAS CALL ISZERO DUP1 ISZERO PUSH2 0x88F JUMPI RETURNDATASIZE PUSH1 0x0 DUP1 RETURNDATACOPY RETURNDATASIZE PUSH1 0x0 REVERT JUMPDEST POP POP PUSH1 0xB SLOAD PUSH1 0x40 DUP1 MLOAD PUSH4 0x70A08231 PUSH1 0xE0 SHL DUP2 MSTORE ADDRESS PUSH1 0x4 DUP3 ADD MSTORE SWAP1 MLOAD PUSH1 0x1 PUSH1 0x1 PUSH1 0xA0 SHL SUB SWAP1 SWAP3 AND SWAP4 POP PUSH4 0x70A08231 SWAP3 POP PUSH1 0x24 DUP1 DUP3 ADD SWAP3 PUSH1 0x20 SWAP3 SWAP1 SWAP2 SWAP1 DUP3 SWAP1 SUB ADD DUP2 DUP7 DUP1 EXTCODESIZE ISZERO DUP1 ISZERO PUSH2 0x8DE JUMPI PUSH1 0x0 DUP1 REVERT JUMPDEST POP GAS STATICCALL ISZERO DUP1 ISZERO PUSH2 0x8F2 JUMPI RETURNDATASIZE PUSH1 0x0 DUP1 RETURNDATACOPY RETURNDATASIZE PUSH1 0x0 REVERT JUMPDEST POP POP POP POP PUSH1 0x40 MLOAD RETURNDATASIZE PUSH1 0x20 DUP2 LT ISZERO PUSH2 0x908 JUMPI PUSH1 0x0 DUP1 REVERT JUMPDEST POP MLOAD SWAP1 POP JUMPDEST DUP2 DUP2 GT ISZERO PUSH2 0x918 JUMPI POP DUP1 JUMPDEST PUSH2 0x920 PUSH2 0xF9D JUMP JUMPDEST PUSH1 0x1 PUSH1 0x1 PUSH1 0xA0 SHL SUB AND ORIGIN PUSH1 0x1 PUSH1 0x1 PUSH1 0xA0 SHL SUB AND EQ DUP1 PUSH2 0x942 JUMPI POP PUSH2 0x942 PUSH2 0xC84 JUMP JUMPDEST ISZERO PUSH2 0x969 JUMPI PUSH1 0x4 SLOAD PUSH1 0xB SLOAD PUSH2 0x964 SWAP2 PUSH1 0x1 PUSH1 0x1 PUSH1 0xA0 SHL SUB SWAP2 DUP3 AND SWAP2 AND DUP4 PUSH2 0x17C5 JUMP JUMPDEST PUSH2 0x9BE JUMP JUMPDEST PUSH1 0x0 PUSH2 0x98C PUSH2 0x2710 PUSH2 0x986 PUSH1 0x6 SLOAD DUP6 PUSH2 0x1817 SWAP1 SWAP2 SWAP1 PUSH4 0xFFFFFFFF AND JUMP JUMPDEST SWAP1 PUSH2 0x1870 JUMP JUMPDEST PUSH1 0x4 SLOAD SWAP1 SWAP2 POP PUSH2 0x9BC SWAP1 PUSH1 0x1 PUSH1 0x1 PUSH1 0xA0 SHL SUB AND PUSH2 0x9A9 DUP5 DUP5 PUSH2 0x1763 JUMP JUMPDEST PUSH1 0xB SLOAD PUSH1 0x1 PUSH1 0x1 PUSH1 0xA0 SHL SUB AND SWAP2 SWAP1 PUSH2 0x17C5 JUMP JUMPDEST POP JUMPDEST POP POP JUMP JUMPDEST PUSH1 0x12 DUP2 DUP2 SLOAD DUP2 LT PUSH2 0x597 JUMPI INVALID JUMPDEST PUSH1 0xF SLOAD DUP2 JUMP JUMPDEST PUSH2 0x9DD PUSH2 0xF9D JUMP JUMPDEST PUSH1 0x1 PUSH1 0x1 PUSH1 0xA0 SHL SUB AND CALLER PUSH1 0x1 PUSH1 0x1 PUSH1 0xA0 SHL SUB AND EQ DUP1 PUSH2 0xA06 JUMPI POP PUSH1 0x1 SLOAD PUSH1 0x1 PUSH1 0x1 PUSH1 0xA0 SHL SUB AND CALLER EQ JUMPDEST PUSH2 0xA42 JUMPI PUSH1 0x40 DUP1 MLOAD PUSH3 0x461BCD PUSH1 0xE5 SHL DUP2 MSTORE PUSH1 0x20 PUSH1 0x4 DUP3 ADD MSTORE PUSH1 0x8 PUSH1 0x24 DUP3 ADD MSTORE PUSH8 0x10B6B0B730B3B2B9 PUSH1 0xC1 SHL PUSH1 0x44 DUP3 ADD MSTORE SWAP1 MLOAD SWAP1 DUP2 SWAP1 SUB PUSH1 0x64 ADD SWAP1 REVERT JUMPDEST PUSH2 0xA4A PUSH2 0x18D7 JUMP JUMPDEST PUSH2 0xA52 PUSH2 0x197A JUMP JUMPDEST PUSH2 0xA5A PUSH2 0x1170 JUMP JUMPDEST JUMP JUMPDEST PUSH2 0xA64 PUSH2 0xC84 JUMP JUMPDEST ISZERO PUSH2 0xAA9 JUMPI PUSH1 0x40 DUP1 MLOAD PUSH3 0x461BCD PUSH1 0xE5 SHL DUP2 MSTORE PUSH1 0x20 PUSH1 0x4 DUP3 ADD MSTORE PUSH1 0x10 PUSH1 0x24 DUP3 ADD MSTORE PUSH16 0x14185D5CD8589B194E881C185D5CD959 PUSH1 0x82 SHL PUSH1 0x44 DUP3 ADD MSTORE SWAP1 MLOAD SWAP1 DUP2 SWAP1 SUB PUSH1 0x64 ADD SWAP1 REVERT JUMPDEST CALLER ORIGIN EQ PUSH2 0xAE6 JUMPI PUSH1 0x40 DUP1 MLOAD PUSH3 0x461BCD PUSH1 0xE5 SHL DUP2 MSTORE PUSH1 0x20 PUSH1 0x4 DUP1 DUP4 ADD SWAP2 SWAP1 SWAP2 MSTORE PUSH1 0x24 DUP3 ADD MSTORE PUSH4 0x21454F41 PUSH1 0xE0 SHL PUSH1 0x44 DUP3 ADD MSTORE SWAP1 MLOAD SWAP1 DUP2 SWAP1 SUB PUSH1 0x64 ADD SWAP1 REVERT JUMPDEST PUSH1 0xE SLOAD PUSH1 0xF SLOAD PUSH1 0x40 DUP1 MLOAD PUSH4 0xC7E663B PUSH1 0xE1 SHL DUP2 MSTORE PUSH1 0x4 DUP2 ADD SWAP3 SWAP1 SWAP3 MSTORE ADDRESS PUSH1 0x24 DUP4 ADD MSTORE MLOAD PUSH1 0x1 PUSH1 0x1 PUSH1 0xA0 SHL SUB SWAP1 SWAP3 AND SWAP2 PUSH4 0x18FCCC76 SWAP2 PUSH1 0x44 DUP1 DUP3 ADD SWAP3 PUSH1 0x0 SWAP3 SWAP1 SWAP2 SWAP1 DUP3 SWAP1 SUB ADD DUP2 DUP4 DUP8 DUP1 EXTCODESIZE ISZERO DUP1 ISZERO PUSH2 0xB3C JUMPI PUSH1 0x0 DUP1 REVERT JUMPDEST POP GAS CALL ISZERO DUP1 ISZERO PUSH2 0xB50 JUMPI RETURNDATASIZE PUSH1 0x0 DUP1 RETURNDATACOPY RETURNDATASIZE PUSH1 0x0 REVERT JUMPDEST POP POP POP POP PUSH2 0xB5C PUSH2 0x1A51 JUMP JUMPDEST PUSH2 0xB64 PUSH2 0x1FA4 JUMP JUMPDEST PUSH2 0xB6C PUSH2 0x1170 JUMP JUMPDEST PUSH1 0x40 MLOAD CALLER SWAP1 PUSH32 0x577A37FDB49A88D66684922C6F913DF5239B4F214B2B97C53EF8E3BBB2034CB5 SWAP1 PUSH1 0x0 SWAP1 LOG2 JUMP JUMPDEST PUSH2 0xBA1 PUSH2 0xF9D JUMP JUMPDEST PUSH1 0x1 PUSH1 0x1 PUSH1 0xA0 SHL SUB AND CALLER PUSH1 0x1 PUSH1 0x1 PUSH1 0xA0 SHL SUB AND EQ DUP1 PUSH2 0xBCA JUMPI POP PUSH1 0x1 SLOAD PUSH1 0x1 PUSH1 0x1 PUSH1 0xA0 SHL SUB AND CALLER EQ JUMPDEST PUSH2 0xC06 JUMPI PUSH1 0x40 DUP1 MLOAD PUSH3 0x461BCD PUSH1 0xE5 SHL DUP2 MSTORE PUSH1 0x20 PUSH1 0x4 DUP3 ADD MSTORE PUSH1 0x8 PUSH1 0x24 DUP3 ADD MSTORE PUSH8 0x10B6B0B730B3B2B9 PUSH1 0xC1 SHL PUSH1 0x44 DUP3 ADD MSTORE SWAP1 MLOAD SWAP1 DUP2 SWAP1 SUB PUSH1 0x64 ADD SWAP1 REVERT JUMPDEST PUSH2 0xC0E PUSH2 0xF0B JUMP JUMPDEST PUSH1 0xE SLOAD PUSH1 0xF SLOAD PUSH1 0x40 DUP1 MLOAD PUSH4 0x2F940C7 PUSH1 0xE4 SHL DUP2 MSTORE PUSH1 0x4 DUP2 ADD SWAP3 SWAP1 SWAP3 MSTORE ADDRESS PUSH1 0x24 DUP4 ADD MSTORE MLOAD PUSH1 0x1 PUSH1 0x1 PUSH1 0xA0 SHL SUB SWAP1 SWAP3 AND SWAP2 PUSH4 0x2F940C70 SWAP2 PUSH1 0x44 DUP1 DUP3 ADD SWAP3 PUSH1 0x0 SWAP3 SWAP1 SWAP2 SWAP1 DUP3 SWAP1 SUB ADD DUP2 DUP4 DUP8 DUP1 EXTCODESIZE ISZERO DUP1 ISZERO PUSH2 0xC64 JUMPI PUSH1 0x0 DUP1 REVERT JUMPDEST POP GAS CALL ISZERO DUP1 ISZERO PUSH2 0xC78 JUMPI RETURNDATASIZE PUSH1 0x0 DUP1 RETURNDATACOPY RETURNDATASIZE PUSH1 0x0 REVERT JUMPDEST POP POP POP POP JUMP JUMPDEST PUSH2 0x2710 DUP2 JUMP JUMPDEST PUSH1 0x0 SLOAD PUSH1 0x1 PUSH1 0xA0 SHL SWAP1 DIV PUSH1 0xFF AND SWAP1 JUMP JUMPDEST PUSH2 0xC9C PUSH2 0x2510 JUMP JUMPDEST PUSH1 0x1 PUSH1 0x1 PUSH1 0xA0 SHL SUB AND PUSH2 0xCAD PUSH2 0xF9D JUMP JUMPDEST PUSH1 0x1 PUSH1 0x1 PUSH1 0xA0 SHL SUB AND EQ PUSH2 0xCF6 JUMPI PUSH1 0x40 DUP1 MLOAD PUSH3 0x461BCD PUSH1 0xE5 SHL DUP2 MSTORE PUSH1 0x20 PUSH1 0x4 DUP3 ADD DUP2 SWAP1 MSTORE PUSH1 0x24 DUP3 ADD MSTORE PUSH1 0x0 DUP1 MLOAD PUSH1 0x20 PUSH2 0x29B2 DUP4 CODECOPY DUP2 MLOAD SWAP2 MSTORE PUSH1 0x44 DUP3 ADD MSTORE SWAP1 MLOAD SWAP1 DUP2 SWAP1 SUB PUSH1 0x64 ADD SWAP1 REVERT JUMPDEST PUSH1 0x5 DUP1 SLOAD PUSH1 0x1 PUSH1 0x1 PUSH1 0xA0 SHL SUB NOT AND PUSH1 0x1 PUSH1 0x1 PUSH1 0xA0 SHL SUB SWAP3 SWAP1 SWAP3 AND SWAP2 SWAP1 SWAP2 OR SWAP1 SSTORE JUMP JUMPDEST PUSH1 0xC SLOAD PUSH1 0x1 PUSH1 0x1 PUSH1 0xA0 SHL SUB AND DUP2 JUMP JUMPDEST PUSH2 0xD2F PUSH2 0x2510 JUMP JUMPDEST PUSH1 0x1 PUSH1 0x1 PUSH1 0xA0 SHL SUB AND PUSH2 0xD40 PUSH2 0xF9D JUMP JUMPDEST PUSH1 0x1 PUSH1 0x1 PUSH1 0xA0 SHL SUB AND EQ PUSH2 0xD89 JUMPI PUSH1 0x40 DUP1 MLOAD PUSH3 0x461BCD PUSH1 0xE5 SHL DUP2 MSTORE PUSH1 0x20 PUSH1 0x4 DUP3 ADD DUP2 SWAP1 MSTORE PUSH1 0x24 DUP3 ADD MSTORE PUSH1 0x0 DUP1 MLOAD PUSH1 0x20 PUSH2 0x29B2 DUP4 CODECOPY DUP2 MLOAD SWAP2 MSTORE PUSH1 0x44 DUP3 ADD MSTORE SWAP1 MLOAD SWAP1 DUP2 SWAP1 SUB PUSH1 0x64 ADD SWAP1 REVERT JUMPDEST PUSH1 0x4 DUP1 SLOAD PUSH1 0x1 PUSH1 0x1 PUSH1 0xA0 SHL SUB NOT AND PUSH1 0x1 PUSH1 0x1 PUSH1 0xA0 SHL SUB SWAP3 SWAP1 SWAP3 AND SWAP2 SWAP1 SWAP2 OR SWAP1 SSTORE JUMP JUMPDEST PUSH2 0xDB3 PUSH2 0x2510 JUMP JUMPDEST PUSH1 0x1 PUSH1 0x1 PUSH1 0xA0 SHL SUB AND PUSH2 0xDC4 PUSH2 0xF9D JUMP JUMPDEST PUSH1 0x1 PUSH1 0x1 PUSH1 0xA0 SHL SUB AND EQ PUSH2 0xE0D JUMPI PUSH1 0x40 DUP1 MLOAD PUSH3 0x461BCD PUSH1 0xE5 SHL DUP2 MSTORE PUSH1 0x20 PUSH1 0x4 DUP3 ADD DUP2 SWAP1 MSTORE PUSH1 0x24 DUP3 ADD MSTORE PUSH1 0x0 DUP1 MLOAD PUSH1 0x20 PUSH2 0x29B2 DUP4 CODECOPY DUP2 MLOAD SWAP2 MSTORE PUSH1 0x44 DUP3 ADD MSTORE SWAP1 MLOAD SWAP1 DUP2 SWAP1 SUB PUSH1 0x64 ADD SWAP1 REVERT JUMPDEST PUSH1 0x0 DUP1 SLOAD PUSH1 0x40 MLOAD PUSH1 0x1 PUSH1 0x1 PUSH1 0xA0 SHL SUB SWAP1 SWAP2 AND SWAP1 PUSH32 0x8BE0079C531659141344CD1FD0A4F28419497F9722A3DAAFE3B4186F6B6457E0 SWAP1 DUP4 SWAP1 LOG3 PUSH1 0x0 DUP1 SLOAD PUSH1 0x1 PUSH1 0x1 PUSH1 0xA0 SHL SUB NOT AND SWAP1 SSTORE JUMP JUMPDEST PUSH1 0x0 PUSH2 0xE72 PUSH2 0xE64 PUSH2 0x5B1 JUMP JUMPDEST PUSH2 0xE6C PUSH2 0x1085 JUMP JUMPDEST SWAP1 PUSH2 0x2514 JUMP JUMPDEST SWAP1 POP SWAP1 JUMP JUMPDEST PUSH2 0xE7F PUSH2 0xF9D JUMP JUMPDEST PUSH1 0x1 PUSH1 0x1 PUSH1 0xA0 SHL SUB AND CALLER PUSH1 0x1 PUSH1 0x1 PUSH1 0xA0 SHL SUB AND EQ DUP1 PUSH2 0xEA8 JUMPI POP PUSH1 0x1 SLOAD PUSH1 0x1 PUSH1 0x1 PUSH1 0xA0 SHL SUB AND CALLER EQ JUMPDEST PUSH2 0xEE4 JUMPI PUSH1 0x40 DUP1 MLOAD PUSH3 0x461BCD PUSH1 0xE5 SHL DUP2 MSTORE PUSH1 0x20 PUSH1 0x4 DUP3 ADD MSTORE PUSH1 0x8 PUSH1 0x24 DUP3 ADD MSTORE PUSH8 0x10B6B0B730B3B2B9 PUSH1 0xC1 SHL PUSH1 0x44 DUP3 ADD MSTORE SWAP1 MLOAD SWAP1 DUP2 SWAP1 SUB PUSH1 0x64 ADD SWAP1 REVERT JUMPDEST PUSH1 0x1 DUP1 SLOAD PUSH1 0x1 PUSH1 0x1 PUSH1 0xA0 SHL SUB NOT AND PUSH1 0x1 PUSH1 0x1 PUSH1 0xA0 SHL SUB SWAP3 SWAP1 SWAP3 AND SWAP2 SWAP1 SWAP2 OR SWAP1 SSTORE JUMP JUMPDEST PUSH1 0x0 DUP2 JUMP JUMPDEST PUSH2 0xF13 PUSH2 0xF9D JUMP JUMPDEST PUSH1 0x1 PUSH1 0x1 PUSH1 0xA0 SHL SUB AND CALLER PUSH1 0x1 PUSH1 0x1 PUSH1 0xA0 SHL SUB AND EQ DUP1 PUSH2 0xF3C JUMPI POP PUSH1 0x1 SLOAD PUSH1 0x1 PUSH1 0x1 PUSH1 0xA0 SHL SUB AND CALLER EQ JUMPDEST PUSH2 0xF78 JUMPI PUSH1 0x40 DUP1 MLOAD PUSH3 0x461BCD PUSH1 0xE5 SHL DUP2 MSTORE PUSH1 0x20 PUSH1 0x4 DUP3 ADD MSTORE PUSH1 0x8 PUSH1 0x24 DUP3 ADD MSTORE PUSH8 0x10B6B0B730B3B2B9 PUSH1 0xC1 SHL PUSH1 0x44 DUP3 ADD MSTORE SWAP1 MLOAD SWAP1 DUP2 SWAP1 SUB PUSH1 0x64 ADD SWAP1 REVERT JUMPDEST PUSH2 0xF80 PUSH2 0x256E JUMP JUMPDEST PUSH2 0xA5A PUSH2 0x25F7 JUMP JUMPDEST PUSH1 0xD SLOAD PUSH1 0x1 PUSH1 0x1 PUSH1 0xA0 SHL SUB AND DUP2 JUMP JUMPDEST PUSH1 0x6 SLOAD DUP2 JUMP JUMPDEST PUSH1 0x0 SLOAD PUSH1 0x1 PUSH1 0x1 PUSH1 0xA0 SHL SUB AND SWAP1 JUMP JUMPDEST PUSH1 0x7 SLOAD DUP2 JUMP JUMPDEST PUSH2 0xFBA PUSH2 0xF9D JUMP JUMPDEST PUSH1 0x1 PUSH1 0x1 PUSH1 0xA0 SHL SUB AND CALLER PUSH1 0x1 PUSH1 0x1 PUSH1 0xA0 SHL SUB AND EQ DUP1 PUSH2 0xFE3 JUMPI POP PUSH1 0x1 SLOAD PUSH1 0x1 PUSH1 0x1 PUSH1 0xA0 SHL SUB AND CALLER EQ JUMPDEST PUSH2 0x101F JUMPI PUSH1 0x40 DUP1 MLOAD PUSH3 0x461BCD PUSH1 0xE5 SHL DUP2 MSTORE PUSH1 0x20 PUSH1 0x4 DUP3 ADD MSTORE PUSH1 0x8 PUSH1 0x24 DUP3 ADD MSTORE PUSH8 0x10B6B0B730B3B2B9 PUSH1 0xC1 SHL PUSH1 0x44 DUP3 ADD MSTORE SWAP1 MLOAD SWAP1 DUP2 SWAP1 SUB PUSH1 0x64 ADD SWAP1 REVERT JUMPDEST PUSH1 0x32 DUP2 GT ISZERO PUSH2 0x105E JUMPI PUSH1 0x40 DUP1 MLOAD PUSH3 0x461BCD PUSH1 0xE5 SHL DUP2 MSTORE PUSH1 0x20 PUSH1 0x4 DUP1 DUP4 ADD SWAP2 SWAP1 SWAP2 MSTORE PUSH1 0x24 DUP3 ADD MSTORE PUSH4 0x2163617 PUSH1 0xE4 SHL PUSH1 0x44 DUP3 ADD MSTORE SWAP1 MLOAD SWAP1 DUP2 SWAP1 SUB PUSH1 0x64 ADD SWAP1 REVERT JUMPDEST PUSH1 0x6 SSTORE JUMP JUMPDEST PUSH1 0x1 SLOAD PUSH1 0x1 PUSH1 0x1 PUSH1 0xA0 SHL SUB AND DUP2 JUMP JUMPDEST PUSH2 0x3E8 DUP2 JUMP JUMPDEST PUSH1 0x10 DUP2 DUP2 SLOAD DUP2 LT PUSH2 0x597 JUMPI INVALID JUMPDEST PUSH1 0xB SLOAD PUSH1 0x40 DUP1 MLOAD PUSH4 0x70A08231 PUSH1 0xE0 SHL DUP2 MSTORE ADDRESS PUSH1 0x4 DUP3 ADD MSTORE SWAP1 MLOAD PUSH1 0x0 SWAP3 PUSH1 0x1 PUSH1 0x1 PUSH1 0xA0 SHL SUB AND SWAP2 PUSH4 0x70A08231 SWAP2 PUSH1 0x24 DUP1 DUP4 ADD SWAP3 PUSH1 0x20 SWAP3 SWAP2 SWAP1 DUP3 SWAP1 SUB ADD DUP2 DUP7 DUP1 EXTCODESIZE ISZERO DUP1 ISZERO PUSH2 0x10D0 JUMPI PUSH1 0x0 DUP1 REVERT JUMPDEST POP GAS STATICCALL ISZERO DUP1 ISZERO PUSH2 0x10E4 JUMPI RETURNDATASIZE PUSH1 0x0 DUP1 RETURNDATACOPY RETURNDATASIZE PUSH1 0x0 REVERT JUMPDEST POP POP POP POP PUSH1 0x40 MLOAD RETURNDATASIZE PUSH1 0x20 DUP2 LT ISZERO PUSH2 0x10FA JUMPI PUSH1 0x0 DUP1 REVERT JUMPDEST POP MLOAD SWAP1 POP SWAP1 JUMP JUMPDEST PUSH1 0x2 SLOAD PUSH1 0x1 PUSH1 0x1 PUSH1 0xA0 SHL SUB AND CALLER EQ PUSH2 0x114E JUMPI PUSH1 0x40 DUP1 MLOAD PUSH3 0x461BCD PUSH1 0xE5 SHL DUP2 MSTORE PUSH1 0x20 PUSH1 0x4 DUP3 ADD MSTORE PUSH1 0xB PUSH1 0x24 DUP3 ADD MSTORE PUSH11 0x85CDD1C985D1959DA5CDD PUSH1 0xAA SHL PUSH1 0x44 DUP3 ADD MSTORE SWAP1 MLOAD SWAP1 DUP2 SWAP1 SUB PUSH1 0x64 ADD SWAP1 REVERT JUMPDEST PUSH1 0x2 DUP1 SLOAD PUSH1 0x1 PUSH1 0x1 PUSH1 0xA0 SHL SUB NOT AND PUSH1 0x1 PUSH1 0x1 PUSH1 0xA0 SHL SUB SWAP3 SWAP1 SWAP3 AND SWAP2 SWAP1 SWAP2 OR SWAP1 SSTORE JUMP JUMPDEST PUSH2 0x1178 PUSH2 0xC84 JUMP JUMPDEST ISZERO PUSH2 0x11BD JUMPI PUSH1 0x40 DUP1 MLOAD PUSH3 0x461BCD PUSH1 0xE5 SHL DUP2 MSTORE PUSH1 0x20 PUSH1 0x4 DUP3 ADD MSTORE PUSH1 0x10 PUSH1 0x24 DUP3 ADD MSTORE PUSH16 0x14185D5CD8589B194E881C185D5CD959 PUSH1 0x82 SHL PUSH1 0x44 DUP3 ADD MSTORE SWAP1 MLOAD SWAP1 DUP2 SWAP1 SUB PUSH1 0x64 ADD SWAP1 REVERT JUMPDEST PUSH1 0xB SLOAD PUSH1 0x40 DUP1 MLOAD PUSH4 0x70A08231 PUSH1 0xE0 SHL DUP2 MSTORE ADDRESS PUSH1 0x4 DUP3 ADD MSTORE SWAP1 MLOAD PUSH1 0x0 SWAP3 PUSH1 0x1 PUSH1 0x1 PUSH1 0xA0 SHL SUB AND SWAP2 PUSH4 0x70A08231 SWAP2 PUSH1 0x24 DUP1 DUP4 ADD SWAP3 PUSH1 0x20 SWAP3 SWAP2 SWAP1 DUP3 SWAP1 SUB ADD DUP2 DUP7 DUP1 EXTCODESIZE ISZERO DUP1 ISZERO PUSH2 0x1208 JUMPI PUSH1 0x0 DUP1 REVERT JUMPDEST POP GAS STATICCALL ISZERO DUP1 ISZERO PUSH2 0x121C JUMPI RETURNDATASIZE PUSH1 0x0 DUP1 RETURNDATACOPY RETURNDATASIZE PUSH1 0x0 REVERT JUMPDEST POP POP POP POP PUSH1 0x40 MLOAD RETURNDATASIZE PUSH1 0x20 DUP2 LT ISZERO PUSH2 0x1232 JUMPI PUSH1 0x0 DUP1 REVERT JUMPDEST POP MLOAD SWAP1 POP DUP1 ISZERO PUSH2 0x12B2 JUMPI PUSH1 0xE SLOAD PUSH1 0xF SLOAD PUSH1 0x40 DUP1 MLOAD PUSH4 0x8DBDBE6D PUSH1 0xE0 SHL DUP2 MSTORE PUSH1 0x4 DUP2 ADD SWAP3 SWAP1 SWAP3 MSTORE PUSH1 0x24 DUP3 ADD DUP5 SWAP1 MSTORE ADDRESS PUSH1 0x44 DUP4 ADD MSTORE MLOAD PUSH1 0x1 PUSH1 0x1 PUSH1 0xA0 SHL SUB SWAP1 SWAP3 AND SWAP2 PUSH4 0x8DBDBE6D SWAP2 PUSH1 0x64 DUP1 DUP3 ADD SWAP3 PUSH1 0x0 SWAP3 SWAP1 SWAP2 SWAP1 DUP3 SWAP1 SUB ADD DUP2 DUP4 DUP8 DUP1 EXTCODESIZE ISZERO DUP1 ISZERO PUSH2 0x1299 JUMPI PUSH1 0x0 DUP1 REVERT JUMPDEST POP GAS CALL ISZERO DUP1 ISZERO PUSH2 0x12AD JUMPI RETURNDATASIZE PUSH1 0x0 DUP1 RETURNDATACOPY RETURNDATASIZE PUSH1 0x0 REVERT JUMPDEST POP POP POP POP JUMPDEST POP JUMP JUMPDEST PUSH2 0x12BD PUSH2 0x2510 JUMP JUMPDEST PUSH1 0x1 PUSH1 0x1 PUSH1 0xA0 SHL SUB AND PUSH2 0x12CE PUSH2 0xF9D JUMP JUMPDEST PUSH1 0x1 PUSH1 0x1 PUSH1 0xA0 SHL SUB AND EQ PUSH2 0x1317 JUMPI PUSH1 0x40 DUP1 MLOAD PUSH3 0x461BCD PUSH1 0xE5 SHL DUP2 MSTORE PUSH1 0x20 PUSH1 0x4 DUP3 ADD DUP2 SWAP1 MSTORE PUSH1 0x24 DUP3 ADD MSTORE PUSH1 0x0 DUP1 MLOAD PUSH1 0x20 PUSH2 0x29B2 DUP4 CODECOPY DUP2 MLOAD SWAP2 MSTORE PUSH1 0x44 DUP3 ADD MSTORE SWAP1 MLOAD SWAP1 DUP2 SWAP1 SUB PUSH1 0x64 ADD SWAP1 REVERT JUMPDEST PUSH1 0x3 DUP1 SLOAD PUSH1 0x1 PUSH1 0x1 PUSH1 0xA0 SHL SUB NOT AND PUSH1 0x1 PUSH1 0x1 PUSH1 0xA0 SHL SUB SWAP3 SWAP1 SWAP3 AND SWAP2 SWAP1 SWAP2 OR SWAP1 SSTORE JUMP JUMPDEST PUSH1 0x32 DUP2 JUMP JUMPDEST PUSH1 0x5 SLOAD PUSH1 0x1 PUSH1 0x1 PUSH1 0xA0 SHL SUB AND DUP2 JUMP JUMPDEST PUSH1 0xA SLOAD PUSH1 0x1 PUSH1 0x1 PUSH1 0xA0 SHL SUB AND DUP2 JUMP JUMPDEST PUSH2 0x1364 PUSH2 0x2510 JUMP JUMPDEST PUSH1 0x1 PUSH1 0x1 PUSH1 0xA0 SHL SUB AND PUSH2 0x1375 PUSH2 0xF9D JUMP JUMPDEST PUSH1 0x1 PUSH1 0x1 PUSH1 0xA0 SHL SUB AND EQ PUSH2 0x13BE JUMPI PUSH1 0x40 DUP1 MLOAD PUSH3 0x461BCD PUSH1 0xE5 SHL DUP2 MSTORE PUSH1 0x20 PUSH1 0x4 DUP3 ADD DUP2 SWAP1 MSTORE PUSH1 0x24 DUP3 ADD MSTORE PUSH1 0x0 DUP1 MLOAD PUSH1 0x20 PUSH2 0x29B2 DUP4 CODECOPY DUP2 MLOAD SWAP2 MSTORE PUSH1 0x44 DUP3 ADD MSTORE SWAP1 MLOAD SWAP1 DUP2 SWAP1 SUB PUSH1 0x64 ADD SWAP1 REVERT JUMPDEST PUSH1 0x1 PUSH1 0x1 PUSH1 0xA0 SHL SUB DUP2 AND PUSH2 0x1403 JUMPI PUSH1 0x40 MLOAD PUSH3 0x461BCD PUSH1 0xE5 SHL DUP2 MSTORE PUSH1 0x4 ADD DUP1 DUP1 PUSH1 0x20 ADD DUP3 DUP2 SUB DUP3 MSTORE PUSH1 0x26 DUP2 MSTORE PUSH1 0x20 ADD DUP1 PUSH2 0x2945 PUSH1 0x26 SWAP2 CODECOPY PUSH1 0x40 ADD SWAP2 POP POP PUSH1 0x40 MLOAD DUP1 SWAP2 SUB SWAP1 REVERT JUMPDEST PUSH1 0x0 DUP1 SLOAD PUSH1 0x40 MLOAD PUSH1 0x1 PUSH1 0x1 PUSH1 0xA0 SHL SUB DUP1 DUP6 AND SWAP4 SWAP3 AND SWAP2 PUSH32 0x8BE0079C531659141344CD1FD0A4F28419497F9722A3DAAFE3B4186F6B6457E0 SWAP2 LOG3 PUSH1 0x0 DUP1 SLOAD PUSH1 0x1 PUSH1 0x1 PUSH1 0xA0 SHL SUB NOT AND PUSH1 0x1 PUSH1 0x1 PUSH1 0xA0 SHL SUB SWAP3 SWAP1 SWAP3 AND SWAP2 SWAP1 SWAP2 OR SWAP1 SSTORE JUMP JUMPDEST PUSH1 0x4 SLOAD PUSH1 0x1 PUSH1 0x1 PUSH1 0xA0 SHL SUB AND CALLER EQ PUSH2 0x14A6 JUMPI PUSH1 0x40 DUP1 MLOAD PUSH3 0x461BCD PUSH1 0xE5 SHL DUP2 MSTORE PUSH1 0x20 PUSH1 0x4 DUP3 ADD MSTORE PUSH1 0x6 PUSH1 0x24 DUP3 ADD MSTORE PUSH6 0x85D985D5B1D PUSH1 0xD2 SHL PUSH1 0x44 DUP3 ADD MSTORE SWAP1 MLOAD SWAP1 DUP2 SWAP1 SUB PUSH1 0x64 ADD SWAP1 REVERT JUMPDEST PUSH1 0xE SLOAD PUSH1 0xF SLOAD PUSH1 0x40 DUP1 MLOAD PUSH4 0x2F940C7 PUSH1 0xE4 SHL DUP2 MSTORE PUSH1 0x4 DUP2 ADD SWAP3 SWAP1 SWAP3 MSTORE ADDRESS PUSH1 0x24 DUP4 ADD MSTORE MLOAD PUSH1 0x1 PUSH1 0x1 PUSH1 0xA0 SHL SUB SWAP1 SWAP3 AND SWAP2 PUSH4 0x2F940C70 SWAP2 PUSH1 0x44 DUP1 DUP3 ADD SWAP3 PUSH1 0x0 SWAP3 SWAP1 SWAP2 SWAP1 DUP3 SWAP1 SUB ADD DUP2 DUP4 DUP8 DUP1 EXTCODESIZE ISZERO DUP1 ISZERO PUSH2 0x14FC JUMPI PUSH1 0x0 DUP1 REVERT JUMPDEST POP GAS CALL ISZERO DUP1 ISZERO PUSH2 0x1510 JUMPI RETURNDATASIZE PUSH1 0x0 DUP1 RETURNDATACOPY RETURNDATASIZE PUSH1 0x0 REVERT JUMPDEST POP POP PUSH1 0xB SLOAD PUSH1 0x40 DUP1 MLOAD PUSH4 0x70A08231 PUSH1 0xE0 SHL DUP2 MSTORE ADDRESS PUSH1 0x4 DUP3 ADD MSTORE SWAP1 MLOAD PUSH1 0x0 SWAP5 POP PUSH1 0x1 PUSH1 0x1 PUSH1 0xA0 SHL SUB SWAP1 SWAP3 AND SWAP3 POP PUSH4 0x70A08231 SWAP2 PUSH1 0x24 DUP1 DUP4 ADD SWAP3 PUSH1 0x20 SWAP3 SWAP2 SWAP1 DUP3 SWAP1 SUB ADD DUP2 DUP7 DUP1 EXTCODESIZE ISZERO DUP1 ISZERO PUSH2 0x1561 JUMPI PUSH1 0x0 DUP1 REVERT JUMPDEST POP GAS STATICCALL ISZERO DUP1 ISZERO PUSH2 0x1575 JUMPI RETURNDATASIZE PUSH1 0x0 DUP1 RETURNDATACOPY RETURNDATASIZE PUSH1 0x0 REVERT JUMPDEST POP POP POP POP PUSH1 0x40 MLOAD RETURNDATASIZE PUSH1 0x20 DUP2 LT ISZERO PUSH2 0x158B JUMPI PUSH1 0x0 DUP1 REVERT JUMPDEST POP MLOAD PUSH1 0xB SLOAD PUSH1 0x4 DUP1 SLOAD PUSH1 0x40 DUP1 MLOAD PUSH4 0xA9059CBB PUSH1 0xE0 SHL DUP2 MSTORE PUSH1 0x1 PUSH1 0x1 PUSH1 0xA0 SHL SUB SWAP3 DUP4 AND SWAP4 DUP2 ADD SWAP4 SWAP1 SWAP4 MSTORE PUSH1 0x24 DUP4 ADD DUP6 SWAP1 MSTORE MLOAD SWAP4 SWAP5 POP SWAP1 SWAP2 AND SWAP2 PUSH4 0xA9059CBB SWAP2 PUSH1 0x44 DUP1 DUP3 ADD SWAP3 PUSH1 0x20 SWAP3 SWAP1 SWAP2 SWAP1 DUP3 SWAP1 SUB ADD DUP2 PUSH1 0x0 DUP8 DUP1 EXTCODESIZE ISZERO DUP1 ISZERO PUSH2 0x15EB JUMPI PUSH1 0x0 DUP1 REVERT JUMPDEST POP GAS CALL ISZERO DUP1 ISZERO PUSH2 0x15FF JUMPI RETURNDATASIZE PUSH1 0x0 DUP1 RETURNDATACOPY RETURNDATASIZE PUSH1 0x0 REVERT JUMPDEST POP POP POP POP PUSH1 0x40 MLOAD RETURNDATASIZE PUSH1 0x20 DUP2 LT ISZERO PUSH2 0x9BC JUMPI PUSH1 0x0 DUP1 REVERT JUMPDEST PUSH1 0x4 SLOAD PUSH1 0x1 PUSH1 0x1 PUSH1 0xA0 SHL SUB AND DUP2 JUMP JUMPDEST PUSH1 0x8 SLOAD DUP2 JUMP JUMPDEST PUSH1 0x13 DUP2 DUP2 SLOAD DUP2 LT PUSH2 0x597 JUMPI INVALID JUMPDEST DUP1 ISZERO DUP1 PUSH2 0x16BD JUMPI POP PUSH1 0x40 DUP1 MLOAD PUSH4 0x6EB1769F PUSH1 0xE1 SHL DUP2 MSTORE ADDRESS PUSH1 0x4 DUP3 ADD MSTORE PUSH1 0x1 PUSH1 0x1 PUSH1 0xA0 SHL SUB DUP5 DUP2 AND PUSH1 0x24 DUP4 ADD MSTORE SWAP2 MLOAD SWAP2 DUP6 AND SWAP2 PUSH4 0xDD62ED3E SWAP2 PUSH1 0x44 DUP1 DUP3 ADD SWAP3 PUSH1 0x20 SWAP3 SWAP1 SWAP2 SWAP1 DUP3 SWAP1 SUB ADD DUP2 DUP7 DUP1 EXTCODESIZE ISZERO DUP1 ISZERO PUSH2 0x168F JUMPI PUSH1 0x0 DUP1 REVERT JUMPDEST POP GAS STATICCALL ISZERO DUP1 ISZERO PUSH2 0x16A3 JUMPI RETURNDATASIZE PUSH1 0x0 DUP1 RETURNDATACOPY RETURNDATASIZE PUSH1 0x0 REVERT JUMPDEST POP POP POP POP PUSH1 0x40 MLOAD RETURNDATASIZE PUSH1 0x20 DUP2 LT ISZERO PUSH2 0x16B9 JUMPI PUSH1 0x0 DUP1 REVERT JUMPDEST POP MLOAD ISZERO JUMPDEST PUSH2 0x16F8 JUMPI PUSH1 0x40 MLOAD PUSH3 0x461BCD PUSH1 0xE5 SHL DUP2 MSTORE PUSH1 0x4 ADD DUP1 DUP1 PUSH1 0x20 ADD DUP3 DUP2 SUB DUP3 MSTORE PUSH1 0x36 DUP2 MSTORE PUSH1 0x20 ADD DUP1 PUSH2 0x29FC PUSH1 0x36 SWAP2 CODECOPY PUSH1 0x40 ADD SWAP2 POP POP PUSH1 0x40 MLOAD DUP1 SWAP2 SUB SWAP1 REVERT JUMPDEST PUSH1 0x40 DUP1 MLOAD PUSH1 0x1 PUSH1 0x1 PUSH1 0xA0 SHL SUB DUP5 AND PUSH1 0x24 DUP3 ADD MSTORE PUSH1 0x44 DUP1 DUP3 ADD DUP5 SWAP1 MSTORE DUP3 MLOAD DUP1 DUP4 SUB SWAP1 SWAP2 ADD DUP2 MSTORE PUSH1 0x64 SWAP1 SWAP2 ADD SWAP1 SWAP2 MSTORE PUSH1 0x20 DUP2 ADD DUP1 MLOAD PUSH1 0x1 PUSH1 0x1 PUSH1 0xE0 SHL SUB AND PUSH4 0x95EA7B3 PUSH1 0xE0 SHL OR SWAP1 MSTORE PUSH2 0x9BC SWAP1 DUP5 SWAP1 PUSH2 0x268D JUMP JUMPDEST PUSH1 0x60 PUSH2 0x1759 DUP5 DUP5 PUSH1 0x0 DUP6 PUSH2 0x273E JUMP JUMPDEST SWAP1 POP JUMPDEST SWAP4 SWAP3 POP POP POP JUMP JUMPDEST PUSH1 0x0 DUP3 DUP3 GT ISZERO PUSH2 0x17BA JUMPI PUSH1 0x40 DUP1 MLOAD PUSH3 0x461BCD PUSH1 0xE5 SHL DUP2 MSTORE PUSH1 0x20 PUSH1 0x4 DUP3 ADD MSTORE PUSH1 0x1E PUSH1 0x24 DUP3 ADD MSTORE PUSH32 0x536166654D6174683A207375627472616374696F6E206F766572666C6F770000 PUSH1 0x44 DUP3 ADD MSTORE SWAP1 MLOAD SWAP1 DUP2 SWAP1 SUB PUSH1 0x64 ADD SWAP1 REVERT JUMPDEST POP DUP1 DUP3 SUB JUMPDEST SWAP3 SWAP2 POP POP JUMP JUMPDEST PUSH1 0x40 DUP1 MLOAD PUSH1 0x1 PUSH1 0x1 PUSH1 0xA0 SHL SUB DUP5 AND PUSH1 0x24 DUP3 ADD MSTORE PUSH1 0x44 DUP1 DUP3 ADD DUP5 SWAP1 MSTORE DUP3 MLOAD DUP1 DUP4 SUB SWAP1 SWAP2 ADD DUP2 MSTORE PUSH1 0x64 SWAP1 SWAP2 ADD SWAP1 SWAP2 MSTORE PUSH1 0x20 DUP2 ADD DUP1 MLOAD PUSH1 0x1 PUSH1 0x1 PUSH1 0xE0 SHL SUB AND PUSH4 0xA9059CBB PUSH1 0xE0 SHL OR SWAP1 MSTORE PUSH2 0x9BC SWAP1 DUP5 SWAP1 PUSH2 0x268D JUMP JUMPDEST PUSH1 0x0 DUP3 PUSH2 0x1826 JUMPI POP PUSH1 0x0 PUSH2 0x17BF JUMP JUMPDEST DUP3 DUP3 MUL DUP3 DUP5 DUP3 DUP2 PUSH2 0x1833 JUMPI INVALID JUMPDEST DIV EQ PUSH2 0x175C JUMPI PUSH1 0x40 MLOAD PUSH3 0x461BCD PUSH1 0xE5 SHL DUP2 MSTORE PUSH1 0x4 ADD DUP1 DUP1 PUSH1 0x20 ADD DUP3 DUP2 SUB DUP3 MSTORE PUSH1 0x21 DUP2 MSTORE PUSH1 0x20 ADD DUP1 PUSH2 0x2991 PUSH1 0x21 SWAP2 CODECOPY PUSH1 0x40 ADD SWAP2 POP POP PUSH1 0x40 MLOAD DUP1 SWAP2 SUB SWAP1 REVERT JUMPDEST PUSH1 0x0 DUP1 DUP3 GT PUSH2 0x18C6 JUMPI PUSH1 0x40 DUP1 MLOAD PUSH3 0x461BCD PUSH1 0xE5 SHL DUP2 MSTORE PUSH1 0x20 PUSH1 0x4 DUP3 ADD MSTORE PUSH1 0x1A PUSH1 0x24 DUP3 ADD MSTORE PUSH32 0x536166654D6174683A206469766973696F6E206279207A65726F000000000000 PUSH1 0x44 DUP3 ADD MSTORE SWAP1 MLOAD SWAP1 DUP2 SWAP1 SUB PUSH1 0x64 ADD SWAP1 REVERT JUMPDEST DUP2 DUP4 DUP2 PUSH2 0x18CF JUMPI INVALID JUMPDEST DIV SWAP4 SWAP3 POP POP POP JUMP JUMPDEST PUSH2 0x18DF PUSH2 0xC84 JUMP JUMPDEST PUSH2 0x1927 JUMPI PUSH1 0x40 DUP1 MLOAD PUSH3 0x461BCD PUSH1 0xE5 SHL DUP2 MSTORE PUSH1 0x20 PUSH1 0x4 DUP3 ADD MSTORE PUSH1 0x14 PUSH1 0x24 DUP3 ADD MSTORE PUSH20 0x14185D5CD8589B194E881B9BDD081C185D5CD959 PUSH1 0x62 SHL PUSH1 0x44 DUP3 ADD MSTORE SWAP1 MLOAD SWAP1 DUP2 SWAP1 SUB PUSH1 0x64 ADD SWAP1 REVERT JUMPDEST PUSH1 0x0 DUP1 SLOAD PUSH1 0xFF PUSH1 0xA0 SHL NOT AND SWAP1 SSTORE PUSH32 0x5DB9EE0A495BF2E6FF9C91A7834C1BA4FDD244A5E8AA4E537BD38AEAE4B073AA PUSH2 0x195D PUSH2 0x2510 JUMP JUMPDEST PUSH1 0x40 DUP1 MLOAD PUSH1 0x1 PUSH1 0x1 PUSH1 0xA0 SHL SUB SWAP1 SWAP3 AND DUP3 MSTORE MLOAD SWAP1 DUP2 SWAP1 SUB PUSH1 0x20 ADD SWAP1 LOG1 JUMP JUMPDEST PUSH1 0xE SLOAD PUSH1 0xB SLOAD PUSH2 0x1999 SWAP2 PUSH1 0x1 PUSH1 0x1 PUSH1 0xA0 SHL SUB SWAP2 DUP3 AND SWAP2 AND PUSH1 0x0 NOT PUSH2 0x1637 JUMP JUMPDEST PUSH1 0x3 SLOAD PUSH1 0xA SLOAD PUSH2 0x19B8 SWAP2 PUSH1 0x1 PUSH1 0x1 PUSH1 0xA0 SHL SUB SWAP2 DUP3 AND SWAP2 AND PUSH1 0x0 NOT PUSH2 0x1637 JUMP JUMPDEST PUSH1 0x3 SLOAD PUSH1 0x9 SLOAD PUSH2 0x19D7 SWAP2 PUSH1 0x1 PUSH1 0x1 PUSH1 0xA0 SHL SUB SWAP2 DUP3 AND SWAP2 AND PUSH1 0x0 NOT PUSH2 0x1637 JUMP JUMPDEST PUSH1 0x3 SLOAD PUSH1 0xC SLOAD PUSH2 0x19F5 SWAP2 PUSH1 0x1 PUSH1 0x1 PUSH1 0xA0 SHL SUB SWAP2 DUP3 AND SWAP2 AND PUSH1 0x0 PUSH2 0x1637 JUMP JUMPDEST PUSH1 0x3 SLOAD PUSH1 0xC SLOAD PUSH2 0x1A14 SWAP2 PUSH1 0x1 PUSH1 0x1 PUSH1 0xA0 SHL SUB SWAP2 DUP3 AND SWAP2 AND PUSH1 0x0 NOT PUSH2 0x1637 JUMP JUMPDEST PUSH1 0x3 SLOAD PUSH1 0xD SLOAD PUSH2 0x1A32 SWAP2 PUSH1 0x1 PUSH1 0x1 PUSH1 0xA0 SHL SUB SWAP2 DUP3 AND SWAP2 AND PUSH1 0x0 PUSH2 0x1637 JUMP JUMPDEST PUSH1 0x3 SLOAD PUSH1 0xD SLOAD PUSH2 0xA5A SWAP2 PUSH1 0x1 PUSH1 0x1 PUSH1 0xA0 SHL SUB SWAP2 DUP3 AND SWAP2 AND PUSH1 0x0 NOT PUSH2 0x1637 JUMP JUMPDEST PUSH1 0x9 SLOAD PUSH1 0x40 DUP1 MLOAD PUSH4 0x70A08231 PUSH1 0xE0 SHL DUP2 MSTORE ADDRESS PUSH1 0x4 DUP3 ADD MSTORE SWAP1 MLOAD PUSH1 0x0 SWAP3 PUSH1 0x1 PUSH1 0x1 PUSH1 0xA0 SHL SUB AND SWAP2 PUSH4 0x70A08231 SWAP2 PUSH1 0x24 DUP1 DUP4 ADD SWAP3 PUSH1 0x20 SWAP3 SWAP2 SWAP1 DUP3 SWAP1 SUB ADD DUP2 DUP7 DUP1 EXTCODESIZE ISZERO DUP1 ISZERO PUSH2 0x1A9C JUMPI PUSH1 0x0 DUP1 REVERT JUMPDEST POP GAS STATICCALL ISZERO DUP1 ISZERO PUSH2 0x1AB0 JUMPI RETURNDATASIZE PUSH1 0x0 DUP1 RETURNDATACOPY RETURNDATASIZE PUSH1 0x0 REVERT JUMPDEST POP POP POP POP PUSH1 0x40 MLOAD RETURNDATASIZE PUSH1 0x20 DUP2 LT ISZERO PUSH2 0x1AC6 JUMPI PUSH1 0x0 DUP1 REVERT JUMPDEST POP MLOAD SWAP1 POP DUP1 ISZERO PUSH2 0x1C57 JUMPI PUSH1 0x3 SLOAD PUSH1 0x40 MLOAD PUSH4 0x38ED1739 PUSH1 0xE0 SHL DUP2 MSTORE PUSH1 0x4 DUP2 ADD DUP4 DUP2 MSTORE PUSH1 0x0 PUSH1 0x24 DUP4 ADD DUP2 SWAP1 MSTORE ADDRESS PUSH1 0x64 DUP5 ADD DUP2 SWAP1 MSTORE TIMESTAMP PUSH1 0x84 DUP6 ADD DUP2 SWAP1 MSTORE PUSH1 0xA0 PUSH1 0x44 DUP7 ADD SWAP1 DUP2 MSTORE PUSH1 0x11 DUP1 SLOAD PUSH1 0xA4 DUP9 ADD DUP2 SWAP1 MSTORE PUSH1 0x1 PUSH1 0x1 PUSH1 0xA0 SHL SUB SWAP1 SWAP9 AND SWAP8 PUSH4 0x38ED1739 SWAP8 DUP11 SWAP8 SWAP3 SWAP6 SWAP5 SWAP4 SWAP2 PUSH1 0xC4 SWAP1 SWAP2 ADD SWAP1 DUP7 SWAP1 DUP1 ISZERO PUSH2 0x1B6A JUMPI PUSH1 0x20 MUL DUP3 ADD SWAP2 SWAP1 PUSH1 0x0 MSTORE PUSH1 0x20 PUSH1 0x0 KECCAK256 SWAP1 JUMPDEST DUP2 SLOAD PUSH1 0x1 PUSH1 0x1 PUSH1 0xA0 SHL SUB AND DUP2 MSTORE PUSH1 0x1 SWAP1 SWAP2 ADD SWAP1 PUSH1 0x20 ADD DUP1 DUP4 GT PUSH2 0x1B4C JUMPI JUMPDEST POP POP SWAP7 POP POP POP POP POP POP POP PUSH1 0x0 PUSH1 0x40 MLOAD DUP1 DUP4 SUB DUP2 PUSH1 0x0 DUP8 DUP1 EXTCODESIZE ISZERO DUP1 ISZERO PUSH2 0x1B8E JUMPI PUSH1 0x0 DUP1 REVERT JUMPDEST POP GAS CALL ISZERO DUP1 ISZERO PUSH2 0x1BA2 JUMPI RETURNDATASIZE PUSH1 0x0 DUP1 RETURNDATACOPY RETURNDATASIZE PUSH1 0x0 REVERT JUMPDEST POP POP POP POP PUSH1 0x40 MLOAD RETURNDATASIZE PUSH1 0x0 DUP3 RETURNDATACOPY PUSH1 0x1F RETURNDATASIZE SWAP1 DUP2 ADD PUSH1 0x1F NOT AND DUP3 ADD PUSH1 0x40 MSTORE PUSH1 0x20 DUP2 LT ISZERO PUSH2 0x1BCB JUMPI PUSH1 0x0 DUP1 REVERT JUMPDEST DUP2 ADD SWAP1 DUP1 DUP1 MLOAD PUSH1 0x40 MLOAD SWAP4 SWAP3 SWAP2 SWAP1 DUP5 PUSH1 0x1 PUSH1 0x20 SHL DUP3 GT ISZERO PUSH2 0x1BEA JUMPI PUSH1 0x0 DUP1 REVERT JUMPDEST SWAP1 DUP4 ADD SWAP1 PUSH1 0x20 DUP3 ADD DUP6 DUP2 GT ISZERO PUSH2 0x1BFF JUMPI PUSH1 0x0 DUP1 REVERT JUMPDEST DUP3 MLOAD DUP7 PUSH1 0x20 DUP3 MUL DUP4 ADD GT PUSH1 0x1 PUSH1 0x20 SHL DUP3 GT OR ISZERO PUSH2 0x1C1B JUMPI PUSH1 0x0 DUP1 REVERT JUMPDEST DUP3 MSTORE POP DUP2 MLOAD PUSH1 0x20 SWAP2 DUP3 ADD SWAP3 DUP3 ADD SWAP2 MUL DUP1 DUP4 DUP4 PUSH1 0x0 JUMPDEST DUP4 DUP2 LT ISZERO PUSH2 0x1C48 JUMPI DUP2 DUP2 ADD MLOAD DUP4 DUP3 ADD MSTORE PUSH1 0x20 ADD PUSH2 0x1C30 JUMP JUMPDEST POP POP POP POP SWAP1 POP ADD PUSH1 0x40 MSTORE POP POP POP POP JUMPDEST PUSH1 0xA SLOAD PUSH1 0x40 DUP1 MLOAD PUSH4 0x70A08231 PUSH1 0xE0 SHL DUP2 MSTORE ADDRESS PUSH1 0x4 DUP3 ADD MSTORE SWAP1 MLOAD PUSH1 0x0 SWAP3 PUSH2 0x1CE6 SWAP3 PUSH2 0x3E8 SWAP3 PUSH2 0x986 SWAP3 PUSH1 0x1E SWAP3 PUSH1 0x1 PUSH1 0x1 PUSH1 0xA0 SHL SUB SWAP1 SWAP2 AND SWAP2 PUSH4 0x70A08231 SWAP2 PUSH1 0x24 DUP1 DUP3 ADD SWAP3 PUSH1 0x20 SWAP3 SWAP1 SWAP2 SWAP1 DUP3 SWAP1 SUB ADD DUP2 DUP7 DUP1 EXTCODESIZE ISZERO DUP1 ISZERO PUSH2 0x1CB4 JUMPI PUSH1 0x0 DUP1 REVERT JUMPDEST POP GAS STATICCALL ISZERO DUP1 ISZERO PUSH2 0x1CC8 JUMPI RETURNDATASIZE PUSH1 0x0 DUP1 RETURNDATACOPY RETURNDATASIZE PUSH1 0x0 REVERT JUMPDEST POP POP POP POP PUSH1 0x40 MLOAD RETURNDATASIZE PUSH1 0x20 DUP2 LT ISZERO PUSH2 0x1CDE JUMPI PUSH1 0x0 DUP1 REVERT JUMPDEST POP MLOAD SWAP1 PUSH2 0x1817 JUMP JUMPDEST SWAP1 POP PUSH1 0x3 PUSH1 0x0 SWAP1 SLOAD SWAP1 PUSH2 0x100 EXP SWAP1 DIV PUSH1 0x1 PUSH1 0x1 PUSH1 0xA0 SHL SUB AND PUSH1 0x1 PUSH1 0x1 PUSH1 0xA0 SHL SUB AND PUSH4 0x38ED1739 DUP3 PUSH1 0x0 PUSH1 0x10 ADDRESS TIMESTAMP PUSH1 0x40 MLOAD DUP7 PUSH4 0xFFFFFFFF AND PUSH1 0xE0 SHL DUP2 MSTORE PUSH1 0x4 ADD DUP1 DUP7 DUP2 MSTORE PUSH1 0x20 ADD DUP6 DUP2 MSTORE PUSH1 0x20 ADD DUP1 PUSH1 0x20 ADD DUP5 PUSH1 0x1 PUSH1 0x1 PUSH1 0xA0 SHL SUB AND DUP2 MSTORE PUSH1 0x20 ADD DUP4 DUP2 MSTORE PUSH1 0x20 ADD DUP3 DUP2 SUB DUP3 MSTORE DUP6 DUP2 DUP2 SLOAD DUP2 MSTORE PUSH1 0x20 ADD SWAP2 POP DUP1 SLOAD DUP1 ISZERO PUSH2 0x1D92 JUMPI PUSH1 0x20 MUL DUP3 ADD SWAP2 SWAP1 PUSH1 0x0 MSTORE PUSH1 0x20 PUSH1 0x0 KECCAK256 SWAP1 JUMPDEST DUP2 SLOAD PUSH1 0x1 PUSH1 0x1 PUSH1 0xA0 SHL SUB AND DUP2 MSTORE PUSH1 0x1 SWAP1 SWAP2 ADD SWAP1 PUSH1 0x20 ADD DUP1 DUP4 GT PUSH2 0x1D74 JUMPI JUMPDEST POP POP SWAP7 POP POP POP POP POP POP POP PUSH1 0x0 PUSH1 0x40 MLOAD DUP1 DUP4 SUB DUP2 PUSH1 0x0 DUP8 DUP1 EXTCODESIZE ISZERO DUP1 ISZERO PUSH2 0x1DB6 JUMPI PUSH1 0x0 DUP1 REVERT JUMPDEST POP GAS CALL ISZERO DUP1 ISZERO PUSH2 0x1DCA JUMPI RETURNDATASIZE PUSH1 0x0 DUP1 RETURNDATACOPY RETURNDATASIZE PUSH1 0x0 REVERT JUMPDEST POP POP POP POP PUSH1 0x40 MLOAD RETURNDATASIZE PUSH1 0x0 DUP3 RETURNDATACOPY PUSH1 0x1F RETURNDATASIZE SWAP1 DUP2 ADD PUSH1 0x1F NOT AND DUP3 ADD PUSH1 0x40 MSTORE PUSH1 0x20 DUP2 LT ISZERO PUSH2 0x1DF3 JUMPI PUSH1 0x0 DUP1 REVERT JUMPDEST DUP2 ADD SWAP1 DUP1 DUP1 MLOAD PUSH1 0x40 MLOAD SWAP4 SWAP3 SWAP2 SWAP1 DUP5 PUSH1 0x1 PUSH1 0x20 SHL DUP3 GT ISZERO PUSH2 0x1E12 JUMPI PUSH1 0x0 DUP1 REVERT JUMPDEST SWAP1 DUP4 ADD SWAP1 PUSH1 0x20 DUP3 ADD DUP6 DUP2 GT ISZERO PUSH2 0x1E27 JUMPI PUSH1 0x0 DUP1 REVERT JUMPDEST DUP3 MLOAD DUP7 PUSH1 0x20 DUP3 MUL DUP4 ADD GT PUSH1 0x1 PUSH1 0x20 SHL DUP3 GT OR ISZERO PUSH2 0x1E43 JUMPI PUSH1 0x0 DUP1 REVERT JUMPDEST DUP3 MSTORE POP DUP2 MLOAD PUSH1 0x20 SWAP2 DUP3 ADD SWAP3 DUP3 ADD SWAP2 MUL DUP1 DUP4 DUP4 PUSH1 0x0 JUMPDEST DUP4 DUP2 LT ISZERO PUSH2 0x1E70 JUMPI DUP2 DUP2 ADD MLOAD DUP4 DUP3 ADD MSTORE PUSH1 0x20 ADD PUSH2 0x1E58 JUMP JUMPDEST POP POP POP POP SWAP2 SWAP1 SWAP2 ADD PUSH1 0x40 DUP2 DUP2 MSTORE PUSH1 0x9 SLOAD PUSH4 0x70A08231 PUSH1 0xE0 SHL DUP4 MSTORE ADDRESS PUSH1 0x4 DUP5 ADD MSTORE SWAP1 MLOAD PUSH1 0x0 SWAP8 POP PUSH1 0x1 PUSH1 0x1 PUSH1 0xA0 SHL SUB SWAP1 SWAP2 AND SWAP6 POP PUSH4 0x70A08231 SWAP5 POP PUSH1 0x24 DUP1 DUP4 ADD SWAP5 POP PUSH1 0x20 SWAP4 POP SWAP1 SWAP2 DUP3 SWAP1 SUB ADD DUP2 DUP7 DUP1 EXTCODESIZE ISZERO DUP1 ISZERO PUSH2 0x1ECB JUMPI PUSH1 0x0 DUP1 REVERT JUMPDEST POP GAS STATICCALL ISZERO DUP1 ISZERO PUSH2 0x1EDF JUMPI RETURNDATASIZE PUSH1 0x0 DUP1 RETURNDATACOPY RETURNDATASIZE PUSH1 0x0 REVERT JUMPDEST POP POP POP POP PUSH1 0x40 MLOAD RETURNDATASIZE PUSH1 0x20 DUP2 LT ISZERO PUSH2 0x1EF5 JUMPI PUSH1 0x0 DUP1 REVERT JUMPDEST POP MLOAD PUSH1 0x7 SLOAD SWAP1 SWAP2 POP PUSH1 0x0 SWAP1 PUSH2 0x1F13 SWAP1 PUSH2 0x3E8 SWAP1 PUSH2 0x986 SWAP1 DUP6 SWAP1 PUSH2 0x1817 JUMP JUMPDEST PUSH1 0x9 SLOAD SWAP1 SWAP2 POP PUSH2 0x1F2D SWAP1 PUSH1 0x1 PUSH1 0x1 PUSH1 0xA0 SHL SUB AND CALLER DUP4 PUSH2 0x17C5 JUMP JUMPDEST PUSH1 0x0 PUSH2 0x1F4A PUSH2 0x3E8 PUSH2 0x986 PUSH1 0x8 SLOAD DUP7 PUSH2 0x1817 SWAP1 SWAP2 SWAP1 PUSH4 0xFFFFFFFF AND JUMP JUMPDEST PUSH1 0x5 SLOAD PUSH1 0x9 SLOAD SWAP2 SWAP3 POP PUSH2 0x1F6A SWAP2 PUSH1 0x1 PUSH1 0x1 PUSH1 0xA0 SHL SUB SWAP1 DUP2 AND SWAP2 AND DUP4 PUSH2 0x17C5 JUMP JUMPDEST PUSH1 0x0 PUSH2 0x1F7C PUSH2 0x3E8 PUSH2 0x986 DUP7 DUP5 PUSH2 0x1817 JUMP JUMPDEST PUSH1 0x2 SLOAD PUSH1 0x9 SLOAD SWAP2 SWAP3 POP PUSH2 0x1F9C SWAP2 PUSH1 0x1 PUSH1 0x1 PUSH1 0xA0 SHL SUB SWAP1 DUP2 AND SWAP2 AND DUP4 PUSH2 0x17C5 JUMP JUMPDEST POP POP POP POP POP POP JUMP JUMPDEST PUSH1 0xA SLOAD PUSH1 0x40 DUP1 MLOAD PUSH4 0x70A08231 PUSH1 0xE0 SHL DUP2 MSTORE ADDRESS PUSH1 0x4 DUP3 ADD MSTORE SWAP1 MLOAD PUSH1 0x0 SWAP3 PUSH2 0x202B SWAP3 PUSH1 0x2 SWAP3 PUSH1 0x1 PUSH1 0x1 PUSH1 0xA0 SHL SUB SWAP1 SWAP3 AND SWAP2 PUSH4 0x70A08231 SWAP2 PUSH1 0x24 DUP1 DUP3 ADD SWAP3 PUSH1 0x20 SWAP3 SWAP1 SWAP2 SWAP1 DUP3 SWAP1 SUB ADD DUP2 DUP7 DUP1 EXTCODESIZE ISZERO DUP1 ISZERO PUSH2 0x1FF9 JUMPI PUSH1 0x0 DUP1 REVERT JUMPDEST POP GAS STATICCALL ISZERO DUP1 ISZERO PUSH2 0x200D JUMPI RETURNDATASIZE PUSH1 0x0 DUP1 RETURNDATACOPY RETURNDATASIZE PUSH1 0x0 REVERT JUMPDEST POP POP POP POP PUSH1 0x40 MLOAD RETURNDATASIZE PUSH1 0x20 DUP2 LT ISZERO PUSH2 0x2023 JUMPI PUSH1 0x0 DUP1 REVERT JUMPDEST POP MLOAD SWAP1 PUSH2 0x1870 JUMP JUMPDEST PUSH1 0xA SLOAD PUSH1 0xC SLOAD SWAP2 SWAP3 POP PUSH1 0x1 PUSH1 0x1 PUSH1 0xA0 SHL SUB SWAP2 DUP3 AND SWAP2 AND EQ PUSH2 0x21CD JUMPI PUSH1 0x3 SLOAD PUSH1 0x40 MLOAD PUSH4 0x38ED1739 PUSH1 0xE0 SHL DUP2 MSTORE PUSH1 0x4 DUP2 ADD DUP4 DUP2 MSTORE PUSH1 0x0 PUSH1 0x24 DUP4 ADD DUP2 SWAP1 MSTORE ADDRESS PUSH1 0x64 DUP5 ADD DUP2 SWAP1 MSTORE TIMESTAMP PUSH1 0x84 DUP6 ADD DUP2 SWAP1 MSTORE PUSH1 0xA0 PUSH1 0x44 DUP7 ADD SWAP1 DUP2 MSTORE PUSH1 0x12 DUP1 SLOAD PUSH1 0xA4 DUP9 ADD DUP2 SWAP1 MSTORE PUSH1 0x1 PUSH1 0x1 PUSH1 0xA0 SHL SUB SWAP1 SWAP9 AND SWAP8 PUSH4 0x38ED1739 SWAP8 DUP11 SWAP8 SWAP3 SWAP6 SWAP5 SWAP4 SWAP2 PUSH1 0xC4 SWAP1 SWAP2 ADD SWAP1 DUP7 SWAP1 DUP1 ISZERO PUSH2 0x20E0 JUMPI PUSH1 0x20 MUL DUP3 ADD SWAP2 SWAP1 PUSH1 0x0 MSTORE PUSH1 0x20 PUSH1 0x0 KECCAK256 SWAP1 JUMPDEST DUP2 SLOAD PUSH1 0x1 PUSH1 0x1 PUSH1 0xA0 SHL SUB AND DUP2 MSTORE PUSH1 0x1 SWAP1 SWAP2 ADD SWAP1 PUSH1 0x20 ADD DUP1 DUP4 GT PUSH2 0x20C2 JUMPI JUMPDEST POP POP SWAP7 POP POP POP POP POP POP POP PUSH1 0x0 PUSH1 0x40 MLOAD DUP1 DUP4 SUB DUP2 PUSH1 0x0 DUP8 DUP1 EXTCODESIZE ISZERO DUP1 ISZERO PUSH2 0x2104 JUMPI PUSH1 0x0 DUP1 REVERT JUMPDEST POP GAS CALL ISZERO DUP1 ISZERO PUSH2 0x2118 JUMPI RETURNDATASIZE PUSH1 0x0 DUP1 RETURNDATACOPY RETURNDATASIZE PUSH1 0x0 REVERT JUMPDEST POP POP POP POP PUSH1 0x40 MLOAD RETURNDATASIZE PUSH1 0x0 DUP3 RETURNDATACOPY PUSH1 0x1F RETURNDATASIZE SWAP1 DUP2 ADD PUSH1 0x1F NOT AND DUP3 ADD PUSH1 0x40 MSTORE PUSH1 0x20 DUP2 LT ISZERO PUSH2 0x2141 JUMPI PUSH1 0x0 DUP1 REVERT JUMPDEST DUP2 ADD SWAP1 DUP1 DUP1 MLOAD PUSH1 0x40 MLOAD SWAP4 SWAP3 SWAP2 SWAP1 DUP5 PUSH1 0x1 PUSH1 0x20 SHL DUP3 GT ISZERO PUSH2 0x2160 JUMPI PUSH1 0x0 DUP1 REVERT JUMPDEST SWAP1 DUP4 ADD SWAP1 PUSH1 0x20 DUP3 ADD DUP6 DUP2 GT ISZERO PUSH2 0x2175 JUMPI PUSH1 0x0 DUP1 REVERT JUMPDEST DUP3 MLOAD DUP7 PUSH1 0x20 DUP3 MUL DUP4 ADD GT PUSH1 0x1 PUSH1 0x20 SHL DUP3 GT OR ISZERO PUSH2 0x2191 JUMPI PUSH1 0x0 DUP1 REVERT JUMPDEST DUP3 MSTORE POP DUP2 MLOAD PUSH1 0x20 SWAP2 DUP3 ADD SWAP3 DUP3 ADD SWAP2 MUL DUP1 DUP4 DUP4 PUSH1 0x0 JUMPDEST DUP4 DUP2 LT ISZERO PUSH2 0x21BE JUMPI DUP2 DUP2 ADD MLOAD DUP4 DUP3 ADD MSTORE PUSH1 0x20 ADD PUSH2 0x21A6 JUMP JUMPDEST POP POP POP POP SWAP1 POP ADD PUSH1 0x40 MSTORE POP POP POP POP JUMPDEST PUSH1 0xA SLOAD PUSH1 0xD SLOAD PUSH1 0x1 PUSH1 0x1 PUSH1 0xA0 SHL SUB SWAP1 DUP2 AND SWAP2 AND EQ PUSH2 0x236C JUMPI PUSH1 0x3 SLOAD PUSH1 0x40 MLOAD PUSH4 0x38ED1739 PUSH1 0xE0 SHL DUP2 MSTORE PUSH1 0x4 DUP2 ADD DUP4 DUP2 MSTORE PUSH1 0x0 PUSH1 0x24 DUP4 ADD DUP2 SWAP1 MSTORE ADDRESS PUSH1 0x64 DUP5 ADD DUP2 SWAP1 MSTORE TIMESTAMP PUSH1 0x84 DUP6 ADD DUP2 SWAP1 MSTORE PUSH1 0xA0 PUSH1 0x44 DUP7 ADD SWAP1 DUP2 MSTORE PUSH1 0x13 DUP1 SLOAD PUSH1 0xA4 DUP9 ADD DUP2 SWAP1 MSTORE PUSH1 0x1 PUSH1 0x1 PUSH1 0xA0 SHL SUB SWAP1 SWAP9 AND SWAP8 PUSH4 0x38ED1739 SWAP8 DUP11 SWAP8 SWAP3 SWAP6 SWAP5 SWAP4 SWAP2 PUSH1 0xC4 SWAP1 SWAP2 ADD SWAP1 DUP7 SWAP1 DUP1 ISZERO PUSH2 0x227F JUMPI PUSH1 0x20 MUL DUP3 ADD SWAP2 SWAP1 PUSH1 0x0 MSTORE PUSH1 0x20 PUSH1 0x0 KECCAK256 SWAP1 JUMPDEST DUP2 SLOAD PUSH1 0x1 PUSH1 0x1 PUSH1 0xA0 SHL SUB AND DUP2 MSTORE PUSH1 0x1 SWAP1 SWAP2 ADD SWAP1 PUSH1 0x20 ADD DUP1 DUP4 GT PUSH2 0x2261 JUMPI JUMPDEST POP POP SWAP7 POP POP POP POP POP POP POP PUSH1 0x0 PUSH1 0x40 MLOAD DUP1 DUP4 SUB DUP2 PUSH1 0x0 DUP8 DUP1 EXTCODESIZE ISZERO DUP1 ISZERO PUSH2 0x22A3 JUMPI PUSH1 0x0 DUP1 REVERT JUMPDEST POP GAS CALL ISZERO DUP1 ISZERO PUSH2 0x22B7 JUMPI RETURNDATASIZE PUSH1 0x0 DUP1 RETURNDATACOPY RETURNDATASIZE PUSH1 0x0 REVERT JUMPDEST POP POP POP POP PUSH1 0x40 MLOAD RETURNDATASIZE PUSH1 0x0 DUP3 RETURNDATACOPY PUSH1 0x1F RETURNDATASIZE SWAP1 DUP2 ADD PUSH1 0x1F NOT AND DUP3 ADD PUSH1 0x40 MSTORE PUSH1 0x20 DUP2 LT ISZERO PUSH2 0x22E0 JUMPI PUSH1 0x0 DUP1 REVERT JUMPDEST DUP2 ADD SWAP1 DUP1 DUP1 MLOAD PUSH1 0x40 MLOAD SWAP4 SWAP3 SWAP2 SWAP1 DUP5 PUSH1 0x1 PUSH1 0x20 SHL DUP3 GT ISZERO PUSH2 0x22FF JUMPI PUSH1 0x0 DUP1 REVERT JUMPDEST SWAP1 DUP4 ADD SWAP1 PUSH1 0x20 DUP3 ADD DUP6 DUP2 GT ISZERO PUSH2 0x2314 JUMPI PUSH1 0x0 DUP1 REVERT JUMPDEST DUP3 MLOAD DUP7 PUSH1 0x20 DUP3 MUL DUP4 ADD GT PUSH1 0x1 PUSH1 0x20 SHL DUP3 GT OR ISZERO PUSH2 0x2330 JUMPI PUSH1 0x0 DUP1 REVERT JUMPDEST DUP3 MSTORE POP DUP2 MLOAD PUSH1 0x20 SWAP2 DUP3 ADD SWAP3 DUP3 ADD SWAP2 MUL DUP1 DUP4 DUP4 PUSH1 0x0 JUMPDEST DUP4 DUP2 LT ISZERO PUSH2 0x235D JUMPI DUP2 DUP2 ADD MLOAD DUP4 DUP3 ADD MSTORE PUSH1 0x20 ADD PUSH2 0x2345 JUMP JUMPDEST POP POP POP POP SWAP1 POP ADD PUSH1 0x40 MSTORE POP POP POP POP JUMPDEST PUSH1 0xC SLOAD PUSH1 0x40 DUP1 MLOAD PUSH4 0x70A08231 PUSH1 0xE0 SHL DUP2 MSTORE ADDRESS PUSH1 0x4 DUP3 ADD MSTORE SWAP1 MLOAD PUSH1 0x0 SWAP3 PUSH1 0x1 PUSH1 0x1 PUSH1 0xA0 SHL SUB AND SWAP2 PUSH4 0x70A08231 SWAP2 PUSH1 0x24 DUP1 DUP4 ADD SWAP3 PUSH1 0x20 SWAP3 SWAP2 SWAP1 DUP3 SWAP1 SUB ADD DUP2 DUP7 DUP1 EXTCODESIZE ISZERO DUP1 ISZERO PUSH2 0x23B7 JUMPI PUSH1 0x0 DUP1 REVERT JUMPDEST POP GAS STATICCALL ISZERO DUP1 ISZERO PUSH2 0x23CB JUMPI RETURNDATASIZE PUSH1 0x0 DUP1 RETURNDATACOPY RETURNDATASIZE PUSH1 0x0 REVERT JUMPDEST POP POP POP POP PUSH1 0x40 MLOAD RETURNDATASIZE PUSH1 0x20 DUP2 LT ISZERO PUSH2 0x23E1 JUMPI PUSH1 0x0 DUP1 REVERT JUMPDEST POP MLOAD PUSH1 0xD SLOAD PUSH1 0x40 DUP1 MLOAD PUSH4 0x70A08231 PUSH1 0xE0 SHL DUP2 MSTORE ADDRESS PUSH1 0x4 DUP3 ADD MSTORE SWAP1 MLOAD SWAP3 SWAP4 POP PUSH1 0x0 SWAP3 PUSH1 0x1 PUSH1 0x1 PUSH1 0xA0 SHL SUB SWAP1 SWAP3 AND SWAP2 PUSH4 0x70A08231 SWAP2 PUSH1 0x24 DUP1 DUP3 ADD SWAP3 PUSH1 0x20 SWAP3 SWAP1 SWAP2 SWAP1 DUP3 SWAP1 SUB ADD DUP2 DUP7 DUP1 EXTCODESIZE ISZERO DUP1 ISZERO PUSH2 0x2434 JUMPI PUSH1 0x0 DUP1 REVERT JUMPDEST POP GAS STATICCALL ISZERO DUP1 ISZERO PUSH2 0x2448 JUMPI RETURNDATASIZE PUSH1 0x0 DUP1 RETURNDATACOPY RETURNDATASIZE PUSH1 0x0 REVERT JUMPDEST POP POP POP POP PUSH1 0x40 MLOAD RETURNDATASIZE PUSH1 0x20 DUP2 LT ISZERO PUSH2 0x245E JUMPI PUSH1 0x0 DUP1 REVERT JUMPDEST POP MLOAD PUSH1 0x3 SLOAD PUSH1 0xC SLOAD PUSH1 0xD SLOAD PUSH1 0x40 DUP1 MLOAD PUSH3 0xE8E337 PUSH1 0xE8 SHL DUP2 MSTORE PUSH1 0x1 PUSH1 0x1 PUSH1 0xA0 SHL SUB SWAP4 DUP5 AND PUSH1 0x4 DUP3 ADD MSTORE SWAP2 DUP4 AND PUSH1 0x24 DUP4 ADD MSTORE PUSH1 0x44 DUP3 ADD DUP8 SWAP1 MSTORE PUSH1 0x64 DUP3 ADD DUP6 SWAP1 MSTORE PUSH1 0x1 PUSH1 0x84 DUP4 ADD DUP2 SWAP1 MSTORE PUSH1 0xA4 DUP4 ADD MSTORE ADDRESS PUSH1 0xC4 DUP4 ADD MSTORE TIMESTAMP PUSH1 0xE4 DUP4 ADD MSTORE MLOAD SWAP4 SWAP5 POP SWAP2 AND SWAP2 PUSH4 0xE8E33700 SWAP2 PUSH2 0x104 DUP1 DUP3 ADD SWAP3 PUSH1 0x60 SWAP3 SWAP1 SWAP2 SWAP1 DUP3 SWAP1 SUB ADD DUP2 PUSH1 0x0 DUP8 DUP1 EXTCODESIZE ISZERO DUP1 ISZERO PUSH2 0x24E6 JUMPI PUSH1 0x0 DUP1 REVERT JUMPDEST POP GAS CALL ISZERO DUP1 ISZERO PUSH2 0x24FA JUMPI RETURNDATASIZE PUSH1 0x0 DUP1 RETURNDATACOPY RETURNDATASIZE PUSH1 0x0 REVERT JUMPDEST POP POP POP POP PUSH1 0x40 MLOAD RETURNDATASIZE PUSH1 0x60 DUP2 LT ISZERO PUSH2 0x12AD JUMPI PUSH1 0x0 DUP1 REVERT JUMPDEST CALLER SWAP1 JUMP JUMPDEST PUSH1 0x0 DUP3 DUP3 ADD DUP4 DUP2 LT ISZERO PUSH2 0x175C JUMPI PUSH1 0x40 DUP1 MLOAD PUSH3 0x461BCD PUSH1 0xE5 SHL DUP2 MSTORE PUSH1 0x20 PUSH1 0x4 DUP3 ADD MSTORE PUSH1 0x1B PUSH1 0x24 DUP3 ADD MSTORE PUSH32 0x536166654D6174683A206164646974696F6E206F766572666C6F770000000000 PUSH1 0x44 DUP3 ADD MSTORE SWAP1 MLOAD SWAP1 DUP2 SWAP1 SUB PUSH1 0x64 ADD SWAP1 REVERT JUMPDEST PUSH2 0x2576 PUSH2 0xC84 JUMP JUMPDEST ISZERO PUSH2 0x25BB JUMPI PUSH1 0x40 DUP1 MLOAD PUSH3 0x461BCD PUSH1 0xE5 SHL DUP2 MSTORE PUSH1 0x20 PUSH1 0x4 DUP3 ADD MSTORE PUSH1 0x10 PUSH1 0x24 DUP3 ADD MSTORE PUSH16 0x14185D5CD8589B194E881C185D5CD959 PUSH1 0x82 SHL PUSH1 0x44 DUP3 ADD MSTORE SWAP1 MLOAD SWAP1 DUP2 SWAP1 SUB PUSH1 0x64 ADD SWAP1 REVERT JUMPDEST PUSH1 0x0 DUP1 SLOAD PUSH1 0xFF PUSH1 0xA0 SHL NOT AND PUSH1 0x1 PUSH1 0xA0 SHL OR SWAP1 SSTORE PUSH32 0x62E78CEA01BEE320CD4E420270B5EA74000D11B0C9F74754EBDBFC544B05A258 PUSH2 0x195D PUSH2 0x2510 JUMP JUMPDEST PUSH1 0xE SLOAD PUSH1 0xB SLOAD PUSH2 0x2615 SWAP2 PUSH1 0x1 PUSH1 0x1 PUSH1 0xA0 SHL SUB SWAP2 DUP3 AND SWAP2 AND PUSH1 0x0 PUSH2 0x1637 JUMP JUMPDEST PUSH1 0x3 SLOAD PUSH1 0xA SLOAD PUSH2 0x2633 SWAP2 PUSH1 0x1 PUSH1 0x1 PUSH1 0xA0 SHL SUB SWAP2 DUP3 AND SWAP2 AND PUSH1 0x0 PUSH2 0x1637 JUMP JUMPDEST PUSH1 0x3 SLOAD PUSH1 0x9 SLOAD PUSH2 0x2651 SWAP2 PUSH1 0x1 PUSH1 0x1 PUSH1 0xA0 SHL SUB SWAP2 DUP3 AND SWAP2 AND PUSH1 0x0 PUSH2 0x1637 JUMP JUMPDEST PUSH1 0x3 SLOAD PUSH1 0xC SLOAD PUSH2 0x266F SWAP2 PUSH1 0x1 PUSH1 0x1 PUSH1 0xA0 SHL SUB SWAP2 DUP3 AND SWAP2 AND PUSH1 0x0 PUSH2 0x1637 JUMP JUMPDEST PUSH1 0x3 SLOAD PUSH1 0xD SLOAD PUSH2 0xA5A SWAP2 PUSH1 0x1 PUSH1 0x1 PUSH1 0xA0 SHL SUB SWAP2 DUP3 AND SWAP2 AND PUSH1 0x0 PUSH2 0x1637 JUMP JUMPDEST PUSH1 0x60 PUSH2 0x26E2 DUP3 PUSH1 0x40 MLOAD DUP1 PUSH1 0x40 ADD PUSH1 0x40 MSTORE DUP1 PUSH1 0x20 DUP2 MSTORE PUSH1 0x20 ADD PUSH32 0x5361666545524332303A206C6F772D6C6576656C2063616C6C206661696C6564 DUP2 MSTORE POP DUP6 PUSH1 0x1 PUSH1 0x1 PUSH1 0xA0 SHL SUB AND PUSH2 0x174A SWAP1 SWAP3 SWAP2 SWAP1 PUSH4 0xFFFFFFFF AND JUMP JUMPDEST DUP1 MLOAD SWAP1 SWAP2 POP ISZERO PUSH2 0x9BC JUMPI DUP1 DUP1 PUSH1 0x20 ADD SWAP1 MLOAD PUSH1 0x20 DUP2 LT ISZERO PUSH2 0x2701 JUMPI PUSH1 0x0 DUP1 REVERT JUMPDEST POP MLOAD PUSH2 0x9BC JUMPI PUSH1 0x40 MLOAD PUSH3 0x461BCD PUSH1 0xE5 SHL DUP2 MSTORE PUSH1 0x4 ADD DUP1 DUP1 PUSH1 0x20 ADD DUP3 DUP2 SUB DUP3 MSTORE PUSH1 0x2A DUP2 MSTORE PUSH1 0x20 ADD DUP1 PUSH2 0x29D2 PUSH1 0x2A SWAP2 CODECOPY PUSH1 0x40 ADD SWAP2 POP POP PUSH1 0x40 MLOAD DUP1 SWAP2 SUB SWAP1 REVERT JUMPDEST PUSH1 0x60 DUP3 SELFBALANCE LT ISZERO PUSH2 0x277F JUMPI PUSH1 0x40 MLOAD PUSH3 0x461BCD PUSH1 0xE5 SHL DUP2 MSTORE PUSH1 0x4 ADD DUP1 DUP1 PUSH1 0x20 ADD DUP3 DUP2 SUB DUP3 MSTORE PUSH1 0x26 DUP2 MSTORE PUSH1 0x20 ADD DUP1 PUSH2 0x296B PUSH1 0x26 SWAP2 CODECOPY PUSH1 0x40 ADD SWAP2 POP POP PUSH1 0x40 MLOAD DUP1 SWAP2 SUB SWAP1 REVERT JUMPDEST PUSH2 0x2788 DUP6 PUSH2 0x289A JUMP JUMPDEST PUSH2 0x27D9 JUMPI PUSH1 0x40 DUP1 MLOAD PUSH3 0x461BCD PUSH1 0xE5 SHL DUP2 MSTORE PUSH1 0x20 PUSH1 0x4 DUP3 ADD MSTORE PUSH1 0x1D PUSH1 0x24 DUP3 ADD MSTORE PUSH32 0x416464726573733A2063616C6C20746F206E6F6E2D636F6E7472616374000000 PUSH1 0x44 DUP3 ADD MSTORE SWAP1 MLOAD SWAP1 DUP2 SWAP1 SUB PUSH1 0x64 ADD SWAP1 REVERT JUMPDEST PUSH1 0x0 PUSH1 0x60 DUP7 PUSH1 0x1 PUSH1 0x1 PUSH1 0xA0 SHL SUB AND DUP6 DUP8 PUSH1 0x40 MLOAD DUP1 DUP3 DUP1 MLOAD SWAP1 PUSH1 0x20 ADD SWAP1 DUP1 DUP4 DUP4 JUMPDEST PUSH1 0x20 DUP4 LT PUSH2 0x2818 JUMPI DUP1 MLOAD DUP3 MSTORE PUSH1 0x1F NOT SWAP1 SWAP3 ADD SWAP2 PUSH1 0x20 SWAP2 DUP3 ADD SWAP2 ADD PUSH2 0x27F9 JUMP JUMPDEST PUSH1 0x1 DUP4 PUSH1 0x20 SUB PUSH2 0x100 EXP SUB DUP1 NOT DUP3 MLOAD AND DUP2 DUP5 MLOAD AND DUP1 DUP3 OR DUP6 MSTORE POP POP POP POP POP POP SWAP1 POP ADD SWAP2 POP POP PUSH1 0x0 PUSH1 0x40 MLOAD DUP1 DUP4 SUB DUP2 DUP6 DUP8 GAS CALL SWAP3 POP POP POP RETURNDATASIZE DUP1 PUSH1 0x0 DUP2 EQ PUSH2 0x287A JUMPI PUSH1 0x40 MLOAD SWAP2 POP PUSH1 0x1F NOT PUSH1 0x3F RETURNDATASIZE ADD AND DUP3 ADD PUSH1 0x40 MSTORE RETURNDATASIZE DUP3 MSTORE RETURNDATASIZE PUSH1 0x0 PUSH1 0x20 DUP5 ADD RETURNDATACOPY PUSH2 0x287F JUMP JUMPDEST PUSH1 0x60 SWAP2 POP JUMPDEST POP SWAP2 POP SWAP2 POP PUSH2 0x288F DUP3 DUP3 DUP7 PUSH2 0x28A0 JUMP JUMPDEST SWAP8 SWAP7 POP POP POP POP POP POP POP JUMP JUMPDEST EXTCODESIZE ISZERO ISZERO SWAP1 JUMP JUMPDEST PUSH1 0x60 DUP4 ISZERO PUSH2 0x28AF JUMPI POP DUP2 PUSH2 0x175C JUMP JUMPDEST DUP3 MLOAD ISZERO PUSH2 0x28BF JUMPI DUP3 MLOAD DUP1 DUP5 PUSH1 0x20 ADD REVERT JUMPDEST DUP2 PUSH1 0x40 MLOAD PUSH3 0x461BCD PUSH1 0xE5 SHL DUP2 MSTORE PUSH1 0x4 ADD DUP1 DUP1 PUSH1 0x20 ADD DUP3 DUP2 SUB DUP3 MSTORE DUP4 DUP2 DUP2 MLOAD DUP2 MSTORE PUSH1 0x20 ADD SWAP2 POP DUP1 MLOAD SWAP1 PUSH1 0x20 ADD SWAP1 DUP1 DUP4 DUP4 PUSH1 0x0 JUMPDEST DUP4 DUP2 LT ISZERO PUSH2 0x2909 JUMPI DUP2 DUP2 ADD MLOAD DUP4 DUP3 ADD MSTORE PUSH1 0x20 ADD PUSH2 0x28F1 JUMP JUMPDEST POP POP POP POP SWAP1 POP SWAP1 DUP2 ADD SWAP1 PUSH1 0x1F AND DUP1 ISZERO PUSH2 0x2936 JUMPI DUP1 DUP3 SUB DUP1 MLOAD PUSH1 0x1 DUP4 PUSH1 0x20 SUB PUSH2 0x100 EXP SUB NOT AND DUP2 MSTORE PUSH1 0x20 ADD SWAP2 POP JUMPDEST POP SWAP3 POP POP POP PUSH1 0x40 MLOAD DUP1 SWAP2 SUB SWAP1 REVERT INVALID 0x4F PUSH24 0x6E61626C653A206E6577206F776E65722069732074686520 PUSH27 0x65726F2061646472657373416464726573733A20696E7375666669 PUSH4 0x69656E74 KECCAK256 PUSH3 0x616C61 PUSH15 0x636520666F722063616C6C53616665 0x4D PUSH2 0x7468 GASPRICE KECCAK256 PUSH14 0x756C7469706C69636174696F6E20 PUSH16 0x766572666C6F774F776E61626C653A20 PUSH4 0x616C6C65 PUSH19 0x206973206E6F7420746865206F776E65725361 PUSH7 0x6545524332303A KECCAK256 GASLIMIT MSTORE NUMBER ORIGIN ADDRESS KECCAK256 PUSH16 0x7065726174696F6E20646964206E6F74 KECCAK256 PUSH20 0x7563636565645361666545524332303A20617070 PUSH19 0x6F76652066726F6D206E6F6E2D7A65726F2074 PUSH16 0x206E6F6E2D7A65726F20616C6C6F7761 PUSH15 0x6365A2646970667358221220581734 SSTORE 0xC3 GT ORIGIN 0xE PUSH14 0xBE69730FF0CCAD8D22CDC8A57997 SHR 0xD2 CREATE DUP5 0xD7 SAR 0xF SWAP13 PUSH27 0x64736F6C634300060C0033416464726573733A20696E7375666669 PUSH4 0x69656E74 KECCAK256 PUSH3 0x616C61 PUSH15 0x636520666F722063616C6C53616665 GASLIMIT MSTORE NUMBER ORIGIN ADDRESS GASPRICE KECCAK256 GASLIMIT MSTORE NUMBER ORIGIN ADDRESS KECCAK256 PUSH16 0x7065726174696F6E20646964206E6F74 KECCAK256 PUSH20 0x7563636565645361666545524332303A20617070 PUSH19 0x6F76652066726F6D206E6F6E2D7A65726F2074 PUSH16 0x206E6F6E2D7A65726F20616C6C6F7761 PUSH15 0x636500000000000000000000000000 "
				},
				"gasEstimates": {
					"creation": {
						"codeDepositCost": "2171000",
						"executionCost": "infinite",
						"totalCost": "infinite"
					},
					"external": {
						"MAX_CALL_FEE()": "310",
						"MAX_FEE()": "331",
						"STRATEGIST_FEE()": "266",
						"WITHDRAWAL_FEE_CAP()": "331",
						"WITHDRAWAL_MAX()": "332",
						"balanceOf()": "infinite",
						"balanceOfPool()": "infinite",
						"balanceOfWant()": "infinite",
						"beforeDeposit()": "300",
						"callFee()": "1065",
						"chef()": "1172",
						"deposit()": "infinite",
						"evolleFee()": "1130",
						"evolleFeeRecipient()": "1192",
						"harvest()": "infinite",
						"keeper()": "1148",
						"lpToken0()": "1126",
						"lpToken1()": "1149",
						"native()": "1128",
						"nativeToOutputRoute(uint256)": "2017",
						"output()": "1081",
						"outputToLp0Route(uint256)": "2126",
						"outputToLp1Route(uint256)": "2124",
						"outputToNativeRoute(uint256)": "2125",
						"owner()": "1082",
						"panic()": "infinite",
						"pause()": "infinite",
						"paused()": "1072",
						"poolId()": "1044",
						"renounceOwnership()": "infinite",
						"retireStrat()": "infinite",
						"setCallFee(uint256)": "42068",
						"setEvolleFeeRecipient(address)": "infinite",
						"setKeeper(address)": "22867",
						"setStrategist(address)": "21980",
						"setUnirouter(address)": "infinite",
						"setVault(address)": "infinite",
						"setWithdrawalFee(uint256)": "22052",
						"strategist()": "1083",
						"transferOwnership(address)": "infinite",
						"unirouter()": "1105",
						"unpause()": "infinite",
						"vault()": "1147",
						"want()": "1150",
						"withdraw(uint256)": "infinite",
						"withdrawalFee()": "1132"
					},
					"internal": {
						"_giveAllowances()": "infinite",
						"_removeAllowances()": "infinite",
						"addLiquidity()": "infinite",
						"chargeFees()": "infinite"
					}
				},
				"methodIdentifiers": {
					"MAX_CALL_FEE()": "2ad5a53f",
					"MAX_FEE()": "bc063e1a",
					"STRATEGIST_FEE()": "7d38ca65",
					"WITHDRAWAL_FEE_CAP()": "dfbdc437",
					"WITHDRAWAL_MAX()": "54518b1a",
					"balanceOf()": "722713f7",
					"balanceOfPool()": "11588086",
					"balanceOfWant()": "c1a3d44c",
					"beforeDeposit()": "573fef0a",
					"callFee()": "90321e1a",
					"chef()": "1fc8bc5d",
					"deposit()": "d0e30db0",
					"evolleFee()": "fc61568b",
					"evolleFeeRecipient()": "e0e4130b",
					"harvest()": "4641257d",
					"keeper()": "aced1661",
					"lpToken0()": "5ee167c0",
					"lpToken1()": "877562b6",
					"native()": "11b0b42d",
					"nativeToOutputRoute(uint256)": "05200c9c",
					"output()": "f20eaeb8",
					"outputToLp0Route(uint256)": "36c6cf21",
					"outputToLp1Route(uint256)": "fd63a887",
					"outputToNativeRoute(uint256)": "be12a978",
					"owner()": "8da5cb5b",
					"panic()": "4700d305",
					"pause()": "8456cb59",
					"paused()": "5c975abb",
					"poolId()": "3e0dc34e",
					"renounceOwnership()": "715018a6",
					"retireStrat()": "fb617787",
					"setCallFee(uint256)": "26465826",
					"setEvolleFeeRecipient(address)": "5e45da42",
					"setKeeper(address)": "748747e6",
					"setStrategist(address)": "c7b9d530",
					"setUnirouter(address)": "d92f3d73",
					"setVault(address)": "6817031b",
					"setWithdrawalFee(uint256)": "ac1e5025",
					"strategist()": "1fe4a686",
					"transferOwnership(address)": "f2fde38b",
					"unirouter()": "257ae0de",
					"unpause()": "3f4ba83a",
					"vault()": "fbfa77cf",
					"want()": "1f1fcd51",
					"withdraw(uint256)": "2e1a7d4d",
					"withdrawalFee()": "8bc7e8c4"
				}
			},
			"storageLayout": {
				"storage": [
					{
						"astId": 1675,
						"contract": "strategies/StrategyMiniChefLP.sol:StrategyMiniChef",
						"label": "_owner",
						"offset": 0,
						"slot": "0",
						"type": "t_address"
					},
					{
						"astId": 1793,
						"contract": "strategies/StrategyMiniChefLP.sol:StrategyMiniChef",
						"label": "_paused",
						"offset": 20,
						"slot": "0",
						"type": "t_bool"
					},
					{
						"astId": 1874,
						"contract": "strategies/StrategyMiniChefLP.sol:StrategyMiniChef",
						"label": "keeper",
						"offset": 0,
						"slot": "1",
						"type": "t_address"
					},
					{
						"astId": 1876,
						"contract": "strategies/StrategyMiniChefLP.sol:StrategyMiniChef",
						"label": "strategist",
						"offset": 0,
						"slot": "2",
						"type": "t_address"
					},
					{
						"astId": 1878,
						"contract": "strategies/StrategyMiniChefLP.sol:StrategyMiniChef",
						"label": "unirouter",
						"offset": 0,
						"slot": "3",
						"type": "t_address"
					},
					{
						"astId": 1880,
						"contract": "strategies/StrategyMiniChefLP.sol:StrategyMiniChef",
						"label": "vault",
						"offset": 0,
						"slot": "4",
						"type": "t_address"
					},
					{
						"astId": 1882,
						"contract": "strategies/StrategyMiniChefLP.sol:StrategyMiniChef",
						"label": "evolleFeeRecipient",
						"offset": 0,
						"slot": "5",
						"type": "t_address"
					},
					{
						"astId": 2044,
						"contract": "strategies/StrategyMiniChefLP.sol:StrategyMiniChef",
						"label": "withdrawalFee",
						"offset": 0,
						"slot": "6",
						"type": "t_uint256"
					},
					{
						"astId": 2047,
						"contract": "strategies/StrategyMiniChefLP.sol:StrategyMiniChef",
						"label": "callFee",
						"offset": 0,
						"slot": "7",
						"type": "t_uint256"
					},
					{
						"astId": 2054,
						"contract": "strategies/StrategyMiniChefLP.sol:StrategyMiniChef",
						"label": "evolleFee",
						"offset": 0,
						"slot": "8",
						"type": "t_uint256"
					},
					{
						"astId": 2114,
						"contract": "strategies/StrategyMiniChefLP.sol:StrategyMiniChef",
						"label": "native",
						"offset": 0,
						"slot": "9",
						"type": "t_address"
					},
					{
						"astId": 2116,
						"contract": "strategies/StrategyMiniChefLP.sol:StrategyMiniChef",
						"label": "output",
						"offset": 0,
						"slot": "10",
						"type": "t_address"
					},
					{
						"astId": 2118,
						"contract": "strategies/StrategyMiniChefLP.sol:StrategyMiniChef",
						"label": "want",
						"offset": 0,
						"slot": "11",
						"type": "t_address"
					},
					{
						"astId": 2120,
						"contract": "strategies/StrategyMiniChefLP.sol:StrategyMiniChef",
						"label": "lpToken0",
						"offset": 0,
						"slot": "12",
						"type": "t_address"
					},
					{
						"astId": 2122,
						"contract": "strategies/StrategyMiniChefLP.sol:StrategyMiniChef",
						"label": "lpToken1",
						"offset": 0,
						"slot": "13",
						"type": "t_address"
					},
					{
						"astId": 2124,
						"contract": "strategies/StrategyMiniChefLP.sol:StrategyMiniChef",
						"label": "chef",
						"offset": 0,
						"slot": "14",
						"type": "t_address"
					},
					{
						"astId": 2126,
						"contract": "strategies/StrategyMiniChefLP.sol:StrategyMiniChef",
						"label": "poolId",
						"offset": 0,
						"slot": "15",
						"type": "t_uint256"
					},
					{
						"astId": 2129,
						"contract": "strategies/StrategyMiniChefLP.sol:StrategyMiniChef",
						"label": "outputToNativeRoute",
						"offset": 0,
						"slot": "16",
						"type": "t_array(t_address)dyn_storage"
					},
					{
						"astId": 2132,
						"contract": "strategies/StrategyMiniChefLP.sol:StrategyMiniChef",
						"label": "nativeToOutputRoute",
						"offset": 0,
						"slot": "17",
						"type": "t_array(t_address)dyn_storage"
					},
					{
						"astId": 2135,
						"contract": "strategies/StrategyMiniChefLP.sol:StrategyMiniChef",
						"label": "outputToLp0Route",
						"offset": 0,
						"slot": "18",
						"type": "t_array(t_address)dyn_storage"
					},
					{
						"astId": 2138,
						"contract": "strategies/StrategyMiniChefLP.sol:StrategyMiniChef",
						"label": "outputToLp1Route",
						"offset": 0,
						"slot": "19",
						"type": "t_array(t_address)dyn_storage"
					}
				],
				"types": {
					"t_address": {
						"encoding": "inplace",
						"label": "address",
						"numberOfBytes": "20"
					},
					"t_array(t_address)dyn_storage": {
						"base": "t_address",
						"encoding": "dynamic_array",
						"label": "address[]",
						"numberOfBytes": "32"
					},
					"t_bool": {
						"encoding": "inplace",
						"label": "bool",
						"numberOfBytes": "1"
					},
					"t_uint256": {
						"encoding": "inplace",
						"label": "uint256",
						"numberOfBytes": "32"
					}
				}
			},
			"userdoc": {
				"kind": "user",
				"methods": {},
				"version": 1
			}
		}
	}
}