{
	"strategies/StrategyMiniChefLP.sol": {
		"StratManager": {
			"abi": [
				{
					"inputs": [
						{
							"internalType": "address",
							"name": "_keeper",
							"type": "address"
						},
						{
							"internalType": "address",
							"name": "_strategist",
							"type": "address"
						},
						{
							"internalType": "address",
							"name": "_unirouter",
							"type": "address"
						},
						{
							"internalType": "address",
							"name": "_vault",
							"type": "address"
						},
						{
							"internalType": "address",
							"name": "_evolleFeeRecipient",
							"type": "address"
						}
					],
					"stateMutability": "nonpayable",
					"type": "constructor"
				},
				{
					"anonymous": false,
					"inputs": [
						{
							"indexed": true,
							"internalType": "address",
							"name": "previousOwner",
							"type": "address"
						},
						{
							"indexed": true,
							"internalType": "address",
							"name": "newOwner",
							"type": "address"
						}
					],
					"name": "OwnershipTransferred",
					"type": "event"
				},
				{
					"anonymous": false,
					"inputs": [
						{
							"indexed": false,
							"internalType": "address",
							"name": "account",
							"type": "address"
						}
					],
					"name": "Paused",
					"type": "event"
				},
				{
					"anonymous": false,
					"inputs": [
						{
							"indexed": false,
							"internalType": "address",
							"name": "account",
							"type": "address"
						}
					],
					"name": "Unpaused",
					"type": "event"
				},
				{
					"inputs": [],
					"name": "beforeDeposit",
					"outputs": [],
					"stateMutability": "nonpayable",
					"type": "function"
				},
				{
					"inputs": [],
					"name": "evolleFeeRecipient",
					"outputs": [
						{
							"internalType": "address",
							"name": "",
							"type": "address"
						}
					],
					"stateMutability": "view",
					"type": "function"
				},
				{
					"inputs": [],
					"name": "keeper",
					"outputs": [
						{
							"internalType": "address",
							"name": "",
							"type": "address"
						}
					],
					"stateMutability": "view",
					"type": "function"
				},
				{
					"inputs": [],
					"name": "owner",
					"outputs": [
						{
							"internalType": "address",
							"name": "",
							"type": "address"
						}
					],
					"stateMutability": "view",
					"type": "function"
				},
				{
					"inputs": [],
					"name": "paused",
					"outputs": [
						{
							"internalType": "bool",
							"name": "",
							"type": "bool"
						}
					],
					"stateMutability": "view",
					"type": "function"
				},
				{
					"inputs": [],
					"name": "renounceOwnership",
					"outputs": [],
					"stateMutability": "nonpayable",
					"type": "function"
				},
				{
					"inputs": [
						{
							"internalType": "address",
							"name": "_evolleFeeRecipient",
							"type": "address"
						}
					],
					"name": "setEvolleFeeRecipient",
					"outputs": [],
					"stateMutability": "nonpayable",
					"type": "function"
				},
				{
					"inputs": [
						{
							"internalType": "address",
							"name": "_keeper",
							"type": "address"
						}
					],
					"name": "setKeeper",
					"outputs": [],
					"stateMutability": "nonpayable",
					"type": "function"
				},
				{
					"inputs": [
						{
							"internalType": "address",
							"name": "_strategist",
							"type": "address"
						}
					],
					"name": "setStrategist",
					"outputs": [],
					"stateMutability": "nonpayable",
					"type": "function"
				},
				{
					"inputs": [
						{
							"internalType": "address",
							"name": "_unirouter",
							"type": "address"
						}
					],
					"name": "setUnirouter",
					"outputs": [],
					"stateMutability": "nonpayable",
					"type": "function"
				},
				{
					"inputs": [
						{
							"internalType": "address",
							"name": "_vault",
							"type": "address"
						}
					],
					"name": "setVault",
					"outputs": [],
					"stateMutability": "nonpayable",
					"type": "function"
				},
				{
					"inputs": [],
					"name": "strategist",
					"outputs": [
						{
							"internalType": "address",
							"name": "",
							"type": "address"
						}
					],
					"stateMutability": "view",
					"type": "function"
				},
				{
					"inputs": [
						{
							"internalType": "address",
							"name": "newOwner",
							"type": "address"
						}
					],
					"name": "transferOwnership",
					"outputs": [],
					"stateMutability": "nonpayable",
					"type": "function"
				},
				{
					"inputs": [],
					"name": "unirouter",
					"outputs": [
						{
							"internalType": "address",
							"name": "",
							"type": "address"
						}
					],
					"stateMutability": "view",
					"type": "function"
				},
				{
					"inputs": [],
					"name": "vault",
					"outputs": [
						{
							"internalType": "address",
							"name": "",
							"type": "address"
						}
					],
					"stateMutability": "view",
					"type": "function"
				}
			],
			"devdoc": {
				"kind": "dev",
				"methods": {
					"beforeDeposit()": {
						"details": "Function to synchronize balances before new user deposit. Can be overridden in the strategy."
					},
					"owner()": {
						"details": "Returns the address of the current owner."
					},
					"paused()": {
						"details": "Returns true if the contract is paused, and false otherwise."
					},
					"renounceOwnership()": {
						"details": "Leaves the contract without owner. It will not be possible to call `onlyOwner` functions anymore. Can only be called by the current owner. NOTE: Renouncing ownership will leave the contract without an owner, thereby removing any functionality that is only available to the owner."
					},
					"setKeeper(address)": {
						"details": "Updates address of the strat keeper.",
						"params": {
							"_keeper": "new keeper address."
						}
					},
					"setStrategist(address)": {
						"details": "Updates address where strategist fee earnings will go.",
						"params": {
							"_strategist": "new strategist address."
						}
					},
					"setUnirouter(address)": {
						"details": "Updates router that will be used for swaps.",
						"params": {
							"_unirouter": "new unirouter address."
						}
					},
					"setVault(address)": {
						"details": "Updates parent vault.",
						"params": {
							"_vault": "new vault address."
						}
					},
					"transferOwnership(address)": {
						"details": "Transfers ownership of the contract to a new account (`newOwner`). Can only be called by the current owner."
					}
				},
				"version": 1
			},
			"evm": {
				"assembly": "    /* \"strategies/StrategyMiniChefLP.sol\":40116:42216  contract StratManager is Ownable, Pausable {... */\n  mstore(0x40, 0x80)\n    /* \"strategies/StrategyMiniChefLP.sol\":40329:40670  constructor(... */\n  callvalue\n  dup1\n  iszero\n  tag_1\n  jumpi\n  0x00\n  dup1\n  revert\ntag_1:\n  pop\n  mload(0x40)\n  sub(codesize, bytecodeSize)\n  dup1\n  bytecodeSize\n  dup4\n  codecopy\n  dup2\n  dup2\n  add\n  0x40\n  mstore\n  0xa0\n  dup2\n  lt\n  iszero\n  tag_2\n  jumpi\n  0x00\n  dup1\n  revert\ntag_2:\n  pop\n  dup1\n  mload\n  0x20\n  dup3\n  add\n  mload\n  0x40\n  dup4\n  add\n  mload\n  0x60\n  dup5\n  add\n  mload\n  0x80\n  swap1\n  swap5\n  add\n  mload\n  swap3\n  swap4\n  swap2\n  swap3\n  swap1\n  swap2\n  swap1\n    /* \"strategies/StrategyMiniChefLP.sol\":36530:36547  address msgSender */\n  0x00\n    /* \"strategies/StrategyMiniChefLP.sol\":36550:36562  _msgSender() */\n  tag_7\n    /* \"strategies/StrategyMiniChefLP.sol\":36550:36560  _msgSender */\n  tag_8\n    /* \"strategies/StrategyMiniChefLP.sol\":36550:36562  _msgSender() */\n  jump\t// in\ntag_7:\n    /* \"strategies/StrategyMiniChefLP.sol\":36572:36578  _owner */\n  0x00\n    /* \"strategies/StrategyMiniChefLP.sol\":36572:36590  _owner = msgSender */\n  dup1\n  sload\n  not(sub(shl(0xa0, 0x01), 0x01))\n  and\n  sub(shl(0xa0, 0x01), 0x01)\n  dup4\n  and\n  swap1\n  dup2\n  or\n  dup3\n  sstore\n    /* \"strategies/StrategyMiniChefLP.sol\":36605:36648  OwnershipTransferred(address(0), msgSender) */\n  mload(0x40)\n    /* \"strategies/StrategyMiniChefLP.sol\":36572:36590  _owner = msgSender */\n  swap3\n  swap4\n  pop\n  swap2\n    /* \"strategies/StrategyMiniChefLP.sol\":36605:36648  OwnershipTransferred(address(0), msgSender) */\n  0x8be0079c531659141344cd1fd0a4f28419497f9722a3daafe3b4186f6b6457e0\n  swap1\n    /* \"strategies/StrategyMiniChefLP.sol\":36572:36578  _owner */\n  dup3\n  swap1\n    /* \"strategies/StrategyMiniChefLP.sol\":36605:36648  OwnershipTransferred(address(0), msgSender) */\n  log3\n  pop\n    /* \"strategies/StrategyMiniChefLP.sol\":38849:38854  false */\n  0x00\n    /* \"strategies/StrategyMiniChefLP.sol\":38839:38854  _paused = false */\n  dup1\n  sload\n  not(shl(0xa0, 0xff))\n  and\n  swap1\n  sstore\n  0x01\n    /* \"strategies/StrategyMiniChefLP.sol\":40507:40523  keeper = _keeper */\n  dup1\n  sload\n  not(sub(shl(0xa0, 0x01), 0x01))\n  swap1\n  dup2\n  and\n  sub(shl(0xa0, 0x01), 0x01)\n  swap8\n  dup9\n  and\n  or\n  swap1\n  swap2\n  sstore\n    /* \"strategies/StrategyMiniChefLP.sol\":40533:40543  strategist */\n  0x02\n    /* \"strategies/StrategyMiniChefLP.sol\":40533:40557  strategist = _strategist */\n  dup1\n  sload\n  dup3\n  and\n  swap6\n  dup8\n  and\n  swap6\n  swap1\n  swap6\n  or\n  swap1\n  swap5\n  sstore\n    /* \"strategies/StrategyMiniChefLP.sol\":40567:40576  unirouter */\n  0x03\n    /* \"strategies/StrategyMiniChefLP.sol\":40567:40589  unirouter = _unirouter */\n  dup1\n  sload\n  dup6\n  and\n  swap4\n  dup7\n  and\n  swap4\n  swap1\n  swap4\n  or\n  swap1\n  swap3\n  sstore\n    /* \"strategies/StrategyMiniChefLP.sol\":40599:40604  vault */\n  0x04\n    /* \"strategies/StrategyMiniChefLP.sol\":40599:40613  vault = _vault */\n  dup1\n  sload\n  dup5\n  and\n  swap2\n  dup6\n  and\n  swap2\n  swap1\n  swap2\n  or\n  swap1\n  sstore\n    /* \"strategies/StrategyMiniChefLP.sol\":40623:40641  evolleFeeRecipient */\n  0x05\n    /* \"strategies/StrategyMiniChefLP.sol\":40623:40663  evolleFeeRecipient = _evolleFeeRecipient */\n  dup1\n  sload\n  swap1\n  swap3\n  and\n  swap3\n  and\n  swap2\n  swap1\n  swap2\n  or\n  swap1\n  sstore\n    /* \"strategies/StrategyMiniChefLP.sol\":40116:42216  contract StratManager is Ownable, Pausable {... */\n  jump(tag_11)\n    /* \"strategies/StrategyMiniChefLP.sol\":598:702  function _msgSender() internal view virtual returns (address payable) {... */\ntag_8:\n    /* \"strategies/StrategyMiniChefLP.sol\":685:695  msg.sender */\n  caller\n    /* \"strategies/StrategyMiniChefLP.sol\":598:702  function _msgSender() internal view virtual returns (address payable) {... */\n  swap1\n  jump\t// out\n    /* \"strategies/StrategyMiniChefLP.sol\":40116:42216  contract StratManager is Ownable, Pausable {... */\ntag_11:\n  dataSize(sub_0)\n  dup1\n  dataOffset(sub_0)\n  0x00\n  codecopy\n  0x00\n  return\nstop\n\nsub_0: assembly {\n        /* \"strategies/StrategyMiniChefLP.sol\":40116:42216  contract StratManager is Ownable, Pausable {... */\n      mstore(0x40, 0x80)\n      callvalue\n      dup1\n      iszero\n      tag_1\n      jumpi\n      0x00\n      dup1\n      revert\n    tag_1:\n      pop\n      jumpi(tag_2, lt(calldatasize, 0x04))\n      shr(0xe0, calldataload(0x00))\n      dup1\n      0x748747e6\n      gt\n      tag_18\n      jumpi\n      dup1\n      0xd92f3d73\n      gt\n      tag_19\n      jumpi\n      dup1\n      0xd92f3d73\n      eq\n      tag_14\n      jumpi\n      dup1\n      0xe0e4130b\n      eq\n      tag_15\n      jumpi\n      dup1\n      0xf2fde38b\n      eq\n      tag_16\n      jumpi\n      dup1\n      0xfbfa77cf\n      eq\n      tag_17\n      jumpi\n      jump(tag_2)\n    tag_19:\n      dup1\n      0x748747e6\n      eq\n      tag_10\n      jumpi\n      dup1\n      0x8da5cb5b\n      eq\n      tag_11\n      jumpi\n      dup1\n      0xaced1661\n      eq\n      tag_12\n      jumpi\n      dup1\n      0xc7b9d530\n      eq\n      tag_13\n      jumpi\n      jump(tag_2)\n    tag_18:\n      dup1\n      0x5c975abb\n      gt\n      tag_20\n      jumpi\n      dup1\n      0x5c975abb\n      eq\n      tag_6\n      jumpi\n      dup1\n      0x5e45da42\n      eq\n      tag_7\n      jumpi\n      dup1\n      0x6817031b\n      eq\n      tag_8\n      jumpi\n      dup1\n      0x715018a6\n      eq\n      tag_9\n      jumpi\n      jump(tag_2)\n    tag_20:\n      dup1\n      0x1fe4a686\n      eq\n      tag_3\n      jumpi\n      dup1\n      0x257ae0de\n      eq\n      tag_4\n      jumpi\n      dup1\n      0x573fef0a\n      eq\n      tag_5\n      jumpi\n    tag_2:\n      0x00\n      dup1\n      revert\n        /* \"strategies/StrategyMiniChefLP.sol\":40197:40222  address public strategist */\n    tag_3:\n      tag_21\n      tag_22\n      jump\t// in\n    tag_21:\n      0x40\n      dup1\n      mload\n      sub(shl(0xa0, 0x01), 0x01)\n      swap1\n      swap3\n      and\n      dup3\n      mstore\n      mload\n      swap1\n      dup2\n      swap1\n      sub\n      0x20\n      add\n      swap1\n      return\n        /* \"strategies/StrategyMiniChefLP.sol\":40228:40252  address public unirouter */\n    tag_4:\n      tag_21\n      tag_24\n      jump\t// in\n        /* \"strategies/StrategyMiniChefLP.sol\":42170:42214  function beforeDeposit() external virtual {} */\n    tag_5:\n      tag_25\n      tag_26\n      jump\t// in\n    tag_25:\n      stop\n        /* \"strategies/StrategyMiniChefLP.sol\":38956:39040  function paused() public view virtual returns (bool) {... */\n    tag_6:\n      tag_27\n      tag_28\n      jump\t// in\n    tag_27:\n      0x40\n      dup1\n      mload\n      swap2\n      iszero\n      iszero\n      dup3\n      mstore\n      mload\n      swap1\n      dup2\n      swap1\n      sub\n      0x20\n      add\n      swap1\n      return\n        /* \"strategies/StrategyMiniChefLP.sol\":41900:42036  function setEvolleFeeRecipient(address _evolleFeeRecipient) external onlyOwner {... */\n    tag_7:\n      tag_25\n      0x04\n      dup1\n      calldatasize\n      sub\n      0x20\n      dup2\n      lt\n      iszero\n      tag_30\n      jumpi\n      0x00\n      dup1\n      revert\n    tag_30:\n      pop\n      calldataload\n      sub(shl(0xa0, 0x01), 0x01)\n      and\n      tag_31\n      jump\t// in\n        /* \"strategies/StrategyMiniChefLP.sol\":41806:41890  function setVault(address _vault) external onlyOwner {... */\n    tag_8:\n      tag_25\n      0x04\n      dup1\n      calldatasize\n      sub\n      0x20\n      dup2\n      lt\n      iszero\n      tag_33\n      jumpi\n      0x00\n      dup1\n      revert\n    tag_33:\n      pop\n      calldataload\n      sub(shl(0xa0, 0x01), 0x01)\n      and\n      tag_34\n      jump\t// in\n        /* \"strategies/StrategyMiniChefLP.sol\":37363:37508  function renounceOwnership() public virtual onlyOwner {... */\n    tag_9:\n      tag_25\n      tag_36\n      jump\t// in\n        /* \"strategies/StrategyMiniChefLP.sol\":41103:41193  function setKeeper(address _keeper) external onlyManager {... */\n    tag_10:\n      tag_25\n      0x04\n      dup1\n      calldatasize\n      sub\n      0x20\n      dup2\n      lt\n      iszero\n      tag_38\n      jumpi\n      0x00\n      dup1\n      revert\n    tag_38:\n      pop\n      calldataload\n      sub(shl(0xa0, 0x01), 0x01)\n      and\n      tag_39\n      jump\t// in\n        /* \"strategies/StrategyMiniChefLP.sol\":36731:36816  function owner() public view virtual returns (address) {... */\n    tag_11:\n      tag_21\n      tag_41\n      jump\t// in\n        /* \"strategies/StrategyMiniChefLP.sol\":40170:40191  address public keeper */\n    tag_12:\n      tag_21\n      tag_43\n      jump\t// in\n        /* \"strategies/StrategyMiniChefLP.sol\":41332:41484  function setStrategist(address _strategist) external {... */\n    tag_13:\n      tag_25\n      0x04\n      dup1\n      calldatasize\n      sub\n      0x20\n      dup2\n      lt\n      iszero\n      tag_45\n      jumpi\n      0x00\n      dup1\n      revert\n    tag_45:\n      pop\n      calldataload\n      sub(shl(0xa0, 0x01), 0x01)\n      and\n      tag_46\n      jump\t// in\n        /* \"strategies/StrategyMiniChefLP.sol\":41610:41710  function setUnirouter(address _unirouter) external onlyOwner {... */\n    tag_14:\n      tag_25\n      0x04\n      dup1\n      calldatasize\n      sub\n      0x20\n      dup2\n      lt\n      iszero\n      tag_48\n      jumpi\n      0x00\n      dup1\n      revert\n    tag_48:\n      pop\n      calldataload\n      sub(shl(0xa0, 0x01), 0x01)\n      and\n      tag_49\n      jump\t// in\n        /* \"strategies/StrategyMiniChefLP.sol\":40284:40317  address public evolleFeeRecipient */\n    tag_15:\n      tag_21\n      tag_51\n      jump\t// in\n        /* \"strategies/StrategyMiniChefLP.sol\":37657:37897  function transferOwnership(address newOwner) public virtual onlyOwner {... */\n    tag_16:\n      tag_25\n      0x04\n      dup1\n      calldatasize\n      sub\n      0x20\n      dup2\n      lt\n      iszero\n      tag_53\n      jumpi\n      0x00\n      dup1\n      revert\n    tag_53:\n      pop\n      calldataload\n      sub(shl(0xa0, 0x01), 0x01)\n      and\n      tag_54\n      jump\t// in\n        /* \"strategies/StrategyMiniChefLP.sol\":40258:40278  address public vault */\n    tag_17:\n      tag_21\n      tag_56\n      jump\t// in\n        /* \"strategies/StrategyMiniChefLP.sol\":40197:40222  address public strategist */\n    tag_22:\n      and(sub(shl(0xa0, 0x01), 0x01), sload(0x02))\n      dup2\n      jump\t// out\n        /* \"strategies/StrategyMiniChefLP.sol\":40228:40252  address public unirouter */\n    tag_24:\n      and(sub(shl(0xa0, 0x01), 0x01), sload(0x03))\n      dup2\n      jump\t// out\n        /* \"strategies/StrategyMiniChefLP.sol\":42170:42214  function beforeDeposit() external virtual {} */\n    tag_26:\n      jump\t// out\n        /* \"strategies/StrategyMiniChefLP.sol\":38956:39040  function paused() public view virtual returns (bool) {... */\n    tag_28:\n        /* \"strategies/StrategyMiniChefLP.sol\":39003:39007  bool */\n      0x00\n        /* \"strategies/StrategyMiniChefLP.sol\":39026:39033  _paused */\n      sload\n      shl(0xa0, 0x01)\n      swap1\n      div\n      0xff\n      and\n      swap1\n        /* \"strategies/StrategyMiniChefLP.sol\":38956:39040  function paused() public view virtual returns (bool) {... */\n      jump\t// out\n        /* \"strategies/StrategyMiniChefLP.sol\":41900:42036  function setEvolleFeeRecipient(address _evolleFeeRecipient) external onlyOwner {... */\n    tag_31:\n        /* \"strategies/StrategyMiniChefLP.sol\":36954:36966  _msgSender() */\n      tag_60\n        /* \"strategies/StrategyMiniChefLP.sol\":36954:36964  _msgSender */\n      tag_61\n        /* \"strategies/StrategyMiniChefLP.sol\":36954:36966  _msgSender() */\n      jump\t// in\n    tag_60:\n      sub(shl(0xa0, 0x01), 0x01)\n        /* \"strategies/StrategyMiniChefLP.sol\":36943:36966  owner() == _msgSender() */\n      and\n        /* \"strategies/StrategyMiniChefLP.sol\":36943:36950  owner() */\n      tag_62\n        /* \"strategies/StrategyMiniChefLP.sol\":36943:36948  owner */\n      tag_41\n        /* \"strategies/StrategyMiniChefLP.sol\":36943:36950  owner() */\n      jump\t// in\n    tag_62:\n      sub(shl(0xa0, 0x01), 0x01)\n        /* \"strategies/StrategyMiniChefLP.sol\":36943:36966  owner() == _msgSender() */\n      and\n      eq\n        /* \"strategies/StrategyMiniChefLP.sol\":36935:37003  require(owner() == _msgSender(), \"Ownable: caller is not the owner\") */\n      tag_63\n      jumpi\n      0x40\n      dup1\n      mload\n      shl(0xe5, 0x461bcd)\n      dup2\n      mstore\n      0x20\n      0x04\n      dup3\n      add\n      dup2\n      swap1\n      mstore\n      0x24\n      dup3\n      add\n      mstore\n      0x00\n      dup1\n      mload\n      0x20\n      data_9924ebdf1add33d25d4ef888e16131f0a5687b0580a36c21b5c301a6c462effe\n      dup4\n      codecopy\n      dup2\n      mload\n      swap2\n      mstore\n      0x44\n      dup3\n      add\n      mstore\n      swap1\n      mload\n      swap1\n      dup2\n      swap1\n      sub\n      0x64\n      add\n      swap1\n      revert\n    tag_63:\n        /* \"strategies/StrategyMiniChefLP.sol\":41989:42007  evolleFeeRecipient */\n      0x05\n        /* \"strategies/StrategyMiniChefLP.sol\":41989:42029  evolleFeeRecipient = _evolleFeeRecipient */\n      dup1\n      sload\n      not(sub(shl(0xa0, 0x01), 0x01))\n      and\n      sub(shl(0xa0, 0x01), 0x01)\n      swap3\n      swap1\n      swap3\n      and\n      swap2\n      swap1\n      swap2\n      or\n      swap1\n      sstore\n        /* \"strategies/StrategyMiniChefLP.sol\":41900:42036  function setEvolleFeeRecipient(address _evolleFeeRecipient) external onlyOwner {... */\n      jump\t// out\n        /* \"strategies/StrategyMiniChefLP.sol\":41806:41890  function setVault(address _vault) external onlyOwner {... */\n    tag_34:\n        /* \"strategies/StrategyMiniChefLP.sol\":36954:36966  _msgSender() */\n      tag_66\n        /* \"strategies/StrategyMiniChefLP.sol\":36954:36964  _msgSender */\n      tag_61\n        /* \"strategies/StrategyMiniChefLP.sol\":36954:36966  _msgSender() */\n      jump\t// in\n    tag_66:\n      sub(shl(0xa0, 0x01), 0x01)\n        /* \"strategies/StrategyMiniChefLP.sol\":36943:36966  owner() == _msgSender() */\n      and\n        /* \"strategies/StrategyMiniChefLP.sol\":36943:36950  owner() */\n      tag_67\n        /* \"strategies/StrategyMiniChefLP.sol\":36943:36948  owner */\n      tag_41\n        /* \"strategies/StrategyMiniChefLP.sol\":36943:36950  owner() */\n      jump\t// in\n    tag_67:\n      sub(shl(0xa0, 0x01), 0x01)\n        /* \"strategies/StrategyMiniChefLP.sol\":36943:36966  owner() == _msgSender() */\n      and\n      eq\n        /* \"strategies/StrategyMiniChefLP.sol\":36935:37003  require(owner() == _msgSender(), \"Ownable: caller is not the owner\") */\n      tag_68\n      jumpi\n      0x40\n      dup1\n      mload\n      shl(0xe5, 0x461bcd)\n      dup2\n      mstore\n      0x20\n      0x04\n      dup3\n      add\n      dup2\n      swap1\n      mstore\n      0x24\n      dup3\n      add\n      mstore\n      0x00\n      dup1\n      mload\n      0x20\n      data_9924ebdf1add33d25d4ef888e16131f0a5687b0580a36c21b5c301a6c462effe\n      dup4\n      codecopy\n      dup2\n      mload\n      swap2\n      mstore\n      0x44\n      dup3\n      add\n      mstore\n      swap1\n      mload\n      swap1\n      dup2\n      swap1\n      sub\n      0x64\n      add\n      swap1\n      revert\n    tag_68:\n        /* \"strategies/StrategyMiniChefLP.sol\":41869:41874  vault */\n      0x04\n        /* \"strategies/StrategyMiniChefLP.sol\":41869:41883  vault = _vault */\n      dup1\n      sload\n      not(sub(shl(0xa0, 0x01), 0x01))\n      and\n      sub(shl(0xa0, 0x01), 0x01)\n      swap3\n      swap1\n      swap3\n      and\n      swap2\n      swap1\n      swap2\n      or\n      swap1\n      sstore\n        /* \"strategies/StrategyMiniChefLP.sol\":41806:41890  function setVault(address _vault) external onlyOwner {... */\n      jump\t// out\n        /* \"strategies/StrategyMiniChefLP.sol\":37363:37508  function renounceOwnership() public virtual onlyOwner {... */\n    tag_36:\n        /* \"strategies/StrategyMiniChefLP.sol\":36954:36966  _msgSender() */\n      tag_71\n        /* \"strategies/StrategyMiniChefLP.sol\":36954:36964  _msgSender */\n      tag_61\n        /* \"strategies/StrategyMiniChefLP.sol\":36954:36966  _msgSender() */\n      jump\t// in\n    tag_71:\n      sub(shl(0xa0, 0x01), 0x01)\n        /* \"strategies/StrategyMiniChefLP.sol\":36943:36966  owner() == _msgSender() */\n      and\n        /* \"strategies/StrategyMiniChefLP.sol\":36943:36950  owner() */\n      tag_72\n        /* \"strategies/StrategyMiniChefLP.sol\":36943:36948  owner */\n      tag_41\n        /* \"strategies/StrategyMiniChefLP.sol\":36943:36950  owner() */\n      jump\t// in\n    tag_72:\n      sub(shl(0xa0, 0x01), 0x01)\n        /* \"strategies/StrategyMiniChefLP.sol\":36943:36966  owner() == _msgSender() */\n      and\n      eq\n        /* \"strategies/StrategyMiniChefLP.sol\":36935:37003  require(owner() == _msgSender(), \"Ownable: caller is not the owner\") */\n      tag_73\n      jumpi\n      0x40\n      dup1\n      mload\n      shl(0xe5, 0x461bcd)\n      dup2\n      mstore\n      0x20\n      0x04\n      dup3\n      add\n      dup2\n      swap1\n      mstore\n      0x24\n      dup3\n      add\n      mstore\n      0x00\n      dup1\n      mload\n      0x20\n      data_9924ebdf1add33d25d4ef888e16131f0a5687b0580a36c21b5c301a6c462effe\n      dup4\n      codecopy\n      dup2\n      mload\n      swap2\n      mstore\n      0x44\n      dup3\n      add\n      mstore\n      swap1\n      mload\n      swap1\n      dup2\n      swap1\n      sub\n      0x64\n      add\n      swap1\n      revert\n    tag_73:\n        /* \"strategies/StrategyMiniChefLP.sol\":37469:37470  0 */\n      0x00\n        /* \"strategies/StrategyMiniChefLP.sol\":37453:37459  _owner */\n      dup1\n      sload\n        /* \"strategies/StrategyMiniChefLP.sol\":37432:37472  OwnershipTransferred(_owner, address(0)) */\n      mload(0x40)\n      sub(shl(0xa0, 0x01), 0x01)\n        /* \"strategies/StrategyMiniChefLP.sol\":37453:37459  _owner */\n      swap1\n      swap2\n      and\n      swap1\n        /* \"strategies/StrategyMiniChefLP.sol\":37432:37472  OwnershipTransferred(_owner, address(0)) */\n      0x8be0079c531659141344cd1fd0a4f28419497f9722a3daafe3b4186f6b6457e0\n      swap1\n        /* \"strategies/StrategyMiniChefLP.sol\":37469:37470  0 */\n      dup4\n      swap1\n        /* \"strategies/StrategyMiniChefLP.sol\":37432:37472  OwnershipTransferred(_owner, address(0)) */\n      log3\n        /* \"strategies/StrategyMiniChefLP.sol\":37499:37500  0 */\n      0x00\n        /* \"strategies/StrategyMiniChefLP.sol\":37482:37501  _owner = address(0) */\n      dup1\n      sload\n      not(sub(shl(0xa0, 0x01), 0x01))\n      and\n      swap1\n      sstore\n        /* \"strategies/StrategyMiniChefLP.sol\":37363:37508  function renounceOwnership() public virtual onlyOwner {... */\n      jump\t// out\n        /* \"strategies/StrategyMiniChefLP.sol\":41103:41193  function setKeeper(address _keeper) external onlyManager {... */\n    tag_39:\n        /* \"strategies/StrategyMiniChefLP.sol\":40784:40791  owner() */\n      tag_76\n        /* \"strategies/StrategyMiniChefLP.sol\":40784:40789  owner */\n      tag_41\n        /* \"strategies/StrategyMiniChefLP.sol\":40784:40791  owner() */\n      jump\t// in\n    tag_76:\n      sub(shl(0xa0, 0x01), 0x01)\n        /* \"strategies/StrategyMiniChefLP.sol\":40770:40791  msg.sender == owner() */\n      and\n        /* \"strategies/StrategyMiniChefLP.sol\":40770:40780  msg.sender */\n      caller\n      sub(shl(0xa0, 0x01), 0x01)\n        /* \"strategies/StrategyMiniChefLP.sol\":40770:40791  msg.sender == owner() */\n      and\n      eq\n        /* \"strategies/StrategyMiniChefLP.sol\":40770:40815  msg.sender == owner() || msg.sender == keeper */\n      dup1\n      tag_77\n      jumpi\n      pop\n        /* \"strategies/StrategyMiniChefLP.sol\":40809:40815  keeper */\n      and(sub(shl(0xa0, 0x01), 0x01), sload(0x01))\n        /* \"strategies/StrategyMiniChefLP.sol\":40795:40805  msg.sender */\n      caller\n        /* \"strategies/StrategyMiniChefLP.sol\":40795:40815  msg.sender == keeper */\n      eq\n        /* \"strategies/StrategyMiniChefLP.sol\":40770:40815  msg.sender == owner() || msg.sender == keeper */\n    tag_77:\n        /* \"strategies/StrategyMiniChefLP.sol\":40762:40828  require(msg.sender == owner() || msg.sender == keeper, \"!manager\") */\n      tag_78\n      jumpi\n      0x40\n      dup1\n      mload\n      shl(0xe5, 0x461bcd)\n      dup2\n      mstore\n      0x20\n      0x04\n      dup3\n      add\n      mstore\n      0x08\n      0x24\n      dup3\n      add\n      mstore\n      shl(0xc1, 0x10b6b0b730b3b2b9)\n      0x44\n      dup3\n      add\n      mstore\n      swap1\n      mload\n      swap1\n      dup2\n      swap1\n      sub\n      0x64\n      add\n      swap1\n      revert\n    tag_78:\n        /* \"strategies/StrategyMiniChefLP.sol\":41170:41176  keeper */\n      0x01\n        /* \"strategies/StrategyMiniChefLP.sol\":41170:41186  keeper = _keeper */\n      dup1\n      sload\n      not(sub(shl(0xa0, 0x01), 0x01))\n      and\n      sub(shl(0xa0, 0x01), 0x01)\n      swap3\n      swap1\n      swap3\n      and\n      swap2\n      swap1\n      swap2\n      or\n      swap1\n      sstore\n        /* \"strategies/StrategyMiniChefLP.sol\":41103:41193  function setKeeper(address _keeper) external onlyManager {... */\n      jump\t// out\n        /* \"strategies/StrategyMiniChefLP.sol\":36731:36816  function owner() public view virtual returns (address) {... */\n    tag_41:\n        /* \"strategies/StrategyMiniChefLP.sol\":36777:36784  address */\n      0x00\n        /* \"strategies/StrategyMiniChefLP.sol\":36803:36809  _owner */\n      sload\n      sub(shl(0xa0, 0x01), 0x01)\n      and\n        /* \"strategies/StrategyMiniChefLP.sol\":36731:36816  function owner() public view virtual returns (address) {... */\n      swap1\n      jump\t// out\n        /* \"strategies/StrategyMiniChefLP.sol\":40170:40191  address public keeper */\n    tag_43:\n      and(sub(shl(0xa0, 0x01), 0x01), sload(0x01))\n      dup2\n      jump\t// out\n        /* \"strategies/StrategyMiniChefLP.sol\":41332:41484  function setStrategist(address _strategist) external {... */\n    tag_46:\n        /* \"strategies/StrategyMiniChefLP.sol\":41417:41427  strategist */\n      and(sub(shl(0xa0, 0x01), 0x01), sload(0x02))\n        /* \"strategies/StrategyMiniChefLP.sol\":41403:41413  msg.sender */\n      caller\n        /* \"strategies/StrategyMiniChefLP.sol\":41403:41427  msg.sender == strategist */\n      eq\n        /* \"strategies/StrategyMiniChefLP.sol\":41395:41443  require(msg.sender == strategist, \"!strategist\") */\n      tag_82\n      jumpi\n      0x40\n      dup1\n      mload\n      shl(0xe5, 0x461bcd)\n      dup2\n      mstore\n      0x20\n      0x04\n      dup3\n      add\n      mstore\n      0x0b\n      0x24\n      dup3\n      add\n      mstore\n      shl(0xaa, 0x085cdd1c985d1959da5cdd)\n      0x44\n      dup3\n      add\n      mstore\n      swap1\n      mload\n      swap1\n      dup2\n      swap1\n      sub\n      0x64\n      add\n      swap1\n      revert\n    tag_82:\n        /* \"strategies/StrategyMiniChefLP.sol\":41453:41463  strategist */\n      0x02\n        /* \"strategies/StrategyMiniChefLP.sol\":41453:41477  strategist = _strategist */\n      dup1\n      sload\n      not(sub(shl(0xa0, 0x01), 0x01))\n      and\n      sub(shl(0xa0, 0x01), 0x01)\n      swap3\n      swap1\n      swap3\n      and\n      swap2\n      swap1\n      swap2\n      or\n      swap1\n      sstore\n        /* \"strategies/StrategyMiniChefLP.sol\":41332:41484  function setStrategist(address _strategist) external {... */\n      jump\t// out\n        /* \"strategies/StrategyMiniChefLP.sol\":41610:41710  function setUnirouter(address _unirouter) external onlyOwner {... */\n    tag_49:\n        /* \"strategies/StrategyMiniChefLP.sol\":36954:36966  _msgSender() */\n      tag_84\n        /* \"strategies/StrategyMiniChefLP.sol\":36954:36964  _msgSender */\n      tag_61\n        /* \"strategies/StrategyMiniChefLP.sol\":36954:36966  _msgSender() */\n      jump\t// in\n    tag_84:\n      sub(shl(0xa0, 0x01), 0x01)\n        /* \"strategies/StrategyMiniChefLP.sol\":36943:36966  owner() == _msgSender() */\n      and\n        /* \"strategies/StrategyMiniChefLP.sol\":36943:36950  owner() */\n      tag_85\n        /* \"strategies/StrategyMiniChefLP.sol\":36943:36948  owner */\n      tag_41\n        /* \"strategies/StrategyMiniChefLP.sol\":36943:36950  owner() */\n      jump\t// in\n    tag_85:\n      sub(shl(0xa0, 0x01), 0x01)\n        /* \"strategies/StrategyMiniChefLP.sol\":36943:36966  owner() == _msgSender() */\n      and\n      eq\n        /* \"strategies/StrategyMiniChefLP.sol\":36935:37003  require(owner() == _msgSender(), \"Ownable: caller is not the owner\") */\n      tag_86\n      jumpi\n      0x40\n      dup1\n      mload\n      shl(0xe5, 0x461bcd)\n      dup2\n      mstore\n      0x20\n      0x04\n      dup3\n      add\n      dup2\n      swap1\n      mstore\n      0x24\n      dup3\n      add\n      mstore\n      0x00\n      dup1\n      mload\n      0x20\n      data_9924ebdf1add33d25d4ef888e16131f0a5687b0580a36c21b5c301a6c462effe\n      dup4\n      codecopy\n      dup2\n      mload\n      swap2\n      mstore\n      0x44\n      dup3\n      add\n      mstore\n      swap1\n      mload\n      swap1\n      dup2\n      swap1\n      sub\n      0x64\n      add\n      swap1\n      revert\n    tag_86:\n        /* \"strategies/StrategyMiniChefLP.sol\":41681:41690  unirouter */\n      0x03\n        /* \"strategies/StrategyMiniChefLP.sol\":41681:41703  unirouter = _unirouter */\n      dup1\n      sload\n      not(sub(shl(0xa0, 0x01), 0x01))\n      and\n      sub(shl(0xa0, 0x01), 0x01)\n      swap3\n      swap1\n      swap3\n      and\n      swap2\n      swap1\n      swap2\n      or\n      swap1\n      sstore\n        /* \"strategies/StrategyMiniChefLP.sol\":41610:41710  function setUnirouter(address _unirouter) external onlyOwner {... */\n      jump\t// out\n        /* \"strategies/StrategyMiniChefLP.sol\":40284:40317  address public evolleFeeRecipient */\n    tag_51:\n      and(sub(shl(0xa0, 0x01), 0x01), sload(0x05))\n      dup2\n      jump\t// out\n        /* \"strategies/StrategyMiniChefLP.sol\":37657:37897  function transferOwnership(address newOwner) public virtual onlyOwner {... */\n    tag_54:\n        /* \"strategies/StrategyMiniChefLP.sol\":36954:36966  _msgSender() */\n      tag_89\n        /* \"strategies/StrategyMiniChefLP.sol\":36954:36964  _msgSender */\n      tag_61\n        /* \"strategies/StrategyMiniChefLP.sol\":36954:36966  _msgSender() */\n      jump\t// in\n    tag_89:\n      sub(shl(0xa0, 0x01), 0x01)\n        /* \"strategies/StrategyMiniChefLP.sol\":36943:36966  owner() == _msgSender() */\n      and\n        /* \"strategies/StrategyMiniChefLP.sol\":36943:36950  owner() */\n      tag_90\n        /* \"strategies/StrategyMiniChefLP.sol\":36943:36948  owner */\n      tag_41\n        /* \"strategies/StrategyMiniChefLP.sol\":36943:36950  owner() */\n      jump\t// in\n    tag_90:\n      sub(shl(0xa0, 0x01), 0x01)\n        /* \"strategies/StrategyMiniChefLP.sol\":36943:36966  owner() == _msgSender() */\n      and\n      eq\n        /* \"strategies/StrategyMiniChefLP.sol\":36935:37003  require(owner() == _msgSender(), \"Ownable: caller is not the owner\") */\n      tag_91\n      jumpi\n      0x40\n      dup1\n      mload\n      shl(0xe5, 0x461bcd)\n      dup2\n      mstore\n      0x20\n      0x04\n      dup3\n      add\n      dup2\n      swap1\n      mstore\n      0x24\n      dup3\n      add\n      mstore\n      0x00\n      dup1\n      mload\n      0x20\n      data_9924ebdf1add33d25d4ef888e16131f0a5687b0580a36c21b5c301a6c462effe\n      dup4\n      codecopy\n      dup2\n      mload\n      swap2\n      mstore\n      0x44\n      dup3\n      add\n      mstore\n      swap1\n      mload\n      swap1\n      dup2\n      swap1\n      sub\n      0x64\n      add\n      swap1\n      revert\n    tag_91:\n      sub(shl(0xa0, 0x01), 0x01)\n        /* \"strategies/StrategyMiniChefLP.sol\":37745:37767  newOwner != address(0) */\n      dup2\n      and\n        /* \"strategies/StrategyMiniChefLP.sol\":37737:37810  require(newOwner != address(0), \"Ownable: new owner is the zero address\") */\n      tag_93\n      jumpi\n      mload(0x40)\n      shl(0xe5, 0x461bcd)\n      dup2\n      mstore\n      0x04\n      add\n      dup1\n      dup1\n      0x20\n      add\n      dup3\n      dup2\n      sub\n      dup3\n      mstore\n      0x26\n      dup2\n      mstore\n      0x20\n      add\n      dup1\n      data_245f15ff17f551913a7a18385165551503906a406f905ac1c2437281a7cd0cfe\n      0x26\n      swap2\n      codecopy\n      0x40\n      add\n      swap2\n      pop\n      pop\n      mload(0x40)\n      dup1\n      swap2\n      sub\n      swap1\n      revert\n    tag_93:\n        /* \"strategies/StrategyMiniChefLP.sol\":37846:37852  _owner */\n      0x00\n      dup1\n      sload\n        /* \"strategies/StrategyMiniChefLP.sol\":37825:37863  OwnershipTransferred(_owner, newOwner) */\n      mload(0x40)\n      sub(shl(0xa0, 0x01), 0x01)\n      dup1\n      dup6\n      and\n      swap4\n        /* \"strategies/StrategyMiniChefLP.sol\":37846:37852  _owner */\n      swap3\n      and\n      swap2\n        /* \"strategies/StrategyMiniChefLP.sol\":37825:37863  OwnershipTransferred(_owner, newOwner) */\n      0x8be0079c531659141344cd1fd0a4f28419497f9722a3daafe3b4186f6b6457e0\n      swap2\n      log3\n        /* \"strategies/StrategyMiniChefLP.sol\":37873:37879  _owner */\n      0x00\n        /* \"strategies/StrategyMiniChefLP.sol\":37873:37890  _owner = newOwner */\n      dup1\n      sload\n      not(sub(shl(0xa0, 0x01), 0x01))\n      and\n      sub(shl(0xa0, 0x01), 0x01)\n      swap3\n      swap1\n      swap3\n      and\n      swap2\n      swap1\n      swap2\n      or\n      swap1\n      sstore\n        /* \"strategies/StrategyMiniChefLP.sol\":37657:37897  function transferOwnership(address newOwner) public virtual onlyOwner {... */\n      jump\t// out\n        /* \"strategies/StrategyMiniChefLP.sol\":40258:40278  address public vault */\n    tag_56:\n      and(sub(shl(0xa0, 0x01), 0x01), sload(0x04))\n      dup2\n      jump\t// out\n        /* \"strategies/StrategyMiniChefLP.sol\":598:702  function _msgSender() internal view virtual returns (address payable) {... */\n    tag_61:\n        /* \"strategies/StrategyMiniChefLP.sol\":685:695  msg.sender */\n      caller\n        /* \"strategies/StrategyMiniChefLP.sol\":598:702  function _msgSender() internal view virtual returns (address payable) {... */\n      swap1\n      jump\t// out\n    stop\n    data_245f15ff17f551913a7a18385165551503906a406f905ac1c2437281a7cd0cfe 4f776e61626c653a206e6577206f776e657220697320746865207a65726f2061646472657373\n    data_9924ebdf1add33d25d4ef888e16131f0a5687b0580a36c21b5c301a6c462effe 4f776e61626c653a2063616c6c6572206973206e6f7420746865206f776e6572\n\n    auxdata: 0xa264697066735822122035fd5116e3648b6df3cc42eb33a8f9a0e902caf516b96fcec57a4fc437c2210464736f6c634300060c0033\n}\n",
				"bytecode": {
					"linkReferences": {},
					"object": "608060405234801561001057600080fd5b506040516108a43803806108a4833981810160405260a081101561003357600080fd5b50805160208201516040830151606084015160809094015192939192909190600061005c610115565b600080546001600160a01b0319166001600160a01b0383169081178255604051929350917f8be0079c531659141344cd1fd0a4f28419497f9722a3daafe3b4186f6b6457e0908290a3506000805460ff60a01b19169055600180546001600160a01b03199081166001600160a01b03978816179091556002805482169587169590951790945560038054851693861693909317909255600480548416918516919091179055600580549092169216919091179055610119565b3390565b61077c806101286000396000f3fe608060405234801561001057600080fd5b50600436106100f55760003560e01c8063748747e611610097578063d92f3d7311610066578063d92f3d73146101fc578063e0e4130b14610222578063f2fde38b1461022a578063fbfa77cf14610250576100f5565b8063748747e6146101a05780638da5cb5b146101c6578063aced1661146101ce578063c7b9d530146101d6576100f5565b80635c975abb116100d35780635c975abb146101305780635e45da421461014c5780636817031b14610172578063715018a614610198576100f5565b80631fe4a686146100fa578063257ae0de1461011e578063573fef0a14610126575b600080fd5b610102610258565b604080516001600160a01b039092168252519081900360200190f35b610102610267565b61012e610276565b005b610138610278565b604080519115158252519081900360200190f35b61012e6004803603602081101561016257600080fd5b50356001600160a01b0316610288565b61012e6004803603602081101561018857600080fd5b50356001600160a01b031661030c565b61012e610390565b61012e600480360360208110156101b657600080fd5b50356001600160a01b031661043c565b6101026104cb565b6101026104da565b61012e600480360360208110156101ec57600080fd5b50356001600160a01b03166104e9565b61012e6004803603602081101561021257600080fd5b50356001600160a01b0316610558565b6101026105dc565b61012e6004803603602081101561024057600080fd5b50356001600160a01b03166105eb565b6101026106ed565b6002546001600160a01b031681565b6003546001600160a01b031681565b565b600054600160a01b900460ff1690565b6102906106fc565b6001600160a01b03166102a16104cb565b6001600160a01b0316146102ea576040805162461bcd60e51b81526020600482018190526024820152600080516020610727833981519152604482015290519081900360640190fd5b600580546001600160a01b0319166001600160a01b0392909216919091179055565b6103146106fc565b6001600160a01b03166103256104cb565b6001600160a01b03161461036e576040805162461bcd60e51b81526020600482018190526024820152600080516020610727833981519152604482015290519081900360640190fd5b600480546001600160a01b0319166001600160a01b0392909216919091179055565b6103986106fc565b6001600160a01b03166103a96104cb565b6001600160a01b0316146103f2576040805162461bcd60e51b81526020600482018190526024820152600080516020610727833981519152604482015290519081900360640190fd5b600080546040516001600160a01b03909116907f8be0079c531659141344cd1fd0a4f28419497f9722a3daafe3b4186f6b6457e0908390a3600080546001600160a01b0319169055565b6104446104cb565b6001600160a01b0316336001600160a01b0316148061046d57506001546001600160a01b031633145b6104a9576040805162461bcd60e51b815260206004820152600860248201526710b6b0b730b3b2b960c11b604482015290519081900360640190fd5b600180546001600160a01b0319166001600160a01b0392909216919091179055565b6000546001600160a01b031690565b6001546001600160a01b031681565b6002546001600160a01b03163314610536576040805162461bcd60e51b815260206004820152600b60248201526a085cdd1c985d1959da5cdd60aa1b604482015290519081900360640190fd5b600280546001600160a01b0319166001600160a01b0392909216919091179055565b6105606106fc565b6001600160a01b03166105716104cb565b6001600160a01b0316146105ba576040805162461bcd60e51b81526020600482018190526024820152600080516020610727833981519152604482015290519081900360640190fd5b600380546001600160a01b0319166001600160a01b0392909216919091179055565b6005546001600160a01b031681565b6105f36106fc565b6001600160a01b03166106046104cb565b6001600160a01b03161461064d576040805162461bcd60e51b81526020600482018190526024820152600080516020610727833981519152604482015290519081900360640190fd5b6001600160a01b0381166106925760405162461bcd60e51b81526004018080602001828103825260268152602001806107016026913960400191505060405180910390fd5b600080546040516001600160a01b03808516939216917f8be0079c531659141344cd1fd0a4f28419497f9722a3daafe3b4186f6b6457e091a3600080546001600160a01b0319166001600160a01b0392909216919091179055565b6004546001600160a01b031681565b339056fe4f776e61626c653a206e6577206f776e657220697320746865207a65726f20616464726573734f776e61626c653a2063616c6c6572206973206e6f7420746865206f776e6572a264697066735822122035fd5116e3648b6df3cc42eb33a8f9a0e902caf516b96fcec57a4fc437c2210464736f6c634300060c0033",
					"opcodes": "PUSH1 0x80 PUSH1 0x40 MSTORE CALLVALUE DUP1 ISZERO PUSH2 0x10 JUMPI PUSH1 0x0 DUP1 REVERT JUMPDEST POP PUSH1 0x40 MLOAD PUSH2 0x8A4 CODESIZE SUB DUP1 PUSH2 0x8A4 DUP4 CODECOPY DUP2 DUP2 ADD PUSH1 0x40 MSTORE PUSH1 0xA0 DUP2 LT ISZERO PUSH2 0x33 JUMPI PUSH1 0x0 DUP1 REVERT JUMPDEST POP DUP1 MLOAD PUSH1 0x20 DUP3 ADD MLOAD PUSH1 0x40 DUP4 ADD MLOAD PUSH1 0x60 DUP5 ADD MLOAD PUSH1 0x80 SWAP1 SWAP5 ADD MLOAD SWAP3 SWAP4 SWAP2 SWAP3 SWAP1 SWAP2 SWAP1 PUSH1 0x0 PUSH2 0x5C PUSH2 0x115 JUMP JUMPDEST PUSH1 0x0 DUP1 SLOAD PUSH1 0x1 PUSH1 0x1 PUSH1 0xA0 SHL SUB NOT AND PUSH1 0x1 PUSH1 0x1 PUSH1 0xA0 SHL SUB DUP4 AND SWAP1 DUP2 OR DUP3 SSTORE PUSH1 0x40 MLOAD SWAP3 SWAP4 POP SWAP2 PUSH32 0x8BE0079C531659141344CD1FD0A4F28419497F9722A3DAAFE3B4186F6B6457E0 SWAP1 DUP3 SWAP1 LOG3 POP PUSH1 0x0 DUP1 SLOAD PUSH1 0xFF PUSH1 0xA0 SHL NOT AND SWAP1 SSTORE PUSH1 0x1 DUP1 SLOAD PUSH1 0x1 PUSH1 0x1 PUSH1 0xA0 SHL SUB NOT SWAP1 DUP2 AND PUSH1 0x1 PUSH1 0x1 PUSH1 0xA0 SHL SUB SWAP8 DUP9 AND OR SWAP1 SWAP2 SSTORE PUSH1 0x2 DUP1 SLOAD DUP3 AND SWAP6 DUP8 AND SWAP6 SWAP1 SWAP6 OR SWAP1 SWAP5 SSTORE PUSH1 0x3 DUP1 SLOAD DUP6 AND SWAP4 DUP7 AND SWAP4 SWAP1 SWAP4 OR SWAP1 SWAP3 SSTORE PUSH1 0x4 DUP1 SLOAD DUP5 AND SWAP2 DUP6 AND SWAP2 SWAP1 SWAP2 OR SWAP1 SSTORE PUSH1 0x5 DUP1 SLOAD SWAP1 SWAP3 AND SWAP3 AND SWAP2 SWAP1 SWAP2 OR SWAP1 SSTORE PUSH2 0x119 JUMP JUMPDEST CALLER SWAP1 JUMP JUMPDEST PUSH2 0x77C DUP1 PUSH2 0x128 PUSH1 0x0 CODECOPY PUSH1 0x0 RETURN INVALID PUSH1 0x80 PUSH1 0x40 MSTORE CALLVALUE DUP1 ISZERO PUSH2 0x10 JUMPI PUSH1 0x0 DUP1 REVERT JUMPDEST POP PUSH1 0x4 CALLDATASIZE LT PUSH2 0xF5 JUMPI PUSH1 0x0 CALLDATALOAD PUSH1 0xE0 SHR DUP1 PUSH4 0x748747E6 GT PUSH2 0x97 JUMPI DUP1 PUSH4 0xD92F3D73 GT PUSH2 0x66 JUMPI DUP1 PUSH4 0xD92F3D73 EQ PUSH2 0x1FC JUMPI DUP1 PUSH4 0xE0E4130B EQ PUSH2 0x222 JUMPI DUP1 PUSH4 0xF2FDE38B EQ PUSH2 0x22A JUMPI DUP1 PUSH4 0xFBFA77CF EQ PUSH2 0x250 JUMPI PUSH2 0xF5 JUMP JUMPDEST DUP1 PUSH4 0x748747E6 EQ PUSH2 0x1A0 JUMPI DUP1 PUSH4 0x8DA5CB5B EQ PUSH2 0x1C6 JUMPI DUP1 PUSH4 0xACED1661 EQ PUSH2 0x1CE JUMPI DUP1 PUSH4 0xC7B9D530 EQ PUSH2 0x1D6 JUMPI PUSH2 0xF5 JUMP JUMPDEST DUP1 PUSH4 0x5C975ABB GT PUSH2 0xD3 JUMPI DUP1 PUSH4 0x5C975ABB EQ PUSH2 0x130 JUMPI DUP1 PUSH4 0x5E45DA42 EQ PUSH2 0x14C JUMPI DUP1 PUSH4 0x6817031B EQ PUSH2 0x172 JUMPI DUP1 PUSH4 0x715018A6 EQ PUSH2 0x198 JUMPI PUSH2 0xF5 JUMP JUMPDEST DUP1 PUSH4 0x1FE4A686 EQ PUSH2 0xFA JUMPI DUP1 PUSH4 0x257AE0DE EQ PUSH2 0x11E JUMPI DUP1 PUSH4 0x573FEF0A EQ PUSH2 0x126 JUMPI JUMPDEST PUSH1 0x0 DUP1 REVERT JUMPDEST PUSH2 0x102 PUSH2 0x258 JUMP JUMPDEST PUSH1 0x40 DUP1 MLOAD PUSH1 0x1 PUSH1 0x1 PUSH1 0xA0 SHL SUB SWAP1 SWAP3 AND DUP3 MSTORE MLOAD SWAP1 DUP2 SWAP1 SUB PUSH1 0x20 ADD SWAP1 RETURN JUMPDEST PUSH2 0x102 PUSH2 0x267 JUMP JUMPDEST PUSH2 0x12E PUSH2 0x276 JUMP JUMPDEST STOP JUMPDEST PUSH2 0x138 PUSH2 0x278 JUMP JUMPDEST PUSH1 0x40 DUP1 MLOAD SWAP2 ISZERO ISZERO DUP3 MSTORE MLOAD SWAP1 DUP2 SWAP1 SUB PUSH1 0x20 ADD SWAP1 RETURN JUMPDEST PUSH2 0x12E PUSH1 0x4 DUP1 CALLDATASIZE SUB PUSH1 0x20 DUP2 LT ISZERO PUSH2 0x162 JUMPI PUSH1 0x0 DUP1 REVERT JUMPDEST POP CALLDATALOAD PUSH1 0x1 PUSH1 0x1 PUSH1 0xA0 SHL SUB AND PUSH2 0x288 JUMP JUMPDEST PUSH2 0x12E PUSH1 0x4 DUP1 CALLDATASIZE SUB PUSH1 0x20 DUP2 LT ISZERO PUSH2 0x188 JUMPI PUSH1 0x0 DUP1 REVERT JUMPDEST POP CALLDATALOAD PUSH1 0x1 PUSH1 0x1 PUSH1 0xA0 SHL SUB AND PUSH2 0x30C JUMP JUMPDEST PUSH2 0x12E PUSH2 0x390 JUMP JUMPDEST PUSH2 0x12E PUSH1 0x4 DUP1 CALLDATASIZE SUB PUSH1 0x20 DUP2 LT ISZERO PUSH2 0x1B6 JUMPI PUSH1 0x0 DUP1 REVERT JUMPDEST POP CALLDATALOAD PUSH1 0x1 PUSH1 0x1 PUSH1 0xA0 SHL SUB AND PUSH2 0x43C JUMP JUMPDEST PUSH2 0x102 PUSH2 0x4CB JUMP JUMPDEST PUSH2 0x102 PUSH2 0x4DA JUMP JUMPDEST PUSH2 0x12E PUSH1 0x4 DUP1 CALLDATASIZE SUB PUSH1 0x20 DUP2 LT ISZERO PUSH2 0x1EC JUMPI PUSH1 0x0 DUP1 REVERT JUMPDEST POP CALLDATALOAD PUSH1 0x1 PUSH1 0x1 PUSH1 0xA0 SHL SUB AND PUSH2 0x4E9 JUMP JUMPDEST PUSH2 0x12E PUSH1 0x4 DUP1 CALLDATASIZE SUB PUSH1 0x20 DUP2 LT ISZERO PUSH2 0x212 JUMPI PUSH1 0x0 DUP1 REVERT JUMPDEST POP CALLDATALOAD PUSH1 0x1 PUSH1 0x1 PUSH1 0xA0 SHL SUB AND PUSH2 0x558 JUMP JUMPDEST PUSH2 0x102 PUSH2 0x5DC JUMP JUMPDEST PUSH2 0x12E PUSH1 0x4 DUP1 CALLDATASIZE SUB PUSH1 0x20 DUP2 LT ISZERO PUSH2 0x240 JUMPI PUSH1 0x0 DUP1 REVERT JUMPDEST POP CALLDATALOAD PUSH1 0x1 PUSH1 0x1 PUSH1 0xA0 SHL SUB AND PUSH2 0x5EB JUMP JUMPDEST PUSH2 0x102 PUSH2 0x6ED JUMP JUMPDEST PUSH1 0x2 SLOAD PUSH1 0x1 PUSH1 0x1 PUSH1 0xA0 SHL SUB AND DUP2 JUMP JUMPDEST PUSH1 0x3 SLOAD PUSH1 0x1 PUSH1 0x1 PUSH1 0xA0 SHL SUB AND DUP2 JUMP JUMPDEST JUMP JUMPDEST PUSH1 0x0 SLOAD PUSH1 0x1 PUSH1 0xA0 SHL SWAP1 DIV PUSH1 0xFF AND SWAP1 JUMP JUMPDEST PUSH2 0x290 PUSH2 0x6FC JUMP JUMPDEST PUSH1 0x1 PUSH1 0x1 PUSH1 0xA0 SHL SUB AND PUSH2 0x2A1 PUSH2 0x4CB JUMP JUMPDEST PUSH1 0x1 PUSH1 0x1 PUSH1 0xA0 SHL SUB AND EQ PUSH2 0x2EA JUMPI PUSH1 0x40 DUP1 MLOAD PUSH3 0x461BCD PUSH1 0xE5 SHL DUP2 MSTORE PUSH1 0x20 PUSH1 0x4 DUP3 ADD DUP2 SWAP1 MSTORE PUSH1 0x24 DUP3 ADD MSTORE PUSH1 0x0 DUP1 MLOAD PUSH1 0x20 PUSH2 0x727 DUP4 CODECOPY DUP2 MLOAD SWAP2 MSTORE PUSH1 0x44 DUP3 ADD MSTORE SWAP1 MLOAD SWAP1 DUP2 SWAP1 SUB PUSH1 0x64 ADD SWAP1 REVERT JUMPDEST PUSH1 0x5 DUP1 SLOAD PUSH1 0x1 PUSH1 0x1 PUSH1 0xA0 SHL SUB NOT AND PUSH1 0x1 PUSH1 0x1 PUSH1 0xA0 SHL SUB SWAP3 SWAP1 SWAP3 AND SWAP2 SWAP1 SWAP2 OR SWAP1 SSTORE JUMP JUMPDEST PUSH2 0x314 PUSH2 0x6FC JUMP JUMPDEST PUSH1 0x1 PUSH1 0x1 PUSH1 0xA0 SHL SUB AND PUSH2 0x325 PUSH2 0x4CB JUMP JUMPDEST PUSH1 0x1 PUSH1 0x1 PUSH1 0xA0 SHL SUB AND EQ PUSH2 0x36E JUMPI PUSH1 0x40 DUP1 MLOAD PUSH3 0x461BCD PUSH1 0xE5 SHL DUP2 MSTORE PUSH1 0x20 PUSH1 0x4 DUP3 ADD DUP2 SWAP1 MSTORE PUSH1 0x24 DUP3 ADD MSTORE PUSH1 0x0 DUP1 MLOAD PUSH1 0x20 PUSH2 0x727 DUP4 CODECOPY DUP2 MLOAD SWAP2 MSTORE PUSH1 0x44 DUP3 ADD MSTORE SWAP1 MLOAD SWAP1 DUP2 SWAP1 SUB PUSH1 0x64 ADD SWAP1 REVERT JUMPDEST PUSH1 0x4 DUP1 SLOAD PUSH1 0x1 PUSH1 0x1 PUSH1 0xA0 SHL SUB NOT AND PUSH1 0x1 PUSH1 0x1 PUSH1 0xA0 SHL SUB SWAP3 SWAP1 SWAP3 AND SWAP2 SWAP1 SWAP2 OR SWAP1 SSTORE JUMP JUMPDEST PUSH2 0x398 PUSH2 0x6FC JUMP JUMPDEST PUSH1 0x1 PUSH1 0x1 PUSH1 0xA0 SHL SUB AND PUSH2 0x3A9 PUSH2 0x4CB JUMP JUMPDEST PUSH1 0x1 PUSH1 0x1 PUSH1 0xA0 SHL SUB AND EQ PUSH2 0x3F2 JUMPI PUSH1 0x40 DUP1 MLOAD PUSH3 0x461BCD PUSH1 0xE5 SHL DUP2 MSTORE PUSH1 0x20 PUSH1 0x4 DUP3 ADD DUP2 SWAP1 MSTORE PUSH1 0x24 DUP3 ADD MSTORE PUSH1 0x0 DUP1 MLOAD PUSH1 0x20 PUSH2 0x727 DUP4 CODECOPY DUP2 MLOAD SWAP2 MSTORE PUSH1 0x44 DUP3 ADD MSTORE SWAP1 MLOAD SWAP1 DUP2 SWAP1 SUB PUSH1 0x64 ADD SWAP1 REVERT JUMPDEST PUSH1 0x0 DUP1 SLOAD PUSH1 0x40 MLOAD PUSH1 0x1 PUSH1 0x1 PUSH1 0xA0 SHL SUB SWAP1 SWAP2 AND SWAP1 PUSH32 0x8BE0079C531659141344CD1FD0A4F28419497F9722A3DAAFE3B4186F6B6457E0 SWAP1 DUP4 SWAP1 LOG3 PUSH1 0x0 DUP1 SLOAD PUSH1 0x1 PUSH1 0x1 PUSH1 0xA0 SHL SUB NOT AND SWAP1 SSTORE JUMP JUMPDEST PUSH2 0x444 PUSH2 0x4CB JUMP JUMPDEST PUSH1 0x1 PUSH1 0x1 PUSH1 0xA0 SHL SUB AND CALLER PUSH1 0x1 PUSH1 0x1 PUSH1 0xA0 SHL SUB AND EQ DUP1 PUSH2 0x46D JUMPI POP PUSH1 0x1 SLOAD PUSH1 0x1 PUSH1 0x1 PUSH1 0xA0 SHL SUB AND CALLER EQ JUMPDEST PUSH2 0x4A9 JUMPI PUSH1 0x40 DUP1 MLOAD PUSH3 0x461BCD PUSH1 0xE5 SHL DUP2 MSTORE PUSH1 0x20 PUSH1 0x4 DUP3 ADD MSTORE PUSH1 0x8 PUSH1 0x24 DUP3 ADD MSTORE PUSH8 0x10B6B0B730B3B2B9 PUSH1 0xC1 SHL PUSH1 0x44 DUP3 ADD MSTORE SWAP1 MLOAD SWAP1 DUP2 SWAP1 SUB PUSH1 0x64 ADD SWAP1 REVERT JUMPDEST PUSH1 0x1 DUP1 SLOAD PUSH1 0x1 PUSH1 0x1 PUSH1 0xA0 SHL SUB NOT AND PUSH1 0x1 PUSH1 0x1 PUSH1 0xA0 SHL SUB SWAP3 SWAP1 SWAP3 AND SWAP2 SWAP1 SWAP2 OR SWAP1 SSTORE JUMP JUMPDEST PUSH1 0x0 SLOAD PUSH1 0x1 PUSH1 0x1 PUSH1 0xA0 SHL SUB AND SWAP1 JUMP JUMPDEST PUSH1 0x1 SLOAD PUSH1 0x1 PUSH1 0x1 PUSH1 0xA0 SHL SUB AND DUP2 JUMP JUMPDEST PUSH1 0x2 SLOAD PUSH1 0x1 PUSH1 0x1 PUSH1 0xA0 SHL SUB AND CALLER EQ PUSH2 0x536 JUMPI PUSH1 0x40 DUP1 MLOAD PUSH3 0x461BCD PUSH1 0xE5 SHL DUP2 MSTORE PUSH1 0x20 PUSH1 0x4 DUP3 ADD MSTORE PUSH1 0xB PUSH1 0x24 DUP3 ADD MSTORE PUSH11 0x85CDD1C985D1959DA5CDD PUSH1 0xAA SHL PUSH1 0x44 DUP3 ADD MSTORE SWAP1 MLOAD SWAP1 DUP2 SWAP1 SUB PUSH1 0x64 ADD SWAP1 REVERT JUMPDEST PUSH1 0x2 DUP1 SLOAD PUSH1 0x1 PUSH1 0x1 PUSH1 0xA0 SHL SUB NOT AND PUSH1 0x1 PUSH1 0x1 PUSH1 0xA0 SHL SUB SWAP3 SWAP1 SWAP3 AND SWAP2 SWAP1 SWAP2 OR SWAP1 SSTORE JUMP JUMPDEST PUSH2 0x560 PUSH2 0x6FC JUMP JUMPDEST PUSH1 0x1 PUSH1 0x1 PUSH1 0xA0 SHL SUB AND PUSH2 0x571 PUSH2 0x4CB JUMP JUMPDEST PUSH1 0x1 PUSH1 0x1 PUSH1 0xA0 SHL SUB AND EQ PUSH2 0x5BA JUMPI PUSH1 0x40 DUP1 MLOAD PUSH3 0x461BCD PUSH1 0xE5 SHL DUP2 MSTORE PUSH1 0x20 PUSH1 0x4 DUP3 ADD DUP2 SWAP1 MSTORE PUSH1 0x24 DUP3 ADD MSTORE PUSH1 0x0 DUP1 MLOAD PUSH1 0x20 PUSH2 0x727 DUP4 CODECOPY DUP2 MLOAD SWAP2 MSTORE PUSH1 0x44 DUP3 ADD MSTORE SWAP1 MLOAD SWAP1 DUP2 SWAP1 SUB PUSH1 0x64 ADD SWAP1 REVERT JUMPDEST PUSH1 0x3 DUP1 SLOAD PUSH1 0x1 PUSH1 0x1 PUSH1 0xA0 SHL SUB NOT AND PUSH1 0x1 PUSH1 0x1 PUSH1 0xA0 SHL SUB SWAP3 SWAP1 SWAP3 AND SWAP2 SWAP1 SWAP2 OR SWAP1 SSTORE JUMP JUMPDEST PUSH1 0x5 SLOAD PUSH1 0x1 PUSH1 0x1 PUSH1 0xA0 SHL SUB AND DUP2 JUMP JUMPDEST PUSH2 0x5F3 PUSH2 0x6FC JUMP JUMPDEST PUSH1 0x1 PUSH1 0x1 PUSH1 0xA0 SHL SUB AND PUSH2 0x604 PUSH2 0x4CB JUMP JUMPDEST PUSH1 0x1 PUSH1 0x1 PUSH1 0xA0 SHL SUB AND EQ PUSH2 0x64D JUMPI PUSH1 0x40 DUP1 MLOAD PUSH3 0x461BCD PUSH1 0xE5 SHL DUP2 MSTORE PUSH1 0x20 PUSH1 0x4 DUP3 ADD DUP2 SWAP1 MSTORE PUSH1 0x24 DUP3 ADD MSTORE PUSH1 0x0 DUP1 MLOAD PUSH1 0x20 PUSH2 0x727 DUP4 CODECOPY DUP2 MLOAD SWAP2 MSTORE PUSH1 0x44 DUP3 ADD MSTORE SWAP1 MLOAD SWAP1 DUP2 SWAP1 SUB PUSH1 0x64 ADD SWAP1 REVERT JUMPDEST PUSH1 0x1 PUSH1 0x1 PUSH1 0xA0 SHL SUB DUP2 AND PUSH2 0x692 JUMPI PUSH1 0x40 MLOAD PUSH3 0x461BCD PUSH1 0xE5 SHL DUP2 MSTORE PUSH1 0x4 ADD DUP1 DUP1 PUSH1 0x20 ADD DUP3 DUP2 SUB DUP3 MSTORE PUSH1 0x26 DUP2 MSTORE PUSH1 0x20 ADD DUP1 PUSH2 0x701 PUSH1 0x26 SWAP2 CODECOPY PUSH1 0x40 ADD SWAP2 POP POP PUSH1 0x40 MLOAD DUP1 SWAP2 SUB SWAP1 REVERT JUMPDEST PUSH1 0x0 DUP1 SLOAD PUSH1 0x40 MLOAD PUSH1 0x1 PUSH1 0x1 PUSH1 0xA0 SHL SUB DUP1 DUP6 AND SWAP4 SWAP3 AND SWAP2 PUSH32 0x8BE0079C531659141344CD1FD0A4F28419497F9722A3DAAFE3B4186F6B6457E0 SWAP2 LOG3 PUSH1 0x0 DUP1 SLOAD PUSH1 0x1 PUSH1 0x1 PUSH1 0xA0 SHL SUB NOT AND PUSH1 0x1 PUSH1 0x1 PUSH1 0xA0 SHL SUB SWAP3 SWAP1 SWAP3 AND SWAP2 SWAP1 SWAP2 OR SWAP1 SSTORE JUMP JUMPDEST PUSH1 0x4 SLOAD PUSH1 0x1 PUSH1 0x1 PUSH1 0xA0 SHL SUB AND DUP2 JUMP JUMPDEST CALLER SWAP1 JUMP INVALID 0x4F PUSH24 0x6E61626C653A206E6577206F776E65722069732074686520 PUSH27 0x65726F20616464726573734F776E61626C653A2063616C6C657220 PUSH10 0x73206E6F742074686520 PUSH16 0x776E6572A264697066735822122035FD MLOAD AND 0xE3 PUSH5 0x8B6DF3CC42 0xEB CALLER 0xA8 0xF9 LOG0 0xE9 MUL 0xCA CREATE2 AND 0xB9 PUSH16 0xCEC57A4FC437C2210464736F6C634300 MOD 0xC STOP CALLER "
				},
				"gasEstimates": {
					"creation": {
						"codeDepositCost": "383200",
						"executionCost": "infinite",
						"totalCost": "infinite"
					},
					"external": {
						"beforeDeposit()": "212",
						"evolleFeeRecipient()": "1081",
						"keeper()": "1104",
						"owner()": "1082",
						"paused()": "1050",
						"renounceOwnership()": "infinite",
						"setEvolleFeeRecipient(address)": "infinite",
						"setKeeper(address)": "22844",
						"setStrategist(address)": "22002",
						"setUnirouter(address)": "infinite",
						"setVault(address)": "infinite",
						"strategist()": "1061",
						"transferOwnership(address)": "infinite",
						"unirouter()": "1083",
						"vault()": "1125"
					}
				},
				"methodIdentifiers": {
					"beforeDeposit()": "573fef0a",
					"evolleFeeRecipient()": "e0e4130b",
					"keeper()": "aced1661",
					"owner()": "8da5cb5b",
					"paused()": "5c975abb",
					"renounceOwnership()": "715018a6",
					"setEvolleFeeRecipient(address)": "5e45da42",
					"setKeeper(address)": "748747e6",
					"setStrategist(address)": "c7b9d530",
					"setUnirouter(address)": "d92f3d73",
					"setVault(address)": "6817031b",
					"strategist()": "1fe4a686",
					"transferOwnership(address)": "f2fde38b",
					"unirouter()": "257ae0de",
					"vault()": "fbfa77cf"
				}
			},
			"storageLayout": {
				"storage": [
					{
						"astId": 1675,
						"contract": "strategies/StrategyMiniChefLP.sol:StratManager",
						"label": "_owner",
						"offset": 0,
						"slot": "0",
						"type": "t_address"
					},
					{
						"astId": 1793,
						"contract": "strategies/StrategyMiniChefLP.sol:StratManager",
						"label": "_paused",
						"offset": 20,
						"slot": "0",
						"type": "t_bool"
					},
					{
						"astId": 1874,
						"contract": "strategies/StrategyMiniChefLP.sol:StratManager",
						"label": "keeper",
						"offset": 0,
						"slot": "1",
						"type": "t_address"
					},
					{
						"astId": 1876,
						"contract": "strategies/StrategyMiniChefLP.sol:StratManager",
						"label": "strategist",
						"offset": 0,
						"slot": "2",
						"type": "t_address"
					},
					{
						"astId": 1878,
						"contract": "strategies/StrategyMiniChefLP.sol:StratManager",
						"label": "unirouter",
						"offset": 0,
						"slot": "3",
						"type": "t_address"
					},
					{
						"astId": 1880,
						"contract": "strategies/StrategyMiniChefLP.sol:StratManager",
						"label": "vault",
						"offset": 0,
						"slot": "4",
						"type": "t_address"
					},
					{
						"astId": 1882,
						"contract": "strategies/StrategyMiniChefLP.sol:StratManager",
						"label": "evolleFeeRecipient",
						"offset": 0,
						"slot": "5",
						"type": "t_address"
					}
				],
				"types": {
					"t_address": {
						"encoding": "inplace",
						"label": "address",
						"numberOfBytes": "20"
					},
					"t_bool": {
						"encoding": "inplace",
						"label": "bool",
						"numberOfBytes": "1"
					}
				}
			},
			"userdoc": {
				"kind": "user",
				"methods": {},
				"version": 1
			}
		}
	}
}