{
	"strategies/StrategyMiniChefLP.sol": {
		"StrategyMiniChef": {
			"abi": [
				{
					"inputs": [
						{
							"internalType": "address",
							"name": "_want",
							"type": "address"
						},
						{
							"internalType": "uint256",
							"name": "_poolId",
							"type": "uint256"
						},
						{
							"internalType": "address",
							"name": "_chef",
							"type": "address"
						},
						{
							"internalType": "address",
							"name": "_vault",
							"type": "address"
						},
						{
							"internalType": "address",
							"name": "_unirouter",
							"type": "address"
						},
						{
							"internalType": "address",
							"name": "_keeper",
							"type": "address"
						},
						{
							"internalType": "address",
							"name": "_strategist",
							"type": "address"
						},
						{
							"internalType": "address",
							"name": "_evolleFeeRecipient",
							"type": "address"
						},
						{
							"internalType": "address[]",
							"name": "_outputToNativeRoute",
							"type": "address[]"
						},
						{
							"internalType": "address[]",
							"name": "_outputToLp0Route",
							"type": "address[]"
						},
						{
							"internalType": "address[]",
							"name": "_outputToLp1Route",
							"type": "address[]"
						}
					],
					"stateMutability": "nonpayable",
					"type": "constructor"
				},
				{
					"anonymous": false,
					"inputs": [
						{
							"indexed": true,
							"internalType": "address",
							"name": "previousOwner",
							"type": "address"
						},
						{
							"indexed": true,
							"internalType": "address",
							"name": "newOwner",
							"type": "address"
						}
					],
					"name": "OwnershipTransferred",
					"type": "event"
				},
				{
					"anonymous": false,
					"inputs": [
						{
							"indexed": false,
							"internalType": "address",
							"name": "account",
							"type": "address"
						}
					],
					"name": "Paused",
					"type": "event"
				},
				{
					"anonymous": false,
					"inputs": [
						{
							"indexed": true,
							"internalType": "address",
							"name": "harvester",
							"type": "address"
						}
					],
					"name": "StratHarvest",
					"type": "event"
				},
				{
					"anonymous": false,
					"inputs": [
						{
							"indexed": false,
							"internalType": "address",
							"name": "account",
							"type": "address"
						}
					],
					"name": "Unpaused",
					"type": "event"
				},
				{
					"inputs": [],
					"name": "MAX_CALL_FEE",
					"outputs": [
						{
							"internalType": "uint256",
							"name": "",
							"type": "uint256"
						}
					],
					"stateMutability": "view",
					"type": "function"
				},
				{
					"inputs": [],
					"name": "MAX_FEE",
					"outputs": [
						{
							"internalType": "uint256",
							"name": "",
							"type": "uint256"
						}
					],
					"stateMutability": "view",
					"type": "function"
				},
				{
					"inputs": [],
					"name": "STRATEGIST_FEE",
					"outputs": [
						{
							"internalType": "uint256",
							"name": "",
							"type": "uint256"
						}
					],
					"stateMutability": "view",
					"type": "function"
				},
				{
					"inputs": [],
					"name": "WITHDRAWAL_FEE_CAP",
					"outputs": [
						{
							"internalType": "uint256",
							"name": "",
							"type": "uint256"
						}
					],
					"stateMutability": "view",
					"type": "function"
				},
				{
					"inputs": [],
					"name": "WITHDRAWAL_MAX",
					"outputs": [
						{
							"internalType": "uint256",
							"name": "",
							"type": "uint256"
						}
					],
					"stateMutability": "view",
					"type": "function"
				},
				{
					"inputs": [],
					"name": "balanceOf",
					"outputs": [
						{
							"internalType": "uint256",
							"name": "",
							"type": "uint256"
						}
					],
					"stateMutability": "view",
					"type": "function"
				},
				{
					"inputs": [],
					"name": "balanceOfPool",
					"outputs": [
						{
							"internalType": "uint256",
							"name": "",
							"type": "uint256"
						}
					],
					"stateMutability": "view",
					"type": "function"
				},
				{
					"inputs": [],
					"name": "balanceOfWant",
					"outputs": [
						{
							"internalType": "uint256",
							"name": "",
							"type": "uint256"
						}
					],
					"stateMutability": "view",
					"type": "function"
				},
				{
					"inputs": [],
					"name": "beforeDeposit",
					"outputs": [],
					"stateMutability": "nonpayable",
					"type": "function"
				},
				{
					"inputs": [],
					"name": "callFee",
					"outputs": [
						{
							"internalType": "uint256",
							"name": "",
							"type": "uint256"
						}
					],
					"stateMutability": "view",
					"type": "function"
				},
				{
					"inputs": [],
					"name": "chef",
					"outputs": [
						{
							"internalType": "address",
							"name": "",
							"type": "address"
						}
					],
					"stateMutability": "view",
					"type": "function"
				},
				{
					"inputs": [],
					"name": "deposit",
					"outputs": [],
					"stateMutability": "nonpayable",
					"type": "function"
				},
				{
					"inputs": [],
					"name": "evolleFee",
					"outputs": [
						{
							"internalType": "uint256",
							"name": "",
							"type": "uint256"
						}
					],
					"stateMutability": "view",
					"type": "function"
				},
				{
					"inputs": [],
					"name": "evolleFeeRecipient",
					"outputs": [
						{
							"internalType": "address",
							"name": "",
							"type": "address"
						}
					],
					"stateMutability": "view",
					"type": "function"
				},
				{
					"inputs": [],
					"name": "harvest",
					"outputs": [],
					"stateMutability": "nonpayable",
					"type": "function"
				},
				{
					"inputs": [],
					"name": "keeper",
					"outputs": [
						{
							"internalType": "address",
							"name": "",
							"type": "address"
						}
					],
					"stateMutability": "view",
					"type": "function"
				},
				{
					"inputs": [],
					"name": "lastHarvest",
					"outputs": [
						{
							"internalType": "uint256",
							"name": "",
							"type": "uint256"
						}
					],
					"stateMutability": "view",
					"type": "function"
				},
				{
					"inputs": [],
					"name": "lpToken0",
					"outputs": [
						{
							"internalType": "address",
							"name": "",
							"type": "address"
						}
					],
					"stateMutability": "view",
					"type": "function"
				},
				{
					"inputs": [],
					"name": "lpToken1",
					"outputs": [
						{
							"internalType": "address",
							"name": "",
							"type": "address"
						}
					],
					"stateMutability": "view",
					"type": "function"
				},
				{
					"inputs": [],
					"name": "native",
					"outputs": [
						{
							"internalType": "address",
							"name": "",
							"type": "address"
						}
					],
					"stateMutability": "view",
					"type": "function"
				},
				{
					"inputs": [
						{
							"internalType": "uint256",
							"name": "",
							"type": "uint256"
						}
					],
					"name": "nativeToOutputRoute",
					"outputs": [
						{
							"internalType": "address",
							"name": "",
							"type": "address"
						}
					],
					"stateMutability": "view",
					"type": "function"
				},
				{
					"inputs": [],
					"name": "output",
					"outputs": [
						{
							"internalType": "address",
							"name": "",
							"type": "address"
						}
					],
					"stateMutability": "view",
					"type": "function"
				},
				{
					"inputs": [
						{
							"internalType": "uint256",
							"name": "",
							"type": "uint256"
						}
					],
					"name": "outputToLp0Route",
					"outputs": [
						{
							"internalType": "address",
							"name": "",
							"type": "address"
						}
					],
					"stateMutability": "view",
					"type": "function"
				},
				{
					"inputs": [
						{
							"internalType": "uint256",
							"name": "",
							"type": "uint256"
						}
					],
					"name": "outputToLp1Route",
					"outputs": [
						{
							"internalType": "address",
							"name": "",
							"type": "address"
						}
					],
					"stateMutability": "view",
					"type": "function"
				},
				{
					"inputs": [
						{
							"internalType": "uint256",
							"name": "",
							"type": "uint256"
						}
					],
					"name": "outputToNativeRoute",
					"outputs": [
						{
							"internalType": "address",
							"name": "",
							"type": "address"
						}
					],
					"stateMutability": "view",
					"type": "function"
				},
				{
					"inputs": [],
					"name": "owner",
					"outputs": [
						{
							"internalType": "address",
							"name": "",
							"type": "address"
						}
					],
					"stateMutability": "view",
					"type": "function"
				},
				{
					"inputs": [],
					"name": "panic",
					"outputs": [],
					"stateMutability": "nonpayable",
					"type": "function"
				},
				{
					"inputs": [],
					"name": "pause",
					"outputs": [],
					"stateMutability": "nonpayable",
					"type": "function"
				},
				{
					"inputs": [],
					"name": "paused",
					"outputs": [
						{
							"internalType": "bool",
							"name": "",
							"type": "bool"
						}
					],
					"stateMutability": "view",
					"type": "function"
				},
				{
					"inputs": [],
					"name": "poolId",
					"outputs": [
						{
							"internalType": "uint256",
							"name": "",
							"type": "uint256"
						}
					],
					"stateMutability": "view",
					"type": "function"
				},
				{
					"inputs": [],
					"name": "renounceOwnership",
					"outputs": [],
					"stateMutability": "nonpayable",
					"type": "function"
				},
				{
					"inputs": [],
					"name": "retireStrat",
					"outputs": [],
					"stateMutability": "nonpayable",
					"type": "function"
				},
				{
					"inputs": [
						{
							"internalType": "uint256",
							"name": "_fee",
							"type": "uint256"
						}
					],
					"name": "setCallFee",
					"outputs": [],
					"stateMutability": "nonpayable",
					"type": "function"
				},
				{
					"inputs": [
						{
							"internalType": "address",
							"name": "_evolleFeeRecipient",
							"type": "address"
						}
					],
					"name": "setEvolleFeeRecipient",
					"outputs": [],
					"stateMutability": "nonpayable",
					"type": "function"
				},
				{
					"inputs": [
						{
							"internalType": "address",
							"name": "_keeper",
							"type": "address"
						}
					],
					"name": "setKeeper",
					"outputs": [],
					"stateMutability": "nonpayable",
					"type": "function"
				},
				{
					"inputs": [
						{
							"internalType": "address",
							"name": "_strategist",
							"type": "address"
						}
					],
					"name": "setStrategist",
					"outputs": [],
					"stateMutability": "nonpayable",
					"type": "function"
				},
				{
					"inputs": [
						{
							"internalType": "address",
							"name": "_unirouter",
							"type": "address"
						}
					],
					"name": "setUnirouter",
					"outputs": [],
					"stateMutability": "nonpayable",
					"type": "function"
				},
				{
					"inputs": [
						{
							"internalType": "address",
							"name": "_vault",
							"type": "address"
						}
					],
					"name": "setVault",
					"outputs": [],
					"stateMutability": "nonpayable",
					"type": "function"
				},
				{
					"inputs": [
						{
							"internalType": "uint256",
							"name": "_fee",
							"type": "uint256"
						}
					],
					"name": "setWithdrawalFee",
					"outputs": [],
					"stateMutability": "nonpayable",
					"type": "function"
				},
				{
					"inputs": [],
					"name": "strategist",
					"outputs": [
						{
							"internalType": "address",
							"name": "",
							"type": "address"
						}
					],
					"stateMutability": "view",
					"type": "function"
				},
				{
					"inputs": [
						{
							"internalType": "address",
							"name": "newOwner",
							"type": "address"
						}
					],
					"name": "transferOwnership",
					"outputs": [],
					"stateMutability": "nonpayable",
					"type": "function"
				},
				{
					"inputs": [],
					"name": "unirouter",
					"outputs": [
						{
							"internalType": "address",
							"name": "",
							"type": "address"
						}
					],
					"stateMutability": "view",
					"type": "function"
				},
				{
					"inputs": [],
					"name": "unpause",
					"outputs": [],
					"stateMutability": "nonpayable",
					"type": "function"
				},
				{
					"inputs": [],
					"name": "vault",
					"outputs": [
						{
							"internalType": "address",
							"name": "",
							"type": "address"
						}
					],
					"stateMutability": "view",
					"type": "function"
				},
				{
					"inputs": [],
					"name": "want",
					"outputs": [
						{
							"internalType": "address",
							"name": "",
							"type": "address"
						}
					],
					"stateMutability": "view",
					"type": "function"
				},
				{
					"inputs": [
						{
							"internalType": "uint256",
							"name": "_amount",
							"type": "uint256"
						}
					],
					"name": "withdraw",
					"outputs": [],
					"stateMutability": "nonpayable",
					"type": "function"
				},
				{
					"inputs": [],
					"name": "withdrawalFee",
					"outputs": [
						{
							"internalType": "uint256",
							"name": "",
							"type": "uint256"
						}
					],
					"stateMutability": "view",
					"type": "function"
				}
			],
			"devdoc": {
				"events": {
					"StratHarvest(address)": {
						"details": "Event that is fired each time someone harvests the strat."
					}
				},
				"kind": "dev",
				"methods": {
					"beforeDeposit()": {
						"details": "Function to synchronize balances before new user deposit. Can be overridden in the strategy."
					},
					"owner()": {
						"details": "Returns the address of the current owner."
					},
					"paused()": {
						"details": "Returns true if the contract is paused, and false otherwise."
					},
					"renounceOwnership()": {
						"details": "Leaves the contract without owner. It will not be possible to call `onlyOwner` functions anymore. Can only be called by the current owner. NOTE: Renouncing ownership will leave the contract without an owner, thereby removing any functionality that is only available to the owner."
					},
					"setKeeper(address)": {
						"details": "Updates address of the strat keeper.",
						"params": {
							"_keeper": "new keeper address."
						}
					},
					"setStrategist(address)": {
						"details": "Updates address where strategist fee earnings will go.",
						"params": {
							"_strategist": "new strategist address."
						}
					},
					"setUnirouter(address)": {
						"details": "Updates router that will be used for swaps.",
						"params": {
							"_unirouter": "new unirouter address."
						}
					},
					"setVault(address)": {
						"details": "Updates parent vault.",
						"params": {
							"_vault": "new vault address."
						}
					},
					"transferOwnership(address)": {
						"details": "Transfers ownership of the contract to a new account (`newOwner`). Can only be called by the current owner."
					}
				},
				"version": 1
			},
			"evm": {
				"assembly": "    /* \"strategies/StrategyMiniChefLP.sol\":43044:50704  contract StrategyMiniChef is StratManager, FeeManager {... */\n  mstore(0x40, 0x80)\n    /* \"strategies/StrategyMiniChefLP.sol\":42554:42556  10 */\n  0x0a\n    /* \"strategies/StrategyMiniChefLP.sol\":42526:42556  uint public withdrawalFee = 10 */\n  0x06\n  sstore\n    /* \"strategies/StrategyMiniChefLP.sol\":42585:42588  111 */\n  0x6f\n    /* \"strategies/StrategyMiniChefLP.sol\":42563:42588  uint public callFee = 111 */\n  0x07\n  sstore\n    /* \"strategies/StrategyMiniChefLP.sol\":42618:42652  MAX_FEE - STRATEGIST_FEE - callFee */\n  0x0379\n    /* \"strategies/StrategyMiniChefLP.sol\":42594:42652  uint public evolleFee = MAX_FEE - STRATEGIST_FEE - callFee */\n  0x08\n  sstore\n    /* \"strategies/StrategyMiniChefLP.sol\":43754:45276  constructor(... */\n  callvalue\n  dup1\n  iszero\n  tag_1\n  jumpi\n  0x00\n  dup1\n  revert\ntag_1:\n  pop\n  mload(0x40)\n  sub(codesize, bytecodeSize)\n  dup1\n  bytecodeSize\n  dup4\n  codecopy\n  dup2\n  dup2\n  add\n  0x40\n  mstore\n  0x0160\n  dup2\n  lt\n  iszero\n  tag_2\n  jumpi\n  0x00\n  dup1\n  revert\ntag_2:\n  dup2\n  mload\n  0x20\n  dup4\n  add\n  mload\n  0x40\n  dup1\n  dup6\n  add\n  mload\n  0x60\n  dup7\n  add\n  mload\n  0x80\n  dup8\n  add\n  mload\n  0xa0\n  dup9\n  add\n  mload\n  0xc0\n  dup10\n  add\n  mload\n  0xe0\n  dup11\n  add\n  mload\n  0x0100\n  dup12\n  add\n  dup1\n  mload\n  swap8\n  mload\n  swap10\n  swap12\n  swap9\n  swap11\n  swap7\n  swap10\n  swap6\n  swap9\n  swap5\n  swap8\n  swap4\n  swap7\n  swap3\n  swap6\n  swap2\n  swap5\n  swap2\n  swap4\n  swap3\n  dup3\n  add\n  swap3\n  dup5\n  0x0100000000\n  dup3\n  gt\n  iszero\n  tag_3\n  jumpi\n  0x00\n  dup1\n  revert\ntag_3:\n  swap1\n  dup4\n  add\n  swap1\n  0x20\n  dup3\n  add\n  dup6\n  dup2\n  gt\n  iszero\n  tag_4\n  jumpi\n  0x00\n  dup1\n  revert\ntag_4:\n  dup3\n  mload\n  dup7\n  0x20\n  dup3\n  mul\n  dup4\n  add\n  gt\n  0x0100000000\n  dup3\n  gt\n  or\n  iszero\n  tag_5\n  jumpi\n  0x00\n  dup1\n  revert\ntag_5:\n  dup3\n  mstore\n  pop\n  dup2\n  mload\n  0x20\n  swap2\n  dup3\n  add\n  swap3\n  dup3\n  add\n  swap2\n  mul\n  dup1\n  dup4\n  dup4\n  0x00\ntag_6:\n  dup4\n  dup2\n  lt\n  iszero\n  tag_8\n  jumpi\n  dup2\n  dup2\n  add\n  mload\n  dup4\n  dup3\n  add\n  mstore\n  0x20\n  add\n  jump(tag_6)\ntag_8:\n  pop\n  pop\n  pop\n  pop\n  swap1\n  pop\n  add\n  0x40\n  mstore\n  0x20\n  add\n  dup1\n  mload\n  mload(0x40)\n  swap4\n  swap3\n  swap2\n  swap1\n  dup5\n  0x0100000000\n  dup3\n  gt\n  iszero\n  tag_9\n  jumpi\n  0x00\n  dup1\n  revert\ntag_9:\n  swap1\n  dup4\n  add\n  swap1\n  0x20\n  dup3\n  add\n  dup6\n  dup2\n  gt\n  iszero\n  tag_10\n  jumpi\n  0x00\n  dup1\n  revert\ntag_10:\n  dup3\n  mload\n  dup7\n  0x20\n  dup3\n  mul\n  dup4\n  add\n  gt\n  0x0100000000\n  dup3\n  gt\n  or\n  iszero\n  tag_11\n  jumpi\n  0x00\n  dup1\n  revert\ntag_11:\n  dup3\n  mstore\n  pop\n  dup2\n  mload\n  0x20\n  swap2\n  dup3\n  add\n  swap3\n  dup3\n  add\n  swap2\n  mul\n  dup1\n  dup4\n  dup4\n  0x00\ntag_12:\n  dup4\n  dup2\n  lt\n  iszero\n  tag_14\n  jumpi\n  dup2\n  dup2\n  add\n  mload\n  dup4\n  dup3\n  add\n  mstore\n  0x20\n  add\n  jump(tag_12)\ntag_14:\n  pop\n  pop\n  pop\n  pop\n  swap1\n  pop\n  add\n  0x40\n  mstore\n  0x20\n  add\n  dup1\n  mload\n  mload(0x40)\n  swap4\n  swap3\n  swap2\n  swap1\n  dup5\n  0x0100000000\n  dup3\n  gt\n  iszero\n  tag_15\n  jumpi\n  0x00\n  dup1\n  revert\ntag_15:\n  swap1\n  dup4\n  add\n  swap1\n  0x20\n  dup3\n  add\n  dup6\n  dup2\n  gt\n  iszero\n  tag_16\n  jumpi\n  0x00\n  dup1\n  revert\ntag_16:\n  dup3\n  mload\n  dup7\n  0x20\n  dup3\n  mul\n  dup4\n  add\n  gt\n  0x0100000000\n  dup3\n  gt\n  or\n  iszero\n  tag_17\n  jumpi\n  0x00\n  dup1\n  revert\ntag_17:\n  dup3\n  mstore\n  pop\n  dup2\n  mload\n  0x20\n  swap2\n  dup3\n  add\n  swap3\n  dup3\n  add\n  swap2\n  mul\n  dup1\n  dup4\n  dup4\n  0x00\ntag_18:\n  dup4\n  dup2\n  lt\n  iszero\n  tag_20\n  jumpi\n  dup2\n  dup2\n  add\n  mload\n  dup4\n  dup3\n  add\n  mstore\n  0x20\n  add\n  jump(tag_18)\ntag_20:\n  pop\n  pop\n  pop\n  pop\n  swap1\n  pop\n  add\n  0x40\n  mstore\n  pop\n  pop\n  pop\n    /* \"strategies/StrategyMiniChefLP.sol\":44134:44141  _keeper */\n  dup6\n    /* \"strategies/StrategyMiniChefLP.sol\":44143:44154  _strategist */\n  dup6\n    /* \"strategies/StrategyMiniChefLP.sol\":44156:44166  _unirouter */\n  dup9\n    /* \"strategies/StrategyMiniChefLP.sol\":44168:44174  _vault */\n  dup11\n    /* \"strategies/StrategyMiniChefLP.sol\":44176:44195  _evolleFeeRecipient */\n  dup8\n    /* \"strategies/StrategyMiniChefLP.sol\":36530:36547  address msgSender */\n  0x00\n    /* \"strategies/StrategyMiniChefLP.sol\":36550:36562  _msgSender() */\n  tag_26\n    /* \"strategies/StrategyMiniChefLP.sol\":36550:36560  _msgSender */\n  shl(0x20, tag_27)\n    /* \"strategies/StrategyMiniChefLP.sol\":36550:36562  _msgSender() */\n  0x20\n  shr\n  jump\t// in\ntag_26:\n    /* \"strategies/StrategyMiniChefLP.sol\":36572:36578  _owner */\n  0x00\n    /* \"strategies/StrategyMiniChefLP.sol\":36572:36590  _owner = msgSender */\n  dup1\n  sload\n  not(sub(shl(0xa0, 0x01), 0x01))\n  and\n  sub(shl(0xa0, 0x01), 0x01)\n  dup4\n  and\n  swap1\n  dup2\n  or\n  dup3\n  sstore\n    /* \"strategies/StrategyMiniChefLP.sol\":36605:36648  OwnershipTransferred(address(0), msgSender) */\n  mload(0x40)\n    /* \"strategies/StrategyMiniChefLP.sol\":36572:36590  _owner = msgSender */\n  swap3\n  swap4\n  pop\n  swap2\n    /* \"strategies/StrategyMiniChefLP.sol\":36605:36648  OwnershipTransferred(address(0), msgSender) */\n  0x8be0079c531659141344cd1fd0a4f28419497f9722a3daafe3b4186f6b6457e0\n  swap1\n    /* \"strategies/StrategyMiniChefLP.sol\":36572:36578  _owner */\n  dup3\n  swap1\n    /* \"strategies/StrategyMiniChefLP.sol\":36605:36648  OwnershipTransferred(address(0), msgSender) */\n  log3\n  pop\n    /* \"strategies/StrategyMiniChefLP.sol\":38849:38854  false */\n  0x00\n    /* \"strategies/StrategyMiniChefLP.sol\":38839:38854  _paused = false */\n  dup1\n  sload\n  not(shl(0xa0, 0xff))\n  and\n  swap1\n  sstore\n  0x01\n    /* \"strategies/StrategyMiniChefLP.sol\":40507:40523  keeper = _keeper */\n  dup1\n  sload\n  not(sub(shl(0xa0, 0x01), 0x01))\n  swap1\n  dup2\n  and\n  sub(shl(0xa0, 0x01), 0x01)\n  swap8\n  dup9\n  and\n  or\n  swap1\n  swap2\n  sstore\n    /* \"strategies/StrategyMiniChefLP.sol\":40533:40543  strategist */\n  0x02\n    /* \"strategies/StrategyMiniChefLP.sol\":40533:40557  strategist = _strategist */\n  dup1\n  sload\n  dup3\n  and\n  swap6\n  dup8\n  and\n  swap6\n  swap1\n  swap6\n  or\n  dup6\n  sstore\n    /* \"strategies/StrategyMiniChefLP.sol\":40567:40576  unirouter */\n  0x03\n    /* \"strategies/StrategyMiniChefLP.sol\":40567:40589  unirouter = _unirouter */\n  dup1\n  sload\n  dup3\n  and\n  swap5\n  dup8\n  and\n  swap5\n  swap1\n  swap5\n  or\n  swap1\n  swap4\n  sstore\n    /* \"strategies/StrategyMiniChefLP.sol\":40599:40604  vault */\n  0x04\n    /* \"strategies/StrategyMiniChefLP.sol\":40599:40613  vault = _vault */\n  dup1\n  sload\n  dup5\n  and\n  swap3\n  dup7\n  and\n  swap3\n  swap1\n  swap3\n  or\n  swap1\n  swap2\n  sstore\n    /* \"strategies/StrategyMiniChefLP.sol\":40623:40641  evolleFeeRecipient */\n  0x05\n    /* \"strategies/StrategyMiniChefLP.sol\":40623:40663  evolleFeeRecipient = _evolleFeeRecipient */\n  dup1\n  sload\n  dup4\n  and\n  swap2\n  dup6\n  and\n  swap2\n  swap1\n  swap2\n  or\n  swap1\n  sstore\n    /* \"strategies/StrategyMiniChefLP.sol\":44214:44218  want */\n  0x0b\n    /* \"strategies/StrategyMiniChefLP.sol\":44214:44226  want = _want */\n  dup1\n  sload\n  dup3\n  and\n  dup16\n  dup6\n  and\n  or\n  swap1\n  sstore\n    /* \"strategies/StrategyMiniChefLP.sol\":44236:44242  poolId */\n  0x0f\n    /* \"strategies/StrategyMiniChefLP.sol\":44236:44252  poolId = _poolId */\n  dup14\n  swap1\n  sstore\n    /* \"strategies/StrategyMiniChefLP.sol\":44262:44266  chef */\n  0x0e\n    /* \"strategies/StrategyMiniChefLP.sol\":44262:44274  chef = _chef */\n  dup1\n  sload\n  swap1\n  swap2\n  and\n  swap3\n  dup13\n  and\n  swap3\n  swap1\n  swap3\n  or\n  swap1\n  swap2\n  sstore\n    /* \"strategies/StrategyMiniChefLP.sol\":44293:44320  _outputToNativeRoute.length */\n  dup4\n  mload\n    /* \"strategies/StrategyMiniChefLP.sol\":44293:44325  _outputToNativeRoute.length >= 2 */\n  lt\n  iszero\n    /* \"strategies/StrategyMiniChefLP.sol\":44285:44326  require(_outputToNativeRoute.length >= 2) */\n  tag_31\n  jumpi\n  0x00\n  dup1\n  revert\ntag_31:\n    /* \"strategies/StrategyMiniChefLP.sol\":44345:44365  _outputToNativeRoute */\n  dup3\n    /* \"strategies/StrategyMiniChefLP.sol\":44366:44367  0 */\n  0x00\n    /* \"strategies/StrategyMiniChefLP.sol\":44345:44368  _outputToNativeRoute[0] */\n  dup2\n  mload\n  dup2\n  lt\n  tag_32\n  jumpi\n  invalid\ntag_32:\n  0x20\n  mul\n  0x20\n  add\n  add\n  mload\n    /* \"strategies/StrategyMiniChefLP.sol\":44336:44342  output */\n  0x0a\n  0x00\n    /* \"strategies/StrategyMiniChefLP.sol\":44336:44368  output = _outputToNativeRoute[0] */\n  0x0100\n  exp\n  dup2\n  sload\n  dup2\n  sub(shl(0xa0, 0x01), 0x01)\n  mul\n  not\n  and\n  swap1\n  dup4\n  sub(shl(0xa0, 0x01), 0x01)\n  and\n  mul\n  or\n  swap1\n  sstore\n  pop\n    /* \"strategies/StrategyMiniChefLP.sol\":44387:44407  _outputToNativeRoute */\n  dup3\n    /* \"strategies/StrategyMiniChefLP.sol\":44438:44439  1 */\n  0x01\n    /* \"strategies/StrategyMiniChefLP.sol\":44408:44428  _outputToNativeRoute */\n  dup5\n    /* \"strategies/StrategyMiniChefLP.sol\":44408:44435  _outputToNativeRoute.length */\n  mload\n    /* \"strategies/StrategyMiniChefLP.sol\":44408:44439  _outputToNativeRoute.length - 1 */\n  sub\n    /* \"strategies/StrategyMiniChefLP.sol\":44387:44440  _outputToNativeRoute[_outputToNativeRoute.length - 1] */\n  dup2\n  mload\n  dup2\n  lt\n  tag_33\n  jumpi\n  invalid\ntag_33:\n  0x20\n  swap1\n  dup2\n  mul\n  swap2\n  swap1\n  swap2\n  add\n  dup2\n  add\n  mload\n    /* \"strategies/StrategyMiniChefLP.sol\":44378:44384  native */\n  0x09\n    /* \"strategies/StrategyMiniChefLP.sol\":44378:44440  native = _outputToNativeRoute[_outputToNativeRoute.length - 1] */\n  dup1\n  sload\n  not(sub(shl(0xa0, 0x01), 0x01))\n  and\n  sub(shl(0xa0, 0x01), 0x01)\n  swap1\n  swap3\n  and\n  swap2\n  swap1\n  swap2\n  or\n  swap1\n  sstore\n    /* \"strategies/StrategyMiniChefLP.sol\":44450:44492  outputToNativeRoute = _outputToNativeRoute */\n  dup4\n  mload\n  tag_34\n  swap2\n    /* \"strategies/StrategyMiniChefLP.sol\":44450:44469  outputToNativeRoute */\n  0x11\n  swap2\n    /* \"strategies/StrategyMiniChefLP.sol\":44450:44492  outputToNativeRoute = _outputToNativeRoute */\n  swap1\n  dup7\n  add\n  swap1\n  tag_35\n  jump\t// in\ntag_34:\n  pop\n    /* \"strategies/StrategyMiniChefLP.sol\":44557:44561  want */\n  0x0b\n  0x00\n  swap1\n  sload\n  swap1\n  0x0100\n  exp\n  swap1\n  div\n  sub(shl(0xa0, 0x01), 0x01)\n  and\n  sub(shl(0xa0, 0x01), 0x01)\n    /* \"strategies/StrategyMiniChefLP.sol\":44542:44569  IUniswapV2Pair(want).token0 */\n  and\n  0x0dfe1681\n    /* \"strategies/StrategyMiniChefLP.sol\":44542:44571  IUniswapV2Pair(want).token0() */\n  mload(0x40)\n  dup2\n  0xffffffff\n  and\n  0xe0\n  shl\n  dup2\n  mstore\n  0x04\n  add\n  0x20\n  mload(0x40)\n  dup1\n  dup4\n  sub\n  dup2\n  dup7\n  dup1\n  extcodesize\n  iszero\n  dup1\n  iszero\n  tag_36\n  jumpi\n  0x00\n  dup1\n  revert\ntag_36:\n  pop\n  gas\n  staticcall\n  iszero\n  dup1\n  iszero\n  tag_38\n  jumpi\n  returndatasize\n  0x00\n  dup1\n  returndatacopy\n  revert(0x00, returndatasize)\ntag_38:\n  pop\n  pop\n  pop\n  pop\n  mload(0x40)\n  returndatasize\n  0x20\n  dup2\n  lt\n  iszero\n  tag_39\n  jumpi\n  0x00\n  dup1\n  revert\ntag_39:\n  pop\n  mload\n    /* \"strategies/StrategyMiniChefLP.sol\":44531:44539  lpToken0 */\n  0x0c\n    /* \"strategies/StrategyMiniChefLP.sol\":44531:44571  lpToken0 = IUniswapV2Pair(want).token0() */\n  dup1\n  sload\n  not(sub(shl(0xa0, 0x01), 0x01))\n  and\n  sub(shl(0xa0, 0x01), 0x01)\n  swap3\n  dup4\n  and\n  or\n  swap1\n  sstore\n    /* \"strategies/StrategyMiniChefLP.sol\":44613:44619  output */\n  sload(0x0a)\n    /* \"strategies/StrategyMiniChefLP.sol\":44589:44609  _outputToLp0Route[0] */\n  dup4\n  mload\n    /* \"strategies/StrategyMiniChefLP.sol\":44613:44619  output */\n  swap2\n  and\n  swap1\n    /* \"strategies/StrategyMiniChefLP.sol\":44589:44609  _outputToLp0Route[0] */\n  dup4\n  swap1\n  0x00\n  swap1\n  tag_40\n  jumpi\n  invalid\ntag_40:\n  0x20\n  mul\n  0x20\n  add\n  add\n  mload\n  sub(shl(0xa0, 0x01), 0x01)\n    /* \"strategies/StrategyMiniChefLP.sol\":44589:44619  _outputToLp0Route[0] == output */\n  and\n  eq\n    /* \"strategies/StrategyMiniChefLP.sol\":44581:44620  require(_outputToLp0Route[0] == output) */\n  tag_41\n  jumpi\n  0x00\n  dup1\n  revert\ntag_41:\n    /* \"strategies/StrategyMiniChefLP.sol\":44689:44697  lpToken0 */\n  sload(0x0c)\n    /* \"strategies/StrategyMiniChefLP.sol\":44656:44680  _outputToLp0Route.length */\n  dup3\n  mload\n  sub(shl(0xa0, 0x01), 0x01)\n    /* \"strategies/StrategyMiniChefLP.sol\":44689:44697  lpToken0 */\n  swap1\n  swap2\n  and\n  swap1\n    /* \"strategies/StrategyMiniChefLP.sol\":44638:44655  _outputToLp0Route */\n  dup4\n  swap1\n  not(0x00)\n    /* \"strategies/StrategyMiniChefLP.sol\":44656:44684  _outputToLp0Route.length - 1 */\n  dup2\n  add\n  swap1\n    /* \"strategies/StrategyMiniChefLP.sol\":44638:44685  _outputToLp0Route[_outputToLp0Route.length - 1] */\n  dup2\n  lt\n  tag_42\n  jumpi\n  invalid\ntag_42:\n  0x20\n  mul\n  0x20\n  add\n  add\n  mload\n  sub(shl(0xa0, 0x01), 0x01)\n    /* \"strategies/StrategyMiniChefLP.sol\":44638:44697  _outputToLp0Route[_outputToLp0Route.length - 1] == lpToken0 */\n  and\n  eq\n    /* \"strategies/StrategyMiniChefLP.sol\":44630:44698  require(_outputToLp0Route[_outputToLp0Route.length - 1] == lpToken0) */\n  tag_43\n  jumpi\n  0x00\n  dup1\n  revert\ntag_43:\n    /* \"strategies/StrategyMiniChefLP.sol\":44708:44744  outputToLp0Route = _outputToLp0Route */\n  dup2\n  mload\n  tag_44\n  swap1\n    /* \"strategies/StrategyMiniChefLP.sol\":44708:44724  outputToLp0Route */\n  0x13\n  swap1\n    /* \"strategies/StrategyMiniChefLP.sol\":44708:44744  outputToLp0Route = _outputToLp0Route */\n  0x20\n  dup6\n  add\n  swap1\n  tag_35\n  jump\t// in\ntag_44:\n  pop\n    /* \"strategies/StrategyMiniChefLP.sol\":44781:44785  want */\n  0x0b\n  0x00\n  swap1\n  sload\n  swap1\n  0x0100\n  exp\n  swap1\n  div\n  sub(shl(0xa0, 0x01), 0x01)\n  and\n  sub(shl(0xa0, 0x01), 0x01)\n    /* \"strategies/StrategyMiniChefLP.sol\":44766:44793  IUniswapV2Pair(want).token1 */\n  and\n  0xd21220a7\n    /* \"strategies/StrategyMiniChefLP.sol\":44766:44795  IUniswapV2Pair(want).token1() */\n  mload(0x40)\n  dup2\n  0xffffffff\n  and\n  0xe0\n  shl\n  dup2\n  mstore\n  0x04\n  add\n  0x20\n  mload(0x40)\n  dup1\n  dup4\n  sub\n  dup2\n  dup7\n  dup1\n  extcodesize\n  iszero\n  dup1\n  iszero\n  tag_45\n  jumpi\n  0x00\n  dup1\n  revert\ntag_45:\n  pop\n  gas\n  staticcall\n  iszero\n  dup1\n  iszero\n  tag_47\n  jumpi\n  returndatasize\n  0x00\n  dup1\n  returndatacopy\n  revert(0x00, returndatasize)\ntag_47:\n  pop\n  pop\n  pop\n  pop\n  mload(0x40)\n  returndatasize\n  0x20\n  dup2\n  lt\n  iszero\n  tag_48\n  jumpi\n  0x00\n  dup1\n  revert\ntag_48:\n  pop\n  mload\n    /* \"strategies/StrategyMiniChefLP.sol\":44755:44763  lpToken1 */\n  0x0d\n    /* \"strategies/StrategyMiniChefLP.sol\":44755:44795  lpToken1 = IUniswapV2Pair(want).token1() */\n  dup1\n  sload\n  not(sub(shl(0xa0, 0x01), 0x01))\n  and\n  sub(shl(0xa0, 0x01), 0x01)\n  swap3\n  dup4\n  and\n  or\n  swap1\n  sstore\n    /* \"strategies/StrategyMiniChefLP.sol\":44837:44843  output */\n  sload(0x0a)\n    /* \"strategies/StrategyMiniChefLP.sol\":44813:44833  _outputToLp1Route[0] */\n  dup3\n  mload\n    /* \"strategies/StrategyMiniChefLP.sol\":44837:44843  output */\n  swap2\n  and\n  swap1\n    /* \"strategies/StrategyMiniChefLP.sol\":44813:44833  _outputToLp1Route[0] */\n  dup3\n  swap1\n  0x00\n  swap1\n  tag_49\n  jumpi\n  invalid\ntag_49:\n  0x20\n  mul\n  0x20\n  add\n  add\n  mload\n  sub(shl(0xa0, 0x01), 0x01)\n    /* \"strategies/StrategyMiniChefLP.sol\":44813:44843  _outputToLp1Route[0] == output */\n  and\n  eq\n    /* \"strategies/StrategyMiniChefLP.sol\":44805:44844  require(_outputToLp1Route[0] == output) */\n  tag_50\n  jumpi\n  0x00\n  dup1\n  revert\ntag_50:\n    /* \"strategies/StrategyMiniChefLP.sol\":44913:44921  lpToken1 */\n  sload(0x0d)\n    /* \"strategies/StrategyMiniChefLP.sol\":44880:44904  _outputToLp1Route.length */\n  dup2\n  mload\n  sub(shl(0xa0, 0x01), 0x01)\n    /* \"strategies/StrategyMiniChefLP.sol\":44913:44921  lpToken1 */\n  swap1\n  swap2\n  and\n  swap1\n    /* \"strategies/StrategyMiniChefLP.sol\":44862:44879  _outputToLp1Route */\n  dup3\n  swap1\n  not(0x00)\n    /* \"strategies/StrategyMiniChefLP.sol\":44880:44908  _outputToLp1Route.length - 1 */\n  dup2\n  add\n  swap1\n    /* \"strategies/StrategyMiniChefLP.sol\":44862:44909  _outputToLp1Route[_outputToLp1Route.length - 1] */\n  dup2\n  lt\n  tag_51\n  jumpi\n  invalid\ntag_51:\n  0x20\n  mul\n  0x20\n  add\n  add\n  mload\n  sub(shl(0xa0, 0x01), 0x01)\n    /* \"strategies/StrategyMiniChefLP.sol\":44862:44921  _outputToLp1Route[_outputToLp1Route.length - 1] == lpToken1 */\n  and\n  eq\n    /* \"strategies/StrategyMiniChefLP.sol\":44854:44922  require(_outputToLp1Route[_outputToLp1Route.length - 1] == lpToken1) */\n  tag_52\n  jumpi\n  0x00\n  dup1\n  revert\ntag_52:\n    /* \"strategies/StrategyMiniChefLP.sol\":44932:44968  outputToLp1Route = _outputToLp1Route */\n  dup1\n  mload\n  tag_53\n  swap1\n    /* \"strategies/StrategyMiniChefLP.sol\":44932:44948  outputToLp1Route */\n  0x14\n  swap1\n    /* \"strategies/StrategyMiniChefLP.sol\":44932:44968  outputToLp1Route = _outputToLp1Route */\n  0x20\n  dup5\n  add\n  swap1\n  tag_35\n  jump\t// in\ntag_53:\n  pop\n    /* \"strategies/StrategyMiniChefLP.sol\":45015:45035  _outputToNativeRoute */\n  dup3\n    /* \"strategies/StrategyMiniChefLP.sol\":45015:45042  _outputToNativeRoute.length */\n  mload\n  sub(shl(0x40, 0x01), 0x01)\n    /* \"strategies/StrategyMiniChefLP.sol\":45001:45043  new address[](_outputToNativeRoute.length) */\n  dup2\n  gt\n  dup1\n  iszero\n  tag_54\n  jumpi\n  0x00\n  dup1\n  revert\ntag_54:\n  pop\n  mload(0x40)\n  swap1\n  dup1\n  dup3\n  mstore\n  dup1\n  0x20\n  mul\n  0x20\n  add\n  dup3\n  add\n  0x40\n  mstore\n  dup1\n  iszero\n  tag_55\n  jumpi\n  dup2\n  0x20\n  add\n  0x20\n  dup3\n  mul\n  dup1\n  calldatasize\n  dup4\n  calldatacopy\n  add\n  swap1\n  pop\ntag_55:\n  pop\n    /* \"strategies/StrategyMiniChefLP.sol\":44979:45043  nativeToOutputRoute = new address[](_outputToNativeRoute.length) */\n  dup1\n  mload\n  tag_56\n  swap2\n    /* \"strategies/StrategyMiniChefLP.sol\":44979:44998  nativeToOutputRoute */\n  0x12\n  swap2\n    /* \"strategies/StrategyMiniChefLP.sol\":44979:45043  nativeToOutputRoute = new address[](_outputToNativeRoute.length) */\n  0x20\n  swap1\n  swap2\n  add\n  swap1\n  tag_35\n  jump\t// in\ntag_56:\n  pop\n    /* \"strategies/StrategyMiniChefLP.sol\":45058:45064  uint i */\n  0x00\n    /* \"strategies/StrategyMiniChefLP.sol\":45053:45242  for (uint i = 0; i < _outputToNativeRoute.length; i++) {... */\ntag_57:\n    /* \"strategies/StrategyMiniChefLP.sol\":45074:45094  _outputToNativeRoute */\n  dup4\n    /* \"strategies/StrategyMiniChefLP.sol\":45074:45101  _outputToNativeRoute.length */\n  mload\n    /* \"strategies/StrategyMiniChefLP.sol\":45070:45071  i */\n  dup2\n    /* \"strategies/StrategyMiniChefLP.sol\":45070:45101  i < _outputToNativeRoute.length */\n  lt\n    /* \"strategies/StrategyMiniChefLP.sol\":45053:45242  for (uint i = 0; i < _outputToNativeRoute.length; i++) {... */\n  iszero\n  tag_58\n  jumpi\n    /* \"strategies/StrategyMiniChefLP.sol\":45122:45130  uint idx */\n  0x00\n    /* \"strategies/StrategyMiniChefLP.sol\":45167:45168  i */\n  dup2\n    /* \"strategies/StrategyMiniChefLP.sol\":45163:45164  1 */\n  0x01\n    /* \"strategies/StrategyMiniChefLP.sol\":45133:45153  _outputToNativeRoute */\n  dup7\n    /* \"strategies/StrategyMiniChefLP.sol\":45133:45160  _outputToNativeRoute.length */\n  mload\n    /* \"strategies/StrategyMiniChefLP.sol\":45133:45164  _outputToNativeRoute.length - 1 */\n  sub\n    /* \"strategies/StrategyMiniChefLP.sol\":45133:45168  _outputToNativeRoute.length - 1 - i */\n  sub\n    /* \"strategies/StrategyMiniChefLP.sol\":45122:45168  uint idx = _outputToNativeRoute.length - 1 - i */\n  swap1\n  pop\n    /* \"strategies/StrategyMiniChefLP.sol\":45207:45226  outputToNativeRoute */\n  0x11\n    /* \"strategies/StrategyMiniChefLP.sol\":45227:45230  idx */\n  dup2\n    /* \"strategies/StrategyMiniChefLP.sol\":45207:45231  outputToNativeRoute[idx] */\n  dup2\n  sload\n  dup2\n  lt\n  tag_60\n  jumpi\n  invalid\ntag_60:\n  0x00\n  swap2\n  dup3\n  mstore\n  0x20\n  swap1\n  swap2\n  keccak256\n  add\n  sload\n    /* \"strategies/StrategyMiniChefLP.sol\":45182:45201  nativeToOutputRoute */\n  0x12\n    /* \"strategies/StrategyMiniChefLP.sol\":45182:45204  nativeToOutputRoute[i] */\n  dup1\n  sload\n  sub(shl(0xa0, 0x01), 0x01)\n    /* \"strategies/StrategyMiniChefLP.sol\":45207:45231  outputToNativeRoute[idx] */\n  swap1\n  swap3\n  and\n  swap2\n    /* \"strategies/StrategyMiniChefLP.sol\":45202:45203  i */\n  dup5\n  swap1\n    /* \"strategies/StrategyMiniChefLP.sol\":45182:45204  nativeToOutputRoute[i] */\n  dup2\n  lt\n  tag_62\n  jumpi\n  invalid\ntag_62:\n  0x00\n  swap2\n  dup3\n  mstore\n  0x20\n  swap1\n  swap2\n  keccak256\n  add\n    /* \"strategies/StrategyMiniChefLP.sol\":45182:45231  nativeToOutputRoute[i] = outputToNativeRoute[idx] */\n  dup1\n  sload\n  not(sub(shl(0xa0, 0x01), 0x01))\n  and\n  sub(shl(0xa0, 0x01), 0x01)\n  swap3\n  swap1\n  swap3\n  and\n  swap2\n  swap1\n  swap2\n  or\n  swap1\n  sstore\n  pop\n  0x01\n    /* \"strategies/StrategyMiniChefLP.sol\":45103:45106  i++ */\n  add\n    /* \"strategies/StrategyMiniChefLP.sol\":45053:45242  for (uint i = 0; i < _outputToNativeRoute.length; i++) {... */\n  jump(tag_57)\ntag_58:\n  pop\n    /* \"strategies/StrategyMiniChefLP.sol\":45252:45269  _giveAllowances() */\n  tag_64\n    /* \"strategies/StrategyMiniChefLP.sol\":45252:45267  _giveAllowances */\n  tag_65\n    /* \"strategies/StrategyMiniChefLP.sol\":45252:45269  _giveAllowances() */\n  jump\t// in\ntag_64:\n    /* \"strategies/StrategyMiniChefLP.sol\":43754:45276  constructor(... */\n  pop\n  pop\n  pop\n  pop\n  pop\n  pop\n  pop\n  pop\n  pop\n  pop\n  pop\n    /* \"strategies/StrategyMiniChefLP.sol\":43044:50704  contract StrategyMiniChef is StratManager, FeeManager {... */\n  jump(tag_66)\n    /* \"strategies/StrategyMiniChefLP.sol\":598:702  function _msgSender() internal view virtual returns (address payable) {... */\ntag_27:\n    /* \"strategies/StrategyMiniChefLP.sol\":685:695  msg.sender */\n  caller\n    /* \"strategies/StrategyMiniChefLP.sol\":598:702  function _msgSender() internal view virtual returns (address payable) {... */\n  swap1\n  jump\t// out\n    /* \"strategies/StrategyMiniChefLP.sol\":49893:50404  function _giveAllowances() internal {... */\ntag_65:\n    /* \"strategies/StrategyMiniChefLP.sol\":49964:49968  chef */\n  sload(0x0e)\n    /* \"strategies/StrategyMiniChefLP.sol\":49946:49950  want */\n  sload(0x0b)\n    /* \"strategies/StrategyMiniChefLP.sol\":49939:49988  IERC20(want).safeApprove(chef, type(uint256).max) */\n  tag_69\n  swap2\n  sub(shl(0xa0, 0x01), 0x01)\n    /* \"strategies/StrategyMiniChefLP.sol\":49946:49950  want */\n  swap2\n  dup3\n  and\n  swap2\n    /* \"strategies/StrategyMiniChefLP.sol\":49964:49968  chef */\n  and\n  not(0x00)\n    /* \"strategies/StrategyMiniChefLP.sol\":49939:49963  IERC20(want).safeApprove */\n  tag_70\n  0x20\n  swap1\n  dup2\n  shl\n  tag_0_164\n  or\n    /* \"strategies/StrategyMiniChefLP.sol\":49939:49988  IERC20(want).safeApprove(chef, type(uint256).max) */\n  swap1\n  shr\n  jump\t// in\ntag_69:\n    /* \"strategies/StrategyMiniChefLP.sol\":50025:50034  unirouter */\n  sload(0x03)\n    /* \"strategies/StrategyMiniChefLP.sol\":50005:50011  output */\n  sload(0x0a)\n    /* \"strategies/StrategyMiniChefLP.sol\":49998:50054  IERC20(output).safeApprove(unirouter, type(uint256).max) */\n  tag_71\n  swap2\n  sub(shl(0xa0, 0x01), 0x01)\n    /* \"strategies/StrategyMiniChefLP.sol\":50005:50011  output */\n  swap2\n  dup3\n  and\n  swap2\n    /* \"strategies/StrategyMiniChefLP.sol\":50025:50034  unirouter */\n  and\n  not(0x00)\n    /* \"strategies/StrategyMiniChefLP.sol\":49998:50024  IERC20(output).safeApprove */\n  tag_70\n  0x20\n  swap1\n  dup2\n  shl\n  tag_0_164\n  or\n    /* \"strategies/StrategyMiniChefLP.sol\":49998:50054  IERC20(output).safeApprove(unirouter, type(uint256).max) */\n  swap1\n  shr\n  jump\t// in\ntag_71:\n    /* \"strategies/StrategyMiniChefLP.sol\":50126:50135  unirouter */\n  sload(0x03)\n    /* \"strategies/StrategyMiniChefLP.sol\":50106:50112  native */\n  sload(0x09)\n    /* \"strategies/StrategyMiniChefLP.sol\":50099:50155  IERC20(native).safeApprove(unirouter, type(uint256).max) */\n  tag_72\n  swap2\n  sub(shl(0xa0, 0x01), 0x01)\n    /* \"strategies/StrategyMiniChefLP.sol\":50106:50112  native */\n  swap2\n  dup3\n  and\n  swap2\n    /* \"strategies/StrategyMiniChefLP.sol\":50126:50135  unirouter */\n  and\n  not(0x00)\n    /* \"strategies/StrategyMiniChefLP.sol\":50099:50125  IERC20(native).safeApprove */\n  tag_70\n  0x20\n  swap1\n  dup2\n  shl\n  tag_0_164\n  or\n    /* \"strategies/StrategyMiniChefLP.sol\":50099:50155  IERC20(native).safeApprove(unirouter, type(uint256).max) */\n  swap1\n  shr\n  jump\t// in\ntag_72:\n    /* \"strategies/StrategyMiniChefLP.sol\":50195:50204  unirouter */\n  sload(0x03)\n    /* \"strategies/StrategyMiniChefLP.sol\":50173:50181  lpToken0 */\n  sload(0x0c)\n    /* \"strategies/StrategyMiniChefLP.sol\":50166:50208  IERC20(lpToken0).safeApprove(unirouter, 0) */\n  tag_73\n  swap2\n  sub(shl(0xa0, 0x01), 0x01)\n    /* \"strategies/StrategyMiniChefLP.sol\":50173:50181  lpToken0 */\n  swap2\n  dup3\n  and\n  swap2\n    /* \"strategies/StrategyMiniChefLP.sol\":50195:50204  unirouter */\n  and\n  0x00\n    /* \"strategies/StrategyMiniChefLP.sol\":50166:50194  IERC20(lpToken0).safeApprove */\n  tag_70\n  0x20\n  swap1\n  dup2\n  shl\n  tag_0_164\n  or\n    /* \"strategies/StrategyMiniChefLP.sol\":50166:50208  IERC20(lpToken0).safeApprove(unirouter, 0) */\n  swap1\n  shr\n  jump\t// in\ntag_73:\n    /* \"strategies/StrategyMiniChefLP.sol\":50247:50256  unirouter */\n  sload(0x03)\n    /* \"strategies/StrategyMiniChefLP.sol\":50225:50233  lpToken0 */\n  sload(0x0c)\n    /* \"strategies/StrategyMiniChefLP.sol\":50218:50276  IERC20(lpToken0).safeApprove(unirouter, type(uint256).max) */\n  tag_74\n  swap2\n  sub(shl(0xa0, 0x01), 0x01)\n    /* \"strategies/StrategyMiniChefLP.sol\":50225:50233  lpToken0 */\n  swap2\n  dup3\n  and\n  swap2\n    /* \"strategies/StrategyMiniChefLP.sol\":50247:50256  unirouter */\n  and\n  not(0x00)\n    /* \"strategies/StrategyMiniChefLP.sol\":50218:50246  IERC20(lpToken0).safeApprove */\n  tag_70\n  0x20\n  swap1\n  dup2\n  shl\n  tag_0_164\n  or\n    /* \"strategies/StrategyMiniChefLP.sol\":50218:50276  IERC20(lpToken0).safeApprove(unirouter, type(uint256).max) */\n  swap1\n  shr\n  jump\t// in\ntag_74:\n    /* \"strategies/StrategyMiniChefLP.sol\":50316:50325  unirouter */\n  sload(0x03)\n    /* \"strategies/StrategyMiniChefLP.sol\":50294:50302  lpToken1 */\n  sload(0x0d)\n    /* \"strategies/StrategyMiniChefLP.sol\":50287:50329  IERC20(lpToken1).safeApprove(unirouter, 0) */\n  tag_75\n  swap2\n  sub(shl(0xa0, 0x01), 0x01)\n    /* \"strategies/StrategyMiniChefLP.sol\":50294:50302  lpToken1 */\n  swap2\n  dup3\n  and\n  swap2\n    /* \"strategies/StrategyMiniChefLP.sol\":50316:50325  unirouter */\n  and\n  0x00\n    /* \"strategies/StrategyMiniChefLP.sol\":50287:50315  IERC20(lpToken1).safeApprove */\n  tag_70\n  0x20\n  swap1\n  dup2\n  shl\n  tag_0_164\n  or\n    /* \"strategies/StrategyMiniChefLP.sol\":50287:50329  IERC20(lpToken1).safeApprove(unirouter, 0) */\n  swap1\n  shr\n  jump\t// in\ntag_75:\n    /* \"strategies/StrategyMiniChefLP.sol\":50368:50377  unirouter */\n  sload(0x03)\n    /* \"strategies/StrategyMiniChefLP.sol\":50346:50354  lpToken1 */\n  sload(0x0d)\n    /* \"strategies/StrategyMiniChefLP.sol\":50339:50397  IERC20(lpToken1).safeApprove(unirouter, type(uint256).max) */\n  tag_76\n  swap2\n  sub(shl(0xa0, 0x01), 0x01)\n    /* \"strategies/StrategyMiniChefLP.sol\":50346:50354  lpToken1 */\n  swap2\n  dup3\n  and\n  swap2\n    /* \"strategies/StrategyMiniChefLP.sol\":50368:50377  unirouter */\n  and\n  not(0x00)\n    /* \"strategies/StrategyMiniChefLP.sol\":50339:50367  IERC20(lpToken1).safeApprove */\n  tag_70\n  0x20\n  swap1\n  dup2\n  shl\n  tag_0_164\n  or\n    /* \"strategies/StrategyMiniChefLP.sol\":50339:50397  IERC20(lpToken1).safeApprove(unirouter, type(uint256).max) */\n  swap1\n  shr\n  jump\t// in\ntag_76:\n    /* \"strategies/StrategyMiniChefLP.sol\":49893:50404  function _giveAllowances() internal {... */\n  jump\t// out\n    /* \"strategies/StrategyMiniChefLP.sol\":30809:31422  function safeApprove(IERC20 token, address spender, uint256 value) internal {... */\ntag_70:\n    /* \"strategies/StrategyMiniChefLP.sol\":31174:31184  value == 0 */\n  dup1\n  iszero\n  dup1\n    /* \"strategies/StrategyMiniChefLP.sol\":31173:31235  (value == 0) || (token.allowance(address(this), spender) == 0) */\n  tag_78\n  jumpi\n  pop\n    /* \"strategies/StrategyMiniChefLP.sol\":31190:31229  token.allowance(address(this), spender) */\n  0x40\n  dup1\n  mload\n  shl(0xe1, 0x6eb1769f)\n  dup2\n  mstore\n    /* \"strategies/StrategyMiniChefLP.sol\":31214:31218  this */\n  address\n    /* \"strategies/StrategyMiniChefLP.sol\":31190:31229  token.allowance(address(this), spender) */\n  0x04\n  dup3\n  add\n  mstore\n  sub(shl(0xa0, 0x01), 0x01)\n  dup5\n  dup2\n  and\n  0x24\n  dup4\n  add\n  mstore\n  swap2\n  mload\n    /* \"strategies/StrategyMiniChefLP.sol\":31190:31205  token.allowance */\n  swap2\n  dup6\n  and\n  swap2\n  0xdd62ed3e\n  swap2\n    /* \"strategies/StrategyMiniChefLP.sol\":31190:31229  token.allowance(address(this), spender) */\n  0x44\n  dup1\n  dup3\n  add\n  swap3\n  0x20\n  swap3\n  swap1\n  swap2\n  swap1\n  dup3\n  swap1\n  sub\n  add\n  dup2\n    /* \"strategies/StrategyMiniChefLP.sol\":31190:31205  token.allowance */\n  dup7\n    /* \"strategies/StrategyMiniChefLP.sol\":31190:31229  token.allowance(address(this), spender) */\n  dup1\n  extcodesize\n  iszero\n  dup1\n  iszero\n  tag_79\n  jumpi\n  0x00\n  dup1\n  revert\ntag_79:\n  pop\n  gas\n  staticcall\n  iszero\n  dup1\n  iszero\n  tag_81\n  jumpi\n  returndatasize\n  0x00\n  dup1\n  returndatacopy\n  revert(0x00, returndatasize)\ntag_81:\n  pop\n  pop\n  pop\n  pop\n  mload(0x40)\n  returndatasize\n  0x20\n  dup2\n  lt\n  iszero\n  tag_82\n  jumpi\n  0x00\n  dup1\n  revert\ntag_82:\n  pop\n  mload\n    /* \"strategies/StrategyMiniChefLP.sol\":31190:31234  token.allowance(address(this), spender) == 0 */\n  iszero\n    /* \"strategies/StrategyMiniChefLP.sol\":31173:31235  (value == 0) || (token.allowance(address(this), spender) == 0) */\ntag_78:\n    /* \"strategies/StrategyMiniChefLP.sol\":31165:31315  require((value == 0) || (token.allowance(address(this), spender) == 0),... */\n  tag_83\n  jumpi\n  mload(0x40)\n  shl(0xe5, 0x461bcd)\n  dup2\n  mstore\n  0x04\n  add\n  dup1\n  dup1\n  0x20\n  add\n  dup3\n  dup2\n  sub\n  dup3\n  mstore\n  0x36\n  dup2\n  mstore\n  0x20\n  add\n  dup1\n  data_ef945ddb1bfdc0da870feb4560d868b047642b4ac7f2fb7f8b7c51cb4a411e25\n  0x36\n  swap2\n  codecopy\n  0x40\n  add\n  swap2\n  pop\n  pop\n  mload(0x40)\n  dup1\n  swap2\n  sub\n  swap1\n  revert\ntag_83:\n    /* \"strategies/StrategyMiniChefLP.sol\":31352:31414  abi.encodeWithSelector(token.approve.selector, spender, value) */\n  0x40\n  dup1\n  mload\n  sub(shl(0xa0, 0x01), 0x01)\n  dup5\n  and\n  0x24\n  dup3\n  add\n  mstore\n  0x44\n  dup1\n  dup3\n  add\n  dup5\n  swap1\n  mstore\n  dup3\n  mload\n  dup1\n  dup4\n  sub\n  swap1\n  swap2\n  add\n  dup2\n  mstore\n  0x64\n  swap1\n  swap2\n  add\n  swap1\n  swap2\n  mstore\n  0x20\n  dup2\n  add\n  dup1\n  mload\n  sub(shl(0xe0, 0x01), 0x01)\n  swap1\n  dup2\n  and\n  shl(0xe0, 0x095ea7b3)\n  or\n  swap1\n  swap2\n  mstore\n    /* \"strategies/StrategyMiniChefLP.sol\":31325:31415  _callOptionalReturn(token, abi.encodeWithSelector(token.approve.selector, spender, value)) */\n  tag_84\n  swap2\n    /* \"strategies/StrategyMiniChefLP.sol\":31345:31350  token */\n  dup6\n  swap2\n    /* \"strategies/StrategyMiniChefLP.sol\":31325:31344  _callOptionalReturn */\n  tag_85\n    /* \"strategies/StrategyMiniChefLP.sol\":31325:31415  _callOptionalReturn(token, abi.encodeWithSelector(token.approve.selector, spender, value)) */\n  and\n  jump\t// in\ntag_84:\n    /* \"strategies/StrategyMiniChefLP.sol\":30809:31422  function safeApprove(IERC20 token, address spender, uint256 value) internal {... */\n  pop\n  pop\n  pop\n  jump\t// out\n    /* \"strategies/StrategyMiniChefLP.sol\":32428:33179  function _callOptionalReturn(IERC20 token, bytes memory data) private {... */\ntag_85:\n    /* \"strategies/StrategyMiniChefLP.sol\":32847:32870  bytes memory returndata */\n  0x60\n    /* \"strategies/StrategyMiniChefLP.sol\":32873:32942  address(token).functionCall(data, \"SafeERC20: low-level call failed\") */\n  tag_87\n    /* \"strategies/StrategyMiniChefLP.sol\":32901:32905  data */\n  dup3\n    /* \"strategies/StrategyMiniChefLP.sol\":32873:32942  address(token).functionCall(data, \"SafeERC20: low-level call failed\") */\n  mload(0x40)\n  dup1\n  0x40\n  add\n  0x40\n  mstore\n  dup1\n  0x20\n  dup2\n  mstore\n  0x20\n  add\n  0x5361666545524332303a206c6f772d6c6576656c2063616c6c206661696c6564\n  dup2\n  mstore\n  pop\n    /* \"strategies/StrategyMiniChefLP.sol\":32881:32886  token */\n  dup6\n  sub(shl(0xa0, 0x01), 0x01)\n    /* \"strategies/StrategyMiniChefLP.sol\":32873:32900  address(token).functionCall */\n  and\n  or(tag_0_165, shl(0x20, tag_88))\n  swap1\n    /* \"strategies/StrategyMiniChefLP.sol\":32873:32942  address(token).functionCall(data, \"SafeERC20: low-level call failed\") */\n  swap3\n  swap2\n  swap1\n  0x20\n  shr\n  jump\t// in\ntag_87:\n    /* \"strategies/StrategyMiniChefLP.sol\":32956:32973  returndata.length */\n  dup1\n  mload\n    /* \"strategies/StrategyMiniChefLP.sol\":32847:32942  bytes memory returndata = address(token).functionCall(data, \"SafeERC20: low-level call failed\") */\n  swap1\n  swap2\n  pop\n    /* \"strategies/StrategyMiniChefLP.sol\":32956:32977  returndata.length > 0 */\n  iszero\n    /* \"strategies/StrategyMiniChefLP.sol\":32952:33173  if (returndata.length > 0) { // Return data is optional... */\n  tag_84\n  jumpi\n    /* \"strategies/StrategyMiniChefLP.sol\":33096:33106  returndata */\n  dup1\n    /* \"strategies/StrategyMiniChefLP.sol\":33085:33115  abi.decode(returndata, (bool)) */\n  dup1\n  0x20\n  add\n  swap1\n  mload\n  0x20\n  dup2\n  lt\n  iszero\n  tag_90\n  jumpi\n  0x00\n  dup1\n  revert\ntag_90:\n  pop\n  mload\n    /* \"strategies/StrategyMiniChefLP.sol\":33077:33162  require(abi.decode(returndata, (bool)), \"SafeERC20: ERC20 operation did not succeed\") */\n  tag_84\n  jumpi\n  mload(0x40)\n  shl(0xe5, 0x461bcd)\n  dup2\n  mstore\n  0x04\n  add\n  dup1\n  dup1\n  0x20\n  add\n  dup3\n  dup2\n  sub\n  dup3\n  mstore\n  0x2a\n  dup2\n  mstore\n  0x20\n  add\n  dup1\n  data_e11ad79d1e4a7f2e5f376964cb99e8e8f7904e3fc16a109f7a7ecb9aa7956dcd\n  0x2a\n  swap2\n  codecopy\n  0x40\n  add\n  swap2\n  pop\n  pop\n  mload(0x40)\n  dup1\n  swap2\n  sub\n  swap1\n  revert\n    /* \"strategies/StrategyMiniChefLP.sol\":25277:25470  function functionCall(address target, bytes memory data, string memory errorMessage) internal returns (bytes memory) {... */\ntag_88:\n    /* \"strategies/StrategyMiniChefLP.sol\":25380:25392  bytes memory */\n  0x60\n    /* \"strategies/StrategyMiniChefLP.sol\":25411:25463  functionCallWithValue(target, data, 0, errorMessage) */\n  tag_93\n    /* \"strategies/StrategyMiniChefLP.sol\":25433:25439  target */\n  dup5\n    /* \"strategies/StrategyMiniChefLP.sol\":25441:25445  data */\n  dup5\n    /* \"strategies/StrategyMiniChefLP.sol\":25447:25448  0 */\n  0x00\n    /* \"strategies/StrategyMiniChefLP.sol\":25450:25462  errorMessage */\n  dup6\n    /* \"strategies/StrategyMiniChefLP.sol\":25411:25432  functionCallWithValue */\n  tag_94\n    /* \"strategies/StrategyMiniChefLP.sol\":25411:25463  functionCallWithValue(target, data, 0, errorMessage) */\n  jump\t// in\ntag_93:\n    /* \"strategies/StrategyMiniChefLP.sol\":25404:25463  return functionCallWithValue(target, data, 0, errorMessage) */\n  swap1\n  pop\n    /* \"strategies/StrategyMiniChefLP.sol\":25277:25470  function functionCall(address target, bytes memory data, string memory errorMessage) internal returns (bytes memory) {... */\ntag_92:\n  swap4\n  swap3\n  pop\n  pop\n  pop\n  jump\t// out\n    /* \"strategies/StrategyMiniChefLP.sol\":26304:26827  function functionCallWithValue(address target, bytes memory data, uint256 value, string memory errorMessage) internal returns (bytes memory) {... */\ntag_94:\n    /* \"strategies/StrategyMiniChefLP.sol\":26431:26443  bytes memory */\n  0x60\n    /* \"strategies/StrategyMiniChefLP.sol\":26488:26493  value */\n  dup3\n    /* \"strategies/StrategyMiniChefLP.sol\":26463:26484  address(this).balance */\n  selfbalance\n    /* \"strategies/StrategyMiniChefLP.sol\":26463:26493  address(this).balance >= value */\n  lt\n  iszero\n    /* \"strategies/StrategyMiniChefLP.sol\":26455:26536  require(address(this).balance >= value, \"Address: insufficient balance for call\") */\n  tag_96\n  jumpi\n  mload(0x40)\n  shl(0xe5, 0x461bcd)\n  dup2\n  mstore\n  0x04\n  add\n  dup1\n  dup1\n  0x20\n  add\n  dup3\n  dup2\n  sub\n  dup3\n  mstore\n  0x26\n  dup2\n  mstore\n  0x20\n  add\n  dup1\n  data_565f1a77334fc4792800921178c71e4521acffab18ff9e7885b49377ee80ab4c\n  0x26\n  swap2\n  codecopy\n  0x40\n  add\n  swap2\n  pop\n  pop\n  mload(0x40)\n  dup1\n  swap2\n  sub\n  swap1\n  revert\ntag_96:\n    /* \"strategies/StrategyMiniChefLP.sol\":26554:26572  isContract(target) */\n  tag_97\n    /* \"strategies/StrategyMiniChefLP.sol\":26565:26571  target */\n  dup6\n    /* \"strategies/StrategyMiniChefLP.sol\":26554:26564  isContract */\n  tag_98\n    /* \"strategies/StrategyMiniChefLP.sol\":26554:26572  isContract(target) */\n  jump\t// in\ntag_97:\n    /* \"strategies/StrategyMiniChefLP.sol\":26546:26606  require(isContract(target), \"Address: call to non-contract\") */\n  tag_99\n  jumpi\n  0x40\n  dup1\n  mload\n  shl(0xe5, 0x461bcd)\n  dup2\n  mstore\n  0x20\n  0x04\n  dup3\n  add\n  mstore\n  0x1d\n  0x24\n  dup3\n  add\n  mstore\n  0x416464726573733a2063616c6c20746f206e6f6e2d636f6e7472616374000000\n  0x44\n  dup3\n  add\n  mstore\n  swap1\n  mload\n  swap1\n  dup2\n  swap1\n  sub\n  0x64\n  add\n  swap1\n  revert\ntag_99:\n    /* \"strategies/StrategyMiniChefLP.sol\":26677:26689  bool success */\n  0x00\n    /* \"strategies/StrategyMiniChefLP.sol\":26691:26714  bytes memory returndata */\n  0x60\n    /* \"strategies/StrategyMiniChefLP.sol\":26718:26724  target */\n  dup7\n  sub(shl(0xa0, 0x01), 0x01)\n    /* \"strategies/StrategyMiniChefLP.sol\":26718:26729  target.call */\n  and\n    /* \"strategies/StrategyMiniChefLP.sol\":26738:26743  value */\n  dup6\n    /* \"strategies/StrategyMiniChefLP.sol\":26746:26750  data */\n  dup8\n    /* \"strategies/StrategyMiniChefLP.sol\":26718:26751  target.call{ value: value }(data) */\n  mload(0x40)\n  dup1\n  dup3\n  dup1\n  mload\n  swap1\n  0x20\n  add\n  swap1\n  dup1\n  dup4\n  dup4\ntag_100:\n  0x20\n  dup4\n  lt\n  tag_102\n  jumpi\n  dup1\n  mload\n  dup3\n  mstore\n  not(0x1f)\n  swap1\n  swap3\n  add\n  swap2\n  0x20\n  swap2\n  dup3\n  add\n  swap2\n  add\n  jump(tag_100)\ntag_102:\n  0x01\n  dup4\n  0x20\n  sub\n  0x0100\n  exp\n  sub\n  dup1\n  not\n  dup3\n  mload\n  and\n  dup2\n  dup5\n  mload\n  and\n  dup1\n  dup3\n  or\n  dup6\n  mstore\n  pop\n  pop\n  pop\n  pop\n  pop\n  pop\n  swap1\n  pop\n  add\n  swap2\n  pop\n  pop\n  0x00\n  mload(0x40)\n  dup1\n  dup4\n  sub\n  dup2\n  dup6\n  dup8\n  gas\n  call\n  swap3\n  pop\n  pop\n  pop\n  returndatasize\n  dup1\n  0x00\n  dup2\n  eq\n  tag_105\n  jumpi\n  mload(0x40)\n  swap2\n  pop\n  and(add(returndatasize, 0x3f), not(0x1f))\n  dup3\n  add\n  0x40\n  mstore\n  returndatasize\n  dup3\n  mstore\n  returndatasize\n  0x00\n  0x20\n  dup5\n  add\n  returndatacopy\n  jump(tag_104)\ntag_105:\n  0x60\n  swap2\n  pop\ntag_104:\n  pop\n    /* \"strategies/StrategyMiniChefLP.sol\":26676:26751  (bool success, bytes memory returndata) = target.call{ value: value }(data) */\n  swap1\n  swap3\n  pop\n  swap1\n  pop\n    /* \"strategies/StrategyMiniChefLP.sol\":26768:26820  _verifyCallResult(success, returndata, errorMessage) */\n  tag_106\n    /* \"strategies/StrategyMiniChefLP.sol\":26676:26751  (bool success, bytes memory returndata) = target.call{ value: value }(data) */\n  dup3\n  dup3\n    /* \"strategies/StrategyMiniChefLP.sol\":26807:26819  errorMessage */\n  dup7\n    /* \"strategies/StrategyMiniChefLP.sol\":26768:26785  _verifyCallResult */\n  tag_107\n    /* \"strategies/StrategyMiniChefLP.sol\":26768:26820  _verifyCallResult(success, returndata, errorMessage) */\n  jump\t// in\ntag_106:\n    /* \"strategies/StrategyMiniChefLP.sol\":26761:26820  return _verifyCallResult(success, returndata, errorMessage) */\n  swap8\n    /* \"strategies/StrategyMiniChefLP.sol\":26304:26827  function functionCallWithValue(address target, bytes memory data, uint256 value, string memory errorMessage) internal returns (bytes memory) {... */\n  swap7\n  pop\n  pop\n  pop\n  pop\n  pop\n  pop\n  pop\n  jump\t// out\n    /* \"strategies/StrategyMiniChefLP.sol\":22422:22835  function isContract(address account) internal view returns (bool) {... */\ntag_98:\n    /* \"strategies/StrategyMiniChefLP.sol\":22782:22802  extcodesize(account) */\n  extcodesize\n    /* \"strategies/StrategyMiniChefLP.sol\":22820:22828  size > 0 */\n  iszero\n  iszero\n  swap1\n    /* \"strategies/StrategyMiniChefLP.sol\":22422:22835  function isContract(address account) internal view returns (bool) {... */\n  jump\t// out\n    /* \"strategies/StrategyMiniChefLP.sol\":28787:29512  function _verifyCallResult(bool success, bytes memory returndata, string memory errorMessage) private pure returns(bytes memory) {... */\ntag_107:\n    /* \"strategies/StrategyMiniChefLP.sol\":28902:28914  bytes memory */\n  0x60\n    /* \"strategies/StrategyMiniChefLP.sol\":28930:28937  success */\n  dup4\n    /* \"strategies/StrategyMiniChefLP.sol\":28926:29506  if (success) {... */\n  iszero\n  tag_110\n  jumpi\n  pop\n    /* \"strategies/StrategyMiniChefLP.sol\":28960:28970  returndata */\n  dup2\n    /* \"strategies/StrategyMiniChefLP.sol\":28953:28970  return returndata */\n  jump(tag_92)\n    /* \"strategies/StrategyMiniChefLP.sol\":28926:29506  if (success) {... */\ntag_110:\n    /* \"strategies/StrategyMiniChefLP.sol\":29071:29088  returndata.length */\n  dup3\n  mload\n    /* \"strategies/StrategyMiniChefLP.sol\":29071:29092  returndata.length > 0 */\n  iszero\n    /* \"strategies/StrategyMiniChefLP.sol\":29067:29496  if (returndata.length > 0) {... */\n  tag_112\n  jumpi\n    /* \"strategies/StrategyMiniChefLP.sol\":29329:29339  returndata */\n  dup3\n    /* \"strategies/StrategyMiniChefLP.sol\":29323:29340  mload(returndata) */\n  mload\n    /* \"strategies/StrategyMiniChefLP.sol\":29389:29404  returndata_size */\n  dup1\n    /* \"strategies/StrategyMiniChefLP.sol\":29376:29386  returndata */\n  dup5\n    /* \"strategies/StrategyMiniChefLP.sol\":29372:29374  32 */\n  0x20\n    /* \"strategies/StrategyMiniChefLP.sol\":29368:29387  add(32, returndata) */\n  add\n    /* \"strategies/StrategyMiniChefLP.sol\":29361:29405  revert(add(32, returndata), returndata_size) */\n  revert\n    /* \"strategies/StrategyMiniChefLP.sol\":29278:29423  {... */\ntag_112:\n    /* \"strategies/StrategyMiniChefLP.sol\":29468:29480  errorMessage */\n  dup2\n    /* \"strategies/StrategyMiniChefLP.sol\":29461:29481  revert(errorMessage) */\n  mload(0x40)\n  shl(0xe5, 0x461bcd)\n  dup2\n  mstore\n  0x04\n  add\n  dup1\n  dup1\n  0x20\n  add\n  dup3\n  dup2\n  sub\n  dup3\n  mstore\n  dup4\n  dup2\n  dup2\n  mload\n  dup2\n  mstore\n  0x20\n  add\n  swap2\n  pop\n  dup1\n  mload\n  swap1\n  0x20\n  add\n  swap1\n  dup1\n  dup4\n  dup4\n  0x00\ntag_114:\n  dup4\n  dup2\n  lt\n  iszero\n  tag_116\n  jumpi\n  dup2\n  dup2\n  add\n  mload\n  dup4\n  dup3\n  add\n  mstore\n  0x20\n  add\n  jump(tag_114)\ntag_116:\n  pop\n  pop\n  pop\n  pop\n  swap1\n  pop\n  swap1\n  dup2\n  add\n  swap1\n  0x1f\n  and\n  dup1\n  iszero\n  tag_117\n  jumpi\n  dup1\n  dup3\n  sub\n  dup1\n  mload\n  0x01\n  dup4\n  0x20\n  sub\n  0x0100\n  exp\n  sub\n  not\n  and\n  dup2\n  mstore\n  0x20\n  add\n  swap2\n  pop\ntag_117:\n  pop\n  swap3\n  pop\n  pop\n  pop\n  mload(0x40)\n  dup1\n  swap2\n  sub\n  swap1\n  revert\n    /* \"strategies/StrategyMiniChefLP.sol\":43044:50704  contract StrategyMiniChef is StratManager, FeeManager {... */\ntag_35:\n  dup3\n  dup1\n  sload\n  dup3\n  dup3\n  sstore\n  swap1\n  0x00\n  mstore\n  keccak256(0x00, 0x20)\n  swap1\n  dup2\n  add\n  swap3\n  dup3\n  iszero\n  tag_120\n  jumpi\n  swap2\n  0x20\n  mul\n  dup3\n  add\ntag_119:\n  dup3\n  dup2\n  gt\n  iszero\n  tag_120\n  jumpi\n  dup3\n  mload\n  dup3\n  sload\n  not(sub(shl(0xa0, 0x01), 0x01))\n  and\n  sub(shl(0xa0, 0x01), 0x01)\n  swap1\n  swap2\n  and\n  or\n  dup3\n  sstore\n  0x20\n  swap1\n  swap3\n  add\n  swap2\n  0x01\n  swap1\n  swap2\n  add\n  swap1\n  jump(tag_119)\ntag_120:\n  pop\n  tag_121\n  swap3\n  swap2\n  pop\n  tag_122\n  jump\t// in\ntag_121:\n  pop\n  swap1\n  jump\t// out\ntag_122:\ntag_123:\n  dup1\n  dup3\n  gt\n  iszero\n  tag_121\n  jumpi\n  dup1\n  sload\n  not(sub(shl(0xa0, 0x01), 0x01))\n  and\n  dup2\n  sstore\n  0x01\n  add\n  jump(tag_123)\ntag_66:\n  dataSize(sub_0)\n  dup1\n  dataOffset(sub_0)\n  0x00\n  codecopy\n  0x00\n  return\nstop\ndata_565f1a77334fc4792800921178c71e4521acffab18ff9e7885b49377ee80ab4c 416464726573733a20696e73756666696369656e742062616c616e636520666f722063616c6c\ndata_e11ad79d1e4a7f2e5f376964cb99e8e8f7904e3fc16a109f7a7ecb9aa7956dcd 5361666545524332303a204552433230206f7065726174696f6e20646964206e6f742073756363656564\ndata_ef945ddb1bfdc0da870feb4560d868b047642b4ac7f2fb7f8b7c51cb4a411e25 5361666545524332303a20617070726f76652066726f6d206e6f6e2d7a65726f20746f206e6f6e2d7a65726f20616c6c6f77616e6365\n\nsub_0: assembly {\n        /* \"strategies/StrategyMiniChefLP.sol\":43044:50704  contract StrategyMiniChef is StratManager, FeeManager {... */\n      mstore(0x40, 0x80)\n      callvalue\n      dup1\n      iszero\n      tag_1\n      jumpi\n      0x00\n      dup1\n      revert\n    tag_1:\n      pop\n      jumpi(tag_2, lt(calldatasize, 0x04))\n      shr(0xe0, calldataload(0x00))\n      dup1\n      0x748747e6\n      gt\n      tag_50\n      jumpi\n      dup1\n      0xc7b9d530\n      gt\n      tag_51\n      jumpi\n      dup1\n      0xf20eaeb8\n      gt\n      tag_52\n      jumpi\n      dup1\n      0xf20eaeb8\n      eq\n      tag_44\n      jumpi\n      dup1\n      0xf2fde38b\n      eq\n      tag_45\n      jumpi\n      dup1\n      0xfb617787\n      eq\n      tag_46\n      jumpi\n      dup1\n      0xfbfa77cf\n      eq\n      tag_47\n      jumpi\n      dup1\n      0xfc61568b\n      eq\n      tag_48\n      jumpi\n      dup1\n      0xfd63a887\n      eq\n      tag_49\n      jumpi\n      jump(tag_2)\n    tag_52:\n      dup1\n      0xc7b9d530\n      eq\n      tag_38\n      jumpi\n      dup1\n      0xd0e30db0\n      eq\n      tag_39\n      jumpi\n      dup1\n      0xd92f3d73\n      eq\n      tag_40\n      jumpi\n      dup1\n      0xdfbdc437\n      eq\n      tag_41\n      jumpi\n      dup1\n      0xe0e4130b\n      eq\n      tag_42\n      jumpi\n      dup1\n      0xf1a392da\n      eq\n      tag_43\n      jumpi\n      jump(tag_2)\n    tag_51:\n      dup1\n      0x90321e1a\n      gt\n      tag_53\n      jumpi\n      dup1\n      0x90321e1a\n      eq\n      tag_32\n      jumpi\n      dup1\n      0xac1e5025\n      eq\n      tag_33\n      jumpi\n      dup1\n      0xaced1661\n      eq\n      tag_34\n      jumpi\n      dup1\n      0xbc063e1a\n      eq\n      tag_35\n      jumpi\n      dup1\n      0xbe12a978\n      eq\n      tag_36\n      jumpi\n      dup1\n      0xc1a3d44c\n      eq\n      tag_37\n      jumpi\n      jump(tag_2)\n    tag_53:\n      dup1\n      0x748747e6\n      eq\n      tag_26\n      jumpi\n      dup1\n      0x7d38ca65\n      eq\n      tag_27\n      jumpi\n      dup1\n      0x8456cb59\n      eq\n      tag_28\n      jumpi\n      dup1\n      0x877562b6\n      eq\n      tag_29\n      jumpi\n      dup1\n      0x8bc7e8c4\n      eq\n      tag_30\n      jumpi\n      dup1\n      0x8da5cb5b\n      eq\n      tag_31\n      jumpi\n      jump(tag_2)\n    tag_50:\n      dup1\n      0x3e0dc34e\n      gt\n      tag_54\n      jumpi\n      dup1\n      0x5c975abb\n      gt\n      tag_55\n      jumpi\n      dup1\n      0x5c975abb\n      eq\n      tag_20\n      jumpi\n      dup1\n      0x5e45da42\n      eq\n      tag_21\n      jumpi\n      dup1\n      0x5ee167c0\n      eq\n      tag_22\n      jumpi\n      dup1\n      0x6817031b\n      eq\n      tag_23\n      jumpi\n      dup1\n      0x715018a6\n      eq\n      tag_24\n      jumpi\n      dup1\n      0x722713f7\n      eq\n      tag_25\n      jumpi\n      jump(tag_2)\n    tag_55:\n      dup1\n      0x3e0dc34e\n      eq\n      tag_14\n      jumpi\n      dup1\n      0x3f4ba83a\n      eq\n      tag_15\n      jumpi\n      dup1\n      0x4641257d\n      eq\n      tag_16\n      jumpi\n      dup1\n      0x4700d305\n      eq\n      tag_17\n      jumpi\n      dup1\n      0x54518b1a\n      eq\n      tag_18\n      jumpi\n      dup1\n      0x573fef0a\n      eq\n      tag_19\n      jumpi\n      jump(tag_2)\n    tag_54:\n      dup1\n      0x1fe4a686\n      gt\n      tag_56\n      jumpi\n      dup1\n      0x1fe4a686\n      eq\n      tag_8\n      jumpi\n      dup1\n      0x257ae0de\n      eq\n      tag_9\n      jumpi\n      dup1\n      0x26465826\n      eq\n      tag_10\n      jumpi\n      dup1\n      0x2ad5a53f\n      eq\n      tag_11\n      jumpi\n      dup1\n      0x2e1a7d4d\n      eq\n      tag_12\n      jumpi\n      dup1\n      0x36c6cf21\n      eq\n      tag_13\n      jumpi\n      jump(tag_2)\n    tag_56:\n      dup1\n      0x05200c9c\n      eq\n      tag_3\n      jumpi\n      dup1\n      0x11588086\n      eq\n      tag_4\n      jumpi\n      dup1\n      0x11b0b42d\n      eq\n      tag_5\n      jumpi\n      dup1\n      0x1f1fcd51\n      eq\n      tag_6\n      jumpi\n      dup1\n      0x1fc8bc5d\n      eq\n      tag_7\n      jumpi\n    tag_2:\n      0x00\n      dup1\n      revert\n        /* \"strategies/StrategyMiniChefLP.sol\":43495:43531  address[] public nativeToOutputRoute */\n    tag_3:\n      tag_57\n      0x04\n      dup1\n      calldatasize\n      sub\n      0x20\n      dup2\n      lt\n      iszero\n      tag_58\n      jumpi\n      0x00\n      dup1\n      revert\n    tag_58:\n      pop\n      calldataload\n      tag_59\n      jump\t// in\n    tag_57:\n      0x40\n      dup1\n      mload\n      sub(shl(0xa0, 0x01), 0x01)\n      swap1\n      swap3\n      and\n      dup3\n      mstore\n      mload\n      swap1\n      dup2\n      swap1\n      sub\n      0x20\n      add\n      swap1\n      return\n        /* \"strategies/StrategyMiniChefLP.sol\":48929:49096  function balanceOfPool() public view returns (uint256) {... */\n    tag_4:\n      tag_60\n      tag_61\n      jump\t// in\n    tag_60:\n      0x40\n      dup1\n      mload\n      swap2\n      dup3\n      mstore\n      mload\n      swap1\n      dup2\n      swap1\n      sub\n      0x20\n      add\n      swap1\n      return\n        /* \"strategies/StrategyMiniChefLP.sol\":43188:43209  address public native */\n    tag_5:\n      tag_57\n      tag_63\n      jump\t// in\n        /* \"strategies/StrategyMiniChefLP.sol\":43242:43261  address public want */\n    tag_6:\n      tag_57\n      tag_65\n      jump\t// in\n        /* \"strategies/StrategyMiniChefLP.sol\":43355:43374  address public chef */\n    tag_7:\n      tag_57\n      tag_67\n      jump\t// in\n        /* \"strategies/StrategyMiniChefLP.sol\":40197:40222  address public strategist */\n    tag_8:\n      tag_57\n      tag_69\n      jump\t// in\n        /* \"strategies/StrategyMiniChefLP.sol\":40228:40252  address public unirouter */\n    tag_9:\n      tag_57\n      tag_71\n      jump\t// in\n        /* \"strategies/StrategyMiniChefLP.sol\":42659:42857  function setCallFee(uint256 _fee) external onlyManager {... */\n    tag_10:\n      tag_72\n      0x04\n      dup1\n      calldatasize\n      sub\n      0x20\n      dup2\n      lt\n      iszero\n      tag_73\n      jumpi\n      0x00\n      dup1\n      revert\n    tag_73:\n      pop\n      calldataload\n      tag_74\n      jump\t// in\n    tag_72:\n      stop\n        /* \"strategies/StrategyMiniChefLP.sol\":42380:42419  uint constant public MAX_CALL_FEE = 111 */\n    tag_11:\n      tag_60\n      tag_76\n      jump\t// in\n        /* \"strategies/StrategyMiniChefLP.sol\":45539:46270  function withdraw(uint256 _amount) external {... */\n    tag_12:\n      tag_72\n      0x04\n      dup1\n      calldatasize\n      sub\n      0x20\n      dup2\n      lt\n      iszero\n      tag_78\n      jumpi\n      0x00\n      dup1\n      revert\n    tag_78:\n      pop\n      calldataload\n      tag_79\n      jump\t// in\n        /* \"strategies/StrategyMiniChefLP.sol\":43537:43570  address[] public outputToLp0Route */\n    tag_13:\n      tag_57\n      0x04\n      dup1\n      calldatasize\n      sub\n      0x20\n      dup2\n      lt\n      iszero\n      tag_81\n      jumpi\n      0x00\n      dup1\n      revert\n    tag_81:\n      pop\n      calldataload\n      tag_82\n      jump\t// in\n        /* \"strategies/StrategyMiniChefLP.sol\":43380:43401  uint256 public poolId */\n    tag_14:\n      tag_60\n      tag_84\n      jump\t// in\n        /* \"strategies/StrategyMiniChefLP.sol\":49772:49887  function unpause() external onlyManager {... */\n    tag_15:\n      tag_72\n      tag_86\n      jump\t// in\n        /* \"strategies/StrategyMiniChefLP.sol\":46330:46589  function harvest() external whenNotPaused onlyEOA {... */\n    tag_16:\n      tag_72\n      tag_88\n      jump\t// in\n        /* \"strategies/StrategyMiniChefLP.sol\":49541:49669  function panic() public onlyManager {... */\n    tag_17:\n      tag_72\n      tag_90\n      jump\t// in\n        /* \"strategies/StrategyMiniChefLP.sol\":42476:42519  uint constant public WITHDRAWAL_MAX = 10000 */\n    tag_18:\n      tag_60\n      tag_92\n      jump\t// in\n        /* \"strategies/StrategyMiniChefLP.sol\":42170:42214  function beforeDeposit() external virtual {} */\n    tag_19:\n      tag_72\n      tag_220\n      jump\t// in\n        /* \"strategies/StrategyMiniChefLP.sol\":38956:39040  function paused() public view virtual returns (bool) {... */\n    tag_20:\n      tag_95\n      tag_96\n      jump\t// in\n    tag_95:\n      0x40\n      dup1\n      mload\n      swap2\n      iszero\n      iszero\n      dup3\n      mstore\n      mload\n      swap1\n      dup2\n      swap1\n      sub\n      0x20\n      add\n      swap1\n      return\n        /* \"strategies/StrategyMiniChefLP.sol\":41900:42036  function setEvolleFeeRecipient(address _evolleFeeRecipient) external onlyOwner {... */\n    tag_21:\n      tag_72\n      0x04\n      dup1\n      calldatasize\n      sub\n      0x20\n      dup2\n      lt\n      iszero\n      tag_98\n      jumpi\n      0x00\n      dup1\n      revert\n    tag_98:\n      pop\n      calldataload\n      sub(shl(0xa0, 0x01), 0x01)\n      and\n      tag_99\n      jump\t// in\n        /* \"strategies/StrategyMiniChefLP.sol\":43267:43290  address public lpToken0 */\n    tag_22:\n      tag_57\n      tag_101\n      jump\t// in\n        /* \"strategies/StrategyMiniChefLP.sol\":41806:41890  function setVault(address _vault) external onlyOwner {... */\n    tag_23:\n      tag_72\n      0x04\n      dup1\n      calldatasize\n      sub\n      0x20\n      dup2\n      lt\n      iszero\n      tag_103\n      jumpi\n      0x00\n      dup1\n      revert\n    tag_103:\n      pop\n      calldataload\n      sub(shl(0xa0, 0x01), 0x01)\n      and\n      tag_104\n      jump\t// in\n        /* \"strategies/StrategyMiniChefLP.sol\":37363:37508  function renounceOwnership() public virtual onlyOwner {... */\n    tag_24:\n      tag_72\n      tag_106\n      jump\t// in\n        /* \"strategies/StrategyMiniChefLP.sol\":48557:48668  function balanceOf() public view returns (uint256) {... */\n    tag_25:\n      tag_60\n      tag_108\n      jump\t// in\n        /* \"strategies/StrategyMiniChefLP.sol\":41103:41193  function setKeeper(address _keeper) external onlyManager {... */\n    tag_26:\n      tag_72\n      0x04\n      dup1\n      calldatasize\n      sub\n      0x20\n      dup2\n      lt\n      iszero\n      tag_110\n      jumpi\n      0x00\n      dup1\n      revert\n    tag_110:\n      pop\n      calldataload\n      sub(shl(0xa0, 0x01), 0x01)\n      and\n      tag_111\n      jump\t// in\n        /* \"strategies/StrategyMiniChefLP.sol\":42294:42333  uint constant public STRATEGIST_FEE = 0 */\n    tag_27:\n      tag_60\n      tag_113\n      jump\t// in\n        /* \"strategies/StrategyMiniChefLP.sol\":49675:49766  function pause() public onlyManager {... */\n    tag_28:\n      tag_72\n      tag_115\n      jump\t// in\n        /* \"strategies/StrategyMiniChefLP.sol\":43296:43319  address public lpToken1 */\n    tag_29:\n      tag_57\n      tag_117\n      jump\t// in\n        /* \"strategies/StrategyMiniChefLP.sol\":42526:42556  uint public withdrawalFee = 10 */\n    tag_30:\n      tag_60\n      tag_119\n      jump\t// in\n        /* \"strategies/StrategyMiniChefLP.sol\":36731:36816  function owner() public view virtual returns (address) {... */\n    tag_31:\n      tag_57\n      tag_121\n      jump\t// in\n        /* \"strategies/StrategyMiniChefLP.sol\":42563:42588  uint public callFee = 111 */\n    tag_32:\n      tag_60\n      tag_123\n      jump\t// in\n        /* \"strategies/StrategyMiniChefLP.sol\":42863:43015  function setWithdrawalFee(uint256 _fee) external onlyManager {... */\n    tag_33:\n      tag_72\n      0x04\n      dup1\n      calldatasize\n      sub\n      0x20\n      dup2\n      lt\n      iszero\n      tag_125\n      jumpi\n      0x00\n      dup1\n      revert\n    tag_125:\n      pop\n      calldataload\n      tag_126\n      jump\t// in\n        /* \"strategies/StrategyMiniChefLP.sol\":40170:40191  address public keeper */\n    tag_34:\n      tag_57\n      tag_128\n      jump\t// in\n        /* \"strategies/StrategyMiniChefLP.sol\":42339:42374  uint constant public MAX_FEE = 1000 */\n    tag_35:\n      tag_60\n      tag_130\n      jump\t// in\n        /* \"strategies/StrategyMiniChefLP.sol\":43453:43489  address[] public outputToNativeRoute */\n    tag_36:\n      tag_57\n      0x04\n      dup1\n      calldatasize\n      sub\n      0x20\n      dup2\n      lt\n      iszero\n      tag_132\n      jumpi\n      0x00\n      dup1\n      revert\n    tag_132:\n      pop\n      calldataload\n      tag_133\n      jump\t// in\n        /* \"strategies/StrategyMiniChefLP.sol\":48732:48848  function balanceOfWant() public view returns (uint256) {... */\n    tag_37:\n      tag_60\n      tag_135\n      jump\t// in\n        /* \"strategies/StrategyMiniChefLP.sol\":41332:41484  function setStrategist(address _strategist) external {... */\n    tag_38:\n      tag_72\n      0x04\n      dup1\n      calldatasize\n      sub\n      0x20\n      dup2\n      lt\n      iszero\n      tag_137\n      jumpi\n      0x00\n      dup1\n      revert\n    tag_137:\n      pop\n      calldataload\n      sub(shl(0xa0, 0x01), 0x01)\n      and\n      tag_138\n      jump\t// in\n        /* \"strategies/StrategyMiniChefLP.sol\":45312:45533  function deposit() public whenNotPaused {... */\n    tag_39:\n      tag_72\n      tag_140\n      jump\t// in\n        /* \"strategies/StrategyMiniChefLP.sol\":41610:41710  function setUnirouter(address _unirouter) external onlyOwner {... */\n    tag_40:\n      tag_72\n      0x04\n      dup1\n      calldatasize\n      sub\n      0x20\n      dup2\n      lt\n      iszero\n      tag_142\n      jumpi\n      0x00\n      dup1\n      revert\n    tag_142:\n      pop\n      calldataload\n      sub(shl(0xa0, 0x01), 0x01)\n      and\n      tag_143\n      jump\t// in\n        /* \"strategies/StrategyMiniChefLP.sol\":42426:42470  uint constant public WITHDRAWAL_FEE_CAP = 50 */\n    tag_41:\n      tag_60\n      tag_145\n      jump\t// in\n        /* \"strategies/StrategyMiniChefLP.sol\":40284:40317  address public evolleFeeRecipient */\n    tag_42:\n      tag_57\n      tag_147\n      jump\t// in\n        /* \"strategies/StrategyMiniChefLP.sol\":43407:43433  uint256 public lastHarvest */\n    tag_43:\n      tag_60\n      tag_149\n      jump\t// in\n        /* \"strategies/StrategyMiniChefLP.sol\":43215:43236  address public output */\n    tag_44:\n      tag_57\n      tag_151\n      jump\t// in\n        /* \"strategies/StrategyMiniChefLP.sol\":37657:37897  function transferOwnership(address newOwner) public virtual onlyOwner {... */\n    tag_45:\n      tag_72\n      0x04\n      dup1\n      calldatasize\n      sub\n      0x20\n      dup2\n      lt\n      iszero\n      tag_153\n      jumpi\n      0x00\n      dup1\n      revert\n    tag_153:\n      pop\n      calldataload\n      sub(shl(0xa0, 0x01), 0x01)\n      and\n      tag_154\n      jump\t// in\n        /* \"strategies/StrategyMiniChefLP.sol\":49193:49462  function retireStrat() external {... */\n    tag_46:\n      tag_72\n      tag_156\n      jump\t// in\n        /* \"strategies/StrategyMiniChefLP.sol\":40258:40278  address public vault */\n    tag_47:\n      tag_57\n      tag_158\n      jump\t// in\n        /* \"strategies/StrategyMiniChefLP.sol\":42594:42652  uint public evolleFee = MAX_FEE - STRATEGIST_FEE - callFee */\n    tag_48:\n      tag_60\n      tag_160\n      jump\t// in\n        /* \"strategies/StrategyMiniChefLP.sol\":43576:43609  address[] public outputToLp1Route */\n    tag_49:\n      tag_57\n      0x04\n      dup1\n      calldatasize\n      sub\n      0x20\n      dup2\n      lt\n      iszero\n      tag_162\n      jumpi\n      0x00\n      dup1\n      revert\n    tag_162:\n      pop\n      calldataload\n      tag_163\n      jump\t// in\n        /* \"strategies/StrategyMiniChefLP.sol\":43495:43531  address[] public nativeToOutputRoute */\n    tag_59:\n      0x12\n      dup2\n      dup2\n      sload\n      dup2\n      lt\n      tag_166\n      jumpi\n      invalid\n    tag_166:\n      0x00\n      swap2\n      dup3\n      mstore\n      0x20\n      swap1\n      swap2\n      keccak256\n      add\n      sload\n      sub(shl(0xa0, 0x01), 0x01)\n      and\n      swap1\n      pop\n      dup2\n      jump\t// out\n        /* \"strategies/StrategyMiniChefLP.sol\":48929:49096  function balanceOfPool() public view returns (uint256) {... */\n    tag_61:\n        /* \"strategies/StrategyMiniChefLP.sol\":49028:49032  chef */\n      sload(0x0e)\n        /* \"strategies/StrategyMiniChefLP.sol\":49043:49049  poolId */\n      sload(0x0f)\n        /* \"strategies/StrategyMiniChefLP.sol\":49016:49065  IMiniChefV2(chef).userInfo(poolId, address(this)) */\n      0x40\n      dup1\n      mload\n      shl(0xe0, 0x93f1a40b)\n      dup2\n      mstore\n      0x04\n      dup2\n      add\n      swap3\n      swap1\n      swap3\n      mstore\n        /* \"strategies/StrategyMiniChefLP.sol\":49059:49063  this */\n      address\n        /* \"strategies/StrategyMiniChefLP.sol\":49016:49065  IMiniChefV2(chef).userInfo(poolId, address(this)) */\n      0x24\n      dup4\n      add\n      mstore\n      dup1\n      mload\n        /* \"strategies/StrategyMiniChefLP.sol\":48975:48982  uint256 */\n      0x00\n      swap4\n      dup5\n      swap4\n      sub(shl(0xa0, 0x01), 0x01)\n        /* \"strategies/StrategyMiniChefLP.sol\":49028:49032  chef */\n      swap1\n      swap2\n      and\n      swap3\n        /* \"strategies/StrategyMiniChefLP.sol\":49016:49042  IMiniChefV2(chef).userInfo */\n      0x93f1a40b\n      swap3\n        /* \"strategies/StrategyMiniChefLP.sol\":49016:49065  IMiniChefV2(chef).userInfo(poolId, address(this)) */\n      0x44\n      dup1\n      dup5\n      add\n      swap4\n      dup3\n      swap1\n      sub\n      add\n      dup2\n        /* \"strategies/StrategyMiniChefLP.sol\":49028:49032  chef */\n      dup7\n        /* \"strategies/StrategyMiniChefLP.sol\":49016:49065  IMiniChefV2(chef).userInfo(poolId, address(this)) */\n      dup1\n      extcodesize\n      iszero\n      dup1\n      iszero\n      tag_169\n      jumpi\n      0x00\n      dup1\n      revert\n    tag_169:\n      pop\n      gas\n      staticcall\n      iszero\n      dup1\n      iszero\n      tag_171\n      jumpi\n      returndatasize\n      0x00\n      dup1\n      returndatacopy\n      revert(0x00, returndatasize)\n    tag_171:\n      pop\n      pop\n      pop\n      pop\n      mload(0x40)\n      returndatasize\n      0x40\n      dup2\n      lt\n      iszero\n      tag_172\n      jumpi\n      0x00\n      dup1\n      revert\n    tag_172:\n      pop\n      mload\n      swap2\n      pop\n      pop\n        /* \"strategies/StrategyMiniChefLP.sol\":48929:49096  function balanceOfPool() public view returns (uint256) {... */\n      swap1\n      jump\t// out\n        /* \"strategies/StrategyMiniChefLP.sol\":43188:43209  address public native */\n    tag_63:\n      and(sub(shl(0xa0, 0x01), 0x01), sload(0x09))\n      dup2\n      jump\t// out\n        /* \"strategies/StrategyMiniChefLP.sol\":43242:43261  address public want */\n    tag_65:\n      and(sub(shl(0xa0, 0x01), 0x01), sload(0x0b))\n      dup2\n      jump\t// out\n        /* \"strategies/StrategyMiniChefLP.sol\":43355:43374  address public chef */\n    tag_67:\n      and(sub(shl(0xa0, 0x01), 0x01), sload(0x0e))\n      dup2\n      jump\t// out\n        /* \"strategies/StrategyMiniChefLP.sol\":40197:40222  address public strategist */\n    tag_69:\n      and(sub(shl(0xa0, 0x01), 0x01), sload(0x02))\n      dup2\n      jump\t// out\n        /* \"strategies/StrategyMiniChefLP.sol\":40228:40252  address public unirouter */\n    tag_71:\n      and(sub(shl(0xa0, 0x01), 0x01), sload(0x03))\n      dup2\n      jump\t// out\n        /* \"strategies/StrategyMiniChefLP.sol\":42659:42857  function setCallFee(uint256 _fee) external onlyManager {... */\n    tag_74:\n        /* \"strategies/StrategyMiniChefLP.sol\":40784:40791  owner() */\n      tag_174\n        /* \"strategies/StrategyMiniChefLP.sol\":40784:40789  owner */\n      tag_121\n        /* \"strategies/StrategyMiniChefLP.sol\":40784:40791  owner() */\n      jump\t// in\n    tag_174:\n      sub(shl(0xa0, 0x01), 0x01)\n        /* \"strategies/StrategyMiniChefLP.sol\":40770:40791  msg.sender == owner() */\n      and\n        /* \"strategies/StrategyMiniChefLP.sol\":40770:40780  msg.sender */\n      caller\n      sub(shl(0xa0, 0x01), 0x01)\n        /* \"strategies/StrategyMiniChefLP.sol\":40770:40791  msg.sender == owner() */\n      and\n      eq\n        /* \"strategies/StrategyMiniChefLP.sol\":40770:40815  msg.sender == owner() || msg.sender == keeper */\n      dup1\n      tag_175\n      jumpi\n      pop\n        /* \"strategies/StrategyMiniChefLP.sol\":40809:40815  keeper */\n      and(sub(shl(0xa0, 0x01), 0x01), sload(0x01))\n        /* \"strategies/StrategyMiniChefLP.sol\":40795:40805  msg.sender */\n      caller\n        /* \"strategies/StrategyMiniChefLP.sol\":40795:40815  msg.sender == keeper */\n      eq\n        /* \"strategies/StrategyMiniChefLP.sol\":40770:40815  msg.sender == owner() || msg.sender == keeper */\n    tag_175:\n        /* \"strategies/StrategyMiniChefLP.sol\":40762:40828  require(msg.sender == owner() || msg.sender == keeper, \"!manager\") */\n      tag_176\n      jumpi\n      0x40\n      dup1\n      mload\n      shl(0xe5, 0x461bcd)\n      dup2\n      mstore\n      0x20\n      0x04\n      dup3\n      add\n      mstore\n      0x08\n      0x24\n      dup3\n      add\n      mstore\n      shl(0xc1, 0x10b6b0b730b3b2b9)\n      0x44\n      dup3\n      add\n      mstore\n      swap1\n      mload\n      swap1\n      dup2\n      swap1\n      sub\n      0x64\n      add\n      swap1\n      revert\n    tag_176:\n        /* \"strategies/StrategyMiniChefLP.sol\":42416:42419  111 */\n      0x6f\n        /* \"strategies/StrategyMiniChefLP.sol\":42732:42736  _fee */\n      dup2\n        /* \"strategies/StrategyMiniChefLP.sol\":42732:42752  _fee <= MAX_CALL_FEE */\n      gt\n      iszero\n        /* \"strategies/StrategyMiniChefLP.sol\":42724:42761  require(_fee <= MAX_CALL_FEE, \"!cap\") */\n      tag_178\n      jumpi\n      0x40\n      dup1\n      mload\n      shl(0xe5, 0x461bcd)\n      dup2\n      mstore\n      0x20\n      0x04\n      dup1\n      dup4\n      add\n      swap2\n      swap1\n      swap2\n      mstore\n      0x24\n      dup3\n      add\n      mstore\n      shl(0xe4, 0x02163617)\n      0x44\n      dup3\n      add\n      mstore\n      swap1\n      mload\n      swap1\n      dup2\n      swap1\n      sub\n      0x64\n      add\n      swap1\n      revert\n    tag_178:\n        /* \"strategies/StrategyMiniChefLP.sol\":42780:42787  callFee */\n      0x07\n        /* \"strategies/StrategyMiniChefLP.sol\":42780:42794  callFee = _fee */\n      dup2\n      swap1\n      sstore\n        /* \"strategies/StrategyMiniChefLP.sol\":42370:42374  1000 */\n      0x03e8\n        /* \"strategies/StrategyMiniChefLP.sol\":42816:42850  MAX_FEE - STRATEGIST_FEE - callFee */\n      sub\n        /* \"strategies/StrategyMiniChefLP.sol\":42804:42813  evolleFee */\n      0x08\n        /* \"strategies/StrategyMiniChefLP.sol\":42804:42850  evolleFee = MAX_FEE - STRATEGIST_FEE - callFee */\n      sstore\n        /* \"strategies/StrategyMiniChefLP.sol\":42659:42857  function setCallFee(uint256 _fee) external onlyManager {... */\n      jump\t// out\n        /* \"strategies/StrategyMiniChefLP.sol\":42380:42419  uint constant public MAX_CALL_FEE = 111 */\n    tag_76:\n        /* \"strategies/StrategyMiniChefLP.sol\":42416:42419  111 */\n      0x6f\n        /* \"strategies/StrategyMiniChefLP.sol\":42380:42419  uint constant public MAX_CALL_FEE = 111 */\n      dup2\n      jump\t// out\n        /* \"strategies/StrategyMiniChefLP.sol\":45539:46270  function withdraw(uint256 _amount) external {... */\n    tag_79:\n        /* \"strategies/StrategyMiniChefLP.sol\":45615:45620  vault */\n      and(sub(shl(0xa0, 0x01), 0x01), sload(0x04))\n        /* \"strategies/StrategyMiniChefLP.sol\":45601:45611  msg.sender */\n      caller\n        /* \"strategies/StrategyMiniChefLP.sol\":45601:45620  msg.sender == vault */\n      eq\n        /* \"strategies/StrategyMiniChefLP.sol\":45593:45631  require(msg.sender == vault, \"!vault\") */\n      tag_180\n      jumpi\n      0x40\n      dup1\n      mload\n      shl(0xe5, 0x461bcd)\n      dup2\n      mstore\n      0x20\n      0x04\n      dup3\n      add\n      mstore\n      0x06\n      0x24\n      dup3\n      add\n      mstore\n      shl(0xd2, 0x085d985d5b1d)\n      0x44\n      dup3\n      add\n      mstore\n      swap1\n      mload\n      swap1\n      dup2\n      swap1\n      sub\n      0x64\n      add\n      swap1\n      revert\n    tag_180:\n        /* \"strategies/StrategyMiniChefLP.sol\":45667:45671  want */\n      sload(0x0b)\n        /* \"strategies/StrategyMiniChefLP.sol\":45660:45697  IERC20(want).balanceOf(address(this)) */\n      0x40\n      dup1\n      mload\n      shl(0xe0, 0x70a08231)\n      dup2\n      mstore\n        /* \"strategies/StrategyMiniChefLP.sol\":45691:45695  this */\n      address\n        /* \"strategies/StrategyMiniChefLP.sol\":45660:45697  IERC20(want).balanceOf(address(this)) */\n      0x04\n      dup3\n      add\n      mstore\n      swap1\n      mload\n        /* \"strategies/StrategyMiniChefLP.sol\":45642:45657  uint256 wantBal */\n      0x00\n      swap3\n      sub(shl(0xa0, 0x01), 0x01)\n        /* \"strategies/StrategyMiniChefLP.sol\":45667:45671  want */\n      and\n      swap2\n        /* \"strategies/StrategyMiniChefLP.sol\":45660:45682  IERC20(want).balanceOf */\n      0x70a08231\n      swap2\n        /* \"strategies/StrategyMiniChefLP.sol\":45660:45697  IERC20(want).balanceOf(address(this)) */\n      0x24\n      dup1\n      dup4\n      add\n      swap3\n      0x20\n      swap3\n      swap2\n      swap1\n      dup3\n      swap1\n      sub\n      add\n      dup2\n        /* \"strategies/StrategyMiniChefLP.sol\":45667:45671  want */\n      dup7\n        /* \"strategies/StrategyMiniChefLP.sol\":45660:45697  IERC20(want).balanceOf(address(this)) */\n      dup1\n      extcodesize\n      iszero\n      dup1\n      iszero\n      tag_181\n      jumpi\n      0x00\n      dup1\n      revert\n    tag_181:\n      pop\n      gas\n      staticcall\n      iszero\n      dup1\n      iszero\n      tag_183\n      jumpi\n      returndatasize\n      0x00\n      dup1\n      returndatacopy\n      revert(0x00, returndatasize)\n    tag_183:\n      pop\n      pop\n      pop\n      pop\n      mload(0x40)\n      returndatasize\n      0x20\n      dup2\n      lt\n      iszero\n      tag_184\n      jumpi\n      0x00\n      dup1\n      revert\n    tag_184:\n      pop\n      mload\n      swap1\n      pop\n        /* \"strategies/StrategyMiniChefLP.sol\":45712:45729  wantBal < _amount */\n      dup2\n      dup2\n      lt\n        /* \"strategies/StrategyMiniChefLP.sol\":45708:45888  if (wantBal < _amount) {... */\n      iszero\n      tag_185\n      jumpi\n        /* \"strategies/StrategyMiniChefLP.sol\":45757:45761  chef */\n      sload(0x0e)\n        /* \"strategies/StrategyMiniChefLP.sol\":45772:45778  poolId */\n      sload(0x0f)\n      sub(shl(0xa0, 0x01), 0x01)\n        /* \"strategies/StrategyMiniChefLP.sol\":45757:45761  chef */\n      swap1\n      swap2\n      and\n      swap1\n        /* \"strategies/StrategyMiniChefLP.sol\":45745:45771  IMiniChefV2(chef).withdraw */\n      0x0ad58d2f\n      swap1\n        /* \"strategies/StrategyMiniChefLP.sol\":45780:45800  _amount.sub(wantBal) */\n      tag_186\n        /* \"strategies/StrategyMiniChefLP.sol\":45780:45787  _amount */\n      dup6\n        /* \"strategies/StrategyMiniChefLP.sol\":45792:45799  wantBal */\n      dup6\n        /* \"strategies/StrategyMiniChefLP.sol\":45780:45791  _amount.sub */\n      tag_187\n        /* \"strategies/StrategyMiniChefLP.sol\":45780:45800  _amount.sub(wantBal) */\n      jump\t// in\n    tag_186:\n        /* \"strategies/StrategyMiniChefLP.sol\":45810:45814  this */\n      address\n        /* \"strategies/StrategyMiniChefLP.sol\":45745:45816  IMiniChefV2(chef).withdraw(poolId, _amount.sub(wantBal), address(this)) */\n      mload(0x40)\n      dup5\n      0xffffffff\n      and\n      0xe0\n      shl\n      dup2\n      mstore\n      0x04\n      add\n      dup1\n      dup5\n      dup2\n      mstore\n      0x20\n      add\n      dup4\n      dup2\n      mstore\n      0x20\n      add\n      dup3\n      sub(shl(0xa0, 0x01), 0x01)\n      and\n      dup2\n      mstore\n      0x20\n      add\n      swap4\n      pop\n      pop\n      pop\n      pop\n      0x00\n      mload(0x40)\n      dup1\n      dup4\n      sub\n      dup2\n      0x00\n      dup8\n      dup1\n      extcodesize\n      iszero\n      dup1\n      iszero\n      tag_188\n      jumpi\n      0x00\n      dup1\n      revert\n    tag_188:\n      pop\n      gas\n      call\n      iszero\n      dup1\n      iszero\n      tag_190\n      jumpi\n      returndatasize\n      0x00\n      dup1\n      returndatacopy\n      revert(0x00, returndatasize)\n    tag_190:\n      pop\n      pop\n        /* \"strategies/StrategyMiniChefLP.sol\":45847:45851  want */\n      sload(0x0b)\n        /* \"strategies/StrategyMiniChefLP.sol\":45840:45877  IERC20(want).balanceOf(address(this)) */\n      0x40\n      dup1\n      mload\n      shl(0xe0, 0x70a08231)\n      dup2\n      mstore\n        /* \"strategies/StrategyMiniChefLP.sol\":45871:45875  this */\n      address\n        /* \"strategies/StrategyMiniChefLP.sol\":45840:45877  IERC20(want).balanceOf(address(this)) */\n      0x04\n      dup3\n      add\n      mstore\n      swap1\n      mload\n      sub(shl(0xa0, 0x01), 0x01)\n        /* \"strategies/StrategyMiniChefLP.sol\":45847:45851  want */\n      swap1\n      swap3\n      and\n      swap4\n      pop\n        /* \"strategies/StrategyMiniChefLP.sol\":45840:45862  IERC20(want).balanceOf */\n      0x70a08231\n      swap3\n      pop\n        /* \"strategies/StrategyMiniChefLP.sol\":45840:45877  IERC20(want).balanceOf(address(this)) */\n      0x24\n      dup1\n      dup3\n      add\n      swap3\n      0x20\n      swap3\n      swap1\n      swap2\n      swap1\n      dup3\n      swap1\n      sub\n      add\n      dup2\n        /* \"strategies/StrategyMiniChefLP.sol\":45847:45851  want */\n      dup7\n        /* \"strategies/StrategyMiniChefLP.sol\":45840:45877  IERC20(want).balanceOf(address(this)) */\n      dup1\n      extcodesize\n      iszero\n      dup1\n      iszero\n      tag_191\n      jumpi\n      0x00\n      dup1\n      revert\n    tag_191:\n      pop\n      gas\n      staticcall\n      iszero\n      dup1\n      iszero\n      tag_193\n      jumpi\n      returndatasize\n      0x00\n      dup1\n      returndatacopy\n      revert(0x00, returndatasize)\n    tag_193:\n      pop\n      pop\n      pop\n      pop\n      mload(0x40)\n      returndatasize\n      0x20\n      dup2\n      lt\n      iszero\n      tag_194\n      jumpi\n      0x00\n      dup1\n      revert\n    tag_194:\n      pop\n      mload\n      swap1\n      pop\n        /* \"strategies/StrategyMiniChefLP.sol\":45708:45888  if (wantBal < _amount) {... */\n    tag_185:\n        /* \"strategies/StrategyMiniChefLP.sol\":45912:45919  _amount */\n      dup2\n        /* \"strategies/StrategyMiniChefLP.sol\":45902:45909  wantBal */\n      dup2\n        /* \"strategies/StrategyMiniChefLP.sol\":45902:45919  wantBal > _amount */\n      gt\n        /* \"strategies/StrategyMiniChefLP.sol\":45898:45963  if (wantBal > _amount) {... */\n      iszero\n      tag_195\n      jumpi\n      pop\n        /* \"strategies/StrategyMiniChefLP.sol\":45945:45952  _amount */\n      dup1\n        /* \"strategies/StrategyMiniChefLP.sol\":45898:45963  if (wantBal > _amount) {... */\n    tag_195:\n        /* \"strategies/StrategyMiniChefLP.sol\":45990:45997  owner() */\n      tag_196\n        /* \"strategies/StrategyMiniChefLP.sol\":45990:45995  owner */\n      tag_121\n        /* \"strategies/StrategyMiniChefLP.sol\":45990:45997  owner() */\n      jump\t// in\n    tag_196:\n      sub(shl(0xa0, 0x01), 0x01)\n        /* \"strategies/StrategyMiniChefLP.sol\":45977:45997  tx.origin == owner() */\n      and\n        /* \"strategies/StrategyMiniChefLP.sol\":45977:45986  tx.origin */\n      origin\n      sub(shl(0xa0, 0x01), 0x01)\n        /* \"strategies/StrategyMiniChefLP.sol\":45977:45997  tx.origin == owner() */\n      and\n      eq\n        /* \"strategies/StrategyMiniChefLP.sol\":45977:46009  tx.origin == owner() || paused() */\n      dup1\n      tag_198\n      jumpi\n      pop\n        /* \"strategies/StrategyMiniChefLP.sol\":46001:46009  paused() */\n      tag_198\n        /* \"strategies/StrategyMiniChefLP.sol\":46001:46007  paused */\n      tag_96\n        /* \"strategies/StrategyMiniChefLP.sol\":46001:46009  paused() */\n      jump\t// in\n    tag_198:\n        /* \"strategies/StrategyMiniChefLP.sol\":45973:46264  if (tx.origin == owner() || paused()) {... */\n      iszero\n      tag_199\n      jumpi\n        /* \"strategies/StrategyMiniChefLP.sol\":46051:46056  vault */\n      sload(0x04)\n        /* \"strategies/StrategyMiniChefLP.sol\":46032:46036  want */\n      sload(0x0b)\n        /* \"strategies/StrategyMiniChefLP.sol\":46025:46066  IERC20(want).safeTransfer(vault, wantBal) */\n      tag_200\n      swap2\n      sub(shl(0xa0, 0x01), 0x01)\n        /* \"strategies/StrategyMiniChefLP.sol\":46032:46036  want */\n      swap2\n      dup3\n      and\n      swap2\n        /* \"strategies/StrategyMiniChefLP.sol\":46051:46056  vault */\n      and\n        /* \"strategies/StrategyMiniChefLP.sol\":46058:46065  wantBal */\n      dup4\n        /* \"strategies/StrategyMiniChefLP.sol\":46025:46050  IERC20(want).safeTransfer */\n      tag_201\n        /* \"strategies/StrategyMiniChefLP.sol\":46025:46066  IERC20(want).safeTransfer(vault, wantBal) */\n      jump\t// in\n    tag_200:\n        /* \"strategies/StrategyMiniChefLP.sol\":45973:46264  if (tx.origin == owner() || paused()) {... */\n      jump(tag_202)\n    tag_199:\n        /* \"strategies/StrategyMiniChefLP.sol\":46097:46124  uint256 withdrawalFeeAmount */\n      0x00\n        /* \"strategies/StrategyMiniChefLP.sol\":46127:46173  wantBal.mul(withdrawalFee).div(WITHDRAWAL_MAX) */\n      tag_203\n        /* \"strategies/StrategyMiniChefLP.sol\":42514:42519  10000 */\n      0x2710\n        /* \"strategies/StrategyMiniChefLP.sol\":46127:46153  wantBal.mul(withdrawalFee) */\n      tag_204\n        /* \"strategies/StrategyMiniChefLP.sol\":46139:46152  withdrawalFee */\n      sload(0x06)\n        /* \"strategies/StrategyMiniChefLP.sol\":46127:46134  wantBal */\n      dup6\n        /* \"strategies/StrategyMiniChefLP.sol\":46127:46138  wantBal.mul */\n      tag_205\n      swap1\n        /* \"strategies/StrategyMiniChefLP.sol\":46127:46153  wantBal.mul(withdrawalFee) */\n      swap2\n      swap1\n      0xffffffff\n      and\n      jump\t// in\n    tag_204:\n        /* \"strategies/StrategyMiniChefLP.sol\":46127:46157  wantBal.mul(withdrawalFee).div */\n      swap1\n      tag_206\n        /* \"strategies/StrategyMiniChefLP.sol\":46127:46173  wantBal.mul(withdrawalFee).div(WITHDRAWAL_MAX) */\n      jump\t// in\n    tag_203:\n        /* \"strategies/StrategyMiniChefLP.sol\":46213:46218  vault */\n      sload(0x04)\n        /* \"strategies/StrategyMiniChefLP.sol\":46097:46173  uint256 withdrawalFeeAmount = wantBal.mul(withdrawalFee).div(WITHDRAWAL_MAX) */\n      swap1\n      swap2\n      pop\n        /* \"strategies/StrategyMiniChefLP.sol\":46187:46253  IERC20(want).safeTransfer(vault, wantBal.sub(withdrawalFeeAmount)) */\n      tag_207\n      swap1\n      sub(shl(0xa0, 0x01), 0x01)\n        /* \"strategies/StrategyMiniChefLP.sol\":46213:46218  vault */\n      and\n        /* \"strategies/StrategyMiniChefLP.sol\":46220:46252  wantBal.sub(withdrawalFeeAmount) */\n      tag_208\n        /* \"strategies/StrategyMiniChefLP.sol\":46220:46227  wantBal */\n      dup5\n        /* \"strategies/StrategyMiniChefLP.sol\":46097:46173  uint256 withdrawalFeeAmount = wantBal.mul(withdrawalFee).div(WITHDRAWAL_MAX) */\n      dup5\n        /* \"strategies/StrategyMiniChefLP.sol\":46220:46231  wantBal.sub */\n      tag_187\n        /* \"strategies/StrategyMiniChefLP.sol\":46220:46252  wantBal.sub(withdrawalFeeAmount) */\n      jump\t// in\n    tag_208:\n        /* \"strategies/StrategyMiniChefLP.sol\":46194:46198  want */\n      and(sub(shl(0xa0, 0x01), 0x01), sload(0x0b))\n      swap2\n        /* \"strategies/StrategyMiniChefLP.sol\":46187:46253  IERC20(want).safeTransfer(vault, wantBal.sub(withdrawalFeeAmount)) */\n      swap1\n        /* \"strategies/StrategyMiniChefLP.sol\":46187:46212  IERC20(want).safeTransfer */\n      tag_201\n        /* \"strategies/StrategyMiniChefLP.sol\":46187:46253  IERC20(want).safeTransfer(vault, wantBal.sub(withdrawalFeeAmount)) */\n      jump\t// in\n    tag_207:\n        /* \"strategies/StrategyMiniChefLP.sol\":45973:46264  if (tx.origin == owner() || paused()) {... */\n      pop\n    tag_202:\n        /* \"strategies/StrategyMiniChefLP.sol\":45539:46270  function withdraw(uint256 _amount) external {... */\n      pop\n      pop\n      jump\t// out\n        /* \"strategies/StrategyMiniChefLP.sol\":43537:43570  address[] public outputToLp0Route */\n    tag_82:\n      0x13\n      dup2\n      dup2\n      sload\n      dup2\n      lt\n      tag_166\n      jumpi\n      invalid\n        /* \"strategies/StrategyMiniChefLP.sol\":43380:43401  uint256 public poolId */\n    tag_84:\n      sload(0x0f)\n      dup2\n      jump\t// out\n        /* \"strategies/StrategyMiniChefLP.sol\":49772:49887  function unpause() external onlyManager {... */\n    tag_86:\n        /* \"strategies/StrategyMiniChefLP.sol\":40784:40791  owner() */\n      tag_212\n        /* \"strategies/StrategyMiniChefLP.sol\":40784:40789  owner */\n      tag_121\n        /* \"strategies/StrategyMiniChefLP.sol\":40784:40791  owner() */\n      jump\t// in\n    tag_212:\n      sub(shl(0xa0, 0x01), 0x01)\n        /* \"strategies/StrategyMiniChefLP.sol\":40770:40791  msg.sender == owner() */\n      and\n        /* \"strategies/StrategyMiniChefLP.sol\":40770:40780  msg.sender */\n      caller\n      sub(shl(0xa0, 0x01), 0x01)\n        /* \"strategies/StrategyMiniChefLP.sol\":40770:40791  msg.sender == owner() */\n      and\n      eq\n        /* \"strategies/StrategyMiniChefLP.sol\":40770:40815  msg.sender == owner() || msg.sender == keeper */\n      dup1\n      tag_213\n      jumpi\n      pop\n        /* \"strategies/StrategyMiniChefLP.sol\":40809:40815  keeper */\n      and(sub(shl(0xa0, 0x01), 0x01), sload(0x01))\n        /* \"strategies/StrategyMiniChefLP.sol\":40795:40805  msg.sender */\n      caller\n        /* \"strategies/StrategyMiniChefLP.sol\":40795:40815  msg.sender == keeper */\n      eq\n        /* \"strategies/StrategyMiniChefLP.sol\":40770:40815  msg.sender == owner() || msg.sender == keeper */\n    tag_213:\n        /* \"strategies/StrategyMiniChefLP.sol\":40762:40828  require(msg.sender == owner() || msg.sender == keeper, \"!manager\") */\n      tag_214\n      jumpi\n      0x40\n      dup1\n      mload\n      shl(0xe5, 0x461bcd)\n      dup2\n      mstore\n      0x20\n      0x04\n      dup3\n      add\n      mstore\n      0x08\n      0x24\n      dup3\n      add\n      mstore\n      shl(0xc1, 0x10b6b0b730b3b2b9)\n      0x44\n      dup3\n      add\n      mstore\n      swap1\n      mload\n      swap1\n      dup2\n      swap1\n      sub\n      0x64\n      add\n      swap1\n      revert\n    tag_214:\n        /* \"strategies/StrategyMiniChefLP.sol\":49822:49832  _unpause() */\n      tag_216\n        /* \"strategies/StrategyMiniChefLP.sol\":49822:49830  _unpause */\n      tag_217\n        /* \"strategies/StrategyMiniChefLP.sol\":49822:49832  _unpause() */\n      jump\t// in\n    tag_216:\n        /* \"strategies/StrategyMiniChefLP.sol\":49843:49860  _giveAllowances() */\n      tag_218\n        /* \"strategies/StrategyMiniChefLP.sol\":49843:49858  _giveAllowances */\n      tag_219\n        /* \"strategies/StrategyMiniChefLP.sol\":49843:49860  _giveAllowances() */\n      jump\t// in\n    tag_218:\n        /* \"strategies/StrategyMiniChefLP.sol\":49871:49880  deposit() */\n      tag_220\n        /* \"strategies/StrategyMiniChefLP.sol\":49871:49878  deposit */\n      tag_140\n        /* \"strategies/StrategyMiniChefLP.sol\":49871:49880  deposit() */\n      jump\t// in\n    tag_220:\n        /* \"strategies/StrategyMiniChefLP.sol\":49772:49887  function unpause() external onlyManager {... */\n      jump\t// out\n        /* \"strategies/StrategyMiniChefLP.sol\":46330:46589  function harvest() external whenNotPaused onlyEOA {... */\n    tag_88:\n        /* \"strategies/StrategyMiniChefLP.sol\":39270:39278  paused() */\n      tag_222\n        /* \"strategies/StrategyMiniChefLP.sol\":39270:39276  paused */\n      tag_96\n        /* \"strategies/StrategyMiniChefLP.sol\":39270:39278  paused() */\n      jump\t// in\n    tag_222:\n        /* \"strategies/StrategyMiniChefLP.sol\":39269:39278  !paused() */\n      iszero\n        /* \"strategies/StrategyMiniChefLP.sol\":39261:39299  require(!paused(), \"Pausable: paused\") */\n      tag_223\n      jumpi\n      0x40\n      dup1\n      mload\n      shl(0xe5, 0x461bcd)\n      dup2\n      mstore\n      0x20\n      0x04\n      dup3\n      add\n      mstore\n      0x10\n      0x24\n      dup3\n      add\n      mstore\n      shl(0x82, 0x14185d5cd8589b194e881c185d5cd959)\n      0x44\n      dup3\n      add\n      mstore\n      swap1\n      mload\n      swap1\n      dup2\n      swap1\n      sub\n      0x64\n      add\n      swap1\n      revert\n    tag_223:\n        /* \"strategies/StrategyMiniChefLP.sol\":40940:40950  msg.sender */\n      caller\n        /* \"strategies/StrategyMiniChefLP.sol\":40954:40963  tx.origin */\n      origin\n        /* \"strategies/StrategyMiniChefLP.sol\":40940:40963  msg.sender == tx.origin */\n      eq\n        /* \"strategies/StrategyMiniChefLP.sol\":40932:40972  require(msg.sender == tx.origin, \"!EOA\") */\n      tag_225\n      jumpi\n      0x40\n      dup1\n      mload\n      shl(0xe5, 0x461bcd)\n      dup2\n      mstore\n      0x20\n      0x04\n      dup1\n      dup4\n      add\n      swap2\n      swap1\n      swap2\n      mstore\n      0x24\n      dup3\n      add\n      mstore\n      shl(0xe0, 0x21454f41)\n      0x44\n      dup3\n      add\n      mstore\n      swap1\n      mload\n      swap1\n      dup2\n      swap1\n      sub\n      0x64\n      add\n      swap1\n      revert\n    tag_225:\n        /* \"strategies/StrategyMiniChefLP.sol\":46402:46406  chef */\n      sload(0x0e)\n        /* \"strategies/StrategyMiniChefLP.sol\":46416:46422  poolId */\n      sload(0x0f)\n        /* \"strategies/StrategyMiniChefLP.sol\":46390:46438  IMiniChefV2(chef).harvest(poolId, address(this)) */\n      0x40\n      dup1\n      mload\n      shl(0xe1, 0x0c7e663b)\n      dup2\n      mstore\n      0x04\n      dup2\n      add\n      swap3\n      swap1\n      swap3\n      mstore\n        /* \"strategies/StrategyMiniChefLP.sol\":46432:46436  this */\n      address\n        /* \"strategies/StrategyMiniChefLP.sol\":46390:46438  IMiniChefV2(chef).harvest(poolId, address(this)) */\n      0x24\n      dup4\n      add\n      mstore\n      mload\n      sub(shl(0xa0, 0x01), 0x01)\n        /* \"strategies/StrategyMiniChefLP.sol\":46402:46406  chef */\n      swap1\n      swap3\n      and\n      swap2\n        /* \"strategies/StrategyMiniChefLP.sol\":46390:46415  IMiniChefV2(chef).harvest */\n      0x18fccc76\n      swap2\n        /* \"strategies/StrategyMiniChefLP.sol\":46390:46438  IMiniChefV2(chef).harvest(poolId, address(this)) */\n      0x44\n      dup1\n      dup3\n      add\n      swap3\n        /* \"strategies/StrategyMiniChefLP.sol\":46402:46406  chef */\n      0x00\n      swap3\n        /* \"strategies/StrategyMiniChefLP.sol\":46390:46438  IMiniChefV2(chef).harvest(poolId, address(this)) */\n      swap1\n      swap2\n      swap1\n      dup3\n      swap1\n      sub\n      add\n      dup2\n        /* \"strategies/StrategyMiniChefLP.sol\":46402:46406  chef */\n      dup4\n      dup8\n        /* \"strategies/StrategyMiniChefLP.sol\":46390:46438  IMiniChefV2(chef).harvest(poolId, address(this)) */\n      dup1\n      extcodesize\n      iszero\n      dup1\n      iszero\n      tag_227\n      jumpi\n      0x00\n      dup1\n      revert\n    tag_227:\n      pop\n      gas\n      call\n      iszero\n      dup1\n      iszero\n      tag_229\n      jumpi\n      returndatasize\n      0x00\n      dup1\n      returndatacopy\n      revert(0x00, returndatasize)\n    tag_229:\n      pop\n      pop\n      pop\n      pop\n        /* \"strategies/StrategyMiniChefLP.sol\":46448:46460  chargeFees() */\n      tag_230\n        /* \"strategies/StrategyMiniChefLP.sol\":46448:46458  chargeFees */\n      tag_231\n        /* \"strategies/StrategyMiniChefLP.sol\":46448:46460  chargeFees() */\n      jump\t// in\n    tag_230:\n        /* \"strategies/StrategyMiniChefLP.sol\":46470:46484  addLiquidity() */\n      tag_232\n        /* \"strategies/StrategyMiniChefLP.sol\":46470:46482  addLiquidity */\n      tag_233\n        /* \"strategies/StrategyMiniChefLP.sol\":46470:46484  addLiquidity() */\n      jump\t// in\n    tag_232:\n        /* \"strategies/StrategyMiniChefLP.sol\":46494:46503  deposit() */\n      tag_234\n        /* \"strategies/StrategyMiniChefLP.sol\":46494:46501  deposit */\n      tag_140\n        /* \"strategies/StrategyMiniChefLP.sol\":46494:46503  deposit() */\n      jump\t// in\n    tag_234:\n        /* \"strategies/StrategyMiniChefLP.sol\":46528:46543  block.timestamp */\n      timestamp\n        /* \"strategies/StrategyMiniChefLP.sol\":46514:46525  lastHarvest */\n      0x10\n        /* \"strategies/StrategyMiniChefLP.sol\":46514:46543  lastHarvest = block.timestamp */\n      sstore\n        /* \"strategies/StrategyMiniChefLP.sol\":46558:46582  StratHarvest(msg.sender) */\n      mload(0x40)\n        /* \"strategies/StrategyMiniChefLP.sol\":46571:46581  msg.sender */\n      caller\n      swap1\n        /* \"strategies/StrategyMiniChefLP.sol\":46558:46582  StratHarvest(msg.sender) */\n      0x577a37fdb49a88d66684922c6f913df5239b4f214b2b97c53ef8e3bbb2034cb5\n      swap1\n      0x00\n      swap1\n      log2\n        /* \"strategies/StrategyMiniChefLP.sol\":46330:46589  function harvest() external whenNotPaused onlyEOA {... */\n      jump\t// out\n        /* \"strategies/StrategyMiniChefLP.sol\":49541:49669  function panic() public onlyManager {... */\n    tag_90:\n        /* \"strategies/StrategyMiniChefLP.sol\":40784:40791  owner() */\n      tag_236\n        /* \"strategies/StrategyMiniChefLP.sol\":40784:40789  owner */\n      tag_121\n        /* \"strategies/StrategyMiniChefLP.sol\":40784:40791  owner() */\n      jump\t// in\n    tag_236:\n      sub(shl(0xa0, 0x01), 0x01)\n        /* \"strategies/StrategyMiniChefLP.sol\":40770:40791  msg.sender == owner() */\n      and\n        /* \"strategies/StrategyMiniChefLP.sol\":40770:40780  msg.sender */\n      caller\n      sub(shl(0xa0, 0x01), 0x01)\n        /* \"strategies/StrategyMiniChefLP.sol\":40770:40791  msg.sender == owner() */\n      and\n      eq\n        /* \"strategies/StrategyMiniChefLP.sol\":40770:40815  msg.sender == owner() || msg.sender == keeper */\n      dup1\n      tag_237\n      jumpi\n      pop\n        /* \"strategies/StrategyMiniChefLP.sol\":40809:40815  keeper */\n      and(sub(shl(0xa0, 0x01), 0x01), sload(0x01))\n        /* \"strategies/StrategyMiniChefLP.sol\":40795:40805  msg.sender */\n      caller\n        /* \"strategies/StrategyMiniChefLP.sol\":40795:40815  msg.sender == keeper */\n      eq\n        /* \"strategies/StrategyMiniChefLP.sol\":40770:40815  msg.sender == owner() || msg.sender == keeper */\n    tag_237:\n        /* \"strategies/StrategyMiniChefLP.sol\":40762:40828  require(msg.sender == owner() || msg.sender == keeper, \"!manager\") */\n      tag_238\n      jumpi\n      0x40\n      dup1\n      mload\n      shl(0xe5, 0x461bcd)\n      dup2\n      mstore\n      0x20\n      0x04\n      dup3\n      add\n      mstore\n      0x08\n      0x24\n      dup3\n      add\n      mstore\n      shl(0xc1, 0x10b6b0b730b3b2b9)\n      0x44\n      dup3\n      add\n      mstore\n      swap1\n      mload\n      swap1\n      dup2\n      swap1\n      sub\n      0x64\n      add\n      swap1\n      revert\n    tag_238:\n        /* \"strategies/StrategyMiniChefLP.sol\":49587:49594  pause() */\n      tag_240\n        /* \"strategies/StrategyMiniChefLP.sol\":49587:49592  pause */\n      tag_115\n        /* \"strategies/StrategyMiniChefLP.sol\":49587:49594  pause() */\n      jump\t// in\n    tag_240:\n        /* \"strategies/StrategyMiniChefLP.sol\":49616:49620  chef */\n      sload(0x0e)\n        /* \"strategies/StrategyMiniChefLP.sol\":49640:49646  poolId */\n      sload(0x0f)\n        /* \"strategies/StrategyMiniChefLP.sol\":49604:49662  IMiniChefV2(chef).emergencyWithdraw(poolId, address(this)) */\n      0x40\n      dup1\n      mload\n      shl(0xe4, 0x02f940c7)\n      dup2\n      mstore\n      0x04\n      dup2\n      add\n      swap3\n      swap1\n      swap3\n      mstore\n        /* \"strategies/StrategyMiniChefLP.sol\":49656:49660  this */\n      address\n        /* \"strategies/StrategyMiniChefLP.sol\":49604:49662  IMiniChefV2(chef).emergencyWithdraw(poolId, address(this)) */\n      0x24\n      dup4\n      add\n      mstore\n      mload\n      sub(shl(0xa0, 0x01), 0x01)\n        /* \"strategies/StrategyMiniChefLP.sol\":49616:49620  chef */\n      swap1\n      swap3\n      and\n      swap2\n        /* \"strategies/StrategyMiniChefLP.sol\":49604:49639  IMiniChefV2(chef).emergencyWithdraw */\n      0x2f940c70\n      swap2\n        /* \"strategies/StrategyMiniChefLP.sol\":49604:49662  IMiniChefV2(chef).emergencyWithdraw(poolId, address(this)) */\n      0x44\n      dup1\n      dup3\n      add\n      swap3\n        /* \"strategies/StrategyMiniChefLP.sol\":49616:49620  chef */\n      0x00\n      swap3\n        /* \"strategies/StrategyMiniChefLP.sol\":49604:49662  IMiniChefV2(chef).emergencyWithdraw(poolId, address(this)) */\n      swap1\n      swap2\n      swap1\n      dup3\n      swap1\n      sub\n      add\n      dup2\n        /* \"strategies/StrategyMiniChefLP.sol\":49616:49620  chef */\n      dup4\n      dup8\n        /* \"strategies/StrategyMiniChefLP.sol\":49604:49662  IMiniChefV2(chef).emergencyWithdraw(poolId, address(this)) */\n      dup1\n      extcodesize\n      iszero\n      dup1\n      iszero\n      tag_241\n      jumpi\n      0x00\n      dup1\n      revert\n    tag_241:\n      pop\n      gas\n      call\n      iszero\n      dup1\n      iszero\n      tag_243\n      jumpi\n      returndatasize\n      0x00\n      dup1\n      returndatacopy\n      revert(0x00, returndatasize)\n    tag_243:\n      pop\n      pop\n      pop\n      pop\n        /* \"strategies/StrategyMiniChefLP.sol\":49541:49669  function panic() public onlyManager {... */\n      jump\t// out\n        /* \"strategies/StrategyMiniChefLP.sol\":42476:42519  uint constant public WITHDRAWAL_MAX = 10000 */\n    tag_92:\n        /* \"strategies/StrategyMiniChefLP.sol\":42514:42519  10000 */\n      0x2710\n        /* \"strategies/StrategyMiniChefLP.sol\":42476:42519  uint constant public WITHDRAWAL_MAX = 10000 */\n      dup2\n      jump\t// out\n        /* \"strategies/StrategyMiniChefLP.sol\":38956:39040  function paused() public view virtual returns (bool) {... */\n    tag_96:\n        /* \"strategies/StrategyMiniChefLP.sol\":39003:39007  bool */\n      0x00\n        /* \"strategies/StrategyMiniChefLP.sol\":39026:39033  _paused */\n      sload\n      shl(0xa0, 0x01)\n      swap1\n      div\n      0xff\n      and\n      swap1\n        /* \"strategies/StrategyMiniChefLP.sol\":38956:39040  function paused() public view virtual returns (bool) {... */\n      jump\t// out\n        /* \"strategies/StrategyMiniChefLP.sol\":41900:42036  function setEvolleFeeRecipient(address _evolleFeeRecipient) external onlyOwner {... */\n    tag_99:\n        /* \"strategies/StrategyMiniChefLP.sol\":36954:36966  _msgSender() */\n      tag_247\n        /* \"strategies/StrategyMiniChefLP.sol\":36954:36964  _msgSender */\n      tag_248\n        /* \"strategies/StrategyMiniChefLP.sol\":36954:36966  _msgSender() */\n      jump\t// in\n    tag_247:\n      sub(shl(0xa0, 0x01), 0x01)\n        /* \"strategies/StrategyMiniChefLP.sol\":36943:36966  owner() == _msgSender() */\n      and\n        /* \"strategies/StrategyMiniChefLP.sol\":36943:36950  owner() */\n      tag_249\n        /* \"strategies/StrategyMiniChefLP.sol\":36943:36948  owner */\n      tag_121\n        /* \"strategies/StrategyMiniChefLP.sol\":36943:36950  owner() */\n      jump\t// in\n    tag_249:\n      sub(shl(0xa0, 0x01), 0x01)\n        /* \"strategies/StrategyMiniChefLP.sol\":36943:36966  owner() == _msgSender() */\n      and\n      eq\n        /* \"strategies/StrategyMiniChefLP.sol\":36935:37003  require(owner() == _msgSender(), \"Ownable: caller is not the owner\") */\n      tag_250\n      jumpi\n      0x40\n      dup1\n      mload\n      shl(0xe5, 0x461bcd)\n      dup2\n      mstore\n      0x20\n      0x04\n      dup3\n      add\n      dup2\n      swap1\n      mstore\n      0x24\n      dup3\n      add\n      mstore\n      0x00\n      dup1\n      mload\n      0x20\n      data_9924ebdf1add33d25d4ef888e16131f0a5687b0580a36c21b5c301a6c462effe\n      dup4\n      codecopy\n      dup2\n      mload\n      swap2\n      mstore\n      0x44\n      dup3\n      add\n      mstore\n      swap1\n      mload\n      swap1\n      dup2\n      swap1\n      sub\n      0x64\n      add\n      swap1\n      revert\n    tag_250:\n        /* \"strategies/StrategyMiniChefLP.sol\":41989:42007  evolleFeeRecipient */\n      0x05\n        /* \"strategies/StrategyMiniChefLP.sol\":41989:42029  evolleFeeRecipient = _evolleFeeRecipient */\n      dup1\n      sload\n      not(sub(shl(0xa0, 0x01), 0x01))\n      and\n      sub(shl(0xa0, 0x01), 0x01)\n      swap3\n      swap1\n      swap3\n      and\n      swap2\n      swap1\n      swap2\n      or\n      swap1\n      sstore\n        /* \"strategies/StrategyMiniChefLP.sol\":41900:42036  function setEvolleFeeRecipient(address _evolleFeeRecipient) external onlyOwner {... */\n      jump\t// out\n        /* \"strategies/StrategyMiniChefLP.sol\":43267:43290  address public lpToken0 */\n    tag_101:\n      and(sub(shl(0xa0, 0x01), 0x01), sload(0x0c))\n      dup2\n      jump\t// out\n        /* \"strategies/StrategyMiniChefLP.sol\":41806:41890  function setVault(address _vault) external onlyOwner {... */\n    tag_104:\n        /* \"strategies/StrategyMiniChefLP.sol\":36954:36966  _msgSender() */\n      tag_253\n        /* \"strategies/StrategyMiniChefLP.sol\":36954:36964  _msgSender */\n      tag_248\n        /* \"strategies/StrategyMiniChefLP.sol\":36954:36966  _msgSender() */\n      jump\t// in\n    tag_253:\n      sub(shl(0xa0, 0x01), 0x01)\n        /* \"strategies/StrategyMiniChefLP.sol\":36943:36966  owner() == _msgSender() */\n      and\n        /* \"strategies/StrategyMiniChefLP.sol\":36943:36950  owner() */\n      tag_254\n        /* \"strategies/StrategyMiniChefLP.sol\":36943:36948  owner */\n      tag_121\n        /* \"strategies/StrategyMiniChefLP.sol\":36943:36950  owner() */\n      jump\t// in\n    tag_254:\n      sub(shl(0xa0, 0x01), 0x01)\n        /* \"strategies/StrategyMiniChefLP.sol\":36943:36966  owner() == _msgSender() */\n      and\n      eq\n        /* \"strategies/StrategyMiniChefLP.sol\":36935:37003  require(owner() == _msgSender(), \"Ownable: caller is not the owner\") */\n      tag_255\n      jumpi\n      0x40\n      dup1\n      mload\n      shl(0xe5, 0x461bcd)\n      dup2\n      mstore\n      0x20\n      0x04\n      dup3\n      add\n      dup2\n      swap1\n      mstore\n      0x24\n      dup3\n      add\n      mstore\n      0x00\n      dup1\n      mload\n      0x20\n      data_9924ebdf1add33d25d4ef888e16131f0a5687b0580a36c21b5c301a6c462effe\n      dup4\n      codecopy\n      dup2\n      mload\n      swap2\n      mstore\n      0x44\n      dup3\n      add\n      mstore\n      swap1\n      mload\n      swap1\n      dup2\n      swap1\n      sub\n      0x64\n      add\n      swap1\n      revert\n    tag_255:\n        /* \"strategies/StrategyMiniChefLP.sol\":41869:41874  vault */\n      0x04\n        /* \"strategies/StrategyMiniChefLP.sol\":41869:41883  vault = _vault */\n      dup1\n      sload\n      not(sub(shl(0xa0, 0x01), 0x01))\n      and\n      sub(shl(0xa0, 0x01), 0x01)\n      swap3\n      swap1\n      swap3\n      and\n      swap2\n      swap1\n      swap2\n      or\n      swap1\n      sstore\n        /* \"strategies/StrategyMiniChefLP.sol\":41806:41890  function setVault(address _vault) external onlyOwner {... */\n      jump\t// out\n        /* \"strategies/StrategyMiniChefLP.sol\":37363:37508  function renounceOwnership() public virtual onlyOwner {... */\n    tag_106:\n        /* \"strategies/StrategyMiniChefLP.sol\":36954:36966  _msgSender() */\n      tag_258\n        /* \"strategies/StrategyMiniChefLP.sol\":36954:36964  _msgSender */\n      tag_248\n        /* \"strategies/StrategyMiniChefLP.sol\":36954:36966  _msgSender() */\n      jump\t// in\n    tag_258:\n      sub(shl(0xa0, 0x01), 0x01)\n        /* \"strategies/StrategyMiniChefLP.sol\":36943:36966  owner() == _msgSender() */\n      and\n        /* \"strategies/StrategyMiniChefLP.sol\":36943:36950  owner() */\n      tag_259\n        /* \"strategies/StrategyMiniChefLP.sol\":36943:36948  owner */\n      tag_121\n        /* \"strategies/StrategyMiniChefLP.sol\":36943:36950  owner() */\n      jump\t// in\n    tag_259:\n      sub(shl(0xa0, 0x01), 0x01)\n        /* \"strategies/StrategyMiniChefLP.sol\":36943:36966  owner() == _msgSender() */\n      and\n      eq\n        /* \"strategies/StrategyMiniChefLP.sol\":36935:37003  require(owner() == _msgSender(), \"Ownable: caller is not the owner\") */\n      tag_260\n      jumpi\n      0x40\n      dup1\n      mload\n      shl(0xe5, 0x461bcd)\n      dup2\n      mstore\n      0x20\n      0x04\n      dup3\n      add\n      dup2\n      swap1\n      mstore\n      0x24\n      dup3\n      add\n      mstore\n      0x00\n      dup1\n      mload\n      0x20\n      data_9924ebdf1add33d25d4ef888e16131f0a5687b0580a36c21b5c301a6c462effe\n      dup4\n      codecopy\n      dup2\n      mload\n      swap2\n      mstore\n      0x44\n      dup3\n      add\n      mstore\n      swap1\n      mload\n      swap1\n      dup2\n      swap1\n      sub\n      0x64\n      add\n      swap1\n      revert\n    tag_260:\n        /* \"strategies/StrategyMiniChefLP.sol\":37469:37470  0 */\n      0x00\n        /* \"strategies/StrategyMiniChefLP.sol\":37453:37459  _owner */\n      dup1\n      sload\n        /* \"strategies/StrategyMiniChefLP.sol\":37432:37472  OwnershipTransferred(_owner, address(0)) */\n      mload(0x40)\n      sub(shl(0xa0, 0x01), 0x01)\n        /* \"strategies/StrategyMiniChefLP.sol\":37453:37459  _owner */\n      swap1\n      swap2\n      and\n      swap1\n        /* \"strategies/StrategyMiniChefLP.sol\":37432:37472  OwnershipTransferred(_owner, address(0)) */\n      0x8be0079c531659141344cd1fd0a4f28419497f9722a3daafe3b4186f6b6457e0\n      swap1\n        /* \"strategies/StrategyMiniChefLP.sol\":37469:37470  0 */\n      dup4\n      swap1\n        /* \"strategies/StrategyMiniChefLP.sol\":37432:37472  OwnershipTransferred(_owner, address(0)) */\n      log3\n        /* \"strategies/StrategyMiniChefLP.sol\":37499:37500  0 */\n      0x00\n        /* \"strategies/StrategyMiniChefLP.sol\":37482:37501  _owner = address(0) */\n      dup1\n      sload\n      not(sub(shl(0xa0, 0x01), 0x01))\n      and\n      swap1\n      sstore\n        /* \"strategies/StrategyMiniChefLP.sol\":37363:37508  function renounceOwnership() public virtual onlyOwner {... */\n      jump\t// out\n        /* \"strategies/StrategyMiniChefLP.sol\":48557:48668  function balanceOf() public view returns (uint256) {... */\n    tag_108:\n        /* \"strategies/StrategyMiniChefLP.sol\":48599:48606  uint256 */\n      0x00\n        /* \"strategies/StrategyMiniChefLP.sol\":48625:48661  balanceOfWant().add(balanceOfPool()) */\n      tag_263\n        /* \"strategies/StrategyMiniChefLP.sol\":48645:48660  balanceOfPool() */\n      tag_264\n        /* \"strategies/StrategyMiniChefLP.sol\":48645:48658  balanceOfPool */\n      tag_61\n        /* \"strategies/StrategyMiniChefLP.sol\":48645:48660  balanceOfPool() */\n      jump\t// in\n    tag_264:\n        /* \"strategies/StrategyMiniChefLP.sol\":48625:48640  balanceOfWant() */\n      tag_265\n        /* \"strategies/StrategyMiniChefLP.sol\":48625:48638  balanceOfWant */\n      tag_135\n        /* \"strategies/StrategyMiniChefLP.sol\":48625:48640  balanceOfWant() */\n      jump\t// in\n    tag_265:\n        /* \"strategies/StrategyMiniChefLP.sol\":48625:48644  balanceOfWant().add */\n      swap1\n      tag_266\n        /* \"strategies/StrategyMiniChefLP.sol\":48625:48661  balanceOfWant().add(balanceOfPool()) */\n      jump\t// in\n    tag_263:\n        /* \"strategies/StrategyMiniChefLP.sol\":48618:48661  return balanceOfWant().add(balanceOfPool()) */\n      swap1\n      pop\n        /* \"strategies/StrategyMiniChefLP.sol\":48557:48668  function balanceOf() public view returns (uint256) {... */\n      swap1\n      jump\t// out\n        /* \"strategies/StrategyMiniChefLP.sol\":41103:41193  function setKeeper(address _keeper) external onlyManager {... */\n    tag_111:\n        /* \"strategies/StrategyMiniChefLP.sol\":40784:40791  owner() */\n      tag_268\n        /* \"strategies/StrategyMiniChefLP.sol\":40784:40789  owner */\n      tag_121\n        /* \"strategies/StrategyMiniChefLP.sol\":40784:40791  owner() */\n      jump\t// in\n    tag_268:\n      sub(shl(0xa0, 0x01), 0x01)\n        /* \"strategies/StrategyMiniChefLP.sol\":40770:40791  msg.sender == owner() */\n      and\n        /* \"strategies/StrategyMiniChefLP.sol\":40770:40780  msg.sender */\n      caller\n      sub(shl(0xa0, 0x01), 0x01)\n        /* \"strategies/StrategyMiniChefLP.sol\":40770:40791  msg.sender == owner() */\n      and\n      eq\n        /* \"strategies/StrategyMiniChefLP.sol\":40770:40815  msg.sender == owner() || msg.sender == keeper */\n      dup1\n      tag_269\n      jumpi\n      pop\n        /* \"strategies/StrategyMiniChefLP.sol\":40809:40815  keeper */\n      and(sub(shl(0xa0, 0x01), 0x01), sload(0x01))\n        /* \"strategies/StrategyMiniChefLP.sol\":40795:40805  msg.sender */\n      caller\n        /* \"strategies/StrategyMiniChefLP.sol\":40795:40815  msg.sender == keeper */\n      eq\n        /* \"strategies/StrategyMiniChefLP.sol\":40770:40815  msg.sender == owner() || msg.sender == keeper */\n    tag_269:\n        /* \"strategies/StrategyMiniChefLP.sol\":40762:40828  require(msg.sender == owner() || msg.sender == keeper, \"!manager\") */\n      tag_270\n      jumpi\n      0x40\n      dup1\n      mload\n      shl(0xe5, 0x461bcd)\n      dup2\n      mstore\n      0x20\n      0x04\n      dup3\n      add\n      mstore\n      0x08\n      0x24\n      dup3\n      add\n      mstore\n      shl(0xc1, 0x10b6b0b730b3b2b9)\n      0x44\n      dup3\n      add\n      mstore\n      swap1\n      mload\n      swap1\n      dup2\n      swap1\n      sub\n      0x64\n      add\n      swap1\n      revert\n    tag_270:\n        /* \"strategies/StrategyMiniChefLP.sol\":41170:41176  keeper */\n      0x01\n        /* \"strategies/StrategyMiniChefLP.sol\":41170:41186  keeper = _keeper */\n      dup1\n      sload\n      not(sub(shl(0xa0, 0x01), 0x01))\n      and\n      sub(shl(0xa0, 0x01), 0x01)\n      swap3\n      swap1\n      swap3\n      and\n      swap2\n      swap1\n      swap2\n      or\n      swap1\n      sstore\n        /* \"strategies/StrategyMiniChefLP.sol\":41103:41193  function setKeeper(address _keeper) external onlyManager {... */\n      jump\t// out\n        /* \"strategies/StrategyMiniChefLP.sol\":42294:42333  uint constant public STRATEGIST_FEE = 0 */\n    tag_113:\n        /* \"strategies/StrategyMiniChefLP.sol\":42332:42333  0 */\n      0x00\n        /* \"strategies/StrategyMiniChefLP.sol\":42294:42333  uint constant public STRATEGIST_FEE = 0 */\n      dup2\n      jump\t// out\n        /* \"strategies/StrategyMiniChefLP.sol\":49675:49766  function pause() public onlyManager {... */\n    tag_115:\n        /* \"strategies/StrategyMiniChefLP.sol\":40784:40791  owner() */\n      tag_273\n        /* \"strategies/StrategyMiniChefLP.sol\":40784:40789  owner */\n      tag_121\n        /* \"strategies/StrategyMiniChefLP.sol\":40784:40791  owner() */\n      jump\t// in\n    tag_273:\n      sub(shl(0xa0, 0x01), 0x01)\n        /* \"strategies/StrategyMiniChefLP.sol\":40770:40791  msg.sender == owner() */\n      and\n        /* \"strategies/StrategyMiniChefLP.sol\":40770:40780  msg.sender */\n      caller\n      sub(shl(0xa0, 0x01), 0x01)\n        /* \"strategies/StrategyMiniChefLP.sol\":40770:40791  msg.sender == owner() */\n      and\n      eq\n        /* \"strategies/StrategyMiniChefLP.sol\":40770:40815  msg.sender == owner() || msg.sender == keeper */\n      dup1\n      tag_274\n      jumpi\n      pop\n        /* \"strategies/StrategyMiniChefLP.sol\":40809:40815  keeper */\n      and(sub(shl(0xa0, 0x01), 0x01), sload(0x01))\n        /* \"strategies/StrategyMiniChefLP.sol\":40795:40805  msg.sender */\n      caller\n        /* \"strategies/StrategyMiniChefLP.sol\":40795:40815  msg.sender == keeper */\n      eq\n        /* \"strategies/StrategyMiniChefLP.sol\":40770:40815  msg.sender == owner() || msg.sender == keeper */\n    tag_274:\n        /* \"strategies/StrategyMiniChefLP.sol\":40762:40828  require(msg.sender == owner() || msg.sender == keeper, \"!manager\") */\n      tag_275\n      jumpi\n      0x40\n      dup1\n      mload\n      shl(0xe5, 0x461bcd)\n      dup2\n      mstore\n      0x20\n      0x04\n      dup3\n      add\n      mstore\n      0x08\n      0x24\n      dup3\n      add\n      mstore\n      shl(0xc1, 0x10b6b0b730b3b2b9)\n      0x44\n      dup3\n      add\n      mstore\n      swap1\n      mload\n      swap1\n      dup2\n      swap1\n      sub\n      0x64\n      add\n      swap1\n      revert\n    tag_275:\n        /* \"strategies/StrategyMiniChefLP.sol\":49721:49729  _pause() */\n      tag_277\n        /* \"strategies/StrategyMiniChefLP.sol\":49721:49727  _pause */\n      tag_278\n        /* \"strategies/StrategyMiniChefLP.sol\":49721:49729  _pause() */\n      jump\t// in\n    tag_277:\n        /* \"strategies/StrategyMiniChefLP.sol\":49740:49759  _removeAllowances() */\n      tag_220\n        /* \"strategies/StrategyMiniChefLP.sol\":49740:49757  _removeAllowances */\n      tag_280\n        /* \"strategies/StrategyMiniChefLP.sol\":49740:49759  _removeAllowances() */\n      jump\t// in\n        /* \"strategies/StrategyMiniChefLP.sol\":43296:43319  address public lpToken1 */\n    tag_117:\n      and(sub(shl(0xa0, 0x01), 0x01), sload(0x0d))\n      dup2\n      jump\t// out\n        /* \"strategies/StrategyMiniChefLP.sol\":42526:42556  uint public withdrawalFee = 10 */\n    tag_119:\n      sload(0x06)\n      dup2\n      jump\t// out\n        /* \"strategies/StrategyMiniChefLP.sol\":36731:36816  function owner() public view virtual returns (address) {... */\n    tag_121:\n        /* \"strategies/StrategyMiniChefLP.sol\":36777:36784  address */\n      0x00\n        /* \"strategies/StrategyMiniChefLP.sol\":36803:36809  _owner */\n      sload\n      sub(shl(0xa0, 0x01), 0x01)\n      and\n        /* \"strategies/StrategyMiniChefLP.sol\":36731:36816  function owner() public view virtual returns (address) {... */\n      swap1\n      jump\t// out\n        /* \"strategies/StrategyMiniChefLP.sol\":42563:42588  uint public callFee = 111 */\n    tag_123:\n      sload(0x07)\n      dup2\n      jump\t// out\n        /* \"strategies/StrategyMiniChefLP.sol\":42863:43015  function setWithdrawalFee(uint256 _fee) external onlyManager {... */\n    tag_126:\n        /* \"strategies/StrategyMiniChefLP.sol\":40784:40791  owner() */\n      tag_283\n        /* \"strategies/StrategyMiniChefLP.sol\":40784:40789  owner */\n      tag_121\n        /* \"strategies/StrategyMiniChefLP.sol\":40784:40791  owner() */\n      jump\t// in\n    tag_283:\n      sub(shl(0xa0, 0x01), 0x01)\n        /* \"strategies/StrategyMiniChefLP.sol\":40770:40791  msg.sender == owner() */\n      and\n        /* \"strategies/StrategyMiniChefLP.sol\":40770:40780  msg.sender */\n      caller\n      sub(shl(0xa0, 0x01), 0x01)\n        /* \"strategies/StrategyMiniChefLP.sol\":40770:40791  msg.sender == owner() */\n      and\n      eq\n        /* \"strategies/StrategyMiniChefLP.sol\":40770:40815  msg.sender == owner() || msg.sender == keeper */\n      dup1\n      tag_284\n      jumpi\n      pop\n        /* \"strategies/StrategyMiniChefLP.sol\":40809:40815  keeper */\n      and(sub(shl(0xa0, 0x01), 0x01), sload(0x01))\n        /* \"strategies/StrategyMiniChefLP.sol\":40795:40805  msg.sender */\n      caller\n        /* \"strategies/StrategyMiniChefLP.sol\":40795:40815  msg.sender == keeper */\n      eq\n        /* \"strategies/StrategyMiniChefLP.sol\":40770:40815  msg.sender == owner() || msg.sender == keeper */\n    tag_284:\n        /* \"strategies/StrategyMiniChefLP.sol\":40762:40828  require(msg.sender == owner() || msg.sender == keeper, \"!manager\") */\n      tag_285\n      jumpi\n      0x40\n      dup1\n      mload\n      shl(0xe5, 0x461bcd)\n      dup2\n      mstore\n      0x20\n      0x04\n      dup3\n      add\n      mstore\n      0x08\n      0x24\n      dup3\n      add\n      mstore\n      shl(0xc1, 0x10b6b0b730b3b2b9)\n      0x44\n      dup3\n      add\n      mstore\n      swap1\n      mload\n      swap1\n      dup2\n      swap1\n      sub\n      0x64\n      add\n      swap1\n      revert\n    tag_285:\n        /* \"strategies/StrategyMiniChefLP.sol\":42468:42470  50 */\n      0x32\n        /* \"strategies/StrategyMiniChefLP.sol\":42942:42946  _fee */\n      dup2\n        /* \"strategies/StrategyMiniChefLP.sol\":42942:42968  _fee <= WITHDRAWAL_FEE_CAP */\n      gt\n      iszero\n        /* \"strategies/StrategyMiniChefLP.sol\":42934:42977  require(_fee <= WITHDRAWAL_FEE_CAP, \"!cap\") */\n      tag_287\n      jumpi\n      0x40\n      dup1\n      mload\n      shl(0xe5, 0x461bcd)\n      dup2\n      mstore\n      0x20\n      0x04\n      dup1\n      dup4\n      add\n      swap2\n      swap1\n      swap2\n      mstore\n      0x24\n      dup3\n      add\n      mstore\n      shl(0xe4, 0x02163617)\n      0x44\n      dup3\n      add\n      mstore\n      swap1\n      mload\n      swap1\n      dup2\n      swap1\n      sub\n      0x64\n      add\n      swap1\n      revert\n    tag_287:\n        /* \"strategies/StrategyMiniChefLP.sol\":42988:43001  withdrawalFee */\n      0x06\n        /* \"strategies/StrategyMiniChefLP.sol\":42988:43008  withdrawalFee = _fee */\n      sstore\n        /* \"strategies/StrategyMiniChefLP.sol\":42863:43015  function setWithdrawalFee(uint256 _fee) external onlyManager {... */\n      jump\t// out\n        /* \"strategies/StrategyMiniChefLP.sol\":40170:40191  address public keeper */\n    tag_128:\n      and(sub(shl(0xa0, 0x01), 0x01), sload(0x01))\n      dup2\n      jump\t// out\n        /* \"strategies/StrategyMiniChefLP.sol\":42339:42374  uint constant public MAX_FEE = 1000 */\n    tag_130:\n        /* \"strategies/StrategyMiniChefLP.sol\":42370:42374  1000 */\n      0x03e8\n        /* \"strategies/StrategyMiniChefLP.sol\":42339:42374  uint constant public MAX_FEE = 1000 */\n      dup2\n      jump\t// out\n        /* \"strategies/StrategyMiniChefLP.sol\":43453:43489  address[] public outputToNativeRoute */\n    tag_133:\n      0x11\n      dup2\n      dup2\n      sload\n      dup2\n      lt\n      tag_166\n      jumpi\n      invalid\n        /* \"strategies/StrategyMiniChefLP.sol\":48732:48848  function balanceOfWant() public view returns (uint256) {... */\n    tag_135:\n        /* \"strategies/StrategyMiniChefLP.sol\":48811:48815  want */\n      sload(0x0b)\n        /* \"strategies/StrategyMiniChefLP.sol\":48804:48841  IERC20(want).balanceOf(address(this)) */\n      0x40\n      dup1\n      mload\n      shl(0xe0, 0x70a08231)\n      dup2\n      mstore\n        /* \"strategies/StrategyMiniChefLP.sol\":48835:48839  this */\n      address\n        /* \"strategies/StrategyMiniChefLP.sol\":48804:48841  IERC20(want).balanceOf(address(this)) */\n      0x04\n      dup3\n      add\n      mstore\n      swap1\n      mload\n        /* \"strategies/StrategyMiniChefLP.sol\":48778:48785  uint256 */\n      0x00\n      swap3\n      sub(shl(0xa0, 0x01), 0x01)\n        /* \"strategies/StrategyMiniChefLP.sol\":48811:48815  want */\n      and\n      swap2\n        /* \"strategies/StrategyMiniChefLP.sol\":48804:48826  IERC20(want).balanceOf */\n      0x70a08231\n      swap2\n        /* \"strategies/StrategyMiniChefLP.sol\":48804:48841  IERC20(want).balanceOf(address(this)) */\n      0x24\n      dup1\n      dup4\n      add\n      swap3\n      0x20\n      swap3\n      swap2\n      swap1\n      dup3\n      swap1\n      sub\n      add\n      dup2\n        /* \"strategies/StrategyMiniChefLP.sol\":48811:48815  want */\n      dup7\n        /* \"strategies/StrategyMiniChefLP.sol\":48804:48841  IERC20(want).balanceOf(address(this)) */\n      dup1\n      extcodesize\n      iszero\n      dup1\n      iszero\n      tag_291\n      jumpi\n      0x00\n      dup1\n      revert\n    tag_291:\n      pop\n      gas\n      staticcall\n      iszero\n      dup1\n      iszero\n      tag_293\n      jumpi\n      returndatasize\n      0x00\n      dup1\n      returndatacopy\n      revert(0x00, returndatasize)\n    tag_293:\n      pop\n      pop\n      pop\n      pop\n      mload(0x40)\n      returndatasize\n      0x20\n      dup2\n      lt\n      iszero\n      tag_294\n      jumpi\n      0x00\n      dup1\n      revert\n    tag_294:\n      pop\n      mload\n      swap1\n      pop\n        /* \"strategies/StrategyMiniChefLP.sol\":48732:48848  function balanceOfWant() public view returns (uint256) {... */\n      swap1\n      jump\t// out\n        /* \"strategies/StrategyMiniChefLP.sol\":41332:41484  function setStrategist(address _strategist) external {... */\n    tag_138:\n        /* \"strategies/StrategyMiniChefLP.sol\":41417:41427  strategist */\n      and(sub(shl(0xa0, 0x01), 0x01), sload(0x02))\n        /* \"strategies/StrategyMiniChefLP.sol\":41403:41413  msg.sender */\n      caller\n        /* \"strategies/StrategyMiniChefLP.sol\":41403:41427  msg.sender == strategist */\n      eq\n        /* \"strategies/StrategyMiniChefLP.sol\":41395:41443  require(msg.sender == strategist, \"!strategist\") */\n      tag_296\n      jumpi\n      0x40\n      dup1\n      mload\n      shl(0xe5, 0x461bcd)\n      dup2\n      mstore\n      0x20\n      0x04\n      dup3\n      add\n      mstore\n      0x0b\n      0x24\n      dup3\n      add\n      mstore\n      shl(0xaa, 0x085cdd1c985d1959da5cdd)\n      0x44\n      dup3\n      add\n      mstore\n      swap1\n      mload\n      swap1\n      dup2\n      swap1\n      sub\n      0x64\n      add\n      swap1\n      revert\n    tag_296:\n        /* \"strategies/StrategyMiniChefLP.sol\":41453:41463  strategist */\n      0x02\n        /* \"strategies/StrategyMiniChefLP.sol\":41453:41477  strategist = _strategist */\n      dup1\n      sload\n      not(sub(shl(0xa0, 0x01), 0x01))\n      and\n      sub(shl(0xa0, 0x01), 0x01)\n      swap3\n      swap1\n      swap3\n      and\n      swap2\n      swap1\n      swap2\n      or\n      swap1\n      sstore\n        /* \"strategies/StrategyMiniChefLP.sol\":41332:41484  function setStrategist(address _strategist) external {... */\n      jump\t// out\n        /* \"strategies/StrategyMiniChefLP.sol\":45312:45533  function deposit() public whenNotPaused {... */\n    tag_140:\n        /* \"strategies/StrategyMiniChefLP.sol\":39270:39278  paused() */\n      tag_298\n        /* \"strategies/StrategyMiniChefLP.sol\":39270:39276  paused */\n      tag_96\n        /* \"strategies/StrategyMiniChefLP.sol\":39270:39278  paused() */\n      jump\t// in\n    tag_298:\n        /* \"strategies/StrategyMiniChefLP.sol\":39269:39278  !paused() */\n      iszero\n        /* \"strategies/StrategyMiniChefLP.sol\":39261:39299  require(!paused(), \"Pausable: paused\") */\n      tag_299\n      jumpi\n      0x40\n      dup1\n      mload\n      shl(0xe5, 0x461bcd)\n      dup2\n      mstore\n      0x20\n      0x04\n      dup3\n      add\n      mstore\n      0x10\n      0x24\n      dup3\n      add\n      mstore\n      shl(0x82, 0x14185d5cd8589b194e881c185d5cd959)\n      0x44\n      dup3\n      add\n      mstore\n      swap1\n      mload\n      swap1\n      dup2\n      swap1\n      sub\n      0x64\n      add\n      swap1\n      revert\n    tag_299:\n        /* \"strategies/StrategyMiniChefLP.sol\":45387:45391  want */\n      sload(0x0b)\n        /* \"strategies/StrategyMiniChefLP.sol\":45380:45417  IERC20(want).balanceOf(address(this)) */\n      0x40\n      dup1\n      mload\n      shl(0xe0, 0x70a08231)\n      dup2\n      mstore\n        /* \"strategies/StrategyMiniChefLP.sol\":45411:45415  this */\n      address\n        /* \"strategies/StrategyMiniChefLP.sol\":45380:45417  IERC20(want).balanceOf(address(this)) */\n      0x04\n      dup3\n      add\n      mstore\n      swap1\n      mload\n        /* \"strategies/StrategyMiniChefLP.sol\":45362:45377  uint256 wantBal */\n      0x00\n      swap3\n      sub(shl(0xa0, 0x01), 0x01)\n        /* \"strategies/StrategyMiniChefLP.sol\":45387:45391  want */\n      and\n      swap2\n        /* \"strategies/StrategyMiniChefLP.sol\":45380:45402  IERC20(want).balanceOf */\n      0x70a08231\n      swap2\n        /* \"strategies/StrategyMiniChefLP.sol\":45380:45417  IERC20(want).balanceOf(address(this)) */\n      0x24\n      dup1\n      dup4\n      add\n      swap3\n      0x20\n      swap3\n      swap2\n      swap1\n      dup3\n      swap1\n      sub\n      add\n      dup2\n        /* \"strategies/StrategyMiniChefLP.sol\":45387:45391  want */\n      dup7\n        /* \"strategies/StrategyMiniChefLP.sol\":45380:45417  IERC20(want).balanceOf(address(this)) */\n      dup1\n      extcodesize\n      iszero\n      dup1\n      iszero\n      tag_301\n      jumpi\n      0x00\n      dup1\n      revert\n    tag_301:\n      pop\n      gas\n      staticcall\n      iszero\n      dup1\n      iszero\n      tag_303\n      jumpi\n      returndatasize\n      0x00\n      dup1\n      returndatacopy\n      revert(0x00, returndatasize)\n    tag_303:\n      pop\n      pop\n      pop\n      pop\n      mload(0x40)\n      returndatasize\n      0x20\n      dup2\n      lt\n      iszero\n      tag_304\n      jumpi\n      0x00\n      dup1\n      revert\n    tag_304:\n      pop\n      mload\n      swap1\n      pop\n        /* \"strategies/StrategyMiniChefLP.sol\":45432:45443  wantBal > 0 */\n      dup1\n      iszero\n        /* \"strategies/StrategyMiniChefLP.sol\":45428:45527  if (wantBal > 0) {... */\n      tag_305\n      jumpi\n        /* \"strategies/StrategyMiniChefLP.sol\":45471:45475  chef */\n      sload(0x0e)\n        /* \"strategies/StrategyMiniChefLP.sol\":45485:45491  poolId */\n      sload(0x0f)\n        /* \"strategies/StrategyMiniChefLP.sol\":45459:45516  IMiniChefV2(chef).deposit(poolId, wantBal, address(this)) */\n      0x40\n      dup1\n      mload\n      shl(0xe0, 0x8dbdbe6d)\n      dup2\n      mstore\n      0x04\n      dup2\n      add\n      swap3\n      swap1\n      swap3\n      mstore\n      0x24\n      dup3\n      add\n      dup5\n      swap1\n      mstore\n        /* \"strategies/StrategyMiniChefLP.sol\":45510:45514  this */\n      address\n        /* \"strategies/StrategyMiniChefLP.sol\":45459:45516  IMiniChefV2(chef).deposit(poolId, wantBal, address(this)) */\n      0x44\n      dup4\n      add\n      mstore\n      mload\n      sub(shl(0xa0, 0x01), 0x01)\n        /* \"strategies/StrategyMiniChefLP.sol\":45471:45475  chef */\n      swap1\n      swap3\n      and\n      swap2\n        /* \"strategies/StrategyMiniChefLP.sol\":45459:45484  IMiniChefV2(chef).deposit */\n      0x8dbdbe6d\n      swap2\n        /* \"strategies/StrategyMiniChefLP.sol\":45459:45516  IMiniChefV2(chef).deposit(poolId, wantBal, address(this)) */\n      0x64\n      dup1\n      dup3\n      add\n      swap3\n        /* \"strategies/StrategyMiniChefLP.sol\":45471:45475  chef */\n      0x00\n      swap3\n        /* \"strategies/StrategyMiniChefLP.sol\":45459:45516  IMiniChefV2(chef).deposit(poolId, wantBal, address(this)) */\n      swap1\n      swap2\n      swap1\n      dup3\n      swap1\n      sub\n      add\n      dup2\n        /* \"strategies/StrategyMiniChefLP.sol\":45471:45475  chef */\n      dup4\n      dup8\n        /* \"strategies/StrategyMiniChefLP.sol\":45459:45516  IMiniChefV2(chef).deposit(poolId, wantBal, address(this)) */\n      dup1\n      extcodesize\n      iszero\n      dup1\n      iszero\n      tag_306\n      jumpi\n      0x00\n      dup1\n      revert\n    tag_306:\n      pop\n      gas\n      call\n      iszero\n      dup1\n      iszero\n      tag_308\n      jumpi\n      returndatasize\n      0x00\n      dup1\n      returndatacopy\n      revert(0x00, returndatasize)\n    tag_308:\n      pop\n      pop\n      pop\n      pop\n        /* \"strategies/StrategyMiniChefLP.sol\":45428:45527  if (wantBal > 0) {... */\n    tag_305:\n        /* \"strategies/StrategyMiniChefLP.sol\":39309:39310  _ */\n      pop\n        /* \"strategies/StrategyMiniChefLP.sol\":45312:45533  function deposit() public whenNotPaused {... */\n      jump\t// out\n        /* \"strategies/StrategyMiniChefLP.sol\":41610:41710  function setUnirouter(address _unirouter) external onlyOwner {... */\n    tag_143:\n        /* \"strategies/StrategyMiniChefLP.sol\":36954:36966  _msgSender() */\n      tag_310\n        /* \"strategies/StrategyMiniChefLP.sol\":36954:36964  _msgSender */\n      tag_248\n        /* \"strategies/StrategyMiniChefLP.sol\":36954:36966  _msgSender() */\n      jump\t// in\n    tag_310:\n      sub(shl(0xa0, 0x01), 0x01)\n        /* \"strategies/StrategyMiniChefLP.sol\":36943:36966  owner() == _msgSender() */\n      and\n        /* \"strategies/StrategyMiniChefLP.sol\":36943:36950  owner() */\n      tag_311\n        /* \"strategies/StrategyMiniChefLP.sol\":36943:36948  owner */\n      tag_121\n        /* \"strategies/StrategyMiniChefLP.sol\":36943:36950  owner() */\n      jump\t// in\n    tag_311:\n      sub(shl(0xa0, 0x01), 0x01)\n        /* \"strategies/StrategyMiniChefLP.sol\":36943:36966  owner() == _msgSender() */\n      and\n      eq\n        /* \"strategies/StrategyMiniChefLP.sol\":36935:37003  require(owner() == _msgSender(), \"Ownable: caller is not the owner\") */\n      tag_312\n      jumpi\n      0x40\n      dup1\n      mload\n      shl(0xe5, 0x461bcd)\n      dup2\n      mstore\n      0x20\n      0x04\n      dup3\n      add\n      dup2\n      swap1\n      mstore\n      0x24\n      dup3\n      add\n      mstore\n      0x00\n      dup1\n      mload\n      0x20\n      data_9924ebdf1add33d25d4ef888e16131f0a5687b0580a36c21b5c301a6c462effe\n      dup4\n      codecopy\n      dup2\n      mload\n      swap2\n      mstore\n      0x44\n      dup3\n      add\n      mstore\n      swap1\n      mload\n      swap1\n      dup2\n      swap1\n      sub\n      0x64\n      add\n      swap1\n      revert\n    tag_312:\n        /* \"strategies/StrategyMiniChefLP.sol\":41681:41690  unirouter */\n      0x03\n        /* \"strategies/StrategyMiniChefLP.sol\":41681:41703  unirouter = _unirouter */\n      dup1\n      sload\n      not(sub(shl(0xa0, 0x01), 0x01))\n      and\n      sub(shl(0xa0, 0x01), 0x01)\n      swap3\n      swap1\n      swap3\n      and\n      swap2\n      swap1\n      swap2\n      or\n      swap1\n      sstore\n        /* \"strategies/StrategyMiniChefLP.sol\":41610:41710  function setUnirouter(address _unirouter) external onlyOwner {... */\n      jump\t// out\n        /* \"strategies/StrategyMiniChefLP.sol\":42426:42470  uint constant public WITHDRAWAL_FEE_CAP = 50 */\n    tag_145:\n        /* \"strategies/StrategyMiniChefLP.sol\":42468:42470  50 */\n      0x32\n        /* \"strategies/StrategyMiniChefLP.sol\":42426:42470  uint constant public WITHDRAWAL_FEE_CAP = 50 */\n      dup2\n      jump\t// out\n        /* \"strategies/StrategyMiniChefLP.sol\":40284:40317  address public evolleFeeRecipient */\n    tag_147:\n      and(sub(shl(0xa0, 0x01), 0x01), sload(0x05))\n      dup2\n      jump\t// out\n        /* \"strategies/StrategyMiniChefLP.sol\":43407:43433  uint256 public lastHarvest */\n    tag_149:\n      sload(0x10)\n      dup2\n      jump\t// out\n        /* \"strategies/StrategyMiniChefLP.sol\":43215:43236  address public output */\n    tag_151:\n      and(sub(shl(0xa0, 0x01), 0x01), sload(0x0a))\n      dup2\n      jump\t// out\n        /* \"strategies/StrategyMiniChefLP.sol\":37657:37897  function transferOwnership(address newOwner) public virtual onlyOwner {... */\n    tag_154:\n        /* \"strategies/StrategyMiniChefLP.sol\":36954:36966  _msgSender() */\n      tag_315\n        /* \"strategies/StrategyMiniChefLP.sol\":36954:36964  _msgSender */\n      tag_248\n        /* \"strategies/StrategyMiniChefLP.sol\":36954:36966  _msgSender() */\n      jump\t// in\n    tag_315:\n      sub(shl(0xa0, 0x01), 0x01)\n        /* \"strategies/StrategyMiniChefLP.sol\":36943:36966  owner() == _msgSender() */\n      and\n        /* \"strategies/StrategyMiniChefLP.sol\":36943:36950  owner() */\n      tag_316\n        /* \"strategies/StrategyMiniChefLP.sol\":36943:36948  owner */\n      tag_121\n        /* \"strategies/StrategyMiniChefLP.sol\":36943:36950  owner() */\n      jump\t// in\n    tag_316:\n      sub(shl(0xa0, 0x01), 0x01)\n        /* \"strategies/StrategyMiniChefLP.sol\":36943:36966  owner() == _msgSender() */\n      and\n      eq\n        /* \"strategies/StrategyMiniChefLP.sol\":36935:37003  require(owner() == _msgSender(), \"Ownable: caller is not the owner\") */\n      tag_317\n      jumpi\n      0x40\n      dup1\n      mload\n      shl(0xe5, 0x461bcd)\n      dup2\n      mstore\n      0x20\n      0x04\n      dup3\n      add\n      dup2\n      swap1\n      mstore\n      0x24\n      dup3\n      add\n      mstore\n      0x00\n      dup1\n      mload\n      0x20\n      data_9924ebdf1add33d25d4ef888e16131f0a5687b0580a36c21b5c301a6c462effe\n      dup4\n      codecopy\n      dup2\n      mload\n      swap2\n      mstore\n      0x44\n      dup3\n      add\n      mstore\n      swap1\n      mload\n      swap1\n      dup2\n      swap1\n      sub\n      0x64\n      add\n      swap1\n      revert\n    tag_317:\n      sub(shl(0xa0, 0x01), 0x01)\n        /* \"strategies/StrategyMiniChefLP.sol\":37745:37767  newOwner != address(0) */\n      dup2\n      and\n        /* \"strategies/StrategyMiniChefLP.sol\":37737:37810  require(newOwner != address(0), \"Ownable: new owner is the zero address\") */\n      tag_319\n      jumpi\n      mload(0x40)\n      shl(0xe5, 0x461bcd)\n      dup2\n      mstore\n      0x04\n      add\n      dup1\n      dup1\n      0x20\n      add\n      dup3\n      dup2\n      sub\n      dup3\n      mstore\n      0x26\n      dup2\n      mstore\n      0x20\n      add\n      dup1\n      data_245f15ff17f551913a7a18385165551503906a406f905ac1c2437281a7cd0cfe\n      0x26\n      swap2\n      codecopy\n      0x40\n      add\n      swap2\n      pop\n      pop\n      mload(0x40)\n      dup1\n      swap2\n      sub\n      swap1\n      revert\n    tag_319:\n        /* \"strategies/StrategyMiniChefLP.sol\":37846:37852  _owner */\n      0x00\n      dup1\n      sload\n        /* \"strategies/StrategyMiniChefLP.sol\":37825:37863  OwnershipTransferred(_owner, newOwner) */\n      mload(0x40)\n      sub(shl(0xa0, 0x01), 0x01)\n      dup1\n      dup6\n      and\n      swap4\n        /* \"strategies/StrategyMiniChefLP.sol\":37846:37852  _owner */\n      swap3\n      and\n      swap2\n        /* \"strategies/StrategyMiniChefLP.sol\":37825:37863  OwnershipTransferred(_owner, newOwner) */\n      0x8be0079c531659141344cd1fd0a4f28419497f9722a3daafe3b4186f6b6457e0\n      swap2\n      log3\n        /* \"strategies/StrategyMiniChefLP.sol\":37873:37879  _owner */\n      0x00\n        /* \"strategies/StrategyMiniChefLP.sol\":37873:37890  _owner = newOwner */\n      dup1\n      sload\n      not(sub(shl(0xa0, 0x01), 0x01))\n      and\n      sub(shl(0xa0, 0x01), 0x01)\n      swap3\n      swap1\n      swap3\n      and\n      swap2\n      swap1\n      swap2\n      or\n      swap1\n      sstore\n        /* \"strategies/StrategyMiniChefLP.sol\":37657:37897  function transferOwnership(address newOwner) public virtual onlyOwner {... */\n      jump\t// out\n        /* \"strategies/StrategyMiniChefLP.sol\":49193:49462  function retireStrat() external {... */\n    tag_156:\n        /* \"strategies/StrategyMiniChefLP.sol\":49257:49262  vault */\n      and(sub(shl(0xa0, 0x01), 0x01), sload(0x04))\n        /* \"strategies/StrategyMiniChefLP.sol\":49243:49253  msg.sender */\n      caller\n        /* \"strategies/StrategyMiniChefLP.sol\":49243:49262  msg.sender == vault */\n      eq\n        /* \"strategies/StrategyMiniChefLP.sol\":49235:49273  require(msg.sender == vault, \"!vault\") */\n      tag_321\n      jumpi\n      0x40\n      dup1\n      mload\n      shl(0xe5, 0x461bcd)\n      dup2\n      mstore\n      0x20\n      0x04\n      dup3\n      add\n      mstore\n      0x06\n      0x24\n      dup3\n      add\n      mstore\n      shl(0xd2, 0x085d985d5b1d)\n      0x44\n      dup3\n      add\n      mstore\n      swap1\n      mload\n      swap1\n      dup2\n      swap1\n      sub\n      0x64\n      add\n      swap1\n      revert\n    tag_321:\n        /* \"strategies/StrategyMiniChefLP.sol\":49296:49300  chef */\n      sload(0x0e)\n        /* \"strategies/StrategyMiniChefLP.sol\":49320:49326  poolId */\n      sload(0x0f)\n        /* \"strategies/StrategyMiniChefLP.sol\":49284:49342  IMiniChefV2(chef).emergencyWithdraw(poolId, address(this)) */\n      0x40\n      dup1\n      mload\n      shl(0xe4, 0x02f940c7)\n      dup2\n      mstore\n      0x04\n      dup2\n      add\n      swap3\n      swap1\n      swap3\n      mstore\n        /* \"strategies/StrategyMiniChefLP.sol\":49336:49340  this */\n      address\n        /* \"strategies/StrategyMiniChefLP.sol\":49284:49342  IMiniChefV2(chef).emergencyWithdraw(poolId, address(this)) */\n      0x24\n      dup4\n      add\n      mstore\n      mload\n      sub(shl(0xa0, 0x01), 0x01)\n        /* \"strategies/StrategyMiniChefLP.sol\":49296:49300  chef */\n      swap1\n      swap3\n      and\n      swap2\n        /* \"strategies/StrategyMiniChefLP.sol\":49284:49319  IMiniChefV2(chef).emergencyWithdraw */\n      0x2f940c70\n      swap2\n        /* \"strategies/StrategyMiniChefLP.sol\":49284:49342  IMiniChefV2(chef).emergencyWithdraw(poolId, address(this)) */\n      0x44\n      dup1\n      dup3\n      add\n      swap3\n        /* \"strategies/StrategyMiniChefLP.sol\":49296:49300  chef */\n      0x00\n      swap3\n        /* \"strategies/StrategyMiniChefLP.sol\":49284:49342  IMiniChefV2(chef).emergencyWithdraw(poolId, address(this)) */\n      swap1\n      swap2\n      swap1\n      dup3\n      swap1\n      sub\n      add\n      dup2\n        /* \"strategies/StrategyMiniChefLP.sol\":49296:49300  chef */\n      dup4\n      dup8\n        /* \"strategies/StrategyMiniChefLP.sol\":49284:49342  IMiniChefV2(chef).emergencyWithdraw(poolId, address(this)) */\n      dup1\n      extcodesize\n      iszero\n      dup1\n      iszero\n      tag_322\n      jumpi\n      0x00\n      dup1\n      revert\n    tag_322:\n      pop\n      gas\n      call\n      iszero\n      dup1\n      iszero\n      tag_324\n      jumpi\n      returndatasize\n      0x00\n      dup1\n      returndatacopy\n      revert(0x00, returndatasize)\n    tag_324:\n      pop\n      pop\n        /* \"strategies/StrategyMiniChefLP.sol\":49378:49382  want */\n      sload(0x0b)\n        /* \"strategies/StrategyMiniChefLP.sol\":49371:49408  IERC20(want).balanceOf(address(this)) */\n      0x40\n      dup1\n      mload\n      shl(0xe0, 0x70a08231)\n      dup2\n      mstore\n        /* \"strategies/StrategyMiniChefLP.sol\":49402:49406  this */\n      address\n        /* \"strategies/StrategyMiniChefLP.sol\":49371:49408  IERC20(want).balanceOf(address(this)) */\n      0x04\n      dup3\n      add\n      mstore\n      swap1\n      mload\n        /* \"strategies/StrategyMiniChefLP.sol\":49353:49368  uint256 wantBal */\n      0x00\n      swap5\n      pop\n      sub(shl(0xa0, 0x01), 0x01)\n        /* \"strategies/StrategyMiniChefLP.sol\":49378:49382  want */\n      swap1\n      swap3\n      and\n      swap3\n      pop\n        /* \"strategies/StrategyMiniChefLP.sol\":49371:49393  IERC20(want).balanceOf */\n      0x70a08231\n      swap2\n        /* \"strategies/StrategyMiniChefLP.sol\":49371:49408  IERC20(want).balanceOf(address(this)) */\n      0x24\n      dup1\n      dup4\n      add\n      swap3\n      0x20\n      swap3\n      swap2\n      swap1\n      dup3\n      swap1\n      sub\n      add\n      dup2\n        /* \"strategies/StrategyMiniChefLP.sol\":49378:49382  want */\n      dup7\n        /* \"strategies/StrategyMiniChefLP.sol\":49371:49408  IERC20(want).balanceOf(address(this)) */\n      dup1\n      extcodesize\n      iszero\n      dup1\n      iszero\n      tag_325\n      jumpi\n      0x00\n      dup1\n      revert\n    tag_325:\n      pop\n      gas\n      staticcall\n      iszero\n      dup1\n      iszero\n      tag_327\n      jumpi\n      returndatasize\n      0x00\n      dup1\n      returndatacopy\n      revert(0x00, returndatasize)\n    tag_327:\n      pop\n      pop\n      pop\n      pop\n      mload(0x40)\n      returndatasize\n      0x20\n      dup2\n      lt\n      iszero\n      tag_328\n      jumpi\n      0x00\n      dup1\n      revert\n    tag_328:\n      pop\n      mload\n        /* \"strategies/StrategyMiniChefLP.sol\":49425:49429  want */\n      sload(0x0b)\n        /* \"strategies/StrategyMiniChefLP.sol\":49440:49445  vault */\n      0x04\n      dup1\n      sload\n        /* \"strategies/StrategyMiniChefLP.sol\":49418:49455  IERC20(want).transfer(vault, wantBal) */\n      0x40\n      dup1\n      mload\n      shl(0xe0, 0xa9059cbb)\n      dup2\n      mstore\n      sub(shl(0xa0, 0x01), 0x01)\n        /* \"strategies/StrategyMiniChefLP.sol\":49440:49445  vault */\n      swap3\n      dup4\n      and\n        /* \"strategies/StrategyMiniChefLP.sol\":49418:49455  IERC20(want).transfer(vault, wantBal) */\n      swap4\n      dup2\n      add\n      swap4\n      swap1\n      swap4\n      mstore\n      0x24\n      dup4\n      add\n      dup6\n      swap1\n      mstore\n      mload\n        /* \"strategies/StrategyMiniChefLP.sol\":49371:49408  IERC20(want).balanceOf(address(this)) */\n      swap4\n      swap5\n      pop\n        /* \"strategies/StrategyMiniChefLP.sol\":49425:49429  want */\n      swap1\n      swap2\n      and\n      swap2\n        /* \"strategies/StrategyMiniChefLP.sol\":49418:49439  IERC20(want).transfer */\n      0xa9059cbb\n      swap2\n        /* \"strategies/StrategyMiniChefLP.sol\":49418:49455  IERC20(want).transfer(vault, wantBal) */\n      0x44\n      dup1\n      dup3\n      add\n      swap3\n        /* \"strategies/StrategyMiniChefLP.sol\":49371:49408  IERC20(want).balanceOf(address(this)) */\n      0x20\n      swap3\n        /* \"strategies/StrategyMiniChefLP.sol\":49418:49455  IERC20(want).transfer(vault, wantBal) */\n      swap1\n      swap2\n      swap1\n      dup3\n      swap1\n      sub\n      add\n      dup2\n        /* \"strategies/StrategyMiniChefLP.sol\":49425:49429  want */\n      0x00\n      dup8\n        /* \"strategies/StrategyMiniChefLP.sol\":49418:49455  IERC20(want).transfer(vault, wantBal) */\n      dup1\n      extcodesize\n      iszero\n      dup1\n      iszero\n      tag_329\n      jumpi\n      0x00\n      dup1\n      revert\n    tag_329:\n      pop\n      gas\n      call\n      iszero\n      dup1\n      iszero\n      tag_331\n      jumpi\n      returndatasize\n      0x00\n      dup1\n      returndatacopy\n      revert(0x00, returndatasize)\n    tag_331:\n      pop\n      pop\n      pop\n      pop\n      mload(0x40)\n      returndatasize\n      0x20\n      dup2\n      lt\n      iszero\n      tag_207\n      jumpi\n      0x00\n      dup1\n      revert\n        /* \"strategies/StrategyMiniChefLP.sol\":40258:40278  address public vault */\n    tag_158:\n      and(sub(shl(0xa0, 0x01), 0x01), sload(0x04))\n      dup2\n      jump\t// out\n        /* \"strategies/StrategyMiniChefLP.sol\":42594:42652  uint public evolleFee = MAX_FEE - STRATEGIST_FEE - callFee */\n    tag_160:\n      sload(0x08)\n      dup2\n      jump\t// out\n        /* \"strategies/StrategyMiniChefLP.sol\":43576:43609  address[] public outputToLp1Route */\n    tag_163:\n      0x14\n      dup2\n      dup2\n      sload\n      dup2\n      lt\n      tag_166\n      jumpi\n      invalid\n        /* \"strategies/StrategyMiniChefLP.sol\":30809:31422  function safeApprove(IERC20 token, address spender, uint256 value) internal {... */\n    tag_164:\n        /* \"strategies/StrategyMiniChefLP.sol\":31174:31184  value == 0 */\n      dup1\n      iszero\n      dup1\n        /* \"strategies/StrategyMiniChefLP.sol\":31173:31235  (value == 0) || (token.allowance(address(this), spender) == 0) */\n      tag_336\n      jumpi\n      pop\n        /* \"strategies/StrategyMiniChefLP.sol\":31190:31229  token.allowance(address(this), spender) */\n      0x40\n      dup1\n      mload\n      shl(0xe1, 0x6eb1769f)\n      dup2\n      mstore\n        /* \"strategies/StrategyMiniChefLP.sol\":31214:31218  this */\n      address\n        /* \"strategies/StrategyMiniChefLP.sol\":31190:31229  token.allowance(address(this), spender) */\n      0x04\n      dup3\n      add\n      mstore\n      sub(shl(0xa0, 0x01), 0x01)\n      dup5\n      dup2\n      and\n      0x24\n      dup4\n      add\n      mstore\n      swap2\n      mload\n        /* \"strategies/StrategyMiniChefLP.sol\":31190:31205  token.allowance */\n      swap2\n      dup6\n      and\n      swap2\n      0xdd62ed3e\n      swap2\n        /* \"strategies/StrategyMiniChefLP.sol\":31190:31229  token.allowance(address(this), spender) */\n      0x44\n      dup1\n      dup3\n      add\n      swap3\n      0x20\n      swap3\n      swap1\n      swap2\n      swap1\n      dup3\n      swap1\n      sub\n      add\n      dup2\n        /* \"strategies/StrategyMiniChefLP.sol\":31190:31205  token.allowance */\n      dup7\n        /* \"strategies/StrategyMiniChefLP.sol\":31190:31229  token.allowance(address(this), spender) */\n      dup1\n      extcodesize\n      iszero\n      dup1\n      iszero\n      tag_337\n      jumpi\n      0x00\n      dup1\n      revert\n    tag_337:\n      pop\n      gas\n      staticcall\n      iszero\n      dup1\n      iszero\n      tag_339\n      jumpi\n      returndatasize\n      0x00\n      dup1\n      returndatacopy\n      revert(0x00, returndatasize)\n    tag_339:\n      pop\n      pop\n      pop\n      pop\n      mload(0x40)\n      returndatasize\n      0x20\n      dup2\n      lt\n      iszero\n      tag_340\n      jumpi\n      0x00\n      dup1\n      revert\n    tag_340:\n      pop\n      mload\n        /* \"strategies/StrategyMiniChefLP.sol\":31190:31234  token.allowance(address(this), spender) == 0 */\n      iszero\n        /* \"strategies/StrategyMiniChefLP.sol\":31173:31235  (value == 0) || (token.allowance(address(this), spender) == 0) */\n    tag_336:\n        /* \"strategies/StrategyMiniChefLP.sol\":31165:31315  require((value == 0) || (token.allowance(address(this), spender) == 0),... */\n      tag_341\n      jumpi\n      mload(0x40)\n      shl(0xe5, 0x461bcd)\n      dup2\n      mstore\n      0x04\n      add\n      dup1\n      dup1\n      0x20\n      add\n      dup3\n      dup2\n      sub\n      dup3\n      mstore\n      0x36\n      dup2\n      mstore\n      0x20\n      add\n      dup1\n      data_ef945ddb1bfdc0da870feb4560d868b047642b4ac7f2fb7f8b7c51cb4a411e25\n      0x36\n      swap2\n      codecopy\n      0x40\n      add\n      swap2\n      pop\n      pop\n      mload(0x40)\n      dup1\n      swap2\n      sub\n      swap1\n      revert\n    tag_341:\n        /* \"strategies/StrategyMiniChefLP.sol\":31352:31414  abi.encodeWithSelector(token.approve.selector, spender, value) */\n      0x40\n      dup1\n      mload\n      sub(shl(0xa0, 0x01), 0x01)\n      dup5\n      and\n      0x24\n      dup3\n      add\n      mstore\n      0x44\n      dup1\n      dup3\n      add\n      dup5\n      swap1\n      mstore\n      dup3\n      mload\n      dup1\n      dup4\n      sub\n      swap1\n      swap2\n      add\n      dup2\n      mstore\n      0x64\n      swap1\n      swap2\n      add\n      swap1\n      swap2\n      mstore\n      0x20\n      dup2\n      add\n      dup1\n      mload\n      sub(shl(0xe0, 0x01), 0x01)\n      and\n      shl(0xe0, 0x095ea7b3)\n      or\n      swap1\n      mstore\n        /* \"strategies/StrategyMiniChefLP.sol\":31325:31415  _callOptionalReturn(token, abi.encodeWithSelector(token.approve.selector, spender, value)) */\n      tag_207\n      swap1\n        /* \"strategies/StrategyMiniChefLP.sol\":31345:31350  token */\n      dup5\n      swap1\n        /* \"strategies/StrategyMiniChefLP.sol\":31325:31344  _callOptionalReturn */\n      tag_343\n        /* \"strategies/StrategyMiniChefLP.sol\":31325:31415  _callOptionalReturn(token, abi.encodeWithSelector(token.approve.selector, spender, value)) */\n      jump\t// in\n        /* \"strategies/StrategyMiniChefLP.sol\":25277:25470  function functionCall(address target, bytes memory data, string memory errorMessage) internal returns (bytes memory) {... */\n    tag_165:\n        /* \"strategies/StrategyMiniChefLP.sol\":25380:25392  bytes memory */\n      0x60\n        /* \"strategies/StrategyMiniChefLP.sol\":25411:25463  functionCallWithValue(target, data, 0, errorMessage) */\n      tag_345\n        /* \"strategies/StrategyMiniChefLP.sol\":25433:25439  target */\n      dup5\n        /* \"strategies/StrategyMiniChefLP.sol\":25441:25445  data */\n      dup5\n        /* \"strategies/StrategyMiniChefLP.sol\":25447:25448  0 */\n      0x00\n        /* \"strategies/StrategyMiniChefLP.sol\":25450:25462  errorMessage */\n      dup6\n        /* \"strategies/StrategyMiniChefLP.sol\":25411:25432  functionCallWithValue */\n      tag_346\n        /* \"strategies/StrategyMiniChefLP.sol\":25411:25463  functionCallWithValue(target, data, 0, errorMessage) */\n      jump\t// in\n    tag_345:\n        /* \"strategies/StrategyMiniChefLP.sol\":25404:25463  return functionCallWithValue(target, data, 0, errorMessage) */\n      swap1\n      pop\n        /* \"strategies/StrategyMiniChefLP.sol\":25277:25470  function functionCall(address target, bytes memory data, string memory errorMessage) internal returns (bytes memory) {... */\n    tag_344:\n      swap4\n      swap3\n      pop\n      pop\n      pop\n      jump\t// out\n        /* \"strategies/StrategyMiniChefLP.sol\":6841:6996  function sub(uint256 a, uint256 b) internal pure returns (uint256) {... */\n    tag_187:\n        /* \"strategies/StrategyMiniChefLP.sol\":6899:6906  uint256 */\n      0x00\n        /* \"strategies/StrategyMiniChefLP.sol\":6931:6932  a */\n      dup3\n        /* \"strategies/StrategyMiniChefLP.sol\":6926:6927  b */\n      dup3\n        /* \"strategies/StrategyMiniChefLP.sol\":6926:6932  b <= a */\n      gt\n      iszero\n        /* \"strategies/StrategyMiniChefLP.sol\":6918:6967  require(b <= a, \"SafeMath: subtraction overflow\") */\n      tag_348\n      jumpi\n      0x40\n      dup1\n      mload\n      shl(0xe5, 0x461bcd)\n      dup2\n      mstore\n      0x20\n      0x04\n      dup3\n      add\n      mstore\n      0x1e\n      0x24\n      dup3\n      add\n      mstore\n      0x536166654d6174683a207375627472616374696f6e206f766572666c6f770000\n      0x44\n      dup3\n      add\n      mstore\n      swap1\n      mload\n      swap1\n      dup2\n      swap1\n      sub\n      0x64\n      add\n      swap1\n      revert\n    tag_348:\n      pop\n        /* \"strategies/StrategyMiniChefLP.sol\":6984:6989  a - b */\n      dup1\n      dup3\n      sub\n        /* \"strategies/StrategyMiniChefLP.sol\":6841:6996  function sub(uint256 a, uint256 b) internal pure returns (uint256) {... */\n    tag_347:\n      swap3\n      swap2\n      pop\n      pop\n      jump\t// out\n        /* \"strategies/StrategyMiniChefLP.sol\":30165:30340  function safeTransfer(IERC20 token, address to, uint256 value) internal {... */\n    tag_201:\n        /* \"strategies/StrategyMiniChefLP.sol\":30274:30332  abi.encodeWithSelector(token.transfer.selector, to, value) */\n      0x40\n      dup1\n      mload\n      sub(shl(0xa0, 0x01), 0x01)\n      dup5\n      and\n      0x24\n      dup3\n      add\n      mstore\n      0x44\n      dup1\n      dup3\n      add\n      dup5\n      swap1\n      mstore\n      dup3\n      mload\n      dup1\n      dup4\n      sub\n      swap1\n      swap2\n      add\n      dup2\n      mstore\n      0x64\n      swap1\n      swap2\n      add\n      swap1\n      swap2\n      mstore\n      0x20\n      dup2\n      add\n      dup1\n      mload\n      sub(shl(0xe0, 0x01), 0x01)\n      and\n      shl(0xe0, 0xa9059cbb)\n      or\n      swap1\n      mstore\n        /* \"strategies/StrategyMiniChefLP.sol\":30247:30333  _callOptionalReturn(token, abi.encodeWithSelector(token.transfer.selector, to, value)) */\n      tag_207\n      swap1\n        /* \"strategies/StrategyMiniChefLP.sol\":30267:30272  token */\n      dup5\n      swap1\n        /* \"strategies/StrategyMiniChefLP.sol\":30247:30266  _callOptionalReturn */\n      tag_343\n        /* \"strategies/StrategyMiniChefLP.sol\":30247:30333  _callOptionalReturn(token, abi.encodeWithSelector(token.transfer.selector, to, value)) */\n      jump\t// in\n        /* \"strategies/StrategyMiniChefLP.sol\":7243:7458  function mul(uint256 a, uint256 b) internal pure returns (uint256) {... */\n    tag_205:\n        /* \"strategies/StrategyMiniChefLP.sol\":7301:7308  uint256 */\n      0x00\n        /* \"strategies/StrategyMiniChefLP.sol\":7324:7330  a == 0 */\n      dup3\n        /* \"strategies/StrategyMiniChefLP.sol\":7320:7340  if (a == 0) return 0 */\n      tag_352\n      jumpi\n      pop\n        /* \"strategies/StrategyMiniChefLP.sol\":7339:7340  0 */\n      0x00\n        /* \"strategies/StrategyMiniChefLP.sol\":7332:7340  return 0 */\n      jump(tag_347)\n        /* \"strategies/StrategyMiniChefLP.sol\":7320:7340  if (a == 0) return 0 */\n    tag_352:\n        /* \"strategies/StrategyMiniChefLP.sol\":7362:7367  a * b */\n      dup3\n      dup3\n      mul\n        /* \"strategies/StrategyMiniChefLP.sol\":7366:7367  b */\n      dup3\n        /* \"strategies/StrategyMiniChefLP.sol\":7362:7363  a */\n      dup5\n        /* \"strategies/StrategyMiniChefLP.sol\":7362:7367  a * b */\n      dup3\n        /* \"strategies/StrategyMiniChefLP.sol\":7362:7363  a */\n      dup2\n        /* \"strategies/StrategyMiniChefLP.sol\":7385:7390  c / a */\n      tag_353\n      jumpi\n      invalid\n    tag_353:\n      div\n        /* \"strategies/StrategyMiniChefLP.sol\":7385:7395  c / a == b */\n      eq\n        /* \"strategies/StrategyMiniChefLP.sol\":7377:7433  require(c / a == b, \"SafeMath: multiplication overflow\") */\n      tag_344\n      jumpi\n      mload(0x40)\n      shl(0xe5, 0x461bcd)\n      dup2\n      mstore\n      0x04\n      add\n      dup1\n      dup1\n      0x20\n      add\n      dup3\n      dup2\n      sub\n      dup3\n      mstore\n      0x21\n      dup2\n      mstore\n      0x20\n      add\n      dup1\n      data_9113bb53c2876a3805b2c9242029423fc540a728243ce887ab24c82cf119fba3\n      0x21\n      swap2\n      codecopy\n      0x40\n      add\n      swap2\n      pop\n      pop\n      mload(0x40)\n      dup1\n      swap2\n      sub\n      swap1\n      revert\n        /* \"strategies/StrategyMiniChefLP.sol\":7922:8072  function div(uint256 a, uint256 b) internal pure returns (uint256) {... */\n    tag_206:\n        /* \"strategies/StrategyMiniChefLP.sol\":7980:7987  uint256 */\n      0x00\n        /* \"strategies/StrategyMiniChefLP.sol\":8011:8012  0 */\n      dup1\n        /* \"strategies/StrategyMiniChefLP.sol\":8007:8008  b */\n      dup3\n        /* \"strategies/StrategyMiniChefLP.sol\":8007:8012  b > 0 */\n      gt\n        /* \"strategies/StrategyMiniChefLP.sol\":7999:8043  require(b > 0, \"SafeMath: division by zero\") */\n      tag_356\n      jumpi\n      0x40\n      dup1\n      mload\n      shl(0xe5, 0x461bcd)\n      dup2\n      mstore\n      0x20\n      0x04\n      dup3\n      add\n      mstore\n      0x1a\n      0x24\n      dup3\n      add\n      mstore\n      0x536166654d6174683a206469766973696f6e206279207a65726f000000000000\n      0x44\n      dup3\n      add\n      mstore\n      swap1\n      mload\n      swap1\n      dup2\n      swap1\n      sub\n      0x64\n      add\n      swap1\n      revert\n    tag_356:\n        /* \"strategies/StrategyMiniChefLP.sol\":8064:8065  b */\n      dup2\n        /* \"strategies/StrategyMiniChefLP.sol\":8060:8061  a */\n      dup4\n        /* \"strategies/StrategyMiniChefLP.sol\":8060:8065  a / b */\n      dup2\n      tag_357\n      jumpi\n      invalid\n    tag_357:\n      div\n      swap4\n        /* \"strategies/StrategyMiniChefLP.sol\":7922:8072  function div(uint256 a, uint256 b) internal pure returns (uint256) {... */\n      swap3\n      pop\n      pop\n      pop\n      jump\t// out\n        /* \"strategies/StrategyMiniChefLP.sol\":39968:40085  function _unpause() internal virtual whenPaused {... */\n    tag_217:\n        /* \"strategies/StrategyMiniChefLP.sol\":39535:39543  paused() */\n      tag_359\n        /* \"strategies/StrategyMiniChefLP.sol\":39535:39541  paused */\n      tag_96\n        /* \"strategies/StrategyMiniChefLP.sol\":39535:39543  paused() */\n      jump\t// in\n    tag_359:\n        /* \"strategies/StrategyMiniChefLP.sol\":39527:39568  require(paused(), \"Pausable: not paused\") */\n      tag_360\n      jumpi\n      0x40\n      dup1\n      mload\n      shl(0xe5, 0x461bcd)\n      dup2\n      mstore\n      0x20\n      0x04\n      dup3\n      add\n      mstore\n      0x14\n      0x24\n      dup3\n      add\n      mstore\n      shl(0x62, 0x14185d5cd8589b194e881b9bdd081c185d5cd959)\n      0x44\n      dup3\n      add\n      mstore\n      swap1\n      mload\n      swap1\n      dup2\n      swap1\n      sub\n      0x64\n      add\n      swap1\n      revert\n    tag_360:\n        /* \"strategies/StrategyMiniChefLP.sol\":40036:40041  false */\n      0x00\n        /* \"strategies/StrategyMiniChefLP.sol\":40026:40041  _paused = false */\n      dup1\n      sload\n      not(shl(0xa0, 0xff))\n      and\n      swap1\n      sstore\n        /* \"strategies/StrategyMiniChefLP.sol\":40056:40078  Unpaused(_msgSender()) */\n      0x5db9ee0a495bf2e6ff9c91a7834c1ba4fdd244a5e8aa4e537bd38aeae4b073aa\n        /* \"strategies/StrategyMiniChefLP.sol\":40065:40077  _msgSender() */\n      tag_362\n        /* \"strategies/StrategyMiniChefLP.sol\":40065:40075  _msgSender */\n      tag_248\n        /* \"strategies/StrategyMiniChefLP.sol\":40065:40077  _msgSender() */\n      jump\t// in\n    tag_362:\n        /* \"strategies/StrategyMiniChefLP.sol\":40056:40078  Unpaused(_msgSender()) */\n      0x40\n      dup1\n      mload\n      sub(shl(0xa0, 0x01), 0x01)\n      swap1\n      swap3\n      and\n      dup3\n      mstore\n      mload\n      swap1\n      dup2\n      swap1\n      sub\n      0x20\n      add\n      swap1\n      log1\n        /* \"strategies/StrategyMiniChefLP.sol\":39968:40085  function _unpause() internal virtual whenPaused {... */\n      jump\t// out\n        /* \"strategies/StrategyMiniChefLP.sol\":49893:50404  function _giveAllowances() internal {... */\n    tag_219:\n        /* \"strategies/StrategyMiniChefLP.sol\":49964:49968  chef */\n      sload(0x0e)\n        /* \"strategies/StrategyMiniChefLP.sol\":49946:49950  want */\n      sload(0x0b)\n        /* \"strategies/StrategyMiniChefLP.sol\":49939:49988  IERC20(want).safeApprove(chef, type(uint256).max) */\n      tag_364\n      swap2\n      sub(shl(0xa0, 0x01), 0x01)\n        /* \"strategies/StrategyMiniChefLP.sol\":49946:49950  want */\n      swap2\n      dup3\n      and\n      swap2\n        /* \"strategies/StrategyMiniChefLP.sol\":49964:49968  chef */\n      and\n      not(0x00)\n        /* \"strategies/StrategyMiniChefLP.sol\":49939:49963  IERC20(want).safeApprove */\n      tag_164\n        /* \"strategies/StrategyMiniChefLP.sol\":49939:49988  IERC20(want).safeApprove(chef, type(uint256).max) */\n      jump\t// in\n    tag_364:\n        /* \"strategies/StrategyMiniChefLP.sol\":50025:50034  unirouter */\n      sload(0x03)\n        /* \"strategies/StrategyMiniChefLP.sol\":50005:50011  output */\n      sload(0x0a)\n        /* \"strategies/StrategyMiniChefLP.sol\":49998:50054  IERC20(output).safeApprove(unirouter, type(uint256).max) */\n      tag_365\n      swap2\n      sub(shl(0xa0, 0x01), 0x01)\n        /* \"strategies/StrategyMiniChefLP.sol\":50005:50011  output */\n      swap2\n      dup3\n      and\n      swap2\n        /* \"strategies/StrategyMiniChefLP.sol\":50025:50034  unirouter */\n      and\n      not(0x00)\n        /* \"strategies/StrategyMiniChefLP.sol\":49998:50024  IERC20(output).safeApprove */\n      tag_164\n        /* \"strategies/StrategyMiniChefLP.sol\":49998:50054  IERC20(output).safeApprove(unirouter, type(uint256).max) */\n      jump\t// in\n    tag_365:\n        /* \"strategies/StrategyMiniChefLP.sol\":50126:50135  unirouter */\n      sload(0x03)\n        /* \"strategies/StrategyMiniChefLP.sol\":50106:50112  native */\n      sload(0x09)\n        /* \"strategies/StrategyMiniChefLP.sol\":50099:50155  IERC20(native).safeApprove(unirouter, type(uint256).max) */\n      tag_366\n      swap2\n      sub(shl(0xa0, 0x01), 0x01)\n        /* \"strategies/StrategyMiniChefLP.sol\":50106:50112  native */\n      swap2\n      dup3\n      and\n      swap2\n        /* \"strategies/StrategyMiniChefLP.sol\":50126:50135  unirouter */\n      and\n      not(0x00)\n        /* \"strategies/StrategyMiniChefLP.sol\":50099:50125  IERC20(native).safeApprove */\n      tag_164\n        /* \"strategies/StrategyMiniChefLP.sol\":50099:50155  IERC20(native).safeApprove(unirouter, type(uint256).max) */\n      jump\t// in\n    tag_366:\n        /* \"strategies/StrategyMiniChefLP.sol\":50195:50204  unirouter */\n      sload(0x03)\n        /* \"strategies/StrategyMiniChefLP.sol\":50173:50181  lpToken0 */\n      sload(0x0c)\n        /* \"strategies/StrategyMiniChefLP.sol\":50166:50208  IERC20(lpToken0).safeApprove(unirouter, 0) */\n      tag_367\n      swap2\n      sub(shl(0xa0, 0x01), 0x01)\n        /* \"strategies/StrategyMiniChefLP.sol\":50173:50181  lpToken0 */\n      swap2\n      dup3\n      and\n      swap2\n        /* \"strategies/StrategyMiniChefLP.sol\":50195:50204  unirouter */\n      and\n      0x00\n        /* \"strategies/StrategyMiniChefLP.sol\":50166:50194  IERC20(lpToken0).safeApprove */\n      tag_164\n        /* \"strategies/StrategyMiniChefLP.sol\":50166:50208  IERC20(lpToken0).safeApprove(unirouter, 0) */\n      jump\t// in\n    tag_367:\n        /* \"strategies/StrategyMiniChefLP.sol\":50247:50256  unirouter */\n      sload(0x03)\n        /* \"strategies/StrategyMiniChefLP.sol\":50225:50233  lpToken0 */\n      sload(0x0c)\n        /* \"strategies/StrategyMiniChefLP.sol\":50218:50276  IERC20(lpToken0).safeApprove(unirouter, type(uint256).max) */\n      tag_368\n      swap2\n      sub(shl(0xa0, 0x01), 0x01)\n        /* \"strategies/StrategyMiniChefLP.sol\":50225:50233  lpToken0 */\n      swap2\n      dup3\n      and\n      swap2\n        /* \"strategies/StrategyMiniChefLP.sol\":50247:50256  unirouter */\n      and\n      not(0x00)\n        /* \"strategies/StrategyMiniChefLP.sol\":50218:50246  IERC20(lpToken0).safeApprove */\n      tag_164\n        /* \"strategies/StrategyMiniChefLP.sol\":50218:50276  IERC20(lpToken0).safeApprove(unirouter, type(uint256).max) */\n      jump\t// in\n    tag_368:\n        /* \"strategies/StrategyMiniChefLP.sol\":50316:50325  unirouter */\n      sload(0x03)\n        /* \"strategies/StrategyMiniChefLP.sol\":50294:50302  lpToken1 */\n      sload(0x0d)\n        /* \"strategies/StrategyMiniChefLP.sol\":50287:50329  IERC20(lpToken1).safeApprove(unirouter, 0) */\n      tag_369\n      swap2\n      sub(shl(0xa0, 0x01), 0x01)\n        /* \"strategies/StrategyMiniChefLP.sol\":50294:50302  lpToken1 */\n      swap2\n      dup3\n      and\n      swap2\n        /* \"strategies/StrategyMiniChefLP.sol\":50316:50325  unirouter */\n      and\n      0x00\n        /* \"strategies/StrategyMiniChefLP.sol\":50287:50315  IERC20(lpToken1).safeApprove */\n      tag_164\n        /* \"strategies/StrategyMiniChefLP.sol\":50287:50329  IERC20(lpToken1).safeApprove(unirouter, 0) */\n      jump\t// in\n    tag_369:\n        /* \"strategies/StrategyMiniChefLP.sol\":50368:50377  unirouter */\n      sload(0x03)\n        /* \"strategies/StrategyMiniChefLP.sol\":50346:50354  lpToken1 */\n      sload(0x0d)\n        /* \"strategies/StrategyMiniChefLP.sol\":50339:50397  IERC20(lpToken1).safeApprove(unirouter, type(uint256).max) */\n      tag_220\n      swap2\n      sub(shl(0xa0, 0x01), 0x01)\n        /* \"strategies/StrategyMiniChefLP.sol\":50346:50354  lpToken1 */\n      swap2\n      dup3\n      and\n      swap2\n        /* \"strategies/StrategyMiniChefLP.sol\":50368:50377  unirouter */\n      and\n      not(0x00)\n        /* \"strategies/StrategyMiniChefLP.sol\":50339:50367  IERC20(lpToken1).safeApprove */\n      tag_164\n        /* \"strategies/StrategyMiniChefLP.sol\":50339:50397  IERC20(lpToken1).safeApprove(unirouter, type(uint256).max) */\n      jump\t// in\n        /* \"strategies/StrategyMiniChefLP.sol\":46619:47693  function chargeFees() internal {... */\n    tag_231:\n        /* \"strategies/StrategyMiniChefLP.sol\":46774:46780  native */\n      sload(0x09)\n        /* \"strategies/StrategyMiniChefLP.sol\":46767:46806  IERC20(native).balanceOf(address(this)) */\n      0x40\n      dup1\n      mload\n      shl(0xe0, 0x70a08231)\n      dup2\n      mstore\n        /* \"strategies/StrategyMiniChefLP.sol\":46800:46804  this */\n      address\n        /* \"strategies/StrategyMiniChefLP.sol\":46767:46806  IERC20(native).balanceOf(address(this)) */\n      0x04\n      dup3\n      add\n      mstore\n      swap1\n      mload\n        /* \"strategies/StrategyMiniChefLP.sol\":46748:46764  uint256 toOutput */\n      0x00\n      swap3\n      sub(shl(0xa0, 0x01), 0x01)\n        /* \"strategies/StrategyMiniChefLP.sol\":46774:46780  native */\n      and\n      swap2\n        /* \"strategies/StrategyMiniChefLP.sol\":46767:46791  IERC20(native).balanceOf */\n      0x70a08231\n      swap2\n        /* \"strategies/StrategyMiniChefLP.sol\":46767:46806  IERC20(native).balanceOf(address(this)) */\n      0x24\n      dup1\n      dup4\n      add\n      swap3\n      0x20\n      swap3\n      swap2\n      swap1\n      dup3\n      swap1\n      sub\n      add\n      dup2\n        /* \"strategies/StrategyMiniChefLP.sol\":46774:46780  native */\n      dup7\n        /* \"strategies/StrategyMiniChefLP.sol\":46767:46806  IERC20(native).balanceOf(address(this)) */\n      dup1\n      extcodesize\n      iszero\n      dup1\n      iszero\n      tag_372\n      jumpi\n      0x00\n      dup1\n      revert\n    tag_372:\n      pop\n      gas\n      staticcall\n      iszero\n      dup1\n      iszero\n      tag_374\n      jumpi\n      returndatasize\n      0x00\n      dup1\n      returndatacopy\n      revert(0x00, returndatasize)\n    tag_374:\n      pop\n      pop\n      pop\n      pop\n      mload(0x40)\n      returndatasize\n      0x20\n      dup2\n      lt\n      iszero\n      tag_375\n      jumpi\n      0x00\n      dup1\n      revert\n    tag_375:\n      pop\n      mload\n      swap1\n      pop\n        /* \"strategies/StrategyMiniChefLP.sol\":46820:46832  toOutput > 0 */\n      dup1\n      iszero\n        /* \"strategies/StrategyMiniChefLP.sol\":46816:46978  if (toOutput > 0) {... */\n      tag_376\n      jumpi\n        /* \"strategies/StrategyMiniChefLP.sol\":46866:46875  unirouter */\n      sload(0x03)\n        /* \"strategies/StrategyMiniChefLP.sol\":46848:46967  IUniswapRouterETH(unirouter).swapExactTokensForTokens(toOutput, 0, nativeToOutputRoute, address(this), block.timestamp) */\n      mload(0x40)\n      shl(0xe0, 0x38ed1739)\n      dup2\n      mstore\n      0x04\n      dup2\n      add\n      dup4\n      dup2\n      mstore\n        /* \"strategies/StrategyMiniChefLP.sol\":46866:46875  unirouter */\n      0x00\n        /* \"strategies/StrategyMiniChefLP.sol\":46848:46967  IUniswapRouterETH(unirouter).swapExactTokensForTokens(toOutput, 0, nativeToOutputRoute, address(this), block.timestamp) */\n      0x24\n      dup4\n      add\n      dup2\n      swap1\n      mstore\n        /* \"strategies/StrategyMiniChefLP.sol\":46944:46948  this */\n      address\n        /* \"strategies/StrategyMiniChefLP.sol\":46848:46967  IUniswapRouterETH(unirouter).swapExactTokensForTokens(toOutput, 0, nativeToOutputRoute, address(this), block.timestamp) */\n      0x64\n      dup5\n      add\n      dup2\n      swap1\n      mstore\n        /* \"strategies/StrategyMiniChefLP.sol\":46951:46966  block.timestamp */\n      timestamp\n        /* \"strategies/StrategyMiniChefLP.sol\":46848:46967  IUniswapRouterETH(unirouter).swapExactTokensForTokens(toOutput, 0, nativeToOutputRoute, address(this), block.timestamp) */\n      0x84\n      dup6\n      add\n      dup2\n      swap1\n      mstore\n      0xa0\n      0x44\n      dup7\n      add\n      swap1\n      dup2\n      mstore\n        /* \"strategies/StrategyMiniChefLP.sol\":46915:46934  nativeToOutputRoute */\n      0x12\n        /* \"strategies/StrategyMiniChefLP.sol\":46848:46967  IUniswapRouterETH(unirouter).swapExactTokensForTokens(toOutput, 0, nativeToOutputRoute, address(this), block.timestamp) */\n      dup1\n      sload\n      0xa4\n      dup9\n      add\n      dup2\n      swap1\n      mstore\n      sub(shl(0xa0, 0x01), 0x01)\n        /* \"strategies/StrategyMiniChefLP.sol\":46866:46875  unirouter */\n      swap1\n      swap9\n      and\n      swap8\n        /* \"strategies/StrategyMiniChefLP.sol\":46848:46901  IUniswapRouterETH(unirouter).swapExactTokensForTokens */\n      0x38ed1739\n      swap8\n        /* \"strategies/StrategyMiniChefLP.sol\":46902:46910  toOutput */\n      dup11\n      swap8\n        /* \"strategies/StrategyMiniChefLP.sol\":46915:46934  nativeToOutputRoute */\n      swap3\n      swap6\n        /* \"strategies/StrategyMiniChefLP.sol\":46944:46948  this */\n      swap5\n        /* \"strategies/StrategyMiniChefLP.sol\":46951:46966  block.timestamp */\n      swap4\n        /* \"strategies/StrategyMiniChefLP.sol\":46848:46967  IUniswapRouterETH(unirouter).swapExactTokensForTokens(toOutput, 0, nativeToOutputRoute, address(this), block.timestamp) */\n      swap2\n      0xc4\n      swap1\n      swap2\n      add\n      swap1\n        /* \"strategies/StrategyMiniChefLP.sol\":46915:46934  nativeToOutputRoute */\n      dup7\n      swap1\n        /* \"strategies/StrategyMiniChefLP.sol\":46848:46967  IUniswapRouterETH(unirouter).swapExactTokensForTokens(toOutput, 0, nativeToOutputRoute, address(this), block.timestamp) */\n      dup1\n      iszero\n      tag_377\n      jumpi\n      0x20\n      mul\n      dup3\n      add\n      swap2\n      swap1\n      0x00\n      mstore\n      keccak256(0x00, 0x20)\n      swap1\n    tag_378:\n      dup2\n      sload\n      sub(shl(0xa0, 0x01), 0x01)\n      and\n      dup2\n      mstore\n      0x01\n      swap1\n      swap2\n      add\n      swap1\n      0x20\n      add\n      dup1\n      dup4\n      gt\n      tag_378\n      jumpi\n    tag_377:\n      pop\n      pop\n      swap7\n      pop\n      pop\n      pop\n      pop\n      pop\n      pop\n      pop\n      0x00\n      mload(0x40)\n      dup1\n      dup4\n      sub\n      dup2\n      0x00\n      dup8\n      dup1\n      extcodesize\n      iszero\n      dup1\n      iszero\n      tag_379\n      jumpi\n      0x00\n      dup1\n      revert\n    tag_379:\n      pop\n      gas\n      call\n      iszero\n      dup1\n      iszero\n      tag_381\n      jumpi\n      returndatasize\n      0x00\n      dup1\n      returndatacopy\n      revert(0x00, returndatasize)\n    tag_381:\n      pop\n      pop\n      pop\n      pop\n      mload(0x40)\n      returndatasize\n      0x00\n      dup3\n      returndatacopy\n      0x1f\n      returndatasize\n      swap1\n      dup2\n      add\n      not(0x1f)\n      and\n      dup3\n      add\n      0x40\n      mstore\n      0x20\n      dup2\n      lt\n      iszero\n      tag_382\n      jumpi\n      0x00\n      dup1\n      revert\n    tag_382:\n      dup2\n      add\n      swap1\n      dup1\n      dup1\n      mload\n      mload(0x40)\n      swap4\n      swap3\n      swap2\n      swap1\n      dup5\n      shl(0x20, 0x01)\n      dup3\n      gt\n      iszero\n      tag_383\n      jumpi\n      0x00\n      dup1\n      revert\n    tag_383:\n      swap1\n      dup4\n      add\n      swap1\n      0x20\n      dup3\n      add\n      dup6\n      dup2\n      gt\n      iszero\n      tag_384\n      jumpi\n      0x00\n      dup1\n      revert\n    tag_384:\n      dup3\n      mload\n      dup7\n      0x20\n      dup3\n      mul\n      dup4\n      add\n      gt\n      shl(0x20, 0x01)\n      dup3\n      gt\n      or\n      iszero\n      tag_385\n      jumpi\n      0x00\n      dup1\n      revert\n    tag_385:\n      dup3\n      mstore\n      pop\n      dup2\n      mload\n      0x20\n      swap2\n      dup3\n      add\n      swap3\n      dup3\n      add\n      swap2\n      mul\n      dup1\n      dup4\n      dup4\n      0x00\n    tag_386:\n      dup4\n      dup2\n      lt\n      iszero\n      tag_388\n      jumpi\n      dup2\n      dup2\n      add\n      mload\n      dup4\n      dup3\n      add\n      mstore\n      0x20\n      add\n      jump(tag_386)\n    tag_388:\n      pop\n      pop\n      pop\n      pop\n      swap1\n      pop\n      add\n      0x40\n      mstore\n      pop\n      pop\n      pop\n      pop\n        /* \"strategies/StrategyMiniChefLP.sol\":46816:46978  if (toOutput > 0) {... */\n    tag_376:\n        /* \"strategies/StrategyMiniChefLP.sol\":47014:47020  output */\n      sload(0x0a)\n        /* \"strategies/StrategyMiniChefLP.sol\":47007:47046  IERC20(output).balanceOf(address(this)) */\n      0x40\n      dup1\n      mload\n      shl(0xe0, 0x70a08231)\n      dup2\n      mstore\n        /* \"strategies/StrategyMiniChefLP.sol\":47040:47044  this */\n      address\n        /* \"strategies/StrategyMiniChefLP.sol\":47007:47046  IERC20(output).balanceOf(address(this)) */\n      0x04\n      dup3\n      add\n      mstore\n      swap1\n      mload\n        /* \"strategies/StrategyMiniChefLP.sol\":46988:47004  uint256 toNative */\n      0x00\n      swap3\n        /* \"strategies/StrategyMiniChefLP.sol\":47007:47064  IERC20(output).balanceOf(address(this)).mul(30).div(1000) */\n      tag_389\n      swap3\n        /* \"strategies/StrategyMiniChefLP.sol\":47059:47063  1000 */\n      0x03e8\n      swap3\n        /* \"strategies/StrategyMiniChefLP.sol\":47007:47054  IERC20(output).balanceOf(address(this)).mul(30) */\n      tag_204\n      swap3\n        /* \"strategies/StrategyMiniChefLP.sol\":47051:47053  30 */\n      0x1e\n      swap3\n      sub(shl(0xa0, 0x01), 0x01)\n        /* \"strategies/StrategyMiniChefLP.sol\":47014:47020  output */\n      swap1\n      swap2\n      and\n      swap2\n        /* \"strategies/StrategyMiniChefLP.sol\":47007:47031  IERC20(output).balanceOf */\n      0x70a08231\n      swap2\n        /* \"strategies/StrategyMiniChefLP.sol\":47007:47046  IERC20(output).balanceOf(address(this)) */\n      0x24\n      dup1\n      dup3\n      add\n      swap3\n      0x20\n      swap3\n      swap1\n      swap2\n      swap1\n      dup3\n      swap1\n      sub\n      add\n      dup2\n        /* \"strategies/StrategyMiniChefLP.sol\":47014:47020  output */\n      dup7\n        /* \"strategies/StrategyMiniChefLP.sol\":47007:47046  IERC20(output).balanceOf(address(this)) */\n      dup1\n      extcodesize\n      iszero\n      dup1\n      iszero\n      tag_391\n      jumpi\n      0x00\n      dup1\n      revert\n    tag_391:\n      pop\n      gas\n      staticcall\n      iszero\n      dup1\n      iszero\n      tag_393\n      jumpi\n      returndatasize\n      0x00\n      dup1\n      returndatacopy\n      revert(0x00, returndatasize)\n    tag_393:\n      pop\n      pop\n      pop\n      pop\n      mload(0x40)\n      returndatasize\n      0x20\n      dup2\n      lt\n      iszero\n      tag_394\n      jumpi\n      0x00\n      dup1\n      revert\n    tag_394:\n      pop\n      mload\n      swap1\n        /* \"strategies/StrategyMiniChefLP.sol\":47007:47050  IERC20(output).balanceOf(address(this)).mul */\n      tag_205\n        /* \"strategies/StrategyMiniChefLP.sol\":47007:47054  IERC20(output).balanceOf(address(this)).mul(30) */\n      jump\t// in\n        /* \"strategies/StrategyMiniChefLP.sol\":47007:47064  IERC20(output).balanceOf(address(this)).mul(30).div(1000) */\n    tag_389:\n        /* \"strategies/StrategyMiniChefLP.sol\":46988:47064  uint256 toNative = IERC20(output).balanceOf(address(this)).mul(30).div(1000) */\n      swap1\n      pop\n        /* \"strategies/StrategyMiniChefLP.sol\":47092:47101  unirouter */\n      0x03\n      0x00\n      swap1\n      sload\n      swap1\n      0x0100\n      exp\n      swap1\n      div\n      sub(shl(0xa0, 0x01), 0x01)\n      and\n      sub(shl(0xa0, 0x01), 0x01)\n        /* \"strategies/StrategyMiniChefLP.sol\":47074:47127  IUniswapRouterETH(unirouter).swapExactTokensForTokens */\n      and\n      0x38ed1739\n        /* \"strategies/StrategyMiniChefLP.sol\":47128:47136  toNative */\n      dup3\n        /* \"strategies/StrategyMiniChefLP.sol\":47138:47139  0 */\n      0x00\n        /* \"strategies/StrategyMiniChefLP.sol\":47141:47160  outputToNativeRoute */\n      0x11\n        /* \"strategies/StrategyMiniChefLP.sol\":47170:47174  this */\n      address\n        /* \"strategies/StrategyMiniChefLP.sol\":47177:47192  block.timestamp */\n      timestamp\n        /* \"strategies/StrategyMiniChefLP.sol\":47074:47193  IUniswapRouterETH(unirouter).swapExactTokensForTokens(toNative, 0, outputToNativeRoute, address(this), block.timestamp) */\n      mload(0x40)\n      dup7\n      0xffffffff\n      and\n      0xe0\n      shl\n      dup2\n      mstore\n      0x04\n      add\n      dup1\n      dup7\n      dup2\n      mstore\n      0x20\n      add\n      dup6\n      dup2\n      mstore\n      0x20\n      add\n      dup1\n      0x20\n      add\n      dup5\n      sub(shl(0xa0, 0x01), 0x01)\n      and\n      dup2\n      mstore\n      0x20\n      add\n      dup4\n      dup2\n      mstore\n      0x20\n      add\n      dup3\n      dup2\n      sub\n      dup3\n      mstore\n      dup6\n      dup2\n      dup2\n      sload\n      dup2\n      mstore\n      0x20\n      add\n      swap2\n      pop\n      dup1\n      sload\n      dup1\n      iszero\n      tag_395\n      jumpi\n      0x20\n      mul\n      dup3\n      add\n      swap2\n      swap1\n      0x00\n      mstore\n      keccak256(0x00, 0x20)\n      swap1\n    tag_396:\n      dup2\n      sload\n      sub(shl(0xa0, 0x01), 0x01)\n      and\n      dup2\n      mstore\n      0x01\n      swap1\n      swap2\n      add\n      swap1\n      0x20\n      add\n      dup1\n      dup4\n      gt\n      tag_396\n      jumpi\n    tag_395:\n      pop\n      pop\n      swap7\n      pop\n      pop\n      pop\n      pop\n      pop\n      pop\n      pop\n      0x00\n      mload(0x40)\n      dup1\n      dup4\n      sub\n      dup2\n      0x00\n      dup8\n      dup1\n      extcodesize\n      iszero\n      dup1\n      iszero\n      tag_397\n      jumpi\n      0x00\n      dup1\n      revert\n    tag_397:\n      pop\n      gas\n      call\n      iszero\n      dup1\n      iszero\n      tag_399\n      jumpi\n      returndatasize\n      0x00\n      dup1\n      returndatacopy\n      revert(0x00, returndatasize)\n    tag_399:\n      pop\n      pop\n      pop\n      pop\n      mload(0x40)\n      returndatasize\n      0x00\n      dup3\n      returndatacopy\n      0x1f\n      returndatasize\n      swap1\n      dup2\n      add\n      not(0x1f)\n      and\n      dup3\n      add\n      0x40\n      mstore\n      0x20\n      dup2\n      lt\n      iszero\n      tag_400\n      jumpi\n      0x00\n      dup1\n      revert\n    tag_400:\n      dup2\n      add\n      swap1\n      dup1\n      dup1\n      mload\n      mload(0x40)\n      swap4\n      swap3\n      swap2\n      swap1\n      dup5\n      shl(0x20, 0x01)\n      dup3\n      gt\n      iszero\n      tag_401\n      jumpi\n      0x00\n      dup1\n      revert\n    tag_401:\n      swap1\n      dup4\n      add\n      swap1\n      0x20\n      dup3\n      add\n      dup6\n      dup2\n      gt\n      iszero\n      tag_402\n      jumpi\n      0x00\n      dup1\n      revert\n    tag_402:\n      dup3\n      mload\n      dup7\n      0x20\n      dup3\n      mul\n      dup4\n      add\n      gt\n      shl(0x20, 0x01)\n      dup3\n      gt\n      or\n      iszero\n      tag_403\n      jumpi\n      0x00\n      dup1\n      revert\n    tag_403:\n      dup3\n      mstore\n      pop\n      dup2\n      mload\n      0x20\n      swap2\n      dup3\n      add\n      swap3\n      dup3\n      add\n      swap2\n      mul\n      dup1\n      dup4\n      dup4\n      0x00\n    tag_404:\n      dup4\n      dup2\n      lt\n      iszero\n      tag_406\n      jumpi\n      dup2\n      dup2\n      add\n      mload\n      dup4\n      dup3\n      add\n      mstore\n      0x20\n      add\n      jump(tag_404)\n    tag_406:\n      pop\n      pop\n      pop\n      pop\n      swap2\n      swap1\n      swap2\n      add\n      0x40\n      dup2\n      dup2\n      mstore\n        /* \"strategies/StrategyMiniChefLP.sol\":47231:47237  native */\n      sload(0x09)\n      shl(0xe0, 0x70a08231)\n        /* \"strategies/StrategyMiniChefLP.sol\":47224:47263  IERC20(native).balanceOf(address(this)) */\n      dup4\n      mstore\n        /* \"strategies/StrategyMiniChefLP.sol\":47257:47261  this */\n      address\n        /* \"strategies/StrategyMiniChefLP.sol\":47224:47263  IERC20(native).balanceOf(address(this)) */\n      0x04\n      dup5\n      add\n      mstore\n      swap1\n      mload\n        /* \"strategies/StrategyMiniChefLP.sol\":47204:47221  uint256 nativeBal */\n      0x00\n      swap8\n      pop\n      sub(shl(0xa0, 0x01), 0x01)\n        /* \"strategies/StrategyMiniChefLP.sol\":47231:47237  native */\n      swap1\n      swap2\n      and\n      swap6\n      pop\n        /* \"strategies/StrategyMiniChefLP.sol\":47224:47248  IERC20(native).balanceOf */\n      0x70a08231\n      swap5\n      pop\n        /* \"strategies/StrategyMiniChefLP.sol\":47224:47263  IERC20(native).balanceOf(address(this)) */\n      0x24\n      dup1\n      dup4\n      add\n      swap5\n      pop\n      0x20\n      swap4\n      pop\n      swap1\n      swap2\n      dup3\n      swap1\n      sub\n      add\n      dup2\n        /* \"strategies/StrategyMiniChefLP.sol\":47231:47237  native */\n      dup7\n        /* \"strategies/StrategyMiniChefLP.sol\":47224:47263  IERC20(native).balanceOf(address(this)) */\n      dup1\n      extcodesize\n      iszero\n      dup1\n      iszero\n      tag_407\n      jumpi\n      0x00\n      dup1\n      revert\n    tag_407:\n      pop\n      gas\n      staticcall\n      iszero\n      dup1\n      iszero\n      tag_409\n      jumpi\n      returndatasize\n      0x00\n      dup1\n      returndatacopy\n      revert(0x00, returndatasize)\n    tag_409:\n      pop\n      pop\n      pop\n      pop\n      mload(0x40)\n      returndatasize\n      0x20\n      dup2\n      lt\n      iszero\n      tag_410\n      jumpi\n      0x00\n      dup1\n      revert\n    tag_410:\n      pop\n      mload\n        /* \"strategies/StrategyMiniChefLP.sol\":47312:47319  callFee */\n      sload(0x07)\n        /* \"strategies/StrategyMiniChefLP.sol\":47224:47263  IERC20(native).balanceOf(address(this)) */\n      swap1\n      swap2\n      pop\n        /* \"strategies/StrategyMiniChefLP.sol\":47274:47295  uint256 callFeeAmount */\n      0x00\n      swap1\n        /* \"strategies/StrategyMiniChefLP.sol\":47298:47333  nativeBal.mul(callFee).div(MAX_FEE) */\n      tag_411\n      swap1\n        /* \"strategies/StrategyMiniChefLP.sol\":42370:42374  1000 */\n      0x03e8\n      swap1\n        /* \"strategies/StrategyMiniChefLP.sol\":47298:47320  nativeBal.mul(callFee) */\n      tag_204\n      swap1\n        /* \"strategies/StrategyMiniChefLP.sol\":47224:47263  IERC20(native).balanceOf(address(this)) */\n      dup6\n      swap1\n        /* \"strategies/StrategyMiniChefLP.sol\":47298:47311  nativeBal.mul */\n      tag_205\n        /* \"strategies/StrategyMiniChefLP.sol\":47298:47320  nativeBal.mul(callFee) */\n      jump\t// in\n        /* \"strategies/StrategyMiniChefLP.sol\":47298:47333  nativeBal.mul(callFee).div(MAX_FEE) */\n    tag_411:\n        /* \"strategies/StrategyMiniChefLP.sol\":47350:47356  native */\n      sload(0x09)\n        /* \"strategies/StrategyMiniChefLP.sol\":47274:47333  uint256 callFeeAmount = nativeBal.mul(callFee).div(MAX_FEE) */\n      swap1\n      swap2\n      pop\n        /* \"strategies/StrategyMiniChefLP.sol\":47343:47397  IERC20(native).safeTransfer(msg.sender, callFeeAmount) */\n      tag_413\n      swap1\n      sub(shl(0xa0, 0x01), 0x01)\n        /* \"strategies/StrategyMiniChefLP.sol\":47350:47356  native */\n      and\n        /* \"strategies/StrategyMiniChefLP.sol\":47371:47381  msg.sender */\n      caller\n        /* \"strategies/StrategyMiniChefLP.sol\":47274:47333  uint256 callFeeAmount = nativeBal.mul(callFee).div(MAX_FEE) */\n      dup4\n        /* \"strategies/StrategyMiniChefLP.sol\":47343:47370  IERC20(native).safeTransfer */\n      tag_201\n        /* \"strategies/StrategyMiniChefLP.sol\":47343:47397  IERC20(native).safeTransfer(msg.sender, callFeeAmount) */\n      jump\t// in\n    tag_413:\n        /* \"strategies/StrategyMiniChefLP.sol\":47408:47431  uint256 evolleFeeAmount */\n      0x00\n        /* \"strategies/StrategyMiniChefLP.sol\":47434:47471  nativeBal.mul(evolleFee).div(MAX_FEE) */\n      tag_414\n        /* \"strategies/StrategyMiniChefLP.sol\":42370:42374  1000 */\n      0x03e8\n        /* \"strategies/StrategyMiniChefLP.sol\":47434:47458  nativeBal.mul(evolleFee) */\n      tag_204\n        /* \"strategies/StrategyMiniChefLP.sol\":47448:47457  evolleFee */\n      sload(0x08)\n        /* \"strategies/StrategyMiniChefLP.sol\":47434:47443  nativeBal */\n      dup7\n        /* \"strategies/StrategyMiniChefLP.sol\":47434:47447  nativeBal.mul */\n      tag_205\n      swap1\n        /* \"strategies/StrategyMiniChefLP.sol\":47434:47458  nativeBal.mul(evolleFee) */\n      swap2\n      swap1\n      0xffffffff\n      and\n      jump\t// in\n        /* \"strategies/StrategyMiniChefLP.sol\":47434:47471  nativeBal.mul(evolleFee).div(MAX_FEE) */\n    tag_414:\n        /* \"strategies/StrategyMiniChefLP.sol\":47509:47527  evolleFeeRecipient */\n      sload(0x05)\n        /* \"strategies/StrategyMiniChefLP.sol\":47488:47494  native */\n      sload(0x09)\n        /* \"strategies/StrategyMiniChefLP.sol\":47408:47471  uint256 evolleFeeAmount = nativeBal.mul(evolleFee).div(MAX_FEE) */\n      swap2\n      swap3\n      pop\n        /* \"strategies/StrategyMiniChefLP.sol\":47481:47545  IERC20(native).safeTransfer(evolleFeeRecipient, evolleFeeAmount) */\n      tag_416\n      swap2\n      sub(shl(0xa0, 0x01), 0x01)\n        /* \"strategies/StrategyMiniChefLP.sol\":47488:47494  native */\n      swap1\n      dup2\n      and\n      swap2\n        /* \"strategies/StrategyMiniChefLP.sol\":47509:47527  evolleFeeRecipient */\n      and\n        /* \"strategies/StrategyMiniChefLP.sol\":47408:47471  uint256 evolleFeeAmount = nativeBal.mul(evolleFee).div(MAX_FEE) */\n      dup4\n        /* \"strategies/StrategyMiniChefLP.sol\":47481:47508  IERC20(native).safeTransfer */\n      tag_201\n        /* \"strategies/StrategyMiniChefLP.sol\":47481:47545  IERC20(native).safeTransfer(evolleFeeRecipient, evolleFeeAmount) */\n      jump\t// in\n    tag_416:\n        /* \"strategies/StrategyMiniChefLP.sol\":47556:47577  uint256 strategistFee */\n      0x00\n        /* \"strategies/StrategyMiniChefLP.sol\":47580:47622  nativeBal.mul(STRATEGIST_FEE).div(MAX_FEE) */\n      tag_417\n        /* \"strategies/StrategyMiniChefLP.sol\":42370:42374  1000 */\n      0x03e8\n        /* \"strategies/StrategyMiniChefLP.sol\":47580:47609  nativeBal.mul(STRATEGIST_FEE) */\n      tag_204\n        /* \"strategies/StrategyMiniChefLP.sol\":47580:47589  nativeBal */\n      dup7\n        /* \"strategies/StrategyMiniChefLP.sol\":47556:47577  uint256 strategistFee */\n      dup5\n        /* \"strategies/StrategyMiniChefLP.sol\":47580:47593  nativeBal.mul */\n      tag_205\n        /* \"strategies/StrategyMiniChefLP.sol\":47580:47609  nativeBal.mul(STRATEGIST_FEE) */\n      jump\t// in\n        /* \"strategies/StrategyMiniChefLP.sol\":47580:47622  nativeBal.mul(STRATEGIST_FEE).div(MAX_FEE) */\n    tag_417:\n        /* \"strategies/StrategyMiniChefLP.sol\":47660:47670  strategist */\n      sload(0x02)\n        /* \"strategies/StrategyMiniChefLP.sol\":47639:47645  native */\n      sload(0x09)\n        /* \"strategies/StrategyMiniChefLP.sol\":47556:47622  uint256 strategistFee = nativeBal.mul(STRATEGIST_FEE).div(MAX_FEE) */\n      swap2\n      swap3\n      pop\n        /* \"strategies/StrategyMiniChefLP.sol\":47632:47686  IERC20(native).safeTransfer(strategist, strategistFee) */\n      tag_419\n      swap2\n      sub(shl(0xa0, 0x01), 0x01)\n        /* \"strategies/StrategyMiniChefLP.sol\":47639:47645  native */\n      swap1\n      dup2\n      and\n      swap2\n        /* \"strategies/StrategyMiniChefLP.sol\":47660:47670  strategist */\n      and\n        /* \"strategies/StrategyMiniChefLP.sol\":47556:47622  uint256 strategistFee = nativeBal.mul(STRATEGIST_FEE).div(MAX_FEE) */\n      dup4\n        /* \"strategies/StrategyMiniChefLP.sol\":47632:47659  IERC20(native).safeTransfer */\n      tag_201\n        /* \"strategies/StrategyMiniChefLP.sol\":47632:47686  IERC20(native).safeTransfer(strategist, strategistFee) */\n      jump\t// in\n    tag_419:\n        /* \"strategies/StrategyMiniChefLP.sol\":46619:47693  function chargeFees() internal {... */\n      pop\n      pop\n      pop\n      pop\n      pop\n      pop\n      jump\t// out\n        /* \"strategies/StrategyMiniChefLP.sol\":47753:48486  function addLiquidity() internal {... */\n    tag_233:\n        /* \"strategies/StrategyMiniChefLP.sol\":47824:47830  output */\n      sload(0x0a)\n        /* \"strategies/StrategyMiniChefLP.sol\":47817:47856  IERC20(output).balanceOf(address(this)) */\n      0x40\n      dup1\n      mload\n      shl(0xe0, 0x70a08231)\n      dup2\n      mstore\n        /* \"strategies/StrategyMiniChefLP.sol\":47850:47854  this */\n      address\n        /* \"strategies/StrategyMiniChefLP.sol\":47817:47856  IERC20(output).balanceOf(address(this)) */\n      0x04\n      dup3\n      add\n      mstore\n      swap1\n      mload\n        /* \"strategies/StrategyMiniChefLP.sol\":47796:47814  uint256 outputHalf */\n      0x00\n      swap3\n        /* \"strategies/StrategyMiniChefLP.sol\":47817:47863  IERC20(output).balanceOf(address(this)).div(2) */\n      tag_421\n      swap3\n        /* \"strategies/StrategyMiniChefLP.sol\":47861:47862  2 */\n      0x02\n      swap3\n      sub(shl(0xa0, 0x01), 0x01)\n        /* \"strategies/StrategyMiniChefLP.sol\":47824:47830  output */\n      swap1\n      swap3\n      and\n      swap2\n        /* \"strategies/StrategyMiniChefLP.sol\":47817:47841  IERC20(output).balanceOf */\n      0x70a08231\n      swap2\n        /* \"strategies/StrategyMiniChefLP.sol\":47817:47856  IERC20(output).balanceOf(address(this)) */\n      0x24\n      dup1\n      dup3\n      add\n      swap3\n      0x20\n      swap3\n      swap1\n      swap2\n      swap1\n      dup3\n      swap1\n      sub\n      add\n      dup2\n        /* \"strategies/StrategyMiniChefLP.sol\":47824:47830  output */\n      dup7\n        /* \"strategies/StrategyMiniChefLP.sol\":47817:47856  IERC20(output).balanceOf(address(this)) */\n      dup1\n      extcodesize\n      iszero\n      dup1\n      iszero\n      tag_422\n      jumpi\n      0x00\n      dup1\n      revert\n    tag_422:\n      pop\n      gas\n      staticcall\n      iszero\n      dup1\n      iszero\n      tag_424\n      jumpi\n      returndatasize\n      0x00\n      dup1\n      returndatacopy\n      revert(0x00, returndatasize)\n    tag_424:\n      pop\n      pop\n      pop\n      pop\n      mload(0x40)\n      returndatasize\n      0x20\n      dup2\n      lt\n      iszero\n      tag_425\n      jumpi\n      0x00\n      dup1\n      revert\n    tag_425:\n      pop\n      mload\n      swap1\n        /* \"strategies/StrategyMiniChefLP.sol\":47817:47860  IERC20(output).balanceOf(address(this)).div */\n      tag_206\n        /* \"strategies/StrategyMiniChefLP.sol\":47817:47863  IERC20(output).balanceOf(address(this)).div(2) */\n      jump\t// in\n    tag_421:\n        /* \"strategies/StrategyMiniChefLP.sol\":47890:47896  output */\n      sload(0x0a)\n        /* \"strategies/StrategyMiniChefLP.sol\":47878:47886  lpToken0 */\n      sload(0x0c)\n        /* \"strategies/StrategyMiniChefLP.sol\":47796:47863  uint256 outputHalf = IERC20(output).balanceOf(address(this)).div(2) */\n      swap2\n      swap3\n      pop\n      sub(shl(0xa0, 0x01), 0x01)\n        /* \"strategies/StrategyMiniChefLP.sol\":47878:47886  lpToken0 */\n      swap2\n      dup3\n      and\n        /* \"strategies/StrategyMiniChefLP.sol\":47890:47896  output */\n      swap2\n      and\n        /* \"strategies/StrategyMiniChefLP.sol\":47878:47896  lpToken0 != output */\n      eq\n        /* \"strategies/StrategyMiniChefLP.sol\":47874:48041  if (lpToken0 != output) {... */\n      tag_426\n      jumpi\n        /* \"strategies/StrategyMiniChefLP.sol\":47930:47939  unirouter */\n      sload(0x03)\n        /* \"strategies/StrategyMiniChefLP.sol\":47912:48030  IUniswapRouterETH(unirouter).swapExactTokensForTokens(outputHalf, 0, outputToLp0Route, address(this), block.timestamp) */\n      mload(0x40)\n      shl(0xe0, 0x38ed1739)\n      dup2\n      mstore\n      0x04\n      dup2\n      add\n      dup4\n      dup2\n      mstore\n        /* \"strategies/StrategyMiniChefLP.sol\":47930:47939  unirouter */\n      0x00\n        /* \"strategies/StrategyMiniChefLP.sol\":47912:48030  IUniswapRouterETH(unirouter).swapExactTokensForTokens(outputHalf, 0, outputToLp0Route, address(this), block.timestamp) */\n      0x24\n      dup4\n      add\n      dup2\n      swap1\n      mstore\n        /* \"strategies/StrategyMiniChefLP.sol\":48007:48011  this */\n      address\n        /* \"strategies/StrategyMiniChefLP.sol\":47912:48030  IUniswapRouterETH(unirouter).swapExactTokensForTokens(outputHalf, 0, outputToLp0Route, address(this), block.timestamp) */\n      0x64\n      dup5\n      add\n      dup2\n      swap1\n      mstore\n        /* \"strategies/StrategyMiniChefLP.sol\":48014:48029  block.timestamp */\n      timestamp\n        /* \"strategies/StrategyMiniChefLP.sol\":47912:48030  IUniswapRouterETH(unirouter).swapExactTokensForTokens(outputHalf, 0, outputToLp0Route, address(this), block.timestamp) */\n      0x84\n      dup6\n      add\n      dup2\n      swap1\n      mstore\n      0xa0\n      0x44\n      dup7\n      add\n      swap1\n      dup2\n      mstore\n        /* \"strategies/StrategyMiniChefLP.sol\":47981:47997  outputToLp0Route */\n      0x13\n        /* \"strategies/StrategyMiniChefLP.sol\":47912:48030  IUniswapRouterETH(unirouter).swapExactTokensForTokens(outputHalf, 0, outputToLp0Route, address(this), block.timestamp) */\n      dup1\n      sload\n      0xa4\n      dup9\n      add\n      dup2\n      swap1\n      mstore\n      sub(shl(0xa0, 0x01), 0x01)\n        /* \"strategies/StrategyMiniChefLP.sol\":47930:47939  unirouter */\n      swap1\n      swap9\n      and\n      swap8\n        /* \"strategies/StrategyMiniChefLP.sol\":47912:47965  IUniswapRouterETH(unirouter).swapExactTokensForTokens */\n      0x38ed1739\n      swap8\n        /* \"strategies/StrategyMiniChefLP.sol\":47966:47976  outputHalf */\n      dup11\n      swap8\n        /* \"strategies/StrategyMiniChefLP.sol\":47981:47997  outputToLp0Route */\n      swap3\n      swap6\n        /* \"strategies/StrategyMiniChefLP.sol\":48007:48011  this */\n      swap5\n        /* \"strategies/StrategyMiniChefLP.sol\":48014:48029  block.timestamp */\n      swap4\n        /* \"strategies/StrategyMiniChefLP.sol\":47912:48030  IUniswapRouterETH(unirouter).swapExactTokensForTokens(outputHalf, 0, outputToLp0Route, address(this), block.timestamp) */\n      swap2\n      0xc4\n      swap1\n      swap2\n      add\n      swap1\n        /* \"strategies/StrategyMiniChefLP.sol\":47981:47997  outputToLp0Route */\n      dup7\n      swap1\n        /* \"strategies/StrategyMiniChefLP.sol\":47912:48030  IUniswapRouterETH(unirouter).swapExactTokensForTokens(outputHalf, 0, outputToLp0Route, address(this), block.timestamp) */\n      dup1\n      iszero\n      tag_427\n      jumpi\n      0x20\n      mul\n      dup3\n      add\n      swap2\n      swap1\n      0x00\n      mstore\n      keccak256(0x00, 0x20)\n      swap1\n    tag_428:\n      dup2\n      sload\n      sub(shl(0xa0, 0x01), 0x01)\n      and\n      dup2\n      mstore\n      0x01\n      swap1\n      swap2\n      add\n      swap1\n      0x20\n      add\n      dup1\n      dup4\n      gt\n      tag_428\n      jumpi\n    tag_427:\n      pop\n      pop\n      swap7\n      pop\n      pop\n      pop\n      pop\n      pop\n      pop\n      pop\n      0x00\n      mload(0x40)\n      dup1\n      dup4\n      sub\n      dup2\n      0x00\n      dup8\n      dup1\n      extcodesize\n      iszero\n      dup1\n      iszero\n      tag_429\n      jumpi\n      0x00\n      dup1\n      revert\n    tag_429:\n      pop\n      gas\n      call\n      iszero\n      dup1\n      iszero\n      tag_431\n      jumpi\n      returndatasize\n      0x00\n      dup1\n      returndatacopy\n      revert(0x00, returndatasize)\n    tag_431:\n      pop\n      pop\n      pop\n      pop\n      mload(0x40)\n      returndatasize\n      0x00\n      dup3\n      returndatacopy\n      0x1f\n      returndatasize\n      swap1\n      dup2\n      add\n      not(0x1f)\n      and\n      dup3\n      add\n      0x40\n      mstore\n      0x20\n      dup2\n      lt\n      iszero\n      tag_432\n      jumpi\n      0x00\n      dup1\n      revert\n    tag_432:\n      dup2\n      add\n      swap1\n      dup1\n      dup1\n      mload\n      mload(0x40)\n      swap4\n      swap3\n      swap2\n      swap1\n      dup5\n      shl(0x20, 0x01)\n      dup3\n      gt\n      iszero\n      tag_433\n      jumpi\n      0x00\n      dup1\n      revert\n    tag_433:\n      swap1\n      dup4\n      add\n      swap1\n      0x20\n      dup3\n      add\n      dup6\n      dup2\n      gt\n      iszero\n      tag_434\n      jumpi\n      0x00\n      dup1\n      revert\n    tag_434:\n      dup3\n      mload\n      dup7\n      0x20\n      dup3\n      mul\n      dup4\n      add\n      gt\n      shl(0x20, 0x01)\n      dup3\n      gt\n      or\n      iszero\n      tag_435\n      jumpi\n      0x00\n      dup1\n      revert\n    tag_435:\n      dup3\n      mstore\n      pop\n      dup2\n      mload\n      0x20\n      swap2\n      dup3\n      add\n      swap3\n      dup3\n      add\n      swap2\n      mul\n      dup1\n      dup4\n      dup4\n      0x00\n    tag_436:\n      dup4\n      dup2\n      lt\n      iszero\n      tag_438\n      jumpi\n      dup2\n      dup2\n      add\n      mload\n      dup4\n      dup3\n      add\n      mstore\n      0x20\n      add\n      jump(tag_436)\n    tag_438:\n      pop\n      pop\n      pop\n      pop\n      swap1\n      pop\n      add\n      0x40\n      mstore\n      pop\n      pop\n      pop\n      pop\n        /* \"strategies/StrategyMiniChefLP.sol\":47874:48041  if (lpToken0 != output) {... */\n    tag_426:\n        /* \"strategies/StrategyMiniChefLP.sol\":48067:48073  output */\n      sload(0x0a)\n        /* \"strategies/StrategyMiniChefLP.sol\":48055:48063  lpToken1 */\n      sload(0x0d)\n      sub(shl(0xa0, 0x01), 0x01)\n      swap1\n      dup2\n      and\n        /* \"strategies/StrategyMiniChefLP.sol\":48067:48073  output */\n      swap2\n      and\n        /* \"strategies/StrategyMiniChefLP.sol\":48055:48073  lpToken1 != output */\n      eq\n        /* \"strategies/StrategyMiniChefLP.sol\":48051:48218  if (lpToken1 != output) {... */\n      tag_439\n      jumpi\n        /* \"strategies/StrategyMiniChefLP.sol\":48107:48116  unirouter */\n      sload(0x03)\n        /* \"strategies/StrategyMiniChefLP.sol\":48089:48207  IUniswapRouterETH(unirouter).swapExactTokensForTokens(outputHalf, 0, outputToLp1Route, address(this), block.timestamp) */\n      mload(0x40)\n      shl(0xe0, 0x38ed1739)\n      dup2\n      mstore\n      0x04\n      dup2\n      add\n      dup4\n      dup2\n      mstore\n        /* \"strategies/StrategyMiniChefLP.sol\":48107:48116  unirouter */\n      0x00\n        /* \"strategies/StrategyMiniChefLP.sol\":48089:48207  IUniswapRouterETH(unirouter).swapExactTokensForTokens(outputHalf, 0, outputToLp1Route, address(this), block.timestamp) */\n      0x24\n      dup4\n      add\n      dup2\n      swap1\n      mstore\n        /* \"strategies/StrategyMiniChefLP.sol\":48184:48188  this */\n      address\n        /* \"strategies/StrategyMiniChefLP.sol\":48089:48207  IUniswapRouterETH(unirouter).swapExactTokensForTokens(outputHalf, 0, outputToLp1Route, address(this), block.timestamp) */\n      0x64\n      dup5\n      add\n      dup2\n      swap1\n      mstore\n        /* \"strategies/StrategyMiniChefLP.sol\":48191:48206  block.timestamp */\n      timestamp\n        /* \"strategies/StrategyMiniChefLP.sol\":48089:48207  IUniswapRouterETH(unirouter).swapExactTokensForTokens(outputHalf, 0, outputToLp1Route, address(this), block.timestamp) */\n      0x84\n      dup6\n      add\n      dup2\n      swap1\n      mstore\n      0xa0\n      0x44\n      dup7\n      add\n      swap1\n      dup2\n      mstore\n        /* \"strategies/StrategyMiniChefLP.sol\":48158:48174  outputToLp1Route */\n      0x14\n        /* \"strategies/StrategyMiniChefLP.sol\":48089:48207  IUniswapRouterETH(unirouter).swapExactTokensForTokens(outputHalf, 0, outputToLp1Route, address(this), block.timestamp) */\n      dup1\n      sload\n      0xa4\n      dup9\n      add\n      dup2\n      swap1\n      mstore\n      sub(shl(0xa0, 0x01), 0x01)\n        /* \"strategies/StrategyMiniChefLP.sol\":48107:48116  unirouter */\n      swap1\n      swap9\n      and\n      swap8\n        /* \"strategies/StrategyMiniChefLP.sol\":48089:48142  IUniswapRouterETH(unirouter).swapExactTokensForTokens */\n      0x38ed1739\n      swap8\n        /* \"strategies/StrategyMiniChefLP.sol\":48143:48153  outputHalf */\n      dup11\n      swap8\n        /* \"strategies/StrategyMiniChefLP.sol\":48158:48174  outputToLp1Route */\n      swap3\n      swap6\n        /* \"strategies/StrategyMiniChefLP.sol\":48184:48188  this */\n      swap5\n        /* \"strategies/StrategyMiniChefLP.sol\":48191:48206  block.timestamp */\n      swap4\n        /* \"strategies/StrategyMiniChefLP.sol\":48089:48207  IUniswapRouterETH(unirouter).swapExactTokensForTokens(outputHalf, 0, outputToLp1Route, address(this), block.timestamp) */\n      swap2\n      0xc4\n      swap1\n      swap2\n      add\n      swap1\n        /* \"strategies/StrategyMiniChefLP.sol\":48158:48174  outputToLp1Route */\n      dup7\n      swap1\n        /* \"strategies/StrategyMiniChefLP.sol\":48089:48207  IUniswapRouterETH(unirouter).swapExactTokensForTokens(outputHalf, 0, outputToLp1Route, address(this), block.timestamp) */\n      dup1\n      iszero\n      tag_440\n      jumpi\n      0x20\n      mul\n      dup3\n      add\n      swap2\n      swap1\n      0x00\n      mstore\n      keccak256(0x00, 0x20)\n      swap1\n    tag_441:\n      dup2\n      sload\n      sub(shl(0xa0, 0x01), 0x01)\n      and\n      dup2\n      mstore\n      0x01\n      swap1\n      swap2\n      add\n      swap1\n      0x20\n      add\n      dup1\n      dup4\n      gt\n      tag_441\n      jumpi\n    tag_440:\n      pop\n      pop\n      swap7\n      pop\n      pop\n      pop\n      pop\n      pop\n      pop\n      pop\n      0x00\n      mload(0x40)\n      dup1\n      dup4\n      sub\n      dup2\n      0x00\n      dup8\n      dup1\n      extcodesize\n      iszero\n      dup1\n      iszero\n      tag_442\n      jumpi\n      0x00\n      dup1\n      revert\n    tag_442:\n      pop\n      gas\n      call\n      iszero\n      dup1\n      iszero\n      tag_444\n      jumpi\n      returndatasize\n      0x00\n      dup1\n      returndatacopy\n      revert(0x00, returndatasize)\n    tag_444:\n      pop\n      pop\n      pop\n      pop\n      mload(0x40)\n      returndatasize\n      0x00\n      dup3\n      returndatacopy\n      0x1f\n      returndatasize\n      swap1\n      dup2\n      add\n      not(0x1f)\n      and\n      dup3\n      add\n      0x40\n      mstore\n      0x20\n      dup2\n      lt\n      iszero\n      tag_445\n      jumpi\n      0x00\n      dup1\n      revert\n    tag_445:\n      dup2\n      add\n      swap1\n      dup1\n      dup1\n      mload\n      mload(0x40)\n      swap4\n      swap3\n      swap2\n      swap1\n      dup5\n      shl(0x20, 0x01)\n      dup3\n      gt\n      iszero\n      tag_446\n      jumpi\n      0x00\n      dup1\n      revert\n    tag_446:\n      swap1\n      dup4\n      add\n      swap1\n      0x20\n      dup3\n      add\n      dup6\n      dup2\n      gt\n      iszero\n      tag_447\n      jumpi\n      0x00\n      dup1\n      revert\n    tag_447:\n      dup3\n      mload\n      dup7\n      0x20\n      dup3\n      mul\n      dup4\n      add\n      gt\n      shl(0x20, 0x01)\n      dup3\n      gt\n      or\n      iszero\n      tag_448\n      jumpi\n      0x00\n      dup1\n      revert\n    tag_448:\n      dup3\n      mstore\n      pop\n      dup2\n      mload\n      0x20\n      swap2\n      dup3\n      add\n      swap3\n      dup3\n      add\n      swap2\n      mul\n      dup1\n      dup4\n      dup4\n      0x00\n    tag_449:\n      dup4\n      dup2\n      lt\n      iszero\n      tag_451\n      jumpi\n      dup2\n      dup2\n      add\n      mload\n      dup4\n      dup3\n      add\n      mstore\n      0x20\n      add\n      jump(tag_449)\n    tag_451:\n      pop\n      pop\n      pop\n      pop\n      swap1\n      pop\n      add\n      0x40\n      mstore\n      pop\n      pop\n      pop\n      pop\n        /* \"strategies/StrategyMiniChefLP.sol\":48051:48218  if (lpToken1 != output) {... */\n    tag_439:\n        /* \"strategies/StrategyMiniChefLP.sol\":48252:48260  lpToken0 */\n      sload(0x0c)\n        /* \"strategies/StrategyMiniChefLP.sol\":48245:48286  IERC20(lpToken0).balanceOf(address(this)) */\n      0x40\n      dup1\n      mload\n      shl(0xe0, 0x70a08231)\n      dup2\n      mstore\n        /* \"strategies/StrategyMiniChefLP.sol\":48280:48284  this */\n      address\n        /* \"strategies/StrategyMiniChefLP.sol\":48245:48286  IERC20(lpToken0).balanceOf(address(this)) */\n      0x04\n      dup3\n      add\n      mstore\n      swap1\n      mload\n        /* \"strategies/StrategyMiniChefLP.sol\":48228:48242  uint256 lp0Bal */\n      0x00\n      swap3\n      sub(shl(0xa0, 0x01), 0x01)\n        /* \"strategies/StrategyMiniChefLP.sol\":48252:48260  lpToken0 */\n      and\n      swap2\n        /* \"strategies/StrategyMiniChefLP.sol\":48245:48271  IERC20(lpToken0).balanceOf */\n      0x70a08231\n      swap2\n        /* \"strategies/StrategyMiniChefLP.sol\":48245:48286  IERC20(lpToken0).balanceOf(address(this)) */\n      0x24\n      dup1\n      dup4\n      add\n      swap3\n      0x20\n      swap3\n      swap2\n      swap1\n      dup3\n      swap1\n      sub\n      add\n      dup2\n        /* \"strategies/StrategyMiniChefLP.sol\":48252:48260  lpToken0 */\n      dup7\n        /* \"strategies/StrategyMiniChefLP.sol\":48245:48286  IERC20(lpToken0).balanceOf(address(this)) */\n      dup1\n      extcodesize\n      iszero\n      dup1\n      iszero\n      tag_452\n      jumpi\n      0x00\n      dup1\n      revert\n    tag_452:\n      pop\n      gas\n      staticcall\n      iszero\n      dup1\n      iszero\n      tag_454\n      jumpi\n      returndatasize\n      0x00\n      dup1\n      returndatacopy\n      revert(0x00, returndatasize)\n    tag_454:\n      pop\n      pop\n      pop\n      pop\n      mload(0x40)\n      returndatasize\n      0x20\n      dup2\n      lt\n      iszero\n      tag_455\n      jumpi\n      0x00\n      dup1\n      revert\n    tag_455:\n      pop\n      mload\n        /* \"strategies/StrategyMiniChefLP.sol\":48320:48328  lpToken1 */\n      sload(0x0d)\n        /* \"strategies/StrategyMiniChefLP.sol\":48313:48354  IERC20(lpToken1).balanceOf(address(this)) */\n      0x40\n      dup1\n      mload\n      shl(0xe0, 0x70a08231)\n      dup2\n      mstore\n        /* \"strategies/StrategyMiniChefLP.sol\":48348:48352  this */\n      address\n        /* \"strategies/StrategyMiniChefLP.sol\":48313:48354  IERC20(lpToken1).balanceOf(address(this)) */\n      0x04\n      dup3\n      add\n      mstore\n      swap1\n      mload\n        /* \"strategies/StrategyMiniChefLP.sol\":48245:48286  IERC20(lpToken0).balanceOf(address(this)) */\n      swap3\n      swap4\n      pop\n        /* \"strategies/StrategyMiniChefLP.sol\":48296:48310  uint256 lp1Bal */\n      0x00\n      swap3\n      sub(shl(0xa0, 0x01), 0x01)\n        /* \"strategies/StrategyMiniChefLP.sol\":48320:48328  lpToken1 */\n      swap1\n      swap3\n      and\n      swap2\n        /* \"strategies/StrategyMiniChefLP.sol\":48313:48339  IERC20(lpToken1).balanceOf */\n      0x70a08231\n      swap2\n        /* \"strategies/StrategyMiniChefLP.sol\":48313:48354  IERC20(lpToken1).balanceOf(address(this)) */\n      0x24\n      dup1\n      dup3\n      add\n      swap3\n        /* \"strategies/StrategyMiniChefLP.sol\":48245:48286  IERC20(lpToken0).balanceOf(address(this)) */\n      0x20\n      swap3\n        /* \"strategies/StrategyMiniChefLP.sol\":48313:48354  IERC20(lpToken1).balanceOf(address(this)) */\n      swap1\n      swap2\n      swap1\n      dup3\n      swap1\n      sub\n      add\n      dup2\n        /* \"strategies/StrategyMiniChefLP.sol\":48320:48328  lpToken1 */\n      dup7\n        /* \"strategies/StrategyMiniChefLP.sol\":48313:48354  IERC20(lpToken1).balanceOf(address(this)) */\n      dup1\n      extcodesize\n      iszero\n      dup1\n      iszero\n      tag_456\n      jumpi\n      0x00\n      dup1\n      revert\n    tag_456:\n      pop\n      gas\n      staticcall\n      iszero\n      dup1\n      iszero\n      tag_458\n      jumpi\n      returndatasize\n      0x00\n      dup1\n      returndatacopy\n      revert(0x00, returndatasize)\n    tag_458:\n      pop\n      pop\n      pop\n      pop\n      mload(0x40)\n      returndatasize\n      0x20\n      dup2\n      lt\n      iszero\n      tag_459\n      jumpi\n      0x00\n      dup1\n      revert\n    tag_459:\n      pop\n      mload\n        /* \"strategies/StrategyMiniChefLP.sol\":48382:48391  unirouter */\n      sload(0x03)\n        /* \"strategies/StrategyMiniChefLP.sol\":48406:48414  lpToken0 */\n      sload(0x0c)\n        /* \"strategies/StrategyMiniChefLP.sol\":48416:48424  lpToken1 */\n      sload(0x0d)\n        /* \"strategies/StrategyMiniChefLP.sol\":48364:48479  IUniswapRouterETH(unirouter).addLiquidity(lpToken0, lpToken1, lp0Bal, lp1Bal, 1, 1, address(this), block.timestamp) */\n      0x40\n      dup1\n      mload\n      shl(0xe8, 0xe8e337)\n      dup2\n      mstore\n      sub(shl(0xa0, 0x01), 0x01)\n        /* \"strategies/StrategyMiniChefLP.sol\":48406:48414  lpToken0 */\n      swap4\n      dup5\n      and\n        /* \"strategies/StrategyMiniChefLP.sol\":48364:48479  IUniswapRouterETH(unirouter).addLiquidity(lpToken0, lpToken1, lp0Bal, lp1Bal, 1, 1, address(this), block.timestamp) */\n      0x04\n      dup3\n      add\n      mstore\n        /* \"strategies/StrategyMiniChefLP.sol\":48416:48424  lpToken1 */\n      swap2\n      dup4\n      and\n        /* \"strategies/StrategyMiniChefLP.sol\":48364:48479  IUniswapRouterETH(unirouter).addLiquidity(lpToken0, lpToken1, lp0Bal, lp1Bal, 1, 1, address(this), block.timestamp) */\n      0x24\n      dup4\n      add\n      mstore\n      0x44\n      dup3\n      add\n      dup8\n      swap1\n      mstore\n      0x64\n      dup3\n      add\n      dup6\n      swap1\n      mstore\n        /* \"strategies/StrategyMiniChefLP.sol\":48382:48391  unirouter */\n      0x01\n        /* \"strategies/StrategyMiniChefLP.sol\":48364:48479  IUniswapRouterETH(unirouter).addLiquidity(lpToken0, lpToken1, lp0Bal, lp1Bal, 1, 1, address(this), block.timestamp) */\n      0x84\n      dup4\n      add\n      dup2\n      swap1\n      mstore\n      0xa4\n      dup4\n      add\n      mstore\n        /* \"strategies/StrategyMiniChefLP.sol\":48456:48460  this */\n      address\n        /* \"strategies/StrategyMiniChefLP.sol\":48364:48479  IUniswapRouterETH(unirouter).addLiquidity(lpToken0, lpToken1, lp0Bal, lp1Bal, 1, 1, address(this), block.timestamp) */\n      0xc4\n      dup4\n      add\n      mstore\n        /* \"strategies/StrategyMiniChefLP.sol\":48463:48478  block.timestamp */\n      timestamp\n        /* \"strategies/StrategyMiniChefLP.sol\":48364:48479  IUniswapRouterETH(unirouter).addLiquidity(lpToken0, lpToken1, lp0Bal, lp1Bal, 1, 1, address(this), block.timestamp) */\n      0xe4\n      dup4\n      add\n      mstore\n      mload\n        /* \"strategies/StrategyMiniChefLP.sol\":48313:48354  IERC20(lpToken1).balanceOf(address(this)) */\n      swap4\n      swap5\n      pop\n        /* \"strategies/StrategyMiniChefLP.sol\":48382:48391  unirouter */\n      swap2\n      and\n      swap2\n        /* \"strategies/StrategyMiniChefLP.sol\":48364:48405  IUniswapRouterETH(unirouter).addLiquidity */\n      0xe8e33700\n      swap2\n        /* \"strategies/StrategyMiniChefLP.sol\":48364:48479  IUniswapRouterETH(unirouter).addLiquidity(lpToken0, lpToken1, lp0Bal, lp1Bal, 1, 1, address(this), block.timestamp) */\n      0x0104\n      dup1\n      dup3\n      add\n      swap3\n      0x60\n      swap3\n      swap1\n      swap2\n      swap1\n      dup3\n      swap1\n      sub\n      add\n      dup2\n        /* \"strategies/StrategyMiniChefLP.sol\":48382:48391  unirouter */\n      0x00\n      dup8\n        /* \"strategies/StrategyMiniChefLP.sol\":48364:48479  IUniswapRouterETH(unirouter).addLiquidity(lpToken0, lpToken1, lp0Bal, lp1Bal, 1, 1, address(this), block.timestamp) */\n      dup1\n      extcodesize\n      iszero\n      dup1\n      iszero\n      tag_460\n      jumpi\n      0x00\n      dup1\n      revert\n    tag_460:\n      pop\n      gas\n      call\n      iszero\n      dup1\n      iszero\n      tag_462\n      jumpi\n      returndatasize\n      0x00\n      dup1\n      returndatacopy\n      revert(0x00, returndatasize)\n    tag_462:\n      pop\n      pop\n      pop\n      pop\n      mload(0x40)\n      returndatasize\n      0x60\n      dup2\n      lt\n      iszero\n      tag_308\n      jumpi\n      0x00\n      dup1\n      revert\n        /* \"strategies/StrategyMiniChefLP.sol\":598:702  function _msgSender() internal view virtual returns (address payable) {... */\n    tag_248:\n        /* \"strategies/StrategyMiniChefLP.sol\":685:695  msg.sender */\n      caller\n        /* \"strategies/StrategyMiniChefLP.sol\":598:702  function _msgSender() internal view virtual returns (address payable) {... */\n      swap1\n      jump\t// out\n        /* \"strategies/StrategyMiniChefLP.sol\":6395:6570  function add(uint256 a, uint256 b) internal pure returns (uint256) {... */\n    tag_266:\n        /* \"strategies/StrategyMiniChefLP.sol\":6453:6460  uint256 */\n      0x00\n        /* \"strategies/StrategyMiniChefLP.sol\":6484:6489  a + b */\n      dup3\n      dup3\n      add\n        /* \"strategies/StrategyMiniChefLP.sol\":6507:6513  c >= a */\n      dup4\n      dup2\n      lt\n      iszero\n        /* \"strategies/StrategyMiniChefLP.sol\":6499:6545  require(c >= a, \"SafeMath: addition overflow\") */\n      tag_344\n      jumpi\n      0x40\n      dup1\n      mload\n      shl(0xe5, 0x461bcd)\n      dup2\n      mstore\n      0x20\n      0x04\n      dup3\n      add\n      mstore\n      0x1b\n      0x24\n      dup3\n      add\n      mstore\n      0x536166654d6174683a206164646974696f6e206f766572666c6f770000000000\n      0x44\n      dup3\n      add\n      mstore\n      swap1\n      mload\n      swap1\n      dup2\n      swap1\n      sub\n      0x64\n      add\n      swap1\n      revert\n        /* \"strategies/StrategyMiniChefLP.sol\":39721:39836  function _pause() internal virtual whenNotPaused {... */\n    tag_278:\n        /* \"strategies/StrategyMiniChefLP.sol\":39270:39278  paused() */\n      tag_468\n        /* \"strategies/StrategyMiniChefLP.sol\":39270:39276  paused */\n      tag_96\n        /* \"strategies/StrategyMiniChefLP.sol\":39270:39278  paused() */\n      jump\t// in\n    tag_468:\n        /* \"strategies/StrategyMiniChefLP.sol\":39269:39278  !paused() */\n      iszero\n        /* \"strategies/StrategyMiniChefLP.sol\":39261:39299  require(!paused(), \"Pausable: paused\") */\n      tag_469\n      jumpi\n      0x40\n      dup1\n      mload\n      shl(0xe5, 0x461bcd)\n      dup2\n      mstore\n      0x20\n      0x04\n      dup3\n      add\n      mstore\n      0x10\n      0x24\n      dup3\n      add\n      mstore\n      shl(0x82, 0x14185d5cd8589b194e881c185d5cd959)\n      0x44\n      dup3\n      add\n      mstore\n      swap1\n      mload\n      swap1\n      dup2\n      swap1\n      sub\n      0x64\n      add\n      swap1\n      revert\n    tag_469:\n        /* \"strategies/StrategyMiniChefLP.sol\":39780:39787  _paused */\n      0x00\n        /* \"strategies/StrategyMiniChefLP.sol\":39780:39794  _paused = true */\n      dup1\n      sload\n      not(shl(0xa0, 0xff))\n      and\n      shl(0xa0, 0x01)\n      or\n      swap1\n      sstore\n        /* \"strategies/StrategyMiniChefLP.sol\":39809:39829  Paused(_msgSender()) */\n      0x62e78cea01bee320cd4e420270b5ea74000d11b0c9f74754ebdbfc544b05a258\n        /* \"strategies/StrategyMiniChefLP.sol\":39816:39828  _msgSender() */\n      tag_362\n        /* \"strategies/StrategyMiniChefLP.sol\":39816:39826  _msgSender */\n      tag_248\n        /* \"strategies/StrategyMiniChefLP.sol\":39816:39828  _msgSender() */\n      jump\t// in\n        /* \"strategies/StrategyMiniChefLP.sol\":50410:50702  function _removeAllowances() internal {... */\n    tag_280:\n        /* \"strategies/StrategyMiniChefLP.sol\":50483:50487  chef */\n      sload(0x0e)\n        /* \"strategies/StrategyMiniChefLP.sol\":50465:50469  want */\n      sload(0x0b)\n        /* \"strategies/StrategyMiniChefLP.sol\":50458:50491  IERC20(want).safeApprove(chef, 0) */\n      tag_473\n      swap2\n      sub(shl(0xa0, 0x01), 0x01)\n        /* \"strategies/StrategyMiniChefLP.sol\":50465:50469  want */\n      swap2\n      dup3\n      and\n      swap2\n        /* \"strategies/StrategyMiniChefLP.sol\":50483:50487  chef */\n      and\n      0x00\n        /* \"strategies/StrategyMiniChefLP.sol\":50458:50482  IERC20(want).safeApprove */\n      tag_164\n        /* \"strategies/StrategyMiniChefLP.sol\":50458:50491  IERC20(want).safeApprove(chef, 0) */\n      jump\t// in\n    tag_473:\n        /* \"strategies/StrategyMiniChefLP.sol\":50528:50537  unirouter */\n      sload(0x03)\n        /* \"strategies/StrategyMiniChefLP.sol\":50508:50514  output */\n      sload(0x0a)\n        /* \"strategies/StrategyMiniChefLP.sol\":50501:50541  IERC20(output).safeApprove(unirouter, 0) */\n      tag_474\n      swap2\n      sub(shl(0xa0, 0x01), 0x01)\n        /* \"strategies/StrategyMiniChefLP.sol\":50508:50514  output */\n      swap2\n      dup3\n      and\n      swap2\n        /* \"strategies/StrategyMiniChefLP.sol\":50528:50537  unirouter */\n      and\n      0x00\n        /* \"strategies/StrategyMiniChefLP.sol\":50501:50527  IERC20(output).safeApprove */\n      tag_164\n        /* \"strategies/StrategyMiniChefLP.sol\":50501:50541  IERC20(output).safeApprove(unirouter, 0) */\n      jump\t// in\n    tag_474:\n        /* \"strategies/StrategyMiniChefLP.sol\":50578:50587  unirouter */\n      sload(0x03)\n        /* \"strategies/StrategyMiniChefLP.sol\":50558:50564  native */\n      sload(0x09)\n        /* \"strategies/StrategyMiniChefLP.sol\":50551:50591  IERC20(native).safeApprove(unirouter, 0) */\n      tag_475\n      swap2\n      sub(shl(0xa0, 0x01), 0x01)\n        /* \"strategies/StrategyMiniChefLP.sol\":50558:50564  native */\n      swap2\n      dup3\n      and\n      swap2\n        /* \"strategies/StrategyMiniChefLP.sol\":50578:50587  unirouter */\n      and\n      0x00\n        /* \"strategies/StrategyMiniChefLP.sol\":50551:50577  IERC20(native).safeApprove */\n      tag_164\n        /* \"strategies/StrategyMiniChefLP.sol\":50551:50591  IERC20(native).safeApprove(unirouter, 0) */\n      jump\t// in\n    tag_475:\n        /* \"strategies/StrategyMiniChefLP.sol\":50630:50639  unirouter */\n      sload(0x03)\n        /* \"strategies/StrategyMiniChefLP.sol\":50608:50616  lpToken0 */\n      sload(0x0c)\n        /* \"strategies/StrategyMiniChefLP.sol\":50601:50643  IERC20(lpToken0).safeApprove(unirouter, 0) */\n      tag_476\n      swap2\n      sub(shl(0xa0, 0x01), 0x01)\n        /* \"strategies/StrategyMiniChefLP.sol\":50608:50616  lpToken0 */\n      swap2\n      dup3\n      and\n      swap2\n        /* \"strategies/StrategyMiniChefLP.sol\":50630:50639  unirouter */\n      and\n      0x00\n        /* \"strategies/StrategyMiniChefLP.sol\":50601:50629  IERC20(lpToken0).safeApprove */\n      tag_164\n        /* \"strategies/StrategyMiniChefLP.sol\":50601:50643  IERC20(lpToken0).safeApprove(unirouter, 0) */\n      jump\t// in\n    tag_476:\n        /* \"strategies/StrategyMiniChefLP.sol\":50682:50691  unirouter */\n      sload(0x03)\n        /* \"strategies/StrategyMiniChefLP.sol\":50660:50668  lpToken1 */\n      sload(0x0d)\n        /* \"strategies/StrategyMiniChefLP.sol\":50653:50695  IERC20(lpToken1).safeApprove(unirouter, 0) */\n      tag_220\n      swap2\n      sub(shl(0xa0, 0x01), 0x01)\n        /* \"strategies/StrategyMiniChefLP.sol\":50660:50668  lpToken1 */\n      swap2\n      dup3\n      and\n      swap2\n        /* \"strategies/StrategyMiniChefLP.sol\":50682:50691  unirouter */\n      and\n      0x00\n        /* \"strategies/StrategyMiniChefLP.sol\":50653:50681  IERC20(lpToken1).safeApprove */\n      tag_164\n        /* \"strategies/StrategyMiniChefLP.sol\":50653:50695  IERC20(lpToken1).safeApprove(unirouter, 0) */\n      jump\t// in\n        /* \"strategies/StrategyMiniChefLP.sol\":32428:33179  function _callOptionalReturn(IERC20 token, bytes memory data) private {... */\n    tag_343:\n        /* \"strategies/StrategyMiniChefLP.sol\":32847:32870  bytes memory returndata */\n      0x60\n        /* \"strategies/StrategyMiniChefLP.sol\":32873:32942  address(token).functionCall(data, \"SafeERC20: low-level call failed\") */\n      tag_479\n        /* \"strategies/StrategyMiniChefLP.sol\":32901:32905  data */\n      dup3\n        /* \"strategies/StrategyMiniChefLP.sol\":32873:32942  address(token).functionCall(data, \"SafeERC20: low-level call failed\") */\n      mload(0x40)\n      dup1\n      0x40\n      add\n      0x40\n      mstore\n      dup1\n      0x20\n      dup2\n      mstore\n      0x20\n      add\n      0x5361666545524332303a206c6f772d6c6576656c2063616c6c206661696c6564\n      dup2\n      mstore\n      pop\n        /* \"strategies/StrategyMiniChefLP.sol\":32881:32886  token */\n      dup6\n      sub(shl(0xa0, 0x01), 0x01)\n        /* \"strategies/StrategyMiniChefLP.sol\":32873:32900  address(token).functionCall */\n      and\n      tag_165\n      swap1\n        /* \"strategies/StrategyMiniChefLP.sol\":32873:32942  address(token).functionCall(data, \"SafeERC20: low-level call failed\") */\n      swap3\n      swap2\n      swap1\n      0xffffffff\n      and\n      jump\t// in\n    tag_479:\n        /* \"strategies/StrategyMiniChefLP.sol\":32956:32973  returndata.length */\n      dup1\n      mload\n        /* \"strategies/StrategyMiniChefLP.sol\":32847:32942  bytes memory returndata = address(token).functionCall(data, \"SafeERC20: low-level call failed\") */\n      swap1\n      swap2\n      pop\n        /* \"strategies/StrategyMiniChefLP.sol\":32956:32977  returndata.length > 0 */\n      iszero\n        /* \"strategies/StrategyMiniChefLP.sol\":32952:33173  if (returndata.length > 0) { // Return data is optional... */\n      tag_207\n      jumpi\n        /* \"strategies/StrategyMiniChefLP.sol\":33096:33106  returndata */\n      dup1\n        /* \"strategies/StrategyMiniChefLP.sol\":33085:33115  abi.decode(returndata, (bool)) */\n      dup1\n      0x20\n      add\n      swap1\n      mload\n      0x20\n      dup2\n      lt\n      iszero\n      tag_481\n      jumpi\n      0x00\n      dup1\n      revert\n    tag_481:\n      pop\n      mload\n        /* \"strategies/StrategyMiniChefLP.sol\":33077:33162  require(abi.decode(returndata, (bool)), \"SafeERC20: ERC20 operation did not succeed\") */\n      tag_207\n      jumpi\n      mload(0x40)\n      shl(0xe5, 0x461bcd)\n      dup2\n      mstore\n      0x04\n      add\n      dup1\n      dup1\n      0x20\n      add\n      dup3\n      dup2\n      sub\n      dup3\n      mstore\n      0x2a\n      dup2\n      mstore\n      0x20\n      add\n      dup1\n      data_e11ad79d1e4a7f2e5f376964cb99e8e8f7904e3fc16a109f7a7ecb9aa7956dcd\n      0x2a\n      swap2\n      codecopy\n      0x40\n      add\n      swap2\n      pop\n      pop\n      mload(0x40)\n      dup1\n      swap2\n      sub\n      swap1\n      revert\n        /* \"strategies/StrategyMiniChefLP.sol\":26304:26827  function functionCallWithValue(address target, bytes memory data, uint256 value, string memory errorMessage) internal returns (bytes memory) {... */\n    tag_346:\n        /* \"strategies/StrategyMiniChefLP.sol\":26431:26443  bytes memory */\n      0x60\n        /* \"strategies/StrategyMiniChefLP.sol\":26488:26493  value */\n      dup3\n        /* \"strategies/StrategyMiniChefLP.sol\":26463:26484  address(this).balance */\n      selfbalance\n        /* \"strategies/StrategyMiniChefLP.sol\":26463:26493  address(this).balance >= value */\n      lt\n      iszero\n        /* \"strategies/StrategyMiniChefLP.sol\":26455:26536  require(address(this).balance >= value, \"Address: insufficient balance for call\") */\n      tag_484\n      jumpi\n      mload(0x40)\n      shl(0xe5, 0x461bcd)\n      dup2\n      mstore\n      0x04\n      add\n      dup1\n      dup1\n      0x20\n      add\n      dup3\n      dup2\n      sub\n      dup3\n      mstore\n      0x26\n      dup2\n      mstore\n      0x20\n      add\n      dup1\n      data_565f1a77334fc4792800921178c71e4521acffab18ff9e7885b49377ee80ab4c\n      0x26\n      swap2\n      codecopy\n      0x40\n      add\n      swap2\n      pop\n      pop\n      mload(0x40)\n      dup1\n      swap2\n      sub\n      swap1\n      revert\n    tag_484:\n        /* \"strategies/StrategyMiniChefLP.sol\":26554:26572  isContract(target) */\n      tag_485\n        /* \"strategies/StrategyMiniChefLP.sol\":26565:26571  target */\n      dup6\n        /* \"strategies/StrategyMiniChefLP.sol\":26554:26564  isContract */\n      tag_486\n        /* \"strategies/StrategyMiniChefLP.sol\":26554:26572  isContract(target) */\n      jump\t// in\n    tag_485:\n        /* \"strategies/StrategyMiniChefLP.sol\":26546:26606  require(isContract(target), \"Address: call to non-contract\") */\n      tag_487\n      jumpi\n      0x40\n      dup1\n      mload\n      shl(0xe5, 0x461bcd)\n      dup2\n      mstore\n      0x20\n      0x04\n      dup3\n      add\n      mstore\n      0x1d\n      0x24\n      dup3\n      add\n      mstore\n      0x416464726573733a2063616c6c20746f206e6f6e2d636f6e7472616374000000\n      0x44\n      dup3\n      add\n      mstore\n      swap1\n      mload\n      swap1\n      dup2\n      swap1\n      sub\n      0x64\n      add\n      swap1\n      revert\n    tag_487:\n        /* \"strategies/StrategyMiniChefLP.sol\":26677:26689  bool success */\n      0x00\n        /* \"strategies/StrategyMiniChefLP.sol\":26691:26714  bytes memory returndata */\n      0x60\n        /* \"strategies/StrategyMiniChefLP.sol\":26718:26724  target */\n      dup7\n      sub(shl(0xa0, 0x01), 0x01)\n        /* \"strategies/StrategyMiniChefLP.sol\":26718:26729  target.call */\n      and\n        /* \"strategies/StrategyMiniChefLP.sol\":26738:26743  value */\n      dup6\n        /* \"strategies/StrategyMiniChefLP.sol\":26746:26750  data */\n      dup8\n        /* \"strategies/StrategyMiniChefLP.sol\":26718:26751  target.call{ value: value }(data) */\n      mload(0x40)\n      dup1\n      dup3\n      dup1\n      mload\n      swap1\n      0x20\n      add\n      swap1\n      dup1\n      dup4\n      dup4\n    tag_488:\n      0x20\n      dup4\n      lt\n      tag_490\n      jumpi\n      dup1\n      mload\n      dup3\n      mstore\n      not(0x1f)\n      swap1\n      swap3\n      add\n      swap2\n      0x20\n      swap2\n      dup3\n      add\n      swap2\n      add\n      jump(tag_488)\n    tag_490:\n      0x01\n      dup4\n      0x20\n      sub\n      0x0100\n      exp\n      sub\n      dup1\n      not\n      dup3\n      mload\n      and\n      dup2\n      dup5\n      mload\n      and\n      dup1\n      dup3\n      or\n      dup6\n      mstore\n      pop\n      pop\n      pop\n      pop\n      pop\n      pop\n      swap1\n      pop\n      add\n      swap2\n      pop\n      pop\n      0x00\n      mload(0x40)\n      dup1\n      dup4\n      sub\n      dup2\n      dup6\n      dup8\n      gas\n      call\n      swap3\n      pop\n      pop\n      pop\n      returndatasize\n      dup1\n      0x00\n      dup2\n      eq\n      tag_493\n      jumpi\n      mload(0x40)\n      swap2\n      pop\n      and(add(returndatasize, 0x3f), not(0x1f))\n      dup3\n      add\n      0x40\n      mstore\n      returndatasize\n      dup3\n      mstore\n      returndatasize\n      0x00\n      0x20\n      dup5\n      add\n      returndatacopy\n      jump(tag_492)\n    tag_493:\n      0x60\n      swap2\n      pop\n    tag_492:\n      pop\n        /* \"strategies/StrategyMiniChefLP.sol\":26676:26751  (bool success, bytes memory returndata) = target.call{ value: value }(data) */\n      swap2\n      pop\n      swap2\n      pop\n        /* \"strategies/StrategyMiniChefLP.sol\":26768:26820  _verifyCallResult(success, returndata, errorMessage) */\n      tag_494\n        /* \"strategies/StrategyMiniChefLP.sol\":26786:26793  success */\n      dup3\n        /* \"strategies/StrategyMiniChefLP.sol\":26795:26805  returndata */\n      dup3\n        /* \"strategies/StrategyMiniChefLP.sol\":26807:26819  errorMessage */\n      dup7\n        /* \"strategies/StrategyMiniChefLP.sol\":26768:26785  _verifyCallResult */\n      tag_495\n        /* \"strategies/StrategyMiniChefLP.sol\":26768:26820  _verifyCallResult(success, returndata, errorMessage) */\n      jump\t// in\n    tag_494:\n        /* \"strategies/StrategyMiniChefLP.sol\":26761:26820  return _verifyCallResult(success, returndata, errorMessage) */\n      swap8\n        /* \"strategies/StrategyMiniChefLP.sol\":26304:26827  function functionCallWithValue(address target, bytes memory data, uint256 value, string memory errorMessage) internal returns (bytes memory) {... */\n      swap7\n      pop\n      pop\n      pop\n      pop\n      pop\n      pop\n      pop\n      jump\t// out\n        /* \"strategies/StrategyMiniChefLP.sol\":22422:22835  function isContract(address account) internal view returns (bool) {... */\n    tag_486:\n        /* \"strategies/StrategyMiniChefLP.sol\":22782:22802  extcodesize(account) */\n      extcodesize\n        /* \"strategies/StrategyMiniChefLP.sol\":22820:22828  size > 0 */\n      iszero\n      iszero\n      swap1\n        /* \"strategies/StrategyMiniChefLP.sol\":22422:22835  function isContract(address account) internal view returns (bool) {... */\n      jump\t// out\n        /* \"strategies/StrategyMiniChefLP.sol\":28787:29512  function _verifyCallResult(bool success, bytes memory returndata, string memory errorMessage) private pure returns(bytes memory) {... */\n    tag_495:\n        /* \"strategies/StrategyMiniChefLP.sol\":28902:28914  bytes memory */\n      0x60\n        /* \"strategies/StrategyMiniChefLP.sol\":28930:28937  success */\n      dup4\n        /* \"strategies/StrategyMiniChefLP.sol\":28926:29506  if (success) {... */\n      iszero\n      tag_498\n      jumpi\n      pop\n        /* \"strategies/StrategyMiniChefLP.sol\":28960:28970  returndata */\n      dup2\n        /* \"strategies/StrategyMiniChefLP.sol\":28953:28970  return returndata */\n      jump(tag_344)\n        /* \"strategies/StrategyMiniChefLP.sol\":28926:29506  if (success) {... */\n    tag_498:\n        /* \"strategies/StrategyMiniChefLP.sol\":29071:29088  returndata.length */\n      dup3\n      mload\n        /* \"strategies/StrategyMiniChefLP.sol\":29071:29092  returndata.length > 0 */\n      iszero\n        /* \"strategies/StrategyMiniChefLP.sol\":29067:29496  if (returndata.length > 0) {... */\n      tag_500\n      jumpi\n        /* \"strategies/StrategyMiniChefLP.sol\":29329:29339  returndata */\n      dup3\n        /* \"strategies/StrategyMiniChefLP.sol\":29323:29340  mload(returndata) */\n      mload\n        /* \"strategies/StrategyMiniChefLP.sol\":29389:29404  returndata_size */\n      dup1\n        /* \"strategies/StrategyMiniChefLP.sol\":29376:29386  returndata */\n      dup5\n        /* \"strategies/StrategyMiniChefLP.sol\":29372:29374  32 */\n      0x20\n        /* \"strategies/StrategyMiniChefLP.sol\":29368:29387  add(32, returndata) */\n      add\n        /* \"strategies/StrategyMiniChefLP.sol\":29361:29405  revert(add(32, returndata), returndata_size) */\n      revert\n        /* \"strategies/StrategyMiniChefLP.sol\":29278:29423  {... */\n    tag_500:\n        /* \"strategies/StrategyMiniChefLP.sol\":29468:29480  errorMessage */\n      dup2\n        /* \"strategies/StrategyMiniChefLP.sol\":29461:29481  revert(errorMessage) */\n      mload(0x40)\n      shl(0xe5, 0x461bcd)\n      dup2\n      mstore\n      0x04\n      add\n      dup1\n      dup1\n      0x20\n      add\n      dup3\n      dup2\n      sub\n      dup3\n      mstore\n      dup4\n      dup2\n      dup2\n      mload\n      dup2\n      mstore\n      0x20\n      add\n      swap2\n      pop\n      dup1\n      mload\n      swap1\n      0x20\n      add\n      swap1\n      dup1\n      dup4\n      dup4\n      0x00\n    tag_502:\n      dup4\n      dup2\n      lt\n      iszero\n      tag_504\n      jumpi\n      dup2\n      dup2\n      add\n      mload\n      dup4\n      dup3\n      add\n      mstore\n      0x20\n      add\n      jump(tag_502)\n    tag_504:\n      pop\n      pop\n      pop\n      pop\n      swap1\n      pop\n      swap1\n      dup2\n      add\n      swap1\n      0x1f\n      and\n      dup1\n      iszero\n      tag_505\n      jumpi\n      dup1\n      dup3\n      sub\n      dup1\n      mload\n      0x01\n      dup4\n      0x20\n      sub\n      0x0100\n      exp\n      sub\n      not\n      and\n      dup2\n      mstore\n      0x20\n      add\n      swap2\n      pop\n    tag_505:\n      pop\n      swap3\n      pop\n      pop\n      pop\n      mload(0x40)\n      dup1\n      swap2\n      sub\n      swap1\n      revert\n    stop\n    data_245f15ff17f551913a7a18385165551503906a406f905ac1c2437281a7cd0cfe 4f776e61626c653a206e6577206f776e657220697320746865207a65726f2061646472657373\n    data_565f1a77334fc4792800921178c71e4521acffab18ff9e7885b49377ee80ab4c 416464726573733a20696e73756666696369656e742062616c616e636520666f722063616c6c\n    data_9113bb53c2876a3805b2c9242029423fc540a728243ce887ab24c82cf119fba3 536166654d6174683a206d756c7469706c69636174696f6e206f766572666c6f77\n    data_9924ebdf1add33d25d4ef888e16131f0a5687b0580a36c21b5c301a6c462effe 4f776e61626c653a2063616c6c6572206973206e6f7420746865206f776e6572\n    data_e11ad79d1e4a7f2e5f376964cb99e8e8f7904e3fc16a109f7a7ecb9aa7956dcd 5361666545524332303a204552433230206f7065726174696f6e20646964206e6f742073756363656564\n    data_ef945ddb1bfdc0da870feb4560d868b047642b4ac7f2fb7f8b7c51cb4a411e25 5361666545524332303a20617070726f76652066726f6d206e6f6e2d7a65726f20746f206e6f6e2d7a65726f20616c6c6f77616e6365\n\n    auxdata: 0xa2646970667358221220a902d18836a30945092b9725bc6ea9a6051dc596649011cc4f21806dbfdfc29664736f6c634300060c0033\n}\n",
				"bytecode": {
					"linkReferences": {},
					"object": "6080604052600a600655606f6007556103796008553480156200002157600080fd5b50604051620037db380380620037db83398181016040526101608110156200004857600080fd5b815160208301516040808501516060860151608087015160a088015160c089015160e08a01516101008b0180519751999b989a96999598949793969295919491939282019284640100000000821115620000a157600080fd5b908301906020820185811115620000b757600080fd5b8251866020820283011164010000000082111715620000d557600080fd5b82525081516020918201928201910280838360005b8381101562000104578181015183820152602001620000ea565b50505050905001604052602001805160405193929190846401000000008211156200012e57600080fd5b9083019060208201858111156200014457600080fd5b82518660208202830111640100000000821117156200016257600080fd5b82525081516020918201928201910280838360005b838110156200019157818101518382015260200162000177565b5050505090500160405260200180516040519392919084640100000000821115620001bb57600080fd5b908301906020820185811115620001d157600080fd5b8251866020820283011164010000000082111715620001ef57600080fd5b82525081516020918201928201910280838360005b838110156200021e57818101518382015260200162000204565b505050509050016040525050508585888a87600062000242620006e460201b60201c565b600080546001600160a01b0319166001600160a01b0383169081178255604051929350917f8be0079c531659141344cd1fd0a4f28419497f9722a3daafe3b4186f6b6457e0908290a3506000805460ff60a01b19169055600180546001600160a01b03199081166001600160a01b03978816179091556002805482169587169590951785556003805482169487169490941790935560048054841692861692909217909155600580548316918516919091179055600b805482168f8516179055600f8d9055600e8054909116928c1692909217909155835110156200032657600080fd5b826000815181106200033457fe5b6020026020010151600a60006101000a8154816001600160a01b0302191690836001600160a01b03160217905550826001845103815181106200037357fe5b602090810291909101810151600980546001600160a01b0319166001600160a01b039092169190911790558351620003b2916011919086019062000c36565b50600b60009054906101000a90046001600160a01b03166001600160a01b0316630dfe16816040518163ffffffff1660e01b815260040160206040518083038186803b1580156200040257600080fd5b505afa15801562000417573d6000803e3d6000fd5b505050506040513d60208110156200042e57600080fd5b5051600c80546001600160a01b0319166001600160a01b03928316179055600a54835191169083906000906200046057fe5b60200260200101516001600160a01b0316146200047c57600080fd5b600c5482516001600160a01b0390911690839060001981019081106200049e57fe5b60200260200101516001600160a01b031614620004ba57600080fd5b8151620004cf90601390602085019062000c36565b50600b60009054906101000a90046001600160a01b03166001600160a01b031663d21220a76040518163ffffffff1660e01b815260040160206040518083038186803b1580156200051f57600080fd5b505afa15801562000534573d6000803e3d6000fd5b505050506040513d60208110156200054b57600080fd5b5051600d80546001600160a01b0319166001600160a01b03928316179055600a54825191169082906000906200057d57fe5b60200260200101516001600160a01b0316146200059957600080fd5b600d5481516001600160a01b039091169082906000198101908110620005bb57fe5b60200260200101516001600160a01b031614620005d757600080fd5b8051620005ec90601490602084019062000c36565b5082516001600160401b03811180156200060557600080fd5b5060405190808252806020026020018201604052801562000630578160200160208202803683370190505b508051620006479160129160209091019062000c36565b5060005b8351811015620006c8576000816001865103039050601181815481106200066e57fe5b600091825260209091200154601280546001600160a01b0390921691849081106200069557fe5b600091825260209091200180546001600160a01b0319166001600160a01b0392909216919091179055506001016200064b565b50620006d3620006e8565b505050505050505050505062000cc1565b3390565b600e54600b5462000715916001600160a01b03918216911660001962000823602090811b6200165417901c565b600354600a5462000742916001600160a01b03918216911660001962000823602090811b6200165417901c565b6003546009546200076f916001600160a01b03918216911660001962000823602090811b6200165417901c565b600354600c546200079b916001600160a01b039182169116600062000823602090811b6200165417901c565b600354600c54620007c8916001600160a01b03918216911660001962000823602090811b6200165417901c565b600354600d54620007f4916001600160a01b039182169116600062000823602090811b6200165417901c565b600354600d5462000821916001600160a01b03918216911660001962000823602090811b6200165417901c565b565b801580620008ad575060408051636eb1769f60e11b81523060048201526001600160a01b03848116602483015291519185169163dd62ed3e91604480820192602092909190829003018186803b1580156200087d57600080fd5b505afa15801562000892573d6000803e3d6000fd5b505050506040513d6020811015620008a957600080fd5b5051155b620008ea5760405162461bcd60e51b8152600401808060200182810382526036815260200180620037a56036913960400191505060405180910390fd5b604080516001600160a01b038416602482015260448082018490528251808303909101815260649091019091526020810180516001600160e01b0390811663095ea7b360e01b17909152620009429185916200094716565b505050565b6060620009a3826040518060400160405280602081526020017f5361666545524332303a206c6f772d6c6576656c2063616c6c206661696c6564815250856001600160a01b031662000a0360201b62001767179092919060201c565b8051909150156200094257808060200190516020811015620009c457600080fd5b5051620009425760405162461bcd60e51b815260040180806020018281038252602a8152602001806200377b602a913960400191505060405180910390fd5b606062000a14848460008562000a1e565b90505b9392505050565b60608247101562000a615760405162461bcd60e51b8152600401808060200182810382526026815260200180620037556026913960400191505060405180910390fd5b62000a6c8562000b86565b62000abe576040805162461bcd60e51b815260206004820152601d60248201527f416464726573733a2063616c6c20746f206e6f6e2d636f6e7472616374000000604482015290519081900360640190fd5b60006060866001600160a01b031685876040518082805190602001908083835b6020831062000aff5780518252601f19909201916020918201910162000ade565b6001836020036101000a03801982511681845116808217855250505050505090500191505060006040518083038185875af1925050503d806000811462000b63576040519150601f19603f3d011682016040523d82523d6000602084013e62000b68565b606091505b50909250905062000b7b82828662000b8c565b979650505050505050565b3b151590565b6060831562000b9d57508162000a17565b82511562000bae5782518084602001fd5b8160405162461bcd60e51b81526004018080602001828103825283818151815260200191508051906020019080838360005b8381101562000bfa57818101518382015260200162000be0565b50505050905090810190601f16801562000c285780820380516001836020036101000a031916815260200191505b509250505060405180910390fd5b82805482825590600052602060002090810192821562000c8e579160200282015b8281111562000c8e57825182546001600160a01b0319166001600160a01b0390911617825560209092019160019091019062000c57565b5062000c9c92915062000ca0565b5090565b5b8082111562000c9c5780546001600160a01b031916815560010162000ca1565b612a848062000cd16000396000f3fe608060405234801561001057600080fd5b50600436106102955760003560e01c8063748747e611610167578063c7b9d530116100ce578063f20eaeb811610087578063f20eaeb81461053a578063f2fde38b14610542578063fb61778714610568578063fbfa77cf14610570578063fc61568b14610578578063fd63a8871461058057610295565b8063c7b9d530146104ce578063d0e30db0146104f4578063d92f3d73146104fc578063dfbdc43714610522578063e0e4130b1461052a578063f1a392da1461053257610295565b806390321e1a1161012057806390321e1a14610474578063ac1e50251461047c578063aced166114610499578063bc063e1a146104a1578063be12a978146104a9578063c1a3d44c146104c657610295565b8063748747e6146104265780637d38ca651461044c5780638456cb5914610454578063877562b61461045c5780638bc7e8c4146104645780638da5cb5b1461046c57610295565b80633e0dc34e1161020b5780635c975abb116101c45780635c975abb146103a65780635e45da42146103c25780635ee167c0146103e85780636817031b146103f0578063715018a614610416578063722713f71461041e57610295565b80633e0dc34e146103765780633f4ba83a1461037e5780634641257d146103865780634700d3051461038e57806354518b1a14610396578063573fef0a1461039e57610295565b80631fe4a6861161025d5780631fe4a68614610305578063257ae0de1461030d57806326465826146103155780632ad5a53f146103345780632e1a7d4d1461033c57806336c6cf211461035957610295565b806305200c9c1461029a57806311588086146102d357806311b0b42d146102ed5780631f1fcd51146102f55780631fc8bc5d146102fd575b600080fd5b6102b7600480360360208110156102b057600080fd5b503561059d565b604080516001600160a01b039092168252519081900360200190f35b6102db6105c4565b60408051918252519081900360200190f35b6102b761064b565b6102b761065a565b6102b7610669565b6102b7610678565b6102b7610687565b6103326004803603602081101561032b57600080fd5b5035610696565b005b6102db610750565b6103326004803603602081101561035257600080fd5b5035610755565b6102b76004803603602081101561036f57600080fd5b50356109d5565b6102db6109e2565b6103326109e8565b610332610a6f565b610332610bb0565b6102db610c95565b610332610a6d565b6103ae610c9b565b604080519115158252519081900360200190f35b610332600480360360208110156103d857600080fd5b50356001600160a01b0316610cab565b6102b7610d2f565b6103326004803603602081101561040657600080fd5b50356001600160a01b0316610d3e565b610332610dc2565b6102db610e6e565b6103326004803603602081101561043c57600080fd5b50356001600160a01b0316610e8e565b6102db610f1d565b610332610f22565b6102b7610f9f565b6102db610fae565b6102b7610fb4565b6102db610fc3565b6103326004803603602081101561049257600080fd5b5035610fc9565b6102b761107a565b6102db611089565b6102b7600480360360208110156104bf57600080fd5b503561108f565b6102db61109c565b610332600480360360208110156104e457600080fd5b50356001600160a01b0316611118565b610332611187565b6103326004803603602081101561051257600080fd5b50356001600160a01b03166112cc565b6102db611350565b6102b7611355565b6102db611364565b6102b761136a565b6103326004803603602081101561055857600080fd5b50356001600160a01b0316611379565b61033261147b565b6102b7611632565b6102db611641565b6102b76004803603602081101561059657600080fd5b5035611647565b601281815481106105aa57fe5b6000918252602090912001546001600160a01b0316905081565b600e54600f54604080516393f1a40b60e01b81526004810192909252306024830152805160009384936001600160a01b03909116926393f1a40b92604480840193829003018186803b15801561061957600080fd5b505afa15801561062d573d6000803e3d6000fd5b505050506040513d604081101561064357600080fd5b505191505090565b6009546001600160a01b031681565b600b546001600160a01b031681565b600e546001600160a01b031681565b6002546001600160a01b031681565b6003546001600160a01b031681565b61069e610fb4565b6001600160a01b0316336001600160a01b031614806106c757506001546001600160a01b031633145b610703576040805162461bcd60e51b815260206004820152600860248201526710b6b0b730b3b2b960c11b604482015290519081900360640190fd5b606f811115610742576040805162461bcd60e51b815260206004808301919091526024820152630216361760e41b604482015290519081900360640190fd5b60078190556103e803600855565b606f81565b6004546001600160a01b0316331461079d576040805162461bcd60e51b8152602060048201526006602482015265085d985d5b1d60d21b604482015290519081900360640190fd5b600b54604080516370a0823160e01b815230600482015290516000926001600160a01b0316916370a08231916024808301926020929190829003018186803b1580156107e857600080fd5b505afa1580156107fc573d6000803e3d6000fd5b505050506040513d602081101561081257600080fd5b505190508181101561092057600e54600f546001600160a01b0390911690630ad58d2f906108408585611780565b306040518463ffffffff1660e01b815260040180848152602001838152602001826001600160a01b031681526020019350505050600060405180830381600087803b15801561088e57600080fd5b505af11580156108a2573d6000803e3d6000fd5b5050600b54604080516370a0823160e01b815230600482015290516001600160a01b0390921693506370a082319250602480820192602092909190829003018186803b1580156108f157600080fd5b505afa158015610905573d6000803e3d6000fd5b505050506040513d602081101561091b57600080fd5b505190505b8181111561092b5750805b610933610fb4565b6001600160a01b0316326001600160a01b031614806109555750610955610c9b565b1561097c57600454600b54610977916001600160a01b039182169116836117e2565b6109d1565b600061099f6127106109996006548561183490919063ffffffff16565b9061188d565b6004549091506109cf906001600160a01b03166109bc8484611780565b600b546001600160a01b031691906117e2565b505b5050565b601381815481106105aa57fe5b600f5481565b6109f0610fb4565b6001600160a01b0316336001600160a01b03161480610a1957506001546001600160a01b031633145b610a55576040805162461bcd60e51b815260206004820152600860248201526710b6b0b730b3b2b960c11b604482015290519081900360640190fd5b610a5d6118f4565b610a65611997565b610a6d611187565b565b610a77610c9b565b15610abc576040805162461bcd60e51b815260206004820152601060248201526f14185d5cd8589b194e881c185d5cd95960821b604482015290519081900360640190fd5b333214610af9576040805162461bcd60e51b8152602060048083019190915260248201526321454f4160e01b604482015290519081900360640190fd5b600e54600f5460408051630c7e663b60e11b81526004810192909252306024830152516001600160a01b03909216916318fccc769160448082019260009290919082900301818387803b158015610b4f57600080fd5b505af1158015610b63573d6000803e3d6000fd5b50505050610b6f611a6e565b610b77611fc1565b610b7f611187565b4260105560405133907f577a37fdb49a88d66684922c6f913df5239b4f214b2b97c53ef8e3bbb2034cb590600090a2565b610bb8610fb4565b6001600160a01b0316336001600160a01b03161480610be157506001546001600160a01b031633145b610c1d576040805162461bcd60e51b815260206004820152600860248201526710b6b0b730b3b2b960c11b604482015290519081900360640190fd5b610c25610f22565b600e54600f54604080516302f940c760e41b81526004810192909252306024830152516001600160a01b0390921691632f940c709160448082019260009290919082900301818387803b158015610c7b57600080fd5b505af1158015610c8f573d6000803e3d6000fd5b50505050565b61271081565b600054600160a01b900460ff1690565b610cb361252d565b6001600160a01b0316610cc4610fb4565b6001600160a01b031614610d0d576040805162461bcd60e51b815260206004820181905260248201526000805160206129cf833981519152604482015290519081900360640190fd5b600580546001600160a01b0319166001600160a01b0392909216919091179055565b600c546001600160a01b031681565b610d4661252d565b6001600160a01b0316610d57610fb4565b6001600160a01b031614610da0576040805162461bcd60e51b815260206004820181905260248201526000805160206129cf833981519152604482015290519081900360640190fd5b600480546001600160a01b0319166001600160a01b0392909216919091179055565b610dca61252d565b6001600160a01b0316610ddb610fb4565b6001600160a01b031614610e24576040805162461bcd60e51b815260206004820181905260248201526000805160206129cf833981519152604482015290519081900360640190fd5b600080546040516001600160a01b03909116907f8be0079c531659141344cd1fd0a4f28419497f9722a3daafe3b4186f6b6457e0908390a3600080546001600160a01b0319169055565b6000610e89610e7b6105c4565b610e8361109c565b90612531565b905090565b610e96610fb4565b6001600160a01b0316336001600160a01b03161480610ebf57506001546001600160a01b031633145b610efb576040805162461bcd60e51b815260206004820152600860248201526710b6b0b730b3b2b960c11b604482015290519081900360640190fd5b600180546001600160a01b0319166001600160a01b0392909216919091179055565b600081565b610f2a610fb4565b6001600160a01b0316336001600160a01b03161480610f5357506001546001600160a01b031633145b610f8f576040805162461bcd60e51b815260206004820152600860248201526710b6b0b730b3b2b960c11b604482015290519081900360640190fd5b610f9761258b565b610a6d612614565b600d546001600160a01b031681565b60065481565b6000546001600160a01b031690565b60075481565b610fd1610fb4565b6001600160a01b0316336001600160a01b03161480610ffa57506001546001600160a01b031633145b611036576040805162461bcd60e51b815260206004820152600860248201526710b6b0b730b3b2b960c11b604482015290519081900360640190fd5b6032811115611075576040805162461bcd60e51b815260206004808301919091526024820152630216361760e41b604482015290519081900360640190fd5b600655565b6001546001600160a01b031681565b6103e881565b601181815481106105aa57fe5b600b54604080516370a0823160e01b815230600482015290516000926001600160a01b0316916370a08231916024808301926020929190829003018186803b1580156110e757600080fd5b505afa1580156110fb573d6000803e3d6000fd5b505050506040513d602081101561111157600080fd5b5051905090565b6002546001600160a01b03163314611165576040805162461bcd60e51b815260206004820152600b60248201526a085cdd1c985d1959da5cdd60aa1b604482015290519081900360640190fd5b600280546001600160a01b0319166001600160a01b0392909216919091179055565b61118f610c9b565b156111d4576040805162461bcd60e51b815260206004820152601060248201526f14185d5cd8589b194e881c185d5cd95960821b604482015290519081900360640190fd5b600b54604080516370a0823160e01b815230600482015290516000926001600160a01b0316916370a08231916024808301926020929190829003018186803b15801561121f57600080fd5b505afa158015611233573d6000803e3d6000fd5b505050506040513d602081101561124957600080fd5b5051905080156112c957600e54600f5460408051638dbdbe6d60e01b8152600481019290925260248201849052306044830152516001600160a01b0390921691638dbdbe6d9160648082019260009290919082900301818387803b1580156112b057600080fd5b505af11580156112c4573d6000803e3d6000fd5b505050505b50565b6112d461252d565b6001600160a01b03166112e5610fb4565b6001600160a01b03161461132e576040805162461bcd60e51b815260206004820181905260248201526000805160206129cf833981519152604482015290519081900360640190fd5b600380546001600160a01b0319166001600160a01b0392909216919091179055565b603281565b6005546001600160a01b031681565b60105481565b600a546001600160a01b031681565b61138161252d565b6001600160a01b0316611392610fb4565b6001600160a01b0316146113db576040805162461bcd60e51b815260206004820181905260248201526000805160206129cf833981519152604482015290519081900360640190fd5b6001600160a01b0381166114205760405162461bcd60e51b81526004018080602001828103825260268152602001806129626026913960400191505060405180910390fd5b600080546040516001600160a01b03808516939216917f8be0079c531659141344cd1fd0a4f28419497f9722a3daafe3b4186f6b6457e091a3600080546001600160a01b0319166001600160a01b0392909216919091179055565b6004546001600160a01b031633146114c3576040805162461bcd60e51b8152602060048201526006602482015265085d985d5b1d60d21b604482015290519081900360640190fd5b600e54600f54604080516302f940c760e41b81526004810192909252306024830152516001600160a01b0390921691632f940c709160448082019260009290919082900301818387803b15801561151957600080fd5b505af115801561152d573d6000803e3d6000fd5b5050600b54604080516370a0823160e01b81523060048201529051600094506001600160a01b0390921692506370a08231916024808301926020929190829003018186803b15801561157e57600080fd5b505afa158015611592573d6000803e3d6000fd5b505050506040513d60208110156115a857600080fd5b5051600b54600480546040805163a9059cbb60e01b81526001600160a01b039283169381019390935260248301859052519394509091169163a9059cbb916044808201926020929091908290030181600087803b15801561160857600080fd5b505af115801561161c573d6000803e3d6000fd5b505050506040513d60208110156109cf57600080fd5b6004546001600160a01b031681565b60085481565b601481815481106105aa57fe5b8015806116da575060408051636eb1769f60e11b81523060048201526001600160a01b03848116602483015291519185169163dd62ed3e91604480820192602092909190829003018186803b1580156116ac57600080fd5b505afa1580156116c0573d6000803e3d6000fd5b505050506040513d60208110156116d657600080fd5b5051155b6117155760405162461bcd60e51b8152600401808060200182810382526036815260200180612a196036913960400191505060405180910390fd5b604080516001600160a01b038416602482015260448082018490528251808303909101815260649091019091526020810180516001600160e01b031663095ea7b360e01b1790526109cf9084906126aa565b6060611776848460008561275b565b90505b9392505050565b6000828211156117d7576040805162461bcd60e51b815260206004820152601e60248201527f536166654d6174683a207375627472616374696f6e206f766572666c6f770000604482015290519081900360640190fd5b508082035b92915050565b604080516001600160a01b038416602482015260448082018490528251808303909101815260649091019091526020810180516001600160e01b031663a9059cbb60e01b1790526109cf9084906126aa565b600082611843575060006117dc565b8282028284828161185057fe5b04146117795760405162461bcd60e51b81526004018080602001828103825260218152602001806129ae6021913960400191505060405180910390fd5b60008082116118e3576040805162461bcd60e51b815260206004820152601a60248201527f536166654d6174683a206469766973696f6e206279207a65726f000000000000604482015290519081900360640190fd5b8183816118ec57fe5b049392505050565b6118fc610c9b565b611944576040805162461bcd60e51b815260206004820152601460248201527314185d5cd8589b194e881b9bdd081c185d5cd95960621b604482015290519081900360640190fd5b6000805460ff60a01b191690557f5db9ee0a495bf2e6ff9c91a7834c1ba4fdd244a5e8aa4e537bd38aeae4b073aa61197a61252d565b604080516001600160a01b039092168252519081900360200190a1565b600e54600b546119b6916001600160a01b039182169116600019611654565b600354600a546119d5916001600160a01b039182169116600019611654565b6003546009546119f4916001600160a01b039182169116600019611654565b600354600c54611a12916001600160a01b0391821691166000611654565b600354600c54611a31916001600160a01b039182169116600019611654565b600354600d54611a4f916001600160a01b0391821691166000611654565b600354600d54610a6d916001600160a01b039182169116600019611654565b600954604080516370a0823160e01b815230600482015290516000926001600160a01b0316916370a08231916024808301926020929190829003018186803b158015611ab957600080fd5b505afa158015611acd573d6000803e3d6000fd5b505050506040513d6020811015611ae357600080fd5b505190508015611c74576003546040516338ed173960e01b8152600481018381526000602483018190523060648401819052426084850181905260a0604486019081526012805460a488018190526001600160a01b03909816976338ed1739978a97929594939160c49091019086908015611b8757602002820191906000526020600020905b81546001600160a01b03168152600190910190602001808311611b69575b50509650505050505050600060405180830381600087803b158015611bab57600080fd5b505af1158015611bbf573d6000803e3d6000fd5b505050506040513d6000823e601f3d908101601f191682016040526020811015611be857600080fd5b8101908080516040519392919084600160201b821115611c0757600080fd5b908301906020820185811115611c1c57600080fd5b82518660208202830111600160201b82111715611c3857600080fd5b82525081516020918201928201910280838360005b83811015611c65578181015183820152602001611c4d565b50505050905001604052505050505b600a54604080516370a0823160e01b81523060048201529051600092611d03926103e89261099992601e926001600160a01b03909116916370a0823191602480820192602092909190829003018186803b158015611cd157600080fd5b505afa158015611ce5573d6000803e3d6000fd5b505050506040513d6020811015611cfb57600080fd5b505190611834565b9050600360009054906101000a90046001600160a01b03166001600160a01b03166338ed1739826000601130426040518663ffffffff1660e01b81526004018086815260200185815260200180602001846001600160a01b031681526020018381526020018281038252858181548152602001915080548015611daf57602002820191906000526020600020905b81546001600160a01b03168152600190910190602001808311611d91575b50509650505050505050600060405180830381600087803b158015611dd357600080fd5b505af1158015611de7573d6000803e3d6000fd5b505050506040513d6000823e601f3d908101601f191682016040526020811015611e1057600080fd5b8101908080516040519392919084600160201b821115611e2f57600080fd5b908301906020820185811115611e4457600080fd5b82518660208202830111600160201b82111715611e6057600080fd5b82525081516020918201928201910280838360005b83811015611e8d578181015183820152602001611e75565b505050509190910160408181526009546370a0823160e01b83523060048401529051600097506001600160a01b0390911695506370a08231945060248083019450602093509091829003018186803b158015611ee857600080fd5b505afa158015611efc573d6000803e3d6000fd5b505050506040513d6020811015611f1257600080fd5b5051600754909150600090611f30906103e890610999908590611834565b600954909150611f4a906001600160a01b031633836117e2565b6000611f676103e86109996008548661183490919063ffffffff16565b600554600954919250611f87916001600160a01b039081169116836117e2565b6000611f996103e86109998684611834565b600254600954919250611fb9916001600160a01b039081169116836117e2565b505050505050565b600a54604080516370a0823160e01b81523060048201529051600092612048926002926001600160a01b03909216916370a0823191602480820192602092909190829003018186803b15801561201657600080fd5b505afa15801561202a573d6000803e3d6000fd5b505050506040513d602081101561204057600080fd5b50519061188d565b600a54600c549192506001600160a01b039182169116146121ea576003546040516338ed173960e01b8152600481018381526000602483018190523060648401819052426084850181905260a0604486019081526013805460a488018190526001600160a01b03909816976338ed1739978a97929594939160c490910190869080156120fd57602002820191906000526020600020905b81546001600160a01b031681526001909101906020018083116120df575b50509650505050505050600060405180830381600087803b15801561212157600080fd5b505af1158015612135573d6000803e3d6000fd5b505050506040513d6000823e601f3d908101601f19168201604052602081101561215e57600080fd5b8101908080516040519392919084600160201b82111561217d57600080fd5b90830190602082018581111561219257600080fd5b82518660208202830111600160201b821117156121ae57600080fd5b82525081516020918201928201910280838360005b838110156121db5781810151838201526020016121c3565b50505050905001604052505050505b600a54600d546001600160a01b03908116911614612389576003546040516338ed173960e01b8152600481018381526000602483018190523060648401819052426084850181905260a0604486019081526014805460a488018190526001600160a01b03909816976338ed1739978a97929594939160c4909101908690801561229c57602002820191906000526020600020905b81546001600160a01b0316815260019091019060200180831161227e575b50509650505050505050600060405180830381600087803b1580156122c057600080fd5b505af11580156122d4573d6000803e3d6000fd5b505050506040513d6000823e601f3d908101601f1916820160405260208110156122fd57600080fd5b8101908080516040519392919084600160201b82111561231c57600080fd5b90830190602082018581111561233157600080fd5b82518660208202830111600160201b8211171561234d57600080fd5b82525081516020918201928201910280838360005b8381101561237a578181015183820152602001612362565b50505050905001604052505050505b600c54604080516370a0823160e01b815230600482015290516000926001600160a01b0316916370a08231916024808301926020929190829003018186803b1580156123d457600080fd5b505afa1580156123e8573d6000803e3d6000fd5b505050506040513d60208110156123fe57600080fd5b5051600d54604080516370a0823160e01b815230600482015290519293506000926001600160a01b03909216916370a0823191602480820192602092909190829003018186803b15801561245157600080fd5b505afa158015612465573d6000803e3d6000fd5b505050506040513d602081101561247b57600080fd5b5051600354600c54600d546040805162e8e33760e81b81526001600160a01b0393841660048201529183166024830152604482018790526064820185905260016084830181905260a48301523060c48301524260e48301525193945091169163e8e3370091610104808201926060929091908290030181600087803b15801561250357600080fd5b505af1158015612517573d6000803e3d6000fd5b505050506040513d60608110156112c457600080fd5b3390565b600082820183811015611779576040805162461bcd60e51b815260206004820152601b60248201527f536166654d6174683a206164646974696f6e206f766572666c6f770000000000604482015290519081900360640190fd5b612593610c9b565b156125d8576040805162461bcd60e51b815260206004820152601060248201526f14185d5cd8589b194e881c185d5cd95960821b604482015290519081900360640190fd5b6000805460ff60a01b1916600160a01b1790557f62e78cea01bee320cd4e420270b5ea74000d11b0c9f74754ebdbfc544b05a25861197a61252d565b600e54600b54612632916001600160a01b0391821691166000611654565b600354600a54612650916001600160a01b0391821691166000611654565b60035460095461266e916001600160a01b0391821691166000611654565b600354600c5461268c916001600160a01b0391821691166000611654565b600354600d54610a6d916001600160a01b0391821691166000611654565b60606126ff826040518060400160405280602081526020017f5361666545524332303a206c6f772d6c6576656c2063616c6c206661696c6564815250856001600160a01b03166117679092919063ffffffff16565b8051909150156109cf5780806020019051602081101561271e57600080fd5b50516109cf5760405162461bcd60e51b815260040180806020018281038252602a8152602001806129ef602a913960400191505060405180910390fd5b60608247101561279c5760405162461bcd60e51b81526004018080602001828103825260268152602001806129886026913960400191505060405180910390fd5b6127a5856128b7565b6127f6576040805162461bcd60e51b815260206004820152601d60248201527f416464726573733a2063616c6c20746f206e6f6e2d636f6e7472616374000000604482015290519081900360640190fd5b60006060866001600160a01b031685876040518082805190602001908083835b602083106128355780518252601f199092019160209182019101612816565b6001836020036101000a03801982511681845116808217855250505050505090500191505060006040518083038185875af1925050503d8060008114612897576040519150601f19603f3d011682016040523d82523d6000602084013e61289c565b606091505b50915091506128ac8282866128bd565b979650505050505050565b3b151590565b606083156128cc575081611779565b8251156128dc5782518084602001fd5b8160405162461bcd60e51b81526004018080602001828103825283818151815260200191508051906020019080838360005b8381101561292657818101518382015260200161290e565b50505050905090810190601f1680156129535780820380516001836020036101000a031916815260200191505b509250505060405180910390fdfe4f776e61626c653a206e6577206f776e657220697320746865207a65726f2061646472657373416464726573733a20696e73756666696369656e742062616c616e636520666f722063616c6c536166654d6174683a206d756c7469706c69636174696f6e206f766572666c6f774f776e61626c653a2063616c6c6572206973206e6f7420746865206f776e65725361666545524332303a204552433230206f7065726174696f6e20646964206e6f7420737563636565645361666545524332303a20617070726f76652066726f6d206e6f6e2d7a65726f20746f206e6f6e2d7a65726f20616c6c6f77616e6365a2646970667358221220a902d18836a30945092b9725bc6ea9a6051dc596649011cc4f21806dbfdfc29664736f6c634300060c0033416464726573733a20696e73756666696369656e742062616c616e636520666f722063616c6c5361666545524332303a204552433230206f7065726174696f6e20646964206e6f7420737563636565645361666545524332303a20617070726f76652066726f6d206e6f6e2d7a65726f20746f206e6f6e2d7a65726f20616c6c6f77616e6365",
					"opcodes": "PUSH1 0x80 PUSH1 0x40 MSTORE PUSH1 0xA PUSH1 0x6 SSTORE PUSH1 0x6F PUSH1 0x7 SSTORE PUSH2 0x379 PUSH1 0x8 SSTORE CALLVALUE DUP1 ISZERO PUSH3 0x21 JUMPI PUSH1 0x0 DUP1 REVERT JUMPDEST POP PUSH1 0x40 MLOAD PUSH3 0x37DB CODESIZE SUB DUP1 PUSH3 0x37DB DUP4 CODECOPY DUP2 DUP2 ADD PUSH1 0x40 MSTORE PUSH2 0x160 DUP2 LT ISZERO PUSH3 0x48 JUMPI PUSH1 0x0 DUP1 REVERT JUMPDEST DUP2 MLOAD PUSH1 0x20 DUP4 ADD MLOAD PUSH1 0x40 DUP1 DUP6 ADD MLOAD PUSH1 0x60 DUP7 ADD MLOAD PUSH1 0x80 DUP8 ADD MLOAD PUSH1 0xA0 DUP9 ADD MLOAD PUSH1 0xC0 DUP10 ADD MLOAD PUSH1 0xE0 DUP11 ADD MLOAD PUSH2 0x100 DUP12 ADD DUP1 MLOAD SWAP8 MLOAD SWAP10 SWAP12 SWAP9 SWAP11 SWAP7 SWAP10 SWAP6 SWAP9 SWAP5 SWAP8 SWAP4 SWAP7 SWAP3 SWAP6 SWAP2 SWAP5 SWAP2 SWAP4 SWAP3 DUP3 ADD SWAP3 DUP5 PUSH5 0x100000000 DUP3 GT ISZERO PUSH3 0xA1 JUMPI PUSH1 0x0 DUP1 REVERT JUMPDEST SWAP1 DUP4 ADD SWAP1 PUSH1 0x20 DUP3 ADD DUP6 DUP2 GT ISZERO PUSH3 0xB7 JUMPI PUSH1 0x0 DUP1 REVERT JUMPDEST DUP3 MLOAD DUP7 PUSH1 0x20 DUP3 MUL DUP4 ADD GT PUSH5 0x100000000 DUP3 GT OR ISZERO PUSH3 0xD5 JUMPI PUSH1 0x0 DUP1 REVERT JUMPDEST DUP3 MSTORE POP DUP2 MLOAD PUSH1 0x20 SWAP2 DUP3 ADD SWAP3 DUP3 ADD SWAP2 MUL DUP1 DUP4 DUP4 PUSH1 0x0 JUMPDEST DUP4 DUP2 LT ISZERO PUSH3 0x104 JUMPI DUP2 DUP2 ADD MLOAD DUP4 DUP3 ADD MSTORE PUSH1 0x20 ADD PUSH3 0xEA JUMP JUMPDEST POP POP POP POP SWAP1 POP ADD PUSH1 0x40 MSTORE PUSH1 0x20 ADD DUP1 MLOAD PUSH1 0x40 MLOAD SWAP4 SWAP3 SWAP2 SWAP1 DUP5 PUSH5 0x100000000 DUP3 GT ISZERO PUSH3 0x12E JUMPI PUSH1 0x0 DUP1 REVERT JUMPDEST SWAP1 DUP4 ADD SWAP1 PUSH1 0x20 DUP3 ADD DUP6 DUP2 GT ISZERO PUSH3 0x144 JUMPI PUSH1 0x0 DUP1 REVERT JUMPDEST DUP3 MLOAD DUP7 PUSH1 0x20 DUP3 MUL DUP4 ADD GT PUSH5 0x100000000 DUP3 GT OR ISZERO PUSH3 0x162 JUMPI PUSH1 0x0 DUP1 REVERT JUMPDEST DUP3 MSTORE POP DUP2 MLOAD PUSH1 0x20 SWAP2 DUP3 ADD SWAP3 DUP3 ADD SWAP2 MUL DUP1 DUP4 DUP4 PUSH1 0x0 JUMPDEST DUP4 DUP2 LT ISZERO PUSH3 0x191 JUMPI DUP2 DUP2 ADD MLOAD DUP4 DUP3 ADD MSTORE PUSH1 0x20 ADD PUSH3 0x177 JUMP JUMPDEST POP POP POP POP SWAP1 POP ADD PUSH1 0x40 MSTORE PUSH1 0x20 ADD DUP1 MLOAD PUSH1 0x40 MLOAD SWAP4 SWAP3 SWAP2 SWAP1 DUP5 PUSH5 0x100000000 DUP3 GT ISZERO PUSH3 0x1BB JUMPI PUSH1 0x0 DUP1 REVERT JUMPDEST SWAP1 DUP4 ADD SWAP1 PUSH1 0x20 DUP3 ADD DUP6 DUP2 GT ISZERO PUSH3 0x1D1 JUMPI PUSH1 0x0 DUP1 REVERT JUMPDEST DUP3 MLOAD DUP7 PUSH1 0x20 DUP3 MUL DUP4 ADD GT PUSH5 0x100000000 DUP3 GT OR ISZERO PUSH3 0x1EF JUMPI PUSH1 0x0 DUP1 REVERT JUMPDEST DUP3 MSTORE POP DUP2 MLOAD PUSH1 0x20 SWAP2 DUP3 ADD SWAP3 DUP3 ADD SWAP2 MUL DUP1 DUP4 DUP4 PUSH1 0x0 JUMPDEST DUP4 DUP2 LT ISZERO PUSH3 0x21E JUMPI DUP2 DUP2 ADD MLOAD DUP4 DUP3 ADD MSTORE PUSH1 0x20 ADD PUSH3 0x204 JUMP JUMPDEST POP POP POP POP SWAP1 POP ADD PUSH1 0x40 MSTORE POP POP POP DUP6 DUP6 DUP9 DUP11 DUP8 PUSH1 0x0 PUSH3 0x242 PUSH3 0x6E4 PUSH1 0x20 SHL PUSH1 0x20 SHR JUMP JUMPDEST PUSH1 0x0 DUP1 SLOAD PUSH1 0x1 PUSH1 0x1 PUSH1 0xA0 SHL SUB NOT AND PUSH1 0x1 PUSH1 0x1 PUSH1 0xA0 SHL SUB DUP4 AND SWAP1 DUP2 OR DUP3 SSTORE PUSH1 0x40 MLOAD SWAP3 SWAP4 POP SWAP2 PUSH32 0x8BE0079C531659141344CD1FD0A4F28419497F9722A3DAAFE3B4186F6B6457E0 SWAP1 DUP3 SWAP1 LOG3 POP PUSH1 0x0 DUP1 SLOAD PUSH1 0xFF PUSH1 0xA0 SHL NOT AND SWAP1 SSTORE PUSH1 0x1 DUP1 SLOAD PUSH1 0x1 PUSH1 0x1 PUSH1 0xA0 SHL SUB NOT SWAP1 DUP2 AND PUSH1 0x1 PUSH1 0x1 PUSH1 0xA0 SHL SUB SWAP8 DUP9 AND OR SWAP1 SWAP2 SSTORE PUSH1 0x2 DUP1 SLOAD DUP3 AND SWAP6 DUP8 AND SWAP6 SWAP1 SWAP6 OR DUP6 SSTORE PUSH1 0x3 DUP1 SLOAD DUP3 AND SWAP5 DUP8 AND SWAP5 SWAP1 SWAP5 OR SWAP1 SWAP4 SSTORE PUSH1 0x4 DUP1 SLOAD DUP5 AND SWAP3 DUP7 AND SWAP3 SWAP1 SWAP3 OR SWAP1 SWAP2 SSTORE PUSH1 0x5 DUP1 SLOAD DUP4 AND SWAP2 DUP6 AND SWAP2 SWAP1 SWAP2 OR SWAP1 SSTORE PUSH1 0xB DUP1 SLOAD DUP3 AND DUP16 DUP6 AND OR SWAP1 SSTORE PUSH1 0xF DUP14 SWAP1 SSTORE PUSH1 0xE DUP1 SLOAD SWAP1 SWAP2 AND SWAP3 DUP13 AND SWAP3 SWAP1 SWAP3 OR SWAP1 SWAP2 SSTORE DUP4 MLOAD LT ISZERO PUSH3 0x326 JUMPI PUSH1 0x0 DUP1 REVERT JUMPDEST DUP3 PUSH1 0x0 DUP2 MLOAD DUP2 LT PUSH3 0x334 JUMPI INVALID JUMPDEST PUSH1 0x20 MUL PUSH1 0x20 ADD ADD MLOAD PUSH1 0xA PUSH1 0x0 PUSH2 0x100 EXP DUP2 SLOAD DUP2 PUSH1 0x1 PUSH1 0x1 PUSH1 0xA0 SHL SUB MUL NOT AND SWAP1 DUP4 PUSH1 0x1 PUSH1 0x1 PUSH1 0xA0 SHL SUB AND MUL OR SWAP1 SSTORE POP DUP3 PUSH1 0x1 DUP5 MLOAD SUB DUP2 MLOAD DUP2 LT PUSH3 0x373 JUMPI INVALID JUMPDEST PUSH1 0x20 SWAP1 DUP2 MUL SWAP2 SWAP1 SWAP2 ADD DUP2 ADD MLOAD PUSH1 0x9 DUP1 SLOAD PUSH1 0x1 PUSH1 0x1 PUSH1 0xA0 SHL SUB NOT AND PUSH1 0x1 PUSH1 0x1 PUSH1 0xA0 SHL SUB SWAP1 SWAP3 AND SWAP2 SWAP1 SWAP2 OR SWAP1 SSTORE DUP4 MLOAD PUSH3 0x3B2 SWAP2 PUSH1 0x11 SWAP2 SWAP1 DUP7 ADD SWAP1 PUSH3 0xC36 JUMP JUMPDEST POP PUSH1 0xB PUSH1 0x0 SWAP1 SLOAD SWAP1 PUSH2 0x100 EXP SWAP1 DIV PUSH1 0x1 PUSH1 0x1 PUSH1 0xA0 SHL SUB AND PUSH1 0x1 PUSH1 0x1 PUSH1 0xA0 SHL SUB AND PUSH4 0xDFE1681 PUSH1 0x40 MLOAD DUP2 PUSH4 0xFFFFFFFF AND PUSH1 0xE0 SHL DUP2 MSTORE PUSH1 0x4 ADD PUSH1 0x20 PUSH1 0x40 MLOAD DUP1 DUP4 SUB DUP2 DUP7 DUP1 EXTCODESIZE ISZERO DUP1 ISZERO PUSH3 0x402 JUMPI PUSH1 0x0 DUP1 REVERT JUMPDEST POP GAS STATICCALL ISZERO DUP1 ISZERO PUSH3 0x417 JUMPI RETURNDATASIZE PUSH1 0x0 DUP1 RETURNDATACOPY RETURNDATASIZE PUSH1 0x0 REVERT JUMPDEST POP POP POP POP PUSH1 0x40 MLOAD RETURNDATASIZE PUSH1 0x20 DUP2 LT ISZERO PUSH3 0x42E JUMPI PUSH1 0x0 DUP1 REVERT JUMPDEST POP MLOAD PUSH1 0xC DUP1 SLOAD PUSH1 0x1 PUSH1 0x1 PUSH1 0xA0 SHL SUB NOT AND PUSH1 0x1 PUSH1 0x1 PUSH1 0xA0 SHL SUB SWAP3 DUP4 AND OR SWAP1 SSTORE PUSH1 0xA SLOAD DUP4 MLOAD SWAP2 AND SWAP1 DUP4 SWAP1 PUSH1 0x0 SWAP1 PUSH3 0x460 JUMPI INVALID JUMPDEST PUSH1 0x20 MUL PUSH1 0x20 ADD ADD MLOAD PUSH1 0x1 PUSH1 0x1 PUSH1 0xA0 SHL SUB AND EQ PUSH3 0x47C JUMPI PUSH1 0x0 DUP1 REVERT JUMPDEST PUSH1 0xC SLOAD DUP3 MLOAD PUSH1 0x1 PUSH1 0x1 PUSH1 0xA0 SHL SUB SWAP1 SWAP2 AND SWAP1 DUP4 SWAP1 PUSH1 0x0 NOT DUP2 ADD SWAP1 DUP2 LT PUSH3 0x49E JUMPI INVALID JUMPDEST PUSH1 0x20 MUL PUSH1 0x20 ADD ADD MLOAD PUSH1 0x1 PUSH1 0x1 PUSH1 0xA0 SHL SUB AND EQ PUSH3 0x4BA JUMPI PUSH1 0x0 DUP1 REVERT JUMPDEST DUP2 MLOAD PUSH3 0x4CF SWAP1 PUSH1 0x13 SWAP1 PUSH1 0x20 DUP6 ADD SWAP1 PUSH3 0xC36 JUMP JUMPDEST POP PUSH1 0xB PUSH1 0x0 SWAP1 SLOAD SWAP1 PUSH2 0x100 EXP SWAP1 DIV PUSH1 0x1 PUSH1 0x1 PUSH1 0xA0 SHL SUB AND PUSH1 0x1 PUSH1 0x1 PUSH1 0xA0 SHL SUB AND PUSH4 0xD21220A7 PUSH1 0x40 MLOAD DUP2 PUSH4 0xFFFFFFFF AND PUSH1 0xE0 SHL DUP2 MSTORE PUSH1 0x4 ADD PUSH1 0x20 PUSH1 0x40 MLOAD DUP1 DUP4 SUB DUP2 DUP7 DUP1 EXTCODESIZE ISZERO DUP1 ISZERO PUSH3 0x51F JUMPI PUSH1 0x0 DUP1 REVERT JUMPDEST POP GAS STATICCALL ISZERO DUP1 ISZERO PUSH3 0x534 JUMPI RETURNDATASIZE PUSH1 0x0 DUP1 RETURNDATACOPY RETURNDATASIZE PUSH1 0x0 REVERT JUMPDEST POP POP POP POP PUSH1 0x40 MLOAD RETURNDATASIZE PUSH1 0x20 DUP2 LT ISZERO PUSH3 0x54B JUMPI PUSH1 0x0 DUP1 REVERT JUMPDEST POP MLOAD PUSH1 0xD DUP1 SLOAD PUSH1 0x1 PUSH1 0x1 PUSH1 0xA0 SHL SUB NOT AND PUSH1 0x1 PUSH1 0x1 PUSH1 0xA0 SHL SUB SWAP3 DUP4 AND OR SWAP1 SSTORE PUSH1 0xA SLOAD DUP3 MLOAD SWAP2 AND SWAP1 DUP3 SWAP1 PUSH1 0x0 SWAP1 PUSH3 0x57D JUMPI INVALID JUMPDEST PUSH1 0x20 MUL PUSH1 0x20 ADD ADD MLOAD PUSH1 0x1 PUSH1 0x1 PUSH1 0xA0 SHL SUB AND EQ PUSH3 0x599 JUMPI PUSH1 0x0 DUP1 REVERT JUMPDEST PUSH1 0xD SLOAD DUP2 MLOAD PUSH1 0x1 PUSH1 0x1 PUSH1 0xA0 SHL SUB SWAP1 SWAP2 AND SWAP1 DUP3 SWAP1 PUSH1 0x0 NOT DUP2 ADD SWAP1 DUP2 LT PUSH3 0x5BB JUMPI INVALID JUMPDEST PUSH1 0x20 MUL PUSH1 0x20 ADD ADD MLOAD PUSH1 0x1 PUSH1 0x1 PUSH1 0xA0 SHL SUB AND EQ PUSH3 0x5D7 JUMPI PUSH1 0x0 DUP1 REVERT JUMPDEST DUP1 MLOAD PUSH3 0x5EC SWAP1 PUSH1 0x14 SWAP1 PUSH1 0x20 DUP5 ADD SWAP1 PUSH3 0xC36 JUMP JUMPDEST POP DUP3 MLOAD PUSH1 0x1 PUSH1 0x1 PUSH1 0x40 SHL SUB DUP2 GT DUP1 ISZERO PUSH3 0x605 JUMPI PUSH1 0x0 DUP1 REVERT JUMPDEST POP PUSH1 0x40 MLOAD SWAP1 DUP1 DUP3 MSTORE DUP1 PUSH1 0x20 MUL PUSH1 0x20 ADD DUP3 ADD PUSH1 0x40 MSTORE DUP1 ISZERO PUSH3 0x630 JUMPI DUP2 PUSH1 0x20 ADD PUSH1 0x20 DUP3 MUL DUP1 CALLDATASIZE DUP4 CALLDATACOPY ADD SWAP1 POP JUMPDEST POP DUP1 MLOAD PUSH3 0x647 SWAP2 PUSH1 0x12 SWAP2 PUSH1 0x20 SWAP1 SWAP2 ADD SWAP1 PUSH3 0xC36 JUMP JUMPDEST POP PUSH1 0x0 JUMPDEST DUP4 MLOAD DUP2 LT ISZERO PUSH3 0x6C8 JUMPI PUSH1 0x0 DUP2 PUSH1 0x1 DUP7 MLOAD SUB SUB SWAP1 POP PUSH1 0x11 DUP2 DUP2 SLOAD DUP2 LT PUSH3 0x66E JUMPI INVALID JUMPDEST PUSH1 0x0 SWAP2 DUP3 MSTORE PUSH1 0x20 SWAP1 SWAP2 KECCAK256 ADD SLOAD PUSH1 0x12 DUP1 SLOAD PUSH1 0x1 PUSH1 0x1 PUSH1 0xA0 SHL SUB SWAP1 SWAP3 AND SWAP2 DUP5 SWAP1 DUP2 LT PUSH3 0x695 JUMPI INVALID JUMPDEST PUSH1 0x0 SWAP2 DUP3 MSTORE PUSH1 0x20 SWAP1 SWAP2 KECCAK256 ADD DUP1 SLOAD PUSH1 0x1 PUSH1 0x1 PUSH1 0xA0 SHL SUB NOT AND PUSH1 0x1 PUSH1 0x1 PUSH1 0xA0 SHL SUB SWAP3 SWAP1 SWAP3 AND SWAP2 SWAP1 SWAP2 OR SWAP1 SSTORE POP PUSH1 0x1 ADD PUSH3 0x64B JUMP JUMPDEST POP PUSH3 0x6D3 PUSH3 0x6E8 JUMP JUMPDEST POP POP POP POP POP POP POP POP POP POP POP PUSH3 0xCC1 JUMP JUMPDEST CALLER SWAP1 JUMP JUMPDEST PUSH1 0xE SLOAD PUSH1 0xB SLOAD PUSH3 0x715 SWAP2 PUSH1 0x1 PUSH1 0x1 PUSH1 0xA0 SHL SUB SWAP2 DUP3 AND SWAP2 AND PUSH1 0x0 NOT PUSH3 0x823 PUSH1 0x20 SWAP1 DUP2 SHL PUSH3 0x1654 OR SWAP1 SHR JUMP JUMPDEST PUSH1 0x3 SLOAD PUSH1 0xA SLOAD PUSH3 0x742 SWAP2 PUSH1 0x1 PUSH1 0x1 PUSH1 0xA0 SHL SUB SWAP2 DUP3 AND SWAP2 AND PUSH1 0x0 NOT PUSH3 0x823 PUSH1 0x20 SWAP1 DUP2 SHL PUSH3 0x1654 OR SWAP1 SHR JUMP JUMPDEST PUSH1 0x3 SLOAD PUSH1 0x9 SLOAD PUSH3 0x76F SWAP2 PUSH1 0x1 PUSH1 0x1 PUSH1 0xA0 SHL SUB SWAP2 DUP3 AND SWAP2 AND PUSH1 0x0 NOT PUSH3 0x823 PUSH1 0x20 SWAP1 DUP2 SHL PUSH3 0x1654 OR SWAP1 SHR JUMP JUMPDEST PUSH1 0x3 SLOAD PUSH1 0xC SLOAD PUSH3 0x79B SWAP2 PUSH1 0x1 PUSH1 0x1 PUSH1 0xA0 SHL SUB SWAP2 DUP3 AND SWAP2 AND PUSH1 0x0 PUSH3 0x823 PUSH1 0x20 SWAP1 DUP2 SHL PUSH3 0x1654 OR SWAP1 SHR JUMP JUMPDEST PUSH1 0x3 SLOAD PUSH1 0xC SLOAD PUSH3 0x7C8 SWAP2 PUSH1 0x1 PUSH1 0x1 PUSH1 0xA0 SHL SUB SWAP2 DUP3 AND SWAP2 AND PUSH1 0x0 NOT PUSH3 0x823 PUSH1 0x20 SWAP1 DUP2 SHL PUSH3 0x1654 OR SWAP1 SHR JUMP JUMPDEST PUSH1 0x3 SLOAD PUSH1 0xD SLOAD PUSH3 0x7F4 SWAP2 PUSH1 0x1 PUSH1 0x1 PUSH1 0xA0 SHL SUB SWAP2 DUP3 AND SWAP2 AND PUSH1 0x0 PUSH3 0x823 PUSH1 0x20 SWAP1 DUP2 SHL PUSH3 0x1654 OR SWAP1 SHR JUMP JUMPDEST PUSH1 0x3 SLOAD PUSH1 0xD SLOAD PUSH3 0x821 SWAP2 PUSH1 0x1 PUSH1 0x1 PUSH1 0xA0 SHL SUB SWAP2 DUP3 AND SWAP2 AND PUSH1 0x0 NOT PUSH3 0x823 PUSH1 0x20 SWAP1 DUP2 SHL PUSH3 0x1654 OR SWAP1 SHR JUMP JUMPDEST JUMP JUMPDEST DUP1 ISZERO DUP1 PUSH3 0x8AD JUMPI POP PUSH1 0x40 DUP1 MLOAD PUSH4 0x6EB1769F PUSH1 0xE1 SHL DUP2 MSTORE ADDRESS PUSH1 0x4 DUP3 ADD MSTORE PUSH1 0x1 PUSH1 0x1 PUSH1 0xA0 SHL SUB DUP5 DUP2 AND PUSH1 0x24 DUP4 ADD MSTORE SWAP2 MLOAD SWAP2 DUP6 AND SWAP2 PUSH4 0xDD62ED3E SWAP2 PUSH1 0x44 DUP1 DUP3 ADD SWAP3 PUSH1 0x20 SWAP3 SWAP1 SWAP2 SWAP1 DUP3 SWAP1 SUB ADD DUP2 DUP7 DUP1 EXTCODESIZE ISZERO DUP1 ISZERO PUSH3 0x87D JUMPI PUSH1 0x0 DUP1 REVERT JUMPDEST POP GAS STATICCALL ISZERO DUP1 ISZERO PUSH3 0x892 JUMPI RETURNDATASIZE PUSH1 0x0 DUP1 RETURNDATACOPY RETURNDATASIZE PUSH1 0x0 REVERT JUMPDEST POP POP POP POP PUSH1 0x40 MLOAD RETURNDATASIZE PUSH1 0x20 DUP2 LT ISZERO PUSH3 0x8A9 JUMPI PUSH1 0x0 DUP1 REVERT JUMPDEST POP MLOAD ISZERO JUMPDEST PUSH3 0x8EA JUMPI PUSH1 0x40 MLOAD PUSH3 0x461BCD PUSH1 0xE5 SHL DUP2 MSTORE PUSH1 0x4 ADD DUP1 DUP1 PUSH1 0x20 ADD DUP3 DUP2 SUB DUP3 MSTORE PUSH1 0x36 DUP2 MSTORE PUSH1 0x20 ADD DUP1 PUSH3 0x37A5 PUSH1 0x36 SWAP2 CODECOPY PUSH1 0x40 ADD SWAP2 POP POP PUSH1 0x40 MLOAD DUP1 SWAP2 SUB SWAP1 REVERT JUMPDEST PUSH1 0x40 DUP1 MLOAD PUSH1 0x1 PUSH1 0x1 PUSH1 0xA0 SHL SUB DUP5 AND PUSH1 0x24 DUP3 ADD MSTORE PUSH1 0x44 DUP1 DUP3 ADD DUP5 SWAP1 MSTORE DUP3 MLOAD DUP1 DUP4 SUB SWAP1 SWAP2 ADD DUP2 MSTORE PUSH1 0x64 SWAP1 SWAP2 ADD SWAP1 SWAP2 MSTORE PUSH1 0x20 DUP2 ADD DUP1 MLOAD PUSH1 0x1 PUSH1 0x1 PUSH1 0xE0 SHL SUB SWAP1 DUP2 AND PUSH4 0x95EA7B3 PUSH1 0xE0 SHL OR SWAP1 SWAP2 MSTORE PUSH3 0x942 SWAP2 DUP6 SWAP2 PUSH3 0x947 AND JUMP JUMPDEST POP POP POP JUMP JUMPDEST PUSH1 0x60 PUSH3 0x9A3 DUP3 PUSH1 0x40 MLOAD DUP1 PUSH1 0x40 ADD PUSH1 0x40 MSTORE DUP1 PUSH1 0x20 DUP2 MSTORE PUSH1 0x20 ADD PUSH32 0x5361666545524332303A206C6F772D6C6576656C2063616C6C206661696C6564 DUP2 MSTORE POP DUP6 PUSH1 0x1 PUSH1 0x1 PUSH1 0xA0 SHL SUB AND PUSH3 0xA03 PUSH1 0x20 SHL PUSH3 0x1767 OR SWAP1 SWAP3 SWAP2 SWAP1 PUSH1 0x20 SHR JUMP JUMPDEST DUP1 MLOAD SWAP1 SWAP2 POP ISZERO PUSH3 0x942 JUMPI DUP1 DUP1 PUSH1 0x20 ADD SWAP1 MLOAD PUSH1 0x20 DUP2 LT ISZERO PUSH3 0x9C4 JUMPI PUSH1 0x0 DUP1 REVERT JUMPDEST POP MLOAD PUSH3 0x942 JUMPI PUSH1 0x40 MLOAD PUSH3 0x461BCD PUSH1 0xE5 SHL DUP2 MSTORE PUSH1 0x4 ADD DUP1 DUP1 PUSH1 0x20 ADD DUP3 DUP2 SUB DUP3 MSTORE PUSH1 0x2A DUP2 MSTORE PUSH1 0x20 ADD DUP1 PUSH3 0x377B PUSH1 0x2A SWAP2 CODECOPY PUSH1 0x40 ADD SWAP2 POP POP PUSH1 0x40 MLOAD DUP1 SWAP2 SUB SWAP1 REVERT JUMPDEST PUSH1 0x60 PUSH3 0xA14 DUP5 DUP5 PUSH1 0x0 DUP6 PUSH3 0xA1E JUMP JUMPDEST SWAP1 POP JUMPDEST SWAP4 SWAP3 POP POP POP JUMP JUMPDEST PUSH1 0x60 DUP3 SELFBALANCE LT ISZERO PUSH3 0xA61 JUMPI PUSH1 0x40 MLOAD PUSH3 0x461BCD PUSH1 0xE5 SHL DUP2 MSTORE PUSH1 0x4 ADD DUP1 DUP1 PUSH1 0x20 ADD DUP3 DUP2 SUB DUP3 MSTORE PUSH1 0x26 DUP2 MSTORE PUSH1 0x20 ADD DUP1 PUSH3 0x3755 PUSH1 0x26 SWAP2 CODECOPY PUSH1 0x40 ADD SWAP2 POP POP PUSH1 0x40 MLOAD DUP1 SWAP2 SUB SWAP1 REVERT JUMPDEST PUSH3 0xA6C DUP6 PUSH3 0xB86 JUMP JUMPDEST PUSH3 0xABE JUMPI PUSH1 0x40 DUP1 MLOAD PUSH3 0x461BCD PUSH1 0xE5 SHL DUP2 MSTORE PUSH1 0x20 PUSH1 0x4 DUP3 ADD MSTORE PUSH1 0x1D PUSH1 0x24 DUP3 ADD MSTORE PUSH32 0x416464726573733A2063616C6C20746F206E6F6E2D636F6E7472616374000000 PUSH1 0x44 DUP3 ADD MSTORE SWAP1 MLOAD SWAP1 DUP2 SWAP1 SUB PUSH1 0x64 ADD SWAP1 REVERT JUMPDEST PUSH1 0x0 PUSH1 0x60 DUP7 PUSH1 0x1 PUSH1 0x1 PUSH1 0xA0 SHL SUB AND DUP6 DUP8 PUSH1 0x40 MLOAD DUP1 DUP3 DUP1 MLOAD SWAP1 PUSH1 0x20 ADD SWAP1 DUP1 DUP4 DUP4 JUMPDEST PUSH1 0x20 DUP4 LT PUSH3 0xAFF JUMPI DUP1 MLOAD DUP3 MSTORE PUSH1 0x1F NOT SWAP1 SWAP3 ADD SWAP2 PUSH1 0x20 SWAP2 DUP3 ADD SWAP2 ADD PUSH3 0xADE JUMP JUMPDEST PUSH1 0x1 DUP4 PUSH1 0x20 SUB PUSH2 0x100 EXP SUB DUP1 NOT DUP3 MLOAD AND DUP2 DUP5 MLOAD AND DUP1 DUP3 OR DUP6 MSTORE POP POP POP POP POP POP SWAP1 POP ADD SWAP2 POP POP PUSH1 0x0 PUSH1 0x40 MLOAD DUP1 DUP4 SUB DUP2 DUP6 DUP8 GAS CALL SWAP3 POP POP POP RETURNDATASIZE DUP1 PUSH1 0x0 DUP2 EQ PUSH3 0xB63 JUMPI PUSH1 0x40 MLOAD SWAP2 POP PUSH1 0x1F NOT PUSH1 0x3F RETURNDATASIZE ADD AND DUP3 ADD PUSH1 0x40 MSTORE RETURNDATASIZE DUP3 MSTORE RETURNDATASIZE PUSH1 0x0 PUSH1 0x20 DUP5 ADD RETURNDATACOPY PUSH3 0xB68 JUMP JUMPDEST PUSH1 0x60 SWAP2 POP JUMPDEST POP SWAP1 SWAP3 POP SWAP1 POP PUSH3 0xB7B DUP3 DUP3 DUP7 PUSH3 0xB8C JUMP JUMPDEST SWAP8 SWAP7 POP POP POP POP POP POP POP JUMP JUMPDEST EXTCODESIZE ISZERO ISZERO SWAP1 JUMP JUMPDEST PUSH1 0x60 DUP4 ISZERO PUSH3 0xB9D JUMPI POP DUP2 PUSH3 0xA17 JUMP JUMPDEST DUP3 MLOAD ISZERO PUSH3 0xBAE JUMPI DUP3 MLOAD DUP1 DUP5 PUSH1 0x20 ADD REVERT JUMPDEST DUP2 PUSH1 0x40 MLOAD PUSH3 0x461BCD PUSH1 0xE5 SHL DUP2 MSTORE PUSH1 0x4 ADD DUP1 DUP1 PUSH1 0x20 ADD DUP3 DUP2 SUB DUP3 MSTORE DUP4 DUP2 DUP2 MLOAD DUP2 MSTORE PUSH1 0x20 ADD SWAP2 POP DUP1 MLOAD SWAP1 PUSH1 0x20 ADD SWAP1 DUP1 DUP4 DUP4 PUSH1 0x0 JUMPDEST DUP4 DUP2 LT ISZERO PUSH3 0xBFA JUMPI DUP2 DUP2 ADD MLOAD DUP4 DUP3 ADD MSTORE PUSH1 0x20 ADD PUSH3 0xBE0 JUMP JUMPDEST POP POP POP POP SWAP1 POP SWAP1 DUP2 ADD SWAP1 PUSH1 0x1F AND DUP1 ISZERO PUSH3 0xC28 JUMPI DUP1 DUP3 SUB DUP1 MLOAD PUSH1 0x1 DUP4 PUSH1 0x20 SUB PUSH2 0x100 EXP SUB NOT AND DUP2 MSTORE PUSH1 0x20 ADD SWAP2 POP JUMPDEST POP SWAP3 POP POP POP PUSH1 0x40 MLOAD DUP1 SWAP2 SUB SWAP1 REVERT JUMPDEST DUP3 DUP1 SLOAD DUP3 DUP3 SSTORE SWAP1 PUSH1 0x0 MSTORE PUSH1 0x20 PUSH1 0x0 KECCAK256 SWAP1 DUP2 ADD SWAP3 DUP3 ISZERO PUSH3 0xC8E JUMPI SWAP2 PUSH1 0x20 MUL DUP3 ADD JUMPDEST DUP3 DUP2 GT ISZERO PUSH3 0xC8E JUMPI DUP3 MLOAD DUP3 SLOAD PUSH1 0x1 PUSH1 0x1 PUSH1 0xA0 SHL SUB NOT AND PUSH1 0x1 PUSH1 0x1 PUSH1 0xA0 SHL SUB SWAP1 SWAP2 AND OR DUP3 SSTORE PUSH1 0x20 SWAP1 SWAP3 ADD SWAP2 PUSH1 0x1 SWAP1 SWAP2 ADD SWAP1 PUSH3 0xC57 JUMP JUMPDEST POP PUSH3 0xC9C SWAP3 SWAP2 POP PUSH3 0xCA0 JUMP JUMPDEST POP SWAP1 JUMP JUMPDEST JUMPDEST DUP1 DUP3 GT ISZERO PUSH3 0xC9C JUMPI DUP1 SLOAD PUSH1 0x1 PUSH1 0x1 PUSH1 0xA0 SHL SUB NOT AND DUP2 SSTORE PUSH1 0x1 ADD PUSH3 0xCA1 JUMP JUMPDEST PUSH2 0x2A84 DUP1 PUSH3 0xCD1 PUSH1 0x0 CODECOPY PUSH1 0x0 RETURN INVALID PUSH1 0x80 PUSH1 0x40 MSTORE CALLVALUE DUP1 ISZERO PUSH2 0x10 JUMPI PUSH1 0x0 DUP1 REVERT JUMPDEST POP PUSH1 0x4 CALLDATASIZE LT PUSH2 0x295 JUMPI PUSH1 0x0 CALLDATALOAD PUSH1 0xE0 SHR DUP1 PUSH4 0x748747E6 GT PUSH2 0x167 JUMPI DUP1 PUSH4 0xC7B9D530 GT PUSH2 0xCE JUMPI DUP1 PUSH4 0xF20EAEB8 GT PUSH2 0x87 JUMPI DUP1 PUSH4 0xF20EAEB8 EQ PUSH2 0x53A JUMPI DUP1 PUSH4 0xF2FDE38B EQ PUSH2 0x542 JUMPI DUP1 PUSH4 0xFB617787 EQ PUSH2 0x568 JUMPI DUP1 PUSH4 0xFBFA77CF EQ PUSH2 0x570 JUMPI DUP1 PUSH4 0xFC61568B EQ PUSH2 0x578 JUMPI DUP1 PUSH4 0xFD63A887 EQ PUSH2 0x580 JUMPI PUSH2 0x295 JUMP JUMPDEST DUP1 PUSH4 0xC7B9D530 EQ PUSH2 0x4CE JUMPI DUP1 PUSH4 0xD0E30DB0 EQ PUSH2 0x4F4 JUMPI DUP1 PUSH4 0xD92F3D73 EQ PUSH2 0x4FC JUMPI DUP1 PUSH4 0xDFBDC437 EQ PUSH2 0x522 JUMPI DUP1 PUSH4 0xE0E4130B EQ PUSH2 0x52A JUMPI DUP1 PUSH4 0xF1A392DA EQ PUSH2 0x532 JUMPI PUSH2 0x295 JUMP JUMPDEST DUP1 PUSH4 0x90321E1A GT PUSH2 0x120 JUMPI DUP1 PUSH4 0x90321E1A EQ PUSH2 0x474 JUMPI DUP1 PUSH4 0xAC1E5025 EQ PUSH2 0x47C JUMPI DUP1 PUSH4 0xACED1661 EQ PUSH2 0x499 JUMPI DUP1 PUSH4 0xBC063E1A EQ PUSH2 0x4A1 JUMPI DUP1 PUSH4 0xBE12A978 EQ PUSH2 0x4A9 JUMPI DUP1 PUSH4 0xC1A3D44C EQ PUSH2 0x4C6 JUMPI PUSH2 0x295 JUMP JUMPDEST DUP1 PUSH4 0x748747E6 EQ PUSH2 0x426 JUMPI DUP1 PUSH4 0x7D38CA65 EQ PUSH2 0x44C JUMPI DUP1 PUSH4 0x8456CB59 EQ PUSH2 0x454 JUMPI DUP1 PUSH4 0x877562B6 EQ PUSH2 0x45C JUMPI DUP1 PUSH4 0x8BC7E8C4 EQ PUSH2 0x464 JUMPI DUP1 PUSH4 0x8DA5CB5B EQ PUSH2 0x46C JUMPI PUSH2 0x295 JUMP JUMPDEST DUP1 PUSH4 0x3E0DC34E GT PUSH2 0x20B JUMPI DUP1 PUSH4 0x5C975ABB GT PUSH2 0x1C4 JUMPI DUP1 PUSH4 0x5C975ABB EQ PUSH2 0x3A6 JUMPI DUP1 PUSH4 0x5E45DA42 EQ PUSH2 0x3C2 JUMPI DUP1 PUSH4 0x5EE167C0 EQ PUSH2 0x3E8 JUMPI DUP1 PUSH4 0x6817031B EQ PUSH2 0x3F0 JUMPI DUP1 PUSH4 0x715018A6 EQ PUSH2 0x416 JUMPI DUP1 PUSH4 0x722713F7 EQ PUSH2 0x41E JUMPI PUSH2 0x295 JUMP JUMPDEST DUP1 PUSH4 0x3E0DC34E EQ PUSH2 0x376 JUMPI DUP1 PUSH4 0x3F4BA83A EQ PUSH2 0x37E JUMPI DUP1 PUSH4 0x4641257D EQ PUSH2 0x386 JUMPI DUP1 PUSH4 0x4700D305 EQ PUSH2 0x38E JUMPI DUP1 PUSH4 0x54518B1A EQ PUSH2 0x396 JUMPI DUP1 PUSH4 0x573FEF0A EQ PUSH2 0x39E JUMPI PUSH2 0x295 JUMP JUMPDEST DUP1 PUSH4 0x1FE4A686 GT PUSH2 0x25D JUMPI DUP1 PUSH4 0x1FE4A686 EQ PUSH2 0x305 JUMPI DUP1 PUSH4 0x257AE0DE EQ PUSH2 0x30D JUMPI DUP1 PUSH4 0x26465826 EQ PUSH2 0x315 JUMPI DUP1 PUSH4 0x2AD5A53F EQ PUSH2 0x334 JUMPI DUP1 PUSH4 0x2E1A7D4D EQ PUSH2 0x33C JUMPI DUP1 PUSH4 0x36C6CF21 EQ PUSH2 0x359 JUMPI PUSH2 0x295 JUMP JUMPDEST DUP1 PUSH4 0x5200C9C EQ PUSH2 0x29A JUMPI DUP1 PUSH4 0x11588086 EQ PUSH2 0x2D3 JUMPI DUP1 PUSH4 0x11B0B42D EQ PUSH2 0x2ED JUMPI DUP1 PUSH4 0x1F1FCD51 EQ PUSH2 0x2F5 JUMPI DUP1 PUSH4 0x1FC8BC5D EQ PUSH2 0x2FD JUMPI JUMPDEST PUSH1 0x0 DUP1 REVERT JUMPDEST PUSH2 0x2B7 PUSH1 0x4 DUP1 CALLDATASIZE SUB PUSH1 0x20 DUP2 LT ISZERO PUSH2 0x2B0 JUMPI PUSH1 0x0 DUP1 REVERT JUMPDEST POP CALLDATALOAD PUSH2 0x59D JUMP JUMPDEST PUSH1 0x40 DUP1 MLOAD PUSH1 0x1 PUSH1 0x1 PUSH1 0xA0 SHL SUB SWAP1 SWAP3 AND DUP3 MSTORE MLOAD SWAP1 DUP2 SWAP1 SUB PUSH1 0x20 ADD SWAP1 RETURN JUMPDEST PUSH2 0x2DB PUSH2 0x5C4 JUMP JUMPDEST PUSH1 0x40 DUP1 MLOAD SWAP2 DUP3 MSTORE MLOAD SWAP1 DUP2 SWAP1 SUB PUSH1 0x20 ADD SWAP1 RETURN JUMPDEST PUSH2 0x2B7 PUSH2 0x64B JUMP JUMPDEST PUSH2 0x2B7 PUSH2 0x65A JUMP JUMPDEST PUSH2 0x2B7 PUSH2 0x669 JUMP JUMPDEST PUSH2 0x2B7 PUSH2 0x678 JUMP JUMPDEST PUSH2 0x2B7 PUSH2 0x687 JUMP JUMPDEST PUSH2 0x332 PUSH1 0x4 DUP1 CALLDATASIZE SUB PUSH1 0x20 DUP2 LT ISZERO PUSH2 0x32B JUMPI PUSH1 0x0 DUP1 REVERT JUMPDEST POP CALLDATALOAD PUSH2 0x696 JUMP JUMPDEST STOP JUMPDEST PUSH2 0x2DB PUSH2 0x750 JUMP JUMPDEST PUSH2 0x332 PUSH1 0x4 DUP1 CALLDATASIZE SUB PUSH1 0x20 DUP2 LT ISZERO PUSH2 0x352 JUMPI PUSH1 0x0 DUP1 REVERT JUMPDEST POP CALLDATALOAD PUSH2 0x755 JUMP JUMPDEST PUSH2 0x2B7 PUSH1 0x4 DUP1 CALLDATASIZE SUB PUSH1 0x20 DUP2 LT ISZERO PUSH2 0x36F JUMPI PUSH1 0x0 DUP1 REVERT JUMPDEST POP CALLDATALOAD PUSH2 0x9D5 JUMP JUMPDEST PUSH2 0x2DB PUSH2 0x9E2 JUMP JUMPDEST PUSH2 0x332 PUSH2 0x9E8 JUMP JUMPDEST PUSH2 0x332 PUSH2 0xA6F JUMP JUMPDEST PUSH2 0x332 PUSH2 0xBB0 JUMP JUMPDEST PUSH2 0x2DB PUSH2 0xC95 JUMP JUMPDEST PUSH2 0x332 PUSH2 0xA6D JUMP JUMPDEST PUSH2 0x3AE PUSH2 0xC9B JUMP JUMPDEST PUSH1 0x40 DUP1 MLOAD SWAP2 ISZERO ISZERO DUP3 MSTORE MLOAD SWAP1 DUP2 SWAP1 SUB PUSH1 0x20 ADD SWAP1 RETURN JUMPDEST PUSH2 0x332 PUSH1 0x4 DUP1 CALLDATASIZE SUB PUSH1 0x20 DUP2 LT ISZERO PUSH2 0x3D8 JUMPI PUSH1 0x0 DUP1 REVERT JUMPDEST POP CALLDATALOAD PUSH1 0x1 PUSH1 0x1 PUSH1 0xA0 SHL SUB AND PUSH2 0xCAB JUMP JUMPDEST PUSH2 0x2B7 PUSH2 0xD2F JUMP JUMPDEST PUSH2 0x332 PUSH1 0x4 DUP1 CALLDATASIZE SUB PUSH1 0x20 DUP2 LT ISZERO PUSH2 0x406 JUMPI PUSH1 0x0 DUP1 REVERT JUMPDEST POP CALLDATALOAD PUSH1 0x1 PUSH1 0x1 PUSH1 0xA0 SHL SUB AND PUSH2 0xD3E JUMP JUMPDEST PUSH2 0x332 PUSH2 0xDC2 JUMP JUMPDEST PUSH2 0x2DB PUSH2 0xE6E JUMP JUMPDEST PUSH2 0x332 PUSH1 0x4 DUP1 CALLDATASIZE SUB PUSH1 0x20 DUP2 LT ISZERO PUSH2 0x43C JUMPI PUSH1 0x0 DUP1 REVERT JUMPDEST POP CALLDATALOAD PUSH1 0x1 PUSH1 0x1 PUSH1 0xA0 SHL SUB AND PUSH2 0xE8E JUMP JUMPDEST PUSH2 0x2DB PUSH2 0xF1D JUMP JUMPDEST PUSH2 0x332 PUSH2 0xF22 JUMP JUMPDEST PUSH2 0x2B7 PUSH2 0xF9F JUMP JUMPDEST PUSH2 0x2DB PUSH2 0xFAE JUMP JUMPDEST PUSH2 0x2B7 PUSH2 0xFB4 JUMP JUMPDEST PUSH2 0x2DB PUSH2 0xFC3 JUMP JUMPDEST PUSH2 0x332 PUSH1 0x4 DUP1 CALLDATASIZE SUB PUSH1 0x20 DUP2 LT ISZERO PUSH2 0x492 JUMPI PUSH1 0x0 DUP1 REVERT JUMPDEST POP CALLDATALOAD PUSH2 0xFC9 JUMP JUMPDEST PUSH2 0x2B7 PUSH2 0x107A JUMP JUMPDEST PUSH2 0x2DB PUSH2 0x1089 JUMP JUMPDEST PUSH2 0x2B7 PUSH1 0x4 DUP1 CALLDATASIZE SUB PUSH1 0x20 DUP2 LT ISZERO PUSH2 0x4BF JUMPI PUSH1 0x0 DUP1 REVERT JUMPDEST POP CALLDATALOAD PUSH2 0x108F JUMP JUMPDEST PUSH2 0x2DB PUSH2 0x109C JUMP JUMPDEST PUSH2 0x332 PUSH1 0x4 DUP1 CALLDATASIZE SUB PUSH1 0x20 DUP2 LT ISZERO PUSH2 0x4E4 JUMPI PUSH1 0x0 DUP1 REVERT JUMPDEST POP CALLDATALOAD PUSH1 0x1 PUSH1 0x1 PUSH1 0xA0 SHL SUB AND PUSH2 0x1118 JUMP JUMPDEST PUSH2 0x332 PUSH2 0x1187 JUMP JUMPDEST PUSH2 0x332 PUSH1 0x4 DUP1 CALLDATASIZE SUB PUSH1 0x20 DUP2 LT ISZERO PUSH2 0x512 JUMPI PUSH1 0x0 DUP1 REVERT JUMPDEST POP CALLDATALOAD PUSH1 0x1 PUSH1 0x1 PUSH1 0xA0 SHL SUB AND PUSH2 0x12CC JUMP JUMPDEST PUSH2 0x2DB PUSH2 0x1350 JUMP JUMPDEST PUSH2 0x2B7 PUSH2 0x1355 JUMP JUMPDEST PUSH2 0x2DB PUSH2 0x1364 JUMP JUMPDEST PUSH2 0x2B7 PUSH2 0x136A JUMP JUMPDEST PUSH2 0x332 PUSH1 0x4 DUP1 CALLDATASIZE SUB PUSH1 0x20 DUP2 LT ISZERO PUSH2 0x558 JUMPI PUSH1 0x0 DUP1 REVERT JUMPDEST POP CALLDATALOAD PUSH1 0x1 PUSH1 0x1 PUSH1 0xA0 SHL SUB AND PUSH2 0x1379 JUMP JUMPDEST PUSH2 0x332 PUSH2 0x147B JUMP JUMPDEST PUSH2 0x2B7 PUSH2 0x1632 JUMP JUMPDEST PUSH2 0x2DB PUSH2 0x1641 JUMP JUMPDEST PUSH2 0x2B7 PUSH1 0x4 DUP1 CALLDATASIZE SUB PUSH1 0x20 DUP2 LT ISZERO PUSH2 0x596 JUMPI PUSH1 0x0 DUP1 REVERT JUMPDEST POP CALLDATALOAD PUSH2 0x1647 JUMP JUMPDEST PUSH1 0x12 DUP2 DUP2 SLOAD DUP2 LT PUSH2 0x5AA JUMPI INVALID JUMPDEST PUSH1 0x0 SWAP2 DUP3 MSTORE PUSH1 0x20 SWAP1 SWAP2 KECCAK256 ADD SLOAD PUSH1 0x1 PUSH1 0x1 PUSH1 0xA0 SHL SUB AND SWAP1 POP DUP2 JUMP JUMPDEST PUSH1 0xE SLOAD PUSH1 0xF SLOAD PUSH1 0x40 DUP1 MLOAD PUSH4 0x93F1A40B PUSH1 0xE0 SHL DUP2 MSTORE PUSH1 0x4 DUP2 ADD SWAP3 SWAP1 SWAP3 MSTORE ADDRESS PUSH1 0x24 DUP4 ADD MSTORE DUP1 MLOAD PUSH1 0x0 SWAP4 DUP5 SWAP4 PUSH1 0x1 PUSH1 0x1 PUSH1 0xA0 SHL SUB SWAP1 SWAP2 AND SWAP3 PUSH4 0x93F1A40B SWAP3 PUSH1 0x44 DUP1 DUP5 ADD SWAP4 DUP3 SWAP1 SUB ADD DUP2 DUP7 DUP1 EXTCODESIZE ISZERO DUP1 ISZERO PUSH2 0x619 JUMPI PUSH1 0x0 DUP1 REVERT JUMPDEST POP GAS STATICCALL ISZERO DUP1 ISZERO PUSH2 0x62D JUMPI RETURNDATASIZE PUSH1 0x0 DUP1 RETURNDATACOPY RETURNDATASIZE PUSH1 0x0 REVERT JUMPDEST POP POP POP POP PUSH1 0x40 MLOAD RETURNDATASIZE PUSH1 0x40 DUP2 LT ISZERO PUSH2 0x643 JUMPI PUSH1 0x0 DUP1 REVERT JUMPDEST POP MLOAD SWAP2 POP POP SWAP1 JUMP JUMPDEST PUSH1 0x9 SLOAD PUSH1 0x1 PUSH1 0x1 PUSH1 0xA0 SHL SUB AND DUP2 JUMP JUMPDEST PUSH1 0xB SLOAD PUSH1 0x1 PUSH1 0x1 PUSH1 0xA0 SHL SUB AND DUP2 JUMP JUMPDEST PUSH1 0xE SLOAD PUSH1 0x1 PUSH1 0x1 PUSH1 0xA0 SHL SUB AND DUP2 JUMP JUMPDEST PUSH1 0x2 SLOAD PUSH1 0x1 PUSH1 0x1 PUSH1 0xA0 SHL SUB AND DUP2 JUMP JUMPDEST PUSH1 0x3 SLOAD PUSH1 0x1 PUSH1 0x1 PUSH1 0xA0 SHL SUB AND DUP2 JUMP JUMPDEST PUSH2 0x69E PUSH2 0xFB4 JUMP JUMPDEST PUSH1 0x1 PUSH1 0x1 PUSH1 0xA0 SHL SUB AND CALLER PUSH1 0x1 PUSH1 0x1 PUSH1 0xA0 SHL SUB AND EQ DUP1 PUSH2 0x6C7 JUMPI POP PUSH1 0x1 SLOAD PUSH1 0x1 PUSH1 0x1 PUSH1 0xA0 SHL SUB AND CALLER EQ JUMPDEST PUSH2 0x703 JUMPI PUSH1 0x40 DUP1 MLOAD PUSH3 0x461BCD PUSH1 0xE5 SHL DUP2 MSTORE PUSH1 0x20 PUSH1 0x4 DUP3 ADD MSTORE PUSH1 0x8 PUSH1 0x24 DUP3 ADD MSTORE PUSH8 0x10B6B0B730B3B2B9 PUSH1 0xC1 SHL PUSH1 0x44 DUP3 ADD MSTORE SWAP1 MLOAD SWAP1 DUP2 SWAP1 SUB PUSH1 0x64 ADD SWAP1 REVERT JUMPDEST PUSH1 0x6F DUP2 GT ISZERO PUSH2 0x742 JUMPI PUSH1 0x40 DUP1 MLOAD PUSH3 0x461BCD PUSH1 0xE5 SHL DUP2 MSTORE PUSH1 0x20 PUSH1 0x4 DUP1 DUP4 ADD SWAP2 SWAP1 SWAP2 MSTORE PUSH1 0x24 DUP3 ADD MSTORE PUSH4 0x2163617 PUSH1 0xE4 SHL PUSH1 0x44 DUP3 ADD MSTORE SWAP1 MLOAD SWAP1 DUP2 SWAP1 SUB PUSH1 0x64 ADD SWAP1 REVERT JUMPDEST PUSH1 0x7 DUP2 SWAP1 SSTORE PUSH2 0x3E8 SUB PUSH1 0x8 SSTORE JUMP JUMPDEST PUSH1 0x6F DUP2 JUMP JUMPDEST PUSH1 0x4 SLOAD PUSH1 0x1 PUSH1 0x1 PUSH1 0xA0 SHL SUB AND CALLER EQ PUSH2 0x79D JUMPI PUSH1 0x40 DUP1 MLOAD PUSH3 0x461BCD PUSH1 0xE5 SHL DUP2 MSTORE PUSH1 0x20 PUSH1 0x4 DUP3 ADD MSTORE PUSH1 0x6 PUSH1 0x24 DUP3 ADD MSTORE PUSH6 0x85D985D5B1D PUSH1 0xD2 SHL PUSH1 0x44 DUP3 ADD MSTORE SWAP1 MLOAD SWAP1 DUP2 SWAP1 SUB PUSH1 0x64 ADD SWAP1 REVERT JUMPDEST PUSH1 0xB SLOAD PUSH1 0x40 DUP1 MLOAD PUSH4 0x70A08231 PUSH1 0xE0 SHL DUP2 MSTORE ADDRESS PUSH1 0x4 DUP3 ADD MSTORE SWAP1 MLOAD PUSH1 0x0 SWAP3 PUSH1 0x1 PUSH1 0x1 PUSH1 0xA0 SHL SUB AND SWAP2 PUSH4 0x70A08231 SWAP2 PUSH1 0x24 DUP1 DUP4 ADD SWAP3 PUSH1 0x20 SWAP3 SWAP2 SWAP1 DUP3 SWAP1 SUB ADD DUP2 DUP7 DUP1 EXTCODESIZE ISZERO DUP1 ISZERO PUSH2 0x7E8 JUMPI PUSH1 0x0 DUP1 REVERT JUMPDEST POP GAS STATICCALL ISZERO DUP1 ISZERO PUSH2 0x7FC JUMPI RETURNDATASIZE PUSH1 0x0 DUP1 RETURNDATACOPY RETURNDATASIZE PUSH1 0x0 REVERT JUMPDEST POP POP POP POP PUSH1 0x40 MLOAD RETURNDATASIZE PUSH1 0x20 DUP2 LT ISZERO PUSH2 0x812 JUMPI PUSH1 0x0 DUP1 REVERT JUMPDEST POP MLOAD SWAP1 POP DUP2 DUP2 LT ISZERO PUSH2 0x920 JUMPI PUSH1 0xE SLOAD PUSH1 0xF SLOAD PUSH1 0x1 PUSH1 0x1 PUSH1 0xA0 SHL SUB SWAP1 SWAP2 AND SWAP1 PUSH4 0xAD58D2F SWAP1 PUSH2 0x840 DUP6 DUP6 PUSH2 0x1780 JUMP JUMPDEST ADDRESS PUSH1 0x40 MLOAD DUP5 PUSH4 0xFFFFFFFF AND PUSH1 0xE0 SHL DUP2 MSTORE PUSH1 0x4 ADD DUP1 DUP5 DUP2 MSTORE PUSH1 0x20 ADD DUP4 DUP2 MSTORE PUSH1 0x20 ADD DUP3 PUSH1 0x1 PUSH1 0x1 PUSH1 0xA0 SHL SUB AND DUP2 MSTORE PUSH1 0x20 ADD SWAP4 POP POP POP POP PUSH1 0x0 PUSH1 0x40 MLOAD DUP1 DUP4 SUB DUP2 PUSH1 0x0 DUP8 DUP1 EXTCODESIZE ISZERO DUP1 ISZERO PUSH2 0x88E JUMPI PUSH1 0x0 DUP1 REVERT JUMPDEST POP GAS CALL ISZERO DUP1 ISZERO PUSH2 0x8A2 JUMPI RETURNDATASIZE PUSH1 0x0 DUP1 RETURNDATACOPY RETURNDATASIZE PUSH1 0x0 REVERT JUMPDEST POP POP PUSH1 0xB SLOAD PUSH1 0x40 DUP1 MLOAD PUSH4 0x70A08231 PUSH1 0xE0 SHL DUP2 MSTORE ADDRESS PUSH1 0x4 DUP3 ADD MSTORE SWAP1 MLOAD PUSH1 0x1 PUSH1 0x1 PUSH1 0xA0 SHL SUB SWAP1 SWAP3 AND SWAP4 POP PUSH4 0x70A08231 SWAP3 POP PUSH1 0x24 DUP1 DUP3 ADD SWAP3 PUSH1 0x20 SWAP3 SWAP1 SWAP2 SWAP1 DUP3 SWAP1 SUB ADD DUP2 DUP7 DUP1 EXTCODESIZE ISZERO DUP1 ISZERO PUSH2 0x8F1 JUMPI PUSH1 0x0 DUP1 REVERT JUMPDEST POP GAS STATICCALL ISZERO DUP1 ISZERO PUSH2 0x905 JUMPI RETURNDATASIZE PUSH1 0x0 DUP1 RETURNDATACOPY RETURNDATASIZE PUSH1 0x0 REVERT JUMPDEST POP POP POP POP PUSH1 0x40 MLOAD RETURNDATASIZE PUSH1 0x20 DUP2 LT ISZERO PUSH2 0x91B JUMPI PUSH1 0x0 DUP1 REVERT JUMPDEST POP MLOAD SWAP1 POP JUMPDEST DUP2 DUP2 GT ISZERO PUSH2 0x92B JUMPI POP DUP1 JUMPDEST PUSH2 0x933 PUSH2 0xFB4 JUMP JUMPDEST PUSH1 0x1 PUSH1 0x1 PUSH1 0xA0 SHL SUB AND ORIGIN PUSH1 0x1 PUSH1 0x1 PUSH1 0xA0 SHL SUB AND EQ DUP1 PUSH2 0x955 JUMPI POP PUSH2 0x955 PUSH2 0xC9B JUMP JUMPDEST ISZERO PUSH2 0x97C JUMPI PUSH1 0x4 SLOAD PUSH1 0xB SLOAD PUSH2 0x977 SWAP2 PUSH1 0x1 PUSH1 0x1 PUSH1 0xA0 SHL SUB SWAP2 DUP3 AND SWAP2 AND DUP4 PUSH2 0x17E2 JUMP JUMPDEST PUSH2 0x9D1 JUMP JUMPDEST PUSH1 0x0 PUSH2 0x99F PUSH2 0x2710 PUSH2 0x999 PUSH1 0x6 SLOAD DUP6 PUSH2 0x1834 SWAP1 SWAP2 SWAP1 PUSH4 0xFFFFFFFF AND JUMP JUMPDEST SWAP1 PUSH2 0x188D JUMP JUMPDEST PUSH1 0x4 SLOAD SWAP1 SWAP2 POP PUSH2 0x9CF SWAP1 PUSH1 0x1 PUSH1 0x1 PUSH1 0xA0 SHL SUB AND PUSH2 0x9BC DUP5 DUP5 PUSH2 0x1780 JUMP JUMPDEST PUSH1 0xB SLOAD PUSH1 0x1 PUSH1 0x1 PUSH1 0xA0 SHL SUB AND SWAP2 SWAP1 PUSH2 0x17E2 JUMP JUMPDEST POP JUMPDEST POP POP JUMP JUMPDEST PUSH1 0x13 DUP2 DUP2 SLOAD DUP2 LT PUSH2 0x5AA JUMPI INVALID JUMPDEST PUSH1 0xF SLOAD DUP2 JUMP JUMPDEST PUSH2 0x9F0 PUSH2 0xFB4 JUMP JUMPDEST PUSH1 0x1 PUSH1 0x1 PUSH1 0xA0 SHL SUB AND CALLER PUSH1 0x1 PUSH1 0x1 PUSH1 0xA0 SHL SUB AND EQ DUP1 PUSH2 0xA19 JUMPI POP PUSH1 0x1 SLOAD PUSH1 0x1 PUSH1 0x1 PUSH1 0xA0 SHL SUB AND CALLER EQ JUMPDEST PUSH2 0xA55 JUMPI PUSH1 0x40 DUP1 MLOAD PUSH3 0x461BCD PUSH1 0xE5 SHL DUP2 MSTORE PUSH1 0x20 PUSH1 0x4 DUP3 ADD MSTORE PUSH1 0x8 PUSH1 0x24 DUP3 ADD MSTORE PUSH8 0x10B6B0B730B3B2B9 PUSH1 0xC1 SHL PUSH1 0x44 DUP3 ADD MSTORE SWAP1 MLOAD SWAP1 DUP2 SWAP1 SUB PUSH1 0x64 ADD SWAP1 REVERT JUMPDEST PUSH2 0xA5D PUSH2 0x18F4 JUMP JUMPDEST PUSH2 0xA65 PUSH2 0x1997 JUMP JUMPDEST PUSH2 0xA6D PUSH2 0x1187 JUMP JUMPDEST JUMP JUMPDEST PUSH2 0xA77 PUSH2 0xC9B JUMP JUMPDEST ISZERO PUSH2 0xABC JUMPI PUSH1 0x40 DUP1 MLOAD PUSH3 0x461BCD PUSH1 0xE5 SHL DUP2 MSTORE PUSH1 0x20 PUSH1 0x4 DUP3 ADD MSTORE PUSH1 0x10 PUSH1 0x24 DUP3 ADD MSTORE PUSH16 0x14185D5CD8589B194E881C185D5CD959 PUSH1 0x82 SHL PUSH1 0x44 DUP3 ADD MSTORE SWAP1 MLOAD SWAP1 DUP2 SWAP1 SUB PUSH1 0x64 ADD SWAP1 REVERT JUMPDEST CALLER ORIGIN EQ PUSH2 0xAF9 JUMPI PUSH1 0x40 DUP1 MLOAD PUSH3 0x461BCD PUSH1 0xE5 SHL DUP2 MSTORE PUSH1 0x20 PUSH1 0x4 DUP1 DUP4 ADD SWAP2 SWAP1 SWAP2 MSTORE PUSH1 0x24 DUP3 ADD MSTORE PUSH4 0x21454F41 PUSH1 0xE0 SHL PUSH1 0x44 DUP3 ADD MSTORE SWAP1 MLOAD SWAP1 DUP2 SWAP1 SUB PUSH1 0x64 ADD SWAP1 REVERT JUMPDEST PUSH1 0xE SLOAD PUSH1 0xF SLOAD PUSH1 0x40 DUP1 MLOAD PUSH4 0xC7E663B PUSH1 0xE1 SHL DUP2 MSTORE PUSH1 0x4 DUP2 ADD SWAP3 SWAP1 SWAP3 MSTORE ADDRESS PUSH1 0x24 DUP4 ADD MSTORE MLOAD PUSH1 0x1 PUSH1 0x1 PUSH1 0xA0 SHL SUB SWAP1 SWAP3 AND SWAP2 PUSH4 0x18FCCC76 SWAP2 PUSH1 0x44 DUP1 DUP3 ADD SWAP3 PUSH1 0x0 SWAP3 SWAP1 SWAP2 SWAP1 DUP3 SWAP1 SUB ADD DUP2 DUP4 DUP8 DUP1 EXTCODESIZE ISZERO DUP1 ISZERO PUSH2 0xB4F JUMPI PUSH1 0x0 DUP1 REVERT JUMPDEST POP GAS CALL ISZERO DUP1 ISZERO PUSH2 0xB63 JUMPI RETURNDATASIZE PUSH1 0x0 DUP1 RETURNDATACOPY RETURNDATASIZE PUSH1 0x0 REVERT JUMPDEST POP POP POP POP PUSH2 0xB6F PUSH2 0x1A6E JUMP JUMPDEST PUSH2 0xB77 PUSH2 0x1FC1 JUMP JUMPDEST PUSH2 0xB7F PUSH2 0x1187 JUMP JUMPDEST TIMESTAMP PUSH1 0x10 SSTORE PUSH1 0x40 MLOAD CALLER SWAP1 PUSH32 0x577A37FDB49A88D66684922C6F913DF5239B4F214B2B97C53EF8E3BBB2034CB5 SWAP1 PUSH1 0x0 SWAP1 LOG2 JUMP JUMPDEST PUSH2 0xBB8 PUSH2 0xFB4 JUMP JUMPDEST PUSH1 0x1 PUSH1 0x1 PUSH1 0xA0 SHL SUB AND CALLER PUSH1 0x1 PUSH1 0x1 PUSH1 0xA0 SHL SUB AND EQ DUP1 PUSH2 0xBE1 JUMPI POP PUSH1 0x1 SLOAD PUSH1 0x1 PUSH1 0x1 PUSH1 0xA0 SHL SUB AND CALLER EQ JUMPDEST PUSH2 0xC1D JUMPI PUSH1 0x40 DUP1 MLOAD PUSH3 0x461BCD PUSH1 0xE5 SHL DUP2 MSTORE PUSH1 0x20 PUSH1 0x4 DUP3 ADD MSTORE PUSH1 0x8 PUSH1 0x24 DUP3 ADD MSTORE PUSH8 0x10B6B0B730B3B2B9 PUSH1 0xC1 SHL PUSH1 0x44 DUP3 ADD MSTORE SWAP1 MLOAD SWAP1 DUP2 SWAP1 SUB PUSH1 0x64 ADD SWAP1 REVERT JUMPDEST PUSH2 0xC25 PUSH2 0xF22 JUMP JUMPDEST PUSH1 0xE SLOAD PUSH1 0xF SLOAD PUSH1 0x40 DUP1 MLOAD PUSH4 0x2F940C7 PUSH1 0xE4 SHL DUP2 MSTORE PUSH1 0x4 DUP2 ADD SWAP3 SWAP1 SWAP3 MSTORE ADDRESS PUSH1 0x24 DUP4 ADD MSTORE MLOAD PUSH1 0x1 PUSH1 0x1 PUSH1 0xA0 SHL SUB SWAP1 SWAP3 AND SWAP2 PUSH4 0x2F940C70 SWAP2 PUSH1 0x44 DUP1 DUP3 ADD SWAP3 PUSH1 0x0 SWAP3 SWAP1 SWAP2 SWAP1 DUP3 SWAP1 SUB ADD DUP2 DUP4 DUP8 DUP1 EXTCODESIZE ISZERO DUP1 ISZERO PUSH2 0xC7B JUMPI PUSH1 0x0 DUP1 REVERT JUMPDEST POP GAS CALL ISZERO DUP1 ISZERO PUSH2 0xC8F JUMPI RETURNDATASIZE PUSH1 0x0 DUP1 RETURNDATACOPY RETURNDATASIZE PUSH1 0x0 REVERT JUMPDEST POP POP POP POP JUMP JUMPDEST PUSH2 0x2710 DUP2 JUMP JUMPDEST PUSH1 0x0 SLOAD PUSH1 0x1 PUSH1 0xA0 SHL SWAP1 DIV PUSH1 0xFF AND SWAP1 JUMP JUMPDEST PUSH2 0xCB3 PUSH2 0x252D JUMP JUMPDEST PUSH1 0x1 PUSH1 0x1 PUSH1 0xA0 SHL SUB AND PUSH2 0xCC4 PUSH2 0xFB4 JUMP JUMPDEST PUSH1 0x1 PUSH1 0x1 PUSH1 0xA0 SHL SUB AND EQ PUSH2 0xD0D JUMPI PUSH1 0x40 DUP1 MLOAD PUSH3 0x461BCD PUSH1 0xE5 SHL DUP2 MSTORE PUSH1 0x20 PUSH1 0x4 DUP3 ADD DUP2 SWAP1 MSTORE PUSH1 0x24 DUP3 ADD MSTORE PUSH1 0x0 DUP1 MLOAD PUSH1 0x20 PUSH2 0x29CF DUP4 CODECOPY DUP2 MLOAD SWAP2 MSTORE PUSH1 0x44 DUP3 ADD MSTORE SWAP1 MLOAD SWAP1 DUP2 SWAP1 SUB PUSH1 0x64 ADD SWAP1 REVERT JUMPDEST PUSH1 0x5 DUP1 SLOAD PUSH1 0x1 PUSH1 0x1 PUSH1 0xA0 SHL SUB NOT AND PUSH1 0x1 PUSH1 0x1 PUSH1 0xA0 SHL SUB SWAP3 SWAP1 SWAP3 AND SWAP2 SWAP1 SWAP2 OR SWAP1 SSTORE JUMP JUMPDEST PUSH1 0xC SLOAD PUSH1 0x1 PUSH1 0x1 PUSH1 0xA0 SHL SUB AND DUP2 JUMP JUMPDEST PUSH2 0xD46 PUSH2 0x252D JUMP JUMPDEST PUSH1 0x1 PUSH1 0x1 PUSH1 0xA0 SHL SUB AND PUSH2 0xD57 PUSH2 0xFB4 JUMP JUMPDEST PUSH1 0x1 PUSH1 0x1 PUSH1 0xA0 SHL SUB AND EQ PUSH2 0xDA0 JUMPI PUSH1 0x40 DUP1 MLOAD PUSH3 0x461BCD PUSH1 0xE5 SHL DUP2 MSTORE PUSH1 0x20 PUSH1 0x4 DUP3 ADD DUP2 SWAP1 MSTORE PUSH1 0x24 DUP3 ADD MSTORE PUSH1 0x0 DUP1 MLOAD PUSH1 0x20 PUSH2 0x29CF DUP4 CODECOPY DUP2 MLOAD SWAP2 MSTORE PUSH1 0x44 DUP3 ADD MSTORE SWAP1 MLOAD SWAP1 DUP2 SWAP1 SUB PUSH1 0x64 ADD SWAP1 REVERT JUMPDEST PUSH1 0x4 DUP1 SLOAD PUSH1 0x1 PUSH1 0x1 PUSH1 0xA0 SHL SUB NOT AND PUSH1 0x1 PUSH1 0x1 PUSH1 0xA0 SHL SUB SWAP3 SWAP1 SWAP3 AND SWAP2 SWAP1 SWAP2 OR SWAP1 SSTORE JUMP JUMPDEST PUSH2 0xDCA PUSH2 0x252D JUMP JUMPDEST PUSH1 0x1 PUSH1 0x1 PUSH1 0xA0 SHL SUB AND PUSH2 0xDDB PUSH2 0xFB4 JUMP JUMPDEST PUSH1 0x1 PUSH1 0x1 PUSH1 0xA0 SHL SUB AND EQ PUSH2 0xE24 JUMPI PUSH1 0x40 DUP1 MLOAD PUSH3 0x461BCD PUSH1 0xE5 SHL DUP2 MSTORE PUSH1 0x20 PUSH1 0x4 DUP3 ADD DUP2 SWAP1 MSTORE PUSH1 0x24 DUP3 ADD MSTORE PUSH1 0x0 DUP1 MLOAD PUSH1 0x20 PUSH2 0x29CF DUP4 CODECOPY DUP2 MLOAD SWAP2 MSTORE PUSH1 0x44 DUP3 ADD MSTORE SWAP1 MLOAD SWAP1 DUP2 SWAP1 SUB PUSH1 0x64 ADD SWAP1 REVERT JUMPDEST PUSH1 0x0 DUP1 SLOAD PUSH1 0x40 MLOAD PUSH1 0x1 PUSH1 0x1 PUSH1 0xA0 SHL SUB SWAP1 SWAP2 AND SWAP1 PUSH32 0x8BE0079C531659141344CD1FD0A4F28419497F9722A3DAAFE3B4186F6B6457E0 SWAP1 DUP4 SWAP1 LOG3 PUSH1 0x0 DUP1 SLOAD PUSH1 0x1 PUSH1 0x1 PUSH1 0xA0 SHL SUB NOT AND SWAP1 SSTORE JUMP JUMPDEST PUSH1 0x0 PUSH2 0xE89 PUSH2 0xE7B PUSH2 0x5C4 JUMP JUMPDEST PUSH2 0xE83 PUSH2 0x109C JUMP JUMPDEST SWAP1 PUSH2 0x2531 JUMP JUMPDEST SWAP1 POP SWAP1 JUMP JUMPDEST PUSH2 0xE96 PUSH2 0xFB4 JUMP JUMPDEST PUSH1 0x1 PUSH1 0x1 PUSH1 0xA0 SHL SUB AND CALLER PUSH1 0x1 PUSH1 0x1 PUSH1 0xA0 SHL SUB AND EQ DUP1 PUSH2 0xEBF JUMPI POP PUSH1 0x1 SLOAD PUSH1 0x1 PUSH1 0x1 PUSH1 0xA0 SHL SUB AND CALLER EQ JUMPDEST PUSH2 0xEFB JUMPI PUSH1 0x40 DUP1 MLOAD PUSH3 0x461BCD PUSH1 0xE5 SHL DUP2 MSTORE PUSH1 0x20 PUSH1 0x4 DUP3 ADD MSTORE PUSH1 0x8 PUSH1 0x24 DUP3 ADD MSTORE PUSH8 0x10B6B0B730B3B2B9 PUSH1 0xC1 SHL PUSH1 0x44 DUP3 ADD MSTORE SWAP1 MLOAD SWAP1 DUP2 SWAP1 SUB PUSH1 0x64 ADD SWAP1 REVERT JUMPDEST PUSH1 0x1 DUP1 SLOAD PUSH1 0x1 PUSH1 0x1 PUSH1 0xA0 SHL SUB NOT AND PUSH1 0x1 PUSH1 0x1 PUSH1 0xA0 SHL SUB SWAP3 SWAP1 SWAP3 AND SWAP2 SWAP1 SWAP2 OR SWAP1 SSTORE JUMP JUMPDEST PUSH1 0x0 DUP2 JUMP JUMPDEST PUSH2 0xF2A PUSH2 0xFB4 JUMP JUMPDEST PUSH1 0x1 PUSH1 0x1 PUSH1 0xA0 SHL SUB AND CALLER PUSH1 0x1 PUSH1 0x1 PUSH1 0xA0 SHL SUB AND EQ DUP1 PUSH2 0xF53 JUMPI POP PUSH1 0x1 SLOAD PUSH1 0x1 PUSH1 0x1 PUSH1 0xA0 SHL SUB AND CALLER EQ JUMPDEST PUSH2 0xF8F JUMPI PUSH1 0x40 DUP1 MLOAD PUSH3 0x461BCD PUSH1 0xE5 SHL DUP2 MSTORE PUSH1 0x20 PUSH1 0x4 DUP3 ADD MSTORE PUSH1 0x8 PUSH1 0x24 DUP3 ADD MSTORE PUSH8 0x10B6B0B730B3B2B9 PUSH1 0xC1 SHL PUSH1 0x44 DUP3 ADD MSTORE SWAP1 MLOAD SWAP1 DUP2 SWAP1 SUB PUSH1 0x64 ADD SWAP1 REVERT JUMPDEST PUSH2 0xF97 PUSH2 0x258B JUMP JUMPDEST PUSH2 0xA6D PUSH2 0x2614 JUMP JUMPDEST PUSH1 0xD SLOAD PUSH1 0x1 PUSH1 0x1 PUSH1 0xA0 SHL SUB AND DUP2 JUMP JUMPDEST PUSH1 0x6 SLOAD DUP2 JUMP JUMPDEST PUSH1 0x0 SLOAD PUSH1 0x1 PUSH1 0x1 PUSH1 0xA0 SHL SUB AND SWAP1 JUMP JUMPDEST PUSH1 0x7 SLOAD DUP2 JUMP JUMPDEST PUSH2 0xFD1 PUSH2 0xFB4 JUMP JUMPDEST PUSH1 0x1 PUSH1 0x1 PUSH1 0xA0 SHL SUB AND CALLER PUSH1 0x1 PUSH1 0x1 PUSH1 0xA0 SHL SUB AND EQ DUP1 PUSH2 0xFFA JUMPI POP PUSH1 0x1 SLOAD PUSH1 0x1 PUSH1 0x1 PUSH1 0xA0 SHL SUB AND CALLER EQ JUMPDEST PUSH2 0x1036 JUMPI PUSH1 0x40 DUP1 MLOAD PUSH3 0x461BCD PUSH1 0xE5 SHL DUP2 MSTORE PUSH1 0x20 PUSH1 0x4 DUP3 ADD MSTORE PUSH1 0x8 PUSH1 0x24 DUP3 ADD MSTORE PUSH8 0x10B6B0B730B3B2B9 PUSH1 0xC1 SHL PUSH1 0x44 DUP3 ADD MSTORE SWAP1 MLOAD SWAP1 DUP2 SWAP1 SUB PUSH1 0x64 ADD SWAP1 REVERT JUMPDEST PUSH1 0x32 DUP2 GT ISZERO PUSH2 0x1075 JUMPI PUSH1 0x40 DUP1 MLOAD PUSH3 0x461BCD PUSH1 0xE5 SHL DUP2 MSTORE PUSH1 0x20 PUSH1 0x4 DUP1 DUP4 ADD SWAP2 SWAP1 SWAP2 MSTORE PUSH1 0x24 DUP3 ADD MSTORE PUSH4 0x2163617 PUSH1 0xE4 SHL PUSH1 0x44 DUP3 ADD MSTORE SWAP1 MLOAD SWAP1 DUP2 SWAP1 SUB PUSH1 0x64 ADD SWAP1 REVERT JUMPDEST PUSH1 0x6 SSTORE JUMP JUMPDEST PUSH1 0x1 SLOAD PUSH1 0x1 PUSH1 0x1 PUSH1 0xA0 SHL SUB AND DUP2 JUMP JUMPDEST PUSH2 0x3E8 DUP2 JUMP JUMPDEST PUSH1 0x11 DUP2 DUP2 SLOAD DUP2 LT PUSH2 0x5AA JUMPI INVALID JUMPDEST PUSH1 0xB SLOAD PUSH1 0x40 DUP1 MLOAD PUSH4 0x70A08231 PUSH1 0xE0 SHL DUP2 MSTORE ADDRESS PUSH1 0x4 DUP3 ADD MSTORE SWAP1 MLOAD PUSH1 0x0 SWAP3 PUSH1 0x1 PUSH1 0x1 PUSH1 0xA0 SHL SUB AND SWAP2 PUSH4 0x70A08231 SWAP2 PUSH1 0x24 DUP1 DUP4 ADD SWAP3 PUSH1 0x20 SWAP3 SWAP2 SWAP1 DUP3 SWAP1 SUB ADD DUP2 DUP7 DUP1 EXTCODESIZE ISZERO DUP1 ISZERO PUSH2 0x10E7 JUMPI PUSH1 0x0 DUP1 REVERT JUMPDEST POP GAS STATICCALL ISZERO DUP1 ISZERO PUSH2 0x10FB JUMPI RETURNDATASIZE PUSH1 0x0 DUP1 RETURNDATACOPY RETURNDATASIZE PUSH1 0x0 REVERT JUMPDEST POP POP POP POP PUSH1 0x40 MLOAD RETURNDATASIZE PUSH1 0x20 DUP2 LT ISZERO PUSH2 0x1111 JUMPI PUSH1 0x0 DUP1 REVERT JUMPDEST POP MLOAD SWAP1 POP SWAP1 JUMP JUMPDEST PUSH1 0x2 SLOAD PUSH1 0x1 PUSH1 0x1 PUSH1 0xA0 SHL SUB AND CALLER EQ PUSH2 0x1165 JUMPI PUSH1 0x40 DUP1 MLOAD PUSH3 0x461BCD PUSH1 0xE5 SHL DUP2 MSTORE PUSH1 0x20 PUSH1 0x4 DUP3 ADD MSTORE PUSH1 0xB PUSH1 0x24 DUP3 ADD MSTORE PUSH11 0x85CDD1C985D1959DA5CDD PUSH1 0xAA SHL PUSH1 0x44 DUP3 ADD MSTORE SWAP1 MLOAD SWAP1 DUP2 SWAP1 SUB PUSH1 0x64 ADD SWAP1 REVERT JUMPDEST PUSH1 0x2 DUP1 SLOAD PUSH1 0x1 PUSH1 0x1 PUSH1 0xA0 SHL SUB NOT AND PUSH1 0x1 PUSH1 0x1 PUSH1 0xA0 SHL SUB SWAP3 SWAP1 SWAP3 AND SWAP2 SWAP1 SWAP2 OR SWAP1 SSTORE JUMP JUMPDEST PUSH2 0x118F PUSH2 0xC9B JUMP JUMPDEST ISZERO PUSH2 0x11D4 JUMPI PUSH1 0x40 DUP1 MLOAD PUSH3 0x461BCD PUSH1 0xE5 SHL DUP2 MSTORE PUSH1 0x20 PUSH1 0x4 DUP3 ADD MSTORE PUSH1 0x10 PUSH1 0x24 DUP3 ADD MSTORE PUSH16 0x14185D5CD8589B194E881C185D5CD959 PUSH1 0x82 SHL PUSH1 0x44 DUP3 ADD MSTORE SWAP1 MLOAD SWAP1 DUP2 SWAP1 SUB PUSH1 0x64 ADD SWAP1 REVERT JUMPDEST PUSH1 0xB SLOAD PUSH1 0x40 DUP1 MLOAD PUSH4 0x70A08231 PUSH1 0xE0 SHL DUP2 MSTORE ADDRESS PUSH1 0x4 DUP3 ADD MSTORE SWAP1 MLOAD PUSH1 0x0 SWAP3 PUSH1 0x1 PUSH1 0x1 PUSH1 0xA0 SHL SUB AND SWAP2 PUSH4 0x70A08231 SWAP2 PUSH1 0x24 DUP1 DUP4 ADD SWAP3 PUSH1 0x20 SWAP3 SWAP2 SWAP1 DUP3 SWAP1 SUB ADD DUP2 DUP7 DUP1 EXTCODESIZE ISZERO DUP1 ISZERO PUSH2 0x121F JUMPI PUSH1 0x0 DUP1 REVERT JUMPDEST POP GAS STATICCALL ISZERO DUP1 ISZERO PUSH2 0x1233 JUMPI RETURNDATASIZE PUSH1 0x0 DUP1 RETURNDATACOPY RETURNDATASIZE PUSH1 0x0 REVERT JUMPDEST POP POP POP POP PUSH1 0x40 MLOAD RETURNDATASIZE PUSH1 0x20 DUP2 LT ISZERO PUSH2 0x1249 JUMPI PUSH1 0x0 DUP1 REVERT JUMPDEST POP MLOAD SWAP1 POP DUP1 ISZERO PUSH2 0x12C9 JUMPI PUSH1 0xE SLOAD PUSH1 0xF SLOAD PUSH1 0x40 DUP1 MLOAD PUSH4 0x8DBDBE6D PUSH1 0xE0 SHL DUP2 MSTORE PUSH1 0x4 DUP2 ADD SWAP3 SWAP1 SWAP3 MSTORE PUSH1 0x24 DUP3 ADD DUP5 SWAP1 MSTORE ADDRESS PUSH1 0x44 DUP4 ADD MSTORE MLOAD PUSH1 0x1 PUSH1 0x1 PUSH1 0xA0 SHL SUB SWAP1 SWAP3 AND SWAP2 PUSH4 0x8DBDBE6D SWAP2 PUSH1 0x64 DUP1 DUP3 ADD SWAP3 PUSH1 0x0 SWAP3 SWAP1 SWAP2 SWAP1 DUP3 SWAP1 SUB ADD DUP2 DUP4 DUP8 DUP1 EXTCODESIZE ISZERO DUP1 ISZERO PUSH2 0x12B0 JUMPI PUSH1 0x0 DUP1 REVERT JUMPDEST POP GAS CALL ISZERO DUP1 ISZERO PUSH2 0x12C4 JUMPI RETURNDATASIZE PUSH1 0x0 DUP1 RETURNDATACOPY RETURNDATASIZE PUSH1 0x0 REVERT JUMPDEST POP POP POP POP JUMPDEST POP JUMP JUMPDEST PUSH2 0x12D4 PUSH2 0x252D JUMP JUMPDEST PUSH1 0x1 PUSH1 0x1 PUSH1 0xA0 SHL SUB AND PUSH2 0x12E5 PUSH2 0xFB4 JUMP JUMPDEST PUSH1 0x1 PUSH1 0x1 PUSH1 0xA0 SHL SUB AND EQ PUSH2 0x132E JUMPI PUSH1 0x40 DUP1 MLOAD PUSH3 0x461BCD PUSH1 0xE5 SHL DUP2 MSTORE PUSH1 0x20 PUSH1 0x4 DUP3 ADD DUP2 SWAP1 MSTORE PUSH1 0x24 DUP3 ADD MSTORE PUSH1 0x0 DUP1 MLOAD PUSH1 0x20 PUSH2 0x29CF DUP4 CODECOPY DUP2 MLOAD SWAP2 MSTORE PUSH1 0x44 DUP3 ADD MSTORE SWAP1 MLOAD SWAP1 DUP2 SWAP1 SUB PUSH1 0x64 ADD SWAP1 REVERT JUMPDEST PUSH1 0x3 DUP1 SLOAD PUSH1 0x1 PUSH1 0x1 PUSH1 0xA0 SHL SUB NOT AND PUSH1 0x1 PUSH1 0x1 PUSH1 0xA0 SHL SUB SWAP3 SWAP1 SWAP3 AND SWAP2 SWAP1 SWAP2 OR SWAP1 SSTORE JUMP JUMPDEST PUSH1 0x32 DUP2 JUMP JUMPDEST PUSH1 0x5 SLOAD PUSH1 0x1 PUSH1 0x1 PUSH1 0xA0 SHL SUB AND DUP2 JUMP JUMPDEST PUSH1 0x10 SLOAD DUP2 JUMP JUMPDEST PUSH1 0xA SLOAD PUSH1 0x1 PUSH1 0x1 PUSH1 0xA0 SHL SUB AND DUP2 JUMP JUMPDEST PUSH2 0x1381 PUSH2 0x252D JUMP JUMPDEST PUSH1 0x1 PUSH1 0x1 PUSH1 0xA0 SHL SUB AND PUSH2 0x1392 PUSH2 0xFB4 JUMP JUMPDEST PUSH1 0x1 PUSH1 0x1 PUSH1 0xA0 SHL SUB AND EQ PUSH2 0x13DB JUMPI PUSH1 0x40 DUP1 MLOAD PUSH3 0x461BCD PUSH1 0xE5 SHL DUP2 MSTORE PUSH1 0x20 PUSH1 0x4 DUP3 ADD DUP2 SWAP1 MSTORE PUSH1 0x24 DUP3 ADD MSTORE PUSH1 0x0 DUP1 MLOAD PUSH1 0x20 PUSH2 0x29CF DUP4 CODECOPY DUP2 MLOAD SWAP2 MSTORE PUSH1 0x44 DUP3 ADD MSTORE SWAP1 MLOAD SWAP1 DUP2 SWAP1 SUB PUSH1 0x64 ADD SWAP1 REVERT JUMPDEST PUSH1 0x1 PUSH1 0x1 PUSH1 0xA0 SHL SUB DUP2 AND PUSH2 0x1420 JUMPI PUSH1 0x40 MLOAD PUSH3 0x461BCD PUSH1 0xE5 SHL DUP2 MSTORE PUSH1 0x4 ADD DUP1 DUP1 PUSH1 0x20 ADD DUP3 DUP2 SUB DUP3 MSTORE PUSH1 0x26 DUP2 MSTORE PUSH1 0x20 ADD DUP1 PUSH2 0x2962 PUSH1 0x26 SWAP2 CODECOPY PUSH1 0x40 ADD SWAP2 POP POP PUSH1 0x40 MLOAD DUP1 SWAP2 SUB SWAP1 REVERT JUMPDEST PUSH1 0x0 DUP1 SLOAD PUSH1 0x40 MLOAD PUSH1 0x1 PUSH1 0x1 PUSH1 0xA0 SHL SUB DUP1 DUP6 AND SWAP4 SWAP3 AND SWAP2 PUSH32 0x8BE0079C531659141344CD1FD0A4F28419497F9722A3DAAFE3B4186F6B6457E0 SWAP2 LOG3 PUSH1 0x0 DUP1 SLOAD PUSH1 0x1 PUSH1 0x1 PUSH1 0xA0 SHL SUB NOT AND PUSH1 0x1 PUSH1 0x1 PUSH1 0xA0 SHL SUB SWAP3 SWAP1 SWAP3 AND SWAP2 SWAP1 SWAP2 OR SWAP1 SSTORE JUMP JUMPDEST PUSH1 0x4 SLOAD PUSH1 0x1 PUSH1 0x1 PUSH1 0xA0 SHL SUB AND CALLER EQ PUSH2 0x14C3 JUMPI PUSH1 0x40 DUP1 MLOAD PUSH3 0x461BCD PUSH1 0xE5 SHL DUP2 MSTORE PUSH1 0x20 PUSH1 0x4 DUP3 ADD MSTORE PUSH1 0x6 PUSH1 0x24 DUP3 ADD MSTORE PUSH6 0x85D985D5B1D PUSH1 0xD2 SHL PUSH1 0x44 DUP3 ADD MSTORE SWAP1 MLOAD SWAP1 DUP2 SWAP1 SUB PUSH1 0x64 ADD SWAP1 REVERT JUMPDEST PUSH1 0xE SLOAD PUSH1 0xF SLOAD PUSH1 0x40 DUP1 MLOAD PUSH4 0x2F940C7 PUSH1 0xE4 SHL DUP2 MSTORE PUSH1 0x4 DUP2 ADD SWAP3 SWAP1 SWAP3 MSTORE ADDRESS PUSH1 0x24 DUP4 ADD MSTORE MLOAD PUSH1 0x1 PUSH1 0x1 PUSH1 0xA0 SHL SUB SWAP1 SWAP3 AND SWAP2 PUSH4 0x2F940C70 SWAP2 PUSH1 0x44 DUP1 DUP3 ADD SWAP3 PUSH1 0x0 SWAP3 SWAP1 SWAP2 SWAP1 DUP3 SWAP1 SUB ADD DUP2 DUP4 DUP8 DUP1 EXTCODESIZE ISZERO DUP1 ISZERO PUSH2 0x1519 JUMPI PUSH1 0x0 DUP1 REVERT JUMPDEST POP GAS CALL ISZERO DUP1 ISZERO PUSH2 0x152D JUMPI RETURNDATASIZE PUSH1 0x0 DUP1 RETURNDATACOPY RETURNDATASIZE PUSH1 0x0 REVERT JUMPDEST POP POP PUSH1 0xB SLOAD PUSH1 0x40 DUP1 MLOAD PUSH4 0x70A08231 PUSH1 0xE0 SHL DUP2 MSTORE ADDRESS PUSH1 0x4 DUP3 ADD MSTORE SWAP1 MLOAD PUSH1 0x0 SWAP5 POP PUSH1 0x1 PUSH1 0x1 PUSH1 0xA0 SHL SUB SWAP1 SWAP3 AND SWAP3 POP PUSH4 0x70A08231 SWAP2 PUSH1 0x24 DUP1 DUP4 ADD SWAP3 PUSH1 0x20 SWAP3 SWAP2 SWAP1 DUP3 SWAP1 SUB ADD DUP2 DUP7 DUP1 EXTCODESIZE ISZERO DUP1 ISZERO PUSH2 0x157E JUMPI PUSH1 0x0 DUP1 REVERT JUMPDEST POP GAS STATICCALL ISZERO DUP1 ISZERO PUSH2 0x1592 JUMPI RETURNDATASIZE PUSH1 0x0 DUP1 RETURNDATACOPY RETURNDATASIZE PUSH1 0x0 REVERT JUMPDEST POP POP POP POP PUSH1 0x40 MLOAD RETURNDATASIZE PUSH1 0x20 DUP2 LT ISZERO PUSH2 0x15A8 JUMPI PUSH1 0x0 DUP1 REVERT JUMPDEST POP MLOAD PUSH1 0xB SLOAD PUSH1 0x4 DUP1 SLOAD PUSH1 0x40 DUP1 MLOAD PUSH4 0xA9059CBB PUSH1 0xE0 SHL DUP2 MSTORE PUSH1 0x1 PUSH1 0x1 PUSH1 0xA0 SHL SUB SWAP3 DUP4 AND SWAP4 DUP2 ADD SWAP4 SWAP1 SWAP4 MSTORE PUSH1 0x24 DUP4 ADD DUP6 SWAP1 MSTORE MLOAD SWAP4 SWAP5 POP SWAP1 SWAP2 AND SWAP2 PUSH4 0xA9059CBB SWAP2 PUSH1 0x44 DUP1 DUP3 ADD SWAP3 PUSH1 0x20 SWAP3 SWAP1 SWAP2 SWAP1 DUP3 SWAP1 SUB ADD DUP2 PUSH1 0x0 DUP8 DUP1 EXTCODESIZE ISZERO DUP1 ISZERO PUSH2 0x1608 JUMPI PUSH1 0x0 DUP1 REVERT JUMPDEST POP GAS CALL ISZERO DUP1 ISZERO PUSH2 0x161C JUMPI RETURNDATASIZE PUSH1 0x0 DUP1 RETURNDATACOPY RETURNDATASIZE PUSH1 0x0 REVERT JUMPDEST POP POP POP POP PUSH1 0x40 MLOAD RETURNDATASIZE PUSH1 0x20 DUP2 LT ISZERO PUSH2 0x9CF JUMPI PUSH1 0x0 DUP1 REVERT JUMPDEST PUSH1 0x4 SLOAD PUSH1 0x1 PUSH1 0x1 PUSH1 0xA0 SHL SUB AND DUP2 JUMP JUMPDEST PUSH1 0x8 SLOAD DUP2 JUMP JUMPDEST PUSH1 0x14 DUP2 DUP2 SLOAD DUP2 LT PUSH2 0x5AA JUMPI INVALID JUMPDEST DUP1 ISZERO DUP1 PUSH2 0x16DA JUMPI POP PUSH1 0x40 DUP1 MLOAD PUSH4 0x6EB1769F PUSH1 0xE1 SHL DUP2 MSTORE ADDRESS PUSH1 0x4 DUP3 ADD MSTORE PUSH1 0x1 PUSH1 0x1 PUSH1 0xA0 SHL SUB DUP5 DUP2 AND PUSH1 0x24 DUP4 ADD MSTORE SWAP2 MLOAD SWAP2 DUP6 AND SWAP2 PUSH4 0xDD62ED3E SWAP2 PUSH1 0x44 DUP1 DUP3 ADD SWAP3 PUSH1 0x20 SWAP3 SWAP1 SWAP2 SWAP1 DUP3 SWAP1 SUB ADD DUP2 DUP7 DUP1 EXTCODESIZE ISZERO DUP1 ISZERO PUSH2 0x16AC JUMPI PUSH1 0x0 DUP1 REVERT JUMPDEST POP GAS STATICCALL ISZERO DUP1 ISZERO PUSH2 0x16C0 JUMPI RETURNDATASIZE PUSH1 0x0 DUP1 RETURNDATACOPY RETURNDATASIZE PUSH1 0x0 REVERT JUMPDEST POP POP POP POP PUSH1 0x40 MLOAD RETURNDATASIZE PUSH1 0x20 DUP2 LT ISZERO PUSH2 0x16D6 JUMPI PUSH1 0x0 DUP1 REVERT JUMPDEST POP MLOAD ISZERO JUMPDEST PUSH2 0x1715 JUMPI PUSH1 0x40 MLOAD PUSH3 0x461BCD PUSH1 0xE5 SHL DUP2 MSTORE PUSH1 0x4 ADD DUP1 DUP1 PUSH1 0x20 ADD DUP3 DUP2 SUB DUP3 MSTORE PUSH1 0x36 DUP2 MSTORE PUSH1 0x20 ADD DUP1 PUSH2 0x2A19 PUSH1 0x36 SWAP2 CODECOPY PUSH1 0x40 ADD SWAP2 POP POP PUSH1 0x40 MLOAD DUP1 SWAP2 SUB SWAP1 REVERT JUMPDEST PUSH1 0x40 DUP1 MLOAD PUSH1 0x1 PUSH1 0x1 PUSH1 0xA0 SHL SUB DUP5 AND PUSH1 0x24 DUP3 ADD MSTORE PUSH1 0x44 DUP1 DUP3 ADD DUP5 SWAP1 MSTORE DUP3 MLOAD DUP1 DUP4 SUB SWAP1 SWAP2 ADD DUP2 MSTORE PUSH1 0x64 SWAP1 SWAP2 ADD SWAP1 SWAP2 MSTORE PUSH1 0x20 DUP2 ADD DUP1 MLOAD PUSH1 0x1 PUSH1 0x1 PUSH1 0xE0 SHL SUB AND PUSH4 0x95EA7B3 PUSH1 0xE0 SHL OR SWAP1 MSTORE PUSH2 0x9CF SWAP1 DUP5 SWAP1 PUSH2 0x26AA JUMP JUMPDEST PUSH1 0x60 PUSH2 0x1776 DUP5 DUP5 PUSH1 0x0 DUP6 PUSH2 0x275B JUMP JUMPDEST SWAP1 POP JUMPDEST SWAP4 SWAP3 POP POP POP JUMP JUMPDEST PUSH1 0x0 DUP3 DUP3 GT ISZERO PUSH2 0x17D7 JUMPI PUSH1 0x40 DUP1 MLOAD PUSH3 0x461BCD PUSH1 0xE5 SHL DUP2 MSTORE PUSH1 0x20 PUSH1 0x4 DUP3 ADD MSTORE PUSH1 0x1E PUSH1 0x24 DUP3 ADD MSTORE PUSH32 0x536166654D6174683A207375627472616374696F6E206F766572666C6F770000 PUSH1 0x44 DUP3 ADD MSTORE SWAP1 MLOAD SWAP1 DUP2 SWAP1 SUB PUSH1 0x64 ADD SWAP1 REVERT JUMPDEST POP DUP1 DUP3 SUB JUMPDEST SWAP3 SWAP2 POP POP JUMP JUMPDEST PUSH1 0x40 DUP1 MLOAD PUSH1 0x1 PUSH1 0x1 PUSH1 0xA0 SHL SUB DUP5 AND PUSH1 0x24 DUP3 ADD MSTORE PUSH1 0x44 DUP1 DUP3 ADD DUP5 SWAP1 MSTORE DUP3 MLOAD DUP1 DUP4 SUB SWAP1 SWAP2 ADD DUP2 MSTORE PUSH1 0x64 SWAP1 SWAP2 ADD SWAP1 SWAP2 MSTORE PUSH1 0x20 DUP2 ADD DUP1 MLOAD PUSH1 0x1 PUSH1 0x1 PUSH1 0xE0 SHL SUB AND PUSH4 0xA9059CBB PUSH1 0xE0 SHL OR SWAP1 MSTORE PUSH2 0x9CF SWAP1 DUP5 SWAP1 PUSH2 0x26AA JUMP JUMPDEST PUSH1 0x0 DUP3 PUSH2 0x1843 JUMPI POP PUSH1 0x0 PUSH2 0x17DC JUMP JUMPDEST DUP3 DUP3 MUL DUP3 DUP5 DUP3 DUP2 PUSH2 0x1850 JUMPI INVALID JUMPDEST DIV EQ PUSH2 0x1779 JUMPI PUSH1 0x40 MLOAD PUSH3 0x461BCD PUSH1 0xE5 SHL DUP2 MSTORE PUSH1 0x4 ADD DUP1 DUP1 PUSH1 0x20 ADD DUP3 DUP2 SUB DUP3 MSTORE PUSH1 0x21 DUP2 MSTORE PUSH1 0x20 ADD DUP1 PUSH2 0x29AE PUSH1 0x21 SWAP2 CODECOPY PUSH1 0x40 ADD SWAP2 POP POP PUSH1 0x40 MLOAD DUP1 SWAP2 SUB SWAP1 REVERT JUMPDEST PUSH1 0x0 DUP1 DUP3 GT PUSH2 0x18E3 JUMPI PUSH1 0x40 DUP1 MLOAD PUSH3 0x461BCD PUSH1 0xE5 SHL DUP2 MSTORE PUSH1 0x20 PUSH1 0x4 DUP3 ADD MSTORE PUSH1 0x1A PUSH1 0x24 DUP3 ADD MSTORE PUSH32 0x536166654D6174683A206469766973696F6E206279207A65726F000000000000 PUSH1 0x44 DUP3 ADD MSTORE SWAP1 MLOAD SWAP1 DUP2 SWAP1 SUB PUSH1 0x64 ADD SWAP1 REVERT JUMPDEST DUP2 DUP4 DUP2 PUSH2 0x18EC JUMPI INVALID JUMPDEST DIV SWAP4 SWAP3 POP POP POP JUMP JUMPDEST PUSH2 0x18FC PUSH2 0xC9B JUMP JUMPDEST PUSH2 0x1944 JUMPI PUSH1 0x40 DUP1 MLOAD PUSH3 0x461BCD PUSH1 0xE5 SHL DUP2 MSTORE PUSH1 0x20 PUSH1 0x4 DUP3 ADD MSTORE PUSH1 0x14 PUSH1 0x24 DUP3 ADD MSTORE PUSH20 0x14185D5CD8589B194E881B9BDD081C185D5CD959 PUSH1 0x62 SHL PUSH1 0x44 DUP3 ADD MSTORE SWAP1 MLOAD SWAP1 DUP2 SWAP1 SUB PUSH1 0x64 ADD SWAP1 REVERT JUMPDEST PUSH1 0x0 DUP1 SLOAD PUSH1 0xFF PUSH1 0xA0 SHL NOT AND SWAP1 SSTORE PUSH32 0x5DB9EE0A495BF2E6FF9C91A7834C1BA4FDD244A5E8AA4E537BD38AEAE4B073AA PUSH2 0x197A PUSH2 0x252D JUMP JUMPDEST PUSH1 0x40 DUP1 MLOAD PUSH1 0x1 PUSH1 0x1 PUSH1 0xA0 SHL SUB SWAP1 SWAP3 AND DUP3 MSTORE MLOAD SWAP1 DUP2 SWAP1 SUB PUSH1 0x20 ADD SWAP1 LOG1 JUMP JUMPDEST PUSH1 0xE SLOAD PUSH1 0xB SLOAD PUSH2 0x19B6 SWAP2 PUSH1 0x1 PUSH1 0x1 PUSH1 0xA0 SHL SUB SWAP2 DUP3 AND SWAP2 AND PUSH1 0x0 NOT PUSH2 0x1654 JUMP JUMPDEST PUSH1 0x3 SLOAD PUSH1 0xA SLOAD PUSH2 0x19D5 SWAP2 PUSH1 0x1 PUSH1 0x1 PUSH1 0xA0 SHL SUB SWAP2 DUP3 AND SWAP2 AND PUSH1 0x0 NOT PUSH2 0x1654 JUMP JUMPDEST PUSH1 0x3 SLOAD PUSH1 0x9 SLOAD PUSH2 0x19F4 SWAP2 PUSH1 0x1 PUSH1 0x1 PUSH1 0xA0 SHL SUB SWAP2 DUP3 AND SWAP2 AND PUSH1 0x0 NOT PUSH2 0x1654 JUMP JUMPDEST PUSH1 0x3 SLOAD PUSH1 0xC SLOAD PUSH2 0x1A12 SWAP2 PUSH1 0x1 PUSH1 0x1 PUSH1 0xA0 SHL SUB SWAP2 DUP3 AND SWAP2 AND PUSH1 0x0 PUSH2 0x1654 JUMP JUMPDEST PUSH1 0x3 SLOAD PUSH1 0xC SLOAD PUSH2 0x1A31 SWAP2 PUSH1 0x1 PUSH1 0x1 PUSH1 0xA0 SHL SUB SWAP2 DUP3 AND SWAP2 AND PUSH1 0x0 NOT PUSH2 0x1654 JUMP JUMPDEST PUSH1 0x3 SLOAD PUSH1 0xD SLOAD PUSH2 0x1A4F SWAP2 PUSH1 0x1 PUSH1 0x1 PUSH1 0xA0 SHL SUB SWAP2 DUP3 AND SWAP2 AND PUSH1 0x0 PUSH2 0x1654 JUMP JUMPDEST PUSH1 0x3 SLOAD PUSH1 0xD SLOAD PUSH2 0xA6D SWAP2 PUSH1 0x1 PUSH1 0x1 PUSH1 0xA0 SHL SUB SWAP2 DUP3 AND SWAP2 AND PUSH1 0x0 NOT PUSH2 0x1654 JUMP JUMPDEST PUSH1 0x9 SLOAD PUSH1 0x40 DUP1 MLOAD PUSH4 0x70A08231 PUSH1 0xE0 SHL DUP2 MSTORE ADDRESS PUSH1 0x4 DUP3 ADD MSTORE SWAP1 MLOAD PUSH1 0x0 SWAP3 PUSH1 0x1 PUSH1 0x1 PUSH1 0xA0 SHL SUB AND SWAP2 PUSH4 0x70A08231 SWAP2 PUSH1 0x24 DUP1 DUP4 ADD SWAP3 PUSH1 0x20 SWAP3 SWAP2 SWAP1 DUP3 SWAP1 SUB ADD DUP2 DUP7 DUP1 EXTCODESIZE ISZERO DUP1 ISZERO PUSH2 0x1AB9 JUMPI PUSH1 0x0 DUP1 REVERT JUMPDEST POP GAS STATICCALL ISZERO DUP1 ISZERO PUSH2 0x1ACD JUMPI RETURNDATASIZE PUSH1 0x0 DUP1 RETURNDATACOPY RETURNDATASIZE PUSH1 0x0 REVERT JUMPDEST POP POP POP POP PUSH1 0x40 MLOAD RETURNDATASIZE PUSH1 0x20 DUP2 LT ISZERO PUSH2 0x1AE3 JUMPI PUSH1 0x0 DUP1 REVERT JUMPDEST POP MLOAD SWAP1 POP DUP1 ISZERO PUSH2 0x1C74 JUMPI PUSH1 0x3 SLOAD PUSH1 0x40 MLOAD PUSH4 0x38ED1739 PUSH1 0xE0 SHL DUP2 MSTORE PUSH1 0x4 DUP2 ADD DUP4 DUP2 MSTORE PUSH1 0x0 PUSH1 0x24 DUP4 ADD DUP2 SWAP1 MSTORE ADDRESS PUSH1 0x64 DUP5 ADD DUP2 SWAP1 MSTORE TIMESTAMP PUSH1 0x84 DUP6 ADD DUP2 SWAP1 MSTORE PUSH1 0xA0 PUSH1 0x44 DUP7 ADD SWAP1 DUP2 MSTORE PUSH1 0x12 DUP1 SLOAD PUSH1 0xA4 DUP9 ADD DUP2 SWAP1 MSTORE PUSH1 0x1 PUSH1 0x1 PUSH1 0xA0 SHL SUB SWAP1 SWAP9 AND SWAP8 PUSH4 0x38ED1739 SWAP8 DUP11 SWAP8 SWAP3 SWAP6 SWAP5 SWAP4 SWAP2 PUSH1 0xC4 SWAP1 SWAP2 ADD SWAP1 DUP7 SWAP1 DUP1 ISZERO PUSH2 0x1B87 JUMPI PUSH1 0x20 MUL DUP3 ADD SWAP2 SWAP1 PUSH1 0x0 MSTORE PUSH1 0x20 PUSH1 0x0 KECCAK256 SWAP1 JUMPDEST DUP2 SLOAD PUSH1 0x1 PUSH1 0x1 PUSH1 0xA0 SHL SUB AND DUP2 MSTORE PUSH1 0x1 SWAP1 SWAP2 ADD SWAP1 PUSH1 0x20 ADD DUP1 DUP4 GT PUSH2 0x1B69 JUMPI JUMPDEST POP POP SWAP7 POP POP POP POP POP POP POP PUSH1 0x0 PUSH1 0x40 MLOAD DUP1 DUP4 SUB DUP2 PUSH1 0x0 DUP8 DUP1 EXTCODESIZE ISZERO DUP1 ISZERO PUSH2 0x1BAB JUMPI PUSH1 0x0 DUP1 REVERT JUMPDEST POP GAS CALL ISZERO DUP1 ISZERO PUSH2 0x1BBF JUMPI RETURNDATASIZE PUSH1 0x0 DUP1 RETURNDATACOPY RETURNDATASIZE PUSH1 0x0 REVERT JUMPDEST POP POP POP POP PUSH1 0x40 MLOAD RETURNDATASIZE PUSH1 0x0 DUP3 RETURNDATACOPY PUSH1 0x1F RETURNDATASIZE SWAP1 DUP2 ADD PUSH1 0x1F NOT AND DUP3 ADD PUSH1 0x40 MSTORE PUSH1 0x20 DUP2 LT ISZERO PUSH2 0x1BE8 JUMPI PUSH1 0x0 DUP1 REVERT JUMPDEST DUP2 ADD SWAP1 DUP1 DUP1 MLOAD PUSH1 0x40 MLOAD SWAP4 SWAP3 SWAP2 SWAP1 DUP5 PUSH1 0x1 PUSH1 0x20 SHL DUP3 GT ISZERO PUSH2 0x1C07 JUMPI PUSH1 0x0 DUP1 REVERT JUMPDEST SWAP1 DUP4 ADD SWAP1 PUSH1 0x20 DUP3 ADD DUP6 DUP2 GT ISZERO PUSH2 0x1C1C JUMPI PUSH1 0x0 DUP1 REVERT JUMPDEST DUP3 MLOAD DUP7 PUSH1 0x20 DUP3 MUL DUP4 ADD GT PUSH1 0x1 PUSH1 0x20 SHL DUP3 GT OR ISZERO PUSH2 0x1C38 JUMPI PUSH1 0x0 DUP1 REVERT JUMPDEST DUP3 MSTORE POP DUP2 MLOAD PUSH1 0x20 SWAP2 DUP3 ADD SWAP3 DUP3 ADD SWAP2 MUL DUP1 DUP4 DUP4 PUSH1 0x0 JUMPDEST DUP4 DUP2 LT ISZERO PUSH2 0x1C65 JUMPI DUP2 DUP2 ADD MLOAD DUP4 DUP3 ADD MSTORE PUSH1 0x20 ADD PUSH2 0x1C4D JUMP JUMPDEST POP POP POP POP SWAP1 POP ADD PUSH1 0x40 MSTORE POP POP POP POP JUMPDEST PUSH1 0xA SLOAD PUSH1 0x40 DUP1 MLOAD PUSH4 0x70A08231 PUSH1 0xE0 SHL DUP2 MSTORE ADDRESS PUSH1 0x4 DUP3 ADD MSTORE SWAP1 MLOAD PUSH1 0x0 SWAP3 PUSH2 0x1D03 SWAP3 PUSH2 0x3E8 SWAP3 PUSH2 0x999 SWAP3 PUSH1 0x1E SWAP3 PUSH1 0x1 PUSH1 0x1 PUSH1 0xA0 SHL SUB SWAP1 SWAP2 AND SWAP2 PUSH4 0x70A08231 SWAP2 PUSH1 0x24 DUP1 DUP3 ADD SWAP3 PUSH1 0x20 SWAP3 SWAP1 SWAP2 SWAP1 DUP3 SWAP1 SUB ADD DUP2 DUP7 DUP1 EXTCODESIZE ISZERO DUP1 ISZERO PUSH2 0x1CD1 JUMPI PUSH1 0x0 DUP1 REVERT JUMPDEST POP GAS STATICCALL ISZERO DUP1 ISZERO PUSH2 0x1CE5 JUMPI RETURNDATASIZE PUSH1 0x0 DUP1 RETURNDATACOPY RETURNDATASIZE PUSH1 0x0 REVERT JUMPDEST POP POP POP POP PUSH1 0x40 MLOAD RETURNDATASIZE PUSH1 0x20 DUP2 LT ISZERO PUSH2 0x1CFB JUMPI PUSH1 0x0 DUP1 REVERT JUMPDEST POP MLOAD SWAP1 PUSH2 0x1834 JUMP JUMPDEST SWAP1 POP PUSH1 0x3 PUSH1 0x0 SWAP1 SLOAD SWAP1 PUSH2 0x100 EXP SWAP1 DIV PUSH1 0x1 PUSH1 0x1 PUSH1 0xA0 SHL SUB AND PUSH1 0x1 PUSH1 0x1 PUSH1 0xA0 SHL SUB AND PUSH4 0x38ED1739 DUP3 PUSH1 0x0 PUSH1 0x11 ADDRESS TIMESTAMP PUSH1 0x40 MLOAD DUP7 PUSH4 0xFFFFFFFF AND PUSH1 0xE0 SHL DUP2 MSTORE PUSH1 0x4 ADD DUP1 DUP7 DUP2 MSTORE PUSH1 0x20 ADD DUP6 DUP2 MSTORE PUSH1 0x20 ADD DUP1 PUSH1 0x20 ADD DUP5 PUSH1 0x1 PUSH1 0x1 PUSH1 0xA0 SHL SUB AND DUP2 MSTORE PUSH1 0x20 ADD DUP4 DUP2 MSTORE PUSH1 0x20 ADD DUP3 DUP2 SUB DUP3 MSTORE DUP6 DUP2 DUP2 SLOAD DUP2 MSTORE PUSH1 0x20 ADD SWAP2 POP DUP1 SLOAD DUP1 ISZERO PUSH2 0x1DAF JUMPI PUSH1 0x20 MUL DUP3 ADD SWAP2 SWAP1 PUSH1 0x0 MSTORE PUSH1 0x20 PUSH1 0x0 KECCAK256 SWAP1 JUMPDEST DUP2 SLOAD PUSH1 0x1 PUSH1 0x1 PUSH1 0xA0 SHL SUB AND DUP2 MSTORE PUSH1 0x1 SWAP1 SWAP2 ADD SWAP1 PUSH1 0x20 ADD DUP1 DUP4 GT PUSH2 0x1D91 JUMPI JUMPDEST POP POP SWAP7 POP POP POP POP POP POP POP PUSH1 0x0 PUSH1 0x40 MLOAD DUP1 DUP4 SUB DUP2 PUSH1 0x0 DUP8 DUP1 EXTCODESIZE ISZERO DUP1 ISZERO PUSH2 0x1DD3 JUMPI PUSH1 0x0 DUP1 REVERT JUMPDEST POP GAS CALL ISZERO DUP1 ISZERO PUSH2 0x1DE7 JUMPI RETURNDATASIZE PUSH1 0x0 DUP1 RETURNDATACOPY RETURNDATASIZE PUSH1 0x0 REVERT JUMPDEST POP POP POP POP PUSH1 0x40 MLOAD RETURNDATASIZE PUSH1 0x0 DUP3 RETURNDATACOPY PUSH1 0x1F RETURNDATASIZE SWAP1 DUP2 ADD PUSH1 0x1F NOT AND DUP3 ADD PUSH1 0x40 MSTORE PUSH1 0x20 DUP2 LT ISZERO PUSH2 0x1E10 JUMPI PUSH1 0x0 DUP1 REVERT JUMPDEST DUP2 ADD SWAP1 DUP1 DUP1 MLOAD PUSH1 0x40 MLOAD SWAP4 SWAP3 SWAP2 SWAP1 DUP5 PUSH1 0x1 PUSH1 0x20 SHL DUP3 GT ISZERO PUSH2 0x1E2F JUMPI PUSH1 0x0 DUP1 REVERT JUMPDEST SWAP1 DUP4 ADD SWAP1 PUSH1 0x20 DUP3 ADD DUP6 DUP2 GT ISZERO PUSH2 0x1E44 JUMPI PUSH1 0x0 DUP1 REVERT JUMPDEST DUP3 MLOAD DUP7 PUSH1 0x20 DUP3 MUL DUP4 ADD GT PUSH1 0x1 PUSH1 0x20 SHL DUP3 GT OR ISZERO PUSH2 0x1E60 JUMPI PUSH1 0x0 DUP1 REVERT JUMPDEST DUP3 MSTORE POP DUP2 MLOAD PUSH1 0x20 SWAP2 DUP3 ADD SWAP3 DUP3 ADD SWAP2 MUL DUP1 DUP4 DUP4 PUSH1 0x0 JUMPDEST DUP4 DUP2 LT ISZERO PUSH2 0x1E8D JUMPI DUP2 DUP2 ADD MLOAD DUP4 DUP3 ADD MSTORE PUSH1 0x20 ADD PUSH2 0x1E75 JUMP JUMPDEST POP POP POP POP SWAP2 SWAP1 SWAP2 ADD PUSH1 0x40 DUP2 DUP2 MSTORE PUSH1 0x9 SLOAD PUSH4 0x70A08231 PUSH1 0xE0 SHL DUP4 MSTORE ADDRESS PUSH1 0x4 DUP5 ADD MSTORE SWAP1 MLOAD PUSH1 0x0 SWAP8 POP PUSH1 0x1 PUSH1 0x1 PUSH1 0xA0 SHL SUB SWAP1 SWAP2 AND SWAP6 POP PUSH4 0x70A08231 SWAP5 POP PUSH1 0x24 DUP1 DUP4 ADD SWAP5 POP PUSH1 0x20 SWAP4 POP SWAP1 SWAP2 DUP3 SWAP1 SUB ADD DUP2 DUP7 DUP1 EXTCODESIZE ISZERO DUP1 ISZERO PUSH2 0x1EE8 JUMPI PUSH1 0x0 DUP1 REVERT JUMPDEST POP GAS STATICCALL ISZERO DUP1 ISZERO PUSH2 0x1EFC JUMPI RETURNDATASIZE PUSH1 0x0 DUP1 RETURNDATACOPY RETURNDATASIZE PUSH1 0x0 REVERT JUMPDEST POP POP POP POP PUSH1 0x40 MLOAD RETURNDATASIZE PUSH1 0x20 DUP2 LT ISZERO PUSH2 0x1F12 JUMPI PUSH1 0x0 DUP1 REVERT JUMPDEST POP MLOAD PUSH1 0x7 SLOAD SWAP1 SWAP2 POP PUSH1 0x0 SWAP1 PUSH2 0x1F30 SWAP1 PUSH2 0x3E8 SWAP1 PUSH2 0x999 SWAP1 DUP6 SWAP1 PUSH2 0x1834 JUMP JUMPDEST PUSH1 0x9 SLOAD SWAP1 SWAP2 POP PUSH2 0x1F4A SWAP1 PUSH1 0x1 PUSH1 0x1 PUSH1 0xA0 SHL SUB AND CALLER DUP4 PUSH2 0x17E2 JUMP JUMPDEST PUSH1 0x0 PUSH2 0x1F67 PUSH2 0x3E8 PUSH2 0x999 PUSH1 0x8 SLOAD DUP7 PUSH2 0x1834 SWAP1 SWAP2 SWAP1 PUSH4 0xFFFFFFFF AND JUMP JUMPDEST PUSH1 0x5 SLOAD PUSH1 0x9 SLOAD SWAP2 SWAP3 POP PUSH2 0x1F87 SWAP2 PUSH1 0x1 PUSH1 0x1 PUSH1 0xA0 SHL SUB SWAP1 DUP2 AND SWAP2 AND DUP4 PUSH2 0x17E2 JUMP JUMPDEST PUSH1 0x0 PUSH2 0x1F99 PUSH2 0x3E8 PUSH2 0x999 DUP7 DUP5 PUSH2 0x1834 JUMP JUMPDEST PUSH1 0x2 SLOAD PUSH1 0x9 SLOAD SWAP2 SWAP3 POP PUSH2 0x1FB9 SWAP2 PUSH1 0x1 PUSH1 0x1 PUSH1 0xA0 SHL SUB SWAP1 DUP2 AND SWAP2 AND DUP4 PUSH2 0x17E2 JUMP JUMPDEST POP POP POP POP POP POP JUMP JUMPDEST PUSH1 0xA SLOAD PUSH1 0x40 DUP1 MLOAD PUSH4 0x70A08231 PUSH1 0xE0 SHL DUP2 MSTORE ADDRESS PUSH1 0x4 DUP3 ADD MSTORE SWAP1 MLOAD PUSH1 0x0 SWAP3 PUSH2 0x2048 SWAP3 PUSH1 0x2 SWAP3 PUSH1 0x1 PUSH1 0x1 PUSH1 0xA0 SHL SUB SWAP1 SWAP3 AND SWAP2 PUSH4 0x70A08231 SWAP2 PUSH1 0x24 DUP1 DUP3 ADD SWAP3 PUSH1 0x20 SWAP3 SWAP1 SWAP2 SWAP1 DUP3 SWAP1 SUB ADD DUP2 DUP7 DUP1 EXTCODESIZE ISZERO DUP1 ISZERO PUSH2 0x2016 JUMPI PUSH1 0x0 DUP1 REVERT JUMPDEST POP GAS STATICCALL ISZERO DUP1 ISZERO PUSH2 0x202A JUMPI RETURNDATASIZE PUSH1 0x0 DUP1 RETURNDATACOPY RETURNDATASIZE PUSH1 0x0 REVERT JUMPDEST POP POP POP POP PUSH1 0x40 MLOAD RETURNDATASIZE PUSH1 0x20 DUP2 LT ISZERO PUSH2 0x2040 JUMPI PUSH1 0x0 DUP1 REVERT JUMPDEST POP MLOAD SWAP1 PUSH2 0x188D JUMP JUMPDEST PUSH1 0xA SLOAD PUSH1 0xC SLOAD SWAP2 SWAP3 POP PUSH1 0x1 PUSH1 0x1 PUSH1 0xA0 SHL SUB SWAP2 DUP3 AND SWAP2 AND EQ PUSH2 0x21EA JUMPI PUSH1 0x3 SLOAD PUSH1 0x40 MLOAD PUSH4 0x38ED1739 PUSH1 0xE0 SHL DUP2 MSTORE PUSH1 0x4 DUP2 ADD DUP4 DUP2 MSTORE PUSH1 0x0 PUSH1 0x24 DUP4 ADD DUP2 SWAP1 MSTORE ADDRESS PUSH1 0x64 DUP5 ADD DUP2 SWAP1 MSTORE TIMESTAMP PUSH1 0x84 DUP6 ADD DUP2 SWAP1 MSTORE PUSH1 0xA0 PUSH1 0x44 DUP7 ADD SWAP1 DUP2 MSTORE PUSH1 0x13 DUP1 SLOAD PUSH1 0xA4 DUP9 ADD DUP2 SWAP1 MSTORE PUSH1 0x1 PUSH1 0x1 PUSH1 0xA0 SHL SUB SWAP1 SWAP9 AND SWAP8 PUSH4 0x38ED1739 SWAP8 DUP11 SWAP8 SWAP3 SWAP6 SWAP5 SWAP4 SWAP2 PUSH1 0xC4 SWAP1 SWAP2 ADD SWAP1 DUP7 SWAP1 DUP1 ISZERO PUSH2 0x20FD JUMPI PUSH1 0x20 MUL DUP3 ADD SWAP2 SWAP1 PUSH1 0x0 MSTORE PUSH1 0x20 PUSH1 0x0 KECCAK256 SWAP1 JUMPDEST DUP2 SLOAD PUSH1 0x1 PUSH1 0x1 PUSH1 0xA0 SHL SUB AND DUP2 MSTORE PUSH1 0x1 SWAP1 SWAP2 ADD SWAP1 PUSH1 0x20 ADD DUP1 DUP4 GT PUSH2 0x20DF JUMPI JUMPDEST POP POP SWAP7 POP POP POP POP POP POP POP PUSH1 0x0 PUSH1 0x40 MLOAD DUP1 DUP4 SUB DUP2 PUSH1 0x0 DUP8 DUP1 EXTCODESIZE ISZERO DUP1 ISZERO PUSH2 0x2121 JUMPI PUSH1 0x0 DUP1 REVERT JUMPDEST POP GAS CALL ISZERO DUP1 ISZERO PUSH2 0x2135 JUMPI RETURNDATASIZE PUSH1 0x0 DUP1 RETURNDATACOPY RETURNDATASIZE PUSH1 0x0 REVERT JUMPDEST POP POP POP POP PUSH1 0x40 MLOAD RETURNDATASIZE PUSH1 0x0 DUP3 RETURNDATACOPY PUSH1 0x1F RETURNDATASIZE SWAP1 DUP2 ADD PUSH1 0x1F NOT AND DUP3 ADD PUSH1 0x40 MSTORE PUSH1 0x20 DUP2 LT ISZERO PUSH2 0x215E JUMPI PUSH1 0x0 DUP1 REVERT JUMPDEST DUP2 ADD SWAP1 DUP1 DUP1 MLOAD PUSH1 0x40 MLOAD SWAP4 SWAP3 SWAP2 SWAP1 DUP5 PUSH1 0x1 PUSH1 0x20 SHL DUP3 GT ISZERO PUSH2 0x217D JUMPI PUSH1 0x0 DUP1 REVERT JUMPDEST SWAP1 DUP4 ADD SWAP1 PUSH1 0x20 DUP3 ADD DUP6 DUP2 GT ISZERO PUSH2 0x2192 JUMPI PUSH1 0x0 DUP1 REVERT JUMPDEST DUP3 MLOAD DUP7 PUSH1 0x20 DUP3 MUL DUP4 ADD GT PUSH1 0x1 PUSH1 0x20 SHL DUP3 GT OR ISZERO PUSH2 0x21AE JUMPI PUSH1 0x0 DUP1 REVERT JUMPDEST DUP3 MSTORE POP DUP2 MLOAD PUSH1 0x20 SWAP2 DUP3 ADD SWAP3 DUP3 ADD SWAP2 MUL DUP1 DUP4 DUP4 PUSH1 0x0 JUMPDEST DUP4 DUP2 LT ISZERO PUSH2 0x21DB JUMPI DUP2 DUP2 ADD MLOAD DUP4 DUP3 ADD MSTORE PUSH1 0x20 ADD PUSH2 0x21C3 JUMP JUMPDEST POP POP POP POP SWAP1 POP ADD PUSH1 0x40 MSTORE POP POP POP POP JUMPDEST PUSH1 0xA SLOAD PUSH1 0xD SLOAD PUSH1 0x1 PUSH1 0x1 PUSH1 0xA0 SHL SUB SWAP1 DUP2 AND SWAP2 AND EQ PUSH2 0x2389 JUMPI PUSH1 0x3 SLOAD PUSH1 0x40 MLOAD PUSH4 0x38ED1739 PUSH1 0xE0 SHL DUP2 MSTORE PUSH1 0x4 DUP2 ADD DUP4 DUP2 MSTORE PUSH1 0x0 PUSH1 0x24 DUP4 ADD DUP2 SWAP1 MSTORE ADDRESS PUSH1 0x64 DUP5 ADD DUP2 SWAP1 MSTORE TIMESTAMP PUSH1 0x84 DUP6 ADD DUP2 SWAP1 MSTORE PUSH1 0xA0 PUSH1 0x44 DUP7 ADD SWAP1 DUP2 MSTORE PUSH1 0x14 DUP1 SLOAD PUSH1 0xA4 DUP9 ADD DUP2 SWAP1 MSTORE PUSH1 0x1 PUSH1 0x1 PUSH1 0xA0 SHL SUB SWAP1 SWAP9 AND SWAP8 PUSH4 0x38ED1739 SWAP8 DUP11 SWAP8 SWAP3 SWAP6 SWAP5 SWAP4 SWAP2 PUSH1 0xC4 SWAP1 SWAP2 ADD SWAP1 DUP7 SWAP1 DUP1 ISZERO PUSH2 0x229C JUMPI PUSH1 0x20 MUL DUP3 ADD SWAP2 SWAP1 PUSH1 0x0 MSTORE PUSH1 0x20 PUSH1 0x0 KECCAK256 SWAP1 JUMPDEST DUP2 SLOAD PUSH1 0x1 PUSH1 0x1 PUSH1 0xA0 SHL SUB AND DUP2 MSTORE PUSH1 0x1 SWAP1 SWAP2 ADD SWAP1 PUSH1 0x20 ADD DUP1 DUP4 GT PUSH2 0x227E JUMPI JUMPDEST POP POP SWAP7 POP POP POP POP POP POP POP PUSH1 0x0 PUSH1 0x40 MLOAD DUP1 DUP4 SUB DUP2 PUSH1 0x0 DUP8 DUP1 EXTCODESIZE ISZERO DUP1 ISZERO PUSH2 0x22C0 JUMPI PUSH1 0x0 DUP1 REVERT JUMPDEST POP GAS CALL ISZERO DUP1 ISZERO PUSH2 0x22D4 JUMPI RETURNDATASIZE PUSH1 0x0 DUP1 RETURNDATACOPY RETURNDATASIZE PUSH1 0x0 REVERT JUMPDEST POP POP POP POP PUSH1 0x40 MLOAD RETURNDATASIZE PUSH1 0x0 DUP3 RETURNDATACOPY PUSH1 0x1F RETURNDATASIZE SWAP1 DUP2 ADD PUSH1 0x1F NOT AND DUP3 ADD PUSH1 0x40 MSTORE PUSH1 0x20 DUP2 LT ISZERO PUSH2 0x22FD JUMPI PUSH1 0x0 DUP1 REVERT JUMPDEST DUP2 ADD SWAP1 DUP1 DUP1 MLOAD PUSH1 0x40 MLOAD SWAP4 SWAP3 SWAP2 SWAP1 DUP5 PUSH1 0x1 PUSH1 0x20 SHL DUP3 GT ISZERO PUSH2 0x231C JUMPI PUSH1 0x0 DUP1 REVERT JUMPDEST SWAP1 DUP4 ADD SWAP1 PUSH1 0x20 DUP3 ADD DUP6 DUP2 GT ISZERO PUSH2 0x2331 JUMPI PUSH1 0x0 DUP1 REVERT JUMPDEST DUP3 MLOAD DUP7 PUSH1 0x20 DUP3 MUL DUP4 ADD GT PUSH1 0x1 PUSH1 0x20 SHL DUP3 GT OR ISZERO PUSH2 0x234D JUMPI PUSH1 0x0 DUP1 REVERT JUMPDEST DUP3 MSTORE POP DUP2 MLOAD PUSH1 0x20 SWAP2 DUP3 ADD SWAP3 DUP3 ADD SWAP2 MUL DUP1 DUP4 DUP4 PUSH1 0x0 JUMPDEST DUP4 DUP2 LT ISZERO PUSH2 0x237A JUMPI DUP2 DUP2 ADD MLOAD DUP4 DUP3 ADD MSTORE PUSH1 0x20 ADD PUSH2 0x2362 JUMP JUMPDEST POP POP POP POP SWAP1 POP ADD PUSH1 0x40 MSTORE POP POP POP POP JUMPDEST PUSH1 0xC SLOAD PUSH1 0x40 DUP1 MLOAD PUSH4 0x70A08231 PUSH1 0xE0 SHL DUP2 MSTORE ADDRESS PUSH1 0x4 DUP3 ADD MSTORE SWAP1 MLOAD PUSH1 0x0 SWAP3 PUSH1 0x1 PUSH1 0x1 PUSH1 0xA0 SHL SUB AND SWAP2 PUSH4 0x70A08231 SWAP2 PUSH1 0x24 DUP1 DUP4 ADD SWAP3 PUSH1 0x20 SWAP3 SWAP2 SWAP1 DUP3 SWAP1 SUB ADD DUP2 DUP7 DUP1 EXTCODESIZE ISZERO DUP1 ISZERO PUSH2 0x23D4 JUMPI PUSH1 0x0 DUP1 REVERT JUMPDEST POP GAS STATICCALL ISZERO DUP1 ISZERO PUSH2 0x23E8 JUMPI RETURNDATASIZE PUSH1 0x0 DUP1 RETURNDATACOPY RETURNDATASIZE PUSH1 0x0 REVERT JUMPDEST POP POP POP POP PUSH1 0x40 MLOAD RETURNDATASIZE PUSH1 0x20 DUP2 LT ISZERO PUSH2 0x23FE JUMPI PUSH1 0x0 DUP1 REVERT JUMPDEST POP MLOAD PUSH1 0xD SLOAD PUSH1 0x40 DUP1 MLOAD PUSH4 0x70A08231 PUSH1 0xE0 SHL DUP2 MSTORE ADDRESS PUSH1 0x4 DUP3 ADD MSTORE SWAP1 MLOAD SWAP3 SWAP4 POP PUSH1 0x0 SWAP3 PUSH1 0x1 PUSH1 0x1 PUSH1 0xA0 SHL SUB SWAP1 SWAP3 AND SWAP2 PUSH4 0x70A08231 SWAP2 PUSH1 0x24 DUP1 DUP3 ADD SWAP3 PUSH1 0x20 SWAP3 SWAP1 SWAP2 SWAP1 DUP3 SWAP1 SUB ADD DUP2 DUP7 DUP1 EXTCODESIZE ISZERO DUP1 ISZERO PUSH2 0x2451 JUMPI PUSH1 0x0 DUP1 REVERT JUMPDEST POP GAS STATICCALL ISZERO DUP1 ISZERO PUSH2 0x2465 JUMPI RETURNDATASIZE PUSH1 0x0 DUP1 RETURNDATACOPY RETURNDATASIZE PUSH1 0x0 REVERT JUMPDEST POP POP POP POP PUSH1 0x40 MLOAD RETURNDATASIZE PUSH1 0x20 DUP2 LT ISZERO PUSH2 0x247B JUMPI PUSH1 0x0 DUP1 REVERT JUMPDEST POP MLOAD PUSH1 0x3 SLOAD PUSH1 0xC SLOAD PUSH1 0xD SLOAD PUSH1 0x40 DUP1 MLOAD PUSH3 0xE8E337 PUSH1 0xE8 SHL DUP2 MSTORE PUSH1 0x1 PUSH1 0x1 PUSH1 0xA0 SHL SUB SWAP4 DUP5 AND PUSH1 0x4 DUP3 ADD MSTORE SWAP2 DUP4 AND PUSH1 0x24 DUP4 ADD MSTORE PUSH1 0x44 DUP3 ADD DUP8 SWAP1 MSTORE PUSH1 0x64 DUP3 ADD DUP6 SWAP1 MSTORE PUSH1 0x1 PUSH1 0x84 DUP4 ADD DUP2 SWAP1 MSTORE PUSH1 0xA4 DUP4 ADD MSTORE ADDRESS PUSH1 0xC4 DUP4 ADD MSTORE TIMESTAMP PUSH1 0xE4 DUP4 ADD MSTORE MLOAD SWAP4 SWAP5 POP SWAP2 AND SWAP2 PUSH4 0xE8E33700 SWAP2 PUSH2 0x104 DUP1 DUP3 ADD SWAP3 PUSH1 0x60 SWAP3 SWAP1 SWAP2 SWAP1 DUP3 SWAP1 SUB ADD DUP2 PUSH1 0x0 DUP8 DUP1 EXTCODESIZE ISZERO DUP1 ISZERO PUSH2 0x2503 JUMPI PUSH1 0x0 DUP1 REVERT JUMPDEST POP GAS CALL ISZERO DUP1 ISZERO PUSH2 0x2517 JUMPI RETURNDATASIZE PUSH1 0x0 DUP1 RETURNDATACOPY RETURNDATASIZE PUSH1 0x0 REVERT JUMPDEST POP POP POP POP PUSH1 0x40 MLOAD RETURNDATASIZE PUSH1 0x60 DUP2 LT ISZERO PUSH2 0x12C4 JUMPI PUSH1 0x0 DUP1 REVERT JUMPDEST CALLER SWAP1 JUMP JUMPDEST PUSH1 0x0 DUP3 DUP3 ADD DUP4 DUP2 LT ISZERO PUSH2 0x1779 JUMPI PUSH1 0x40 DUP1 MLOAD PUSH3 0x461BCD PUSH1 0xE5 SHL DUP2 MSTORE PUSH1 0x20 PUSH1 0x4 DUP3 ADD MSTORE PUSH1 0x1B PUSH1 0x24 DUP3 ADD MSTORE PUSH32 0x536166654D6174683A206164646974696F6E206F766572666C6F770000000000 PUSH1 0x44 DUP3 ADD MSTORE SWAP1 MLOAD SWAP1 DUP2 SWAP1 SUB PUSH1 0x64 ADD SWAP1 REVERT JUMPDEST PUSH2 0x2593 PUSH2 0xC9B JUMP JUMPDEST ISZERO PUSH2 0x25D8 JUMPI PUSH1 0x40 DUP1 MLOAD PUSH3 0x461BCD PUSH1 0xE5 SHL DUP2 MSTORE PUSH1 0x20 PUSH1 0x4 DUP3 ADD MSTORE PUSH1 0x10 PUSH1 0x24 DUP3 ADD MSTORE PUSH16 0x14185D5CD8589B194E881C185D5CD959 PUSH1 0x82 SHL PUSH1 0x44 DUP3 ADD MSTORE SWAP1 MLOAD SWAP1 DUP2 SWAP1 SUB PUSH1 0x64 ADD SWAP1 REVERT JUMPDEST PUSH1 0x0 DUP1 SLOAD PUSH1 0xFF PUSH1 0xA0 SHL NOT AND PUSH1 0x1 PUSH1 0xA0 SHL OR SWAP1 SSTORE PUSH32 0x62E78CEA01BEE320CD4E420270B5EA74000D11B0C9F74754EBDBFC544B05A258 PUSH2 0x197A PUSH2 0x252D JUMP JUMPDEST PUSH1 0xE SLOAD PUSH1 0xB SLOAD PUSH2 0x2632 SWAP2 PUSH1 0x1 PUSH1 0x1 PUSH1 0xA0 SHL SUB SWAP2 DUP3 AND SWAP2 AND PUSH1 0x0 PUSH2 0x1654 JUMP JUMPDEST PUSH1 0x3 SLOAD PUSH1 0xA SLOAD PUSH2 0x2650 SWAP2 PUSH1 0x1 PUSH1 0x1 PUSH1 0xA0 SHL SUB SWAP2 DUP3 AND SWAP2 AND PUSH1 0x0 PUSH2 0x1654 JUMP JUMPDEST PUSH1 0x3 SLOAD PUSH1 0x9 SLOAD PUSH2 0x266E SWAP2 PUSH1 0x1 PUSH1 0x1 PUSH1 0xA0 SHL SUB SWAP2 DUP3 AND SWAP2 AND PUSH1 0x0 PUSH2 0x1654 JUMP JUMPDEST PUSH1 0x3 SLOAD PUSH1 0xC SLOAD PUSH2 0x268C SWAP2 PUSH1 0x1 PUSH1 0x1 PUSH1 0xA0 SHL SUB SWAP2 DUP3 AND SWAP2 AND PUSH1 0x0 PUSH2 0x1654 JUMP JUMPDEST PUSH1 0x3 SLOAD PUSH1 0xD SLOAD PUSH2 0xA6D SWAP2 PUSH1 0x1 PUSH1 0x1 PUSH1 0xA0 SHL SUB SWAP2 DUP3 AND SWAP2 AND PUSH1 0x0 PUSH2 0x1654 JUMP JUMPDEST PUSH1 0x60 PUSH2 0x26FF DUP3 PUSH1 0x40 MLOAD DUP1 PUSH1 0x40 ADD PUSH1 0x40 MSTORE DUP1 PUSH1 0x20 DUP2 MSTORE PUSH1 0x20 ADD PUSH32 0x5361666545524332303A206C6F772D6C6576656C2063616C6C206661696C6564 DUP2 MSTORE POP DUP6 PUSH1 0x1 PUSH1 0x1 PUSH1 0xA0 SHL SUB AND PUSH2 0x1767 SWAP1 SWAP3 SWAP2 SWAP1 PUSH4 0xFFFFFFFF AND JUMP JUMPDEST DUP1 MLOAD SWAP1 SWAP2 POP ISZERO PUSH2 0x9CF JUMPI DUP1 DUP1 PUSH1 0x20 ADD SWAP1 MLOAD PUSH1 0x20 DUP2 LT ISZERO PUSH2 0x271E JUMPI PUSH1 0x0 DUP1 REVERT JUMPDEST POP MLOAD PUSH2 0x9CF JUMPI PUSH1 0x40 MLOAD PUSH3 0x461BCD PUSH1 0xE5 SHL DUP2 MSTORE PUSH1 0x4 ADD DUP1 DUP1 PUSH1 0x20 ADD DUP3 DUP2 SUB DUP3 MSTORE PUSH1 0x2A DUP2 MSTORE PUSH1 0x20 ADD DUP1 PUSH2 0x29EF PUSH1 0x2A SWAP2 CODECOPY PUSH1 0x40 ADD SWAP2 POP POP PUSH1 0x40 MLOAD DUP1 SWAP2 SUB SWAP1 REVERT JUMPDEST PUSH1 0x60 DUP3 SELFBALANCE LT ISZERO PUSH2 0x279C JUMPI PUSH1 0x40 MLOAD PUSH3 0x461BCD PUSH1 0xE5 SHL DUP2 MSTORE PUSH1 0x4 ADD DUP1 DUP1 PUSH1 0x20 ADD DUP3 DUP2 SUB DUP3 MSTORE PUSH1 0x26 DUP2 MSTORE PUSH1 0x20 ADD DUP1 PUSH2 0x2988 PUSH1 0x26 SWAP2 CODECOPY PUSH1 0x40 ADD SWAP2 POP POP PUSH1 0x40 MLOAD DUP1 SWAP2 SUB SWAP1 REVERT JUMPDEST PUSH2 0x27A5 DUP6 PUSH2 0x28B7 JUMP JUMPDEST PUSH2 0x27F6 JUMPI PUSH1 0x40 DUP1 MLOAD PUSH3 0x461BCD PUSH1 0xE5 SHL DUP2 MSTORE PUSH1 0x20 PUSH1 0x4 DUP3 ADD MSTORE PUSH1 0x1D PUSH1 0x24 DUP3 ADD MSTORE PUSH32 0x416464726573733A2063616C6C20746F206E6F6E2D636F6E7472616374000000 PUSH1 0x44 DUP3 ADD MSTORE SWAP1 MLOAD SWAP1 DUP2 SWAP1 SUB PUSH1 0x64 ADD SWAP1 REVERT JUMPDEST PUSH1 0x0 PUSH1 0x60 DUP7 PUSH1 0x1 PUSH1 0x1 PUSH1 0xA0 SHL SUB AND DUP6 DUP8 PUSH1 0x40 MLOAD DUP1 DUP3 DUP1 MLOAD SWAP1 PUSH1 0x20 ADD SWAP1 DUP1 DUP4 DUP4 JUMPDEST PUSH1 0x20 DUP4 LT PUSH2 0x2835 JUMPI DUP1 MLOAD DUP3 MSTORE PUSH1 0x1F NOT SWAP1 SWAP3 ADD SWAP2 PUSH1 0x20 SWAP2 DUP3 ADD SWAP2 ADD PUSH2 0x2816 JUMP JUMPDEST PUSH1 0x1 DUP4 PUSH1 0x20 SUB PUSH2 0x100 EXP SUB DUP1 NOT DUP3 MLOAD AND DUP2 DUP5 MLOAD AND DUP1 DUP3 OR DUP6 MSTORE POP POP POP POP POP POP SWAP1 POP ADD SWAP2 POP POP PUSH1 0x0 PUSH1 0x40 MLOAD DUP1 DUP4 SUB DUP2 DUP6 DUP8 GAS CALL SWAP3 POP POP POP RETURNDATASIZE DUP1 PUSH1 0x0 DUP2 EQ PUSH2 0x2897 JUMPI PUSH1 0x40 MLOAD SWAP2 POP PUSH1 0x1F NOT PUSH1 0x3F RETURNDATASIZE ADD AND DUP3 ADD PUSH1 0x40 MSTORE RETURNDATASIZE DUP3 MSTORE RETURNDATASIZE PUSH1 0x0 PUSH1 0x20 DUP5 ADD RETURNDATACOPY PUSH2 0x289C JUMP JUMPDEST PUSH1 0x60 SWAP2 POP JUMPDEST POP SWAP2 POP SWAP2 POP PUSH2 0x28AC DUP3 DUP3 DUP7 PUSH2 0x28BD JUMP JUMPDEST SWAP8 SWAP7 POP POP POP POP POP POP POP JUMP JUMPDEST EXTCODESIZE ISZERO ISZERO SWAP1 JUMP JUMPDEST PUSH1 0x60 DUP4 ISZERO PUSH2 0x28CC JUMPI POP DUP2 PUSH2 0x1779 JUMP JUMPDEST DUP3 MLOAD ISZERO PUSH2 0x28DC JUMPI DUP3 MLOAD DUP1 DUP5 PUSH1 0x20 ADD REVERT JUMPDEST DUP2 PUSH1 0x40 MLOAD PUSH3 0x461BCD PUSH1 0xE5 SHL DUP2 MSTORE PUSH1 0x4 ADD DUP1 DUP1 PUSH1 0x20 ADD DUP3 DUP2 SUB DUP3 MSTORE DUP4 DUP2 DUP2 MLOAD DUP2 MSTORE PUSH1 0x20 ADD SWAP2 POP DUP1 MLOAD SWAP1 PUSH1 0x20 ADD SWAP1 DUP1 DUP4 DUP4 PUSH1 0x0 JUMPDEST DUP4 DUP2 LT ISZERO PUSH2 0x2926 JUMPI DUP2 DUP2 ADD MLOAD DUP4 DUP3 ADD MSTORE PUSH1 0x20 ADD PUSH2 0x290E JUMP JUMPDEST POP POP POP POP SWAP1 POP SWAP1 DUP2 ADD SWAP1 PUSH1 0x1F AND DUP1 ISZERO PUSH2 0x2953 JUMPI DUP1 DUP3 SUB DUP1 MLOAD PUSH1 0x1 DUP4 PUSH1 0x20 SUB PUSH2 0x100 EXP SUB NOT AND DUP2 MSTORE PUSH1 0x20 ADD SWAP2 POP JUMPDEST POP SWAP3 POP POP POP PUSH1 0x40 MLOAD DUP1 SWAP2 SUB SWAP1 REVERT INVALID 0x4F PUSH24 0x6E61626C653A206E6577206F776E65722069732074686520 PUSH27 0x65726F2061646472657373416464726573733A20696E7375666669 PUSH4 0x69656E74 KECCAK256 PUSH3 0x616C61 PUSH15 0x636520666F722063616C6C53616665 0x4D PUSH2 0x7468 GASPRICE KECCAK256 PUSH14 0x756C7469706C69636174696F6E20 PUSH16 0x766572666C6F774F776E61626C653A20 PUSH4 0x616C6C65 PUSH19 0x206973206E6F7420746865206F776E65725361 PUSH7 0x6545524332303A KECCAK256 GASLIMIT MSTORE NUMBER ORIGIN ADDRESS KECCAK256 PUSH16 0x7065726174696F6E20646964206E6F74 KECCAK256 PUSH20 0x7563636565645361666545524332303A20617070 PUSH19 0x6F76652066726F6D206E6F6E2D7A65726F2074 PUSH16 0x206E6F6E2D7A65726F20616C6C6F7761 PUSH15 0x6365A2646970667358221220A902D1 DUP9 CALLDATASIZE LOG3 MULMOD GASLIMIT MULMOD 0x2B SWAP8 0x25 0xBC PUSH15 0xA9A6051DC596649011CC4F21806DBF 0xDF 0xC2 SWAP7 PUSH5 0x736F6C6343 STOP MOD 0xC STOP CALLER COINBASE PUSH5 0x6472657373 GASPRICE KECCAK256 PUSH10 0x6E73756666696369656E PUSH21 0x2062616C616E636520666F722063616C6C53616665 GASLIMIT MSTORE NUMBER ORIGIN ADDRESS GASPRICE KECCAK256 GASLIMIT MSTORE NUMBER ORIGIN ADDRESS KECCAK256 PUSH16 0x7065726174696F6E20646964206E6F74 KECCAK256 PUSH20 0x7563636565645361666545524332303A20617070 PUSH19 0x6F76652066726F6D206E6F6E2D7A65726F2074 PUSH16 0x206E6F6E2D7A65726F20616C6C6F7761 PUSH15 0x636500000000000000000000000000 "
				},
				"gasEstimates": {
					"creation": {
						"codeDepositCost": "2176800",
						"executionCost": "infinite",
						"totalCost": "infinite"
					},
					"external": {
						"MAX_CALL_FEE()": "310",
						"MAX_FEE()": "309",
						"STRATEGIST_FEE()": "266",
						"WITHDRAWAL_FEE_CAP()": "309",
						"WITHDRAWAL_MAX()": "332",
						"balanceOf()": "infinite",
						"balanceOfPool()": "infinite",
						"balanceOfWant()": "infinite",
						"beforeDeposit()": "300",
						"callFee()": "1043",
						"chef()": "1172",
						"deposit()": "infinite",
						"evolleFee()": "1130",
						"evolleFeeRecipient()": "1170",
						"harvest()": "infinite",
						"keeper()": "1126",
						"lastHarvest()": "1153",
						"lpToken0()": "1126",
						"lpToken1()": "1149",
						"native()": "1128",
						"nativeToOutputRoute(uint256)": "2017",
						"output()": "1081",
						"outputToLp0Route(uint256)": "2126",
						"outputToLp1Route(uint256)": "2124",
						"outputToNativeRoute(uint256)": "2103",
						"owner()": "1193",
						"panic()": "infinite",
						"pause()": "infinite",
						"paused()": "1072",
						"poolId()": "1044",
						"renounceOwnership()": "infinite",
						"retireStrat()": "infinite",
						"setCallFee(uint256)": "42068",
						"setEvolleFeeRecipient(address)": "infinite",
						"setKeeper(address)": "22867",
						"setStrategist(address)": "21958",
						"setUnirouter(address)": "infinite",
						"setVault(address)": "infinite",
						"setWithdrawalFee(uint256)": "22030",
						"strategist()": "1083",
						"transferOwnership(address)": "infinite",
						"unirouter()": "1105",
						"unpause()": "infinite",
						"vault()": "1147",
						"want()": "1150",
						"withdraw(uint256)": "infinite",
						"withdrawalFee()": "1132"
					},
					"internal": {
						"_giveAllowances()": "infinite",
						"_removeAllowances()": "infinite",
						"addLiquidity()": "infinite",
						"chargeFees()": "infinite"
					}
				},
				"methodIdentifiers": {
					"MAX_CALL_FEE()": "2ad5a53f",
					"MAX_FEE()": "bc063e1a",
					"STRATEGIST_FEE()": "7d38ca65",
					"WITHDRAWAL_FEE_CAP()": "dfbdc437",
					"WITHDRAWAL_MAX()": "54518b1a",
					"balanceOf()": "722713f7",
					"balanceOfPool()": "11588086",
					"balanceOfWant()": "c1a3d44c",
					"beforeDeposit()": "573fef0a",
					"callFee()": "90321e1a",
					"chef()": "1fc8bc5d",
					"deposit()": "d0e30db0",
					"evolleFee()": "fc61568b",
					"evolleFeeRecipient()": "e0e4130b",
					"harvest()": "4641257d",
					"keeper()": "aced1661",
					"lastHarvest()": "f1a392da",
					"lpToken0()": "5ee167c0",
					"lpToken1()": "877562b6",
					"native()": "11b0b42d",
					"nativeToOutputRoute(uint256)": "05200c9c",
					"output()": "f20eaeb8",
					"outputToLp0Route(uint256)": "36c6cf21",
					"outputToLp1Route(uint256)": "fd63a887",
					"outputToNativeRoute(uint256)": "be12a978",
					"owner()": "8da5cb5b",
					"panic()": "4700d305",
					"pause()": "8456cb59",
					"paused()": "5c975abb",
					"poolId()": "3e0dc34e",
					"renounceOwnership()": "715018a6",
					"retireStrat()": "fb617787",
					"setCallFee(uint256)": "26465826",
					"setEvolleFeeRecipient(address)": "5e45da42",
					"setKeeper(address)": "748747e6",
					"setStrategist(address)": "c7b9d530",
					"setUnirouter(address)": "d92f3d73",
					"setVault(address)": "6817031b",
					"setWithdrawalFee(uint256)": "ac1e5025",
					"strategist()": "1fe4a686",
					"transferOwnership(address)": "f2fde38b",
					"unirouter()": "257ae0de",
					"unpause()": "3f4ba83a",
					"vault()": "fbfa77cf",
					"want()": "1f1fcd51",
					"withdraw(uint256)": "2e1a7d4d",
					"withdrawalFee()": "8bc7e8c4"
				}
			},
			"storageLayout": {
				"storage": [
					{
						"astId": 1675,
						"contract": "strategies/StrategyMiniChefLP.sol:StrategyMiniChef",
						"label": "_owner",
						"offset": 0,
						"slot": "0",
						"type": "t_address"
					},
					{
						"astId": 1793,
						"contract": "strategies/StrategyMiniChefLP.sol:StrategyMiniChef",
						"label": "_paused",
						"offset": 20,
						"slot": "0",
						"type": "t_bool"
					},
					{
						"astId": 1874,
						"contract": "strategies/StrategyMiniChefLP.sol:StrategyMiniChef",
						"label": "keeper",
						"offset": 0,
						"slot": "1",
						"type": "t_address"
					},
					{
						"astId": 1876,
						"contract": "strategies/StrategyMiniChefLP.sol:StrategyMiniChef",
						"label": "strategist",
						"offset": 0,
						"slot": "2",
						"type": "t_address"
					},
					{
						"astId": 1878,
						"contract": "strategies/StrategyMiniChefLP.sol:StrategyMiniChef",
						"label": "unirouter",
						"offset": 0,
						"slot": "3",
						"type": "t_address"
					},
					{
						"astId": 1880,
						"contract": "strategies/StrategyMiniChefLP.sol:StrategyMiniChef",
						"label": "vault",
						"offset": 0,
						"slot": "4",
						"type": "t_address"
					},
					{
						"astId": 1882,
						"contract": "strategies/StrategyMiniChefLP.sol:StrategyMiniChef",
						"label": "evolleFeeRecipient",
						"offset": 0,
						"slot": "5",
						"type": "t_address"
					},
					{
						"astId": 2044,
						"contract": "strategies/StrategyMiniChefLP.sol:StrategyMiniChef",
						"label": "withdrawalFee",
						"offset": 0,
						"slot": "6",
						"type": "t_uint256"
					},
					{
						"astId": 2047,
						"contract": "strategies/StrategyMiniChefLP.sol:StrategyMiniChef",
						"label": "callFee",
						"offset": 0,
						"slot": "7",
						"type": "t_uint256"
					},
					{
						"astId": 2054,
						"contract": "strategies/StrategyMiniChefLP.sol:StrategyMiniChef",
						"label": "evolleFee",
						"offset": 0,
						"slot": "8",
						"type": "t_uint256"
					},
					{
						"astId": 2114,
						"contract": "strategies/StrategyMiniChefLP.sol:StrategyMiniChef",
						"label": "native",
						"offset": 0,
						"slot": "9",
						"type": "t_address"
					},
					{
						"astId": 2116,
						"contract": "strategies/StrategyMiniChefLP.sol:StrategyMiniChef",
						"label": "output",
						"offset": 0,
						"slot": "10",
						"type": "t_address"
					},
					{
						"astId": 2118,
						"contract": "strategies/StrategyMiniChefLP.sol:StrategyMiniChef",
						"label": "want",
						"offset": 0,
						"slot": "11",
						"type": "t_address"
					},
					{
						"astId": 2120,
						"contract": "strategies/StrategyMiniChefLP.sol:StrategyMiniChef",
						"label": "lpToken0",
						"offset": 0,
						"slot": "12",
						"type": "t_address"
					},
					{
						"astId": 2122,
						"contract": "strategies/StrategyMiniChefLP.sol:StrategyMiniChef",
						"label": "lpToken1",
						"offset": 0,
						"slot": "13",
						"type": "t_address"
					},
					{
						"astId": 2124,
						"contract": "strategies/StrategyMiniChefLP.sol:StrategyMiniChef",
						"label": "chef",
						"offset": 0,
						"slot": "14",
						"type": "t_address"
					},
					{
						"astId": 2126,
						"contract": "strategies/StrategyMiniChefLP.sol:StrategyMiniChef",
						"label": "poolId",
						"offset": 0,
						"slot": "15",
						"type": "t_uint256"
					},
					{
						"astId": 2128,
						"contract": "strategies/StrategyMiniChefLP.sol:StrategyMiniChef",
						"label": "lastHarvest",
						"offset": 0,
						"slot": "16",
						"type": "t_uint256"
					},
					{
						"astId": 2131,
						"contract": "strategies/StrategyMiniChefLP.sol:StrategyMiniChef",
						"label": "outputToNativeRoute",
						"offset": 0,
						"slot": "17",
						"type": "t_array(t_address)dyn_storage"
					},
					{
						"astId": 2134,
						"contract": "strategies/StrategyMiniChefLP.sol:StrategyMiniChef",
						"label": "nativeToOutputRoute",
						"offset": 0,
						"slot": "18",
						"type": "t_array(t_address)dyn_storage"
					},
					{
						"astId": 2137,
						"contract": "strategies/StrategyMiniChefLP.sol:StrategyMiniChef",
						"label": "outputToLp0Route",
						"offset": 0,
						"slot": "19",
						"type": "t_array(t_address)dyn_storage"
					},
					{
						"astId": 2140,
						"contract": "strategies/StrategyMiniChefLP.sol:StrategyMiniChef",
						"label": "outputToLp1Route",
						"offset": 0,
						"slot": "20",
						"type": "t_array(t_address)dyn_storage"
					}
				],
				"types": {
					"t_address": {
						"encoding": "inplace",
						"label": "address",
						"numberOfBytes": "20"
					},
					"t_array(t_address)dyn_storage": {
						"base": "t_address",
						"encoding": "dynamic_array",
						"label": "address[]",
						"numberOfBytes": "32"
					},
					"t_bool": {
						"encoding": "inplace",
						"label": "bool",
						"numberOfBytes": "1"
					},
					"t_uint256": {
						"encoding": "inplace",
						"label": "uint256",
						"numberOfBytes": "32"
					}
				}
			},
			"userdoc": {
				"kind": "user",
				"methods": {},
				"version": 1
			}
		}
	}
}