{
	"Vault/EvolleVault.sol": {
		"EvolleVault": {
			"abi": [
				{
					"inputs": [
						{
							"internalType": "contract IStrategy",
							"name": "_strategy",
							"type": "address"
						},
						{
							"internalType": "string",
							"name": "_name",
							"type": "string"
						},
						{
							"internalType": "string",
							"name": "_symbol",
							"type": "string"
						},
						{
							"internalType": "uint256",
							"name": "_approvalDelay",
							"type": "uint256"
						}
					],
					"stateMutability": "nonpayable",
					"type": "constructor"
				},
				{
					"anonymous": false,
					"inputs": [
						{
							"indexed": true,
							"internalType": "address",
							"name": "owner",
							"type": "address"
						},
						{
							"indexed": true,
							"internalType": "address",
							"name": "spender",
							"type": "address"
						},
						{
							"indexed": false,
							"internalType": "uint256",
							"name": "value",
							"type": "uint256"
						}
					],
					"name": "Approval",
					"type": "event"
				},
				{
					"anonymous": false,
					"inputs": [
						{
							"indexed": false,
							"internalType": "address",
							"name": "implementation",
							"type": "address"
						}
					],
					"name": "NewStratCandidate",
					"type": "event"
				},
				{
					"anonymous": false,
					"inputs": [
						{
							"indexed": true,
							"internalType": "address",
							"name": "previousOwner",
							"type": "address"
						},
						{
							"indexed": true,
							"internalType": "address",
							"name": "newOwner",
							"type": "address"
						}
					],
					"name": "OwnershipTransferred",
					"type": "event"
				},
				{
					"anonymous": false,
					"inputs": [
						{
							"indexed": true,
							"internalType": "address",
							"name": "from",
							"type": "address"
						},
						{
							"indexed": true,
							"internalType": "address",
							"name": "to",
							"type": "address"
						},
						{
							"indexed": false,
							"internalType": "uint256",
							"name": "value",
							"type": "uint256"
						}
					],
					"name": "Transfer",
					"type": "event"
				},
				{
					"anonymous": false,
					"inputs": [
						{
							"indexed": false,
							"internalType": "address",
							"name": "implementation",
							"type": "address"
						}
					],
					"name": "UpgradeStrat",
					"type": "event"
				},
				{
					"inputs": [
						{
							"internalType": "address",
							"name": "owner",
							"type": "address"
						},
						{
							"internalType": "address",
							"name": "spender",
							"type": "address"
						}
					],
					"name": "allowance",
					"outputs": [
						{
							"internalType": "uint256",
							"name": "",
							"type": "uint256"
						}
					],
					"stateMutability": "view",
					"type": "function"
				},
				{
					"inputs": [],
					"name": "approvalDelay",
					"outputs": [
						{
							"internalType": "uint256",
							"name": "",
							"type": "uint256"
						}
					],
					"stateMutability": "view",
					"type": "function"
				},
				{
					"inputs": [
						{
							"internalType": "address",
							"name": "spender",
							"type": "address"
						},
						{
							"internalType": "uint256",
							"name": "amount",
							"type": "uint256"
						}
					],
					"name": "approve",
					"outputs": [
						{
							"internalType": "bool",
							"name": "",
							"type": "bool"
						}
					],
					"stateMutability": "nonpayable",
					"type": "function"
				},
				{
					"inputs": [],
					"name": "available",
					"outputs": [
						{
							"internalType": "uint256",
							"name": "",
							"type": "uint256"
						}
					],
					"stateMutability": "view",
					"type": "function"
				},
				{
					"inputs": [],
					"name": "balance",
					"outputs": [
						{
							"internalType": "uint256",
							"name": "",
							"type": "uint256"
						}
					],
					"stateMutability": "view",
					"type": "function"
				},
				{
					"inputs": [
						{
							"internalType": "address",
							"name": "account",
							"type": "address"
						}
					],
					"name": "balanceOf",
					"outputs": [
						{
							"internalType": "uint256",
							"name": "",
							"type": "uint256"
						}
					],
					"stateMutability": "view",
					"type": "function"
				},
				{
					"inputs": [],
					"name": "decimals",
					"outputs": [
						{
							"internalType": "uint8",
							"name": "",
							"type": "uint8"
						}
					],
					"stateMutability": "view",
					"type": "function"
				},
				{
					"inputs": [
						{
							"internalType": "address",
							"name": "spender",
							"type": "address"
						},
						{
							"internalType": "uint256",
							"name": "subtractedValue",
							"type": "uint256"
						}
					],
					"name": "decreaseAllowance",
					"outputs": [
						{
							"internalType": "bool",
							"name": "",
							"type": "bool"
						}
					],
					"stateMutability": "nonpayable",
					"type": "function"
				},
				{
					"inputs": [
						{
							"internalType": "uint256",
							"name": "_amount",
							"type": "uint256"
						}
					],
					"name": "deposit",
					"outputs": [],
					"stateMutability": "nonpayable",
					"type": "function"
				},
				{
					"inputs": [],
					"name": "depositAll",
					"outputs": [],
					"stateMutability": "nonpayable",
					"type": "function"
				},
				{
					"inputs": [],
					"name": "earn",
					"outputs": [],
					"stateMutability": "nonpayable",
					"type": "function"
				},
				{
					"inputs": [],
					"name": "getPricePerFullShare",
					"outputs": [
						{
							"internalType": "uint256",
							"name": "",
							"type": "uint256"
						}
					],
					"stateMutability": "view",
					"type": "function"
				},
				{
					"inputs": [
						{
							"internalType": "address",
							"name": "_token",
							"type": "address"
						}
					],
					"name": "inCaseTokensGetStuck",
					"outputs": [],
					"stateMutability": "nonpayable",
					"type": "function"
				},
				{
					"inputs": [
						{
							"internalType": "address",
							"name": "spender",
							"type": "address"
						},
						{
							"internalType": "uint256",
							"name": "addedValue",
							"type": "uint256"
						}
					],
					"name": "increaseAllowance",
					"outputs": [
						{
							"internalType": "bool",
							"name": "",
							"type": "bool"
						}
					],
					"stateMutability": "nonpayable",
					"type": "function"
				},
				{
					"inputs": [],
					"name": "name",
					"outputs": [
						{
							"internalType": "string",
							"name": "",
							"type": "string"
						}
					],
					"stateMutability": "view",
					"type": "function"
				},
				{
					"inputs": [],
					"name": "owner",
					"outputs": [
						{
							"internalType": "address",
							"name": "",
							"type": "address"
						}
					],
					"stateMutability": "view",
					"type": "function"
				},
				{
					"inputs": [
						{
							"internalType": "address",
							"name": "_implementation",
							"type": "address"
						}
					],
					"name": "proposeStrat",
					"outputs": [],
					"stateMutability": "nonpayable",
					"type": "function"
				},
				{
					"inputs": [],
					"name": "renounceOwnership",
					"outputs": [],
					"stateMutability": "nonpayable",
					"type": "function"
				},
				{
					"inputs": [],
					"name": "stratCandidate",
					"outputs": [
						{
							"internalType": "address",
							"name": "implementation",
							"type": "address"
						},
						{
							"internalType": "uint256",
							"name": "proposedTime",
							"type": "uint256"
						}
					],
					"stateMutability": "view",
					"type": "function"
				},
				{
					"inputs": [],
					"name": "strategy",
					"outputs": [
						{
							"internalType": "contract IStrategy",
							"name": "",
							"type": "address"
						}
					],
					"stateMutability": "view",
					"type": "function"
				},
				{
					"inputs": [],
					"name": "symbol",
					"outputs": [
						{
							"internalType": "string",
							"name": "",
							"type": "string"
						}
					],
					"stateMutability": "view",
					"type": "function"
				},
				{
					"inputs": [],
					"name": "totalSupply",
					"outputs": [
						{
							"internalType": "uint256",
							"name": "",
							"type": "uint256"
						}
					],
					"stateMutability": "view",
					"type": "function"
				},
				{
					"inputs": [
						{
							"internalType": "address",
							"name": "recipient",
							"type": "address"
						},
						{
							"internalType": "uint256",
							"name": "amount",
							"type": "uint256"
						}
					],
					"name": "transfer",
					"outputs": [
						{
							"internalType": "bool",
							"name": "",
							"type": "bool"
						}
					],
					"stateMutability": "nonpayable",
					"type": "function"
				},
				{
					"inputs": [
						{
							"internalType": "address",
							"name": "sender",
							"type": "address"
						},
						{
							"internalType": "address",
							"name": "recipient",
							"type": "address"
						},
						{
							"internalType": "uint256",
							"name": "amount",
							"type": "uint256"
						}
					],
					"name": "transferFrom",
					"outputs": [
						{
							"internalType": "bool",
							"name": "",
							"type": "bool"
						}
					],
					"stateMutability": "nonpayable",
					"type": "function"
				},
				{
					"inputs": [
						{
							"internalType": "address",
							"name": "newOwner",
							"type": "address"
						}
					],
					"name": "transferOwnership",
					"outputs": [],
					"stateMutability": "nonpayable",
					"type": "function"
				},
				{
					"inputs": [],
					"name": "upgradeStrat",
					"outputs": [],
					"stateMutability": "nonpayable",
					"type": "function"
				},
				{
					"inputs": [],
					"name": "want",
					"outputs": [
						{
							"internalType": "contract IERC20",
							"name": "",
							"type": "address"
						}
					],
					"stateMutability": "view",
					"type": "function"
				},
				{
					"inputs": [
						{
							"internalType": "uint256",
							"name": "_shares",
							"type": "uint256"
						}
					],
					"name": "withdraw",
					"outputs": [],
					"stateMutability": "nonpayable",
					"type": "function"
				},
				{
					"inputs": [],
					"name": "withdrawAll",
					"outputs": [],
					"stateMutability": "nonpayable",
					"type": "function"
				}
			],
			"devdoc": {
				"details": "Implementation of a vault to deposit funds for yield optimizing. This is the contract that receives funds and that users interface with. The yield optimizing strategy itself is implemented in a separate 'Strategy.sol' contract.",
				"kind": "dev",
				"methods": {
					"allowance(address,address)": {
						"details": "See {IERC20-allowance}."
					},
					"approve(address,uint256)": {
						"details": "See {IERC20-approve}. Requirements: - `spender` cannot be the zero address."
					},
					"available()": {
						"details": "Custom logic in here for how much the vault allows to be borrowed. We return 100% of tokens for now. Under certain conditions we might want to keep some of the system funds at hand in the vault, instead of putting them to work."
					},
					"balance()": {
						"details": "It calculates the total underlying value of {token} held by the system. It takes into account the vault contract balance, the strategy contract balance  and the balance deployed in other contracts as part of the strategy."
					},
					"balanceOf(address)": {
						"details": "See {IERC20-balanceOf}."
					},
					"constructor": {
						"details": "Sets the value of {token} to the token that the vault will hold as underlying value. It initializes the vault's own 'moo' token. This token is minted when someone does a deposit. It is burned in order to withdraw the corresponding portion of the underlying assets.",
						"params": {
							"_approvalDelay": "the delay before a new strat can be approved.",
							"_name": "the name of the vault token.",
							"_strategy": "the address of the strategy.",
							"_symbol": "the symbol of the vault token."
						}
					},
					"decimals()": {
						"details": "Returns the number of decimals used to get its user representation. For example, if `decimals` equals `2`, a balance of `505` tokens should be displayed to a user as `5,05` (`505 / 10 ** 2`). Tokens usually opt for a value of 18, imitating the relationship between Ether and Wei. This is the value {ERC20} uses, unless {_setupDecimals} is called. NOTE: This information is only used for _display_ purposes: it in no way affects any of the arithmetic of the contract, including {IERC20-balanceOf} and {IERC20-transfer}."
					},
					"decreaseAllowance(address,uint256)": {
						"details": "Atomically decreases the allowance granted to `spender` by the caller. This is an alternative to {approve} that can be used as a mitigation for problems described in {IERC20-approve}. Emits an {Approval} event indicating the updated allowance. Requirements: - `spender` cannot be the zero address. - `spender` must have allowance for the caller of at least `subtractedValue`."
					},
					"deposit(uint256)": {
						"details": "The entrypoint of funds into the system. People deposit with this function into the vault. The vault is then in charge of sending funds into the strategy."
					},
					"depositAll()": {
						"details": "A helper function to call deposit() with all the sender's funds."
					},
					"earn()": {
						"details": "Function to send funds into the strategy and put them to work. It's primarily called by the vault's deposit() function."
					},
					"getPricePerFullShare()": {
						"details": "Function for various UIs to display the current value of one of our yield tokens. Returns an uint256 with 18 decimals of how much underlying asset one vault share represents."
					},
					"inCaseTokensGetStuck(address)": {
						"details": "Rescues random funds stuck that the strat can't handle.",
						"params": {
							"_token": "address of the token to rescue."
						}
					},
					"increaseAllowance(address,uint256)": {
						"details": "Atomically increases the allowance granted to `spender` by the caller. This is an alternative to {approve} that can be used as a mitigation for problems described in {IERC20-approve}. Emits an {Approval} event indicating the updated allowance. Requirements: - `spender` cannot be the zero address."
					},
					"name()": {
						"details": "Returns the name of the token."
					},
					"owner()": {
						"details": "Returns the address of the current owner."
					},
					"proposeStrat(address)": {
						"details": "Sets the candidate for the new strat to use with this vault.",
						"params": {
							"_implementation": "The address of the candidate strategy.  "
						}
					},
					"renounceOwnership()": {
						"details": "Leaves the contract without owner. It will not be possible to call `onlyOwner` functions anymore. Can only be called by the current owner. NOTE: Renouncing ownership will leave the contract without an owner, thereby removing any functionality that is only available to the owner."
					},
					"symbol()": {
						"details": "Returns the symbol of the token, usually a shorter version of the name."
					},
					"totalSupply()": {
						"details": "See {IERC20-totalSupply}."
					},
					"transfer(address,uint256)": {
						"details": "See {IERC20-transfer}. Requirements: - `recipient` cannot be the zero address. - the caller must have a balance of at least `amount`."
					},
					"transferFrom(address,address,uint256)": {
						"details": "See {IERC20-transferFrom}. Emits an {Approval} event indicating the updated allowance. This is not required by the EIP. See the note at the beginning of {ERC20}. Requirements: - `sender` and `recipient` cannot be the zero address. - `sender` must have a balance of at least `amount`. - the caller must have allowance for ``sender``'s tokens of at least `amount`."
					},
					"transferOwnership(address)": {
						"details": "Transfers ownership of the contract to a new account (`newOwner`). Can only be called by the current owner."
					},
					"upgradeStrat()": {
						"details": "It switches the active strat for the strat candidate. After upgrading, the  candidate implementation is set to the 0x00 address, and proposedTime to a time  happening in +100 years for safety. "
					},
					"withdraw(uint256)": {
						"details": "Function to exit the system. The vault will withdraw the required tokens from the strategy and pay up the token holder. A proportional number of IOU tokens are burned in the process."
					},
					"withdrawAll()": {
						"details": "A helper function to call withdraw() with all the sender's funds."
					}
				},
				"version": 1
			},
			"evm": {
				"assembly": "    /* \"Vault/EvolleVault.sol\":39098:45669  contract EvolleVault is ERC20, Ownable, ReentrancyGuard {... */\n  mstore(0x40, 0xa0)\n    /* \"Vault/EvolleVault.sol\":40263:40531  constructor (... */\n  callvalue\n  dup1\n  iszero\n  tag_1\n  jumpi\n  0x00\n  dup1\n  revert\ntag_1:\n  pop\n  mload(0x40)\n  sub(codesize, bytecodeSize)\n  dup1\n  bytecodeSize\n  dup4\n  codecopy\n  dup2\n  dup2\n  add\n  0x40\n  mstore\n  0x80\n  dup2\n  lt\n  iszero\n  tag_2\n  jumpi\n  0x00\n  dup1\n  revert\ntag_2:\n  dup2\n  mload\n  0x20\n  dup4\n  add\n  dup1\n  mload\n  mload(0x40)\n  swap3\n  swap5\n  swap3\n  swap4\n  dup4\n  add\n  swap3\n  swap2\n  swap1\n  dup5\n  0x0100000000\n  dup3\n  gt\n  iszero\n  tag_3\n  jumpi\n  0x00\n  dup1\n  revert\ntag_3:\n  swap1\n  dup4\n  add\n  swap1\n  0x20\n  dup3\n  add\n  dup6\n  dup2\n  gt\n  iszero\n  tag_4\n  jumpi\n  0x00\n  dup1\n  revert\ntag_4:\n  dup3\n  mload\n  0x0100000000\n  dup2\n  gt\n  dup3\n  dup3\n  add\n  dup9\n  lt\n  or\n  iszero\n  tag_5\n  jumpi\n  0x00\n  dup1\n  revert\ntag_5:\n  dup3\n  mstore\n  pop\n  dup2\n  mload\n  0x20\n  swap2\n  dup3\n  add\n  swap3\n  swap1\n  swap2\n  add\n  swap1\n  dup1\n  dup4\n  dup4\n  0x00\ntag_6:\n  dup4\n  dup2\n  lt\n  iszero\n  tag_8\n  jumpi\n  dup2\n  dup2\n  add\n  mload\n  dup4\n  dup3\n  add\n  mstore\n  0x20\n  add\n  jump(tag_6)\ntag_8:\n  pop\n  pop\n  pop\n  pop\n  swap1\n  pop\n  swap1\n  dup2\n  add\n  swap1\n  0x1f\n  and\n  dup1\n  iszero\n  tag_9\n  jumpi\n  dup1\n  dup3\n  sub\n  dup1\n  mload\n  0x01\n  dup4\n  0x20\n  sub\n  0x0100\n  exp\n  sub\n  not\n  and\n  dup2\n  mstore\n  0x20\n  add\n  swap2\n  pop\ntag_9:\n  pop\n  0x40\n  mstore\n  0x20\n  add\n  dup1\n  mload\n  mload(0x40)\n  swap4\n  swap3\n  swap2\n  swap1\n  dup5\n  0x0100000000\n  dup3\n  gt\n  iszero\n  tag_10\n  jumpi\n  0x00\n  dup1\n  revert\ntag_10:\n  swap1\n  dup4\n  add\n  swap1\n  0x20\n  dup3\n  add\n  dup6\n  dup2\n  gt\n  iszero\n  tag_11\n  jumpi\n  0x00\n  dup1\n  revert\ntag_11:\n  dup3\n  mload\n  0x0100000000\n  dup2\n  gt\n  dup3\n  dup3\n  add\n  dup9\n  lt\n  or\n  iszero\n  tag_12\n  jumpi\n  0x00\n  dup1\n  revert\ntag_12:\n  dup3\n  mstore\n  pop\n  dup2\n  mload\n  0x20\n  swap2\n  dup3\n  add\n  swap3\n  swap1\n  swap2\n  add\n  swap1\n  dup1\n  dup4\n  dup4\n  0x00\ntag_13:\n  dup4\n  dup2\n  lt\n  iszero\n  tag_15\n  jumpi\n  dup2\n  dup2\n  add\n  mload\n  dup4\n  dup3\n  add\n  mstore\n  0x20\n  add\n  jump(tag_13)\ntag_15:\n  pop\n  pop\n  pop\n  pop\n  swap1\n  pop\n  swap1\n  dup2\n  add\n  swap1\n  0x1f\n  and\n  dup1\n  iszero\n  tag_16\n  jumpi\n  dup1\n  dup3\n  sub\n  dup1\n  mload\n  0x01\n  dup4\n  0x20\n  sub\n  0x0100\n  exp\n  sub\n  not\n  and\n  dup2\n  mstore\n  0x20\n  add\n  swap2\n  pop\ntag_16:\n  pop\n  0x40\n  mstore\n  0x20\n  swap1\n  dup2\n  add\n  mload\n    /* \"Vault/EvolleVault.sol\":12908:12921  _name = name_ */\n  dup6\n  mload\n    /* \"Vault/EvolleVault.sol\":40263:40531  constructor (... */\n  swap1\n  swap4\n  pop\n    /* \"Vault/EvolleVault.sol\":40425:40430  _name */\n  dup6\n  swap3\n  pop\n    /* \"Vault/EvolleVault.sol\":40440:40447  _symbol */\n  dup5\n  swap2\n    /* \"Vault/EvolleVault.sol\":12908:12921  _name = name_ */\n  tag_22\n  swap2\n    /* \"Vault/EvolleVault.sol\":12908:12913  _name */\n  0x03\n  swap2\n    /* \"Vault/EvolleVault.sol\":12908:12921  _name = name_ */\n  dup6\n  add\n  swap1\n  tag_23\n  jump\t// in\ntag_22:\n  pop\n    /* \"Vault/EvolleVault.sol\":12931:12948  _symbol = symbol_ */\n  dup1\n  mload\n  tag_24\n  swap1\n    /* \"Vault/EvolleVault.sol\":12931:12938  _symbol */\n  0x04\n  swap1\n    /* \"Vault/EvolleVault.sol\":12931:12948  _symbol = symbol_ */\n  0x20\n  dup5\n  add\n  swap1\n  tag_23\n  jump\t// in\ntag_24:\n  pop\n  pop\n    /* \"Vault/EvolleVault.sol\":12958:12967  _decimals */\n  0x05\n    /* \"Vault/EvolleVault.sol\":12958:12972  _decimals = 18 */\n  dup1\n  sload\n  not(0xff)\n  and\n    /* \"Vault/EvolleVault.sol\":12970:12972  18 */\n  0x12\n    /* \"Vault/EvolleVault.sol\":12958:12972  _decimals = 18 */\n  or\n  swap1\n  sstore\n  pop\n    /* \"Vault/EvolleVault.sol\":12958:12967  _decimals */\n  0x00\n    /* \"Vault/EvolleVault.sol\":34091:34103  _msgSender() */\n  tag_26\n    /* \"Vault/EvolleVault.sol\":34091:34101  _msgSender */\n  tag_27\n    /* \"Vault/EvolleVault.sol\":34091:34103  _msgSender() */\n  jump\t// in\ntag_26:\n    /* \"Vault/EvolleVault.sol\":34113:34119  _owner */\n  0x05\n    /* \"Vault/EvolleVault.sol\":34113:34131  _owner = msgSender */\n  dup1\n  sload\n  not(sub(shl(0xa8, 0x01), 0x0100))\n  and\n  0x0100\n  sub(shl(0xa0, 0x01), 0x01)\n  dup5\n  and\n  swap1\n  dup2\n  mul\n  swap2\n  swap1\n  swap2\n  or\n  swap1\n  swap2\n  sstore\n    /* \"Vault/EvolleVault.sol\":34146:34189  OwnershipTransferred(address(0), msgSender) */\n  mload(0x40)\n    /* \"Vault/EvolleVault.sol\":34113:34131  _owner = msgSender */\n  swap2\n  swap3\n  pop\n  swap1\n  0x00\n  swap1\n    /* \"Vault/EvolleVault.sol\":34146:34189  OwnershipTransferred(address(0), msgSender) */\n  0x8be0079c531659141344cd1fd0a4f28419497f9722a3daafe3b4186f6b6457e0\n  swap1\n  dup3\n  swap1\n  log3\n  pop\n    /* \"Vault/EvolleVault.sol\":37123:37124  1 */\n  0x01\n    /* \"Vault/EvolleVault.sol\":37238:37245  _status */\n  0x06\n    /* \"Vault/EvolleVault.sol\":37238:37260  _status = _NOT_ENTERED */\n  sstore\n    /* \"Vault/EvolleVault.sol\":40464:40472  strategy */\n  0x09\n    /* \"Vault/EvolleVault.sol\":40464:40484  strategy = _strategy */\n  dup1\n  sload\n  not(sub(shl(0xa0, 0x01), 0x01))\n  and\n  sub(shl(0xa0, 0x01), 0x01)\n  swap6\n  swap1\n  swap6\n  and\n  swap5\n  swap1\n  swap5\n  or\n  swap1\n  swap4\n  sstore\n  pop\n  pop\n    /* \"Vault/EvolleVault.sol\":40494:40524  approvalDelay = _approvalDelay */\n  0x80\n  mstore\n    /* \"Vault/EvolleVault.sol\":39098:45669  contract EvolleVault is ERC20, Ownable, ReentrancyGuard {... */\n  jump(tag_30)\n    /* \"Vault/EvolleVault.sol\":598:702  function _msgSender() internal view virtual returns (address payable) {... */\ntag_27:\n    /* \"Vault/EvolleVault.sol\":685:695  msg.sender */\n  caller\n    /* \"Vault/EvolleVault.sol\":598:702  function _msgSender() internal view virtual returns (address payable) {... */\n  swap1\n  jump\t// out\n    /* \"Vault/EvolleVault.sol\":39098:45669  contract EvolleVault is ERC20, Ownable, ReentrancyGuard {... */\ntag_23:\n  dup3\n  dup1\n  sload\n  0x01\n  dup2\n  0x01\n  and\n  iszero\n  0x0100\n  mul\n  sub\n  and\n  0x02\n  swap1\n  div\n  swap1\n  0x00\n  mstore\n  keccak256(0x00, 0x20)\n  swap1\n  0x1f\n  add\n  0x20\n  swap1\n  div\n  dup2\n  add\n  swap3\n  dup3\n  0x1f\n  lt\n  tag_33\n  jumpi\n  dup1\n  mload\n  not(0xff)\n  and\n  dup4\n  dup1\n  add\n  or\n  dup6\n  sstore\n  jump(tag_35)\ntag_33:\n  dup3\n  dup1\n  add\n  0x01\n  add\n  dup6\n  sstore\n  dup3\n  iszero\n  tag_35\n  jumpi\n  swap2\n  dup3\n  add\ntag_34:\n  dup3\n  dup2\n  gt\n  iszero\n  tag_35\n  jumpi\n  dup3\n  mload\n  dup3\n  sstore\n  swap2\n  0x20\n  add\n  swap2\n  swap1\n  0x01\n  add\n  swap1\n  jump(tag_34)\ntag_35:\n  pop\n  tag_36\n  swap3\n  swap2\n  pop\n  tag_37\n  jump\t// in\ntag_36:\n  pop\n  swap1\n  jump\t// out\ntag_37:\ntag_38:\n  dup1\n  dup3\n  gt\n  iszero\n  tag_36\n  jumpi\n  0x00\n  dup2\n  sstore\n  0x01\n  add\n  jump(tag_38)\ntag_30:\n  mload(0x80)\n  codecopy(0x00, dataOffset(sub_0), dataSize(sub_0))\n  assignImmutable(\"0xbd4cd594c0d7e7808ed6d371a1eac9e421715fa066e86940ce0d6d7ca2323404\")\n  return(0x00, dataSize(sub_0))\nstop\n\nsub_0: assembly {\n        /* \"Vault/EvolleVault.sol\":39098:45669  contract EvolleVault is ERC20, Ownable, ReentrancyGuard {... */\n      mstore(0x40, 0x80)\n      callvalue\n      dup1\n      iszero\n      tag_1\n      jumpi\n      0x00\n      dup1\n      revert\n    tag_1:\n      pop\n      jumpi(tag_2, lt(calldatasize, 0x04))\n      shr(0xe0, calldataload(0x00))\n      dup1\n      0x853828b6\n      gt\n      tag_32\n      jumpi\n      dup1\n      0xb6b55f25\n      gt\n      tag_33\n      jumpi\n      dup1\n      0xdef68a9c\n      gt\n      tag_34\n      jumpi\n      dup1\n      0xdef68a9c\n      eq\n      tag_28\n      jumpi\n      dup1\n      0xe2d1e75c\n      eq\n      tag_29\n      jumpi\n      dup1\n      0xe6685244\n      eq\n      tag_30\n      jumpi\n      dup1\n      0xf2fde38b\n      eq\n      tag_31\n      jumpi\n      jump(tag_2)\n    tag_34:\n      dup1\n      0xb6b55f25\n      eq\n      tag_24\n      jumpi\n      dup1\n      0xd389800f\n      eq\n      tag_25\n      jumpi\n      dup1\n      0xdd62ed3e\n      eq\n      tag_26\n      jumpi\n      dup1\n      0xde5f6268\n      eq\n      tag_27\n      jumpi\n      jump(tag_2)\n    tag_33:\n      dup1\n      0xa457c2d7\n      gt\n      tag_35\n      jumpi\n      dup1\n      0xa457c2d7\n      eq\n      tag_20\n      jumpi\n      dup1\n      0xa8c62e76\n      eq\n      tag_21\n      jumpi\n      dup1\n      0xa9059cbb\n      eq\n      tag_22\n      jumpi\n      dup1\n      0xb69ef8a8\n      eq\n      tag_23\n      jumpi\n      jump(tag_2)\n    tag_35:\n      dup1\n      0x853828b6\n      eq\n      tag_17\n      jumpi\n      dup1\n      0x8da5cb5b\n      eq\n      tag_18\n      jumpi\n      dup1\n      0x95d89b41\n      eq\n      tag_19\n      jumpi\n      jump(tag_2)\n    tag_32:\n      dup1\n      0x39509351\n      gt\n      tag_36\n      jumpi\n      dup1\n      0x70a08231\n      gt\n      tag_37\n      jumpi\n      dup1\n      0x70a08231\n      eq\n      tag_13\n      jumpi\n      dup1\n      0x715018a6\n      eq\n      tag_14\n      jumpi\n      dup1\n      0x76dfabb8\n      eq\n      tag_15\n      jumpi\n      dup1\n      0x77c7b8fc\n      eq\n      tag_16\n      jumpi\n      jump(tag_2)\n    tag_37:\n      dup1\n      0x39509351\n      eq\n      tag_10\n      jumpi\n      dup1\n      0x48a0d754\n      eq\n      tag_11\n      jumpi\n      dup1\n      0x5b12ff9b\n      eq\n      tag_12\n      jumpi\n      jump(tag_2)\n    tag_36:\n      dup1\n      0x1f1fcd51\n      gt\n      tag_38\n      jumpi\n      dup1\n      0x1f1fcd51\n      eq\n      tag_6\n      jumpi\n      dup1\n      0x23b872dd\n      eq\n      tag_7\n      jumpi\n      dup1\n      0x2e1a7d4d\n      eq\n      tag_8\n      jumpi\n      dup1\n      0x313ce567\n      eq\n      tag_9\n      jumpi\n      jump(tag_2)\n    tag_38:\n      dup1\n      0x06fdde03\n      eq\n      tag_3\n      jumpi\n      dup1\n      0x095ea7b3\n      eq\n      tag_4\n      jumpi\n      dup1\n      0x18160ddd\n      eq\n      tag_5\n      jumpi\n    tag_2:\n      0x00\n      dup1\n      revert\n        /* \"Vault/EvolleVault.sol\":13044:13133  function name() public view virtual returns (string memory) {... */\n    tag_3:\n      tag_39\n      tag_40\n      jump\t// in\n    tag_39:\n      0x40\n      dup1\n      mload\n      0x20\n      dup1\n      dup3\n      mstore\n      dup4\n      mload\n      dup2\n      dup4\n      add\n      mstore\n      dup4\n      mload\n      swap2\n      swap3\n      dup4\n      swap3\n      swap1\n      dup4\n      add\n      swap2\n      dup6\n      add\n      swap1\n      dup1\n      dup4\n      dup4\n      0x00\n    tag_41:\n      dup4\n      dup2\n      lt\n      iszero\n      tag_43\n      jumpi\n      dup2\n      dup2\n      add\n      mload\n      dup4\n      dup3\n      add\n      mstore\n      0x20\n      add\n      jump(tag_41)\n    tag_43:\n      pop\n      pop\n      pop\n      pop\n      swap1\n      pop\n      swap1\n      dup2\n      add\n      swap1\n      0x1f\n      and\n      dup1\n      iszero\n      tag_44\n      jumpi\n      dup1\n      dup3\n      sub\n      dup1\n      mload\n      0x01\n      dup4\n      0x20\n      sub\n      0x0100\n      exp\n      sub\n      not\n      and\n      dup2\n      mstore\n      0x20\n      add\n      swap2\n      pop\n    tag_44:\n      pop\n      swap3\n      pop\n      pop\n      pop\n      mload(0x40)\n      dup1\n      swap2\n      sub\n      swap1\n      return\n        /* \"Vault/EvolleVault.sol\":15120:15286  function approve(address spender, uint256 amount) public virtual override returns (bool) {... */\n    tag_4:\n      tag_45\n      0x04\n      dup1\n      calldatasize\n      sub\n      0x40\n      dup2\n      lt\n      iszero\n      tag_46\n      jumpi\n      0x00\n      dup1\n      revert\n    tag_46:\n      pop\n      sub(shl(0xa0, 0x01), 0x01)\n      dup2\n      calldataload\n      and\n      swap1\n      0x20\n      add\n      calldataload\n      tag_47\n      jump\t// in\n    tag_45:\n      0x40\n      dup1\n      mload\n      swap2\n      iszero\n      iszero\n      dup3\n      mstore\n      mload\n      swap1\n      dup2\n      swap1\n      sub\n      0x20\n      add\n      swap1\n      return\n        /* \"Vault/EvolleVault.sol\":14111:14217  function totalSupply() public view virtual override returns (uint256) {... */\n    tag_5:\n      tag_48\n      tag_49\n      jump\t// in\n    tag_48:\n      0x40\n      dup1\n      mload\n      swap2\n      dup3\n      mstore\n      mload\n      swap1\n      dup2\n      swap1\n      sub\n      0x20\n      add\n      swap1\n      return\n        /* \"Vault/EvolleVault.sol\":40537:40629  function want() public view returns (IERC20) {... */\n    tag_6:\n      tag_50\n      tag_51\n      jump\t// in\n    tag_50:\n      0x40\n      dup1\n      mload\n      sub(shl(0xa0, 0x01), 0x01)\n      swap1\n      swap3\n      and\n      dup3\n      mstore\n      mload\n      swap1\n      dup2\n      swap1\n      sub\n      0x20\n      add\n      swap1\n      return\n        /* \"Vault/EvolleVault.sol\":15753:16070  function transferFrom(address sender, address recipient, uint256 amount) public virtual override returns (bool) {... */\n    tag_7:\n      tag_45\n      0x04\n      dup1\n      calldatasize\n      sub\n      0x60\n      dup2\n      lt\n      iszero\n      tag_53\n      jumpi\n      0x00\n      dup1\n      revert\n    tag_53:\n      pop\n      sub(shl(0xa0, 0x01), 0x01)\n      dup2\n      calldataload\n      dup2\n      and\n      swap2\n      0x20\n      dup2\n      add\n      calldataload\n      swap1\n      swap2\n      and\n      swap1\n      0x40\n      add\n      calldataload\n      tag_54\n      jump\t// in\n        /* \"Vault/EvolleVault.sol\":43437:43979  function withdraw(uint256 _shares) public {... */\n    tag_8:\n      tag_55\n      0x04\n      dup1\n      calldatasize\n      sub\n      0x20\n      dup2\n      lt\n      iszero\n      tag_56\n      jumpi\n      0x00\n      dup1\n      revert\n    tag_56:\n      pop\n      calldataload\n      tag_57\n      jump\t// in\n    tag_55:\n      stop\n        /* \"Vault/EvolleVault.sol\":13962:14051  function decimals() public view virtual returns (uint8) {... */\n    tag_9:\n      tag_58\n      tag_59\n      jump\t// in\n    tag_58:\n      0x40\n      dup1\n      mload\n      0xff\n      swap1\n      swap3\n      and\n      dup3\n      mstore\n      mload\n      swap1\n      dup2\n      swap1\n      sub\n      0x20\n      add\n      swap1\n      return\n        /* \"Vault/EvolleVault.sol\":16465:16680  function increaseAllowance(address spender, uint256 addedValue) public virtual returns (bool) {... */\n    tag_10:\n      tag_45\n      0x04\n      dup1\n      calldatasize\n      sub\n      0x40\n      dup2\n      lt\n      iszero\n      tag_61\n      jumpi\n      0x00\n      dup1\n      revert\n    tag_61:\n      pop\n      sub(shl(0xa0, 0x01), 0x01)\n      dup2\n      calldataload\n      and\n      swap1\n      0x20\n      add\n      calldataload\n      tag_62\n      jump\t// in\n        /* \"Vault/EvolleVault.sol\":41320:41426  function available() public view returns (uint256) {... */\n    tag_11:\n      tag_48\n      tag_64\n      jump\t// in\n        /* \"Vault/EvolleVault.sol\":44146:44516  function proposeStrat(address _implementation) public onlyOwner {... */\n    tag_12:\n      tag_55\n      0x04\n      dup1\n      calldatasize\n      sub\n      0x20\n      dup2\n      lt\n      iszero\n      tag_66\n      jumpi\n      0x00\n      dup1\n      revert\n    tag_66:\n      pop\n      calldataload\n      sub(shl(0xa0, 0x01), 0x01)\n      and\n      tag_67\n      jump\t// in\n        /* \"Vault/EvolleVault.sol\":14275:14400  function balanceOf(address account) public view virtual override returns (uint256) {... */\n    tag_13:\n      tag_48\n      0x04\n      dup1\n      calldatasize\n      sub\n      0x20\n      dup2\n      lt\n      iszero\n      tag_69\n      jumpi\n      0x00\n      dup1\n      revert\n    tag_69:\n      pop\n      calldataload\n      sub(shl(0xa0, 0x01), 0x01)\n      and\n      tag_70\n      jump\t// in\n        /* \"Vault/EvolleVault.sol\":34904:35049  function renounceOwnership() public virtual onlyOwner {... */\n    tag_14:\n      tag_55\n      tag_72\n      jump\t// in\n        /* \"Vault/EvolleVault.sol\":39367:39403  StratCandidate public stratCandidate */\n    tag_15:\n      tag_73\n      tag_74\n      jump\t// in\n    tag_73:\n      0x40\n      dup1\n      mload\n      sub(shl(0xa0, 0x01), 0x01)\n      swap1\n      swap4\n      and\n      dup4\n      mstore\n      0x20\n      dup4\n      add\n      swap2\n      swap1\n      swap2\n      mstore\n      dup1\n      mload\n      swap2\n      dup3\n      swap1\n      sub\n      add\n      swap1\n      return\n        /* \"Vault/EvolleVault.sol\":41642:41794  function getPricePerFullShare() public view returns (uint256) {... */\n    tag_16:\n      tag_48\n      tag_76\n      jump\t// in\n        /* \"Vault/EvolleVault.sol\":43126:43206  function withdrawAll() external {... */\n    tag_17:\n      tag_55\n      tag_78\n      jump\t// in\n        /* \"Vault/EvolleVault.sol\":34272:34357  function owner() public view virtual returns (address) {... */\n    tag_18:\n      tag_50\n      tag_80\n      jump\t// in\n        /* \"Vault/EvolleVault.sol\":13246:13339  function symbol() public view virtual returns (string memory) {... */\n    tag_19:\n      tag_39\n      tag_82\n      jump\t// in\n        /* \"Vault/EvolleVault.sol\":17167:17433  function decreaseAllowance(address spender, uint256 subtractedValue) public virtual returns (bool) {... */\n    tag_20:\n      tag_45\n      0x04\n      dup1\n      calldatasize\n      sub\n      0x40\n      dup2\n      lt\n      iszero\n      tag_88\n      jumpi\n      0x00\n      dup1\n      revert\n    tag_88:\n      pop\n      sub(shl(0xa0, 0x01), 0x01)\n      dup2\n      calldataload\n      and\n      swap1\n      0x20\n      add\n      calldataload\n      tag_89\n      jump\t// in\n        /* \"Vault/EvolleVault.sol\":39460:39485  IStrategy public strategy */\n    tag_21:\n      tag_50\n      tag_91\n      jump\t// in\n        /* \"Vault/EvolleVault.sol\":14603:14775  function transfer(address recipient, uint256 amount) public virtual override returns (bool) {... */\n    tag_22:\n      tag_45\n      0x04\n      dup1\n      calldatasize\n      sub\n      0x40\n      dup2\n      lt\n      iszero\n      tag_93\n      jumpi\n      0x00\n      dup1\n      revert\n    tag_93:\n      pop\n      sub(shl(0xa0, 0x01), 0x01)\n      dup2\n      calldataload\n      and\n      swap1\n      0x20\n      add\n      calldataload\n      tag_94\n      jump\t// in\n        /* \"Vault/EvolleVault.sol\":40899:41037  function balance() public view returns (uint) {... */\n    tag_23:\n      tag_48\n      tag_96\n      jump\t// in\n        /* \"Vault/EvolleVault.sol\":42174:42720  function deposit(uint _amount) public nonReentrant {... */\n    tag_24:\n      tag_55\n      0x04\n      dup1\n      calldatasize\n      sub\n      0x20\n      dup2\n      lt\n      iszero\n      tag_98\n      jumpi\n      0x00\n      dup1\n      revert\n    tag_98:\n      pop\n      calldataload\n      tag_99\n      jump\t// in\n        /* \"Vault/EvolleVault.sol\":42881:43026  function earn() public {... */\n    tag_25:\n      tag_55\n      tag_101\n      jump\t// in\n        /* \"Vault/EvolleVault.sol\":14833:14982  function allowance(address owner, address spender) public view virtual override returns (uint256) {... */\n    tag_26:\n      tag_48\n      0x04\n      dup1\n      calldatasize\n      sub\n      0x40\n      dup2\n      lt\n      iszero\n      tag_103\n      jumpi\n      0x00\n      dup1\n      revert\n    tag_103:\n      pop\n      sub(shl(0xa0, 0x01), 0x01)\n      dup2\n      calldataload\n      dup2\n      and\n      swap2\n      0x20\n      add\n      calldataload\n      and\n      tag_104\n      jump\t// in\n        /* \"Vault/EvolleVault.sol\":41893:41978  function depositAll() external {... */\n    tag_27:\n      tag_55\n      tag_106\n      jump\t// in\n        /* \"Vault/EvolleVault.sol\":45417:45667  function inCaseTokensGetStuck(address _token) external onlyOwner {... */\n    tag_28:\n      tag_55\n      0x04\n      dup1\n      calldatasize\n      sub\n      0x20\n      dup2\n      lt\n      iszero\n      tag_108\n      jumpi\n      0x00\n      dup1\n      revert\n    tag_108:\n      pop\n      calldataload\n      sub(shl(0xa0, 0x01), 0x01)\n      and\n      tag_109\n      jump\t// in\n        /* \"Vault/EvolleVault.sol\":39572:39610  uint256 public immutable approvalDelay */\n    tag_29:\n      tag_48\n      tag_111\n      jump\t// in\n        /* \"Vault/EvolleVault.sol\":44760:45274  function upgradeStrat() public onlyOwner {... */\n    tag_30:\n      tag_55\n      tag_113\n      jump\t// in\n        /* \"Vault/EvolleVault.sol\":35198:35438  function transferOwnership(address newOwner) public virtual onlyOwner {... */\n    tag_31:\n      tag_55\n      0x04\n      dup1\n      calldatasize\n      sub\n      0x20\n      dup2\n      lt\n      iszero\n      tag_115\n      jumpi\n      0x00\n      dup1\n      revert\n    tag_115:\n      pop\n      calldataload\n      sub(shl(0xa0, 0x01), 0x01)\n      and\n      tag_116\n      jump\t// in\n        /* \"Vault/EvolleVault.sol\":13044:13133  function name() public view virtual returns (string memory) {... */\n    tag_40:\n        /* \"Vault/EvolleVault.sol\":13121:13126  _name */\n      0x03\n        /* \"Vault/EvolleVault.sol\":13114:13126  return _name */\n      dup1\n      sload\n      0x40\n      dup1\n      mload\n      0x20\n      0x1f\n      0x02\n      not(0x00)\n      0x0100\n      0x01\n      dup9\n      and\n      iszero\n      mul\n      add\n      swap1\n      swap6\n      and\n      swap5\n      swap1\n      swap5\n      div\n      swap4\n      dup5\n      add\n      dup2\n      swap1\n      div\n      dup2\n      mul\n      dup3\n      add\n      dup2\n      add\n      swap1\n      swap3\n      mstore\n      dup3\n      dup2\n      mstore\n        /* \"Vault/EvolleVault.sol\":13089:13102  string memory */\n      0x60\n      swap4\n        /* \"Vault/EvolleVault.sol\":13114:13126  return _name */\n      swap1\n      swap3\n        /* \"Vault/EvolleVault.sol\":13121:13126  _name */\n      swap1\n      swap2\n        /* \"Vault/EvolleVault.sol\":13114:13126  return _name */\n      dup4\n      add\n        /* \"Vault/EvolleVault.sol\":13121:13126  _name */\n      dup3\n        /* \"Vault/EvolleVault.sol\":13114:13126  return _name */\n      dup3\n      dup1\n      iszero\n      tag_118\n      jumpi\n      dup1\n      0x1f\n      lt\n      tag_119\n      jumpi\n      0x0100\n      dup1\n      dup4\n      sload\n      div\n      mul\n      dup4\n      mstore\n      swap2\n      0x20\n      add\n      swap2\n      jump(tag_118)\n    tag_119:\n      dup3\n      add\n      swap2\n      swap1\n      0x00\n      mstore\n      keccak256(0x00, 0x20)\n      swap1\n    tag_120:\n      dup2\n      sload\n      dup2\n      mstore\n      swap1\n      0x01\n      add\n      swap1\n      0x20\n      add\n      dup1\n      dup4\n      gt\n      tag_120\n      jumpi\n      dup3\n      swap1\n      sub\n      0x1f\n      and\n      dup3\n      add\n      swap2\n    tag_118:\n      pop\n      pop\n      pop\n      pop\n      pop\n      swap1\n      pop\n        /* \"Vault/EvolleVault.sol\":13044:13133  function name() public view virtual returns (string memory) {... */\n      swap1\n      jump\t// out\n        /* \"Vault/EvolleVault.sol\":15120:15286  function approve(address spender, uint256 amount) public virtual override returns (bool) {... */\n    tag_47:\n        /* \"Vault/EvolleVault.sol\":15203:15207  bool */\n      0x00\n        /* \"Vault/EvolleVault.sol\":15219:15258  _approve(_msgSender(), spender, amount) */\n      tag_122\n        /* \"Vault/EvolleVault.sol\":15228:15240  _msgSender() */\n      tag_123\n        /* \"Vault/EvolleVault.sol\":15228:15238  _msgSender */\n      tag_124\n        /* \"Vault/EvolleVault.sol\":15228:15240  _msgSender() */\n      jump\t// in\n    tag_123:\n        /* \"Vault/EvolleVault.sol\":15242:15249  spender */\n      dup5\n        /* \"Vault/EvolleVault.sol\":15251:15257  amount */\n      dup5\n        /* \"Vault/EvolleVault.sol\":15219:15227  _approve */\n      tag_125\n        /* \"Vault/EvolleVault.sol\":15219:15258  _approve(_msgSender(), spender, amount) */\n      jump\t// in\n    tag_122:\n      pop\n        /* \"Vault/EvolleVault.sol\":15275:15279  true */\n      0x01\n        /* \"Vault/EvolleVault.sol\":15120:15286  function approve(address spender, uint256 amount) public virtual override returns (bool) {... */\n    tag_121:\n      swap3\n      swap2\n      pop\n      pop\n      jump\t// out\n        /* \"Vault/EvolleVault.sol\":14111:14217  function totalSupply() public view virtual override returns (uint256) {... */\n    tag_49:\n        /* \"Vault/EvolleVault.sol\":14198:14210  _totalSupply */\n      sload(0x02)\n        /* \"Vault/EvolleVault.sol\":14111:14217  function totalSupply() public view virtual override returns (uint256) {... */\n      swap1\n      jump\t// out\n        /* \"Vault/EvolleVault.sol\":40537:40629  function want() public view returns (IERC20) {... */\n    tag_51:\n        /* \"Vault/EvolleVault.sol\":40606:40614  strategy */\n      sload(0x09)\n        /* \"Vault/EvolleVault.sol\":40606:40621  strategy.want() */\n      0x40\n      dup1\n      mload\n      shl(0xe0, 0x1f1fcd51)\n      dup2\n      mstore\n      swap1\n      mload\n        /* \"Vault/EvolleVault.sol\":40574:40580  IERC20 */\n      0x00\n      swap3\n      sub(shl(0xa0, 0x01), 0x01)\n        /* \"Vault/EvolleVault.sol\":40606:40614  strategy */\n      and\n      swap2\n        /* \"Vault/EvolleVault.sol\":40606:40619  strategy.want */\n      0x1f1fcd51\n      swap2\n        /* \"Vault/EvolleVault.sol\":40606:40621  strategy.want() */\n      0x04\n      dup1\n      dup4\n      add\n      swap3\n      0x20\n      swap3\n      swap2\n      swap1\n      dup3\n      swap1\n      sub\n      add\n      dup2\n        /* \"Vault/EvolleVault.sol\":40606:40614  strategy */\n      dup7\n        /* \"Vault/EvolleVault.sol\":40606:40621  strategy.want() */\n      dup1\n      extcodesize\n      iszero\n      dup1\n      iszero\n      tag_128\n      jumpi\n      0x00\n      dup1\n      revert\n    tag_128:\n      pop\n      gas\n      staticcall\n      iszero\n      dup1\n      iszero\n      tag_130\n      jumpi\n      returndatasize\n      0x00\n      dup1\n      returndatacopy\n      revert(0x00, returndatasize)\n    tag_130:\n      pop\n      pop\n      pop\n      pop\n      mload(0x40)\n      returndatasize\n      0x20\n      dup2\n      lt\n      iszero\n      tag_131\n      jumpi\n      0x00\n      dup1\n      revert\n    tag_131:\n      pop\n      mload\n      swap1\n      pop\n        /* \"Vault/EvolleVault.sol\":40537:40629  function want() public view returns (IERC20) {... */\n      swap1\n      jump\t// out\n        /* \"Vault/EvolleVault.sol\":15753:16070  function transferFrom(address sender, address recipient, uint256 amount) public virtual override returns (bool) {... */\n    tag_54:\n        /* \"Vault/EvolleVault.sol\":15859:15863  bool */\n      0x00\n        /* \"Vault/EvolleVault.sol\":15875:15911  _transfer(sender, recipient, amount) */\n      tag_133\n        /* \"Vault/EvolleVault.sol\":15885:15891  sender */\n      dup5\n        /* \"Vault/EvolleVault.sol\":15893:15902  recipient */\n      dup5\n        /* \"Vault/EvolleVault.sol\":15904:15910  amount */\n      dup5\n        /* \"Vault/EvolleVault.sol\":15875:15884  _transfer */\n      tag_134\n        /* \"Vault/EvolleVault.sol\":15875:15911  _transfer(sender, recipient, amount) */\n      jump\t// in\n    tag_133:\n        /* \"Vault/EvolleVault.sol\":15921:16042  _approve(sender, _msgSender(), _allowances[sender][_msgSender()].sub(amount, \"ERC20: transfer amount exceeds allowance\")) */\n      tag_135\n        /* \"Vault/EvolleVault.sol\":15930:15936  sender */\n      dup5\n        /* \"Vault/EvolleVault.sol\":15938:15950  _msgSender() */\n      tag_136\n        /* \"Vault/EvolleVault.sol\":15938:15948  _msgSender */\n      tag_124\n        /* \"Vault/EvolleVault.sol\":15938:15950  _msgSender() */\n      jump\t// in\n    tag_136:\n        /* \"Vault/EvolleVault.sol\":15952:16041  _allowances[sender][_msgSender()].sub(amount, \"ERC20: transfer amount exceeds allowance\") */\n      tag_137\n        /* \"Vault/EvolleVault.sol\":15990:15996  amount */\n      dup6\n        /* \"Vault/EvolleVault.sol\":15952:16041  _allowances[sender][_msgSender()].sub(amount, \"ERC20: transfer amount exceeds allowance\") */\n      mload(0x40)\n      dup1\n      0x60\n      add\n      0x40\n      mstore\n      dup1\n      0x28\n      dup2\n      mstore\n      0x20\n      add\n      data_974d1b4421da69cc60b481194f0dad36a5bb4e23da810da7a7fb30cdba178330\n      0x28\n      swap2\n      codecopy\n      sub(shl(0xa0, 0x01), 0x01)\n        /* \"Vault/EvolleVault.sol\":15952:15971  _allowances[sender] */\n      dup11\n      and\n      0x00\n      swap1\n      dup2\n      mstore\n        /* \"Vault/EvolleVault.sol\":15952:15963  _allowances */\n      0x01\n        /* \"Vault/EvolleVault.sol\":15952:15971  _allowances[sender] */\n      0x20\n      mstore\n      0x40\n      dup2\n      keccak256\n      swap1\n        /* \"Vault/EvolleVault.sol\":15972:15984  _msgSender() */\n      tag_138\n        /* \"Vault/EvolleVault.sol\":15972:15982  _msgSender */\n      tag_124\n        /* \"Vault/EvolleVault.sol\":15972:15984  _msgSender() */\n      jump\t// in\n    tag_138:\n      sub(shl(0xa0, 0x01), 0x01)\n        /* \"Vault/EvolleVault.sol\":15952:15985  _allowances[sender][_msgSender()] */\n      and\n      dup2\n      mstore\n      0x20\n      dup2\n      add\n      swap2\n      swap1\n      swap2\n      mstore\n      0x40\n      add\n      0x00\n      keccak256\n      sload\n      swap2\n        /* \"Vault/EvolleVault.sol\":15952:16041  _allowances[sender][_msgSender()].sub(amount, \"ERC20: transfer amount exceeds allowance\") */\n      swap1\n        /* \"Vault/EvolleVault.sol\":15952:15989  _allowances[sender][_msgSender()].sub */\n      tag_139\n        /* \"Vault/EvolleVault.sol\":15952:16041  _allowances[sender][_msgSender()].sub(amount, \"ERC20: transfer amount exceeds allowance\") */\n      jump\t// in\n    tag_137:\n        /* \"Vault/EvolleVault.sol\":15921:15929  _approve */\n      tag_125\n        /* \"Vault/EvolleVault.sol\":15921:16042  _approve(sender, _msgSender(), _allowances[sender][_msgSender()].sub(amount, \"ERC20: transfer amount exceeds allowance\")) */\n      jump\t// in\n    tag_135:\n      pop\n        /* \"Vault/EvolleVault.sol\":16059:16063  true */\n      0x01\n        /* \"Vault/EvolleVault.sol\":15753:16070  function transferFrom(address sender, address recipient, uint256 amount) public virtual override returns (bool) {... */\n    tag_132:\n      swap4\n      swap3\n      pop\n      pop\n      pop\n      jump\t// out\n        /* \"Vault/EvolleVault.sol\":43437:43979  function withdraw(uint256 _shares) public {... */\n    tag_57:\n        /* \"Vault/EvolleVault.sol\":43489:43498  uint256 r */\n      0x00\n        /* \"Vault/EvolleVault.sol\":43501:43544  (balance().mul(_shares)).div(totalSupply()) */\n      tag_141\n        /* \"Vault/EvolleVault.sol\":43530:43543  totalSupply() */\n      tag_142\n        /* \"Vault/EvolleVault.sol\":43530:43541  totalSupply */\n      tag_49\n        /* \"Vault/EvolleVault.sol\":43530:43543  totalSupply() */\n      jump\t// in\n    tag_142:\n        /* \"Vault/EvolleVault.sol\":43502:43524  balance().mul(_shares) */\n      tag_143\n        /* \"Vault/EvolleVault.sol\":43516:43523  _shares */\n      dup5\n        /* \"Vault/EvolleVault.sol\":43502:43511  balance() */\n      tag_144\n        /* \"Vault/EvolleVault.sol\":43502:43509  balance */\n      tag_96\n        /* \"Vault/EvolleVault.sol\":43502:43511  balance() */\n      jump\t// in\n    tag_144:\n        /* \"Vault/EvolleVault.sol\":43502:43515  balance().mul */\n      swap1\n      tag_145\n        /* \"Vault/EvolleVault.sol\":43502:43524  balance().mul(_shares) */\n      jump\t// in\n    tag_143:\n        /* \"Vault/EvolleVault.sol\":43501:43529  (balance().mul(_shares)).div */\n      swap1\n      tag_146\n        /* \"Vault/EvolleVault.sol\":43501:43544  (balance().mul(_shares)).div(totalSupply()) */\n      jump\t// in\n    tag_141:\n        /* \"Vault/EvolleVault.sol\":43489:43544  uint256 r = (balance().mul(_shares)).div(totalSupply()) */\n      swap1\n      pop\n        /* \"Vault/EvolleVault.sol\":43554:43580  _burn(msg.sender, _shares) */\n      tag_147\n        /* \"Vault/EvolleVault.sol\":43560:43570  msg.sender */\n      caller\n        /* \"Vault/EvolleVault.sol\":43572:43579  _shares */\n      dup4\n        /* \"Vault/EvolleVault.sol\":43554:43559  _burn */\n      tag_148\n        /* \"Vault/EvolleVault.sol\":43554:43580  _burn(msg.sender, _shares) */\n      jump\t// in\n    tag_147:\n        /* \"Vault/EvolleVault.sol\":43591:43597  uint b */\n      0x00\n        /* \"Vault/EvolleVault.sol\":43600:43606  want() */\n      tag_149\n        /* \"Vault/EvolleVault.sol\":43600:43604  want */\n      tag_51\n        /* \"Vault/EvolleVault.sol\":43600:43606  want() */\n      jump\t// in\n    tag_149:\n      sub(shl(0xa0, 0x01), 0x01)\n        /* \"Vault/EvolleVault.sol\":43600:43616  want().balanceOf */\n      and\n      0x70a08231\n        /* \"Vault/EvolleVault.sol\":43625:43629  this */\n      address\n        /* \"Vault/EvolleVault.sol\":43600:43631  want().balanceOf(address(this)) */\n      mload(0x40)\n      dup3\n      0xffffffff\n      and\n      0xe0\n      shl\n      dup2\n      mstore\n      0x04\n      add\n      dup1\n      dup3\n      sub(shl(0xa0, 0x01), 0x01)\n      and\n      dup2\n      mstore\n      0x20\n      add\n      swap2\n      pop\n      pop\n      0x20\n      mload(0x40)\n      dup1\n      dup4\n      sub\n      dup2\n      dup7\n      dup1\n      extcodesize\n      iszero\n      dup1\n      iszero\n      tag_150\n      jumpi\n      0x00\n      dup1\n      revert\n    tag_150:\n      pop\n      gas\n      staticcall\n      iszero\n      dup1\n      iszero\n      tag_152\n      jumpi\n      returndatasize\n      0x00\n      dup1\n      returndatacopy\n      revert(0x00, returndatasize)\n    tag_152:\n      pop\n      pop\n      pop\n      pop\n      mload(0x40)\n      returndatasize\n      0x20\n      dup2\n      lt\n      iszero\n      tag_153\n      jumpi\n      0x00\n      dup1\n      revert\n    tag_153:\n      pop\n      mload\n      swap1\n      pop\n        /* \"Vault/EvolleVault.sol\":43645:43650  b < r */\n      dup2\n      dup2\n      lt\n        /* \"Vault/EvolleVault.sol\":43641:43928  if (b < r) {... */\n      iszero\n      tag_154\n      jumpi\n        /* \"Vault/EvolleVault.sol\":43666:43680  uint _withdraw */\n      0x00\n        /* \"Vault/EvolleVault.sol\":43683:43691  r.sub(b) */\n      tag_155\n        /* \"Vault/EvolleVault.sol\":43683:43684  r */\n      dup4\n        /* \"Vault/EvolleVault.sol\":43689:43690  b */\n      dup4\n        /* \"Vault/EvolleVault.sol\":43683:43688  r.sub */\n      tag_156\n        /* \"Vault/EvolleVault.sol\":43683:43691  r.sub(b) */\n      jump\t// in\n    tag_155:\n        /* \"Vault/EvolleVault.sol\":43705:43713  strategy */\n      sload(0x09)\n        /* \"Vault/EvolleVault.sol\":43705:43733  strategy.withdraw(_withdraw) */\n      0x40\n      dup1\n      mload\n      shl(0xe0, 0x2e1a7d4d)\n      dup2\n      mstore\n      0x04\n      dup2\n      add\n      dup5\n      swap1\n      mstore\n      swap1\n      mload\n        /* \"Vault/EvolleVault.sol\":43666:43691  uint _withdraw = r.sub(b) */\n      swap3\n      swap4\n      pop\n      sub(shl(0xa0, 0x01), 0x01)\n        /* \"Vault/EvolleVault.sol\":43705:43713  strategy */\n      swap1\n      swap2\n      and\n      swap2\n        /* \"Vault/EvolleVault.sol\":43705:43722  strategy.withdraw */\n      0x2e1a7d4d\n      swap2\n        /* \"Vault/EvolleVault.sol\":43705:43733  strategy.withdraw(_withdraw) */\n      0x24\n      dup1\n      dup3\n      add\n      swap3\n        /* \"Vault/EvolleVault.sol\":43705:43713  strategy */\n      0x00\n      swap3\n        /* \"Vault/EvolleVault.sol\":43705:43733  strategy.withdraw(_withdraw) */\n      swap1\n      swap2\n      swap1\n      dup3\n      swap1\n      sub\n      add\n      dup2\n        /* \"Vault/EvolleVault.sol\":43705:43713  strategy */\n      dup4\n      dup8\n        /* \"Vault/EvolleVault.sol\":43705:43733  strategy.withdraw(_withdraw) */\n      dup1\n      extcodesize\n      iszero\n      dup1\n      iszero\n      tag_157\n      jumpi\n      0x00\n      dup1\n      revert\n    tag_157:\n      pop\n      gas\n      call\n      iszero\n      dup1\n      iszero\n      tag_159\n      jumpi\n      returndatasize\n      0x00\n      dup1\n      returndatacopy\n      revert(0x00, returndatasize)\n    tag_159:\n      pop\n      pop\n      pop\n      pop\n        /* \"Vault/EvolleVault.sol\":43747:43758  uint _after */\n      0x00\n        /* \"Vault/EvolleVault.sol\":43761:43767  want() */\n      tag_160\n        /* \"Vault/EvolleVault.sol\":43761:43765  want */\n      tag_51\n        /* \"Vault/EvolleVault.sol\":43761:43767  want() */\n      jump\t// in\n    tag_160:\n      sub(shl(0xa0, 0x01), 0x01)\n        /* \"Vault/EvolleVault.sol\":43761:43777  want().balanceOf */\n      and\n      0x70a08231\n        /* \"Vault/EvolleVault.sol\":43786:43790  this */\n      address\n        /* \"Vault/EvolleVault.sol\":43761:43792  want().balanceOf(address(this)) */\n      mload(0x40)\n      dup3\n      0xffffffff\n      and\n      0xe0\n      shl\n      dup2\n      mstore\n      0x04\n      add\n      dup1\n      dup3\n      sub(shl(0xa0, 0x01), 0x01)\n      and\n      dup2\n      mstore\n      0x20\n      add\n      swap2\n      pop\n      pop\n      0x20\n      mload(0x40)\n      dup1\n      dup4\n      sub\n      dup2\n      dup7\n      dup1\n      extcodesize\n      iszero\n      dup1\n      iszero\n      tag_161\n      jumpi\n      0x00\n      dup1\n      revert\n    tag_161:\n      pop\n      gas\n      staticcall\n      iszero\n      dup1\n      iszero\n      tag_163\n      jumpi\n      returndatasize\n      0x00\n      dup1\n      returndatacopy\n      revert(0x00, returndatasize)\n    tag_163:\n      pop\n      pop\n      pop\n      pop\n      mload(0x40)\n      returndatasize\n      0x20\n      dup2\n      lt\n      iszero\n      tag_164\n      jumpi\n      0x00\n      dup1\n      revert\n    tag_164:\n      pop\n      mload\n      swap1\n      pop\n        /* \"Vault/EvolleVault.sol\":43806:43816  uint _diff */\n      0x00\n        /* \"Vault/EvolleVault.sol\":43819:43832  _after.sub(b) */\n      tag_165\n        /* \"Vault/EvolleVault.sol\":43761:43792  want().balanceOf(address(this)) */\n      dup3\n        /* \"Vault/EvolleVault.sol\":43830:43831  b */\n      dup6\n        /* \"Vault/EvolleVault.sol\":43819:43829  _after.sub */\n      tag_156\n        /* \"Vault/EvolleVault.sol\":43819:43832  _after.sub(b) */\n      jump\t// in\n    tag_165:\n        /* \"Vault/EvolleVault.sol\":43806:43832  uint _diff = _after.sub(b) */\n      swap1\n      pop\n        /* \"Vault/EvolleVault.sol\":43858:43867  _withdraw */\n      dup3\n        /* \"Vault/EvolleVault.sol\":43850:43855  _diff */\n      dup2\n        /* \"Vault/EvolleVault.sol\":43850:43867  _diff < _withdraw */\n      lt\n        /* \"Vault/EvolleVault.sol\":43846:43918  if (_diff < _withdraw) {... */\n      iszero\n      tag_166\n      jumpi\n        /* \"Vault/EvolleVault.sol\":43891:43903  b.add(_diff) */\n      tag_167\n        /* \"Vault/EvolleVault.sol\":43891:43892  b */\n      dup5\n        /* \"Vault/EvolleVault.sol\":43897:43902  _diff */\n      dup3\n        /* \"Vault/EvolleVault.sol\":43891:43896  b.add */\n      tag_168\n        /* \"Vault/EvolleVault.sol\":43891:43903  b.add(_diff) */\n      jump\t// in\n    tag_167:\n        /* \"Vault/EvolleVault.sol\":43887:43903  r = b.add(_diff) */\n      swap5\n      pop\n        /* \"Vault/EvolleVault.sol\":43846:43918  if (_diff < _withdraw) {... */\n    tag_166:\n        /* \"Vault/EvolleVault.sol\":43641:43928  if (b < r) {... */\n      pop\n      pop\n      pop\n    tag_154:\n        /* \"Vault/EvolleVault.sol\":43938:43972  want().safeTransfer(msg.sender, r) */\n      tag_169\n        /* \"Vault/EvolleVault.sol\":43958:43968  msg.sender */\n      caller\n        /* \"Vault/EvolleVault.sol\":43970:43971  r */\n      dup4\n        /* \"Vault/EvolleVault.sol\":43938:43944  want() */\n      tag_170\n        /* \"Vault/EvolleVault.sol\":43938:43942  want */\n      tag_51\n        /* \"Vault/EvolleVault.sol\":43938:43944  want() */\n      jump\t// in\n    tag_170:\n      sub(shl(0xa0, 0x01), 0x01)\n        /* \"Vault/EvolleVault.sol\":43938:43957  want().safeTransfer */\n      and\n      swap2\n        /* \"Vault/EvolleVault.sol\":43938:43972  want().safeTransfer(msg.sender, r) */\n      swap1\n        /* \"Vault/EvolleVault.sol\":43938:43957  want().safeTransfer */\n      tag_171\n        /* \"Vault/EvolleVault.sol\":43938:43972  want().safeTransfer(msg.sender, r) */\n      jump\t// in\n    tag_169:\n        /* \"Vault/EvolleVault.sol\":43437:43979  function withdraw(uint256 _shares) public {... */\n      pop\n      pop\n      pop\n      jump\t// out\n        /* \"Vault/EvolleVault.sol\":13962:14051  function decimals() public view virtual returns (uint8) {... */\n    tag_59:\n        /* \"Vault/EvolleVault.sol\":14035:14044  _decimals */\n      and(0xff, sload(0x05))\n        /* \"Vault/EvolleVault.sol\":13962:14051  function decimals() public view virtual returns (uint8) {... */\n      swap1\n      jump\t// out\n        /* \"Vault/EvolleVault.sol\":16465:16680  function increaseAllowance(address spender, uint256 addedValue) public virtual returns (bool) {... */\n    tag_62:\n        /* \"Vault/EvolleVault.sol\":16553:16557  bool */\n      0x00\n        /* \"Vault/EvolleVault.sol\":16569:16652  _approve(_msgSender(), spender, _allowances[_msgSender()][spender].add(addedValue)) */\n      tag_122\n        /* \"Vault/EvolleVault.sol\":16578:16590  _msgSender() */\n      tag_175\n        /* \"Vault/EvolleVault.sol\":16578:16588  _msgSender */\n      tag_124\n        /* \"Vault/EvolleVault.sol\":16578:16590  _msgSender() */\n      jump\t// in\n    tag_175:\n        /* \"Vault/EvolleVault.sol\":16592:16599  spender */\n      dup5\n        /* \"Vault/EvolleVault.sol\":16601:16651  _allowances[_msgSender()][spender].add(addedValue) */\n      tag_137\n        /* \"Vault/EvolleVault.sol\":16640:16650  addedValue */\n      dup6\n        /* \"Vault/EvolleVault.sol\":16601:16612  _allowances */\n      0x01\n        /* \"Vault/EvolleVault.sol\":16601:16626  _allowances[_msgSender()] */\n      0x00\n        /* \"Vault/EvolleVault.sol\":16613:16625  _msgSender() */\n      tag_177\n        /* \"Vault/EvolleVault.sol\":16613:16623  _msgSender */\n      tag_124\n        /* \"Vault/EvolleVault.sol\":16613:16625  _msgSender() */\n      jump\t// in\n    tag_177:\n      sub(shl(0xa0, 0x01), 0x01)\n        /* \"Vault/EvolleVault.sol\":16601:16626  _allowances[_msgSender()] */\n      swap1\n      dup2\n      and\n      dup3\n      mstore\n      0x20\n      dup1\n      dup4\n      add\n      swap4\n      swap1\n      swap4\n      mstore\n      0x40\n      swap2\n      dup3\n      add\n      0x00\n      swap1\n      dup2\n      keccak256\n        /* \"Vault/EvolleVault.sol\":16601:16635  _allowances[_msgSender()][spender] */\n      swap2\n      dup13\n      and\n      dup2\n      mstore\n      swap3\n      mstore\n      swap1\n      keccak256\n      sload\n      swap1\n        /* \"Vault/EvolleVault.sol\":16601:16639  _allowances[_msgSender()][spender].add */\n      tag_168\n        /* \"Vault/EvolleVault.sol\":16601:16651  _allowances[_msgSender()][spender].add(addedValue) */\n      jump\t// in\n        /* \"Vault/EvolleVault.sol\":41320:41426  function available() public view returns (uint256) {... */\n    tag_64:\n        /* \"Vault/EvolleVault.sol\":41362:41369  uint256 */\n      0x00\n        /* \"Vault/EvolleVault.sol\":41388:41394  want() */\n      tag_179\n        /* \"Vault/EvolleVault.sol\":41388:41392  want */\n      tag_51\n        /* \"Vault/EvolleVault.sol\":41388:41394  want() */\n      jump\t// in\n    tag_179:\n      sub(shl(0xa0, 0x01), 0x01)\n        /* \"Vault/EvolleVault.sol\":41388:41404  want().balanceOf */\n      and\n      0x70a08231\n        /* \"Vault/EvolleVault.sol\":41413:41417  this */\n      address\n        /* \"Vault/EvolleVault.sol\":41388:41419  want().balanceOf(address(this)) */\n      mload(0x40)\n      dup3\n      0xffffffff\n      and\n      0xe0\n      shl\n      dup2\n      mstore\n      0x04\n      add\n      dup1\n      dup3\n      sub(shl(0xa0, 0x01), 0x01)\n      and\n      dup2\n      mstore\n      0x20\n      add\n      swap2\n      pop\n      pop\n      0x20\n      mload(0x40)\n      dup1\n      dup4\n      sub\n      dup2\n      dup7\n      dup1\n      extcodesize\n      iszero\n      dup1\n      iszero\n      tag_128\n      jumpi\n      0x00\n      dup1\n      revert\n        /* \"Vault/EvolleVault.sol\":44146:44516  function proposeStrat(address _implementation) public onlyOwner {... */\n    tag_67:\n        /* \"Vault/EvolleVault.sol\":34495:34507  _msgSender() */\n      tag_185\n        /* \"Vault/EvolleVault.sol\":34495:34505  _msgSender */\n      tag_124\n        /* \"Vault/EvolleVault.sol\":34495:34507  _msgSender() */\n      jump\t// in\n    tag_185:\n      sub(shl(0xa0, 0x01), 0x01)\n        /* \"Vault/EvolleVault.sol\":34484:34507  owner() == _msgSender() */\n      and\n        /* \"Vault/EvolleVault.sol\":34484:34491  owner() */\n      tag_186\n        /* \"Vault/EvolleVault.sol\":34484:34489  owner */\n      tag_80\n        /* \"Vault/EvolleVault.sol\":34484:34491  owner() */\n      jump\t// in\n    tag_186:\n      sub(shl(0xa0, 0x01), 0x01)\n        /* \"Vault/EvolleVault.sol\":34484:34507  owner() == _msgSender() */\n      and\n      eq\n        /* \"Vault/EvolleVault.sol\":34476:34544  require(owner() == _msgSender(), \"Ownable: caller is not the owner\") */\n      tag_187\n      jumpi\n      0x40\n      dup1\n      mload\n      shl(0xe5, 0x461bcd)\n      dup2\n      mstore\n      0x20\n      0x04\n      dup3\n      add\n      dup2\n      swap1\n      mstore\n      0x24\n      dup3\n      add\n      mstore\n      0x00\n      dup1\n      mload\n      0x20\n      data_9924ebdf1add33d25d4ef888e16131f0a5687b0580a36c21b5c301a6c462effe\n      dup4\n      codecopy\n      dup2\n      mload\n      swap2\n      mstore\n      0x44\n      dup3\n      add\n      mstore\n      swap1\n      mload\n      swap1\n      dup2\n      swap1\n      sub\n      0x64\n      add\n      swap1\n      revert\n    tag_187:\n        /* \"Vault/EvolleVault.sol\":44255:44270  _implementation */\n      dup1\n      sub(shl(0xa0, 0x01), 0x01)\n        /* \"Vault/EvolleVault.sol\":44245:44277  IStrategy(_implementation).vault */\n      and\n      0xfbfa77cf\n        /* \"Vault/EvolleVault.sol\":44245:44279  IStrategy(_implementation).vault() */\n      mload(0x40)\n      dup2\n      0xffffffff\n      and\n      0xe0\n      shl\n      dup2\n      mstore\n      0x04\n      add\n      0x20\n      mload(0x40)\n      dup1\n      dup4\n      sub\n      dup2\n      dup7\n      dup1\n      extcodesize\n      iszero\n      dup1\n      iszero\n      tag_189\n      jumpi\n      0x00\n      dup1\n      revert\n    tag_189:\n      pop\n      gas\n      staticcall\n      iszero\n      dup1\n      iszero\n      tag_191\n      jumpi\n      returndatasize\n      0x00\n      dup1\n      returndatacopy\n      revert(0x00, returndatasize)\n    tag_191:\n      pop\n      pop\n      pop\n      pop\n      mload(0x40)\n      returndatasize\n      0x20\n      dup2\n      lt\n      iszero\n      tag_192\n      jumpi\n      0x00\n      dup1\n      revert\n    tag_192:\n      pop\n      mload\n      sub(shl(0xa0, 0x01), 0x01)\n        /* \"Vault/EvolleVault.sol\":44228:44279  address(this) == IStrategy(_implementation).vault() */\n      and\n        /* \"Vault/EvolleVault.sol\":44236:44240  this */\n      address\n        /* \"Vault/EvolleVault.sol\":44228:44279  address(this) == IStrategy(_implementation).vault() */\n      eq\n        /* \"Vault/EvolleVault.sol\":44220:44317  require(address(this) == IStrategy(_implementation).vault(), \"Proposal not valid for this Vault\") */\n      tag_193\n      jumpi\n      mload(0x40)\n      shl(0xe5, 0x461bcd)\n      dup2\n      mstore\n      0x04\n      add\n      dup1\n      dup1\n      0x20\n      add\n      dup3\n      dup2\n      sub\n      dup3\n      mstore\n      0x21\n      dup2\n      mstore\n      0x20\n      add\n      dup1\n      data_6d06d9f1cf1cb47b4c164a82a99136bb279d51ecac86ea5fd348be592f7bfe2e\n      0x21\n      swap2\n      codecopy\n      0x40\n      add\n      swap2\n      pop\n      pop\n      mload(0x40)\n      dup1\n      swap2\n      sub\n      swap1\n      revert\n    tag_193:\n        /* \"Vault/EvolleVault.sol\":44344:44459  StratCandidate({... */\n      0x40\n      dup1\n      mload\n      dup1\n      dup3\n      add\n      dup3\n      mstore\n      sub(shl(0xa0, 0x01), 0x01)\n      dup4\n      and\n      dup1\n      dup3\n      mstore\n        /* \"Vault/EvolleVault.sol\":44432:44447  block.timestamp */\n      timestamp\n        /* \"Vault/EvolleVault.sol\":44344:44459  StratCandidate({... */\n      0x20\n      swap3\n      dup4\n      add\n      dup2\n      swap1\n      mstore\n        /* \"Vault/EvolleVault.sol\":44327:44341  stratCandidate */\n      0x07\n        /* \"Vault/EvolleVault.sol\":44327:44459  stratCandidate = StratCandidate({... */\n      dup1\n      sload\n      not(sub(shl(0xa0, 0x01), 0x01))\n      and\n      dup4\n      or\n      swap1\n      sstore\n      0x08\n      sstore\n        /* \"Vault/EvolleVault.sol\":44475:44509  NewStratCandidate(_implementation) */\n      dup3\n      mload\n      swap1\n      dup2\n      mstore\n      swap2\n      mload\n      0x1aae2ec5647db56da2d513de40528ba3565c6057525637050660c4323bbac7df\n      swap3\n      dup2\n      swap1\n      sub\n      swap1\n      swap2\n      add\n      swap1\n      log1\n        /* \"Vault/EvolleVault.sol\":44146:44516  function proposeStrat(address _implementation) public onlyOwner {... */\n      pop\n      jump\t// out\n        /* \"Vault/EvolleVault.sol\":14275:14400  function balanceOf(address account) public view virtual override returns (uint256) {... */\n    tag_70:\n      sub(shl(0xa0, 0x01), 0x01)\n        /* \"Vault/EvolleVault.sol\":14375:14393  _balances[account] */\n      and\n        /* \"Vault/EvolleVault.sol\":14349:14356  uint256 */\n      0x00\n        /* \"Vault/EvolleVault.sol\":14375:14393  _balances[account] */\n      swap1\n      dup2\n      mstore\n      0x20\n      dup2\n      swap1\n      mstore\n      0x40\n      swap1\n      keccak256\n      sload\n      swap1\n        /* \"Vault/EvolleVault.sol\":14275:14400  function balanceOf(address account) public view virtual override returns (uint256) {... */\n      jump\t// out\n        /* \"Vault/EvolleVault.sol\":34904:35049  function renounceOwnership() public virtual onlyOwner {... */\n    tag_72:\n        /* \"Vault/EvolleVault.sol\":34495:34507  _msgSender() */\n      tag_196\n        /* \"Vault/EvolleVault.sol\":34495:34505  _msgSender */\n      tag_124\n        /* \"Vault/EvolleVault.sol\":34495:34507  _msgSender() */\n      jump\t// in\n    tag_196:\n      sub(shl(0xa0, 0x01), 0x01)\n        /* \"Vault/EvolleVault.sol\":34484:34507  owner() == _msgSender() */\n      and\n        /* \"Vault/EvolleVault.sol\":34484:34491  owner() */\n      tag_197\n        /* \"Vault/EvolleVault.sol\":34484:34489  owner */\n      tag_80\n        /* \"Vault/EvolleVault.sol\":34484:34491  owner() */\n      jump\t// in\n    tag_197:\n      sub(shl(0xa0, 0x01), 0x01)\n        /* \"Vault/EvolleVault.sol\":34484:34507  owner() == _msgSender() */\n      and\n      eq\n        /* \"Vault/EvolleVault.sol\":34476:34544  require(owner() == _msgSender(), \"Ownable: caller is not the owner\") */\n      tag_198\n      jumpi\n      0x40\n      dup1\n      mload\n      shl(0xe5, 0x461bcd)\n      dup2\n      mstore\n      0x20\n      0x04\n      dup3\n      add\n      dup2\n      swap1\n      mstore\n      0x24\n      dup3\n      add\n      mstore\n      0x00\n      dup1\n      mload\n      0x20\n      data_9924ebdf1add33d25d4ef888e16131f0a5687b0580a36c21b5c301a6c462effe\n      dup4\n      codecopy\n      dup2\n      mload\n      swap2\n      mstore\n      0x44\n      dup3\n      add\n      mstore\n      swap1\n      mload\n      swap1\n      dup2\n      swap1\n      sub\n      0x64\n      add\n      swap1\n      revert\n    tag_198:\n        /* \"Vault/EvolleVault.sol\":34994:35000  _owner */\n      sload(0x05)\n        /* \"Vault/EvolleVault.sol\":34973:35013  OwnershipTransferred(_owner, address(0)) */\n      mload(0x40)\n        /* \"Vault/EvolleVault.sol\":35010:35011  0 */\n      0x00\n      swap2\n        /* \"Vault/EvolleVault.sol\":34994:35000  _owner */\n      0x0100\n      swap1\n      div\n      sub(shl(0xa0, 0x01), 0x01)\n      and\n      swap1\n        /* \"Vault/EvolleVault.sol\":34973:35013  OwnershipTransferred(_owner, address(0)) */\n      0x8be0079c531659141344cd1fd0a4f28419497f9722a3daafe3b4186f6b6457e0\n      swap1\n        /* \"Vault/EvolleVault.sol\":35010:35011  0 */\n      dup4\n      swap1\n        /* \"Vault/EvolleVault.sol\":34973:35013  OwnershipTransferred(_owner, address(0)) */\n      log3\n        /* \"Vault/EvolleVault.sol\":35023:35029  _owner */\n      0x05\n        /* \"Vault/EvolleVault.sol\":35023:35042  _owner = address(0) */\n      dup1\n      sload\n      not(sub(shl(0xa8, 0x01), 0x0100))\n      and\n      swap1\n      sstore\n        /* \"Vault/EvolleVault.sol\":34904:35049  function renounceOwnership() public virtual onlyOwner {... */\n      jump\t// out\n        /* \"Vault/EvolleVault.sol\":39367:39403  StratCandidate public stratCandidate */\n    tag_74:\n      sload(0x07)\n      sload(0x08)\n      sub(shl(0xa0, 0x01), 0x01)\n      swap1\n      swap2\n      and\n      swap1\n      dup3\n      jump\t// out\n        /* \"Vault/EvolleVault.sol\":41642:41794  function getPricePerFullShare() public view returns (uint256) {... */\n    tag_76:\n        /* \"Vault/EvolleVault.sol\":41695:41702  uint256 */\n      0x00\n        /* \"Vault/EvolleVault.sol\":41721:41734  totalSupply() */\n      tag_201\n        /* \"Vault/EvolleVault.sol\":41721:41732  totalSupply */\n      tag_49\n        /* \"Vault/EvolleVault.sol\":41721:41734  totalSupply() */\n      jump\t// in\n    tag_201:\n        /* \"Vault/EvolleVault.sol\":41721:41739  totalSupply() == 0 */\n      iszero\n        /* \"Vault/EvolleVault.sol\":41721:41787  totalSupply() == 0 ? 1e18 : balance().mul(1e18).div(totalSupply()) */\n      tag_202\n      jumpi\n        /* \"Vault/EvolleVault.sol\":41749:41787  balance().mul(1e18).div(totalSupply()) */\n      tag_203\n        /* \"Vault/EvolleVault.sol\":41773:41786  totalSupply() */\n      tag_204\n        /* \"Vault/EvolleVault.sol\":41773:41784  totalSupply */\n      tag_49\n        /* \"Vault/EvolleVault.sol\":41773:41786  totalSupply() */\n      jump\t// in\n    tag_204:\n        /* \"Vault/EvolleVault.sol\":41749:41768  balance().mul(1e18) */\n      tag_143\n        /* \"Vault/EvolleVault.sol\":41763:41767  1e18 */\n      0x0de0b6b3a7640000\n        /* \"Vault/EvolleVault.sol\":41749:41758  balance() */\n      tag_144\n        /* \"Vault/EvolleVault.sol\":41749:41756  balance */\n      tag_96\n        /* \"Vault/EvolleVault.sol\":41749:41758  balance() */\n      jump\t// in\n        /* \"Vault/EvolleVault.sol\":41749:41787  balance().mul(1e18).div(totalSupply()) */\n    tag_203:\n        /* \"Vault/EvolleVault.sol\":41721:41787  totalSupply() == 0 ? 1e18 : balance().mul(1e18).div(totalSupply()) */\n      jump(tag_207)\n    tag_202:\n        /* \"Vault/EvolleVault.sol\":41742:41746  1e18 */\n      0x0de0b6b3a7640000\n        /* \"Vault/EvolleVault.sol\":41721:41787  totalSupply() == 0 ? 1e18 : balance().mul(1e18).div(totalSupply()) */\n    tag_207:\n        /* \"Vault/EvolleVault.sol\":41714:41787  return totalSupply() == 0 ? 1e18 : balance().mul(1e18).div(totalSupply()) */\n      swap1\n      pop\n        /* \"Vault/EvolleVault.sol\":41642:41794  function getPricePerFullShare() public view returns (uint256) {... */\n      swap1\n      jump\t// out\n        /* \"Vault/EvolleVault.sol\":43126:43206  function withdrawAll() external {... */\n    tag_78:\n        /* \"Vault/EvolleVault.sol\":43168:43199  withdraw(balanceOf(msg.sender)) */\n      tag_209\n        /* \"Vault/EvolleVault.sol\":43177:43198  balanceOf(msg.sender) */\n      tag_210\n        /* \"Vault/EvolleVault.sol\":43187:43197  msg.sender */\n      caller\n        /* \"Vault/EvolleVault.sol\":43177:43186  balanceOf */\n      tag_70\n        /* \"Vault/EvolleVault.sol\":43177:43198  balanceOf(msg.sender) */\n      jump\t// in\n    tag_210:\n        /* \"Vault/EvolleVault.sol\":43168:43176  withdraw */\n      tag_57\n        /* \"Vault/EvolleVault.sol\":43168:43199  withdraw(balanceOf(msg.sender)) */\n      jump\t// in\n    tag_209:\n        /* \"Vault/EvolleVault.sol\":43126:43206  function withdrawAll() external {... */\n      jump\t// out\n        /* \"Vault/EvolleVault.sol\":34272:34357  function owner() public view virtual returns (address) {... */\n    tag_80:\n        /* \"Vault/EvolleVault.sol\":34344:34350  _owner */\n      sload(0x05)\n      0x0100\n      swap1\n      div\n      sub(shl(0xa0, 0x01), 0x01)\n      and\n      swap1\n        /* \"Vault/EvolleVault.sol\":34272:34357  function owner() public view virtual returns (address) {... */\n      jump\t// out\n        /* \"Vault/EvolleVault.sol\":13246:13339  function symbol() public view virtual returns (string memory) {... */\n    tag_82:\n        /* \"Vault/EvolleVault.sol\":13325:13332  _symbol */\n      0x04\n        /* \"Vault/EvolleVault.sol\":13318:13332  return _symbol */\n      dup1\n      sload\n      0x40\n      dup1\n      mload\n      0x20\n      0x1f\n      0x02\n      not(0x00)\n      0x0100\n      0x01\n      dup9\n      and\n      iszero\n      mul\n      add\n      swap1\n      swap6\n      and\n      swap5\n      swap1\n      swap5\n      div\n      swap4\n      dup5\n      add\n      dup2\n      swap1\n      div\n      dup2\n      mul\n      dup3\n      add\n      dup2\n      add\n      swap1\n      swap3\n      mstore\n      dup3\n      dup2\n      mstore\n        /* \"Vault/EvolleVault.sol\":13293:13306  string memory */\n      0x60\n      swap4\n        /* \"Vault/EvolleVault.sol\":13318:13332  return _symbol */\n      swap1\n      swap3\n        /* \"Vault/EvolleVault.sol\":13325:13332  _symbol */\n      swap1\n      swap2\n        /* \"Vault/EvolleVault.sol\":13318:13332  return _symbol */\n      dup4\n      add\n        /* \"Vault/EvolleVault.sol\":13325:13332  _symbol */\n      dup3\n        /* \"Vault/EvolleVault.sol\":13318:13332  return _symbol */\n      dup3\n      dup1\n      iszero\n      tag_118\n      jumpi\n      dup1\n      0x1f\n      lt\n      tag_119\n      jumpi\n      0x0100\n      dup1\n      dup4\n      sload\n      div\n      mul\n      dup4\n      mstore\n      swap2\n      0x20\n      add\n      swap2\n      jump(tag_118)\n        /* \"Vault/EvolleVault.sol\":17167:17433  function decreaseAllowance(address spender, uint256 subtractedValue) public virtual returns (bool) {... */\n    tag_89:\n        /* \"Vault/EvolleVault.sol\":17260:17264  bool */\n      0x00\n        /* \"Vault/EvolleVault.sol\":17276:17405  _approve(_msgSender(), spender, _allowances[_msgSender()][spender].sub(subtractedValue, \"ERC20: decreased allowance below zero\")) */\n      tag_122\n        /* \"Vault/EvolleVault.sol\":17285:17297  _msgSender() */\n      tag_218\n        /* \"Vault/EvolleVault.sol\":17285:17295  _msgSender */\n      tag_124\n        /* \"Vault/EvolleVault.sol\":17285:17297  _msgSender() */\n      jump\t// in\n    tag_218:\n        /* \"Vault/EvolleVault.sol\":17299:17306  spender */\n      dup5\n        /* \"Vault/EvolleVault.sol\":17308:17404  _allowances[_msgSender()][spender].sub(subtractedValue, \"ERC20: decreased allowance below zero\") */\n      tag_137\n        /* \"Vault/EvolleVault.sol\":17347:17362  subtractedValue */\n      dup6\n        /* \"Vault/EvolleVault.sol\":17308:17404  _allowances[_msgSender()][spender].sub(subtractedValue, \"ERC20: decreased allowance below zero\") */\n      mload(0x40)\n      dup1\n      0x60\n      add\n      0x40\n      mstore\n      dup1\n      0x25\n      dup2\n      mstore\n      0x20\n      add\n      data_f8b476f7d28209d77d4a4ac1fe36b9f8259aa1bb6bddfa6e89de7e51615cf8a8\n      0x25\n      swap2\n      codecopy\n        /* \"Vault/EvolleVault.sol\":17308:17319  _allowances */\n      0x01\n        /* \"Vault/EvolleVault.sol\":17308:17333  _allowances[_msgSender()] */\n      0x00\n        /* \"Vault/EvolleVault.sol\":17320:17332  _msgSender() */\n      tag_220\n        /* \"Vault/EvolleVault.sol\":17320:17330  _msgSender */\n      tag_124\n        /* \"Vault/EvolleVault.sol\":17320:17332  _msgSender() */\n      jump\t// in\n    tag_220:\n      sub(shl(0xa0, 0x01), 0x01)\n        /* \"Vault/EvolleVault.sol\":17308:17333  _allowances[_msgSender()] */\n      swap1\n      dup2\n      and\n      dup3\n      mstore\n      0x20\n      dup1\n      dup4\n      add\n      swap4\n      swap1\n      swap4\n      mstore\n      0x40\n      swap2\n      dup3\n      add\n      0x00\n      swap1\n      dup2\n      keccak256\n        /* \"Vault/EvolleVault.sol\":17308:17342  _allowances[_msgSender()][spender] */\n      swap2\n      dup14\n      and\n      dup2\n      mstore\n      swap3\n      mstore\n      swap1\n      keccak256\n      sload\n      swap2\n        /* \"Vault/EvolleVault.sol\":17308:17404  _allowances[_msgSender()][spender].sub(subtractedValue, \"ERC20: decreased allowance below zero\") */\n      swap1\n        /* \"Vault/EvolleVault.sol\":17308:17346  _allowances[_msgSender()][spender].sub */\n      tag_139\n        /* \"Vault/EvolleVault.sol\":17308:17404  _allowances[_msgSender()][spender].sub(subtractedValue, \"ERC20: decreased allowance below zero\") */\n      jump\t// in\n        /* \"Vault/EvolleVault.sol\":39460:39485  IStrategy public strategy */\n    tag_91:\n      and(sub(shl(0xa0, 0x01), 0x01), sload(0x09))\n      dup2\n      jump\t// out\n        /* \"Vault/EvolleVault.sol\":14603:14775  function transfer(address recipient, uint256 amount) public virtual override returns (bool) {... */\n    tag_94:\n        /* \"Vault/EvolleVault.sol\":14689:14693  bool */\n      0x00\n        /* \"Vault/EvolleVault.sol\":14705:14747  _transfer(_msgSender(), recipient, amount) */\n      tag_122\n        /* \"Vault/EvolleVault.sol\":14715:14727  _msgSender() */\n      tag_223\n        /* \"Vault/EvolleVault.sol\":14715:14725  _msgSender */\n      tag_124\n        /* \"Vault/EvolleVault.sol\":14715:14727  _msgSender() */\n      jump\t// in\n    tag_223:\n        /* \"Vault/EvolleVault.sol\":14729:14738  recipient */\n      dup5\n        /* \"Vault/EvolleVault.sol\":14740:14746  amount */\n      dup5\n        /* \"Vault/EvolleVault.sol\":14705:14714  _transfer */\n      tag_134\n        /* \"Vault/EvolleVault.sol\":14705:14747  _transfer(_msgSender(), recipient, amount) */\n      jump\t// in\n        /* \"Vault/EvolleVault.sol\":40899:41037  function balance() public view returns (uint) {... */\n    tag_96:\n        /* \"Vault/EvolleVault.sol\":40939:40943  uint */\n      0x00\n        /* \"Vault/EvolleVault.sol\":40962:41030  want().balanceOf(address(this)).add(IStrategy(strategy).balanceOf()) */\n      tag_207\n        /* \"Vault/EvolleVault.sol\":41008:41016  strategy */\n      0x09\n      0x00\n      swap1\n      sload\n      swap1\n      0x0100\n      exp\n      swap1\n      div\n      sub(shl(0xa0, 0x01), 0x01)\n      and\n      sub(shl(0xa0, 0x01), 0x01)\n        /* \"Vault/EvolleVault.sol\":40998:41027  IStrategy(strategy).balanceOf */\n      and\n      0x722713f7\n        /* \"Vault/EvolleVault.sol\":40998:41029  IStrategy(strategy).balanceOf() */\n      mload(0x40)\n      dup2\n      0xffffffff\n      and\n      0xe0\n      shl\n      dup2\n      mstore\n      0x04\n      add\n      0x20\n      mload(0x40)\n      dup1\n      dup4\n      sub\n      dup2\n      dup7\n      dup1\n      extcodesize\n      iszero\n      dup1\n      iszero\n      tag_226\n      jumpi\n      0x00\n      dup1\n      revert\n    tag_226:\n      pop\n      gas\n      staticcall\n      iszero\n      dup1\n      iszero\n      tag_228\n      jumpi\n      returndatasize\n      0x00\n      dup1\n      returndatacopy\n      revert(0x00, returndatasize)\n    tag_228:\n      pop\n      pop\n      pop\n      pop\n      mload(0x40)\n      returndatasize\n      0x20\n      dup2\n      lt\n      iszero\n      tag_229\n      jumpi\n      0x00\n      dup1\n      revert\n    tag_229:\n      pop\n      mload\n        /* \"Vault/EvolleVault.sol\":40962:40968  want() */\n      tag_230\n        /* \"Vault/EvolleVault.sol\":40962:40966  want */\n      tag_51\n        /* \"Vault/EvolleVault.sol\":40962:40968  want() */\n      jump\t// in\n    tag_230:\n      sub(shl(0xa0, 0x01), 0x01)\n        /* \"Vault/EvolleVault.sol\":40962:40978  want().balanceOf */\n      and\n      0x70a08231\n        /* \"Vault/EvolleVault.sol\":40987:40991  this */\n      address\n        /* \"Vault/EvolleVault.sol\":40962:40993  want().balanceOf(address(this)) */\n      mload(0x40)\n      dup3\n      0xffffffff\n      and\n      0xe0\n      shl\n      dup2\n      mstore\n      0x04\n      add\n      dup1\n      dup3\n      sub(shl(0xa0, 0x01), 0x01)\n      and\n      dup2\n      mstore\n      0x20\n      add\n      swap2\n      pop\n      pop\n      0x20\n      mload(0x40)\n      dup1\n      dup4\n      sub\n      dup2\n      dup7\n      dup1\n      extcodesize\n      iszero\n      dup1\n      iszero\n      tag_231\n      jumpi\n      0x00\n      dup1\n      revert\n    tag_231:\n      pop\n      gas\n      staticcall\n      iszero\n      dup1\n      iszero\n      tag_233\n      jumpi\n      returndatasize\n      0x00\n      dup1\n      returndatacopy\n      revert(0x00, returndatasize)\n    tag_233:\n      pop\n      pop\n      pop\n      pop\n      mload(0x40)\n      returndatasize\n      0x20\n      dup2\n      lt\n      iszero\n      tag_234\n      jumpi\n      0x00\n      dup1\n      revert\n    tag_234:\n      pop\n      mload\n      swap1\n        /* \"Vault/EvolleVault.sol\":40962:40997  want().balanceOf(address(this)).add */\n      tag_168\n        /* \"Vault/EvolleVault.sol\":40962:41030  want().balanceOf(address(this)).add(IStrategy(strategy).balanceOf()) */\n      jump\t// in\n        /* \"Vault/EvolleVault.sol\":42174:42720  function deposit(uint _amount) public nonReentrant {... */\n    tag_99:\n        /* \"Vault/EvolleVault.sol\":37166:37167  2 */\n      0x02\n        /* \"Vault/EvolleVault.sol\":37755:37762  _status */\n      sload(0x06)\n        /* \"Vault/EvolleVault.sol\":37755:37774  _status != _ENTERED */\n      eq\n      iszero\n        /* \"Vault/EvolleVault.sol\":37747:37810  require(_status != _ENTERED, \"ReentrancyGuard: reentrant call\") */\n      tag_236\n      jumpi\n      0x40\n      dup1\n      mload\n      shl(0xe5, 0x461bcd)\n      dup2\n      mstore\n      0x20\n      0x04\n      dup3\n      add\n      mstore\n      0x1f\n      0x24\n      dup3\n      add\n      mstore\n      0x5265656e7472616e637947756172643a207265656e7472616e742063616c6c00\n      0x44\n      dup3\n      add\n      mstore\n      swap1\n      mload\n      swap1\n      dup2\n      swap1\n      sub\n      0x64\n      add\n      swap1\n      revert\n    tag_236:\n        /* \"Vault/EvolleVault.sol\":37166:37167  2 */\n      0x02\n        /* \"Vault/EvolleVault.sol\":37885:37892  _status */\n      0x06\n        /* \"Vault/EvolleVault.sol\":37885:37903  _status = _ENTERED */\n      sstore\n        /* \"Vault/EvolleVault.sol\":42235:42243  strategy */\n      sload(0x09)\n        /* \"Vault/EvolleVault.sol\":42235:42259  strategy.beforeDeposit() */\n      0x40\n      dup1\n      mload\n      shl(0xe1, 0x2b9ff785)\n      dup2\n      mstore\n      swap1\n      mload\n      sub(shl(0xa0, 0x01), 0x01)\n        /* \"Vault/EvolleVault.sol\":42235:42243  strategy */\n      swap1\n      swap3\n      and\n      swap2\n        /* \"Vault/EvolleVault.sol\":42235:42257  strategy.beforeDeposit */\n      0x573fef0a\n      swap2\n        /* \"Vault/EvolleVault.sol\":42235:42259  strategy.beforeDeposit() */\n      0x04\n      dup1\n      dup3\n      add\n      swap3\n        /* \"Vault/EvolleVault.sol\":42235:42243  strategy */\n      0x00\n      swap3\n        /* \"Vault/EvolleVault.sol\":42235:42259  strategy.beforeDeposit() */\n      swap1\n      swap2\n      swap1\n      dup3\n      swap1\n      sub\n      add\n      dup2\n        /* \"Vault/EvolleVault.sol\":42235:42243  strategy */\n      dup4\n      dup8\n        /* \"Vault/EvolleVault.sol\":42235:42259  strategy.beforeDeposit() */\n      dup1\n      extcodesize\n      iszero\n      dup1\n      iszero\n      tag_238\n      jumpi\n      0x00\n      dup1\n      revert\n    tag_238:\n      pop\n      gas\n      call\n      iszero\n      dup1\n      iszero\n      tag_240\n      jumpi\n      returndatasize\n      0x00\n      dup1\n      returndatacopy\n      revert(0x00, returndatasize)\n    tag_240:\n      pop\n      pop\n      pop\n      pop\n        /* \"Vault/EvolleVault.sol\":42270:42283  uint256 _pool */\n      0x00\n        /* \"Vault/EvolleVault.sol\":42286:42295  balance() */\n      tag_241\n        /* \"Vault/EvolleVault.sol\":42286:42293  balance */\n      tag_96\n        /* \"Vault/EvolleVault.sol\":42286:42295  balance() */\n      jump\t// in\n    tag_241:\n        /* \"Vault/EvolleVault.sol\":42270:42295  uint256 _pool = balance() */\n      swap1\n      pop\n        /* \"Vault/EvolleVault.sol\":42305:42364  want().safeTransferFrom(msg.sender, address(this), _amount) */\n      tag_242\n        /* \"Vault/EvolleVault.sol\":42329:42339  msg.sender */\n      caller\n        /* \"Vault/EvolleVault.sol\":42349:42353  this */\n      address\n        /* \"Vault/EvolleVault.sol\":42356:42363  _amount */\n      dup5\n        /* \"Vault/EvolleVault.sol\":42305:42311  want() */\n      tag_243\n        /* \"Vault/EvolleVault.sol\":42305:42309  want */\n      tag_51\n        /* \"Vault/EvolleVault.sol\":42305:42311  want() */\n      jump\t// in\n    tag_243:\n      sub(shl(0xa0, 0x01), 0x01)\n        /* \"Vault/EvolleVault.sol\":42305:42328  want().safeTransferFrom */\n      and\n      swap3\n        /* \"Vault/EvolleVault.sol\":42305:42364  want().safeTransferFrom(msg.sender, address(this), _amount) */\n      swap2\n      swap1\n        /* \"Vault/EvolleVault.sol\":42305:42328  want().safeTransferFrom */\n      tag_244\n        /* \"Vault/EvolleVault.sol\":42305:42364  want().safeTransferFrom(msg.sender, address(this), _amount) */\n      jump\t// in\n    tag_242:\n        /* \"Vault/EvolleVault.sol\":42374:42380  earn() */\n      tag_245\n        /* \"Vault/EvolleVault.sol\":42374:42378  earn */\n      tag_101\n        /* \"Vault/EvolleVault.sol\":42374:42380  earn() */\n      jump\t// in\n    tag_245:\n        /* \"Vault/EvolleVault.sol\":42390:42404  uint256 _after */\n      0x00\n        /* \"Vault/EvolleVault.sol\":42407:42416  balance() */\n      tag_246\n        /* \"Vault/EvolleVault.sol\":42407:42414  balance */\n      tag_96\n        /* \"Vault/EvolleVault.sol\":42407:42416  balance() */\n      jump\t// in\n    tag_246:\n        /* \"Vault/EvolleVault.sol\":42390:42416  uint256 _after = balance() */\n      swap1\n      pop\n        /* \"Vault/EvolleVault.sol\":42436:42453  _after.sub(_pool) */\n      tag_247\n        /* \"Vault/EvolleVault.sol\":42390:42416  uint256 _after = balance() */\n      dup2\n        /* \"Vault/EvolleVault.sol\":42447:42452  _pool */\n      dup4\n        /* \"Vault/EvolleVault.sol\":42436:42446  _after.sub */\n      tag_156\n        /* \"Vault/EvolleVault.sol\":42436:42453  _after.sub(_pool) */\n      jump\t// in\n    tag_247:\n        /* \"Vault/EvolleVault.sol\":42426:42453  _amount = _after.sub(_pool) */\n      swap3\n      pop\n        /* \"Vault/EvolleVault.sol\":42507:42521  uint256 shares */\n      0x00\n        /* \"Vault/EvolleVault.sol\":42539:42552  totalSupply() */\n      tag_248\n        /* \"Vault/EvolleVault.sol\":42539:42550  totalSupply */\n      tag_49\n        /* \"Vault/EvolleVault.sol\":42539:42552  totalSupply() */\n      jump\t// in\n    tag_248:\n        /* \"Vault/EvolleVault.sol\":42535:42679  if (totalSupply() == 0) {... */\n      tag_249\n      jumpi\n      pop\n        /* \"Vault/EvolleVault.sol\":42582:42589  _amount */\n      dup3\n        /* \"Vault/EvolleVault.sol\":42535:42679  if (totalSupply() == 0) {... */\n      jump(tag_250)\n    tag_249:\n        /* \"Vault/EvolleVault.sol\":42629:42668  (_amount.mul(totalSupply())).div(_pool) */\n      tag_251\n        /* \"Vault/EvolleVault.sol\":42662:42667  _pool */\n      dup4\n        /* \"Vault/EvolleVault.sol\":42630:42656  _amount.mul(totalSupply()) */\n      tag_143\n        /* \"Vault/EvolleVault.sol\":42642:42655  totalSupply() */\n      tag_253\n        /* \"Vault/EvolleVault.sol\":42642:42653  totalSupply */\n      tag_49\n        /* \"Vault/EvolleVault.sol\":42642:42655  totalSupply() */\n      jump\t// in\n    tag_253:\n        /* \"Vault/EvolleVault.sol\":42630:42637  _amount */\n      dup8\n      swap1\n        /* \"Vault/EvolleVault.sol\":42630:42641  _amount.mul */\n      tag_145\n        /* \"Vault/EvolleVault.sol\":42630:42656  _amount.mul(totalSupply()) */\n      jump\t// in\n        /* \"Vault/EvolleVault.sol\":42629:42668  (_amount.mul(totalSupply())).div(_pool) */\n    tag_251:\n        /* \"Vault/EvolleVault.sol\":42620:42668  shares = (_amount.mul(totalSupply())).div(_pool) */\n      swap1\n      pop\n        /* \"Vault/EvolleVault.sol\":42535:42679  if (totalSupply() == 0) {... */\n    tag_250:\n        /* \"Vault/EvolleVault.sol\":42688:42713  _mint(msg.sender, shares) */\n      tag_254\n        /* \"Vault/EvolleVault.sol\":42694:42704  msg.sender */\n      caller\n        /* \"Vault/EvolleVault.sol\":42706:42712  shares */\n      dup3\n        /* \"Vault/EvolleVault.sol\":42688:42693  _mint */\n      tag_255\n        /* \"Vault/EvolleVault.sol\":42688:42713  _mint(msg.sender, shares) */\n      jump\t// in\n    tag_254:\n      pop\n      pop\n        /* \"Vault/EvolleVault.sol\":37123:37124  1 */\n      0x01\n        /* \"Vault/EvolleVault.sol\":38058:38065  _status */\n      0x06\n        /* \"Vault/EvolleVault.sol\":38058:38080  _status = _NOT_ENTERED */\n      sstore\n      pop\n      pop\n        /* \"Vault/EvolleVault.sol\":42174:42720  function deposit(uint _amount) public nonReentrant {... */\n      jump\t// out\n        /* \"Vault/EvolleVault.sol\":42881:43026  function earn() public {... */\n    tag_101:\n        /* \"Vault/EvolleVault.sol\":42914:42923  uint _bal */\n      0x00\n        /* \"Vault/EvolleVault.sol\":42926:42937  available() */\n      tag_257\n        /* \"Vault/EvolleVault.sol\":42926:42935  available */\n      tag_64\n        /* \"Vault/EvolleVault.sol\":42926:42937  available() */\n      jump\t// in\n    tag_257:\n        /* \"Vault/EvolleVault.sol\":42975:42983  strategy */\n      sload(0x09)\n        /* \"Vault/EvolleVault.sol\":42914:42937  uint _bal = available() */\n      swap1\n      swap2\n      pop\n        /* \"Vault/EvolleVault.sol\":42947:42991  want().safeTransfer(address(strategy), _bal) */\n      tag_258\n      swap1\n      sub(shl(0xa0, 0x01), 0x01)\n        /* \"Vault/EvolleVault.sol\":42975:42983  strategy */\n      and\n        /* \"Vault/EvolleVault.sol\":42914:42937  uint _bal = available() */\n      dup3\n        /* \"Vault/EvolleVault.sol\":42947:42953  want() */\n      tag_170\n        /* \"Vault/EvolleVault.sol\":42947:42951  want */\n      tag_51\n        /* \"Vault/EvolleVault.sol\":42947:42953  want() */\n      jump\t// in\n        /* \"Vault/EvolleVault.sol\":42947:42991  want().safeTransfer(address(strategy), _bal) */\n    tag_258:\n        /* \"Vault/EvolleVault.sol\":43001:43009  strategy */\n      0x09\n      0x00\n      swap1\n      sload\n      swap1\n      0x0100\n      exp\n      swap1\n      div\n      sub(shl(0xa0, 0x01), 0x01)\n      and\n      sub(shl(0xa0, 0x01), 0x01)\n        /* \"Vault/EvolleVault.sol\":43001:43017  strategy.deposit */\n      and\n      0xd0e30db0\n        /* \"Vault/EvolleVault.sol\":43001:43019  strategy.deposit() */\n      mload(0x40)\n      dup2\n      0xffffffff\n      and\n      0xe0\n      shl\n      dup2\n      mstore\n      0x04\n      add\n      0x00\n      mload(0x40)\n      dup1\n      dup4\n      sub\n      dup2\n      0x00\n      dup8\n      dup1\n      extcodesize\n      iszero\n      dup1\n      iszero\n      tag_260\n      jumpi\n      0x00\n      dup1\n      revert\n    tag_260:\n      pop\n      gas\n      call\n      iszero\n      dup1\n      iszero\n      tag_262\n      jumpi\n      returndatasize\n      0x00\n      dup1\n      returndatacopy\n      revert(0x00, returndatasize)\n    tag_262:\n      pop\n      pop\n      pop\n      pop\n        /* \"Vault/EvolleVault.sol\":42881:43026  function earn() public {... */\n      pop\n      jump\t// out\n        /* \"Vault/EvolleVault.sol\":14833:14982  function allowance(address owner, address spender) public view virtual override returns (uint256) {... */\n    tag_104:\n      sub(shl(0xa0, 0x01), 0x01)\n        /* \"Vault/EvolleVault.sol\":14948:14966  _allowances[owner] */\n      swap2\n      dup3\n      and\n        /* \"Vault/EvolleVault.sol\":14922:14929  uint256 */\n      0x00\n        /* \"Vault/EvolleVault.sol\":14948:14966  _allowances[owner] */\n      swap1\n      dup2\n      mstore\n        /* \"Vault/EvolleVault.sol\":14948:14959  _allowances */\n      0x01\n        /* \"Vault/EvolleVault.sol\":14948:14966  _allowances[owner] */\n      0x20\n      swap1\n      dup2\n      mstore\n      0x40\n      dup1\n      dup4\n      keccak256\n        /* \"Vault/EvolleVault.sol\":14948:14975  _allowances[owner][spender] */\n      swap4\n      swap1\n      swap5\n      and\n      dup3\n      mstore\n      swap2\n      swap1\n      swap2\n      mstore\n      keccak256\n      sload\n      swap1\n        /* \"Vault/EvolleVault.sol\":14833:14982  function allowance(address owner, address spender) public view virtual override returns (uint256) {... */\n      jump\t// out\n        /* \"Vault/EvolleVault.sol\":41893:41978  function depositAll() external {... */\n    tag_106:\n        /* \"Vault/EvolleVault.sol\":41934:41971  deposit(want().balanceOf(msg.sender)) */\n      tag_209\n        /* \"Vault/EvolleVault.sol\":41942:41948  want() */\n      tag_266\n        /* \"Vault/EvolleVault.sol\":41942:41946  want */\n      tag_51\n        /* \"Vault/EvolleVault.sol\":41942:41948  want() */\n      jump\t// in\n    tag_266:\n      sub(shl(0xa0, 0x01), 0x01)\n        /* \"Vault/EvolleVault.sol\":41942:41958  want().balanceOf */\n      and\n      0x70a08231\n        /* \"Vault/EvolleVault.sol\":41959:41969  msg.sender */\n      caller\n        /* \"Vault/EvolleVault.sol\":41942:41970  want().balanceOf(msg.sender) */\n      mload(0x40)\n      dup3\n      0xffffffff\n      and\n      0xe0\n      shl\n      dup2\n      mstore\n      0x04\n      add\n      dup1\n      dup3\n      sub(shl(0xa0, 0x01), 0x01)\n      and\n      dup2\n      mstore\n      0x20\n      add\n      swap2\n      pop\n      pop\n      0x20\n      mload(0x40)\n      dup1\n      dup4\n      sub\n      dup2\n      dup7\n      dup1\n      extcodesize\n      iszero\n      dup1\n      iszero\n      tag_267\n      jumpi\n      0x00\n      dup1\n      revert\n    tag_267:\n      pop\n      gas\n      staticcall\n      iszero\n      dup1\n      iszero\n      tag_269\n      jumpi\n      returndatasize\n      0x00\n      dup1\n      returndatacopy\n      revert(0x00, returndatasize)\n    tag_269:\n      pop\n      pop\n      pop\n      pop\n      mload(0x40)\n      returndatasize\n      0x20\n      dup2\n      lt\n      iszero\n      tag_270\n      jumpi\n      0x00\n      dup1\n      revert\n    tag_270:\n      pop\n      mload\n        /* \"Vault/EvolleVault.sol\":41934:41941  deposit */\n      tag_99\n        /* \"Vault/EvolleVault.sol\":41934:41971  deposit(want().balanceOf(msg.sender)) */\n      jump\t// in\n        /* \"Vault/EvolleVault.sol\":45417:45667  function inCaseTokensGetStuck(address _token) external onlyOwner {... */\n    tag_109:\n        /* \"Vault/EvolleVault.sol\":34495:34507  _msgSender() */\n      tag_272\n        /* \"Vault/EvolleVault.sol\":34495:34505  _msgSender */\n      tag_124\n        /* \"Vault/EvolleVault.sol\":34495:34507  _msgSender() */\n      jump\t// in\n    tag_272:\n      sub(shl(0xa0, 0x01), 0x01)\n        /* \"Vault/EvolleVault.sol\":34484:34507  owner() == _msgSender() */\n      and\n        /* \"Vault/EvolleVault.sol\":34484:34491  owner() */\n      tag_273\n        /* \"Vault/EvolleVault.sol\":34484:34489  owner */\n      tag_80\n        /* \"Vault/EvolleVault.sol\":34484:34491  owner() */\n      jump\t// in\n    tag_273:\n      sub(shl(0xa0, 0x01), 0x01)\n        /* \"Vault/EvolleVault.sol\":34484:34507  owner() == _msgSender() */\n      and\n      eq\n        /* \"Vault/EvolleVault.sol\":34476:34544  require(owner() == _msgSender(), \"Ownable: caller is not the owner\") */\n      tag_274\n      jumpi\n      0x40\n      dup1\n      mload\n      shl(0xe5, 0x461bcd)\n      dup2\n      mstore\n      0x20\n      0x04\n      dup3\n      add\n      dup2\n      swap1\n      mstore\n      0x24\n      dup3\n      add\n      mstore\n      0x00\n      dup1\n      mload\n      0x20\n      data_9924ebdf1add33d25d4ef888e16131f0a5687b0580a36c21b5c301a6c462effe\n      dup4\n      codecopy\n      dup2\n      mload\n      swap2\n      mstore\n      0x44\n      dup3\n      add\n      mstore\n      swap1\n      mload\n      swap1\n      dup2\n      swap1\n      sub\n      0x64\n      add\n      swap1\n      revert\n    tag_274:\n        /* \"Vault/EvolleVault.sol\":45518:45524  want() */\n      tag_276\n        /* \"Vault/EvolleVault.sol\":45518:45522  want */\n      tag_51\n        /* \"Vault/EvolleVault.sol\":45518:45524  want() */\n      jump\t// in\n    tag_276:\n      sub(shl(0xa0, 0x01), 0x01)\n        /* \"Vault/EvolleVault.sol\":45500:45525  _token != address(want()) */\n      and\n        /* \"Vault/EvolleVault.sol\":45500:45506  _token */\n      dup2\n      sub(shl(0xa0, 0x01), 0x01)\n        /* \"Vault/EvolleVault.sol\":45500:45525  _token != address(want()) */\n      and\n      eq\n      iszero\n        /* \"Vault/EvolleVault.sol\":45492:45536  require(_token != address(want()), \"!token\") */\n      tag_277\n      jumpi\n      0x40\n      dup1\n      mload\n      shl(0xe5, 0x461bcd)\n      dup2\n      mstore\n      0x20\n      0x04\n      dup3\n      add\n      mstore\n      0x06\n      0x24\n      dup3\n      add\n      mstore\n      shl(0xd1, 0x10ba37b5b2b7)\n      0x44\n      dup3\n      add\n      mstore\n      swap1\n      mload\n      swap1\n      dup2\n      swap1\n      sub\n      0x64\n      add\n      swap1\n      revert\n    tag_277:\n        /* \"Vault/EvolleVault.sol\":45547:45561  uint256 amount */\n      0x00\n        /* \"Vault/EvolleVault.sol\":45571:45577  _token */\n      dup2\n      sub(shl(0xa0, 0x01), 0x01)\n        /* \"Vault/EvolleVault.sol\":45564:45588  IERC20(_token).balanceOf */\n      and\n      0x70a08231\n        /* \"Vault/EvolleVault.sol\":45597:45601  this */\n      address\n        /* \"Vault/EvolleVault.sol\":45564:45603  IERC20(_token).balanceOf(address(this)) */\n      mload(0x40)\n      dup3\n      0xffffffff\n      and\n      0xe0\n      shl\n      dup2\n      mstore\n      0x04\n      add\n      dup1\n      dup3\n      sub(shl(0xa0, 0x01), 0x01)\n      and\n      dup2\n      mstore\n      0x20\n      add\n      swap2\n      pop\n      pop\n      0x20\n      mload(0x40)\n      dup1\n      dup4\n      sub\n      dup2\n      dup7\n      dup1\n      extcodesize\n      iszero\n      dup1\n      iszero\n      tag_278\n      jumpi\n      0x00\n      dup1\n      revert\n    tag_278:\n      pop\n      gas\n      staticcall\n      iszero\n      dup1\n      iszero\n      tag_280\n      jumpi\n      returndatasize\n      0x00\n      dup1\n      returndatacopy\n      revert(0x00, returndatasize)\n    tag_280:\n      pop\n      pop\n      pop\n      pop\n      mload(0x40)\n      returndatasize\n      0x20\n      dup2\n      lt\n      iszero\n      tag_281\n      jumpi\n      0x00\n      dup1\n      revert\n    tag_281:\n      pop\n      mload\n      swap1\n      pop\n        /* \"Vault/EvolleVault.sol\":45613:45660  IERC20(_token).safeTransfer(msg.sender, amount) */\n      tag_282\n      sub(shl(0xa0, 0x01), 0x01)\n        /* \"Vault/EvolleVault.sol\":45613:45640  IERC20(_token).safeTransfer */\n      dup4\n      and\n        /* \"Vault/EvolleVault.sol\":45641:45651  msg.sender */\n      caller\n        /* \"Vault/EvolleVault.sol\":45564:45603  IERC20(_token).balanceOf(address(this)) */\n      dup4\n        /* \"Vault/EvolleVault.sol\":45613:45640  IERC20(_token).safeTransfer */\n      tag_171\n        /* \"Vault/EvolleVault.sol\":45613:45660  IERC20(_token).safeTransfer(msg.sender, amount) */\n      jump\t// in\n    tag_282:\n        /* \"Vault/EvolleVault.sol\":34554:34555  _ */\n      pop\n        /* \"Vault/EvolleVault.sol\":45417:45667  function inCaseTokensGetStuck(address _token) external onlyOwner {... */\n      pop\n      jump\t// out\n        /* \"Vault/EvolleVault.sol\":39572:39610  uint256 public immutable approvalDelay */\n    tag_111:\n      immutable(\"0xbd4cd594c0d7e7808ed6d371a1eac9e421715fa066e86940ce0d6d7ca2323404\")\n      dup2\n      jump\t// out\n        /* \"Vault/EvolleVault.sol\":44760:45274  function upgradeStrat() public onlyOwner {... */\n    tag_113:\n        /* \"Vault/EvolleVault.sol\":34495:34507  _msgSender() */\n      tag_284\n        /* \"Vault/EvolleVault.sol\":34495:34505  _msgSender */\n      tag_124\n        /* \"Vault/EvolleVault.sol\":34495:34507  _msgSender() */\n      jump\t// in\n    tag_284:\n      sub(shl(0xa0, 0x01), 0x01)\n        /* \"Vault/EvolleVault.sol\":34484:34507  owner() == _msgSender() */\n      and\n        /* \"Vault/EvolleVault.sol\":34484:34491  owner() */\n      tag_285\n        /* \"Vault/EvolleVault.sol\":34484:34489  owner */\n      tag_80\n        /* \"Vault/EvolleVault.sol\":34484:34491  owner() */\n      jump\t// in\n    tag_285:\n      sub(shl(0xa0, 0x01), 0x01)\n        /* \"Vault/EvolleVault.sol\":34484:34507  owner() == _msgSender() */\n      and\n      eq\n        /* \"Vault/EvolleVault.sol\":34476:34544  require(owner() == _msgSender(), \"Ownable: caller is not the owner\") */\n      tag_286\n      jumpi\n      0x40\n      dup1\n      mload\n      shl(0xe5, 0x461bcd)\n      dup2\n      mstore\n      0x20\n      0x04\n      dup3\n      add\n      dup2\n      swap1\n      mstore\n      0x24\n      dup3\n      add\n      mstore\n      0x00\n      dup1\n      mload\n      0x20\n      data_9924ebdf1add33d25d4ef888e16131f0a5687b0580a36c21b5c301a6c462effe\n      dup4\n      codecopy\n      dup2\n      mload\n      swap2\n      mstore\n      0x44\n      dup3\n      add\n      mstore\n      swap1\n      mload\n      swap1\n      dup2\n      swap1\n      sub\n      0x64\n      add\n      swap1\n      revert\n    tag_286:\n        /* \"Vault/EvolleVault.sol\":44819:44833  stratCandidate */\n      0x07\n        /* \"Vault/EvolleVault.sol\":44819:44848  stratCandidate.implementation */\n      sload\n      sub(shl(0xa0, 0x01), 0x01)\n      and\n        /* \"Vault/EvolleVault.sol\":44811:44888  require(stratCandidate.implementation != address(0), \"There is no candidate\") */\n      tag_288\n      jumpi\n      0x40\n      dup1\n      mload\n      shl(0xe5, 0x461bcd)\n      dup2\n      mstore\n      0x20\n      0x04\n      dup3\n      add\n      mstore\n      0x15\n      0x24\n      dup3\n      add\n      mstore\n      shl(0x58, 0x5468657265206973206e6f2063616e646964617465)\n      0x44\n      dup3\n      add\n      mstore\n      swap1\n      mload\n      swap1\n      dup2\n      swap1\n      sub\n      0x64\n      add\n      swap1\n      revert\n    tag_288:\n        /* \"Vault/EvolleVault.sol\":44906:44933  stratCandidate.proposedTime */\n      sload(0x08)\n        /* \"Vault/EvolleVault.sol\":44955:44970  block.timestamp */\n      timestamp\n      swap1\n        /* \"Vault/EvolleVault.sol\":44906:44952  stratCandidate.proposedTime.add(approvalDelay) */\n      tag_289\n      swap1\n        /* \"Vault/EvolleVault.sol\":44938:44951  approvalDelay */\n      immutable(\"0xbd4cd594c0d7e7808ed6d371a1eac9e421715fa066e86940ce0d6d7ca2323404\")\n        /* \"Vault/EvolleVault.sol\":44906:44937  stratCandidate.proposedTime.add */\n      tag_168\n        /* \"Vault/EvolleVault.sol\":44906:44952  stratCandidate.proposedTime.add(approvalDelay) */\n      jump\t// in\n    tag_289:\n        /* \"Vault/EvolleVault.sol\":44906:44970  stratCandidate.proposedTime.add(approvalDelay) < block.timestamp */\n      lt\n        /* \"Vault/EvolleVault.sol\":44898:44995  require(stratCandidate.proposedTime.add(approvalDelay) < block.timestamp, \"Delay has not passed\") */\n      tag_290\n      jumpi\n      0x40\n      dup1\n      mload\n      shl(0xe5, 0x461bcd)\n      dup2\n      mstore\n      0x20\n      0x04\n      dup3\n      add\n      mstore\n      0x14\n      0x24\n      dup3\n      add\n      mstore\n      shl(0x62, 0x11195b185e481a185cc81b9bdd081c185cdcd959)\n      0x44\n      dup3\n      add\n      mstore\n      swap1\n      mload\n      swap1\n      dup2\n      swap1\n      sub\n      0x64\n      add\n      swap1\n      revert\n    tag_290:\n        /* \"Vault/EvolleVault.sol\":45024:45038  stratCandidate */\n      0x07\n        /* \"Vault/EvolleVault.sol\":45024:45053  stratCandidate.implementation */\n      sload\n        /* \"Vault/EvolleVault.sol\":45011:45054  UpgradeStrat(stratCandidate.implementation) */\n      0x40\n      dup1\n      mload\n      sub(shl(0xa0, 0x01), 0x01)\n        /* \"Vault/EvolleVault.sol\":45024:45053  stratCandidate.implementation */\n      swap1\n      swap3\n      and\n        /* \"Vault/EvolleVault.sol\":45011:45054  UpgradeStrat(stratCandidate.implementation) */\n      dup3\n      mstore\n      mload\n      0x7f37d440e85aba7fbf641c4bda5ca4ef669a80bffaacde2aa8d9feb1b048c82c\n      swap2\n      dup2\n      swap1\n      sub\n      0x20\n      add\n      swap1\n      log1\n        /* \"Vault/EvolleVault.sol\":45065:45073  strategy */\n      0x09\n      0x00\n      swap1\n      sload\n      swap1\n      0x0100\n      exp\n      swap1\n      div\n      sub(shl(0xa0, 0x01), 0x01)\n      and\n      sub(shl(0xa0, 0x01), 0x01)\n        /* \"Vault/EvolleVault.sol\":45065:45085  strategy.retireStrat */\n      and\n      0xfb617787\n        /* \"Vault/EvolleVault.sol\":45065:45087  strategy.retireStrat() */\n      mload(0x40)\n      dup2\n      0xffffffff\n      and\n      0xe0\n      shl\n      dup2\n      mstore\n      0x04\n      add\n      0x00\n      mload(0x40)\n      dup1\n      dup4\n      sub\n      dup2\n      0x00\n      dup8\n      dup1\n      extcodesize\n      iszero\n      dup1\n      iszero\n      tag_291\n      jumpi\n      0x00\n      dup1\n      revert\n    tag_291:\n      pop\n      gas\n      call\n      iszero\n      dup1\n      iszero\n      tag_293\n      jumpi\n      returndatasize\n      0x00\n      dup1\n      returndatacopy\n      revert(0x00, returndatasize)\n    tag_293:\n      pop\n      pop\n        /* \"Vault/EvolleVault.sol\":45118:45132  stratCandidate */\n      0x07\n        /* \"Vault/EvolleVault.sol\":45118:45147  stratCandidate.implementation */\n      dup1\n      sload\n        /* \"Vault/EvolleVault.sol\":45097:45105  strategy */\n      0x09\n        /* \"Vault/EvolleVault.sol\":45097:45148  strategy = IStrategy(stratCandidate.implementation) */\n      dup1\n      sload\n      not(sub(shl(0xa0, 0x01), 0x01))\n      swap1\n      dup2\n      and\n      sub(shl(0xa0, 0x01), 0x01)\n        /* \"Vault/EvolleVault.sol\":45118:45147  stratCandidate.implementation */\n      dup5\n      and\n        /* \"Vault/EvolleVault.sol\":45097:45148  strategy = IStrategy(stratCandidate.implementation) */\n      or\n      swap1\n      swap2\n      sstore\n        /* \"Vault/EvolleVault.sol\":45158:45200  stratCandidate.implementation = address(0) */\n      and\n      swap1\n      sstore\n      pop\n      pop\n        /* \"Vault/EvolleVault.sol\":45240:45250  5000000000 */\n      0x012a05f200\n        /* \"Vault/EvolleVault.sol\":45210:45237  stratCandidate.proposedTime */\n      0x08\n        /* \"Vault/EvolleVault.sol\":45210:45250  stratCandidate.proposedTime = 5000000000 */\n      sstore\n        /* \"Vault/EvolleVault.sol\":45261:45267  earn() */\n      tag_209\n        /* \"Vault/EvolleVault.sol\":45261:45265  earn */\n      tag_101\n        /* \"Vault/EvolleVault.sol\":45261:45267  earn() */\n      jump\t// in\n        /* \"Vault/EvolleVault.sol\":35198:35438  function transferOwnership(address newOwner) public virtual onlyOwner {... */\n    tag_116:\n        /* \"Vault/EvolleVault.sol\":34495:34507  _msgSender() */\n      tag_296\n        /* \"Vault/EvolleVault.sol\":34495:34505  _msgSender */\n      tag_124\n        /* \"Vault/EvolleVault.sol\":34495:34507  _msgSender() */\n      jump\t// in\n    tag_296:\n      sub(shl(0xa0, 0x01), 0x01)\n        /* \"Vault/EvolleVault.sol\":34484:34507  owner() == _msgSender() */\n      and\n        /* \"Vault/EvolleVault.sol\":34484:34491  owner() */\n      tag_297\n        /* \"Vault/EvolleVault.sol\":34484:34489  owner */\n      tag_80\n        /* \"Vault/EvolleVault.sol\":34484:34491  owner() */\n      jump\t// in\n    tag_297:\n      sub(shl(0xa0, 0x01), 0x01)\n        /* \"Vault/EvolleVault.sol\":34484:34507  owner() == _msgSender() */\n      and\n      eq\n        /* \"Vault/EvolleVault.sol\":34476:34544  require(owner() == _msgSender(), \"Ownable: caller is not the owner\") */\n      tag_298\n      jumpi\n      0x40\n      dup1\n      mload\n      shl(0xe5, 0x461bcd)\n      dup2\n      mstore\n      0x20\n      0x04\n      dup3\n      add\n      dup2\n      swap1\n      mstore\n      0x24\n      dup3\n      add\n      mstore\n      0x00\n      dup1\n      mload\n      0x20\n      data_9924ebdf1add33d25d4ef888e16131f0a5687b0580a36c21b5c301a6c462effe\n      dup4\n      codecopy\n      dup2\n      mload\n      swap2\n      mstore\n      0x44\n      dup3\n      add\n      mstore\n      swap1\n      mload\n      swap1\n      dup2\n      swap1\n      sub\n      0x64\n      add\n      swap1\n      revert\n    tag_298:\n      sub(shl(0xa0, 0x01), 0x01)\n        /* \"Vault/EvolleVault.sol\":35286:35308  newOwner != address(0) */\n      dup2\n      and\n        /* \"Vault/EvolleVault.sol\":35278:35351  require(newOwner != address(0), \"Ownable: new owner is the zero address\") */\n      tag_300\n      jumpi\n      mload(0x40)\n      shl(0xe5, 0x461bcd)\n      dup2\n      mstore\n      0x04\n      add\n      dup1\n      dup1\n      0x20\n      add\n      dup3\n      dup2\n      sub\n      dup3\n      mstore\n      0x26\n      dup2\n      mstore\n      0x20\n      add\n      dup1\n      data_245f15ff17f551913a7a18385165551503906a406f905ac1c2437281a7cd0cfe\n      0x26\n      swap2\n      codecopy\n      0x40\n      add\n      swap2\n      pop\n      pop\n      mload(0x40)\n      dup1\n      swap2\n      sub\n      swap1\n      revert\n    tag_300:\n        /* \"Vault/EvolleVault.sol\":35387:35393  _owner */\n      sload(0x05)\n        /* \"Vault/EvolleVault.sol\":35366:35404  OwnershipTransferred(_owner, newOwner) */\n      mload(0x40)\n      sub(shl(0xa0, 0x01), 0x01)\n      dup1\n      dup5\n      and\n      swap3\n        /* \"Vault/EvolleVault.sol\":35387:35393  _owner */\n      0x0100\n      swap1\n      div\n      and\n      swap1\n        /* \"Vault/EvolleVault.sol\":35366:35404  OwnershipTransferred(_owner, newOwner) */\n      0x8be0079c531659141344cd1fd0a4f28419497f9722a3daafe3b4186f6b6457e0\n      swap1\n      0x00\n      swap1\n      log3\n        /* \"Vault/EvolleVault.sol\":35414:35420  _owner */\n      0x05\n        /* \"Vault/EvolleVault.sol\":35414:35431  _owner = newOwner */\n      dup1\n      sload\n      sub(shl(0xa0, 0x01), 0x01)\n      swap1\n      swap3\n      and\n      0x0100\n      mul\n      not(sub(shl(0xa8, 0x01), 0x0100))\n      swap1\n      swap3\n      and\n      swap2\n      swap1\n      swap2\n      or\n      swap1\n      sstore\n        /* \"Vault/EvolleVault.sol\":35198:35438  function transferOwnership(address newOwner) public virtual onlyOwner {... */\n      jump\t// out\n        /* \"Vault/EvolleVault.sol\":598:702  function _msgSender() internal view virtual returns (address payable) {... */\n    tag_124:\n        /* \"Vault/EvolleVault.sol\":685:695  msg.sender */\n      caller\n        /* \"Vault/EvolleVault.sol\":598:702  function _msgSender() internal view virtual returns (address payable) {... */\n      swap1\n      jump\t// out\n        /* \"Vault/EvolleVault.sol\":20231:20571  function _approve(address owner, address spender, uint256 amount) internal virtual {... */\n    tag_125:\n      sub(shl(0xa0, 0x01), 0x01)\n        /* \"Vault/EvolleVault.sol\":20332:20351  owner != address(0) */\n      dup4\n      and\n        /* \"Vault/EvolleVault.sol\":20324:20392  require(owner != address(0), \"ERC20: approve from the zero address\") */\n      tag_303\n      jumpi\n      mload(0x40)\n      shl(0xe5, 0x461bcd)\n      dup2\n      mstore\n      0x04\n      add\n      dup1\n      dup1\n      0x20\n      add\n      dup3\n      dup2\n      sub\n      dup3\n      mstore\n      0x24\n      dup2\n      mstore\n      0x20\n      add\n      dup1\n      data_c953f4879035ed60e766b34720f656aab5c697b141d924c283124ecedb91c208\n      0x24\n      swap2\n      codecopy\n      0x40\n      add\n      swap2\n      pop\n      pop\n      mload(0x40)\n      dup1\n      swap2\n      sub\n      swap1\n      revert\n    tag_303:\n      sub(shl(0xa0, 0x01), 0x01)\n        /* \"Vault/EvolleVault.sol\":20410:20431  spender != address(0) */\n      dup3\n      and\n        /* \"Vault/EvolleVault.sol\":20402:20470  require(spender != address(0), \"ERC20: approve to the zero address\") */\n      tag_304\n      jumpi\n      mload(0x40)\n      shl(0xe5, 0x461bcd)\n      dup2\n      mstore\n      0x04\n      add\n      dup1\n      dup1\n      0x20\n      add\n      dup3\n      dup2\n      sub\n      dup3\n      mstore\n      0x22\n      dup2\n      mstore\n      0x20\n      add\n      dup1\n      data_24883cc5fe64ace9d0df1893501ecb93c77180f0ff69cca79affb3c316dc8029\n      0x22\n      swap2\n      codecopy\n      0x40\n      add\n      swap2\n      pop\n      pop\n      mload(0x40)\n      dup1\n      swap2\n      sub\n      swap1\n      revert\n    tag_304:\n      sub(shl(0xa0, 0x01), 0x01)\n        /* \"Vault/EvolleVault.sol\":20481:20499  _allowances[owner] */\n      dup1\n      dup5\n      and\n      0x00\n      dup2\n      dup2\n      mstore\n        /* \"Vault/EvolleVault.sol\":20481:20492  _allowances */\n      0x01\n        /* \"Vault/EvolleVault.sol\":20481:20499  _allowances[owner] */\n      0x20\n      swap1\n      dup2\n      mstore\n      0x40\n      dup1\n      dup4\n      keccak256\n        /* \"Vault/EvolleVault.sol\":20481:20508  _allowances[owner][spender] */\n      swap5\n      dup8\n      and\n      dup1\n      dup5\n      mstore\n      swap5\n      dup3\n      mstore\n      swap2\n      dup3\n      swap1\n      keccak256\n        /* \"Vault/EvolleVault.sol\":20481:20517  _allowances[owner][spender] = amount */\n      dup6\n      swap1\n      sstore\n        /* \"Vault/EvolleVault.sol\":20532:20564  Approval(owner, spender, amount) */\n      dup2\n      mload\n      dup6\n      dup2\n      mstore\n      swap2\n      mload\n      0x8c5be1e5ebec7d5bd14f71427d1e84f3dd0314c0f7b2291e5b200ac8c7c3b925\n      swap3\n      dup2\n      swap1\n      sub\n      swap1\n      swap2\n      add\n      swap1\n      log3\n        /* \"Vault/EvolleVault.sol\":20231:20571  function _approve(address owner, address spender, uint256 amount) internal virtual {... */\n      pop\n      pop\n      pop\n      jump\t// out\n        /* \"Vault/EvolleVault.sol\":17907:18437  function _transfer(address sender, address recipient, uint256 amount) internal virtual {... */\n    tag_134:\n      sub(shl(0xa0, 0x01), 0x01)\n        /* \"Vault/EvolleVault.sol\":18012:18032  sender != address(0) */\n      dup4\n      and\n        /* \"Vault/EvolleVault.sol\":18004:18074  require(sender != address(0), \"ERC20: transfer from the zero address\") */\n      tag_306\n      jumpi\n      mload(0x40)\n      shl(0xe5, 0x461bcd)\n      dup2\n      mstore\n      0x04\n      add\n      dup1\n      dup1\n      0x20\n      add\n      dup3\n      dup2\n      sub\n      dup3\n      mstore\n      0x25\n      dup2\n      mstore\n      0x20\n      add\n      dup1\n      data_baecc556b46f4ed0f2b4cb599d60785ac8563dd2dc0a5bf12edea1c39e5e1fea\n      0x25\n      swap2\n      codecopy\n      0x40\n      add\n      swap2\n      pop\n      pop\n      mload(0x40)\n      dup1\n      swap2\n      sub\n      swap1\n      revert\n    tag_306:\n      sub(shl(0xa0, 0x01), 0x01)\n        /* \"Vault/EvolleVault.sol\":18092:18115  recipient != address(0) */\n      dup3\n      and\n        /* \"Vault/EvolleVault.sol\":18084:18155  require(recipient != address(0), \"ERC20: transfer to the zero address\") */\n      tag_307\n      jumpi\n      mload(0x40)\n      shl(0xe5, 0x461bcd)\n      dup2\n      mstore\n      0x04\n      add\n      dup1\n      dup1\n      0x20\n      add\n      dup3\n      dup2\n      sub\n      dup3\n      mstore\n      0x23\n      dup2\n      mstore\n      0x20\n      add\n      dup1\n      data_0557e210f7a69a685100a7e4e3d0a7024c546085cee28910fd17d0b081d9516f\n      0x23\n      swap2\n      codecopy\n      0x40\n      add\n      swap2\n      pop\n      pop\n      mload(0x40)\n      dup1\n      swap2\n      sub\n      swap1\n      revert\n    tag_307:\n        /* \"Vault/EvolleVault.sol\":18166:18213  _beforeTokenTransfer(sender, recipient, amount) */\n      tag_308\n        /* \"Vault/EvolleVault.sol\":18187:18193  sender */\n      dup4\n        /* \"Vault/EvolleVault.sol\":18195:18204  recipient */\n      dup4\n        /* \"Vault/EvolleVault.sol\":18206:18212  amount */\n      dup4\n        /* \"Vault/EvolleVault.sol\":18166:18186  _beforeTokenTransfer */\n      tag_169\n        /* \"Vault/EvolleVault.sol\":18166:18213  _beforeTokenTransfer(sender, recipient, amount) */\n      jump\t// in\n    tag_308:\n        /* \"Vault/EvolleVault.sol\":18244:18315  _balances[sender].sub(amount, \"ERC20: transfer amount exceeds balance\") */\n      tag_310\n        /* \"Vault/EvolleVault.sol\":18266:18272  amount */\n      dup2\n        /* \"Vault/EvolleVault.sol\":18244:18315  _balances[sender].sub(amount, \"ERC20: transfer amount exceeds balance\") */\n      mload(0x40)\n      dup1\n      0x60\n      add\n      0x40\n      mstore\n      dup1\n      0x26\n      dup2\n      mstore\n      0x20\n      add\n      data_4107e8a8b9e94bf8ff83080ddec1c0bffe897ebc2241b89d44f66b3d274088b6\n      0x26\n      swap2\n      codecopy\n      sub(shl(0xa0, 0x01), 0x01)\n        /* \"Vault/EvolleVault.sol\":18244:18261  _balances[sender] */\n      dup7\n      and\n        /* \"Vault/EvolleVault.sol\":18244:18253  _balances */\n      0x00\n        /* \"Vault/EvolleVault.sol\":18244:18261  _balances[sender] */\n      swap1\n      dup2\n      mstore\n      0x20\n      dup2\n      swap1\n      mstore\n      0x40\n      swap1\n      keccak256\n      sload\n      swap2\n        /* \"Vault/EvolleVault.sol\":18244:18315  _balances[sender].sub(amount, \"ERC20: transfer amount exceeds balance\") */\n      swap1\n        /* \"Vault/EvolleVault.sol\":18244:18265  _balances[sender].sub */\n      tag_139\n        /* \"Vault/EvolleVault.sol\":18244:18315  _balances[sender].sub(amount, \"ERC20: transfer amount exceeds balance\") */\n      jump\t// in\n    tag_310:\n      sub(shl(0xa0, 0x01), 0x01)\n        /* \"Vault/EvolleVault.sol\":18224:18241  _balances[sender] */\n      dup1\n      dup6\n      and\n        /* \"Vault/EvolleVault.sol\":18224:18233  _balances */\n      0x00\n        /* \"Vault/EvolleVault.sol\":18224:18241  _balances[sender] */\n      swap1\n      dup2\n      mstore\n      0x20\n      dup2\n      swap1\n      mstore\n      0x40\n      dup1\n      dup3\n      keccak256\n        /* \"Vault/EvolleVault.sol\":18224:18315  _balances[sender] = _balances[sender].sub(amount, \"ERC20: transfer amount exceeds balance\") */\n      swap4\n      swap1\n      swap4\n      sstore\n        /* \"Vault/EvolleVault.sol\":18348:18368  _balances[recipient] */\n      swap1\n      dup5\n      and\n      dup2\n      mstore\n      keccak256\n      sload\n        /* \"Vault/EvolleVault.sol\":18348:18380  _balances[recipient].add(amount) */\n      tag_311\n      swap1\n        /* \"Vault/EvolleVault.sol\":18373:18379  amount */\n      dup3\n        /* \"Vault/EvolleVault.sol\":18348:18372  _balances[recipient].add */\n      tag_168\n        /* \"Vault/EvolleVault.sol\":18348:18380  _balances[recipient].add(amount) */\n      jump\t// in\n    tag_311:\n      sub(shl(0xa0, 0x01), 0x01)\n        /* \"Vault/EvolleVault.sol\":18325:18345  _balances[recipient] */\n      dup1\n      dup5\n      and\n        /* \"Vault/EvolleVault.sol\":18325:18334  _balances */\n      0x00\n        /* \"Vault/EvolleVault.sol\":18325:18345  _balances[recipient] */\n      dup2\n      dup2\n      mstore\n      0x20\n      dup2\n      dup2\n      mstore\n      0x40\n      swap2\n      dup3\n      swap1\n      keccak256\n        /* \"Vault/EvolleVault.sol\":18325:18380  _balances[recipient] = _balances[recipient].add(amount) */\n      swap5\n      swap1\n      swap5\n      sstore\n        /* \"Vault/EvolleVault.sol\":18395:18430  Transfer(sender, recipient, amount) */\n      dup1\n      mload\n      dup6\n      dup2\n      mstore\n      swap1\n      mload\n        /* \"Vault/EvolleVault.sol\":18325:18345  _balances[recipient] */\n      swap2\n      swap4\n        /* \"Vault/EvolleVault.sol\":18395:18430  Transfer(sender, recipient, amount) */\n      swap3\n      dup8\n      and\n      swap3\n      0xddf252ad1be2c89b69c2b068fc378daa952ba7f163c4a11628f55a4df523b3ef\n      swap3\n      swap2\n      dup3\n      swap1\n      sub\n      add\n      swap1\n      log3\n        /* \"Vault/EvolleVault.sol\":17907:18437  function _transfer(address sender, address recipient, uint256 amount) internal virtual {... */\n      pop\n      pop\n      pop\n      jump\t// out\n        /* \"Vault/EvolleVault.sol\":9140:9303  function sub(uint256 a, uint256 b, string memory errorMessage) internal pure returns (uint256) {... */\n    tag_139:\n        /* \"Vault/EvolleVault.sol\":9226:9233  uint256 */\n      0x00\n        /* \"Vault/EvolleVault.sol\":9261:9273  errorMessage */\n      dup2\n        /* \"Vault/EvolleVault.sol\":9253:9259  b <= a */\n      dup5\n      dup5\n      gt\n      iszero\n        /* \"Vault/EvolleVault.sol\":9245:9274  require(b <= a, errorMessage) */\n      tag_313\n      jumpi\n      mload(0x40)\n      shl(0xe5, 0x461bcd)\n      dup2\n      mstore\n      0x04\n      add\n      dup1\n      dup1\n      0x20\n      add\n      dup3\n      dup2\n      sub\n      dup3\n      mstore\n      dup4\n      dup2\n      dup2\n      mload\n      dup2\n      mstore\n      0x20\n      add\n      swap2\n      pop\n      dup1\n      mload\n      swap1\n      0x20\n      add\n      swap1\n      dup1\n      dup4\n      dup4\n      0x00\n    tag_314:\n      dup4\n      dup2\n      lt\n      iszero\n      tag_316\n      jumpi\n      dup2\n      dup2\n      add\n      mload\n      dup4\n      dup3\n      add\n      mstore\n      0x20\n      add\n      jump(tag_314)\n    tag_316:\n      pop\n      pop\n      pop\n      pop\n      swap1\n      pop\n      swap1\n      dup2\n      add\n      swap1\n      0x1f\n      and\n      dup1\n      iszero\n      tag_317\n      jumpi\n      dup1\n      dup3\n      sub\n      dup1\n      mload\n      0x01\n      dup4\n      0x20\n      sub\n      0x0100\n      exp\n      sub\n      not\n      and\n      dup2\n      mstore\n      0x20\n      add\n      swap2\n      pop\n    tag_317:\n      pop\n      swap3\n      pop\n      pop\n      pop\n      mload(0x40)\n      dup1\n      swap2\n      sub\n      swap1\n      revert\n    tag_313:\n      pop\n      pop\n      pop\n        /* \"Vault/EvolleVault.sol\":9291:9296  a - b */\n      swap1\n      sub\n      swap1\n        /* \"Vault/EvolleVault.sol\":9140:9303  function sub(uint256 a, uint256 b, string memory errorMessage) internal pure returns (uint256) {... */\n      jump\t// out\n        /* \"Vault/EvolleVault.sol\":7246:7461  function mul(uint256 a, uint256 b) internal pure returns (uint256) {... */\n    tag_145:\n        /* \"Vault/EvolleVault.sol\":7304:7311  uint256 */\n      0x00\n        /* \"Vault/EvolleVault.sol\":7327:7333  a == 0 */\n      dup3\n        /* \"Vault/EvolleVault.sol\":7323:7343  if (a == 0) return 0 */\n      tag_319\n      jumpi\n      pop\n        /* \"Vault/EvolleVault.sol\":7342:7343  0 */\n      0x00\n        /* \"Vault/EvolleVault.sol\":7335:7343  return 0 */\n      jump(tag_121)\n        /* \"Vault/EvolleVault.sol\":7323:7343  if (a == 0) return 0 */\n    tag_319:\n        /* \"Vault/EvolleVault.sol\":7365:7370  a * b */\n      dup3\n      dup3\n      mul\n        /* \"Vault/EvolleVault.sol\":7369:7370  b */\n      dup3\n        /* \"Vault/EvolleVault.sol\":7365:7366  a */\n      dup5\n        /* \"Vault/EvolleVault.sol\":7365:7370  a * b */\n      dup3\n        /* \"Vault/EvolleVault.sol\":7365:7366  a */\n      dup2\n        /* \"Vault/EvolleVault.sol\":7388:7393  c / a */\n      tag_320\n      jumpi\n      invalid\n    tag_320:\n      div\n        /* \"Vault/EvolleVault.sol\":7388:7398  c / a == b */\n      eq\n        /* \"Vault/EvolleVault.sol\":7380:7436  require(c / a == b, \"SafeMath: multiplication overflow\") */\n      tag_132\n      jumpi\n      mload(0x40)\n      shl(0xe5, 0x461bcd)\n      dup2\n      mstore\n      0x04\n      add\n      dup1\n      dup1\n      0x20\n      add\n      dup3\n      dup2\n      sub\n      dup3\n      mstore\n      0x21\n      dup2\n      mstore\n      0x20\n      add\n      dup1\n      data_9113bb53c2876a3805b2c9242029423fc540a728243ce887ab24c82cf119fba3\n      0x21\n      swap2\n      codecopy\n      0x40\n      add\n      swap2\n      pop\n      pop\n      mload(0x40)\n      dup1\n      swap2\n      sub\n      swap1\n      revert\n        /* \"Vault/EvolleVault.sol\":7925:8075  function div(uint256 a, uint256 b) internal pure returns (uint256) {... */\n    tag_146:\n        /* \"Vault/EvolleVault.sol\":7983:7990  uint256 */\n      0x00\n        /* \"Vault/EvolleVault.sol\":8014:8015  0 */\n      dup1\n        /* \"Vault/EvolleVault.sol\":8010:8011  b */\n      dup3\n        /* \"Vault/EvolleVault.sol\":8010:8015  b > 0 */\n      gt\n        /* \"Vault/EvolleVault.sol\":8002:8046  require(b > 0, \"SafeMath: division by zero\") */\n      tag_323\n      jumpi\n      0x40\n      dup1\n      mload\n      shl(0xe5, 0x461bcd)\n      dup2\n      mstore\n      0x20\n      0x04\n      dup3\n      add\n      mstore\n      0x1a\n      0x24\n      dup3\n      add\n      mstore\n      0x536166654d6174683a206469766973696f6e206279207a65726f000000000000\n      0x44\n      dup3\n      add\n      mstore\n      swap1\n      mload\n      swap1\n      dup2\n      swap1\n      sub\n      0x64\n      add\n      swap1\n      revert\n    tag_323:\n        /* \"Vault/EvolleVault.sol\":8067:8068  b */\n      dup2\n        /* \"Vault/EvolleVault.sol\":8063:8064  a */\n      dup4\n        /* \"Vault/EvolleVault.sol\":8063:8068  a / b */\n      dup2\n      tag_324\n      jumpi\n      invalid\n    tag_324:\n      div\n      swap4\n        /* \"Vault/EvolleVault.sol\":7925:8075  function div(uint256 a, uint256 b) internal pure returns (uint256) {... */\n      swap3\n      pop\n      pop\n      pop\n      jump\t// out\n        /* \"Vault/EvolleVault.sol\":19398:19808  function _burn(address account, uint256 amount) internal virtual {... */\n    tag_148:\n      sub(shl(0xa0, 0x01), 0x01)\n        /* \"Vault/EvolleVault.sol\":19481:19502  account != address(0) */\n      dup3\n      and\n        /* \"Vault/EvolleVault.sol\":19473:19540  require(account != address(0), \"ERC20: burn from the zero address\") */\n      tag_326\n      jumpi\n      mload(0x40)\n      shl(0xe5, 0x461bcd)\n      dup2\n      mstore\n      0x04\n      add\n      dup1\n      dup1\n      0x20\n      add\n      dup3\n      dup2\n      sub\n      dup3\n      mstore\n      0x21\n      dup2\n      mstore\n      0x20\n      add\n      dup1\n      data_b16788493b576042bb52c50ed56189e0b250db113c7bfb1c3897d25cf9632d7f\n      0x21\n      swap2\n      codecopy\n      0x40\n      add\n      swap2\n      pop\n      pop\n      mload(0x40)\n      dup1\n      swap2\n      sub\n      swap1\n      revert\n    tag_326:\n        /* \"Vault/EvolleVault.sol\":19551:19600  _beforeTokenTransfer(account, address(0), amount) */\n      tag_327\n        /* \"Vault/EvolleVault.sol\":19572:19579  account */\n      dup3\n        /* \"Vault/EvolleVault.sol\":19589:19590  0 */\n      0x00\n        /* \"Vault/EvolleVault.sol\":19593:19599  amount */\n      dup4\n        /* \"Vault/EvolleVault.sol\":19551:19571  _beforeTokenTransfer */\n      tag_169\n        /* \"Vault/EvolleVault.sol\":19551:19600  _beforeTokenTransfer(account, address(0), amount) */\n      jump\t// in\n    tag_327:\n        /* \"Vault/EvolleVault.sol\":19632:19700  _balances[account].sub(amount, \"ERC20: burn amount exceeds balance\") */\n      tag_328\n        /* \"Vault/EvolleVault.sol\":19655:19661  amount */\n      dup2\n        /* \"Vault/EvolleVault.sol\":19632:19700  _balances[account].sub(amount, \"ERC20: burn amount exceeds balance\") */\n      mload(0x40)\n      dup1\n      0x60\n      add\n      0x40\n      mstore\n      dup1\n      0x22\n      dup2\n      mstore\n      0x20\n      add\n      data_149b126e7125232b4200af45303d04fba8b74653b1a295a6a561a528c33fefdd\n      0x22\n      swap2\n      codecopy\n      sub(shl(0xa0, 0x01), 0x01)\n        /* \"Vault/EvolleVault.sol\":19632:19650  _balances[account] */\n      dup6\n      and\n        /* \"Vault/EvolleVault.sol\":19632:19641  _balances */\n      0x00\n        /* \"Vault/EvolleVault.sol\":19632:19650  _balances[account] */\n      swap1\n      dup2\n      mstore\n      0x20\n      dup2\n      swap1\n      mstore\n      0x40\n      swap1\n      keccak256\n      sload\n      swap2\n        /* \"Vault/EvolleVault.sol\":19632:19700  _balances[account].sub(amount, \"ERC20: burn amount exceeds balance\") */\n      swap1\n        /* \"Vault/EvolleVault.sol\":19632:19654  _balances[account].sub */\n      tag_139\n        /* \"Vault/EvolleVault.sol\":19632:19700  _balances[account].sub(amount, \"ERC20: burn amount exceeds balance\") */\n      jump\t// in\n    tag_328:\n      sub(shl(0xa0, 0x01), 0x01)\n        /* \"Vault/EvolleVault.sol\":19611:19629  _balances[account] */\n      dup4\n      and\n        /* \"Vault/EvolleVault.sol\":19611:19620  _balances */\n      0x00\n        /* \"Vault/EvolleVault.sol\":19611:19629  _balances[account] */\n      swap1\n      dup2\n      mstore\n      0x20\n      dup2\n      swap1\n      mstore\n      0x40\n      swap1\n      keccak256\n        /* \"Vault/EvolleVault.sol\":19611:19700  _balances[account] = _balances[account].sub(amount, \"ERC20: burn amount exceeds balance\") */\n      sstore\n        /* \"Vault/EvolleVault.sol\":19725:19737  _totalSupply */\n      sload(0x02)\n        /* \"Vault/EvolleVault.sol\":19725:19749  _totalSupply.sub(amount) */\n      tag_329\n      swap1\n        /* \"Vault/EvolleVault.sol\":19742:19748  amount */\n      dup3\n        /* \"Vault/EvolleVault.sol\":19725:19741  _totalSupply.sub */\n      tag_156\n        /* \"Vault/EvolleVault.sol\":19725:19749  _totalSupply.sub(amount) */\n      jump\t// in\n    tag_329:\n        /* \"Vault/EvolleVault.sol\":19710:19722  _totalSupply */\n      0x02\n        /* \"Vault/EvolleVault.sol\":19710:19749  _totalSupply = _totalSupply.sub(amount) */\n      sstore\n        /* \"Vault/EvolleVault.sol\":19764:19801  Transfer(account, address(0), amount) */\n      0x40\n      dup1\n      mload\n      dup3\n      dup2\n      mstore\n      swap1\n      mload\n        /* \"Vault/EvolleVault.sol\":19790:19791  0 */\n      0x00\n      swap2\n      sub(shl(0xa0, 0x01), 0x01)\n        /* \"Vault/EvolleVault.sol\":19764:19801  Transfer(account, address(0), amount) */\n      dup6\n      and\n      swap2\n      0xddf252ad1be2c89b69c2b068fc378daa952ba7f163c4a11628f55a4df523b3ef\n      swap2\n      dup2\n      swap1\n      sub\n      0x20\n      add\n      swap1\n      log3\n        /* \"Vault/EvolleVault.sol\":19398:19808  function _burn(address account, uint256 amount) internal virtual {... */\n      pop\n      pop\n      jump\t// out\n        /* \"Vault/EvolleVault.sol\":6844:6999  function sub(uint256 a, uint256 b) internal pure returns (uint256) {... */\n    tag_156:\n        /* \"Vault/EvolleVault.sol\":6902:6909  uint256 */\n      0x00\n        /* \"Vault/EvolleVault.sol\":6934:6935  a */\n      dup3\n        /* \"Vault/EvolleVault.sol\":6929:6930  b */\n      dup3\n        /* \"Vault/EvolleVault.sol\":6929:6935  b <= a */\n      gt\n      iszero\n        /* \"Vault/EvolleVault.sol\":6921:6970  require(b <= a, \"SafeMath: subtraction overflow\") */\n      tag_331\n      jumpi\n      0x40\n      dup1\n      mload\n      shl(0xe5, 0x461bcd)\n      dup2\n      mstore\n      0x20\n      0x04\n      dup3\n      add\n      mstore\n      0x1e\n      0x24\n      dup3\n      add\n      mstore\n      0x536166654d6174683a207375627472616374696f6e206f766572666c6f770000\n      0x44\n      dup3\n      add\n      mstore\n      swap1\n      mload\n      swap1\n      dup2\n      swap1\n      sub\n      0x64\n      add\n      swap1\n      revert\n    tag_331:\n      pop\n        /* \"Vault/EvolleVault.sol\":6987:6992  a - b */\n      swap1\n      sub\n      swap1\n        /* \"Vault/EvolleVault.sol\":6844:6999  function sub(uint256 a, uint256 b) internal pure returns (uint256) {... */\n      jump\t// out\n        /* \"Vault/EvolleVault.sol\":6398:6573  function add(uint256 a, uint256 b) internal pure returns (uint256) {... */\n    tag_168:\n        /* \"Vault/EvolleVault.sol\":6456:6463  uint256 */\n      0x00\n        /* \"Vault/EvolleVault.sol\":6487:6492  a + b */\n      dup3\n      dup3\n      add\n        /* \"Vault/EvolleVault.sol\":6510:6516  c >= a */\n      dup4\n      dup2\n      lt\n      iszero\n        /* \"Vault/EvolleVault.sol\":6502:6548  require(c >= a, \"SafeMath: addition overflow\") */\n      tag_132\n      jumpi\n      0x40\n      dup1\n      mload\n      shl(0xe5, 0x461bcd)\n      dup2\n      mstore\n      0x20\n      0x04\n      dup3\n      add\n      mstore\n      0x1b\n      0x24\n      dup3\n      add\n      mstore\n      0x536166654d6174683a206164646974696f6e206f766572666c6f770000000000\n      0x44\n      dup3\n      add\n      mstore\n      swap1\n      mload\n      swap1\n      dup2\n      swap1\n      sub\n      0x64\n      add\n      swap1\n      revert\n        /* \"Vault/EvolleVault.sol\":30171:30346  function safeTransfer(IERC20 token, address to, uint256 value) internal {... */\n    tag_171:\n        /* \"Vault/EvolleVault.sol\":30280:30338  abi.encodeWithSelector(token.transfer.selector, to, value) */\n      0x40\n      dup1\n      mload\n      sub(shl(0xa0, 0x01), 0x01)\n      dup5\n      and\n      0x24\n      dup3\n      add\n      mstore\n      0x44\n      dup1\n      dup3\n      add\n      dup5\n      swap1\n      mstore\n      dup3\n      mload\n      dup1\n      dup4\n      sub\n      swap1\n      swap2\n      add\n      dup2\n      mstore\n      0x64\n      swap1\n      swap2\n      add\n      swap1\n      swap2\n      mstore\n      0x20\n      dup2\n      add\n      dup1\n      mload\n      sub(shl(0xe0, 0x01), 0x01)\n      and\n      shl(0xe0, 0xa9059cbb)\n      or\n      swap1\n      mstore\n        /* \"Vault/EvolleVault.sol\":30253:30339  _callOptionalReturn(token, abi.encodeWithSelector(token.transfer.selector, to, value)) */\n      tag_169\n      swap1\n        /* \"Vault/EvolleVault.sol\":30273:30278  token */\n      dup5\n      swap1\n        /* \"Vault/EvolleVault.sol\":30253:30272  _callOptionalReturn */\n      tag_336\n        /* \"Vault/EvolleVault.sol\":30253:30339  _callOptionalReturn(token, abi.encodeWithSelector(token.transfer.selector, to, value)) */\n      jump\t// in\n        /* \"Vault/EvolleVault.sol\":30352:30555  function safeTransferFrom(IERC20 token, address from, address to, uint256 value) internal {... */\n    tag_244:\n        /* \"Vault/EvolleVault.sol\":30479:30547  abi.encodeWithSelector(token.transferFrom.selector, from, to, value) */\n      0x40\n      dup1\n      mload\n      sub(shl(0xa0, 0x01), 0x01)\n      dup1\n      dup7\n      and\n      0x24\n      dup4\n      add\n      mstore\n      dup5\n      and\n      0x44\n      dup3\n      add\n      mstore\n      0x64\n      dup1\n      dup3\n      add\n      dup5\n      swap1\n      mstore\n      dup3\n      mload\n      dup1\n      dup4\n      sub\n      swap1\n      swap2\n      add\n      dup2\n      mstore\n      0x84\n      swap1\n      swap2\n      add\n      swap1\n      swap2\n      mstore\n      0x20\n      dup2\n      add\n      dup1\n      mload\n      sub(shl(0xe0, 0x01), 0x01)\n      and\n      shl(0xe0, 0x23b872dd)\n      or\n      swap1\n      mstore\n        /* \"Vault/EvolleVault.sol\":30452:30548  _callOptionalReturn(token, abi.encodeWithSelector(token.transferFrom.selector, from, to, value)) */\n      tag_338\n      swap1\n        /* \"Vault/EvolleVault.sol\":30472:30477  token */\n      dup6\n      swap1\n        /* \"Vault/EvolleVault.sol\":30452:30471  _callOptionalReturn */\n      tag_336\n        /* \"Vault/EvolleVault.sol\":30452:30548  _callOptionalReturn(token, abi.encodeWithSelector(token.transferFrom.selector, from, to, value)) */\n      jump\t// in\n    tag_338:\n        /* \"Vault/EvolleVault.sol\":30352:30555  function safeTransferFrom(IERC20 token, address from, address to, uint256 value) internal {... */\n      pop\n      pop\n      pop\n      pop\n      jump\t// out\n        /* \"Vault/EvolleVault.sol\":18708:19078  function _mint(address account, uint256 amount) internal virtual {... */\n    tag_255:\n      sub(shl(0xa0, 0x01), 0x01)\n        /* \"Vault/EvolleVault.sol\":18791:18812  account != address(0) */\n      dup3\n      and\n        /* \"Vault/EvolleVault.sol\":18783:18848  require(account != address(0), \"ERC20: mint to the zero address\") */\n      tag_340\n      jumpi\n      0x40\n      dup1\n      mload\n      shl(0xe5, 0x461bcd)\n      dup2\n      mstore\n      0x20\n      0x04\n      dup3\n      add\n      mstore\n      0x1f\n      0x24\n      dup3\n      add\n      mstore\n      0x45524332303a206d696e7420746f20746865207a65726f206164647265737300\n      0x44\n      dup3\n      add\n      mstore\n      swap1\n      mload\n      swap1\n      dup2\n      swap1\n      sub\n      0x64\n      add\n      swap1\n      revert\n    tag_340:\n        /* \"Vault/EvolleVault.sol\":18859:18908  _beforeTokenTransfer(address(0), account, amount) */\n      tag_341\n        /* \"Vault/EvolleVault.sol\":18888:18889  0 */\n      0x00\n        /* \"Vault/EvolleVault.sol\":18892:18899  account */\n      dup4\n        /* \"Vault/EvolleVault.sol\":18901:18907  amount */\n      dup4\n        /* \"Vault/EvolleVault.sol\":18859:18879  _beforeTokenTransfer */\n      tag_169\n        /* \"Vault/EvolleVault.sol\":18859:18908  _beforeTokenTransfer(address(0), account, amount) */\n      jump\t// in\n    tag_341:\n        /* \"Vault/EvolleVault.sol\":18934:18946  _totalSupply */\n      sload(0x02)\n        /* \"Vault/EvolleVault.sol\":18934:18958  _totalSupply.add(amount) */\n      tag_342\n      swap1\n        /* \"Vault/EvolleVault.sol\":18951:18957  amount */\n      dup3\n        /* \"Vault/EvolleVault.sol\":18934:18950  _totalSupply.add */\n      tag_168\n        /* \"Vault/EvolleVault.sol\":18934:18958  _totalSupply.add(amount) */\n      jump\t// in\n    tag_342:\n        /* \"Vault/EvolleVault.sol\":18919:18931  _totalSupply */\n      0x02\n        /* \"Vault/EvolleVault.sol\":18919:18958  _totalSupply = _totalSupply.add(amount) */\n      sstore\n      sub(shl(0xa0, 0x01), 0x01)\n        /* \"Vault/EvolleVault.sol\":18989:19007  _balances[account] */\n      dup3\n      and\n        /* \"Vault/EvolleVault.sol\":18989:18998  _balances */\n      0x00\n        /* \"Vault/EvolleVault.sol\":18989:19007  _balances[account] */\n      swap1\n      dup2\n      mstore\n      0x20\n      dup2\n      swap1\n      mstore\n      0x40\n      swap1\n      keccak256\n      sload\n        /* \"Vault/EvolleVault.sol\":18989:19019  _balances[account].add(amount) */\n      tag_343\n      swap1\n        /* \"Vault/EvolleVault.sol\":19012:19018  amount */\n      dup3\n        /* \"Vault/EvolleVault.sol\":18989:19011  _balances[account].add */\n      tag_168\n        /* \"Vault/EvolleVault.sol\":18989:19019  _balances[account].add(amount) */\n      jump\t// in\n    tag_343:\n      sub(shl(0xa0, 0x01), 0x01)\n        /* \"Vault/EvolleVault.sol\":18968:18986  _balances[account] */\n      dup4\n      and\n        /* \"Vault/EvolleVault.sol\":18968:18977  _balances */\n      0x00\n        /* \"Vault/EvolleVault.sol\":18968:18986  _balances[account] */\n      dup2\n      dup2\n      mstore\n      0x20\n      dup2\n      dup2\n      mstore\n      0x40\n      dup1\n      dup4\n      keccak256\n        /* \"Vault/EvolleVault.sol\":18968:19019  _balances[account] = _balances[account].add(amount) */\n      swap5\n      swap1\n      swap5\n      sstore\n        /* \"Vault/EvolleVault.sol\":19034:19071  Transfer(address(0), account, amount) */\n      dup4\n      mload\n      dup6\n      dup2\n      mstore\n      swap4\n      mload\n        /* \"Vault/EvolleVault.sol\":18968:18986  _balances[account] */\n      swap3\n      swap4\n        /* \"Vault/EvolleVault.sol\":18968:18977  _balances */\n      swap2\n      swap3\n        /* \"Vault/EvolleVault.sol\":19034:19071  Transfer(address(0), account, amount) */\n      0xddf252ad1be2c89b69c2b068fc378daa952ba7f163c4a11628f55a4df523b3ef\n      swap3\n      dup2\n      swap1\n      sub\n      swap1\n      swap2\n      add\n      swap1\n      log3\n        /* \"Vault/EvolleVault.sol\":18708:19078  function _mint(address account, uint256 amount) internal virtual {... */\n      pop\n      pop\n      jump\t// out\n        /* \"Vault/EvolleVault.sol\":32434:33185  function _callOptionalReturn(IERC20 token, bytes memory data) private {... */\n    tag_336:\n        /* \"Vault/EvolleVault.sol\":32853:32876  bytes memory returndata */\n      0x60\n        /* \"Vault/EvolleVault.sol\":32879:32948  address(token).functionCall(data, \"SafeERC20: low-level call failed\") */\n      tag_346\n        /* \"Vault/EvolleVault.sol\":32907:32911  data */\n      dup3\n        /* \"Vault/EvolleVault.sol\":32879:32948  address(token).functionCall(data, \"SafeERC20: low-level call failed\") */\n      mload(0x40)\n      dup1\n      0x40\n      add\n      0x40\n      mstore\n      dup1\n      0x20\n      dup2\n      mstore\n      0x20\n      add\n      0x5361666545524332303a206c6f772d6c6576656c2063616c6c206661696c6564\n      dup2\n      mstore\n      pop\n        /* \"Vault/EvolleVault.sol\":32887:32892  token */\n      dup6\n      sub(shl(0xa0, 0x01), 0x01)\n        /* \"Vault/EvolleVault.sol\":32879:32906  address(token).functionCall */\n      and\n      tag_347\n      swap1\n        /* \"Vault/EvolleVault.sol\":32879:32948  address(token).functionCall(data, \"SafeERC20: low-level call failed\") */\n      swap3\n      swap2\n      swap1\n      0xffffffff\n      and\n      jump\t// in\n    tag_346:\n        /* \"Vault/EvolleVault.sol\":32962:32979  returndata.length */\n      dup1\n      mload\n        /* \"Vault/EvolleVault.sol\":32853:32948  bytes memory returndata = address(token).functionCall(data, \"SafeERC20: low-level call failed\") */\n      swap1\n      swap2\n      pop\n        /* \"Vault/EvolleVault.sol\":32962:32983  returndata.length > 0 */\n      iszero\n        /* \"Vault/EvolleVault.sol\":32958:33179  if (returndata.length > 0) { // Return data is optional... */\n      tag_169\n      jumpi\n        /* \"Vault/EvolleVault.sol\":33102:33112  returndata */\n      dup1\n        /* \"Vault/EvolleVault.sol\":33091:33121  abi.decode(returndata, (bool)) */\n      dup1\n      0x20\n      add\n      swap1\n      mload\n      0x20\n      dup2\n      lt\n      iszero\n      tag_349\n      jumpi\n      0x00\n      dup1\n      revert\n    tag_349:\n      pop\n      mload\n        /* \"Vault/EvolleVault.sol\":33083:33168  require(abi.decode(returndata, (bool)), \"SafeERC20: ERC20 operation did not succeed\") */\n      tag_169\n      jumpi\n      mload(0x40)\n      shl(0xe5, 0x461bcd)\n      dup2\n      mstore\n      0x04\n      add\n      dup1\n      dup1\n      0x20\n      add\n      dup3\n      dup2\n      sub\n      dup3\n      mstore\n      0x2a\n      dup2\n      mstore\n      0x20\n      add\n      dup1\n      data_e11ad79d1e4a7f2e5f376964cb99e8e8f7904e3fc16a109f7a7ecb9aa7956dcd\n      0x2a\n      swap2\n      codecopy\n      0x40\n      add\n      swap2\n      pop\n      pop\n      mload(0x40)\n      dup1\n      swap2\n      sub\n      swap1\n      revert\n        /* \"Vault/EvolleVault.sol\":25282:25475  function functionCall(address target, bytes memory data, string memory errorMessage) internal returns (bytes memory) {... */\n    tag_347:\n        /* \"Vault/EvolleVault.sol\":25385:25397  bytes memory */\n      0x60\n        /* \"Vault/EvolleVault.sol\":25416:25468  functionCallWithValue(target, data, 0, errorMessage) */\n      tag_352\n        /* \"Vault/EvolleVault.sol\":25438:25444  target */\n      dup5\n        /* \"Vault/EvolleVault.sol\":25446:25450  data */\n      dup5\n        /* \"Vault/EvolleVault.sol\":25452:25453  0 */\n      0x00\n        /* \"Vault/EvolleVault.sol\":25455:25467  errorMessage */\n      dup6\n        /* \"Vault/EvolleVault.sol\":25416:25437  functionCallWithValue */\n      tag_353\n        /* \"Vault/EvolleVault.sol\":25416:25468  functionCallWithValue(target, data, 0, errorMessage) */\n      jump\t// in\n    tag_352:\n        /* \"Vault/EvolleVault.sol\":25409:25468  return functionCallWithValue(target, data, 0, errorMessage) */\n      swap5\n        /* \"Vault/EvolleVault.sol\":25282:25475  function functionCall(address target, bytes memory data, string memory errorMessage) internal returns (bytes memory) {... */\n      swap4\n      pop\n      pop\n      pop\n      pop\n      jump\t// out\n        /* \"Vault/EvolleVault.sol\":26309:26832  function functionCallWithValue(address target, bytes memory data, uint256 value, string memory errorMessage) internal returns (bytes memory) {... */\n    tag_353:\n        /* \"Vault/EvolleVault.sol\":26436:26448  bytes memory */\n      0x60\n        /* \"Vault/EvolleVault.sol\":26493:26498  value */\n      dup3\n        /* \"Vault/EvolleVault.sol\":26468:26489  address(this).balance */\n      selfbalance\n        /* \"Vault/EvolleVault.sol\":26468:26498  address(this).balance >= value */\n      lt\n      iszero\n        /* \"Vault/EvolleVault.sol\":26460:26541  require(address(this).balance >= value, \"Address: insufficient balance for call\") */\n      tag_355\n      jumpi\n      mload(0x40)\n      shl(0xe5, 0x461bcd)\n      dup2\n      mstore\n      0x04\n      add\n      dup1\n      dup1\n      0x20\n      add\n      dup3\n      dup2\n      sub\n      dup3\n      mstore\n      0x26\n      dup2\n      mstore\n      0x20\n      add\n      dup1\n      data_565f1a77334fc4792800921178c71e4521acffab18ff9e7885b49377ee80ab4c\n      0x26\n      swap2\n      codecopy\n      0x40\n      add\n      swap2\n      pop\n      pop\n      mload(0x40)\n      dup1\n      swap2\n      sub\n      swap1\n      revert\n    tag_355:\n        /* \"Vault/EvolleVault.sol\":26559:26577  isContract(target) */\n      tag_356\n        /* \"Vault/EvolleVault.sol\":26570:26576  target */\n      dup6\n        /* \"Vault/EvolleVault.sol\":26559:26569  isContract */\n      tag_357\n        /* \"Vault/EvolleVault.sol\":26559:26577  isContract(target) */\n      jump\t// in\n    tag_356:\n        /* \"Vault/EvolleVault.sol\":26551:26611  require(isContract(target), \"Address: call to non-contract\") */\n      tag_358\n      jumpi\n      0x40\n      dup1\n      mload\n      shl(0xe5, 0x461bcd)\n      dup2\n      mstore\n      0x20\n      0x04\n      dup3\n      add\n      mstore\n      0x1d\n      0x24\n      dup3\n      add\n      mstore\n      0x416464726573733a2063616c6c20746f206e6f6e2d636f6e7472616374000000\n      0x44\n      dup3\n      add\n      mstore\n      swap1\n      mload\n      swap1\n      dup2\n      swap1\n      sub\n      0x64\n      add\n      swap1\n      revert\n    tag_358:\n        /* \"Vault/EvolleVault.sol\":26682:26694  bool success */\n      0x00\n        /* \"Vault/EvolleVault.sol\":26696:26719  bytes memory returndata */\n      0x60\n        /* \"Vault/EvolleVault.sol\":26723:26729  target */\n      dup7\n      sub(shl(0xa0, 0x01), 0x01)\n        /* \"Vault/EvolleVault.sol\":26723:26734  target.call */\n      and\n        /* \"Vault/EvolleVault.sol\":26743:26748  value */\n      dup6\n        /* \"Vault/EvolleVault.sol\":26751:26755  data */\n      dup8\n        /* \"Vault/EvolleVault.sol\":26723:26756  target.call{ value: value }(data) */\n      mload(0x40)\n      dup1\n      dup3\n      dup1\n      mload\n      swap1\n      0x20\n      add\n      swap1\n      dup1\n      dup4\n      dup4\n    tag_359:\n      0x20\n      dup4\n      lt\n      tag_361\n      jumpi\n      dup1\n      mload\n      dup3\n      mstore\n      not(0x1f)\n      swap1\n      swap3\n      add\n      swap2\n      0x20\n      swap2\n      dup3\n      add\n      swap2\n      add\n      jump(tag_359)\n    tag_361:\n      0x01\n      dup4\n      0x20\n      sub\n      0x0100\n      exp\n      sub\n      dup1\n      not\n      dup3\n      mload\n      and\n      dup2\n      dup5\n      mload\n      and\n      dup1\n      dup3\n      or\n      dup6\n      mstore\n      pop\n      pop\n      pop\n      pop\n      pop\n      pop\n      swap1\n      pop\n      add\n      swap2\n      pop\n      pop\n      0x00\n      mload(0x40)\n      dup1\n      dup4\n      sub\n      dup2\n      dup6\n      dup8\n      gas\n      call\n      swap3\n      pop\n      pop\n      pop\n      returndatasize\n      dup1\n      0x00\n      dup2\n      eq\n      tag_364\n      jumpi\n      mload(0x40)\n      swap2\n      pop\n      and(add(returndatasize, 0x3f), not(0x1f))\n      dup3\n      add\n      0x40\n      mstore\n      returndatasize\n      dup3\n      mstore\n      returndatasize\n      0x00\n      0x20\n      dup5\n      add\n      returndatacopy\n      jump(tag_363)\n    tag_364:\n      0x60\n      swap2\n      pop\n    tag_363:\n      pop\n        /* \"Vault/EvolleVault.sol\":26681:26756  (bool success, bytes memory returndata) = target.call{ value: value }(data) */\n      swap2\n      pop\n      swap2\n      pop\n        /* \"Vault/EvolleVault.sol\":26773:26825  _verifyCallResult(success, returndata, errorMessage) */\n      tag_365\n        /* \"Vault/EvolleVault.sol\":26791:26798  success */\n      dup3\n        /* \"Vault/EvolleVault.sol\":26800:26810  returndata */\n      dup3\n        /* \"Vault/EvolleVault.sol\":26812:26824  errorMessage */\n      dup7\n        /* \"Vault/EvolleVault.sol\":26773:26790  _verifyCallResult */\n      tag_366\n        /* \"Vault/EvolleVault.sol\":26773:26825  _verifyCallResult(success, returndata, errorMessage) */\n      jump\t// in\n    tag_365:\n        /* \"Vault/EvolleVault.sol\":26766:26825  return _verifyCallResult(success, returndata, errorMessage) */\n      swap8\n        /* \"Vault/EvolleVault.sol\":26309:26832  function functionCallWithValue(address target, bytes memory data, uint256 value, string memory errorMessage) internal returns (bytes memory) {... */\n      swap7\n      pop\n      pop\n      pop\n      pop\n      pop\n      pop\n      pop\n      jump\t// out\n        /* \"Vault/EvolleVault.sol\":22427:22840  function isContract(address account) internal view returns (bool) {... */\n    tag_357:\n        /* \"Vault/EvolleVault.sol\":22787:22807  extcodesize(account) */\n      extcodesize\n        /* \"Vault/EvolleVault.sol\":22825:22833  size > 0 */\n      iszero\n      iszero\n      swap1\n        /* \"Vault/EvolleVault.sol\":22427:22840  function isContract(address account) internal view returns (bool) {... */\n      jump\t// out\n        /* \"Vault/EvolleVault.sol\":28792:29517  function _verifyCallResult(bool success, bytes memory returndata, string memory errorMessage) private pure returns(bytes memory) {... */\n    tag_366:\n        /* \"Vault/EvolleVault.sol\":28907:28919  bytes memory */\n      0x60\n        /* \"Vault/EvolleVault.sol\":28935:28942  success */\n      dup4\n        /* \"Vault/EvolleVault.sol\":28931:29511  if (success) {... */\n      iszero\n      tag_369\n      jumpi\n      pop\n        /* \"Vault/EvolleVault.sol\":28965:28975  returndata */\n      dup2\n        /* \"Vault/EvolleVault.sol\":28958:28975  return returndata */\n      jump(tag_132)\n        /* \"Vault/EvolleVault.sol\":28931:29511  if (success) {... */\n    tag_369:\n        /* \"Vault/EvolleVault.sol\":29076:29093  returndata.length */\n      dup3\n      mload\n        /* \"Vault/EvolleVault.sol\":29076:29097  returndata.length > 0 */\n      iszero\n        /* \"Vault/EvolleVault.sol\":29072:29501  if (returndata.length > 0) {... */\n      tag_371\n      jumpi\n        /* \"Vault/EvolleVault.sol\":29334:29344  returndata */\n      dup3\n        /* \"Vault/EvolleVault.sol\":29328:29345  mload(returndata) */\n      mload\n        /* \"Vault/EvolleVault.sol\":29394:29409  returndata_size */\n      dup1\n        /* \"Vault/EvolleVault.sol\":29381:29391  returndata */\n      dup5\n        /* \"Vault/EvolleVault.sol\":29377:29379  32 */\n      0x20\n        /* \"Vault/EvolleVault.sol\":29373:29392  add(32, returndata) */\n      add\n        /* \"Vault/EvolleVault.sol\":29366:29410  revert(add(32, returndata), returndata_size) */\n      revert\n        /* \"Vault/EvolleVault.sol\":29283:29428  {... */\n    tag_371:\n        /* \"Vault/EvolleVault.sol\":29466:29486  revert(errorMessage) */\n      mload(0x40)\n      shl(0xe5, 0x461bcd)\n      dup2\n      mstore\n      0x20\n      0x04\n      dup3\n      add\n      dup2\n      dup2\n      mstore\n      dup5\n      mload\n      0x24\n      dup5\n      add\n      mstore\n      dup5\n      mload\n        /* \"Vault/EvolleVault.sol\":29473:29485  errorMessage */\n      dup6\n      swap4\n        /* \"Vault/EvolleVault.sol\":29466:29486  revert(errorMessage) */\n      swap2\n      swap3\n      dup4\n      swap3\n      0x44\n      add\n      swap2\n      swap1\n      dup6\n      add\n      swap1\n      dup1\n      dup4\n      dup4\n      0x00\n      dup4\n      iszero\n      tag_316\n      jumpi\n      dup2\n      dup2\n      add\n      mload\n      dup4\n      dup3\n      add\n      mstore\n      0x20\n      add\n      jump(tag_314)\n    stop\n    data_0557e210f7a69a685100a7e4e3d0a7024c546085cee28910fd17d0b081d9516f 45524332303a207472616e7366657220746f20746865207a65726f2061646472657373\n    data_149b126e7125232b4200af45303d04fba8b74653b1a295a6a561a528c33fefdd 45524332303a206275726e20616d6f756e7420657863656564732062616c616e6365\n    data_245f15ff17f551913a7a18385165551503906a406f905ac1c2437281a7cd0cfe 4f776e61626c653a206e6577206f776e657220697320746865207a65726f2061646472657373\n    data_24883cc5fe64ace9d0df1893501ecb93c77180f0ff69cca79affb3c316dc8029 45524332303a20617070726f766520746f20746865207a65726f2061646472657373\n    data_4107e8a8b9e94bf8ff83080ddec1c0bffe897ebc2241b89d44f66b3d274088b6 45524332303a207472616e7366657220616d6f756e7420657863656564732062616c616e6365\n    data_565f1a77334fc4792800921178c71e4521acffab18ff9e7885b49377ee80ab4c 416464726573733a20696e73756666696369656e742062616c616e636520666f722063616c6c\n    data_6d06d9f1cf1cb47b4c164a82a99136bb279d51ecac86ea5fd348be592f7bfe2e 50726f706f73616c206e6f742076616c696420666f722074686973205661756c74\n    data_9113bb53c2876a3805b2c9242029423fc540a728243ce887ab24c82cf119fba3 536166654d6174683a206d756c7469706c69636174696f6e206f766572666c6f77\n    data_974d1b4421da69cc60b481194f0dad36a5bb4e23da810da7a7fb30cdba178330 45524332303a207472616e7366657220616d6f756e74206578636565647320616c6c6f77616e6365\n    data_9924ebdf1add33d25d4ef888e16131f0a5687b0580a36c21b5c301a6c462effe 4f776e61626c653a2063616c6c6572206973206e6f7420746865206f776e6572\n    data_b16788493b576042bb52c50ed56189e0b250db113c7bfb1c3897d25cf9632d7f 45524332303a206275726e2066726f6d20746865207a65726f2061646472657373\n    data_baecc556b46f4ed0f2b4cb599d60785ac8563dd2dc0a5bf12edea1c39e5e1fea 45524332303a207472616e736665722066726f6d20746865207a65726f2061646472657373\n    data_c953f4879035ed60e766b34720f656aab5c697b141d924c283124ecedb91c208 45524332303a20617070726f76652066726f6d20746865207a65726f2061646472657373\n    data_e11ad79d1e4a7f2e5f376964cb99e8e8f7904e3fc16a109f7a7ecb9aa7956dcd 5361666545524332303a204552433230206f7065726174696f6e20646964206e6f742073756363656564\n    data_f8b476f7d28209d77d4a4ac1fe36b9f8259aa1bb6bddfa6e89de7e51615cf8a8 45524332303a2064656372656173656420616c6c6f77616e63652062656c6f77207a65726f\n\n    auxdata: 0xa2646970667358221220014d554ec4dc8c2f22e4c045b2952b7a1c529e25db739cd1d3a9a0216d6d98b664736f6c634300060c0033\n}\n",
				"bytecode": {
					"linkReferences": {},
					"object": "60a06040523480156200001157600080fd5b506040516200247738038062002477833981810160405260808110156200003757600080fd5b8151602083018051604051929492938301929190846401000000008211156200005f57600080fd5b9083019060208201858111156200007557600080fd5b82516401000000008111828201881017156200009057600080fd5b82525081516020918201929091019080838360005b83811015620000bf578181015183820152602001620000a5565b50505050905090810190601f168015620000ed5780820380516001836020036101000a031916815260200191505b50604052602001805160405193929190846401000000008211156200011157600080fd5b9083019060208201858111156200012757600080fd5b82516401000000008111828201881017156200014257600080fd5b82525081516020918201929091019080838360005b838110156200017157818101518382015260200162000157565b50505050905090810190601f1680156200019f5780820380516001836020036101000a031916815260200191505b5060405260209081015185519093508592508491620001c49160039185019062000281565b508051620001da90600490602084019062000281565b50506005805460ff19166012179055506000620001f66200027d565b60058054610100600160a81b0319166101006001600160a01b03841690810291909117909155604051919250906000907f8be0079c531659141344cd1fd0a4f28419497f9722a3daafe3b4186f6b6457e0908290a3506001600655600980546001600160a01b0319166001600160a01b03959095169490941790935550506080526200031d565b3390565b828054600181600116156101000203166002900490600052602060002090601f016020900481019282601f10620002c457805160ff1916838001178555620002f4565b82800160010185558215620002f4579182015b82811115620002f4578251825591602001919060010190620002d7565b506200030292915062000306565b5090565b5b8082111562000302576000815560010162000307565b60805161213a6200033d600039806112255280611309525061213a6000f3fe608060405234801561001057600080fd5b50600436106101cf5760003560e01c8063853828b611610104578063b6b55f25116100a2578063def68a9c11610071578063def68a9c146104d8578063e2d1e75c146104fe578063e668524414610506578063f2fde38b1461050e576101cf565b8063b6b55f251461047d578063d389800f1461049a578063dd62ed3e146104a2578063de5f6268146104d0576101cf565b8063a457c2d7116100de578063a457c2d714610415578063a8c62e7614610441578063a9059cbb14610449578063b69ef8a814610475576101cf565b8063853828b6146103fd5780638da5cb5b1461040557806395d89b411461040d576101cf565b8063395093511161017157806370a082311161014b57806370a082311461039c578063715018a6146103c257806376dfabb8146103ca57806377c7b8fc146103f5576101cf565b8063395093511461034257806348a0d7541461036e5780635b12ff9b14610376576101cf565b80631f1fcd51116101ad5780631f1fcd51146102ab57806323b872dd146102cf5780632e1a7d4d14610305578063313ce56714610324576101cf565b806306fdde03146101d4578063095ea7b31461025157806318160ddd14610291575b600080fd5b6101dc610534565b6040805160208082528351818301528351919283929083019185019080838360005b838110156102165781810151838201526020016101fe565b50505050905090810190601f1680156102435780820380516001836020036101000a031916815260200191505b509250505060405180910390f35b61027d6004803603604081101561026757600080fd5b506001600160a01b0381351690602001356105ca565b604080519115158252519081900360200190f35b6102996105e8565b60408051918252519081900360200190f35b6102b36105ee565b604080516001600160a01b039092168252519081900360200190f35b61027d600480360360608110156102e557600080fd5b506001600160a01b03813581169160208101359091169060400135610664565b6103226004803603602081101561031b57600080fd5b50356106ec565b005b61032c6108ea565b6040805160ff9092168252519081900360200190f35b61027d6004803603604081101561035857600080fd5b506001600160a01b0381351690602001356108f3565b610299610941565b6103226004803603602081101561038c57600080fd5b50356001600160a01b0316610997565b610299600480360360208110156103b257600080fd5b50356001600160a01b0316610b0c565b610322610b27565b6103d2610bd9565b604080516001600160a01b03909316835260208301919091528051918290030190f35b610299610bee565b610322610c30565b6102b3610c43565b6101dc610c57565b61027d6004803603604081101561042b57600080fd5b506001600160a01b038135169060200135610cb8565b6102b3610d20565b61027d6004803603604081101561045f57600080fd5b506001600160a01b038135169060200135610d2f565b610299610d43565b6103226004803603602081101561049357600080fd5b5035610e48565b610322610f91565b610299600480360360408110156104b857600080fd5b506001600160a01b0381358116916020013516611022565b61032261104d565b610322600480360360208110156104ee57600080fd5b50356001600160a01b03166110d5565b610299611223565b610322611247565b6103226004803603602081101561052457600080fd5b50356001600160a01b0316611453565b60038054604080516020601f60026000196101006001881615020190951694909404938401819004810282018101909252828152606093909290918301828280156105c05780601f10610595576101008083540402835291602001916105c0565b820191906000526020600020905b8154815290600101906020018083116105a357829003601f168201915b5050505050905090565b60006105de6105d7611561565b8484611565565b5060015b92915050565b60025490565b60095460408051631f1fcd5160e01b815290516000926001600160a01b031691631f1fcd51916004808301926020929190829003018186803b15801561063357600080fd5b505afa158015610647573d6000803e3d6000fd5b505050506040513d602081101561065d57600080fd5b5051905090565b6000610671848484611651565b6106e18461067d611561565b6106dc85604051806060016040528060288152602001612004602891396001600160a01b038a166000908152600160205260408120906106bb611561565b6001600160a01b0316815260208101919091526040016000205491906117ac565b611565565b5060015b9392505050565b60006107116106f96105e8565b61070b84610705610d43565b90611843565b9061189c565b905061071d3383611903565b60006107276105ee565b6001600160a01b03166370a08231306040518263ffffffff1660e01b815260040180826001600160a01b0316815260200191505060206040518083038186803b15801561077357600080fd5b505afa158015610787573d6000803e3d6000fd5b505050506040513d602081101561079d57600080fd5b50519050818110156108c85760006107b583836119ff565b60095460408051632e1a7d4d60e01b81526004810184905290519293506001600160a01b0390911691632e1a7d4d9160248082019260009290919082900301818387803b15801561080557600080fd5b505af1158015610819573d6000803e3d6000fd5b5050505060006108276105ee565b6001600160a01b03166370a08231306040518263ffffffff1660e01b815260040180826001600160a01b0316815260200191505060206040518083038186803b15801561087357600080fd5b505afa158015610887573d6000803e3d6000fd5b505050506040513d602081101561089d57600080fd5b5051905060006108ad82856119ff565b9050828110156108c4576108c18482611a5c565b94505b5050505b6108e533836108d56105ee565b6001600160a01b03169190611ab6565b505050565b60055460ff1690565b60006105de610900611561565b846106dc8560016000610911611561565b6001600160a01b03908116825260208083019390935260409182016000908120918c168152925290205490611a5c565b600061094b6105ee565b6001600160a01b03166370a08231306040518263ffffffff1660e01b815260040180826001600160a01b0316815260200191505060206040518083038186803b15801561063357600080fd5b61099f611561565b6001600160a01b03166109b0610c43565b6001600160a01b0316146109f9576040805162461bcd60e51b8152602060048201819052602482015260008051602061202c833981519152604482015290519081900360640190fd5b806001600160a01b031663fbfa77cf6040518163ffffffff1660e01b815260040160206040518083038186803b158015610a3257600080fd5b505afa158015610a46573d6000803e3d6000fd5b505050506040513d6020811015610a5c57600080fd5b50516001600160a01b03163014610aa45760405162461bcd60e51b8152600401808060200182810382526021815260200180611fc26021913960400191505060405180910390fd5b6040805180820182526001600160a01b038316808252426020928301819052600780546001600160a01b03191683179055600855825190815291517f1aae2ec5647db56da2d513de40528ba3565c6057525637050660c4323bbac7df9281900390910190a150565b6001600160a01b031660009081526020819052604090205490565b610b2f611561565b6001600160a01b0316610b40610c43565b6001600160a01b031614610b89576040805162461bcd60e51b8152602060048201819052602482015260008051602061202c833981519152604482015290519081900360640190fd5b60055460405160009161010090046001600160a01b0316907f8be0079c531659141344cd1fd0a4f28419497f9722a3daafe3b4186f6b6457e0908390a360058054610100600160a81b0319169055565b6007546008546001600160a01b039091169082565b6000610bf86105e8565b15610c2157610c1c610c086105e8565b61070b670de0b6b3a7640000610705610d43565b610c2b565b670de0b6b3a76400005b905090565b610c41610c3c33610b0c565b6106ec565b565b60055461010090046001600160a01b031690565b60048054604080516020601f60026000196101006001881615020190951694909404938401819004810282018101909252828152606093909290918301828280156105c05780601f10610595576101008083540402835291602001916105c0565b60006105de610cc5611561565b846106dc856040518060600160405280602581526020016120e06025913960016000610cef611561565b6001600160a01b03908116825260208083019390935260409182016000908120918d168152925290205491906117ac565b6009546001600160a01b031681565b60006105de610d3c611561565b8484611651565b6000610c2b600960009054906101000a90046001600160a01b03166001600160a01b031663722713f76040518163ffffffff1660e01b815260040160206040518083038186803b158015610d9657600080fd5b505afa158015610daa573d6000803e3d6000fd5b505050506040513d6020811015610dc057600080fd5b5051610dca6105ee565b6001600160a01b03166370a08231306040518263ffffffff1660e01b815260040180826001600160a01b0316815260200191505060206040518083038186803b158015610e1657600080fd5b505afa158015610e2a573d6000803e3d6000fd5b505050506040513d6020811015610e4057600080fd5b505190611a5c565b60026006541415610ea0576040805162461bcd60e51b815260206004820152601f60248201527f5265656e7472616e637947756172643a207265656e7472616e742063616c6c00604482015290519081900360640190fd5b600260065560095460408051632b9ff78560e11b815290516001600160a01b039092169163573fef0a9160048082019260009290919082900301818387803b158015610eeb57600080fd5b505af1158015610eff573d6000803e3d6000fd5b505050506000610f0d610d43565b9050610f2e333084610f1d6105ee565b6001600160a01b0316929190611b08565b610f36610f91565b6000610f40610d43565b9050610f4c81836119ff565b92506000610f586105e8565b610f63575082610f7c565b610f798361070b610f726105e8565b8790611843565b90505b610f863382611b68565b505060016006555050565b6000610f9b610941565b600954909150610fb7906001600160a01b0316826108d56105ee565b600960009054906101000a90046001600160a01b03166001600160a01b031663d0e30db06040518163ffffffff1660e01b8152600401600060405180830381600087803b15801561100757600080fd5b505af115801561101b573d6000803e3d6000fd5b5050505050565b6001600160a01b03918216600090815260016020908152604080832093909416825291909152205490565b610c416110586105ee565b6001600160a01b03166370a08231336040518263ffffffff1660e01b815260040180826001600160a01b0316815260200191505060206040518083038186803b1580156110a457600080fd5b505afa1580156110b8573d6000803e3d6000fd5b505050506040513d60208110156110ce57600080fd5b5051610e48565b6110dd611561565b6001600160a01b03166110ee610c43565b6001600160a01b031614611137576040805162461bcd60e51b8152602060048201819052602482015260008051602061202c833981519152604482015290519081900360640190fd5b61113f6105ee565b6001600160a01b0316816001600160a01b0316141561118e576040805162461bcd60e51b815260206004820152600660248201526510ba37b5b2b760d11b604482015290519081900360640190fd5b6000816001600160a01b03166370a08231306040518263ffffffff1660e01b815260040180826001600160a01b0316815260200191505060206040518083038186803b1580156111dd57600080fd5b505afa1580156111f1573d6000803e3d6000fd5b505050506040513d602081101561120757600080fd5b5051905061121f6001600160a01b0383163383611ab6565b5050565b7f000000000000000000000000000000000000000000000000000000000000000081565b61124f611561565b6001600160a01b0316611260610c43565b6001600160a01b0316146112a9576040805162461bcd60e51b8152602060048201819052602482015260008051602061202c833981519152604482015290519081900360640190fd5b6007546001600160a01b03166112fe576040805162461bcd60e51b81526020600482015260156024820152745468657265206973206e6f2063616e64696461746560581b604482015290519081900360640190fd5b600854429061132d907f0000000000000000000000000000000000000000000000000000000000000000611a5c565b10611376576040805162461bcd60e51b815260206004820152601460248201527311195b185e481a185cc81b9bdd081c185cdcd95960621b604482015290519081900360640190fd5b600754604080516001600160a01b039092168252517f7f37d440e85aba7fbf641c4bda5ca4ef669a80bffaacde2aa8d9feb1b048c82c9181900360200190a1600960009054906101000a90046001600160a01b03166001600160a01b031663fb6177876040518163ffffffff1660e01b8152600401600060405180830381600087803b15801561140557600080fd5b505af1158015611419573d6000803e3d6000fd5b505060078054600980546001600160a01b03199081166001600160a01b03841617909155169055505064012a05f200600855610c41610f91565b61145b611561565b6001600160a01b031661146c610c43565b6001600160a01b0316146114b5576040805162461bcd60e51b8152602060048201819052602482015260008051602061202c833981519152604482015290519081900360640190fd5b6001600160a01b0381166114fa5760405162461bcd60e51b8152600401808060200182810382526026815260200180611f2e6026913960400191505060405180910390fd5b6005546040516001600160a01b0380841692610100900416907f8be0079c531659141344cd1fd0a4f28419497f9722a3daafe3b4186f6b6457e090600090a3600580546001600160a01b0390921661010002610100600160a81b0319909216919091179055565b3390565b6001600160a01b0383166115aa5760405162461bcd60e51b81526004018080602001828103825260248152602001806120926024913960400191505060405180910390fd5b6001600160a01b0382166115ef5760405162461bcd60e51b8152600401808060200182810382526022815260200180611f546022913960400191505060405180910390fd5b6001600160a01b03808416600081815260016020908152604080832094871680845294825291829020859055815185815291517f8c5be1e5ebec7d5bd14f71427d1e84f3dd0314c0f7b2291e5b200ac8c7c3b9259281900390910190a3505050565b6001600160a01b0383166116965760405162461bcd60e51b815260040180806020018281038252602581526020018061206d6025913960400191505060405180910390fd5b6001600160a01b0382166116db5760405162461bcd60e51b8152600401808060200182810382526023815260200180611ee96023913960400191505060405180910390fd5b6116e68383836108e5565b61172381604051806060016040528060268152602001611f76602691396001600160a01b03861660009081526020819052604090205491906117ac565b6001600160a01b0380851660009081526020819052604080822093909355908416815220546117529082611a5c565b6001600160a01b038084166000818152602081815260409182902094909455805185815290519193928716927fddf252ad1be2c89b69c2b068fc378daa952ba7f163c4a11628f55a4df523b3ef92918290030190a3505050565b6000818484111561183b5760405162461bcd60e51b81526004018080602001828103825283818151815260200191508051906020019080838360005b838110156118005781810151838201526020016117e8565b50505050905090810190601f16801561182d5780820380516001836020036101000a031916815260200191505b509250505060405180910390fd5b505050900390565b600082611852575060006105e2565b8282028284828161185f57fe5b04146106e55760405162461bcd60e51b8152600401808060200182810382526021815260200180611fe36021913960400191505060405180910390fd5b60008082116118f2576040805162461bcd60e51b815260206004820152601a60248201527f536166654d6174683a206469766973696f6e206279207a65726f000000000000604482015290519081900360640190fd5b8183816118fb57fe5b049392505050565b6001600160a01b0382166119485760405162461bcd60e51b815260040180806020018281038252602181526020018061204c6021913960400191505060405180910390fd5b611954826000836108e5565b61199181604051806060016040528060228152602001611f0c602291396001600160a01b03851660009081526020819052604090205491906117ac565b6001600160a01b0383166000908152602081905260409020556002546119b790826119ff565b6002556040805182815290516000916001600160a01b038516917fddf252ad1be2c89b69c2b068fc378daa952ba7f163c4a11628f55a4df523b3ef9181900360200190a35050565b600082821115611a56576040805162461bcd60e51b815260206004820152601e60248201527f536166654d6174683a207375627472616374696f6e206f766572666c6f770000604482015290519081900360640190fd5b50900390565b6000828201838110156106e5576040805162461bcd60e51b815260206004820152601b60248201527f536166654d6174683a206164646974696f6e206f766572666c6f770000000000604482015290519081900360640190fd5b604080516001600160a01b038416602482015260448082018490528251808303909101815260649091019091526020810180516001600160e01b031663a9059cbb60e01b1790526108e5908490611c58565b604080516001600160a01b0380861660248301528416604482015260648082018490528251808303909101815260849091019091526020810180516001600160e01b03166323b872dd60e01b179052611b62908590611c58565b50505050565b6001600160a01b038216611bc3576040805162461bcd60e51b815260206004820152601f60248201527f45524332303a206d696e7420746f20746865207a65726f206164647265737300604482015290519081900360640190fd5b611bcf600083836108e5565b600254611bdc9082611a5c565b6002556001600160a01b038216600090815260208190526040902054611c029082611a5c565b6001600160a01b0383166000818152602081815260408083209490945583518581529351929391927fddf252ad1be2c89b69c2b068fc378daa952ba7f163c4a11628f55a4df523b3ef9281900390910190a35050565b6060611cad826040518060400160405280602081526020017f5361666545524332303a206c6f772d6c6576656c2063616c6c206661696c6564815250856001600160a01b0316611d099092919063ffffffff16565b8051909150156108e557808060200190516020811015611ccc57600080fd5b50516108e55760405162461bcd60e51b815260040180806020018281038252602a8152602001806120b6602a913960400191505060405180910390fd5b6060611d188484600085611d20565b949350505050565b606082471015611d615760405162461bcd60e51b8152600401808060200182810382526026815260200180611f9c6026913960400191505060405180910390fd5b611d6a85611e7c565b611dbb576040805162461bcd60e51b815260206004820152601d60248201527f416464726573733a2063616c6c20746f206e6f6e2d636f6e7472616374000000604482015290519081900360640190fd5b60006060866001600160a01b031685876040518082805190602001908083835b60208310611dfa5780518252601f199092019160209182019101611ddb565b6001836020036101000a03801982511681845116808217855250505050505090500191505060006040518083038185875af1925050503d8060008114611e5c576040519150601f19603f3d011682016040523d82523d6000602084013e611e61565b606091505b5091509150611e71828286611e82565b979650505050505050565b3b151590565b60608315611e915750816106e5565b825115611ea15782518084602001fd5b60405162461bcd60e51b81526020600482018181528451602484015284518593919283926044019190850190808383600083156118005781810151838201526020016117e856fe45524332303a207472616e7366657220746f20746865207a65726f206164647265737345524332303a206275726e20616d6f756e7420657863656564732062616c616e63654f776e61626c653a206e6577206f776e657220697320746865207a65726f206164647265737345524332303a20617070726f766520746f20746865207a65726f206164647265737345524332303a207472616e7366657220616d6f756e7420657863656564732062616c616e6365416464726573733a20696e73756666696369656e742062616c616e636520666f722063616c6c50726f706f73616c206e6f742076616c696420666f722074686973205661756c74536166654d6174683a206d756c7469706c69636174696f6e206f766572666c6f7745524332303a207472616e7366657220616d6f756e74206578636565647320616c6c6f77616e63654f776e61626c653a2063616c6c6572206973206e6f7420746865206f776e657245524332303a206275726e2066726f6d20746865207a65726f206164647265737345524332303a207472616e736665722066726f6d20746865207a65726f206164647265737345524332303a20617070726f76652066726f6d20746865207a65726f20616464726573735361666545524332303a204552433230206f7065726174696f6e20646964206e6f74207375636365656445524332303a2064656372656173656420616c6c6f77616e63652062656c6f77207a65726fa2646970667358221220014d554ec4dc8c2f22e4c045b2952b7a1c529e25db739cd1d3a9a0216d6d98b664736f6c634300060c0033",
					"opcodes": "PUSH1 0xA0 PUSH1 0x40 MSTORE CALLVALUE DUP1 ISZERO PUSH3 0x11 JUMPI PUSH1 0x0 DUP1 REVERT JUMPDEST POP PUSH1 0x40 MLOAD PUSH3 0x2477 CODESIZE SUB DUP1 PUSH3 0x2477 DUP4 CODECOPY DUP2 DUP2 ADD PUSH1 0x40 MSTORE PUSH1 0x80 DUP2 LT ISZERO PUSH3 0x37 JUMPI PUSH1 0x0 DUP1 REVERT JUMPDEST DUP2 MLOAD PUSH1 0x20 DUP4 ADD DUP1 MLOAD PUSH1 0x40 MLOAD SWAP3 SWAP5 SWAP3 SWAP4 DUP4 ADD SWAP3 SWAP2 SWAP1 DUP5 PUSH5 0x100000000 DUP3 GT ISZERO PUSH3 0x5F JUMPI PUSH1 0x0 DUP1 REVERT JUMPDEST SWAP1 DUP4 ADD SWAP1 PUSH1 0x20 DUP3 ADD DUP6 DUP2 GT ISZERO PUSH3 0x75 JUMPI PUSH1 0x0 DUP1 REVERT JUMPDEST DUP3 MLOAD PUSH5 0x100000000 DUP2 GT DUP3 DUP3 ADD DUP9 LT OR ISZERO PUSH3 0x90 JUMPI PUSH1 0x0 DUP1 REVERT JUMPDEST DUP3 MSTORE POP DUP2 MLOAD PUSH1 0x20 SWAP2 DUP3 ADD SWAP3 SWAP1 SWAP2 ADD SWAP1 DUP1 DUP4 DUP4 PUSH1 0x0 JUMPDEST DUP4 DUP2 LT ISZERO PUSH3 0xBF JUMPI DUP2 DUP2 ADD MLOAD DUP4 DUP3 ADD MSTORE PUSH1 0x20 ADD PUSH3 0xA5 JUMP JUMPDEST POP POP POP POP SWAP1 POP SWAP1 DUP2 ADD SWAP1 PUSH1 0x1F AND DUP1 ISZERO PUSH3 0xED JUMPI DUP1 DUP3 SUB DUP1 MLOAD PUSH1 0x1 DUP4 PUSH1 0x20 SUB PUSH2 0x100 EXP SUB NOT AND DUP2 MSTORE PUSH1 0x20 ADD SWAP2 POP JUMPDEST POP PUSH1 0x40 MSTORE PUSH1 0x20 ADD DUP1 MLOAD PUSH1 0x40 MLOAD SWAP4 SWAP3 SWAP2 SWAP1 DUP5 PUSH5 0x100000000 DUP3 GT ISZERO PUSH3 0x111 JUMPI PUSH1 0x0 DUP1 REVERT JUMPDEST SWAP1 DUP4 ADD SWAP1 PUSH1 0x20 DUP3 ADD DUP6 DUP2 GT ISZERO PUSH3 0x127 JUMPI PUSH1 0x0 DUP1 REVERT JUMPDEST DUP3 MLOAD PUSH5 0x100000000 DUP2 GT DUP3 DUP3 ADD DUP9 LT OR ISZERO PUSH3 0x142 JUMPI PUSH1 0x0 DUP1 REVERT JUMPDEST DUP3 MSTORE POP DUP2 MLOAD PUSH1 0x20 SWAP2 DUP3 ADD SWAP3 SWAP1 SWAP2 ADD SWAP1 DUP1 DUP4 DUP4 PUSH1 0x0 JUMPDEST DUP4 DUP2 LT ISZERO PUSH3 0x171 JUMPI DUP2 DUP2 ADD MLOAD DUP4 DUP3 ADD MSTORE PUSH1 0x20 ADD PUSH3 0x157 JUMP JUMPDEST POP POP POP POP SWAP1 POP SWAP1 DUP2 ADD SWAP1 PUSH1 0x1F AND DUP1 ISZERO PUSH3 0x19F JUMPI DUP1 DUP3 SUB DUP1 MLOAD PUSH1 0x1 DUP4 PUSH1 0x20 SUB PUSH2 0x100 EXP SUB NOT AND DUP2 MSTORE PUSH1 0x20 ADD SWAP2 POP JUMPDEST POP PUSH1 0x40 MSTORE PUSH1 0x20 SWAP1 DUP2 ADD MLOAD DUP6 MLOAD SWAP1 SWAP4 POP DUP6 SWAP3 POP DUP5 SWAP2 PUSH3 0x1C4 SWAP2 PUSH1 0x3 SWAP2 DUP6 ADD SWAP1 PUSH3 0x281 JUMP JUMPDEST POP DUP1 MLOAD PUSH3 0x1DA SWAP1 PUSH1 0x4 SWAP1 PUSH1 0x20 DUP5 ADD SWAP1 PUSH3 0x281 JUMP JUMPDEST POP POP PUSH1 0x5 DUP1 SLOAD PUSH1 0xFF NOT AND PUSH1 0x12 OR SWAP1 SSTORE POP PUSH1 0x0 PUSH3 0x1F6 PUSH3 0x27D JUMP JUMPDEST PUSH1 0x5 DUP1 SLOAD PUSH2 0x100 PUSH1 0x1 PUSH1 0xA8 SHL SUB NOT AND PUSH2 0x100 PUSH1 0x1 PUSH1 0x1 PUSH1 0xA0 SHL SUB DUP5 AND SWAP1 DUP2 MUL SWAP2 SWAP1 SWAP2 OR SWAP1 SWAP2 SSTORE PUSH1 0x40 MLOAD SWAP2 SWAP3 POP SWAP1 PUSH1 0x0 SWAP1 PUSH32 0x8BE0079C531659141344CD1FD0A4F28419497F9722A3DAAFE3B4186F6B6457E0 SWAP1 DUP3 SWAP1 LOG3 POP PUSH1 0x1 PUSH1 0x6 SSTORE PUSH1 0x9 DUP1 SLOAD PUSH1 0x1 PUSH1 0x1 PUSH1 0xA0 SHL SUB NOT AND PUSH1 0x1 PUSH1 0x1 PUSH1 0xA0 SHL SUB SWAP6 SWAP1 SWAP6 AND SWAP5 SWAP1 SWAP5 OR SWAP1 SWAP4 SSTORE POP POP PUSH1 0x80 MSTORE PUSH3 0x31D JUMP JUMPDEST CALLER SWAP1 JUMP JUMPDEST DUP3 DUP1 SLOAD PUSH1 0x1 DUP2 PUSH1 0x1 AND ISZERO PUSH2 0x100 MUL SUB AND PUSH1 0x2 SWAP1 DIV SWAP1 PUSH1 0x0 MSTORE PUSH1 0x20 PUSH1 0x0 KECCAK256 SWAP1 PUSH1 0x1F ADD PUSH1 0x20 SWAP1 DIV DUP2 ADD SWAP3 DUP3 PUSH1 0x1F LT PUSH3 0x2C4 JUMPI DUP1 MLOAD PUSH1 0xFF NOT AND DUP4 DUP1 ADD OR DUP6 SSTORE PUSH3 0x2F4 JUMP JUMPDEST DUP3 DUP1 ADD PUSH1 0x1 ADD DUP6 SSTORE DUP3 ISZERO PUSH3 0x2F4 JUMPI SWAP2 DUP3 ADD JUMPDEST DUP3 DUP2 GT ISZERO PUSH3 0x2F4 JUMPI DUP3 MLOAD DUP3 SSTORE SWAP2 PUSH1 0x20 ADD SWAP2 SWAP1 PUSH1 0x1 ADD SWAP1 PUSH3 0x2D7 JUMP JUMPDEST POP PUSH3 0x302 SWAP3 SWAP2 POP PUSH3 0x306 JUMP JUMPDEST POP SWAP1 JUMP JUMPDEST JUMPDEST DUP1 DUP3 GT ISZERO PUSH3 0x302 JUMPI PUSH1 0x0 DUP2 SSTORE PUSH1 0x1 ADD PUSH3 0x307 JUMP JUMPDEST PUSH1 0x80 MLOAD PUSH2 0x213A PUSH3 0x33D PUSH1 0x0 CODECOPY DUP1 PUSH2 0x1225 MSTORE DUP1 PUSH2 0x1309 MSTORE POP PUSH2 0x213A PUSH1 0x0 RETURN INVALID PUSH1 0x80 PUSH1 0x40 MSTORE CALLVALUE DUP1 ISZERO PUSH2 0x10 JUMPI PUSH1 0x0 DUP1 REVERT JUMPDEST POP PUSH1 0x4 CALLDATASIZE LT PUSH2 0x1CF JUMPI PUSH1 0x0 CALLDATALOAD PUSH1 0xE0 SHR DUP1 PUSH4 0x853828B6 GT PUSH2 0x104 JUMPI DUP1 PUSH4 0xB6B55F25 GT PUSH2 0xA2 JUMPI DUP1 PUSH4 0xDEF68A9C GT PUSH2 0x71 JUMPI DUP1 PUSH4 0xDEF68A9C EQ PUSH2 0x4D8 JUMPI DUP1 PUSH4 0xE2D1E75C EQ PUSH2 0x4FE JUMPI DUP1 PUSH4 0xE6685244 EQ PUSH2 0x506 JUMPI DUP1 PUSH4 0xF2FDE38B EQ PUSH2 0x50E JUMPI PUSH2 0x1CF JUMP JUMPDEST DUP1 PUSH4 0xB6B55F25 EQ PUSH2 0x47D JUMPI DUP1 PUSH4 0xD389800F EQ PUSH2 0x49A JUMPI DUP1 PUSH4 0xDD62ED3E EQ PUSH2 0x4A2 JUMPI DUP1 PUSH4 0xDE5F6268 EQ PUSH2 0x4D0 JUMPI PUSH2 0x1CF JUMP JUMPDEST DUP1 PUSH4 0xA457C2D7 GT PUSH2 0xDE JUMPI DUP1 PUSH4 0xA457C2D7 EQ PUSH2 0x415 JUMPI DUP1 PUSH4 0xA8C62E76 EQ PUSH2 0x441 JUMPI DUP1 PUSH4 0xA9059CBB EQ PUSH2 0x449 JUMPI DUP1 PUSH4 0xB69EF8A8 EQ PUSH2 0x475 JUMPI PUSH2 0x1CF JUMP JUMPDEST DUP1 PUSH4 0x853828B6 EQ PUSH2 0x3FD JUMPI DUP1 PUSH4 0x8DA5CB5B EQ PUSH2 0x405 JUMPI DUP1 PUSH4 0x95D89B41 EQ PUSH2 0x40D JUMPI PUSH2 0x1CF JUMP JUMPDEST DUP1 PUSH4 0x39509351 GT PUSH2 0x171 JUMPI DUP1 PUSH4 0x70A08231 GT PUSH2 0x14B JUMPI DUP1 PUSH4 0x70A08231 EQ PUSH2 0x39C JUMPI DUP1 PUSH4 0x715018A6 EQ PUSH2 0x3C2 JUMPI DUP1 PUSH4 0x76DFABB8 EQ PUSH2 0x3CA JUMPI DUP1 PUSH4 0x77C7B8FC EQ PUSH2 0x3F5 JUMPI PUSH2 0x1CF JUMP JUMPDEST DUP1 PUSH4 0x39509351 EQ PUSH2 0x342 JUMPI DUP1 PUSH4 0x48A0D754 EQ PUSH2 0x36E JUMPI DUP1 PUSH4 0x5B12FF9B EQ PUSH2 0x376 JUMPI PUSH2 0x1CF JUMP JUMPDEST DUP1 PUSH4 0x1F1FCD51 GT PUSH2 0x1AD JUMPI DUP1 PUSH4 0x1F1FCD51 EQ PUSH2 0x2AB JUMPI DUP1 PUSH4 0x23B872DD EQ PUSH2 0x2CF JUMPI DUP1 PUSH4 0x2E1A7D4D EQ PUSH2 0x305 JUMPI DUP1 PUSH4 0x313CE567 EQ PUSH2 0x324 JUMPI PUSH2 0x1CF JUMP JUMPDEST DUP1 PUSH4 0x6FDDE03 EQ PUSH2 0x1D4 JUMPI DUP1 PUSH4 0x95EA7B3 EQ PUSH2 0x251 JUMPI DUP1 PUSH4 0x18160DDD EQ PUSH2 0x291 JUMPI JUMPDEST PUSH1 0x0 DUP1 REVERT JUMPDEST PUSH2 0x1DC PUSH2 0x534 JUMP JUMPDEST PUSH1 0x40 DUP1 MLOAD PUSH1 0x20 DUP1 DUP3 MSTORE DUP4 MLOAD DUP2 DUP4 ADD MSTORE DUP4 MLOAD SWAP2 SWAP3 DUP4 SWAP3 SWAP1 DUP4 ADD SWAP2 DUP6 ADD SWAP1 DUP1 DUP4 DUP4 PUSH1 0x0 JUMPDEST DUP4 DUP2 LT ISZERO PUSH2 0x216 JUMPI DUP2 DUP2 ADD MLOAD DUP4 DUP3 ADD MSTORE PUSH1 0x20 ADD PUSH2 0x1FE JUMP JUMPDEST POP POP POP POP SWAP1 POP SWAP1 DUP2 ADD SWAP1 PUSH1 0x1F AND DUP1 ISZERO PUSH2 0x243 JUMPI DUP1 DUP3 SUB DUP1 MLOAD PUSH1 0x1 DUP4 PUSH1 0x20 SUB PUSH2 0x100 EXP SUB NOT AND DUP2 MSTORE PUSH1 0x20 ADD SWAP2 POP JUMPDEST POP SWAP3 POP POP POP PUSH1 0x40 MLOAD DUP1 SWAP2 SUB SWAP1 RETURN JUMPDEST PUSH2 0x27D PUSH1 0x4 DUP1 CALLDATASIZE SUB PUSH1 0x40 DUP2 LT ISZERO PUSH2 0x267 JUMPI PUSH1 0x0 DUP1 REVERT JUMPDEST POP PUSH1 0x1 PUSH1 0x1 PUSH1 0xA0 SHL SUB DUP2 CALLDATALOAD AND SWAP1 PUSH1 0x20 ADD CALLDATALOAD PUSH2 0x5CA JUMP JUMPDEST PUSH1 0x40 DUP1 MLOAD SWAP2 ISZERO ISZERO DUP3 MSTORE MLOAD SWAP1 DUP2 SWAP1 SUB PUSH1 0x20 ADD SWAP1 RETURN JUMPDEST PUSH2 0x299 PUSH2 0x5E8 JUMP JUMPDEST PUSH1 0x40 DUP1 MLOAD SWAP2 DUP3 MSTORE MLOAD SWAP1 DUP2 SWAP1 SUB PUSH1 0x20 ADD SWAP1 RETURN JUMPDEST PUSH2 0x2B3 PUSH2 0x5EE JUMP JUMPDEST PUSH1 0x40 DUP1 MLOAD PUSH1 0x1 PUSH1 0x1 PUSH1 0xA0 SHL SUB SWAP1 SWAP3 AND DUP3 MSTORE MLOAD SWAP1 DUP2 SWAP1 SUB PUSH1 0x20 ADD SWAP1 RETURN JUMPDEST PUSH2 0x27D PUSH1 0x4 DUP1 CALLDATASIZE SUB PUSH1 0x60 DUP2 LT ISZERO PUSH2 0x2E5 JUMPI PUSH1 0x0 DUP1 REVERT JUMPDEST POP PUSH1 0x1 PUSH1 0x1 PUSH1 0xA0 SHL SUB DUP2 CALLDATALOAD DUP2 AND SWAP2 PUSH1 0x20 DUP2 ADD CALLDATALOAD SWAP1 SWAP2 AND SWAP1 PUSH1 0x40 ADD CALLDATALOAD PUSH2 0x664 JUMP JUMPDEST PUSH2 0x322 PUSH1 0x4 DUP1 CALLDATASIZE SUB PUSH1 0x20 DUP2 LT ISZERO PUSH2 0x31B JUMPI PUSH1 0x0 DUP1 REVERT JUMPDEST POP CALLDATALOAD PUSH2 0x6EC JUMP JUMPDEST STOP JUMPDEST PUSH2 0x32C PUSH2 0x8EA JUMP JUMPDEST PUSH1 0x40 DUP1 MLOAD PUSH1 0xFF SWAP1 SWAP3 AND DUP3 MSTORE MLOAD SWAP1 DUP2 SWAP1 SUB PUSH1 0x20 ADD SWAP1 RETURN JUMPDEST PUSH2 0x27D PUSH1 0x4 DUP1 CALLDATASIZE SUB PUSH1 0x40 DUP2 LT ISZERO PUSH2 0x358 JUMPI PUSH1 0x0 DUP1 REVERT JUMPDEST POP PUSH1 0x1 PUSH1 0x1 PUSH1 0xA0 SHL SUB DUP2 CALLDATALOAD AND SWAP1 PUSH1 0x20 ADD CALLDATALOAD PUSH2 0x8F3 JUMP JUMPDEST PUSH2 0x299 PUSH2 0x941 JUMP JUMPDEST PUSH2 0x322 PUSH1 0x4 DUP1 CALLDATASIZE SUB PUSH1 0x20 DUP2 LT ISZERO PUSH2 0x38C JUMPI PUSH1 0x0 DUP1 REVERT JUMPDEST POP CALLDATALOAD PUSH1 0x1 PUSH1 0x1 PUSH1 0xA0 SHL SUB AND PUSH2 0x997 JUMP JUMPDEST PUSH2 0x299 PUSH1 0x4 DUP1 CALLDATASIZE SUB PUSH1 0x20 DUP2 LT ISZERO PUSH2 0x3B2 JUMPI PUSH1 0x0 DUP1 REVERT JUMPDEST POP CALLDATALOAD PUSH1 0x1 PUSH1 0x1 PUSH1 0xA0 SHL SUB AND PUSH2 0xB0C JUMP JUMPDEST PUSH2 0x322 PUSH2 0xB27 JUMP JUMPDEST PUSH2 0x3D2 PUSH2 0xBD9 JUMP JUMPDEST PUSH1 0x40 DUP1 MLOAD PUSH1 0x1 PUSH1 0x1 PUSH1 0xA0 SHL SUB SWAP1 SWAP4 AND DUP4 MSTORE PUSH1 0x20 DUP4 ADD SWAP2 SWAP1 SWAP2 MSTORE DUP1 MLOAD SWAP2 DUP3 SWAP1 SUB ADD SWAP1 RETURN JUMPDEST PUSH2 0x299 PUSH2 0xBEE JUMP JUMPDEST PUSH2 0x322 PUSH2 0xC30 JUMP JUMPDEST PUSH2 0x2B3 PUSH2 0xC43 JUMP JUMPDEST PUSH2 0x1DC PUSH2 0xC57 JUMP JUMPDEST PUSH2 0x27D PUSH1 0x4 DUP1 CALLDATASIZE SUB PUSH1 0x40 DUP2 LT ISZERO PUSH2 0x42B JUMPI PUSH1 0x0 DUP1 REVERT JUMPDEST POP PUSH1 0x1 PUSH1 0x1 PUSH1 0xA0 SHL SUB DUP2 CALLDATALOAD AND SWAP1 PUSH1 0x20 ADD CALLDATALOAD PUSH2 0xCB8 JUMP JUMPDEST PUSH2 0x2B3 PUSH2 0xD20 JUMP JUMPDEST PUSH2 0x27D PUSH1 0x4 DUP1 CALLDATASIZE SUB PUSH1 0x40 DUP2 LT ISZERO PUSH2 0x45F JUMPI PUSH1 0x0 DUP1 REVERT JUMPDEST POP PUSH1 0x1 PUSH1 0x1 PUSH1 0xA0 SHL SUB DUP2 CALLDATALOAD AND SWAP1 PUSH1 0x20 ADD CALLDATALOAD PUSH2 0xD2F JUMP JUMPDEST PUSH2 0x299 PUSH2 0xD43 JUMP JUMPDEST PUSH2 0x322 PUSH1 0x4 DUP1 CALLDATASIZE SUB PUSH1 0x20 DUP2 LT ISZERO PUSH2 0x493 JUMPI PUSH1 0x0 DUP1 REVERT JUMPDEST POP CALLDATALOAD PUSH2 0xE48 JUMP JUMPDEST PUSH2 0x322 PUSH2 0xF91 JUMP JUMPDEST PUSH2 0x299 PUSH1 0x4 DUP1 CALLDATASIZE SUB PUSH1 0x40 DUP2 LT ISZERO PUSH2 0x4B8 JUMPI PUSH1 0x0 DUP1 REVERT JUMPDEST POP PUSH1 0x1 PUSH1 0x1 PUSH1 0xA0 SHL SUB DUP2 CALLDATALOAD DUP2 AND SWAP2 PUSH1 0x20 ADD CALLDATALOAD AND PUSH2 0x1022 JUMP JUMPDEST PUSH2 0x322 PUSH2 0x104D JUMP JUMPDEST PUSH2 0x322 PUSH1 0x4 DUP1 CALLDATASIZE SUB PUSH1 0x20 DUP2 LT ISZERO PUSH2 0x4EE JUMPI PUSH1 0x0 DUP1 REVERT JUMPDEST POP CALLDATALOAD PUSH1 0x1 PUSH1 0x1 PUSH1 0xA0 SHL SUB AND PUSH2 0x10D5 JUMP JUMPDEST PUSH2 0x299 PUSH2 0x1223 JUMP JUMPDEST PUSH2 0x322 PUSH2 0x1247 JUMP JUMPDEST PUSH2 0x322 PUSH1 0x4 DUP1 CALLDATASIZE SUB PUSH1 0x20 DUP2 LT ISZERO PUSH2 0x524 JUMPI PUSH1 0x0 DUP1 REVERT JUMPDEST POP CALLDATALOAD PUSH1 0x1 PUSH1 0x1 PUSH1 0xA0 SHL SUB AND PUSH2 0x1453 JUMP JUMPDEST PUSH1 0x3 DUP1 SLOAD PUSH1 0x40 DUP1 MLOAD PUSH1 0x20 PUSH1 0x1F PUSH1 0x2 PUSH1 0x0 NOT PUSH2 0x100 PUSH1 0x1 DUP9 AND ISZERO MUL ADD SWAP1 SWAP6 AND SWAP5 SWAP1 SWAP5 DIV SWAP4 DUP5 ADD DUP2 SWAP1 DIV DUP2 MUL DUP3 ADD DUP2 ADD SWAP1 SWAP3 MSTORE DUP3 DUP2 MSTORE PUSH1 0x60 SWAP4 SWAP1 SWAP3 SWAP1 SWAP2 DUP4 ADD DUP3 DUP3 DUP1 ISZERO PUSH2 0x5C0 JUMPI DUP1 PUSH1 0x1F LT PUSH2 0x595 JUMPI PUSH2 0x100 DUP1 DUP4 SLOAD DIV MUL DUP4 MSTORE SWAP2 PUSH1 0x20 ADD SWAP2 PUSH2 0x5C0 JUMP JUMPDEST DUP3 ADD SWAP2 SWAP1 PUSH1 0x0 MSTORE PUSH1 0x20 PUSH1 0x0 KECCAK256 SWAP1 JUMPDEST DUP2 SLOAD DUP2 MSTORE SWAP1 PUSH1 0x1 ADD SWAP1 PUSH1 0x20 ADD DUP1 DUP4 GT PUSH2 0x5A3 JUMPI DUP3 SWAP1 SUB PUSH1 0x1F AND DUP3 ADD SWAP2 JUMPDEST POP POP POP POP POP SWAP1 POP SWAP1 JUMP JUMPDEST PUSH1 0x0 PUSH2 0x5DE PUSH2 0x5D7 PUSH2 0x1561 JUMP JUMPDEST DUP5 DUP5 PUSH2 0x1565 JUMP JUMPDEST POP PUSH1 0x1 JUMPDEST SWAP3 SWAP2 POP POP JUMP JUMPDEST PUSH1 0x2 SLOAD SWAP1 JUMP JUMPDEST PUSH1 0x9 SLOAD PUSH1 0x40 DUP1 MLOAD PUSH4 0x1F1FCD51 PUSH1 0xE0 SHL DUP2 MSTORE SWAP1 MLOAD PUSH1 0x0 SWAP3 PUSH1 0x1 PUSH1 0x1 PUSH1 0xA0 SHL SUB AND SWAP2 PUSH4 0x1F1FCD51 SWAP2 PUSH1 0x4 DUP1 DUP4 ADD SWAP3 PUSH1 0x20 SWAP3 SWAP2 SWAP1 DUP3 SWAP1 SUB ADD DUP2 DUP7 DUP1 EXTCODESIZE ISZERO DUP1 ISZERO PUSH2 0x633 JUMPI PUSH1 0x0 DUP1 REVERT JUMPDEST POP GAS STATICCALL ISZERO DUP1 ISZERO PUSH2 0x647 JUMPI RETURNDATASIZE PUSH1 0x0 DUP1 RETURNDATACOPY RETURNDATASIZE PUSH1 0x0 REVERT JUMPDEST POP POP POP POP PUSH1 0x40 MLOAD RETURNDATASIZE PUSH1 0x20 DUP2 LT ISZERO PUSH2 0x65D JUMPI PUSH1 0x0 DUP1 REVERT JUMPDEST POP MLOAD SWAP1 POP SWAP1 JUMP JUMPDEST PUSH1 0x0 PUSH2 0x671 DUP5 DUP5 DUP5 PUSH2 0x1651 JUMP JUMPDEST PUSH2 0x6E1 DUP5 PUSH2 0x67D PUSH2 0x1561 JUMP JUMPDEST PUSH2 0x6DC DUP6 PUSH1 0x40 MLOAD DUP1 PUSH1 0x60 ADD PUSH1 0x40 MSTORE DUP1 PUSH1 0x28 DUP2 MSTORE PUSH1 0x20 ADD PUSH2 0x2004 PUSH1 0x28 SWAP2 CODECOPY PUSH1 0x1 PUSH1 0x1 PUSH1 0xA0 SHL SUB DUP11 AND PUSH1 0x0 SWAP1 DUP2 MSTORE PUSH1 0x1 PUSH1 0x20 MSTORE PUSH1 0x40 DUP2 KECCAK256 SWAP1 PUSH2 0x6BB PUSH2 0x1561 JUMP JUMPDEST PUSH1 0x1 PUSH1 0x1 PUSH1 0xA0 SHL SUB AND DUP2 MSTORE PUSH1 0x20 DUP2 ADD SWAP2 SWAP1 SWAP2 MSTORE PUSH1 0x40 ADD PUSH1 0x0 KECCAK256 SLOAD SWAP2 SWAP1 PUSH2 0x17AC JUMP JUMPDEST PUSH2 0x1565 JUMP JUMPDEST POP PUSH1 0x1 JUMPDEST SWAP4 SWAP3 POP POP POP JUMP JUMPDEST PUSH1 0x0 PUSH2 0x711 PUSH2 0x6F9 PUSH2 0x5E8 JUMP JUMPDEST PUSH2 0x70B DUP5 PUSH2 0x705 PUSH2 0xD43 JUMP JUMPDEST SWAP1 PUSH2 0x1843 JUMP JUMPDEST SWAP1 PUSH2 0x189C JUMP JUMPDEST SWAP1 POP PUSH2 0x71D CALLER DUP4 PUSH2 0x1903 JUMP JUMPDEST PUSH1 0x0 PUSH2 0x727 PUSH2 0x5EE JUMP JUMPDEST PUSH1 0x1 PUSH1 0x1 PUSH1 0xA0 SHL SUB AND PUSH4 0x70A08231 ADDRESS PUSH1 0x40 MLOAD DUP3 PUSH4 0xFFFFFFFF AND PUSH1 0xE0 SHL DUP2 MSTORE PUSH1 0x4 ADD DUP1 DUP3 PUSH1 0x1 PUSH1 0x1 PUSH1 0xA0 SHL SUB AND DUP2 MSTORE PUSH1 0x20 ADD SWAP2 POP POP PUSH1 0x20 PUSH1 0x40 MLOAD DUP1 DUP4 SUB DUP2 DUP7 DUP1 EXTCODESIZE ISZERO DUP1 ISZERO PUSH2 0x773 JUMPI PUSH1 0x0 DUP1 REVERT JUMPDEST POP GAS STATICCALL ISZERO DUP1 ISZERO PUSH2 0x787 JUMPI RETURNDATASIZE PUSH1 0x0 DUP1 RETURNDATACOPY RETURNDATASIZE PUSH1 0x0 REVERT JUMPDEST POP POP POP POP PUSH1 0x40 MLOAD RETURNDATASIZE PUSH1 0x20 DUP2 LT ISZERO PUSH2 0x79D JUMPI PUSH1 0x0 DUP1 REVERT JUMPDEST POP MLOAD SWAP1 POP DUP2 DUP2 LT ISZERO PUSH2 0x8C8 JUMPI PUSH1 0x0 PUSH2 0x7B5 DUP4 DUP4 PUSH2 0x19FF JUMP JUMPDEST PUSH1 0x9 SLOAD PUSH1 0x40 DUP1 MLOAD PUSH4 0x2E1A7D4D PUSH1 0xE0 SHL DUP2 MSTORE PUSH1 0x4 DUP2 ADD DUP5 SWAP1 MSTORE SWAP1 MLOAD SWAP3 SWAP4 POP PUSH1 0x1 PUSH1 0x1 PUSH1 0xA0 SHL SUB SWAP1 SWAP2 AND SWAP2 PUSH4 0x2E1A7D4D SWAP2 PUSH1 0x24 DUP1 DUP3 ADD SWAP3 PUSH1 0x0 SWAP3 SWAP1 SWAP2 SWAP1 DUP3 SWAP1 SUB ADD DUP2 DUP4 DUP8 DUP1 EXTCODESIZE ISZERO DUP1 ISZERO PUSH2 0x805 JUMPI PUSH1 0x0 DUP1 REVERT JUMPDEST POP GAS CALL ISZERO DUP1 ISZERO PUSH2 0x819 JUMPI RETURNDATASIZE PUSH1 0x0 DUP1 RETURNDATACOPY RETURNDATASIZE PUSH1 0x0 REVERT JUMPDEST POP POP POP POP PUSH1 0x0 PUSH2 0x827 PUSH2 0x5EE JUMP JUMPDEST PUSH1 0x1 PUSH1 0x1 PUSH1 0xA0 SHL SUB AND PUSH4 0x70A08231 ADDRESS PUSH1 0x40 MLOAD DUP3 PUSH4 0xFFFFFFFF AND PUSH1 0xE0 SHL DUP2 MSTORE PUSH1 0x4 ADD DUP1 DUP3 PUSH1 0x1 PUSH1 0x1 PUSH1 0xA0 SHL SUB AND DUP2 MSTORE PUSH1 0x20 ADD SWAP2 POP POP PUSH1 0x20 PUSH1 0x40 MLOAD DUP1 DUP4 SUB DUP2 DUP7 DUP1 EXTCODESIZE ISZERO DUP1 ISZERO PUSH2 0x873 JUMPI PUSH1 0x0 DUP1 REVERT JUMPDEST POP GAS STATICCALL ISZERO DUP1 ISZERO PUSH2 0x887 JUMPI RETURNDATASIZE PUSH1 0x0 DUP1 RETURNDATACOPY RETURNDATASIZE PUSH1 0x0 REVERT JUMPDEST POP POP POP POP PUSH1 0x40 MLOAD RETURNDATASIZE PUSH1 0x20 DUP2 LT ISZERO PUSH2 0x89D JUMPI PUSH1 0x0 DUP1 REVERT JUMPDEST POP MLOAD SWAP1 POP PUSH1 0x0 PUSH2 0x8AD DUP3 DUP6 PUSH2 0x19FF JUMP JUMPDEST SWAP1 POP DUP3 DUP2 LT ISZERO PUSH2 0x8C4 JUMPI PUSH2 0x8C1 DUP5 DUP3 PUSH2 0x1A5C JUMP JUMPDEST SWAP5 POP JUMPDEST POP POP POP JUMPDEST PUSH2 0x8E5 CALLER DUP4 PUSH2 0x8D5 PUSH2 0x5EE JUMP JUMPDEST PUSH1 0x1 PUSH1 0x1 PUSH1 0xA0 SHL SUB AND SWAP2 SWAP1 PUSH2 0x1AB6 JUMP JUMPDEST POP POP POP JUMP JUMPDEST PUSH1 0x5 SLOAD PUSH1 0xFF AND SWAP1 JUMP JUMPDEST PUSH1 0x0 PUSH2 0x5DE PUSH2 0x900 PUSH2 0x1561 JUMP JUMPDEST DUP5 PUSH2 0x6DC DUP6 PUSH1 0x1 PUSH1 0x0 PUSH2 0x911 PUSH2 0x1561 JUMP JUMPDEST PUSH1 0x1 PUSH1 0x1 PUSH1 0xA0 SHL SUB SWAP1 DUP2 AND DUP3 MSTORE PUSH1 0x20 DUP1 DUP4 ADD SWAP4 SWAP1 SWAP4 MSTORE PUSH1 0x40 SWAP2 DUP3 ADD PUSH1 0x0 SWAP1 DUP2 KECCAK256 SWAP2 DUP13 AND DUP2 MSTORE SWAP3 MSTORE SWAP1 KECCAK256 SLOAD SWAP1 PUSH2 0x1A5C JUMP JUMPDEST PUSH1 0x0 PUSH2 0x94B PUSH2 0x5EE JUMP JUMPDEST PUSH1 0x1 PUSH1 0x1 PUSH1 0xA0 SHL SUB AND PUSH4 0x70A08231 ADDRESS PUSH1 0x40 MLOAD DUP3 PUSH4 0xFFFFFFFF AND PUSH1 0xE0 SHL DUP2 MSTORE PUSH1 0x4 ADD DUP1 DUP3 PUSH1 0x1 PUSH1 0x1 PUSH1 0xA0 SHL SUB AND DUP2 MSTORE PUSH1 0x20 ADD SWAP2 POP POP PUSH1 0x20 PUSH1 0x40 MLOAD DUP1 DUP4 SUB DUP2 DUP7 DUP1 EXTCODESIZE ISZERO DUP1 ISZERO PUSH2 0x633 JUMPI PUSH1 0x0 DUP1 REVERT JUMPDEST PUSH2 0x99F PUSH2 0x1561 JUMP JUMPDEST PUSH1 0x1 PUSH1 0x1 PUSH1 0xA0 SHL SUB AND PUSH2 0x9B0 PUSH2 0xC43 JUMP JUMPDEST PUSH1 0x1 PUSH1 0x1 PUSH1 0xA0 SHL SUB AND EQ PUSH2 0x9F9 JUMPI PUSH1 0x40 DUP1 MLOAD PUSH3 0x461BCD PUSH1 0xE5 SHL DUP2 MSTORE PUSH1 0x20 PUSH1 0x4 DUP3 ADD DUP2 SWAP1 MSTORE PUSH1 0x24 DUP3 ADD MSTORE PUSH1 0x0 DUP1 MLOAD PUSH1 0x20 PUSH2 0x202C DUP4 CODECOPY DUP2 MLOAD SWAP2 MSTORE PUSH1 0x44 DUP3 ADD MSTORE SWAP1 MLOAD SWAP1 DUP2 SWAP1 SUB PUSH1 0x64 ADD SWAP1 REVERT JUMPDEST DUP1 PUSH1 0x1 PUSH1 0x1 PUSH1 0xA0 SHL SUB AND PUSH4 0xFBFA77CF PUSH1 0x40 MLOAD DUP2 PUSH4 0xFFFFFFFF AND PUSH1 0xE0 SHL DUP2 MSTORE PUSH1 0x4 ADD PUSH1 0x20 PUSH1 0x40 MLOAD DUP1 DUP4 SUB DUP2 DUP7 DUP1 EXTCODESIZE ISZERO DUP1 ISZERO PUSH2 0xA32 JUMPI PUSH1 0x0 DUP1 REVERT JUMPDEST POP GAS STATICCALL ISZERO DUP1 ISZERO PUSH2 0xA46 JUMPI RETURNDATASIZE PUSH1 0x0 DUP1 RETURNDATACOPY RETURNDATASIZE PUSH1 0x0 REVERT JUMPDEST POP POP POP POP PUSH1 0x40 MLOAD RETURNDATASIZE PUSH1 0x20 DUP2 LT ISZERO PUSH2 0xA5C JUMPI PUSH1 0x0 DUP1 REVERT JUMPDEST POP MLOAD PUSH1 0x1 PUSH1 0x1 PUSH1 0xA0 SHL SUB AND ADDRESS EQ PUSH2 0xAA4 JUMPI PUSH1 0x40 MLOAD PUSH3 0x461BCD PUSH1 0xE5 SHL DUP2 MSTORE PUSH1 0x4 ADD DUP1 DUP1 PUSH1 0x20 ADD DUP3 DUP2 SUB DUP3 MSTORE PUSH1 0x21 DUP2 MSTORE PUSH1 0x20 ADD DUP1 PUSH2 0x1FC2 PUSH1 0x21 SWAP2 CODECOPY PUSH1 0x40 ADD SWAP2 POP POP PUSH1 0x40 MLOAD DUP1 SWAP2 SUB SWAP1 REVERT JUMPDEST PUSH1 0x40 DUP1 MLOAD DUP1 DUP3 ADD DUP3 MSTORE PUSH1 0x1 PUSH1 0x1 PUSH1 0xA0 SHL SUB DUP4 AND DUP1 DUP3 MSTORE TIMESTAMP PUSH1 0x20 SWAP3 DUP4 ADD DUP2 SWAP1 MSTORE PUSH1 0x7 DUP1 SLOAD PUSH1 0x1 PUSH1 0x1 PUSH1 0xA0 SHL SUB NOT AND DUP4 OR SWAP1 SSTORE PUSH1 0x8 SSTORE DUP3 MLOAD SWAP1 DUP2 MSTORE SWAP2 MLOAD PUSH32 0x1AAE2EC5647DB56DA2D513DE40528BA3565C6057525637050660C4323BBAC7DF SWAP3 DUP2 SWAP1 SUB SWAP1 SWAP2 ADD SWAP1 LOG1 POP JUMP JUMPDEST PUSH1 0x1 PUSH1 0x1 PUSH1 0xA0 SHL SUB AND PUSH1 0x0 SWAP1 DUP2 MSTORE PUSH1 0x20 DUP2 SWAP1 MSTORE PUSH1 0x40 SWAP1 KECCAK256 SLOAD SWAP1 JUMP JUMPDEST PUSH2 0xB2F PUSH2 0x1561 JUMP JUMPDEST PUSH1 0x1 PUSH1 0x1 PUSH1 0xA0 SHL SUB AND PUSH2 0xB40 PUSH2 0xC43 JUMP JUMPDEST PUSH1 0x1 PUSH1 0x1 PUSH1 0xA0 SHL SUB AND EQ PUSH2 0xB89 JUMPI PUSH1 0x40 DUP1 MLOAD PUSH3 0x461BCD PUSH1 0xE5 SHL DUP2 MSTORE PUSH1 0x20 PUSH1 0x4 DUP3 ADD DUP2 SWAP1 MSTORE PUSH1 0x24 DUP3 ADD MSTORE PUSH1 0x0 DUP1 MLOAD PUSH1 0x20 PUSH2 0x202C DUP4 CODECOPY DUP2 MLOAD SWAP2 MSTORE PUSH1 0x44 DUP3 ADD MSTORE SWAP1 MLOAD SWAP1 DUP2 SWAP1 SUB PUSH1 0x64 ADD SWAP1 REVERT JUMPDEST PUSH1 0x5 SLOAD PUSH1 0x40 MLOAD PUSH1 0x0 SWAP2 PUSH2 0x100 SWAP1 DIV PUSH1 0x1 PUSH1 0x1 PUSH1 0xA0 SHL SUB AND SWAP1 PUSH32 0x8BE0079C531659141344CD1FD0A4F28419497F9722A3DAAFE3B4186F6B6457E0 SWAP1 DUP4 SWAP1 LOG3 PUSH1 0x5 DUP1 SLOAD PUSH2 0x100 PUSH1 0x1 PUSH1 0xA8 SHL SUB NOT AND SWAP1 SSTORE JUMP JUMPDEST PUSH1 0x7 SLOAD PUSH1 0x8 SLOAD PUSH1 0x1 PUSH1 0x1 PUSH1 0xA0 SHL SUB SWAP1 SWAP2 AND SWAP1 DUP3 JUMP JUMPDEST PUSH1 0x0 PUSH2 0xBF8 PUSH2 0x5E8 JUMP JUMPDEST ISZERO PUSH2 0xC21 JUMPI PUSH2 0xC1C PUSH2 0xC08 PUSH2 0x5E8 JUMP JUMPDEST PUSH2 0x70B PUSH8 0xDE0B6B3A7640000 PUSH2 0x705 PUSH2 0xD43 JUMP JUMPDEST PUSH2 0xC2B JUMP JUMPDEST PUSH8 0xDE0B6B3A7640000 JUMPDEST SWAP1 POP SWAP1 JUMP JUMPDEST PUSH2 0xC41 PUSH2 0xC3C CALLER PUSH2 0xB0C JUMP JUMPDEST PUSH2 0x6EC JUMP JUMPDEST JUMP JUMPDEST PUSH1 0x5 SLOAD PUSH2 0x100 SWAP1 DIV PUSH1 0x1 PUSH1 0x1 PUSH1 0xA0 SHL SUB AND SWAP1 JUMP JUMPDEST PUSH1 0x4 DUP1 SLOAD PUSH1 0x40 DUP1 MLOAD PUSH1 0x20 PUSH1 0x1F PUSH1 0x2 PUSH1 0x0 NOT PUSH2 0x100 PUSH1 0x1 DUP9 AND ISZERO MUL ADD SWAP1 SWAP6 AND SWAP5 SWAP1 SWAP5 DIV SWAP4 DUP5 ADD DUP2 SWAP1 DIV DUP2 MUL DUP3 ADD DUP2 ADD SWAP1 SWAP3 MSTORE DUP3 DUP2 MSTORE PUSH1 0x60 SWAP4 SWAP1 SWAP3 SWAP1 SWAP2 DUP4 ADD DUP3 DUP3 DUP1 ISZERO PUSH2 0x5C0 JUMPI DUP1 PUSH1 0x1F LT PUSH2 0x595 JUMPI PUSH2 0x100 DUP1 DUP4 SLOAD DIV MUL DUP4 MSTORE SWAP2 PUSH1 0x20 ADD SWAP2 PUSH2 0x5C0 JUMP JUMPDEST PUSH1 0x0 PUSH2 0x5DE PUSH2 0xCC5 PUSH2 0x1561 JUMP JUMPDEST DUP5 PUSH2 0x6DC DUP6 PUSH1 0x40 MLOAD DUP1 PUSH1 0x60 ADD PUSH1 0x40 MSTORE DUP1 PUSH1 0x25 DUP2 MSTORE PUSH1 0x20 ADD PUSH2 0x20E0 PUSH1 0x25 SWAP2 CODECOPY PUSH1 0x1 PUSH1 0x0 PUSH2 0xCEF PUSH2 0x1561 JUMP JUMPDEST PUSH1 0x1 PUSH1 0x1 PUSH1 0xA0 SHL SUB SWAP1 DUP2 AND DUP3 MSTORE PUSH1 0x20 DUP1 DUP4 ADD SWAP4 SWAP1 SWAP4 MSTORE PUSH1 0x40 SWAP2 DUP3 ADD PUSH1 0x0 SWAP1 DUP2 KECCAK256 SWAP2 DUP14 AND DUP2 MSTORE SWAP3 MSTORE SWAP1 KECCAK256 SLOAD SWAP2 SWAP1 PUSH2 0x17AC JUMP JUMPDEST PUSH1 0x9 SLOAD PUSH1 0x1 PUSH1 0x1 PUSH1 0xA0 SHL SUB AND DUP2 JUMP JUMPDEST PUSH1 0x0 PUSH2 0x5DE PUSH2 0xD3C PUSH2 0x1561 JUMP JUMPDEST DUP5 DUP5 PUSH2 0x1651 JUMP JUMPDEST PUSH1 0x0 PUSH2 0xC2B PUSH1 0x9 PUSH1 0x0 SWAP1 SLOAD SWAP1 PUSH2 0x100 EXP SWAP1 DIV PUSH1 0x1 PUSH1 0x1 PUSH1 0xA0 SHL SUB AND PUSH1 0x1 PUSH1 0x1 PUSH1 0xA0 SHL SUB AND PUSH4 0x722713F7 PUSH1 0x40 MLOAD DUP2 PUSH4 0xFFFFFFFF AND PUSH1 0xE0 SHL DUP2 MSTORE PUSH1 0x4 ADD PUSH1 0x20 PUSH1 0x40 MLOAD DUP1 DUP4 SUB DUP2 DUP7 DUP1 EXTCODESIZE ISZERO DUP1 ISZERO PUSH2 0xD96 JUMPI PUSH1 0x0 DUP1 REVERT JUMPDEST POP GAS STATICCALL ISZERO DUP1 ISZERO PUSH2 0xDAA JUMPI RETURNDATASIZE PUSH1 0x0 DUP1 RETURNDATACOPY RETURNDATASIZE PUSH1 0x0 REVERT JUMPDEST POP POP POP POP PUSH1 0x40 MLOAD RETURNDATASIZE PUSH1 0x20 DUP2 LT ISZERO PUSH2 0xDC0 JUMPI PUSH1 0x0 DUP1 REVERT JUMPDEST POP MLOAD PUSH2 0xDCA PUSH2 0x5EE JUMP JUMPDEST PUSH1 0x1 PUSH1 0x1 PUSH1 0xA0 SHL SUB AND PUSH4 0x70A08231 ADDRESS PUSH1 0x40 MLOAD DUP3 PUSH4 0xFFFFFFFF AND PUSH1 0xE0 SHL DUP2 MSTORE PUSH1 0x4 ADD DUP1 DUP3 PUSH1 0x1 PUSH1 0x1 PUSH1 0xA0 SHL SUB AND DUP2 MSTORE PUSH1 0x20 ADD SWAP2 POP POP PUSH1 0x20 PUSH1 0x40 MLOAD DUP1 DUP4 SUB DUP2 DUP7 DUP1 EXTCODESIZE ISZERO DUP1 ISZERO PUSH2 0xE16 JUMPI PUSH1 0x0 DUP1 REVERT JUMPDEST POP GAS STATICCALL ISZERO DUP1 ISZERO PUSH2 0xE2A JUMPI RETURNDATASIZE PUSH1 0x0 DUP1 RETURNDATACOPY RETURNDATASIZE PUSH1 0x0 REVERT JUMPDEST POP POP POP POP PUSH1 0x40 MLOAD RETURNDATASIZE PUSH1 0x20 DUP2 LT ISZERO PUSH2 0xE40 JUMPI PUSH1 0x0 DUP1 REVERT JUMPDEST POP MLOAD SWAP1 PUSH2 0x1A5C JUMP JUMPDEST PUSH1 0x2 PUSH1 0x6 SLOAD EQ ISZERO PUSH2 0xEA0 JUMPI PUSH1 0x40 DUP1 MLOAD PUSH3 0x461BCD PUSH1 0xE5 SHL DUP2 MSTORE PUSH1 0x20 PUSH1 0x4 DUP3 ADD MSTORE PUSH1 0x1F PUSH1 0x24 DUP3 ADD MSTORE PUSH32 0x5265656E7472616E637947756172643A207265656E7472616E742063616C6C00 PUSH1 0x44 DUP3 ADD MSTORE SWAP1 MLOAD SWAP1 DUP2 SWAP1 SUB PUSH1 0x64 ADD SWAP1 REVERT JUMPDEST PUSH1 0x2 PUSH1 0x6 SSTORE PUSH1 0x9 SLOAD PUSH1 0x40 DUP1 MLOAD PUSH4 0x2B9FF785 PUSH1 0xE1 SHL DUP2 MSTORE SWAP1 MLOAD PUSH1 0x1 PUSH1 0x1 PUSH1 0xA0 SHL SUB SWAP1 SWAP3 AND SWAP2 PUSH4 0x573FEF0A SWAP2 PUSH1 0x4 DUP1 DUP3 ADD SWAP3 PUSH1 0x0 SWAP3 SWAP1 SWAP2 SWAP1 DUP3 SWAP1 SUB ADD DUP2 DUP4 DUP8 DUP1 EXTCODESIZE ISZERO DUP1 ISZERO PUSH2 0xEEB JUMPI PUSH1 0x0 DUP1 REVERT JUMPDEST POP GAS CALL ISZERO DUP1 ISZERO PUSH2 0xEFF JUMPI RETURNDATASIZE PUSH1 0x0 DUP1 RETURNDATACOPY RETURNDATASIZE PUSH1 0x0 REVERT JUMPDEST POP POP POP POP PUSH1 0x0 PUSH2 0xF0D PUSH2 0xD43 JUMP JUMPDEST SWAP1 POP PUSH2 0xF2E CALLER ADDRESS DUP5 PUSH2 0xF1D PUSH2 0x5EE JUMP JUMPDEST PUSH1 0x1 PUSH1 0x1 PUSH1 0xA0 SHL SUB AND SWAP3 SWAP2 SWAP1 PUSH2 0x1B08 JUMP JUMPDEST PUSH2 0xF36 PUSH2 0xF91 JUMP JUMPDEST PUSH1 0x0 PUSH2 0xF40 PUSH2 0xD43 JUMP JUMPDEST SWAP1 POP PUSH2 0xF4C DUP2 DUP4 PUSH2 0x19FF JUMP JUMPDEST SWAP3 POP PUSH1 0x0 PUSH2 0xF58 PUSH2 0x5E8 JUMP JUMPDEST PUSH2 0xF63 JUMPI POP DUP3 PUSH2 0xF7C JUMP JUMPDEST PUSH2 0xF79 DUP4 PUSH2 0x70B PUSH2 0xF72 PUSH2 0x5E8 JUMP JUMPDEST DUP8 SWAP1 PUSH2 0x1843 JUMP JUMPDEST SWAP1 POP JUMPDEST PUSH2 0xF86 CALLER DUP3 PUSH2 0x1B68 JUMP JUMPDEST POP POP PUSH1 0x1 PUSH1 0x6 SSTORE POP POP JUMP JUMPDEST PUSH1 0x0 PUSH2 0xF9B PUSH2 0x941 JUMP JUMPDEST PUSH1 0x9 SLOAD SWAP1 SWAP2 POP PUSH2 0xFB7 SWAP1 PUSH1 0x1 PUSH1 0x1 PUSH1 0xA0 SHL SUB AND DUP3 PUSH2 0x8D5 PUSH2 0x5EE JUMP JUMPDEST PUSH1 0x9 PUSH1 0x0 SWAP1 SLOAD SWAP1 PUSH2 0x100 EXP SWAP1 DIV PUSH1 0x1 PUSH1 0x1 PUSH1 0xA0 SHL SUB AND PUSH1 0x1 PUSH1 0x1 PUSH1 0xA0 SHL SUB AND PUSH4 0xD0E30DB0 PUSH1 0x40 MLOAD DUP2 PUSH4 0xFFFFFFFF AND PUSH1 0xE0 SHL DUP2 MSTORE PUSH1 0x4 ADD PUSH1 0x0 PUSH1 0x40 MLOAD DUP1 DUP4 SUB DUP2 PUSH1 0x0 DUP8 DUP1 EXTCODESIZE ISZERO DUP1 ISZERO PUSH2 0x1007 JUMPI PUSH1 0x0 DUP1 REVERT JUMPDEST POP GAS CALL ISZERO DUP1 ISZERO PUSH2 0x101B JUMPI RETURNDATASIZE PUSH1 0x0 DUP1 RETURNDATACOPY RETURNDATASIZE PUSH1 0x0 REVERT JUMPDEST POP POP POP POP POP JUMP JUMPDEST PUSH1 0x1 PUSH1 0x1 PUSH1 0xA0 SHL SUB SWAP2 DUP3 AND PUSH1 0x0 SWAP1 DUP2 MSTORE PUSH1 0x1 PUSH1 0x20 SWAP1 DUP2 MSTORE PUSH1 0x40 DUP1 DUP4 KECCAK256 SWAP4 SWAP1 SWAP5 AND DUP3 MSTORE SWAP2 SWAP1 SWAP2 MSTORE KECCAK256 SLOAD SWAP1 JUMP JUMPDEST PUSH2 0xC41 PUSH2 0x1058 PUSH2 0x5EE JUMP JUMPDEST PUSH1 0x1 PUSH1 0x1 PUSH1 0xA0 SHL SUB AND PUSH4 0x70A08231 CALLER PUSH1 0x40 MLOAD DUP3 PUSH4 0xFFFFFFFF AND PUSH1 0xE0 SHL DUP2 MSTORE PUSH1 0x4 ADD DUP1 DUP3 PUSH1 0x1 PUSH1 0x1 PUSH1 0xA0 SHL SUB AND DUP2 MSTORE PUSH1 0x20 ADD SWAP2 POP POP PUSH1 0x20 PUSH1 0x40 MLOAD DUP1 DUP4 SUB DUP2 DUP7 DUP1 EXTCODESIZE ISZERO DUP1 ISZERO PUSH2 0x10A4 JUMPI PUSH1 0x0 DUP1 REVERT JUMPDEST POP GAS STATICCALL ISZERO DUP1 ISZERO PUSH2 0x10B8 JUMPI RETURNDATASIZE PUSH1 0x0 DUP1 RETURNDATACOPY RETURNDATASIZE PUSH1 0x0 REVERT JUMPDEST POP POP POP POP PUSH1 0x40 MLOAD RETURNDATASIZE PUSH1 0x20 DUP2 LT ISZERO PUSH2 0x10CE JUMPI PUSH1 0x0 DUP1 REVERT JUMPDEST POP MLOAD PUSH2 0xE48 JUMP JUMPDEST PUSH2 0x10DD PUSH2 0x1561 JUMP JUMPDEST PUSH1 0x1 PUSH1 0x1 PUSH1 0xA0 SHL SUB AND PUSH2 0x10EE PUSH2 0xC43 JUMP JUMPDEST PUSH1 0x1 PUSH1 0x1 PUSH1 0xA0 SHL SUB AND EQ PUSH2 0x1137 JUMPI PUSH1 0x40 DUP1 MLOAD PUSH3 0x461BCD PUSH1 0xE5 SHL DUP2 MSTORE PUSH1 0x20 PUSH1 0x4 DUP3 ADD DUP2 SWAP1 MSTORE PUSH1 0x24 DUP3 ADD MSTORE PUSH1 0x0 DUP1 MLOAD PUSH1 0x20 PUSH2 0x202C DUP4 CODECOPY DUP2 MLOAD SWAP2 MSTORE PUSH1 0x44 DUP3 ADD MSTORE SWAP1 MLOAD SWAP1 DUP2 SWAP1 SUB PUSH1 0x64 ADD SWAP1 REVERT JUMPDEST PUSH2 0x113F PUSH2 0x5EE JUMP JUMPDEST PUSH1 0x1 PUSH1 0x1 PUSH1 0xA0 SHL SUB AND DUP2 PUSH1 0x1 PUSH1 0x1 PUSH1 0xA0 SHL SUB AND EQ ISZERO PUSH2 0x118E JUMPI PUSH1 0x40 DUP1 MLOAD PUSH3 0x461BCD PUSH1 0xE5 SHL DUP2 MSTORE PUSH1 0x20 PUSH1 0x4 DUP3 ADD MSTORE PUSH1 0x6 PUSH1 0x24 DUP3 ADD MSTORE PUSH6 0x10BA37B5B2B7 PUSH1 0xD1 SHL PUSH1 0x44 DUP3 ADD MSTORE SWAP1 MLOAD SWAP1 DUP2 SWAP1 SUB PUSH1 0x64 ADD SWAP1 REVERT JUMPDEST PUSH1 0x0 DUP2 PUSH1 0x1 PUSH1 0x1 PUSH1 0xA0 SHL SUB AND PUSH4 0x70A08231 ADDRESS PUSH1 0x40 MLOAD DUP3 PUSH4 0xFFFFFFFF AND PUSH1 0xE0 SHL DUP2 MSTORE PUSH1 0x4 ADD DUP1 DUP3 PUSH1 0x1 PUSH1 0x1 PUSH1 0xA0 SHL SUB AND DUP2 MSTORE PUSH1 0x20 ADD SWAP2 POP POP PUSH1 0x20 PUSH1 0x40 MLOAD DUP1 DUP4 SUB DUP2 DUP7 DUP1 EXTCODESIZE ISZERO DUP1 ISZERO PUSH2 0x11DD JUMPI PUSH1 0x0 DUP1 REVERT JUMPDEST POP GAS STATICCALL ISZERO DUP1 ISZERO PUSH2 0x11F1 JUMPI RETURNDATASIZE PUSH1 0x0 DUP1 RETURNDATACOPY RETURNDATASIZE PUSH1 0x0 REVERT JUMPDEST POP POP POP POP PUSH1 0x40 MLOAD RETURNDATASIZE PUSH1 0x20 DUP2 LT ISZERO PUSH2 0x1207 JUMPI PUSH1 0x0 DUP1 REVERT JUMPDEST POP MLOAD SWAP1 POP PUSH2 0x121F PUSH1 0x1 PUSH1 0x1 PUSH1 0xA0 SHL SUB DUP4 AND CALLER DUP4 PUSH2 0x1AB6 JUMP JUMPDEST POP POP JUMP JUMPDEST PUSH32 0x0 DUP2 JUMP JUMPDEST PUSH2 0x124F PUSH2 0x1561 JUMP JUMPDEST PUSH1 0x1 PUSH1 0x1 PUSH1 0xA0 SHL SUB AND PUSH2 0x1260 PUSH2 0xC43 JUMP JUMPDEST PUSH1 0x1 PUSH1 0x1 PUSH1 0xA0 SHL SUB AND EQ PUSH2 0x12A9 JUMPI PUSH1 0x40 DUP1 MLOAD PUSH3 0x461BCD PUSH1 0xE5 SHL DUP2 MSTORE PUSH1 0x20 PUSH1 0x4 DUP3 ADD DUP2 SWAP1 MSTORE PUSH1 0x24 DUP3 ADD MSTORE PUSH1 0x0 DUP1 MLOAD PUSH1 0x20 PUSH2 0x202C DUP4 CODECOPY DUP2 MLOAD SWAP2 MSTORE PUSH1 0x44 DUP3 ADD MSTORE SWAP1 MLOAD SWAP1 DUP2 SWAP1 SUB PUSH1 0x64 ADD SWAP1 REVERT JUMPDEST PUSH1 0x7 SLOAD PUSH1 0x1 PUSH1 0x1 PUSH1 0xA0 SHL SUB AND PUSH2 0x12FE JUMPI PUSH1 0x40 DUP1 MLOAD PUSH3 0x461BCD PUSH1 0xE5 SHL DUP2 MSTORE PUSH1 0x20 PUSH1 0x4 DUP3 ADD MSTORE PUSH1 0x15 PUSH1 0x24 DUP3 ADD MSTORE PUSH21 0x5468657265206973206E6F2063616E646964617465 PUSH1 0x58 SHL PUSH1 0x44 DUP3 ADD MSTORE SWAP1 MLOAD SWAP1 DUP2 SWAP1 SUB PUSH1 0x64 ADD SWAP1 REVERT JUMPDEST PUSH1 0x8 SLOAD TIMESTAMP SWAP1 PUSH2 0x132D SWAP1 PUSH32 0x0 PUSH2 0x1A5C JUMP JUMPDEST LT PUSH2 0x1376 JUMPI PUSH1 0x40 DUP1 MLOAD PUSH3 0x461BCD PUSH1 0xE5 SHL DUP2 MSTORE PUSH1 0x20 PUSH1 0x4 DUP3 ADD MSTORE PUSH1 0x14 PUSH1 0x24 DUP3 ADD MSTORE PUSH20 0x11195B185E481A185CC81B9BDD081C185CDCD959 PUSH1 0x62 SHL PUSH1 0x44 DUP3 ADD MSTORE SWAP1 MLOAD SWAP1 DUP2 SWAP1 SUB PUSH1 0x64 ADD SWAP1 REVERT JUMPDEST PUSH1 0x7 SLOAD PUSH1 0x40 DUP1 MLOAD PUSH1 0x1 PUSH1 0x1 PUSH1 0xA0 SHL SUB SWAP1 SWAP3 AND DUP3 MSTORE MLOAD PUSH32 0x7F37D440E85ABA7FBF641C4BDA5CA4EF669A80BFFAACDE2AA8D9FEB1B048C82C SWAP2 DUP2 SWAP1 SUB PUSH1 0x20 ADD SWAP1 LOG1 PUSH1 0x9 PUSH1 0x0 SWAP1 SLOAD SWAP1 PUSH2 0x100 EXP SWAP1 DIV PUSH1 0x1 PUSH1 0x1 PUSH1 0xA0 SHL SUB AND PUSH1 0x1 PUSH1 0x1 PUSH1 0xA0 SHL SUB AND PUSH4 0xFB617787 PUSH1 0x40 MLOAD DUP2 PUSH4 0xFFFFFFFF AND PUSH1 0xE0 SHL DUP2 MSTORE PUSH1 0x4 ADD PUSH1 0x0 PUSH1 0x40 MLOAD DUP1 DUP4 SUB DUP2 PUSH1 0x0 DUP8 DUP1 EXTCODESIZE ISZERO DUP1 ISZERO PUSH2 0x1405 JUMPI PUSH1 0x0 DUP1 REVERT JUMPDEST POP GAS CALL ISZERO DUP1 ISZERO PUSH2 0x1419 JUMPI RETURNDATASIZE PUSH1 0x0 DUP1 RETURNDATACOPY RETURNDATASIZE PUSH1 0x0 REVERT JUMPDEST POP POP PUSH1 0x7 DUP1 SLOAD PUSH1 0x9 DUP1 SLOAD PUSH1 0x1 PUSH1 0x1 PUSH1 0xA0 SHL SUB NOT SWAP1 DUP2 AND PUSH1 0x1 PUSH1 0x1 PUSH1 0xA0 SHL SUB DUP5 AND OR SWAP1 SWAP2 SSTORE AND SWAP1 SSTORE POP POP PUSH5 0x12A05F200 PUSH1 0x8 SSTORE PUSH2 0xC41 PUSH2 0xF91 JUMP JUMPDEST PUSH2 0x145B PUSH2 0x1561 JUMP JUMPDEST PUSH1 0x1 PUSH1 0x1 PUSH1 0xA0 SHL SUB AND PUSH2 0x146C PUSH2 0xC43 JUMP JUMPDEST PUSH1 0x1 PUSH1 0x1 PUSH1 0xA0 SHL SUB AND EQ PUSH2 0x14B5 JUMPI PUSH1 0x40 DUP1 MLOAD PUSH3 0x461BCD PUSH1 0xE5 SHL DUP2 MSTORE PUSH1 0x20 PUSH1 0x4 DUP3 ADD DUP2 SWAP1 MSTORE PUSH1 0x24 DUP3 ADD MSTORE PUSH1 0x0 DUP1 MLOAD PUSH1 0x20 PUSH2 0x202C DUP4 CODECOPY DUP2 MLOAD SWAP2 MSTORE PUSH1 0x44 DUP3 ADD MSTORE SWAP1 MLOAD SWAP1 DUP2 SWAP1 SUB PUSH1 0x64 ADD SWAP1 REVERT JUMPDEST PUSH1 0x1 PUSH1 0x1 PUSH1 0xA0 SHL SUB DUP2 AND PUSH2 0x14FA JUMPI PUSH1 0x40 MLOAD PUSH3 0x461BCD PUSH1 0xE5 SHL DUP2 MSTORE PUSH1 0x4 ADD DUP1 DUP1 PUSH1 0x20 ADD DUP3 DUP2 SUB DUP3 MSTORE PUSH1 0x26 DUP2 MSTORE PUSH1 0x20 ADD DUP1 PUSH2 0x1F2E PUSH1 0x26 SWAP2 CODECOPY PUSH1 0x40 ADD SWAP2 POP POP PUSH1 0x40 MLOAD DUP1 SWAP2 SUB SWAP1 REVERT JUMPDEST PUSH1 0x5 SLOAD PUSH1 0x40 MLOAD PUSH1 0x1 PUSH1 0x1 PUSH1 0xA0 SHL SUB DUP1 DUP5 AND SWAP3 PUSH2 0x100 SWAP1 DIV AND SWAP1 PUSH32 0x8BE0079C531659141344CD1FD0A4F28419497F9722A3DAAFE3B4186F6B6457E0 SWAP1 PUSH1 0x0 SWAP1 LOG3 PUSH1 0x5 DUP1 SLOAD PUSH1 0x1 PUSH1 0x1 PUSH1 0xA0 SHL SUB SWAP1 SWAP3 AND PUSH2 0x100 MUL PUSH2 0x100 PUSH1 0x1 PUSH1 0xA8 SHL SUB NOT SWAP1 SWAP3 AND SWAP2 SWAP1 SWAP2 OR SWAP1 SSTORE JUMP JUMPDEST CALLER SWAP1 JUMP JUMPDEST PUSH1 0x1 PUSH1 0x1 PUSH1 0xA0 SHL SUB DUP4 AND PUSH2 0x15AA JUMPI PUSH1 0x40 MLOAD PUSH3 0x461BCD PUSH1 0xE5 SHL DUP2 MSTORE PUSH1 0x4 ADD DUP1 DUP1 PUSH1 0x20 ADD DUP3 DUP2 SUB DUP3 MSTORE PUSH1 0x24 DUP2 MSTORE PUSH1 0x20 ADD DUP1 PUSH2 0x2092 PUSH1 0x24 SWAP2 CODECOPY PUSH1 0x40 ADD SWAP2 POP POP PUSH1 0x40 MLOAD DUP1 SWAP2 SUB SWAP1 REVERT JUMPDEST PUSH1 0x1 PUSH1 0x1 PUSH1 0xA0 SHL SUB DUP3 AND PUSH2 0x15EF JUMPI PUSH1 0x40 MLOAD PUSH3 0x461BCD PUSH1 0xE5 SHL DUP2 MSTORE PUSH1 0x4 ADD DUP1 DUP1 PUSH1 0x20 ADD DUP3 DUP2 SUB DUP3 MSTORE PUSH1 0x22 DUP2 MSTORE PUSH1 0x20 ADD DUP1 PUSH2 0x1F54 PUSH1 0x22 SWAP2 CODECOPY PUSH1 0x40 ADD SWAP2 POP POP PUSH1 0x40 MLOAD DUP1 SWAP2 SUB SWAP1 REVERT JUMPDEST PUSH1 0x1 PUSH1 0x1 PUSH1 0xA0 SHL SUB DUP1 DUP5 AND PUSH1 0x0 DUP2 DUP2 MSTORE PUSH1 0x1 PUSH1 0x20 SWAP1 DUP2 MSTORE PUSH1 0x40 DUP1 DUP4 KECCAK256 SWAP5 DUP8 AND DUP1 DUP5 MSTORE SWAP5 DUP3 MSTORE SWAP2 DUP3 SWAP1 KECCAK256 DUP6 SWAP1 SSTORE DUP2 MLOAD DUP6 DUP2 MSTORE SWAP2 MLOAD PUSH32 0x8C5BE1E5EBEC7D5BD14F71427D1E84F3DD0314C0F7B2291E5B200AC8C7C3B925 SWAP3 DUP2 SWAP1 SUB SWAP1 SWAP2 ADD SWAP1 LOG3 POP POP POP JUMP JUMPDEST PUSH1 0x1 PUSH1 0x1 PUSH1 0xA0 SHL SUB DUP4 AND PUSH2 0x1696 JUMPI PUSH1 0x40 MLOAD PUSH3 0x461BCD PUSH1 0xE5 SHL DUP2 MSTORE PUSH1 0x4 ADD DUP1 DUP1 PUSH1 0x20 ADD DUP3 DUP2 SUB DUP3 MSTORE PUSH1 0x25 DUP2 MSTORE PUSH1 0x20 ADD DUP1 PUSH2 0x206D PUSH1 0x25 SWAP2 CODECOPY PUSH1 0x40 ADD SWAP2 POP POP PUSH1 0x40 MLOAD DUP1 SWAP2 SUB SWAP1 REVERT JUMPDEST PUSH1 0x1 PUSH1 0x1 PUSH1 0xA0 SHL SUB DUP3 AND PUSH2 0x16DB JUMPI PUSH1 0x40 MLOAD PUSH3 0x461BCD PUSH1 0xE5 SHL DUP2 MSTORE PUSH1 0x4 ADD DUP1 DUP1 PUSH1 0x20 ADD DUP3 DUP2 SUB DUP3 MSTORE PUSH1 0x23 DUP2 MSTORE PUSH1 0x20 ADD DUP1 PUSH2 0x1EE9 PUSH1 0x23 SWAP2 CODECOPY PUSH1 0x40 ADD SWAP2 POP POP PUSH1 0x40 MLOAD DUP1 SWAP2 SUB SWAP1 REVERT JUMPDEST PUSH2 0x16E6 DUP4 DUP4 DUP4 PUSH2 0x8E5 JUMP JUMPDEST PUSH2 0x1723 DUP2 PUSH1 0x40 MLOAD DUP1 PUSH1 0x60 ADD PUSH1 0x40 MSTORE DUP1 PUSH1 0x26 DUP2 MSTORE PUSH1 0x20 ADD PUSH2 0x1F76 PUSH1 0x26 SWAP2 CODECOPY PUSH1 0x1 PUSH1 0x1 PUSH1 0xA0 SHL SUB DUP7 AND PUSH1 0x0 SWAP1 DUP2 MSTORE PUSH1 0x20 DUP2 SWAP1 MSTORE PUSH1 0x40 SWAP1 KECCAK256 SLOAD SWAP2 SWAP1 PUSH2 0x17AC JUMP JUMPDEST PUSH1 0x1 PUSH1 0x1 PUSH1 0xA0 SHL SUB DUP1 DUP6 AND PUSH1 0x0 SWAP1 DUP2 MSTORE PUSH1 0x20 DUP2 SWAP1 MSTORE PUSH1 0x40 DUP1 DUP3 KECCAK256 SWAP4 SWAP1 SWAP4 SSTORE SWAP1 DUP5 AND DUP2 MSTORE KECCAK256 SLOAD PUSH2 0x1752 SWAP1 DUP3 PUSH2 0x1A5C JUMP JUMPDEST PUSH1 0x1 PUSH1 0x1 PUSH1 0xA0 SHL SUB DUP1 DUP5 AND PUSH1 0x0 DUP2 DUP2 MSTORE PUSH1 0x20 DUP2 DUP2 MSTORE PUSH1 0x40 SWAP2 DUP3 SWAP1 KECCAK256 SWAP5 SWAP1 SWAP5 SSTORE DUP1 MLOAD DUP6 DUP2 MSTORE SWAP1 MLOAD SWAP2 SWAP4 SWAP3 DUP8 AND SWAP3 PUSH32 0xDDF252AD1BE2C89B69C2B068FC378DAA952BA7F163C4A11628F55A4DF523B3EF SWAP3 SWAP2 DUP3 SWAP1 SUB ADD SWAP1 LOG3 POP POP POP JUMP JUMPDEST PUSH1 0x0 DUP2 DUP5 DUP5 GT ISZERO PUSH2 0x183B JUMPI PUSH1 0x40 MLOAD PUSH3 0x461BCD PUSH1 0xE5 SHL DUP2 MSTORE PUSH1 0x4 ADD DUP1 DUP1 PUSH1 0x20 ADD DUP3 DUP2 SUB DUP3 MSTORE DUP4 DUP2 DUP2 MLOAD DUP2 MSTORE PUSH1 0x20 ADD SWAP2 POP DUP1 MLOAD SWAP1 PUSH1 0x20 ADD SWAP1 DUP1 DUP4 DUP4 PUSH1 0x0 JUMPDEST DUP4 DUP2 LT ISZERO PUSH2 0x1800 JUMPI DUP2 DUP2 ADD MLOAD DUP4 DUP3 ADD MSTORE PUSH1 0x20 ADD PUSH2 0x17E8 JUMP JUMPDEST POP POP POP POP SWAP1 POP SWAP1 DUP2 ADD SWAP1 PUSH1 0x1F AND DUP1 ISZERO PUSH2 0x182D JUMPI DUP1 DUP3 SUB DUP1 MLOAD PUSH1 0x1 DUP4 PUSH1 0x20 SUB PUSH2 0x100 EXP SUB NOT AND DUP2 MSTORE PUSH1 0x20 ADD SWAP2 POP JUMPDEST POP SWAP3 POP POP POP PUSH1 0x40 MLOAD DUP1 SWAP2 SUB SWAP1 REVERT JUMPDEST POP POP POP SWAP1 SUB SWAP1 JUMP JUMPDEST PUSH1 0x0 DUP3 PUSH2 0x1852 JUMPI POP PUSH1 0x0 PUSH2 0x5E2 JUMP JUMPDEST DUP3 DUP3 MUL DUP3 DUP5 DUP3 DUP2 PUSH2 0x185F JUMPI INVALID JUMPDEST DIV EQ PUSH2 0x6E5 JUMPI PUSH1 0x40 MLOAD PUSH3 0x461BCD PUSH1 0xE5 SHL DUP2 MSTORE PUSH1 0x4 ADD DUP1 DUP1 PUSH1 0x20 ADD DUP3 DUP2 SUB DUP3 MSTORE PUSH1 0x21 DUP2 MSTORE PUSH1 0x20 ADD DUP1 PUSH2 0x1FE3 PUSH1 0x21 SWAP2 CODECOPY PUSH1 0x40 ADD SWAP2 POP POP PUSH1 0x40 MLOAD DUP1 SWAP2 SUB SWAP1 REVERT JUMPDEST PUSH1 0x0 DUP1 DUP3 GT PUSH2 0x18F2 JUMPI PUSH1 0x40 DUP1 MLOAD PUSH3 0x461BCD PUSH1 0xE5 SHL DUP2 MSTORE PUSH1 0x20 PUSH1 0x4 DUP3 ADD MSTORE PUSH1 0x1A PUSH1 0x24 DUP3 ADD MSTORE PUSH32 0x536166654D6174683A206469766973696F6E206279207A65726F000000000000 PUSH1 0x44 DUP3 ADD MSTORE SWAP1 MLOAD SWAP1 DUP2 SWAP1 SUB PUSH1 0x64 ADD SWAP1 REVERT JUMPDEST DUP2 DUP4 DUP2 PUSH2 0x18FB JUMPI INVALID JUMPDEST DIV SWAP4 SWAP3 POP POP POP JUMP JUMPDEST PUSH1 0x1 PUSH1 0x1 PUSH1 0xA0 SHL SUB DUP3 AND PUSH2 0x1948 JUMPI PUSH1 0x40 MLOAD PUSH3 0x461BCD PUSH1 0xE5 SHL DUP2 MSTORE PUSH1 0x4 ADD DUP1 DUP1 PUSH1 0x20 ADD DUP3 DUP2 SUB DUP3 MSTORE PUSH1 0x21 DUP2 MSTORE PUSH1 0x20 ADD DUP1 PUSH2 0x204C PUSH1 0x21 SWAP2 CODECOPY PUSH1 0x40 ADD SWAP2 POP POP PUSH1 0x40 MLOAD DUP1 SWAP2 SUB SWAP1 REVERT JUMPDEST PUSH2 0x1954 DUP3 PUSH1 0x0 DUP4 PUSH2 0x8E5 JUMP JUMPDEST PUSH2 0x1991 DUP2 PUSH1 0x40 MLOAD DUP1 PUSH1 0x60 ADD PUSH1 0x40 MSTORE DUP1 PUSH1 0x22 DUP2 MSTORE PUSH1 0x20 ADD PUSH2 0x1F0C PUSH1 0x22 SWAP2 CODECOPY PUSH1 0x1 PUSH1 0x1 PUSH1 0xA0 SHL SUB DUP6 AND PUSH1 0x0 SWAP1 DUP2 MSTORE PUSH1 0x20 DUP2 SWAP1 MSTORE PUSH1 0x40 SWAP1 KECCAK256 SLOAD SWAP2 SWAP1 PUSH2 0x17AC JUMP JUMPDEST PUSH1 0x1 PUSH1 0x1 PUSH1 0xA0 SHL SUB DUP4 AND PUSH1 0x0 SWAP1 DUP2 MSTORE PUSH1 0x20 DUP2 SWAP1 MSTORE PUSH1 0x40 SWAP1 KECCAK256 SSTORE PUSH1 0x2 SLOAD PUSH2 0x19B7 SWAP1 DUP3 PUSH2 0x19FF JUMP JUMPDEST PUSH1 0x2 SSTORE PUSH1 0x40 DUP1 MLOAD DUP3 DUP2 MSTORE SWAP1 MLOAD PUSH1 0x0 SWAP2 PUSH1 0x1 PUSH1 0x1 PUSH1 0xA0 SHL SUB DUP6 AND SWAP2 PUSH32 0xDDF252AD1BE2C89B69C2B068FC378DAA952BA7F163C4A11628F55A4DF523B3EF SWAP2 DUP2 SWAP1 SUB PUSH1 0x20 ADD SWAP1 LOG3 POP POP JUMP JUMPDEST PUSH1 0x0 DUP3 DUP3 GT ISZERO PUSH2 0x1A56 JUMPI PUSH1 0x40 DUP1 MLOAD PUSH3 0x461BCD PUSH1 0xE5 SHL DUP2 MSTORE PUSH1 0x20 PUSH1 0x4 DUP3 ADD MSTORE PUSH1 0x1E PUSH1 0x24 DUP3 ADD MSTORE PUSH32 0x536166654D6174683A207375627472616374696F6E206F766572666C6F770000 PUSH1 0x44 DUP3 ADD MSTORE SWAP1 MLOAD SWAP1 DUP2 SWAP1 SUB PUSH1 0x64 ADD SWAP1 REVERT JUMPDEST POP SWAP1 SUB SWAP1 JUMP JUMPDEST PUSH1 0x0 DUP3 DUP3 ADD DUP4 DUP2 LT ISZERO PUSH2 0x6E5 JUMPI PUSH1 0x40 DUP1 MLOAD PUSH3 0x461BCD PUSH1 0xE5 SHL DUP2 MSTORE PUSH1 0x20 PUSH1 0x4 DUP3 ADD MSTORE PUSH1 0x1B PUSH1 0x24 DUP3 ADD MSTORE PUSH32 0x536166654D6174683A206164646974696F6E206F766572666C6F770000000000 PUSH1 0x44 DUP3 ADD MSTORE SWAP1 MLOAD SWAP1 DUP2 SWAP1 SUB PUSH1 0x64 ADD SWAP1 REVERT JUMPDEST PUSH1 0x40 DUP1 MLOAD PUSH1 0x1 PUSH1 0x1 PUSH1 0xA0 SHL SUB DUP5 AND PUSH1 0x24 DUP3 ADD MSTORE PUSH1 0x44 DUP1 DUP3 ADD DUP5 SWAP1 MSTORE DUP3 MLOAD DUP1 DUP4 SUB SWAP1 SWAP2 ADD DUP2 MSTORE PUSH1 0x64 SWAP1 SWAP2 ADD SWAP1 SWAP2 MSTORE PUSH1 0x20 DUP2 ADD DUP1 MLOAD PUSH1 0x1 PUSH1 0x1 PUSH1 0xE0 SHL SUB AND PUSH4 0xA9059CBB PUSH1 0xE0 SHL OR SWAP1 MSTORE PUSH2 0x8E5 SWAP1 DUP5 SWAP1 PUSH2 0x1C58 JUMP JUMPDEST PUSH1 0x40 DUP1 MLOAD PUSH1 0x1 PUSH1 0x1 PUSH1 0xA0 SHL SUB DUP1 DUP7 AND PUSH1 0x24 DUP4 ADD MSTORE DUP5 AND PUSH1 0x44 DUP3 ADD MSTORE PUSH1 0x64 DUP1 DUP3 ADD DUP5 SWAP1 MSTORE DUP3 MLOAD DUP1 DUP4 SUB SWAP1 SWAP2 ADD DUP2 MSTORE PUSH1 0x84 SWAP1 SWAP2 ADD SWAP1 SWAP2 MSTORE PUSH1 0x20 DUP2 ADD DUP1 MLOAD PUSH1 0x1 PUSH1 0x1 PUSH1 0xE0 SHL SUB AND PUSH4 0x23B872DD PUSH1 0xE0 SHL OR SWAP1 MSTORE PUSH2 0x1B62 SWAP1 DUP6 SWAP1 PUSH2 0x1C58 JUMP JUMPDEST POP POP POP POP JUMP JUMPDEST PUSH1 0x1 PUSH1 0x1 PUSH1 0xA0 SHL SUB DUP3 AND PUSH2 0x1BC3 JUMPI PUSH1 0x40 DUP1 MLOAD PUSH3 0x461BCD PUSH1 0xE5 SHL DUP2 MSTORE PUSH1 0x20 PUSH1 0x4 DUP3 ADD MSTORE PUSH1 0x1F PUSH1 0x24 DUP3 ADD MSTORE PUSH32 0x45524332303A206D696E7420746F20746865207A65726F206164647265737300 PUSH1 0x44 DUP3 ADD MSTORE SWAP1 MLOAD SWAP1 DUP2 SWAP1 SUB PUSH1 0x64 ADD SWAP1 REVERT JUMPDEST PUSH2 0x1BCF PUSH1 0x0 DUP4 DUP4 PUSH2 0x8E5 JUMP JUMPDEST PUSH1 0x2 SLOAD PUSH2 0x1BDC SWAP1 DUP3 PUSH2 0x1A5C JUMP JUMPDEST PUSH1 0x2 SSTORE PUSH1 0x1 PUSH1 0x1 PUSH1 0xA0 SHL SUB DUP3 AND PUSH1 0x0 SWAP1 DUP2 MSTORE PUSH1 0x20 DUP2 SWAP1 MSTORE PUSH1 0x40 SWAP1 KECCAK256 SLOAD PUSH2 0x1C02 SWAP1 DUP3 PUSH2 0x1A5C JUMP JUMPDEST PUSH1 0x1 PUSH1 0x1 PUSH1 0xA0 SHL SUB DUP4 AND PUSH1 0x0 DUP2 DUP2 MSTORE PUSH1 0x20 DUP2 DUP2 MSTORE PUSH1 0x40 DUP1 DUP4 KECCAK256 SWAP5 SWAP1 SWAP5 SSTORE DUP4 MLOAD DUP6 DUP2 MSTORE SWAP4 MLOAD SWAP3 SWAP4 SWAP2 SWAP3 PUSH32 0xDDF252AD1BE2C89B69C2B068FC378DAA952BA7F163C4A11628F55A4DF523B3EF SWAP3 DUP2 SWAP1 SUB SWAP1 SWAP2 ADD SWAP1 LOG3 POP POP JUMP JUMPDEST PUSH1 0x60 PUSH2 0x1CAD DUP3 PUSH1 0x40 MLOAD DUP1 PUSH1 0x40 ADD PUSH1 0x40 MSTORE DUP1 PUSH1 0x20 DUP2 MSTORE PUSH1 0x20 ADD PUSH32 0x5361666545524332303A206C6F772D6C6576656C2063616C6C206661696C6564 DUP2 MSTORE POP DUP6 PUSH1 0x1 PUSH1 0x1 PUSH1 0xA0 SHL SUB AND PUSH2 0x1D09 SWAP1 SWAP3 SWAP2 SWAP1 PUSH4 0xFFFFFFFF AND JUMP JUMPDEST DUP1 MLOAD SWAP1 SWAP2 POP ISZERO PUSH2 0x8E5 JUMPI DUP1 DUP1 PUSH1 0x20 ADD SWAP1 MLOAD PUSH1 0x20 DUP2 LT ISZERO PUSH2 0x1CCC JUMPI PUSH1 0x0 DUP1 REVERT JUMPDEST POP MLOAD PUSH2 0x8E5 JUMPI PUSH1 0x40 MLOAD PUSH3 0x461BCD PUSH1 0xE5 SHL DUP2 MSTORE PUSH1 0x4 ADD DUP1 DUP1 PUSH1 0x20 ADD DUP3 DUP2 SUB DUP3 MSTORE PUSH1 0x2A DUP2 MSTORE PUSH1 0x20 ADD DUP1 PUSH2 0x20B6 PUSH1 0x2A SWAP2 CODECOPY PUSH1 0x40 ADD SWAP2 POP POP PUSH1 0x40 MLOAD DUP1 SWAP2 SUB SWAP1 REVERT JUMPDEST PUSH1 0x60 PUSH2 0x1D18 DUP5 DUP5 PUSH1 0x0 DUP6 PUSH2 0x1D20 JUMP JUMPDEST SWAP5 SWAP4 POP POP POP POP JUMP JUMPDEST PUSH1 0x60 DUP3 SELFBALANCE LT ISZERO PUSH2 0x1D61 JUMPI PUSH1 0x40 MLOAD PUSH3 0x461BCD PUSH1 0xE5 SHL DUP2 MSTORE PUSH1 0x4 ADD DUP1 DUP1 PUSH1 0x20 ADD DUP3 DUP2 SUB DUP3 MSTORE PUSH1 0x26 DUP2 MSTORE PUSH1 0x20 ADD DUP1 PUSH2 0x1F9C PUSH1 0x26 SWAP2 CODECOPY PUSH1 0x40 ADD SWAP2 POP POP PUSH1 0x40 MLOAD DUP1 SWAP2 SUB SWAP1 REVERT JUMPDEST PUSH2 0x1D6A DUP6 PUSH2 0x1E7C JUMP JUMPDEST PUSH2 0x1DBB JUMPI PUSH1 0x40 DUP1 MLOAD PUSH3 0x461BCD PUSH1 0xE5 SHL DUP2 MSTORE PUSH1 0x20 PUSH1 0x4 DUP3 ADD MSTORE PUSH1 0x1D PUSH1 0x24 DUP3 ADD MSTORE PUSH32 0x416464726573733A2063616C6C20746F206E6F6E2D636F6E7472616374000000 PUSH1 0x44 DUP3 ADD MSTORE SWAP1 MLOAD SWAP1 DUP2 SWAP1 SUB PUSH1 0x64 ADD SWAP1 REVERT JUMPDEST PUSH1 0x0 PUSH1 0x60 DUP7 PUSH1 0x1 PUSH1 0x1 PUSH1 0xA0 SHL SUB AND DUP6 DUP8 PUSH1 0x40 MLOAD DUP1 DUP3 DUP1 MLOAD SWAP1 PUSH1 0x20 ADD SWAP1 DUP1 DUP4 DUP4 JUMPDEST PUSH1 0x20 DUP4 LT PUSH2 0x1DFA JUMPI DUP1 MLOAD DUP3 MSTORE PUSH1 0x1F NOT SWAP1 SWAP3 ADD SWAP2 PUSH1 0x20 SWAP2 DUP3 ADD SWAP2 ADD PUSH2 0x1DDB JUMP JUMPDEST PUSH1 0x1 DUP4 PUSH1 0x20 SUB PUSH2 0x100 EXP SUB DUP1 NOT DUP3 MLOAD AND DUP2 DUP5 MLOAD AND DUP1 DUP3 OR DUP6 MSTORE POP POP POP POP POP POP SWAP1 POP ADD SWAP2 POP POP PUSH1 0x0 PUSH1 0x40 MLOAD DUP1 DUP4 SUB DUP2 DUP6 DUP8 GAS CALL SWAP3 POP POP POP RETURNDATASIZE DUP1 PUSH1 0x0 DUP2 EQ PUSH2 0x1E5C JUMPI PUSH1 0x40 MLOAD SWAP2 POP PUSH1 0x1F NOT PUSH1 0x3F RETURNDATASIZE ADD AND DUP3 ADD PUSH1 0x40 MSTORE RETURNDATASIZE DUP3 MSTORE RETURNDATASIZE PUSH1 0x0 PUSH1 0x20 DUP5 ADD RETURNDATACOPY PUSH2 0x1E61 JUMP JUMPDEST PUSH1 0x60 SWAP2 POP JUMPDEST POP SWAP2 POP SWAP2 POP PUSH2 0x1E71 DUP3 DUP3 DUP7 PUSH2 0x1E82 JUMP JUMPDEST SWAP8 SWAP7 POP POP POP POP POP POP POP JUMP JUMPDEST EXTCODESIZE ISZERO ISZERO SWAP1 JUMP JUMPDEST PUSH1 0x60 DUP4 ISZERO PUSH2 0x1E91 JUMPI POP DUP2 PUSH2 0x6E5 JUMP JUMPDEST DUP3 MLOAD ISZERO PUSH2 0x1EA1 JUMPI DUP3 MLOAD DUP1 DUP5 PUSH1 0x20 ADD REVERT JUMPDEST PUSH1 0x40 MLOAD PUSH3 0x461BCD PUSH1 0xE5 SHL DUP2 MSTORE PUSH1 0x20 PUSH1 0x4 DUP3 ADD DUP2 DUP2 MSTORE DUP5 MLOAD PUSH1 0x24 DUP5 ADD MSTORE DUP5 MLOAD DUP6 SWAP4 SWAP2 SWAP3 DUP4 SWAP3 PUSH1 0x44 ADD SWAP2 SWAP1 DUP6 ADD SWAP1 DUP1 DUP4 DUP4 PUSH1 0x0 DUP4 ISZERO PUSH2 0x1800 JUMPI DUP2 DUP2 ADD MLOAD DUP4 DUP3 ADD MSTORE PUSH1 0x20 ADD PUSH2 0x17E8 JUMP INVALID GASLIMIT MSTORE NUMBER ORIGIN ADDRESS GASPRICE KECCAK256 PUSH21 0x72616E7366657220746F20746865207A65726F2061 PUSH5 0x6472657373 GASLIMIT MSTORE NUMBER ORIGIN ADDRESS GASPRICE KECCAK256 PUSH3 0x75726E KECCAK256 PUSH2 0x6D6F PUSH22 0x6E7420657863656564732062616C616E63654F776E61 PUSH3 0x6C653A KECCAK256 PUSH15 0x6577206F776E657220697320746865 KECCAK256 PUSH27 0x65726F206164647265737345524332303A20617070726F76652074 PUSH16 0x20746865207A65726F20616464726573 PUSH20 0x45524332303A207472616E7366657220616D6F75 PUSH15 0x7420657863656564732062616C616E PUSH4 0x65416464 PUSH19 0x6573733A20696E73756666696369656E742062 PUSH2 0x6C61 PUSH15 0x636520666F722063616C6C50726F70 PUSH16 0x73616C206E6F742076616C696420666F PUSH19 0x2074686973205661756C74536166654D617468 GASPRICE KECCAK256 PUSH14 0x756C7469706C69636174696F6E20 PUSH16 0x766572666C6F7745524332303A207472 PUSH2 0x6E73 PUSH7 0x657220616D6F75 PUSH15 0x74206578636565647320616C6C6F77 PUSH2 0x6E63 PUSH6 0x4F776E61626C PUSH6 0x3A2063616C6C PUSH6 0x72206973206E PUSH16 0x7420746865206F776E65724552433230 GASPRICE KECCAK256 PUSH3 0x75726E KECCAK256 PUSH7 0x726F6D20746865 KECCAK256 PUSH27 0x65726F206164647265737345524332303A207472616E7366657220 PUSH7 0x726F6D20746865 KECCAK256 PUSH27 0x65726F206164647265737345524332303A20617070726F76652066 PUSH19 0x6F6D20746865207A65726F2061646472657373 MSTORE8 PUSH2 0x6665 GASLIMIT MSTORE NUMBER ORIGIN ADDRESS GASPRICE KECCAK256 GASLIMIT MSTORE NUMBER ORIGIN ADDRESS KECCAK256 PUSH16 0x7065726174696F6E20646964206E6F74 KECCAK256 PUSH20 0x75636365656445524332303A2064656372656173 PUSH6 0x6420616C6C6F PUSH24 0x616E63652062656C6F77207A65726FA26469706673582212 KECCAK256 ADD 0x4D SSTORE 0x4E 0xC4 0xDC DUP13 0x2F 0x22 0xE4 0xC0 GASLIMIT 0xB2 SWAP6 0x2B PUSH27 0x1C529E25DB739CD1D3A9A0216D6D98B664736F6C634300060C0033 "
				},
				"gasEstimates": {
					"creation": {
						"codeDepositCost": "1701200",
						"executionCost": "infinite",
						"totalCost": "infinite"
					},
					"external": {
						"allowance(address,address)": "1339",
						"approvalDelay()": "infinite",
						"approve(address,uint256)": "infinite",
						"available()": "infinite",
						"balance()": "infinite",
						"balanceOf(address)": "1190",
						"decimals()": "1125",
						"decreaseAllowance(address,uint256)": "infinite",
						"deposit(uint256)": "infinite",
						"depositAll()": "infinite",
						"earn()": "infinite",
						"getPricePerFullShare()": "infinite",
						"inCaseTokensGetStuck(address)": "infinite",
						"increaseAllowance(address,uint256)": "infinite",
						"name()": "infinite",
						"owner()": "1116",
						"proposeStrat(address)": "infinite",
						"renounceOwnership()": "infinite",
						"stratCandidate()": "1962",
						"strategy()": "1104",
						"symbol()": "infinite",
						"totalSupply()": "1089",
						"transfer(address,uint256)": "infinite",
						"transferFrom(address,address,uint256)": "infinite",
						"transferOwnership(address)": "infinite",
						"upgradeStrat()": "infinite",
						"want()": "infinite",
						"withdraw(uint256)": "infinite",
						"withdrawAll()": "infinite"
					}
				},
				"methodIdentifiers": {
					"allowance(address,address)": "dd62ed3e",
					"approvalDelay()": "e2d1e75c",
					"approve(address,uint256)": "095ea7b3",
					"available()": "48a0d754",
					"balance()": "b69ef8a8",
					"balanceOf(address)": "70a08231",
					"decimals()": "313ce567",
					"decreaseAllowance(address,uint256)": "a457c2d7",
					"deposit(uint256)": "b6b55f25",
					"depositAll()": "de5f6268",
					"earn()": "d389800f",
					"getPricePerFullShare()": "77c7b8fc",
					"inCaseTokensGetStuck(address)": "def68a9c",
					"increaseAllowance(address,uint256)": "39509351",
					"name()": "06fdde03",
					"owner()": "8da5cb5b",
					"proposeStrat(address)": "5b12ff9b",
					"renounceOwnership()": "715018a6",
					"stratCandidate()": "76dfabb8",
					"strategy()": "a8c62e76",
					"symbol()": "95d89b41",
					"totalSupply()": "18160ddd",
					"transfer(address,uint256)": "a9059cbb",
					"transferFrom(address,address,uint256)": "23b872dd",
					"transferOwnership(address)": "f2fde38b",
					"upgradeStrat()": "e6685244",
					"want()": "1f1fcd51",
					"withdraw(uint256)": "2e1a7d4d",
					"withdrawAll()": "853828b6"
				}
			},
			"storageLayout": {
				"storage": [
					{
						"astId": 466,
						"contract": "Vault/EvolleVault.sol:EvolleVault",
						"label": "_balances",
						"offset": 0,
						"slot": "0",
						"type": "t_mapping(t_address,t_uint256)"
					},
					{
						"astId": 472,
						"contract": "Vault/EvolleVault.sol:EvolleVault",
						"label": "_allowances",
						"offset": 0,
						"slot": "1",
						"type": "t_mapping(t_address,t_mapping(t_address,t_uint256))"
					},
					{
						"astId": 474,
						"contract": "Vault/EvolleVault.sol:EvolleVault",
						"label": "_totalSupply",
						"offset": 0,
						"slot": "2",
						"type": "t_uint256"
					},
					{
						"astId": 476,
						"contract": "Vault/EvolleVault.sol:EvolleVault",
						"label": "_name",
						"offset": 0,
						"slot": "3",
						"type": "t_string_storage"
					},
					{
						"astId": 478,
						"contract": "Vault/EvolleVault.sol:EvolleVault",
						"label": "_symbol",
						"offset": 0,
						"slot": "4",
						"type": "t_string_storage"
					},
					{
						"astId": 480,
						"contract": "Vault/EvolleVault.sol:EvolleVault",
						"label": "_decimals",
						"offset": 0,
						"slot": "5",
						"type": "t_uint8"
					},
					{
						"astId": 1462,
						"contract": "Vault/EvolleVault.sol:EvolleVault",
						"label": "_owner",
						"offset": 1,
						"slot": "5",
						"type": "t_address"
					},
					{
						"astId": 1574,
						"contract": "Vault/EvolleVault.sol:EvolleVault",
						"label": "_status",
						"offset": 0,
						"slot": "6",
						"type": "t_uint256"
					},
					{
						"astId": 1687,
						"contract": "Vault/EvolleVault.sol:EvolleVault",
						"label": "stratCandidate",
						"offset": 0,
						"slot": "7",
						"type": "t_struct(StratCandidate)1685_storage"
					},
					{
						"astId": 1689,
						"contract": "Vault/EvolleVault.sol:EvolleVault",
						"label": "strategy",
						"offset": 0,
						"slot": "9",
						"type": "t_contract(IStrategy)1666"
					}
				],
				"types": {
					"t_address": {
						"encoding": "inplace",
						"label": "address",
						"numberOfBytes": "20"
					},
					"t_contract(IStrategy)1666": {
						"encoding": "inplace",
						"label": "contract IStrategy",
						"numberOfBytes": "20"
					},
					"t_mapping(t_address,t_mapping(t_address,t_uint256))": {
						"encoding": "mapping",
						"key": "t_address",
						"label": "mapping(address => mapping(address => uint256))",
						"numberOfBytes": "32",
						"value": "t_mapping(t_address,t_uint256)"
					},
					"t_mapping(t_address,t_uint256)": {
						"encoding": "mapping",
						"key": "t_address",
						"label": "mapping(address => uint256)",
						"numberOfBytes": "32",
						"value": "t_uint256"
					},
					"t_string_storage": {
						"encoding": "bytes",
						"label": "string",
						"numberOfBytes": "32"
					},
					"t_struct(StratCandidate)1685_storage": {
						"encoding": "inplace",
						"label": "struct EvolleVault.StratCandidate",
						"members": [
							{
								"astId": 1682,
								"contract": "Vault/EvolleVault.sol:EvolleVault",
								"label": "implementation",
								"offset": 0,
								"slot": "0",
								"type": "t_address"
							},
							{
								"astId": 1684,
								"contract": "Vault/EvolleVault.sol:EvolleVault",
								"label": "proposedTime",
								"offset": 0,
								"slot": "1",
								"type": "t_uint256"
							}
						],
						"numberOfBytes": "64"
					},
					"t_uint256": {
						"encoding": "inplace",
						"label": "uint256",
						"numberOfBytes": "32"
					},
					"t_uint8": {
						"encoding": "inplace",
						"label": "uint8",
						"numberOfBytes": "1"
					}
				}
			},
			"userdoc": {
				"kind": "user",
				"methods": {},
				"version": 1
			}
		}
	}
}